{
  "address": "0x662c3aFD2a1B5912C8c798AF84f5ABe25D33e5fC",
  "abi": [
    {
      "inputs": [
        {
          "internalType": "address",
          "name": "_repository",
          "type": "address"
        }
      ],
      "stateMutability": "nonpayable",
      "type": "constructor"
    },
    {
      "inputs": [],
      "name": "InvalidSiloRepository",
      "type": "error"
    },
    {
      "inputs": [],
      "name": "NotSilo",
      "type": "error"
    },
    {
      "inputs": [],
      "name": "RepayApprovalFailed",
      "type": "error"
    },
    {
      "inputs": [],
      "name": "RepayFailed",
      "type": "error"
    },
    {
      "inputs": [],
      "name": "UsersMustMatchSilos",
      "type": "error"
    },
    {
      "anonymous": false,
      "inputs": [
        {
          "indexed": true,
          "internalType": "address",
          "name": "silo",
          "type": "address"
        },
        {
          "indexed": true,
          "internalType": "address",
          "name": "user",
          "type": "address"
        }
      ],
      "name": "LiquidationExecuted",
      "type": "event"
    },
    {
      "inputs": [],
      "name": "SILO_REPOSITORY",
      "outputs": [
        {
          "internalType": "contract ISiloRepository",
          "name": "",
          "type": "address"
        }
      ],
      "stateMutability": "view",
      "type": "function"
    },
    {
      "inputs": [
        {
          "internalType": "address",
          "name": "_user",
          "type": "address"
        },
        {
          "internalType": "contract ISilo",
          "name": "_silo",
          "type": "address"
        }
      ],
      "name": "executeLiquidation",
      "outputs": [],
      "stateMutability": "nonpayable",
      "type": "function"
    },
    {
      "inputs": [
        {
          "internalType": "address",
          "name": "_user",
          "type": "address"
        },
        {
          "internalType": "address[]",
          "name": "_assets",
          "type": "address[]"
        },
        {
          "internalType": "uint256[]",
          "name": "_receivedCollaterals",
          "type": "uint256[]"
        },
        {
          "internalType": "uint256[]",
          "name": "_shareAmountsToRepaid",
          "type": "uint256[]"
        },
        {
          "internalType": "bytes",
          "name": "_flashReceiverData",
          "type": "bytes"
        }
      ],
      "name": "siloLiquidationCallback",
      "outputs": [],
      "stateMutability": "nonpayable",
      "type": "function"
    },
    {
      "stateMutability": "payable",
      "type": "receive"
    }
  ],
  "transactionHash": "0xd2d6d65a79be793804b6beeba8367f3adb48eda8bc4c6f6d8fde92975f10503f",
  "args": [
    "0xD2767dAdED5910bbc205811FdbD2eEFd460AcBe9"
  ],
  "numDeployments": 1,
  "solcInputHash": "986f1f0675541c27457f499da27f8d3d",
  "bytecode": "0x60a060405234801561001057600080fd5b50604051610fc2380380610fc283398101604081905261002f91610103565b610050816001600160a01b031663e99ed41d61007d60201b6102f61760201c565b61006c576040516295241d60e21b815260040160405180910390fd5b6001600160a01b0316608052610156565b60006001600160a01b038316158015906100fc575082826040518163ffffffff1660e01b8152600401602060405180830381865afa1580156100c3573d6000803e3d6000fd5b505050506040513d601f19601f820116820180604052508101906100e7919061012c565b60e083901b6001600160e01b03199081169116145b9392505050565b60006020828403121561011557600080fd5b81516001600160a01b03811681146100fc57600080fd5b60006020828403121561013e57600080fd5b81516001600160e01b0319811681146100fc57600080fd5b608051610e4b61017760003960008181605601526101ec0152610e4b6000f3fe6080604052600436106100385760003560e01c8063a7e8489d14610044578063bcebb1d714610094578063e7b43da5146100b657600080fd5b3661003f57005b600080fd5b34801561005057600080fd5b506100787f000000000000000000000000000000000000000000000000000000000000000081565b6040516001600160a01b03909116815260200160405180910390f35b3480156100a057600080fd5b506100b46100af366004610845565b6100d6565b005b3480156100c257600080fd5b506100b46100d13660046108ca565b6101d7565b60408051600180825281830190925260009160208083019080368337019050509050828160008151811061010c5761010c6109e3565b60200260200101906001600160a01b031690816001600160a01b031681525050816001600160a01b03166393a94ca3823360405160200161015c91906001600160a01b0391909116815260200190565b6040516020818303038152906040526040518363ffffffff1660e01b8152600401610188929190610a29565b6000604051808303816000875af11580156101a7573d6000803e3d6000fd5b505050506040513d6000823e601f3d908101601f191682016040526101cf9190810190610bd5565b505050505050565b60405163025e1b9b60e31b81523360048201527f00000000000000000000000000000000000000000000000000000000000000006001600160a01b0316906312f0dcd890602401602060405180830381865afa15801561023b573d6000803e3d6000fd5b505050506040513d601f19601f8201168201806040525081019061025f9190610cbe565b61027c5760405163a812ea3160e01b815260040160405180910390fd5b600061028a82840184610ce0565b9050610299898987878561037c565b6102a7338b8b8b898961047a565b6102b48989898985610500565b6040516001600160a01b038b169033907f293b323a0ac08213dd8dc1f1618e833541624b0639804b568c550637285abe0f90600090a350505050505050505050565b60006001600160a01b03831615801590610375575082826040518163ffffffff1660e01b8152600401602060405180830381865afa15801561033c573d6000803e3d6000fd5b505050506040513d601f19601f820116820180604052508101906103609190610cfd565b60e083901b6001600160e01b03199081169116145b9392505050565b60005b848110156101cf57838382818110610399576103996109e3565b90506020020135600014610472578585828181106103b9576103b96109e3565b90506020020160208101906103ce9190610ce0565b6001600160a01b03166323b872dd83308787868181106103f0576103f06109e3565b6040516001600160e01b031960e088901b1681526001600160a01b039586166004820152949093166024850152506020909102013560448201526064016020604051808303816000875af115801561044c573d6000803e3d6000fd5b505050506040513d601f19601f820116820180604052508101906104709190610cbe565b505b60010161037f565b60005b838110156104f757828282818110610497576104976109e3565b905060200201356000146104ef576104ef87878787858181106104bc576104bc6109e3565b90506020020160208101906104d19190610ce0565b8686868181106104e3576104e36109e3565b905060200201356105f5565b60010161047d565b50505050505050565b60005b848110156101cf5783838281811061051d5761051d6109e3565b905060200201356000146105ed5785858281811061053d5761053d6109e3565b90506020020160208101906105529190610ce0565b6001600160a01b031663a9059cbb83868685818110610573576105736109e3565b6040516001600160e01b031960e087901b1681526001600160a01b03909416600485015260200291909101356024830152506044016020604051808303816000875af11580156105c7573d6000803e3d6000fd5b505050506040513d601f19601f820116820180604052508101906105eb9190610cbe565b505b600101610503565b6040516001600160a01b038581166024830152604482018390526000919084169060640160408051601f198184030181529181526020820180516001600160e01b031663095ea7b360e01b1790525161064e9190610d27565b6000604051808303816000865af19150503d806000811461068b576040519150601f19603f3d011682016040523d82523d6000602084013e610690565b606091505b50509050806106b25760405163f4f9953760e01b815260040160405180910390fd5b60405163976ce49560e01b81526001600160a01b03848116600483015285811660248301526044820184905286169063976ce4959060640160408051808303816000875af1158015610708573d6000803e3d6000fd5b505050506040513d601f19601f8201168201806040525081019061072c9190610d43565b505060405163bf27304160e01b81526001600160a01b03848116600483015286169063bf2730419060240160c060405180830381865afa158015610774573d6000803e3d6000fd5b505050506040513d601f19601f820116820180604052508101906107989190610d67565b60409081015190516370a0823160e01b81526001600160a01b038681166004830152909116906370a0823190602401602060405180830381865afa1580156107e4573d6000803e3d6000fd5b505050506040513d601f19601f820116820180604052508101906108089190610dfc565b1561082657604051639e703a0560e01b815260040160405180910390fd5b5050505050565b6001600160a01b038116811461084257600080fd5b50565b6000806040838503121561085857600080fd5b82356108638161082d565b915060208301356108738161082d565b809150509250929050565b60008083601f84011261089057600080fd5b50813567ffffffffffffffff8111156108a857600080fd5b6020830191508360208260051b85010111156108c357600080fd5b9250929050565b600080600080600080600080600060a08a8c0312156108e857600080fd5b89356108f38161082d565b985060208a013567ffffffffffffffff8082111561091057600080fd5b61091c8d838e0161087e565b909a50985060408c013591508082111561093557600080fd5b6109418d838e0161087e565b909850965060608c013591508082111561095a57600080fd5b6109668d838e0161087e565b909650945060808c013591508082111561097f57600080fd5b818c0191508c601f83011261099357600080fd5b8135818111156109a257600080fd5b8d60208285010111156109b457600080fd5b6020830194508093505050509295985092959850929598565b634e487b7160e01b600052604160045260246000fd5b634e487b7160e01b600052603260045260246000fd5b60005b83811015610a145781810151838201526020016109fc565b83811115610a23576000848401525b50505050565b604080825283519082018190526000906020906060840190828701845b82811015610a6b5781516001600160a01b031684529284019290840190600101610a46565b505050838103828501528451808252610a89818484018589016109f9565b601f01601f19160101949350505050565b604051601f8201601f1916810167ffffffffffffffff81118282101715610ac357610ac36109cd565b604052919050565b600067ffffffffffffffff821115610ae557610ae56109cd565b5060051b60200190565b600082601f830112610b0057600080fd5b81516020610b15610b1083610acb565b610a9a565b828152600592831b8501820192828201919087851115610b3457600080fd5b8387015b85811015610bc857805167ffffffffffffffff811115610b585760008081fd5b8801603f81018a13610b6a5760008081fd5b858101516040610b7c610b1083610acb565b82815291851b8301810191888101908d841115610b995760008081fd5b938201935b83851015610bb757845182529389019390890190610b9e565b885250505093850193508401610b38565b5090979650505050505050565b600080600060608486031215610bea57600080fd5b835167ffffffffffffffff80821115610c0257600080fd5b818601915086601f830112610c1657600080fd5b81516020610c26610b1083610acb565b82815260059290921b8401810191818101908a841115610c4557600080fd5b948201945b83861015610c6c578551610c5d8161082d565b82529482019490820190610c4a565b91890151919750909350505080821115610c8557600080fd5b610c9187838801610aef565b93506040860151915080821115610ca757600080fd5b50610cb486828701610aef565b9150509250925092565b600060208284031215610cd057600080fd5b8151801515811461037557600080fd5b600060208284031215610cf257600080fd5b81356103758161082d565b600060208284031215610d0f57600080fd5b81516001600160e01b03198116811461037557600080fd5b60008251610d398184602087016109f9565b9190910192915050565b60008060408385031215610d5657600080fd5b505080516020909101519092909150565b600060c08284031215610d7957600080fd5b60405160c0810181811067ffffffffffffffff82111715610d9c57610d9c6109cd565b6040528251610daa8161082d565b81526020830151610dba8161082d565b60208201526040830151610dcd8161082d565b80604083015250606083015160608201526080830151608082015260a083015160a08201528091505092915050565b600060208284031215610e0e57600080fd5b505191905056fea2646970667358221220b3b5ff5c01fd12ce4e9cf7e54c1bc871a123dacdb801ec15b69251f37b5112a864736f6c634300080d0033",
  "devdoc": {
    "events": {
      "LiquidationExecuted(address,address)": {
        "details": "event emitted on user liquidation",
        "params": {
          "silo": "Silo where liquidation happen",
          "user": "User that been liquidated"
        }
      }
    },
    "kind": "dev",
    "methods": {
      "siloLiquidationCallback(address,address[],uint256[],uint256[],bytes)": {
        "details": "after liquidation we always send remaining tokens so contract should never has any leftover"
      }
    },
    "version": 1
  },
  "userdoc": {
    "kind": "user",
    "methods": {
      "siloLiquidationCallback(address,address[],uint256[],uint256[],bytes)": {
        "notice": "this is working example of how to perform manual liquidation, this method will be called by Silo. Assets for repay will be transferred from tx executor, so there must be allowance set. After repay all collaterals wil be transfer to tx executor."
      }
    },
    "notice": "LiquidationHelper IS NOT PART OF THE PROTOCOL. SILO CREATED THIS TOOL, MOSTLY AS AN EXAMPLE. see https://github.com/silo-finance/liquidation#readme for details how liquidation process should look like",
    "version": 1
  },
  "storageLayout": {
    "storage": [],
    "types": null
  }
}