{
  "address": "0x847D9420643e117798e803d9C5F0e406277CB622",
  "abi": [
    {
      "inputs": [
        {
          "internalType": "contract IERC20",
          "name": "rewardToken",
          "type": "address"
        },
        {
          "internalType": "address",
          "name": "emissionManager",
          "type": "address"
        }
      ],
      "stateMutability": "nonpayable",
      "type": "constructor"
    },
    {
      "inputs": [],
      "name": "ClaimerUnauthorized",
      "type": "error"
    },
    {
      "inputs": [],
      "name": "IndexOverflow",
      "type": "error"
    },
    {
      "inputs": [],
      "name": "IndexOverflowAtEmissionsPerSecond",
      "type": "error"
    },
    {
      "inputs": [],
      "name": "InvalidConfiguration",
      "type": "error"
    },
    {
      "inputs": [],
      "name": "InvalidToAddress",
      "type": "error"
    },
    {
      "inputs": [],
      "name": "InvalidUserAddress",
      "type": "error"
    },
    {
      "inputs": [],
      "name": "OnlyEmissionManager",
      "type": "error"
    },
    {
      "anonymous": false,
      "inputs": [
        {
          "indexed": true,
          "internalType": "address",
          "name": "asset",
          "type": "address"
        },
        {
          "indexed": false,
          "internalType": "uint256",
          "name": "emission",
          "type": "uint256"
        }
      ],
      "name": "AssetConfigUpdated",
      "type": "event"
    },
    {
      "anonymous": false,
      "inputs": [
        {
          "indexed": true,
          "internalType": "address",
          "name": "asset",
          "type": "address"
        },
        {
          "indexed": false,
          "internalType": "uint256",
          "name": "index",
          "type": "uint256"
        }
      ],
      "name": "AssetIndexUpdated",
      "type": "event"
    },
    {
      "anonymous": false,
      "inputs": [
        {
          "indexed": true,
          "internalType": "address",
          "name": "user",
          "type": "address"
        },
        {
          "indexed": true,
          "internalType": "address",
          "name": "claimer",
          "type": "address"
        }
      ],
      "name": "ClaimerSet",
      "type": "event"
    },
    {
      "anonymous": false,
      "inputs": [
        {
          "indexed": false,
          "internalType": "uint256",
          "name": "newDistributionEnd",
          "type": "uint256"
        }
      ],
      "name": "DistributionEndUpdated",
      "type": "event"
    },
    {
      "anonymous": false,
      "inputs": [
        {
          "indexed": true,
          "internalType": "address",
          "name": "user",
          "type": "address"
        },
        {
          "indexed": false,
          "internalType": "uint256",
          "name": "amount",
          "type": "uint256"
        }
      ],
      "name": "RewardsAccrued",
      "type": "event"
    },
    {
      "anonymous": false,
      "inputs": [
        {
          "indexed": true,
          "internalType": "address",
          "name": "user",
          "type": "address"
        },
        {
          "indexed": true,
          "internalType": "address",
          "name": "to",
          "type": "address"
        },
        {
          "indexed": true,
          "internalType": "address",
          "name": "claimer",
          "type": "address"
        },
        {
          "indexed": false,
          "internalType": "uint256",
          "name": "amount",
          "type": "uint256"
        }
      ],
      "name": "RewardsClaimed",
      "type": "event"
    },
    {
      "anonymous": false,
      "inputs": [
        {
          "indexed": true,
          "internalType": "address",
          "name": "user",
          "type": "address"
        },
        {
          "indexed": true,
          "internalType": "address",
          "name": "asset",
          "type": "address"
        },
        {
          "indexed": false,
          "internalType": "uint256",
          "name": "index",
          "type": "uint256"
        }
      ],
      "name": "UserIndexUpdated",
      "type": "event"
    },
    {
      "inputs": [],
      "name": "DISTRIBUTION_END",
      "outputs": [
        {
          "internalType": "uint256",
          "name": "",
          "type": "uint256"
        }
      ],
      "stateMutability": "view",
      "type": "function"
    },
    {
      "inputs": [],
      "name": "EMISSION_MANAGER",
      "outputs": [
        {
          "internalType": "address",
          "name": "",
          "type": "address"
        }
      ],
      "stateMutability": "view",
      "type": "function"
    },
    {
      "inputs": [],
      "name": "PRECISION",
      "outputs": [
        {
          "internalType": "uint8",
          "name": "",
          "type": "uint8"
        }
      ],
      "stateMutability": "view",
      "type": "function"
    },
    {
      "inputs": [],
      "name": "REVISION",
      "outputs": [
        {
          "internalType": "uint256",
          "name": "",
          "type": "uint256"
        }
      ],
      "stateMutability": "view",
      "type": "function"
    },
    {
      "inputs": [],
      "name": "REWARD_TOKEN",
      "outputs": [
        {
          "internalType": "address",
          "name": "",
          "type": "address"
        }
      ],
      "stateMutability": "view",
      "type": "function"
    },
    {
      "inputs": [],
      "name": "TEN_POW_PRECISION",
      "outputs": [
        {
          "internalType": "uint256",
          "name": "",
          "type": "uint256"
        }
      ],
      "stateMutability": "view",
      "type": "function"
    },
    {
      "inputs": [
        {
          "internalType": "address",
          "name": "",
          "type": "address"
        }
      ],
      "name": "assets",
      "outputs": [
        {
          "internalType": "uint104",
          "name": "emissionPerSecond",
          "type": "uint104"
        },
        {
          "internalType": "uint104",
          "name": "index",
          "type": "uint104"
        },
        {
          "internalType": "uint40",
          "name": "lastUpdateTimestamp",
          "type": "uint40"
        }
      ],
      "stateMutability": "view",
      "type": "function"
    },
    {
      "inputs": [
        {
          "internalType": "address[]",
          "name": "assets",
          "type": "address[]"
        },
        {
          "internalType": "uint256",
          "name": "amount",
          "type": "uint256"
        },
        {
          "internalType": "address",
          "name": "to",
          "type": "address"
        }
      ],
      "name": "claimRewards",
      "outputs": [
        {
          "internalType": "uint256",
          "name": "",
          "type": "uint256"
        }
      ],
      "stateMutability": "nonpayable",
      "type": "function"
    },
    {
      "inputs": [
        {
          "internalType": "address[]",
          "name": "assets",
          "type": "address[]"
        },
        {
          "internalType": "uint256",
          "name": "amount",
          "type": "uint256"
        },
        {
          "internalType": "address",
          "name": "user",
          "type": "address"
        },
        {
          "internalType": "address",
          "name": "to",
          "type": "address"
        }
      ],
      "name": "claimRewardsOnBehalf",
      "outputs": [
        {
          "internalType": "uint256",
          "name": "",
          "type": "uint256"
        }
      ],
      "stateMutability": "nonpayable",
      "type": "function"
    },
    {
      "inputs": [
        {
          "internalType": "address[]",
          "name": "assets",
          "type": "address[]"
        },
        {
          "internalType": "uint256",
          "name": "amount",
          "type": "uint256"
        }
      ],
      "name": "claimRewardsToSelf",
      "outputs": [
        {
          "internalType": "uint256",
          "name": "",
          "type": "uint256"
        }
      ],
      "stateMutability": "nonpayable",
      "type": "function"
    },
    {
      "inputs": [
        {
          "internalType": "address[]",
          "name": "assets",
          "type": "address[]"
        },
        {
          "internalType": "uint256[]",
          "name": "emissionsPerSecond",
          "type": "uint256[]"
        }
      ],
      "name": "configureAssets",
      "outputs": [],
      "stateMutability": "nonpayable",
      "type": "function"
    },
    {
      "inputs": [
        {
          "internalType": "address",
          "name": "asset",
          "type": "address"
        }
      ],
      "name": "getAssetData",
      "outputs": [
        {
          "internalType": "uint256",
          "name": "",
          "type": "uint256"
        },
        {
          "internalType": "uint256",
          "name": "",
          "type": "uint256"
        },
        {
          "internalType": "uint256",
          "name": "",
          "type": "uint256"
        }
      ],
      "stateMutability": "view",
      "type": "function"
    },
    {
      "inputs": [
        {
          "internalType": "address",
          "name": "user",
          "type": "address"
        }
      ],
      "name": "getClaimer",
      "outputs": [
        {
          "internalType": "address",
          "name": "",
          "type": "address"
        }
      ],
      "stateMutability": "view",
      "type": "function"
    },
    {
      "inputs": [],
      "name": "getDistributionEnd",
      "outputs": [
        {
          "internalType": "uint256",
          "name": "",
          "type": "uint256"
        }
      ],
      "stateMutability": "view",
      "type": "function"
    },
    {
      "inputs": [
        {
          "internalType": "address[]",
          "name": "assets",
          "type": "address[]"
        },
        {
          "internalType": "address",
          "name": "user",
          "type": "address"
        }
      ],
      "name": "getRewardsBalance",
      "outputs": [
        {
          "internalType": "uint256",
          "name": "",
          "type": "uint256"
        }
      ],
      "stateMutability": "view",
      "type": "function"
    },
    {
      "inputs": [
        {
          "internalType": "address",
          "name": "user",
          "type": "address"
        },
        {
          "internalType": "address",
          "name": "asset",
          "type": "address"
        }
      ],
      "name": "getUserAssetData",
      "outputs": [
        {
          "internalType": "uint256",
          "name": "",
          "type": "uint256"
        }
      ],
      "stateMutability": "view",
      "type": "function"
    },
    {
      "inputs": [
        {
          "internalType": "address",
          "name": "_user",
          "type": "address"
        }
      ],
      "name": "getUserUnclaimedRewards",
      "outputs": [
        {
          "internalType": "uint256",
          "name": "",
          "type": "uint256"
        }
      ],
      "stateMutability": "view",
      "type": "function"
    },
    {
      "inputs": [
        {
          "internalType": "address",
          "name": "user",
          "type": "address"
        },
        {
          "internalType": "uint256",
          "name": "totalSupply",
          "type": "uint256"
        },
        {
          "internalType": "uint256",
          "name": "userBalance",
          "type": "uint256"
        }
      ],
      "name": "handleAction",
      "outputs": [],
      "stateMutability": "nonpayable",
      "type": "function"
    },
    {
      "inputs": [],
      "name": "notificationReceiverPing",
      "outputs": [
        {
          "internalType": "bytes4",
          "name": "",
          "type": "bytes4"
        }
      ],
      "stateMutability": "pure",
      "type": "function"
    },
    {
      "inputs": [
        {
          "internalType": "address",
          "name": "",
          "type": "address"
        },
        {
          "internalType": "address",
          "name": "_from",
          "type": "address"
        },
        {
          "internalType": "address",
          "name": "_to",
          "type": "address"
        },
        {
          "internalType": "uint256",
          "name": "_amount",
          "type": "uint256"
        }
      ],
      "name": "onAfterTransfer",
      "outputs": [],
      "stateMutability": "nonpayable",
      "type": "function"
    },
    {
      "inputs": [],
      "name": "rescueRewards",
      "outputs": [],
      "stateMutability": "nonpayable",
      "type": "function"
    },
    {
      "inputs": [
        {
          "internalType": "address",
          "name": "user",
          "type": "address"
        },
        {
          "internalType": "address",
          "name": "caller",
          "type": "address"
        }
      ],
      "name": "setClaimer",
      "outputs": [],
      "stateMutability": "nonpayable",
      "type": "function"
    },
    {
      "inputs": [
        {
          "internalType": "uint256",
          "name": "distributionEnd",
          "type": "uint256"
        }
      ],
      "name": "setDistributionEnd",
      "outputs": [],
      "stateMutability": "nonpayable",
      "type": "function"
    }
  ],
  "transactionHash": "0xcaeb12ca13076e4d6c628091e12209ce814ab4347e97d69cba2faaee6d7b31b4",
  "args": [
    "0x4200000000000000000000000000000000000042",
    "0x6b717403C20630f7a81fE103b4F8609eb5C0B85F"
  ],
  "numDeployments": 1,
  "solcInputHash": "986f1f0675541c27457f499da27f8d3d",
  "bytecode": "0x60c06040523480156200001157600080fd5b506040516200204438038062002044833981016040819052620000349162000065565b6001600160a01b039081166080521660a052620000a4565b6001600160a01b03811681146200006257600080fd5b50565b600080604083850312156200007957600080fd5b825162000086816200004c565b602084015190925062000099816200004c565b809150509250929050565b60805160a051611f49620000fb6000396000818161031a01528181610662015281816106d7015261167f01526000818161035b0152818161060101528181610813015281816109670152610d800152611f496000f3fe608060405234801561001057600080fd5b506004361061014d5760003560e01c8063711ec9ac116100c3578063aaf5eb681161007c578063aaf5eb681461033c578063cbcbb50714610356578063cc69afec1461030d578063dde43cba1461037d578063f11b818814610385578063f5cf673b146103f757600080fd5b8063711ec9ac1461029b57806374d945ec146102a357806379f171b2146102e75780638b599f26146102fa578063919cd40f1461030d57806399248ea71461031557600080fd5b80633111e7b3116101155780633111e7b31461022957806331873e2e1461023c5780633373ee4c1461024f57806339ccbdd31461026257806341485304146102755780636d34b96e1461028857600080fd5b80630f1bf70d1461015257806311279b4a146101675780631652e7b714610181578063198fa81e146101ea5780632b6995dc14610221575b600080fd5b6101656101603660046119c5565b61040a565b005b604051630893cda560e11b81526020015b60405180910390f35b6101cf61018f366004611a10565b6001600160a01b0316600090815260208190526040902054600160681b81046001600160681b039081169290821691600160d01b900464ffffffffff1690565b60408051938452602084019290925290820152606001610178565b6102136101f8366004611a10565b6001600160a01b031660009081526002602052604090205490565b604051908152602001610178565b6101656105f6565b610213610237366004611a77565b610700565b61016561024a366004611ad4565b610742565b61021361025d366004611b07565b6107d9565b610165610270366004611b31565b610808565b610213610283366004611b4a565b61088c565b610213610296366004611b96565b6108a6565b61021361094d565b6102cf6102b1366004611a10565b6001600160a01b039081166000908152600360205260409020541690565b6040516001600160a01b039091168152602001610178565b6101656102f5366004611c04565b61095c565b610213610308366004611c70565b610bec565b600154610213565b6102cf7f000000000000000000000000000000000000000000000000000000000000000081565b610344601281565b60405160ff9091168152602001610178565b6102cf7f000000000000000000000000000000000000000000000000000000000000000081565b610213600181565b6103ca610393366004611a10565b6000602081905290815260409020546001600160681b0380821691600160681b810490911690600160d01b900464ffffffffff1683565b604080516001600160681b03948516815293909216602084015264ffffffffff1690820152606001610178565b610165610405366004611b07565b610d75565b33600090815260208190526040902054600160d01b900464ffffffffff1615806104455750816001600160a01b0316836001600160a01b0316145b6105f0576000336001600160a01b03166318160ddd6040518163ffffffff1660e01b8152600401602060405180830381865afa158015610489573d6000803e3d6000fd5b505050506040513d601f19601f820116820180604052508101906104ad9190611cc4565b90506001600160a01b0384166104c5578190036104d6565b6001600160a01b0383166104d65781015b6001600160a01b03841615610562576040516370a0823160e01b81526001600160a01b0385166004820152600090839033906370a0823190602401602060405180830381865afa15801561052e573d6000803e3d6000fd5b505050506040513d601f19601f820116820180604052508101906105529190611cc4565b019050610560858383610742565b505b6001600160a01b038316156105ee576040516370a0823160e01b81526001600160a01b0384166004820152600090839033906370a0823190602401602060405180830381865afa1580156105ba573d6000803e3d6000fd5b505050506040513d601f19601f820116820180604052508101906105de9190611cc4565b0390506105ec848383610742565b505b505b50505050565b336001600160a01b037f0000000000000000000000000000000000000000000000000000000000000000161461063f57604051632f1907a960e21b815260040160405180910390fd5b6040516370a0823160e01b81523060048201526106fe9033906001600160a01b037f000000000000000000000000000000000000000000000000000000000000000016906370a0823190602401602060405180830381865afa1580156106a9573d6000803e3d6000fd5b505050506040513d601f19601f820116820180604052508101906106cd9190611cc4565b6001600160a01b037f0000000000000000000000000000000000000000000000000000000000000000169190610e15565b565b60006001600160a01b03821661072957604051638aa3a72f60e01b815260040160405180910390fd5b610737858585333387610e6c565b90505b949350505050565b600061075084338486611108565b905080156105f0576001600160a01b03841660009081526002602052604090205461077c908290611cf3565b6001600160a01b038516600081815260026020526040908190209290925590517f2468f9268c60ad90e2d49edb0032c8a001e733ae888b3ab8e982edf535be1a76906107cb9084815260200190565b60405180910390a250505050565b6001600160a01b0380821660009081526020818152604080832093861683526001909301905220545b92915050565b336001600160a01b037f0000000000000000000000000000000000000000000000000000000000000000161461085157604051632f1907a960e21b815260040160405180910390fd5b60018190556040518181527f1cc1849a6602c3e91f2088cadea4381cc5717f2f28584197060ed2ebb434c16f9060200160405180910390a150565b600061089c848484333333610e6c565b90505b9392505050565b6001600160a01b038083166000908152600360205260408120549091339185911682146108e557604051620bb58b60e51b815260040160405180910390fd5b6001600160a01b03851661090c57604051630702b3d960e41b815260040160405180910390fd5b6001600160a01b03841661093357604051638aa3a72f60e01b815260040160405180910390fd5b610941888888338989610e6c565b98975050505050505050565b6109596012600a611def565b81565b336001600160a01b037f000000000000000000000000000000000000000000000000000000000000000016146109a557604051632f1907a960e21b815260040160405180910390fd5b8281146109c55760405163c52a9bd360e01b815260040160405180910390fd5b60008367ffffffffffffffff8111156109e0576109e0611dfe565b604051908082528060200260200182016040528015610a2b57816020015b60408051606081018252600080825260208083018290529282015282526000199092019101816109fe5790505b50905060005b84811015610be257838382818110610a4b57610a4b611e14565b90506020020135848483818110610a6457610a64611e14565b905060200201356001600160681b031614610a9257604051634266136760e11b815260040160405180910390fd5b858582818110610aa457610aa4611e14565b9050602002016020810190610ab99190611a10565b828281518110610acb57610acb611e14565b6020026020010151604001906001600160a01b031690816001600160a01b031681525050838382818110610b0157610b01611e14565b90506020020135828281518110610b1a57610b1a611e14565b60209081029190910101516001600160681b039091169052858582818110610b4457610b44611e14565b9050602002016020810190610b599190611a10565b6001600160a01b03166318160ddd6040518163ffffffff1660e01b8152600401602060405180830381865afa158015610b96573d6000803e3d6000fd5b505050506040513d601f19601f82011682018060405250810190610bba9190611cc4565b828281518110610bcc57610bcc611e14565b6020908102919091018101510152600101610a31565b506105ee816111c7565b6001600160a01b038116600090815260026020526040812054818467ffffffffffffffff811115610c1f57610c1f611dfe565b604051908082528060200260200182016040528015610c7d57816020015b610c6a604051806060016040528060006001600160a01b0316815260200160008152602001600081525090565b815260200190600190039081610c3d5790505b50905060005b85811015610d5657868682818110610c9d57610c9d611e14565b9050602002016020810190610cb29190611a10565b828281518110610cc457610cc4611e14565b60209081029190910101516001600160a01b039091169052610d0c878783818110610cf157610cf1611e14565b9050602002016020810190610d069190611a10565b8661132b565b838381518110610d1e57610d1e611e14565b6020026020010151602001848481518110610d3b57610d3b611e14565b60209081029190910101516040019190915252600101610c83565b50610d618482611407565b610d6b9083611cf3565b9695505050505050565b336001600160a01b037f00000000000000000000000000000000000000000000000000000000000000001614610dbe57604051632f1907a960e21b815260040160405180910390fd5b6001600160a01b0382811660008181526003602052604080822080546001600160a01b0319169486169485179055517f4925eafc82d0c4d67889898eeed64b18488ab19811e61620f387026dec126a289190a35050565b604080516001600160a01b038416602482015260448082018490528251808303909101815260649091019091526020810180516001600160e01b031663a9059cbb60e01b179052610e67908490611516565b505050565b600084600003610e7e57506000610d6b565b6001600160a01b038316600090815260026020526040902054808611156110595760008767ffffffffffffffff811115610eba57610eba611dfe565b604051908082528060200260200182016040528015610f1857816020015b610f05604051806060016040528060006001600160a01b0316815260200160008152602001600081525090565b815260200190600190039081610ed85790505b50905060005b88811015610ff157898982818110610f3857610f38611e14565b9050602002016020810190610f4d9190611a10565b828281518110610f5f57610f5f611e14565b60209081029190910101516001600160a01b039091169052610fa78a8a83818110610f8c57610f8c611e14565b9050602002016020810190610fa19190611a10565b8761132b565b838381518110610fb957610fb9611e14565b6020026020010151602001848481518110610fd657610fd6611e14565b60209081029190910101516040019190915252600101610f1e565b506000610ffe86836115ed565b90508015611056576110108184611cf3565b9250856001600160a01b03167f2468f9268c60ad90e2d49edb0032c8a001e733ae888b3ab8e982edf535be1a768260405161104d91815260200190565b60405180910390a25b50505b8060000361106b576000915050610d6b565b600081871161107a578661107c565b815b6001600160a01b0386166000908152600260205260409020818403905590506110a58482611672565b856001600160a01b0316846001600160a01b0316866001600160a01b03167f5637d7f962248a7f05a7ab69eec6446e31f3d0a299d997f135a65c62806e7891846040516110f491815260200190565b60405180910390a498975050505050505050565b6001600160a01b0380841660009081526020818152604080832093881683526001840190915281205490919082806111418885886116a6565b90508083146111bb57861561115e5761115b8782856117d7565b91505b6001600160a01b03808a1660008181526001870160205260409081902084905551918a16917fbb123b5c06d5408bbea3c4fef481578175cfb432e3b482c6186f02ed9086585b906111b29085815260200190565b60405180910390a35b50979650505050505050565b60005b81518110156113275760008060008484815181106111ea576111ea611e14565b6020026020010151604001516001600160a01b03166001600160a01b03168152602001908152602001600020905061125d83838151811061122d5761122d611e14565b6020026020010151604001518285858151811061124c5761124c611e14565b6020026020010151602001516116a6565b5082828151811061127057611270611e14565b60209081029190910101515181546cffffffffffffffffffffffffff19166001600160681b0390911617815582518390839081106112b0576112b0611e14565b6020026020010151604001516001600160a01b03167f87fa03892a0556cb6b8f97e6d533a150d4d55fcbf275fff5fa003fa636bcc7fa8484815181106112f8576112f8611e14565b602090810291909101810151516040516001600160681b0390911681520160405180910390a2506001016111ca565b5050565b6040516370a0823160e01b81526001600160a01b03828116600483015260009182918516906370a0823190602401602060405180830381865afa158015611376573d6000803e3d6000fd5b505050506040513d601f19601f8201168201806040525081019061139a9190611cc4565b9150836001600160a01b03166318160ddd6040518163ffffffff1660e01b8152600401602060405180830381865afa1580156113da573d6000803e3d6000fd5b505050506040513d601f19601f820116820180604052508101906113fe9190611cc4565b90509250929050565b600080805b835181101561150e57600080600086848151811061142c5761142c611e14565b602090810291909101810151516001600160a01b031682528101919091526040016000908120805487519193506114a791600160681b82046001600160681b039081169290811691600160d01b90910464ffffffffff16908a908890811061149657611496611e14565b602002602001015160400151611800565b90506114f88684815181106114be576114be611e14565b602002602001015160200151828460010160008b6001600160a01b03166001600160a01b03168152602001908152602001600020546117d7565b6115029085611cf3565b9350505060010161140c565b509392505050565b600061156b826040518060400160405280602081526020017f5361666545524332303a206c6f772d6c6576656c2063616c6c206661696c6564815250856001600160a01b03166118ae9092919063ffffffff16565b805190915015610e6757808060200190518101906115899190611e2a565b610e675760405162461bcd60e51b815260206004820152602a60248201527f5361666545524332303a204552433230206f7065726174696f6e20646964206e6044820152691bdd081cdd58d8d9595960b21b60648201526084015b60405180910390fd5b600080805b835181101561150e5761165e8585838151811061161157611611611e14565b60200260200101516000015186848151811061162f5761162f611e14565b60200260200101516020015187858151811061164d5761164d611e14565b602002602001015160400151611108565b6116689083611cf3565b91506001016115f2565b6113276001600160a01b037f0000000000000000000000000000000000000000000000000000000000000000168383610e15565b81546000906001600160681b03600160681b82048116919081169064ffffffffff600160d01b90910416428190036116e35782935050505061089f565b60006116f184848489611800565b90508381146117ad5780816001600160681b03161461172357604051637decd25760e01b815260040160405180910390fd5b865471ffffffffffffffffffffffffffffffffffff60681b1916600160681b6001600160681b0383160264ffffffffff60d01b191617600160d01b4264ffffffffff16021787556040518181526001600160a01b038916907f5777ca300dfe5bead41006fbce4389794dbc0ed8d6cccebfaf94630aa04184bc9060200160405180910390a26117cc565b865464ffffffffff60d01b1916600160d01b4264ffffffffff16021787555b979650505050505050565b60006117e38284611e4c565b6117ed9085611e63565b670de0b6b3a76400009004949350505050565b600154600090841580611811575082155b80611824575042846001600160801b0316145b80611838575080846001600160801b031610155b15611846578591505061073a565b60008142116118555742611857565b815b9050600061186e6001600160801b03871683611e4c565b905061187c6012600a611def565b6118868289611e63565b6118909190611e63565b93508484816118a1576118a1611e82565b0493506109418885611cf3565b606061089c848460008585843b6119075760405162461bcd60e51b815260206004820152601d60248201527f416464726573733a2063616c6c20746f206e6f6e2d636f6e747261637400000060448201526064016115e4565b600080866001600160a01b031685876040516119239190611ec4565b60006040518083038185875af1925050503d8060008114611960576040519150601f19603f3d011682016040523d82523d6000602084013e611965565b606091505b50915091506117cc8282866060831561197f57508161089f565b82511561198f5782518084602001fd5b8160405162461bcd60e51b81526004016115e49190611ee0565b80356001600160a01b03811681146119c057600080fd5b919050565b600080600080608085870312156119db57600080fd5b6119e4856119a9565b93506119f2602086016119a9565b9250611a00604086016119a9565b9396929550929360600135925050565b600060208284031215611a2257600080fd5b61089f826119a9565b60008083601f840112611a3d57600080fd5b50813567ffffffffffffffff811115611a5557600080fd5b6020830191508360208260051b8501011115611a7057600080fd5b9250929050565b60008060008060608587031215611a8d57600080fd5b843567ffffffffffffffff811115611aa457600080fd5b611ab087828801611a2b565b90955093505060208501359150611ac9604086016119a9565b905092959194509250565b600080600060608486031215611ae957600080fd5b611af2846119a9565b95602085013595506040909401359392505050565b60008060408385031215611b1a57600080fd5b611b23836119a9565b91506113fe602084016119a9565b600060208284031215611b4357600080fd5b5035919050565b600080600060408486031215611b5f57600080fd5b833567ffffffffffffffff811115611b7657600080fd5b611b8286828701611a2b565b909790965060209590950135949350505050565b600080600080600060808688031215611bae57600080fd5b853567ffffffffffffffff811115611bc557600080fd5b611bd188828901611a2b565b90965094505060208601359250611bea604087016119a9565b9150611bf8606087016119a9565b90509295509295909350565b60008060008060408587031215611c1a57600080fd5b843567ffffffffffffffff80821115611c3257600080fd5b611c3e88838901611a2b565b90965094506020870135915080821115611c5757600080fd5b50611c6487828801611a2b565b95989497509550505050565b600080600060408486031215611c8557600080fd5b833567ffffffffffffffff811115611c9c57600080fd5b611ca886828701611a2b565b9094509250611cbb9050602085016119a9565b90509250925092565b600060208284031215611cd657600080fd5b5051919050565b634e487b7160e01b600052601160045260246000fd5b60008219821115611d0657611d06611cdd565b500190565b600181815b80851115611d46578160001904821115611d2c57611d2c611cdd565b80851615611d3957918102915b93841c9390800290611d10565b509250929050565b600082611d5d57506001610802565b81611d6a57506000610802565b8160018114611d805760028114611d8a57611da6565b6001915050610802565b60ff841115611d9b57611d9b611cdd565b50506001821b610802565b5060208310610133831016604e8410600b8410161715611dc9575081810a610802565b611dd38383611d0b565b8060001904821115611de757611de7611cdd565b029392505050565b600061089f60ff841683611d4e565b634e487b7160e01b600052604160045260246000fd5b634e487b7160e01b600052603260045260246000fd5b600060208284031215611e3c57600080fd5b8151801515811461089f57600080fd5b600082821015611e5e57611e5e611cdd565b500390565b6000816000190483118215151615611e7d57611e7d611cdd565b500290565b634e487b7160e01b600052601260045260246000fd5b60005b83811015611eb3578181015183820152602001611e9b565b838111156105f05750506000910152565b60008251611ed6818460208701611e98565b9190910192915050565b6020815260008251806020840152611eff816040850160208701611e98565b601f01601f1916919091016040019291505056fea264697066735822122048c07c1993317222bfa2febad60a082970d9d98a3e77a186b874b4797ef7759d64736f6c634300080d0033",
  "devdoc": {
    "author": "Aave",
    "kind": "dev",
    "methods": {
      "DISTRIBUTION_END()": {
        "details": "for backwards compatibility with the previous DistributionManager used",
        "returns": {
          "_0": "The end of the distribution"
        }
      },
      "claimRewards(address[],uint256,address)": {
        "details": "Claims reward for an user to the desired address, on all the assets of the lending pool, accumulating the pending rewards",
        "params": {
          "amount": "Amount of rewards to claim",
          "to": "Address that will be receiving the rewards"
        },
        "returns": {
          "_0": "Rewards claimed"
        }
      },
      "claimRewardsOnBehalf(address[],uint256,address,address)": {
        "details": "Claims reward for an user on behalf, on all the assets of the lending pool, accumulating the pending rewards. The caller must be whitelisted via \"allowClaimOnBehalf\" function by the RewardsAdmin role manager",
        "params": {
          "amount": "Amount of rewards to claim",
          "to": "Address that will be receiving the rewards",
          "user": "Address to check and claim rewards"
        },
        "returns": {
          "_0": "Rewards claimed"
        }
      },
      "claimRewardsToSelf(address[],uint256)": {
        "details": "Claims reward for msg.sender, on all the assets of the lending pool, accumulating the pending rewards",
        "params": {
          "amount": "Amount of rewards to claim"
        },
        "returns": {
          "_0": "Rewards claimed"
        }
      },
      "configureAssets(address[],uint256[])": {
        "details": "Configure assets for a certain rewards emission",
        "params": {
          "assets": "The assets to incentivize",
          "emissionsPerSecond": "The emission for each asset"
        }
      },
      "getAssetData(address)": {
        "details": "Returns the configuration of the distribution for a certain asset",
        "params": {
          "asset": "The address of the reference asset of the distribution"
        },
        "returns": {
          "_0": "The asset index, the emission per second and the last updated timestamp"
        }
      },
      "getClaimer(address)": {
        "details": "Returns the whitelisted claimer for a certain address (0x0 if not set)",
        "params": {
          "user": "The address of the user"
        },
        "returns": {
          "_0": "The claimer address"
        }
      },
      "getDistributionEnd()": {
        "details": "Gets the end date for the distribution",
        "returns": {
          "_0": "The end of the distribution"
        }
      },
      "getRewardsBalance(address[],address)": {
        "details": "Returns the total of rewards of an user, already accrued + not yet accrued",
        "params": {
          "user": "The address of the user"
        },
        "returns": {
          "_0": "The rewards"
        }
      },
      "getUserAssetData(address,address)": {
        "details": "Returns the data of an user on a distribution",
        "params": {
          "asset": "The address of the reference asset of the distribution",
          "user": "Address of the user"
        },
        "returns": {
          "_0": "The new index"
        }
      },
      "getUserUnclaimedRewards(address)": {
        "details": "returns the unclaimed rewards of the user",
        "params": {
          "user": "the address of the user"
        },
        "returns": {
          "_0": "the unclaimed user rewards"
        }
      },
      "handleAction(address,uint256,uint256)": {
        "details": "Called by the corresponding asset on any update that affects the rewards distribution",
        "params": {
          "asset": "The address of the user",
          "totalSupply": "The total supply of the asset in the lending pool",
          "userBalance": "The balance of the user of the asset in the lending pool"
        }
      },
      "notificationReceiverPing()": {
        "details": "Sanity check function",
        "returns": {
          "_0": "always true"
        }
      },
      "onAfterTransfer(address,address,address,uint256)": {
        "details": "Silo share token event handler"
      },
      "rescueRewards()": {
        "details": "it will transfer all balance of reward token to emission manager wallet"
      },
      "setClaimer(address,address)": {
        "details": "Whitelists an address to claim the rewards on behalf of another address",
        "params": {
          "claimer": "The address of the claimer",
          "user": "The address of the user"
        }
      },
      "setDistributionEnd(uint256)": {
        "details": "Sets the end date for the distribution",
        "params": {
          "distributionEnd": "The end date timestamp"
        }
      }
    },
    "title": "SiloIncentivesController",
    "version": 1
  },
  "userdoc": {
    "kind": "user",
    "methods": {},
    "notice": "Distributor contract for rewards to the Aave protocol, using a staked token as rewards asset. The contract stakes the rewards before redistributing them to the Aave protocol participants. The reference staked token implementation is at https://github.com/aave/aave-stake-v2",
    "version": 1
  },
  "storageLayout": {
    "storage": [
      {
        "astId": 21878,
        "contract": "contracts/incentives/SiloIncentivesController.sol:SiloIncentivesController",
        "label": "assets",
        "offset": 0,
        "slot": "0",
        "type": "t_mapping(t_address,t_struct(AssetData)21863_storage)"
      },
      {
        "astId": 21880,
        "contract": "contracts/incentives/SiloIncentivesController.sol:SiloIncentivesController",
        "label": "_distributionEnd",
        "offset": 0,
        "slot": "1",
        "type": "t_uint256"
      },
      {
        "astId": 21231,
        "contract": "contracts/incentives/SiloIncentivesController.sol:SiloIncentivesController",
        "label": "_usersUnclaimedRewards",
        "offset": 0,
        "slot": "2",
        "type": "t_mapping(t_address,t_uint256)"
      },
      {
        "astId": 21235,
        "contract": "contracts/incentives/SiloIncentivesController.sol:SiloIncentivesController",
        "label": "_authorizedClaimers",
        "offset": 0,
        "slot": "3",
        "type": "t_mapping(t_address,t_address)"
      }
    ],
    "types": {
      "t_address": {
        "encoding": "inplace",
        "label": "address",
        "numberOfBytes": "20"
      },
      "t_mapping(t_address,t_address)": {
        "encoding": "mapping",
        "key": "t_address",
        "label": "mapping(address => address)",
        "numberOfBytes": "32",
        "value": "t_address"
      },
      "t_mapping(t_address,t_struct(AssetData)21863_storage)": {
        "encoding": "mapping",
        "key": "t_address",
        "label": "mapping(address => struct DistributionManager.AssetData)",
        "numberOfBytes": "32",
        "value": "t_struct(AssetData)21863_storage"
      },
      "t_mapping(t_address,t_uint256)": {
        "encoding": "mapping",
        "key": "t_address",
        "label": "mapping(address => uint256)",
        "numberOfBytes": "32",
        "value": "t_uint256"
      },
      "t_struct(AssetData)21863_storage": {
        "encoding": "inplace",
        "label": "struct DistributionManager.AssetData",
        "members": [
          {
            "astId": 21854,
            "contract": "contracts/incentives/SiloIncentivesController.sol:SiloIncentivesController",
            "label": "emissionPerSecond",
            "offset": 0,
            "slot": "0",
            "type": "t_uint104"
          },
          {
            "astId": 21856,
            "contract": "contracts/incentives/SiloIncentivesController.sol:SiloIncentivesController",
            "label": "index",
            "offset": 13,
            "slot": "0",
            "type": "t_uint104"
          },
          {
            "astId": 21858,
            "contract": "contracts/incentives/SiloIncentivesController.sol:SiloIncentivesController",
            "label": "lastUpdateTimestamp",
            "offset": 26,
            "slot": "0",
            "type": "t_uint40"
          },
          {
            "astId": 21862,
            "contract": "contracts/incentives/SiloIncentivesController.sol:SiloIncentivesController",
            "label": "users",
            "offset": 0,
            "slot": "1",
            "type": "t_mapping(t_address,t_uint256)"
          }
        ],
        "numberOfBytes": "64"
      },
      "t_uint104": {
        "encoding": "inplace",
        "label": "uint104",
        "numberOfBytes": "13"
      },
      "t_uint256": {
        "encoding": "inplace",
        "label": "uint256",
        "numberOfBytes": "32"
      },
      "t_uint40": {
        "encoding": "inplace",
        "label": "uint40",
        "numberOfBytes": "5"
      }
    }
  }
}