{
  "address": "0x480EB6D6e5DD228aFDc0dCDcB81188B95C2EcF10",
  "abi": [
    {
      "inputs": [],
      "stateMutability": "nonpayable",
      "type": "constructor"
    },
    {
      "inputs": [],
      "name": "InvalidAsset",
      "type": "error"
    },
    {
      "inputs": [],
      "name": "ASSET",
      "outputs": [
        {
          "internalType": "address",
          "name": "",
          "type": "address"
        }
      ],
      "stateMutability": "view",
      "type": "function"
    },
    {
      "inputs": [],
      "name": "POOL_FEE",
      "outputs": [
        {
          "internalType": "uint24",
          "name": "",
          "type": "uint24"
        }
      ],
      "stateMutability": "view",
      "type": "function"
    },
    {
      "inputs": [],
      "name": "ROUTER",
      "outputs": [
        {
          "internalType": "contract ISwapRouter",
          "name": "",
          "type": "address"
        }
      ],
      "stateMutability": "view",
      "type": "function"
    },
    {
      "inputs": [],
      "name": "WETH",
      "outputs": [
        {
          "internalType": "address",
          "name": "",
          "type": "address"
        }
      ],
      "stateMutability": "view",
      "type": "function"
    },
    {
      "inputs": [
        {
          "internalType": "address",
          "name": "_asset",
          "type": "address"
        },
        {
          "internalType": "uint256",
          "name": "_amount",
          "type": "uint256"
        }
      ],
      "name": "towardsAsset",
      "outputs": [
        {
          "internalType": "address",
          "name": "asset",
          "type": "address"
        },
        {
          "internalType": "uint256",
          "name": "amount",
          "type": "uint256"
        }
      ],
      "stateMutability": "nonpayable",
      "type": "function"
    },
    {
      "inputs": [
        {
          "internalType": "address",
          "name": "_asset",
          "type": "address"
        },
        {
          "internalType": "uint256",
          "name": "_amount",
          "type": "uint256"
        }
      ],
      "name": "towardsNative",
      "outputs": [
        {
          "internalType": "address",
          "name": "",
          "type": "address"
        },
        {
          "internalType": "uint256",
          "name": "",
          "type": "uint256"
        }
      ],
      "stateMutability": "nonpayable",
      "type": "function"
    }
  ],
  "transactionHash": "0x7825bc89ffd839a073c564a02077ef4df4b4a01629dec5f973f2c959be3086f4",
  "args": [],
  "numDeployments": 1,
  "solcInputHash": "6ce72f7db0079c1006da47f0339a808a",
  "bytecode": "0x60c060405234801561001057600080fd5b50730b2c639c533813f4aa9d7837caf62653d097ff856080526101f460a05260805160a05161069d61006f6000396000818161011e0152818161025b015261042c01526000818160d601528181610159015261032d015261069d6000f3fe608060405234801561001057600080fd5b50600436106100625760003560e01c806321ebbf011461006757806332fe7b261461009e5780634800d97f146100d15780636ea477da146100f8578063ad5c46481461010b578063dd1b9c4a14610119575b600080fd5b61007a61007536600461057d565b610154565b604080516001600160a01b0390931683526020830191909152015b60405180910390f35b6100b973e592427a0aece92de3edee1f18e0157c0586156481565b6040516001600160a01b039091168152602001610095565b6100b97f000000000000000000000000000000000000000000000000000000000000000081565b61007a61010636600461057d565b610328565b6100b96006602160991b0181565b6101407f000000000000000000000000000000000000000000000000000000000000000081565b60405162ffffff9091168152602001610095565b6000807f00000000000000000000000000000000000000000000000000000000000000006001600160a01b0316846001600160a01b0316146101a957604051636448d6e960e11b815260040160405180910390fd5b60405163095ea7b360e01b815273e592427a0aece92de3edee1f18e0157c058615646004820152602481018490526001600160a01b0385169063095ea7b3906044016020604051808303816000875af115801561020a573d6000803e3d6000fd5b505050506040513d601f19601f8201168201806040525081019061022e91906105b5565b5060408051610100810182526001600160a01b03861681526006602160991b016020820181905262ffffff7f0000000000000000000000000000000000000000000000000000000000000000168284015230606083015242608083015260a08201869052600160c0830152600060e0830152915163414bf38960e01b815290919073e592427a0aece92de3edee1f18e0157c058615649063414bf389906102d99085906004016105de565b6020604051808303816000875af11580156102f8573d6000803e3d6000fd5b505050506040513d601f19601f8201168201806040525081019061031c919061064e565b92509250509250929050565b6000807f00000000000000000000000000000000000000000000000000000000000000006001600160a01b0316846001600160a01b03161461037d57604051636448d6e960e11b815260040160405180910390fd5b60405163095ea7b360e01b815273e592427a0aece92de3edee1f18e0157c05861564600482015260001960248201526006602160991b019063095ea7b3906044016020604051808303816000875af11580156103dd573d6000803e3d6000fd5b505050506040513d601f19601f8201168201806040525081019061040191906105b5565b5060408051610100810182526006602160991b0181526001600160a01b038616602082015262ffffff7f0000000000000000000000000000000000000000000000000000000000000000168183015230606082015242608082015260a0810185905260001960c0820152600060e08201529051631b67c43360e31b815285935073e592427a0aece92de3edee1f18e0157c058615649063db3e2198906104ab9084906004016105de565b6020604051808303816000875af11580156104ca573d6000803e3d6000fd5b505050506040513d601f19601f820116820180604052508101906104ee919061064e565b60405163095ea7b360e01b815273e592427a0aece92de3edee1f18e0157c058615646004820152600060248201529092506006602160991b019063095ea7b3906044016020604051808303816000875af1158015610550573d6000803e3d6000fd5b505050506040513d601f19601f8201168201806040525081019061057491906105b5565b50509250929050565b6000806040838503121561059057600080fd5b82356001600160a01b03811681146105a757600080fd5b946020939093013593505050565b6000602082840312156105c757600080fd5b815180151581146105d757600080fd5b9392505050565b6101008101610648828480516001600160a01b03908116835260208083015182169084015260408083015162ffffff16908401526060808301518216908401526080808301519084015260a0828101519084015260c0808301519084015260e09182015116910152565b92915050565b60006020828403121561066057600080fd5b505191905056fea26469706673582212207c8ce4ad71138b708bd9749307ecc295445f33aaac069b1cd20a98b10c88b04064736f6c634300080d0033",
  "devdoc": {
    "kind": "dev",
    "methods": {
      "towardsAsset(address,uint256)": {
        "params": {
          "_amount": "Amount of the `_asset`",
          "_asset": "Asset to be wrapped"
        },
        "returns": {
          "amount": "Amount of the quote token that we spent to get `_amoun` of the `_asset`",
          "asset": "A token that the `_asset` has been converted to"
        }
      },
      "towardsNative(address,uint256)": {
        "params": {
          "_amount": "Amount of the `_asset`",
          "_asset": "Asset to be unwrapped"
        },
        "returns": {
          "_0": "A token that the `_asset` has been converted to",
          "_1": "Amount of the `tokenOut` that we received"
        }
      }
    },
    "version": 1
  },
  "userdoc": {
    "kind": "user",
    "methods": {
      "towardsAsset(address,uint256)": {
        "notice": "Performs operation opposit to `towardsNative`"
      },
      "towardsNative(address,uint256)": {
        "notice": "Operates to unwrap an `_asset`"
      }
    },
    "version": 1
  },
  "storageLayout": {
    "storage": [],
    "types": null
  }
}