{
  "address": "0x9DEaA1Af59932c0D71DE6C04e50581f4605bE416",
  "abi": [
    {
      "inputs": [
        {
          "internalType": "contract IPriceProvidersRepository",
          "name": "_priceProvidersRepository",
          "type": "address"
        },
        {
          "internalType": "address",
          "name": "_emergencyManager",
          "type": "address"
        },
        {
          "internalType": "contract AggregatorV3Interface",
          "name": "_stEthPriceAggregator",
          "type": "address"
        },
        {
          "internalType": "uint256",
          "name": "_stEthPriceAggregatorHeartbeat",
          "type": "uint256"
        },
        {
          "internalType": "address",
          "name": "_wstETH",
          "type": "address"
        }
      ],
      "stateMutability": "nonpayable",
      "type": "constructor"
    },
    {
      "inputs": [],
      "name": "AggregatorDidNotChange",
      "type": "error"
    },
    {
      "inputs": [],
      "name": "AggregatorPriceNotAvailable",
      "type": "error"
    },
    {
      "inputs": [],
      "name": "AssetNotSupported",
      "type": "error"
    },
    {
      "inputs": [],
      "name": "EmergencyManagerDidNotChange",
      "type": "error"
    },
    {
      "inputs": [],
      "name": "EmergencyThresholdNotReached",
      "type": "error"
    },
    {
      "inputs": [],
      "name": "FallbackProviderAlreadySet",
      "type": "error"
    },
    {
      "inputs": [],
      "name": "FallbackProviderDidNotChange",
      "type": "error"
    },
    {
      "inputs": [],
      "name": "FallbackProviderNotSet",
      "type": "error"
    },
    {
      "inputs": [],
      "name": "HeartbeatDidNotChange",
      "type": "error"
    },
    {
      "inputs": [],
      "name": "InvalidAggregator",
      "type": "error"
    },
    {
      "inputs": [],
      "name": "InvalidAggregatorDecimals",
      "type": "error"
    },
    {
      "inputs": [],
      "name": "InvalidFallbackPriceProvider",
      "type": "error"
    },
    {
      "inputs": [],
      "name": "InvalidHeartbeat",
      "type": "error"
    },
    {
      "inputs": [],
      "name": "OnlyEmergencyManager",
      "type": "error"
    },
    {
      "inputs": [],
      "name": "QuoteAggregatorHeartbeatDidNotChange",
      "type": "error"
    },
    {
      "anonymous": false,
      "inputs": [
        {
          "indexed": true,
          "internalType": "address",
          "name": "asset",
          "type": "address"
        },
        {
          "indexed": true,
          "internalType": "contract AggregatorV3Interface",
          "name": "aggregator",
          "type": "address"
        }
      ],
      "name": "AggregatorDisabled",
      "type": "event"
    },
    {
      "anonymous": false,
      "inputs": [
        {
          "indexed": true,
          "internalType": "address",
          "name": "asset",
          "type": "address"
        },
        {
          "indexed": true,
          "internalType": "contract AggregatorV3Interface",
          "name": "aggregator",
          "type": "address"
        },
        {
          "indexed": false,
          "internalType": "bool",
          "name": "convertToQuote",
          "type": "bool"
        }
      ],
      "name": "NewAggregator",
      "type": "event"
    },
    {
      "anonymous": false,
      "inputs": [
        {
          "indexed": true,
          "internalType": "address",
          "name": "emergencyManager",
          "type": "address"
        }
      ],
      "name": "NewEmergencyManager",
      "type": "event"
    },
    {
      "anonymous": false,
      "inputs": [
        {
          "indexed": true,
          "internalType": "address",
          "name": "asset",
          "type": "address"
        },
        {
          "indexed": true,
          "internalType": "contract IPriceProvider",
          "name": "fallbackProvider",
          "type": "address"
        }
      ],
      "name": "NewFallbackPriceProvider",
      "type": "event"
    },
    {
      "anonymous": false,
      "inputs": [
        {
          "indexed": true,
          "internalType": "address",
          "name": "asset",
          "type": "address"
        },
        {
          "indexed": false,
          "internalType": "uint256",
          "name": "heartbeat",
          "type": "uint256"
        }
      ],
      "name": "NewHeartbeat",
      "type": "event"
    },
    {
      "anonymous": false,
      "inputs": [
        {
          "indexed": false,
          "internalType": "uint256",
          "name": "heartbeat",
          "type": "uint256"
        }
      ],
      "name": "NewQuoteAggregatorHeartbeat",
      "type": "event"
    },
    {
      "inputs": [],
      "name": "EMERGENCY_PRECISION",
      "outputs": [
        {
          "internalType": "uint256",
          "name": "",
          "type": "uint256"
        }
      ],
      "stateMutability": "view",
      "type": "function"
    },
    {
      "inputs": [],
      "name": "EMERGENCY_THRESHOLD",
      "outputs": [
        {
          "internalType": "uint256",
          "name": "",
          "type": "uint256"
        }
      ],
      "stateMutability": "view",
      "type": "function"
    },
    {
      "inputs": [],
      "name": "WSTETH",
      "outputs": [
        {
          "internalType": "address",
          "name": "",
          "type": "address"
        }
      ],
      "stateMutability": "view",
      "type": "function"
    },
    {
      "inputs": [
        {
          "internalType": "address",
          "name": "",
          "type": "address"
        }
      ],
      "name": "assetData",
      "outputs": [
        {
          "internalType": "uint256",
          "name": "heartbeat",
          "type": "uint256"
        },
        {
          "internalType": "bool",
          "name": "forceFallback",
          "type": "bool"
        },
        {
          "internalType": "bool",
          "name": "convertToQuote",
          "type": "bool"
        },
        {
          "internalType": "contract AggregatorV3Interface",
          "name": "aggregator",
          "type": "address"
        },
        {
          "internalType": "contract IPriceProvider",
          "name": "fallbackProvider",
          "type": "address"
        }
      ],
      "stateMutability": "view",
      "type": "function"
    },
    {
      "inputs": [
        {
          "internalType": "address",
          "name": "_asset",
          "type": "address"
        }
      ],
      "name": "assetSupported",
      "outputs": [
        {
          "internalType": "bool",
          "name": "",
          "type": "bool"
        }
      ],
      "stateMutability": "view",
      "type": "function"
    },
    {
      "inputs": [
        {
          "internalType": "address",
          "name": "_asset",
          "type": "address"
        }
      ],
      "name": "emergencyDisable",
      "outputs": [],
      "stateMutability": "nonpayable",
      "type": "function"
    },
    {
      "inputs": [],
      "name": "emergencyManager",
      "outputs": [
        {
          "internalType": "address",
          "name": "",
          "type": "address"
        }
      ],
      "stateMutability": "view",
      "type": "function"
    },
    {
      "inputs": [
        {
          "internalType": "address",
          "name": "_asset",
          "type": "address"
        }
      ],
      "name": "getAggregatorPrice",
      "outputs": [
        {
          "internalType": "bool",
          "name": "success",
          "type": "bool"
        },
        {
          "internalType": "uint256",
          "name": "price",
          "type": "uint256"
        }
      ],
      "stateMutability": "view",
      "type": "function"
    },
    {
      "inputs": [
        {
          "internalType": "address",
          "name": "_asset",
          "type": "address"
        }
      ],
      "name": "getFallbackProvider",
      "outputs": [
        {
          "internalType": "contract IPriceProvider",
          "name": "",
          "type": "address"
        }
      ],
      "stateMutability": "view",
      "type": "function"
    },
    {
      "inputs": [
        {
          "internalType": "address",
          "name": "_asset",
          "type": "address"
        }
      ],
      "name": "getPrice",
      "outputs": [
        {
          "internalType": "uint256",
          "name": "",
          "type": "uint256"
        }
      ],
      "stateMutability": "view",
      "type": "function"
    },
    {
      "inputs": [],
      "name": "offChainProvider",
      "outputs": [
        {
          "internalType": "bool",
          "name": "",
          "type": "bool"
        }
      ],
      "stateMutability": "pure",
      "type": "function"
    },
    {
      "inputs": [],
      "name": "priceProviderPing",
      "outputs": [
        {
          "internalType": "bytes4",
          "name": "",
          "type": "bytes4"
        }
      ],
      "stateMutability": "pure",
      "type": "function"
    },
    {
      "inputs": [],
      "name": "priceProvidersRepository",
      "outputs": [
        {
          "internalType": "contract IPriceProvidersRepository",
          "name": "",
          "type": "address"
        }
      ],
      "stateMutability": "view",
      "type": "function"
    },
    {
      "inputs": [],
      "name": "quoteAggregatorHeartbeat",
      "outputs": [
        {
          "internalType": "uint256",
          "name": "",
          "type": "uint256"
        }
      ],
      "stateMutability": "view",
      "type": "function"
    },
    {
      "inputs": [],
      "name": "quoteToken",
      "outputs": [
        {
          "internalType": "address",
          "name": "",
          "type": "address"
        }
      ],
      "stateMutability": "view",
      "type": "function"
    },
    {
      "inputs": [
        {
          "internalType": "address",
          "name": "_asset",
          "type": "address"
        },
        {
          "internalType": "contract AggregatorV3Interface",
          "name": "_aggregator",
          "type": "address"
        },
        {
          "internalType": "bool",
          "name": "_convertToQuote",
          "type": "bool"
        }
      ],
      "name": "setAggregator",
      "outputs": [],
      "stateMutability": "nonpayable",
      "type": "function"
    },
    {
      "inputs": [
        {
          "internalType": "address",
          "name": "_emergencyManager",
          "type": "address"
        }
      ],
      "name": "setEmergencyManager",
      "outputs": [],
      "stateMutability": "nonpayable",
      "type": "function"
    },
    {
      "inputs": [
        {
          "internalType": "address",
          "name": "_asset",
          "type": "address"
        },
        {
          "internalType": "contract IPriceProvider",
          "name": "_fallbackProvider",
          "type": "address"
        }
      ],
      "name": "setFallbackPriceProvider",
      "outputs": [],
      "stateMutability": "nonpayable",
      "type": "function"
    },
    {
      "inputs": [
        {
          "internalType": "address",
          "name": "_asset",
          "type": "address"
        },
        {
          "internalType": "uint256",
          "name": "_heartbeat",
          "type": "uint256"
        }
      ],
      "name": "setHeartbeat",
      "outputs": [],
      "stateMutability": "nonpayable",
      "type": "function"
    },
    {
      "inputs": [
        {
          "internalType": "uint256",
          "name": "_heartbeat",
          "type": "uint256"
        }
      ],
      "name": "setQuoteAggregatorHeartbeat",
      "outputs": [],
      "stateMutability": "nonpayable",
      "type": "function"
    },
    {
      "inputs": [
        {
          "internalType": "address",
          "name": "_asset",
          "type": "address"
        },
        {
          "internalType": "contract AggregatorV3Interface",
          "name": "_aggregator",
          "type": "address"
        },
        {
          "internalType": "contract IPriceProvider",
          "name": "_fallbackProvider",
          "type": "address"
        },
        {
          "internalType": "uint256",
          "name": "_heartbeat",
          "type": "uint256"
        },
        {
          "internalType": "bool",
          "name": "_convertToQuote",
          "type": "bool"
        }
      ],
      "name": "setupAsset",
      "outputs": [],
      "stateMutability": "nonpayable",
      "type": "function"
    }
  ],
  "transactionHash": "0xcbeb8cd683369ed0d496eff766b47c6a1238a2a32006f69d96f6ca97ff95c9cd",
  "args": [
    "0x1E915d8950f0C6bf9d01C603D33c50b6110beDA3",
    "0x0000000000000000000000000000000000000000",
    "0x14d2d3a82AeD4019FddDfe07E8bdc485fb0d2249",
    4200,
    "0x1F32b1c2345538c0c6f582fCB022739c4A194Ebb"
  ],
  "numDeployments": 1,
  "solcInputHash": "6ce72f7db0079c1006da47f0339a808a",
  "bytecode": "0x61016060405262000015620f4240606462000355565b620000239060001962000383565b610100523480156200003457600080fd5b506040516200204d3803806200204d8339810160408190526200005791620003bf565b848484848362000080816001600160a01b031663eec3e6a76200025e60201b62000bd21760201c565b620000d15760405162461bcd60e51b815260206004820152601e60248201527f496e76616c6964507269636550726f76696465725265706f7369746f72790000604482015260640160405180910390fd5b6001600160a01b038116608081905260408051630217a4b760e41b8152905163217a4b70916004808201926020929091908290030181865afa1580156200011c573d6000803e3d6000fd5b505050506040513d601f19601f8201168201806040525081019062000142919062000433565b6001600160a01b031660a052506200015a83620002e8565b5060a0516001600160a01b031663313ce5676040518163ffffffff1660e01b8152600401602060405180830381865afa1580156200019c573d6000803e3d6000fd5b505050506040513d601f19601f82011682018060405250810190620001c2919062000453565b60ff16610120526001600160a01b03821660c08190526040805163313ce56760e01b8152905163313ce567916004808201926020929091908290030181865afa15801562000214573d6000803e3d6000fd5b505050506040513d601f19601f820116820180604052508101906200023a919062000453565b60ff1660e0526001555050506001600160a01b03166101405250620004a492505050565b60006001600160a01b03831615801590620002e1575082826040518163ffffffff1660e01b8152600401602060405180830381865afa158015620002a6573d6000803e3d6000fd5b505050506040513d601f19601f82011682018060405250810190620002cc919062000478565b60e083901b6001600160e01b03199081169116145b9392505050565b600080546001600160a01b03908116908316036200030857506000919050565b600080546001600160a01b0319166001600160a01b038416908117825560405190917fc9f3c0828967b8c34f2d6bbf6797c2965918320a1b0cd659293a94bff918fecd91a2506001919050565b60008160001904831182151516156200037e57634e487b7160e01b600052601160045260246000fd5b500290565b600082620003a157634e487b7160e01b600052601260045260246000fd5b500490565b6001600160a01b0381168114620003bc57600080fd5b50565b600080600080600060a08688031215620003d857600080fd5b8551620003e581620003a6565b6020870151909550620003f881620003a6565b60408701519094506200040b81620003a6565b6060870151608088015191945092506200042581620003a6565b809150509295509295909350565b6000602082840312156200044657600080fd5b8151620002e181620003a6565b6000602082840312156200046657600080fd5b815160ff81168114620002e157600080fd5b6000602082840312156200048b57600080fd5b81516001600160e01b031981168114620002e157600080fd5b60805160a05160c05160e051610100516101205161014051611ae562000568600039600081816103690152610aca01526000818161063401528181611563015281816115a5015281816115d901528181611606015261164d0152600061070f0152600061127f015260006114ad015260008181610190015281816105fd0152610f560152600081816102a6015281816103f701528181610505015281816107f8015281816108ff015281816109da01528181610b060152610e700152611ae56000f3fe608060405234801561001057600080fd5b50600436106101375760003560e01c806375435703116100b8578063ca0a8f221161007c578063ca0a8f2214610337578063d0532d911461033e578063d2c18f5914610351578063d9fb643a14610364578063da31cf3c1461038b578063db09c3fd1461039457600080fd5b806375435703146102c85780637f2141c8146102db5780638f001f59146102ee5780639a2ca25714610301578063b31fb2561461031457600080fd5b80632f1605fc116100ff5780632f1605fc146101df57806341976e09146101f257806341fee44a1461020557806357e0c50f1461028c5780635ddf2be3146102a157600080fd5b8063087d31b71461013c5780630f2a1632146101575780631d498ad314610161578063217a4b701461018b5780632553b17f146101ca575b600080fd5b6101446103c4565b6040519081526020015b60405180910390f35b610144620f424081565b61017461016f36600461169b565b6103d5565b60408051921515835260208301919091520161014e565b6101b27f000000000000000000000000000000000000000000000000000000000000000081565b6040516001600160a01b03909116815260200161014e565b6101dd6101d83660046116b8565b6103eb565b005b6101dd6101ed3660046116f1565b6104f9565b61014461020036600461169b565b6105f9565b61025561021336600461169b565b600260208190526000918252604090912080546001820154919092015460ff808316926101008104909116916001600160a01b03620100009092048216911685565b604080519586529315156020860152911515928401929092526001600160a01b03918216606084015216608082015260a00161014e565b6040516357e0c50f60e01b815260200161014e565b6101b27f000000000000000000000000000000000000000000000000000000000000000081565b6101dd6102d636600461169b565b61068f565b6101dd6102e936600461172b565b6107ec565b6101dd6102fc366004611776565b6108f3565b6101dd61030f36600461178f565b6109ce565b61032761032236600461169b565b610ac8565b604051901515815260200161014e565b6001610327565b6101dd61034c36600461169b565b610afa565b6000546101b2906001600160a01b031681565b6101b27f000000000000000000000000000000000000000000000000000000000000000081565b61014460015481565b6101b26103a236600461169b565b6001600160a01b03908116600090815260026020819052604090912001541690565b6103d2620f4240600a61180d565b81565b6000806103e183610c5a565b9094909350915050565b336001600160a01b03167f00000000000000000000000000000000000000000000000000000000000000006001600160a01b031663481c6a756040518163ffffffff1660e01b8152600401602060405180830381865afa158015610453573d6000803e3d6000fd5b505050506040513d601f19601f82011682018060405250810190610477919061182c565b6001600160a01b0316146104a65760405162461bcd60e51b815260040161049d90611849565b60405180910390fd5b816104b081610ac8565b6104cd5760405163981a2a2b60e01b815260040160405180910390fd5b6104d78383610de9565b6104f457604051630d51b37960e21b815260040160405180910390fd5b505050565b336001600160a01b03167f00000000000000000000000000000000000000000000000000000000000000006001600160a01b031663481c6a756040518163ffffffff1660e01b8152600401602060405180830381865afa158015610561573d6000803e3d6000fd5b505050506040513d601f19601f82011682018060405250810190610585919061182c565b6001600160a01b0316146105ab5760405162461bcd60e51b815260040161049d90611849565b816105b581610ac8565b6105d25760405163981a2a2b60e01b815260040160405180910390fd5b6105dc838361105e565b6104f45760405163d0abfce560e01b815260040160405180910390fd5b60007f00000000000000000000000000000000000000000000000000000000000000006001600160a01b03808216908416036106615761065a7f0000000000000000000000000000000000000000000000000000000000000000600a611952565b9392505050565b60008061066d85610c5a565b91509150816106845761067f85611109565b610686565b805b95945050505050565b6000546001600160a01b031633146106ba57604051633111da4560e21b815260040160405180910390fd5b6000806106c683610c5a565b91509150816106e857604051638a93c04960e01b815260040160405180910390fd5b60006106f384611109565b90506000828210156107075781830361070b565b8282035b90507f000000000000000000000000000000000000000000000000000000000000000081118061076a5750610744620f4240600a61180d565b83620f424061075484606461180d565b61075e919061180d565b6107689190611961565b105b15610788576040516332d3273560e21b815260040160405180910390fd5b6001600160a01b038086166000818152600260205260408082206001908101805460ff191690911790819055905162010000909104909316927f19986ca6379d8de58c363928f6de20927669b98ab030c431c2f2fee2625961d59190a35050505050565b336001600160a01b03167f00000000000000000000000000000000000000000000000000000000000000006001600160a01b031663481c6a756040518163ffffffff1660e01b8152600401602060405180830381865afa158015610854573d6000803e3d6000fd5b505050506040513d601f19601f82011682018060405250810190610878919061182c565b6001600160a01b03161461089e5760405162461bcd60e51b815260040161049d90611849565b826108a881610ac8565b6108c55760405163981a2a2b60e01b815260040160405180910390fd5b6108d08484846111b1565b6108ed57604051630fe8d77760e11b815260040160405180910390fd5b50505050565b336001600160a01b03167f00000000000000000000000000000000000000000000000000000000000000006001600160a01b031663481c6a756040518163ffffffff1660e01b8152600401602060405180830381865afa15801561095b573d6000803e3d6000fd5b505050506040513d601f19601f8201168201806040525081019061097f919061182c565b6001600160a01b0316146109a55760405162461bcd60e51b815260040161049d90611849565b6109ae816113a2565b6109cb5760405163f620192160e01b815260040160405180910390fd5b50565b336001600160a01b03167f00000000000000000000000000000000000000000000000000000000000000006001600160a01b031663481c6a756040518163ffffffff1660e01b8152600401602060405180830381865afa158015610a36573d6000803e3d6000fd5b505050506040513d601f19601f82011682018060405250810190610a5a919061182c565b6001600160a01b031614610a805760405162461bcd60e51b815260040161049d90611849565b506001610a8d858361105e565b50610a998585836111b1565b610ab657604051630fe8d77760e11b815260040160405180910390fd5b610ac08584610de9565b505050505050565b7f00000000000000000000000000000000000000000000000000000000000000006001600160a01b0390811691161490565b336001600160a01b03167f00000000000000000000000000000000000000000000000000000000000000006001600160a01b031663481c6a756040518163ffffffff1660e01b8152600401602060405180830381865afa158015610b62573d6000803e3d6000fd5b505050506040513d601f19601f82011682018060405250810190610b86919061182c565b6001600160a01b031614610bac5760405162461bcd60e51b815260040161049d90611849565b610bb581611419565b6109cb576040516393c3b9ab60e01b815260040160405180910390fd5b60006001600160a01b03831615801590610c51575082826040518163ffffffff1660e01b8152600401602060405180830381865afa158015610c18573d6000803e3d6000fd5b505050506040513d601f19601f82011682018060405250810190610c3c9190611983565b60e083901b6001600160e01b03199081169116145b90505b92915050565b6001600160a01b038082166000908152600260205260408120805460018201549293849360ff811691620100009091041680610ca95760405163981a2a2b60e01b815260040160405180910390fd5b600080826001600160a01b031663feaf968c6040518163ffffffff1660e01b815260040160a060405180830381865afa158015610cea573d6000803e3d6000fd5b505050506040513d601f19601f82011682018060405250810190610d0e91906119cc565b5093505092505083158015610d295750610d29828287611485565b15610dd8576001860154600090610100900460ff1615610d5357610d4c836114a6565b9050610dc7565b6000846001600160a01b031663313ce5676040518163ffffffff1660e01b8152600401602060405180830381865afa158015610d93573d6000803e3d6000fd5b505050506040513d601f19601f82011682018060405250810190610db79190611a1c565b9050610dc3848261159d565b9150505b60019a909950975050505050505050565b506000988998509650505050505050565b6001600160a01b03808316600090815260026020819052604082200154909190811690831603610e1b57506000610c54565b6001600160a01b0383811660009081526002602081905260409091200180546001600160a01b031916918416918217905515611015576040516312fd145b60e31b81526001600160a01b0383811660048301527f000000000000000000000000000000000000000000000000000000000000000016906397e8a2d890602401602060405180830381865afa158015610eb7573d6000803e3d6000fd5b505050506040513d601f19601f82011682018060405250810190610edb9190611a3f565b1580610f4e575060405163598fd92b60e11b81526001600160a01b03848116600483015283169063b31fb25690602401602060405180830381865afa158015610f28573d6000803e3d6000fd5b505050506040513d601f19601f82011682018060405250810190610f4c9190611a3f565b155b80610fec57507f00000000000000000000000000000000000000000000000000000000000000006001600160a01b0316826001600160a01b031663217a4b706040518163ffffffff1660e01b8152600401602060405180830381865afa158015610fbc573d6000803e3d6000fd5b505050506040513d601f19601f82011682018060405250810190610fe0919061182c565b6001600160a01b031614155b1561100a5760405163f7ebc71360e01b815260040160405180910390fd5b61101383611109565b505b816001600160a01b0316836001600160a01b03167f26f22f8c474f2065d47d555b7f96badf39d94093d6db814098680b098d96a27860405160405180910390a350600192915050565b60006202a30082111561108457604051638f1825c960e01b815260040160405180910390fd5b6001600160a01b03831660009081526002602052604090205482036110ab57506000610c54565b6001600160a01b03831660008181526002602052604090819020849055517f7892d1ac746d3db86c35b555e3c7ddbe78b1a209068eadaf1ad5bfe08a8653a9906110f89085815260200190565b60405180910390a250600192915050565b6001600160a01b038082166000908152600260208190526040822001549091168061114757604051631c48ef1360e21b815260040160405180910390fd5b6040516341976e0960e01b81526001600160a01b0384811660048301528216906341976e0990602401602060405180830381865afa15801561118d573d6000803e3d6000fd5b505050506040513d601f19601f8201168201806040525081019061065a9190611a5c565b60006001600160a01b0383166111da5760405163029a68ed60e41b815260040160405180910390fd5b6001600160a01b0384811660009081526002602052604090206001810154909185811662010000909204161480156112175750600181015460ff16155b1561122657600091505061065a565b60018101805461ff01600160b01b031916620100006001600160a01b03871602179055600061125486610c5a565b5090508061127557604051638a93c04960e01b815260040160405180910390fd5b83801561130957507f000000000000000000000000000000000000000000000000000000000000000060ff16856001600160a01b031663313ce5676040518163ffffffff1660e01b8152600401602060405180830381865afa1580156112df573d6000803e3d6000fd5b505050506040513d601f19601f820116820180604052508101906113039190611a1c565b60ff1614155b1561132757604051636322b92560e11b815260040160405180910390fd5b6001600160a01b038087166000818152600260205260409081902060010180548815156101000261ff001990911617905551918716917ffc4600a47c5e7ea766bb29e689a692a267b8549a1f07afa418b47bdd479e18179061138e90881515815260200190565b60405180910390a350600195945050505050565b60006202a3008211156113c857604051638f1825c960e01b815260040160405180910390fd5b60015482036113d957506000919050565b60018290556040518281527fcc859b6b85e71cdf22c35275e400cbd6817f8bdfd829e0d386dbf3edc292ffcc9060200160405180910390a1506001919050565b600080546001600160a01b039081169083160361143857506000919050565b600080546001600160a01b0319166001600160a01b038416908117825560405190917fc9f3c0828967b8c34f2d6bbf6797c2965918320a1b0cd659293a94bff918fecd91a2506001919050565b6000808413801561149e57508161149c8442611a75565b105b949350505050565b60008060007f00000000000000000000000000000000000000000000000000000000000000006001600160a01b031663feaf968c6040518163ffffffff1660e01b815260040160a060405180830381865afa158015611509573d6000803e3d6000fd5b505050506040513d601f19601f8201168201806040525081019061152d91906119cc565b509350509250506115418282600154611485565b61155e57604051638a93c04960e01b815260040160405180910390fd5b6115897f0000000000000000000000000000000000000000000000000000000000000000600a611952565b611593838661180d565b61149e9190611961565b60008160ff167f000000000000000000000000000000000000000000000000000000000000000060ff16036115d3575081610c54565b8160ff167f000000000000000000000000000000000000000000000000000000000000000060ff1610156116475761162b7f000000000000000000000000000000000000000000000000000000000000000083611a8c565b61163690600a611952565b6116409084611961565b9050610c54565b611671827f0000000000000000000000000000000000000000000000000000000000000000611a8c565b61167c90600a611952565b611640908461180d565b6001600160a01b03811681146109cb57600080fd5b6000602082840312156116ad57600080fd5b813561065a81611686565b600080604083850312156116cb57600080fd5b82356116d681611686565b915060208301356116e681611686565b809150509250929050565b6000806040838503121561170457600080fd5b823561170f81611686565b946020939093013593505050565b80151581146109cb57600080fd5b60008060006060848603121561174057600080fd5b833561174b81611686565b9250602084013561175b81611686565b9150604084013561176b8161171d565b809150509250925092565b60006020828403121561178857600080fd5b5035919050565b600080600080600060a086880312156117a757600080fd5b85356117b281611686565b945060208601356117c281611686565b935060408601356117d281611686565b92506060860135915060808601356117e98161171d565b809150509295509295909350565b634e487b7160e01b600052601160045260246000fd5b6000816000190483118215151615611827576118276117f7565b500290565b60006020828403121561183e57600080fd5b815161065a81611686565b6020808252600b908201526a27b7363ca6b0b730b3b2b960a91b604082015260600190565b600181815b808511156118a957816000190482111561188f5761188f6117f7565b8085161561189c57918102915b93841c9390800290611873565b509250929050565b6000826118c057506001610c54565b816118cd57506000610c54565b81600181146118e357600281146118ed57611909565b6001915050610c54565b60ff8411156118fe576118fe6117f7565b50506001821b610c54565b5060208310610133831016604e8410600b841016171561192c575081810a610c54565b611936838361186e565b806000190482111561194a5761194a6117f7565b029392505050565b6000610c5160ff8416836118b1565b60008261197e57634e487b7160e01b600052601260045260246000fd5b500490565b60006020828403121561199557600080fd5b81516001600160e01b03198116811461065a57600080fd5b805169ffffffffffffffffffff811681146119c757600080fd5b919050565b600080600080600060a086880312156119e457600080fd5b6119ed866119ad565b9450602086015193506040860151925060608601519150611a10608087016119ad565b90509295509295909350565b600060208284031215611a2e57600080fd5b815160ff8116811461065a57600080fd5b600060208284031215611a5157600080fd5b815161065a8161171d565b600060208284031215611a6e57600080fd5b5051919050565b600082821015611a8757611a876117f7565b500390565b600060ff821660ff841680821015611aa657611aa66117f7565b9003939250505056fea2646970667358221220fe63896f3116734f0009f5d4f21951b139ecbb3f921684e16ed5ff0f48d36cbb64736f6c634300080d0033",
  "devdoc": {
    "custom:security-contact": "security@silo.finance",
    "details": "wstETH-stETH Exchange Rate rate reported by chainlink, means that for 1 wstETH we will get X of stETH with stETH/ETH aggregator: 1 stETH will give us N ETH wstETH price = X stETH price * N (STETH / ETH) to reuse quote functionality: `_price * 10 ** _QUOTE_TOKEN_DECIMALS / uint256(aggregatorPrice);` we need to change `/` to `*`",
    "kind": "dev",
    "methods": {
      "assetSupported(address)": {
        "details": "this provider is only for wstETH"
      },
      "emergencyDisable(address)": {
        "details": "Disables the aggregator for an asset if there is a big discrepancy between the aggregator and the fallback provider. The only way to reenable the asset is by calling setupAsset or setAggregator again. Can only be called by the emergencyManager.",
        "params": {
          "_asset": "Asset for which to disable the aggregator"
        }
      },
      "getAggregatorPrice(address)": {
        "details": "Returns price directly from aggregator using all internal settings except of fallback provider",
        "params": {
          "_asset": "Asset for which we want to get the price"
        }
      },
      "getPrice(address)": {
        "params": {
          "_asset": "address of an asset for which to read price"
        },
        "returns": {
          "_0": "of asses with 18 decimals, throws when pool is not ready yet to provide price"
        }
      },
      "offChainProvider()": {
        "details": "this is info method for LiquidationHelper",
        "returns": {
          "_0": "bool TRUE if provider is off-chain, means it is not a dex"
        }
      },
      "priceProviderPing()": {
        "details": "this can save us from simple human errors, in case we use invalid address but this should NOT be treated as security check",
        "returns": {
          "_0": "always true"
        }
      },
      "setAggregator(address,address,bool)": {
        "details": "Sets the aggregator for an asset. Can only be called by the manager.",
        "params": {
          "_aggregator": "Aggregator to set",
          "_asset": "Asset for which to set the aggregator"
        }
      },
      "setEmergencyManager(address)": {
        "details": "Sets the emergencyManager. Can only be called by the manager.",
        "params": {
          "_emergencyManager": "Emergency manager to set"
        }
      },
      "setFallbackPriceProvider(address,address)": {
        "details": "Sets the fallback provider for an asset. Can only be called by the manager.",
        "params": {
          "_asset": "Asset for which to set the fallback provider",
          "_fallbackProvider": "Provider to set"
        }
      },
      "setHeartbeat(address,uint256)": {
        "details": "Sets the heartbeat threshold for an asset. Can only be called by the manager.",
        "params": {
          "_asset": "Asset for which to set the heartbeat threshold",
          "_heartbeat": "Threshold to set"
        }
      },
      "setQuoteAggregatorHeartbeat(uint256)": {
        "details": "Sets the quote aggregator heartbeat threshold. Can only be called by the manager.",
        "params": {
          "_heartbeat": "Threshold to set"
        }
      },
      "setupAsset(address,address,address,uint256,bool)": {
        "details": "Sets the aggregator, fallbackProvider and heartbeat for an asset. Can only be called by the manager.",
        "params": {
          "_aggregator": "Chainlink aggregator proxy",
          "_asset": "Asset to setup",
          "_fallbackProvider": "Provider to use if the price is invalid or if the aggregator was disabled",
          "_heartbeat": "Threshold in seconds to invalidate a stale price"
        }
      }
    },
    "title": "WSTETHPriceByChainlinkArbitrum",
    "version": 1
  },
  "userdoc": {
    "kind": "user",
    "methods": {
      "getPrice(address)": {
        "notice": "Returns \"Time-Weighted Average Price\" for an asset. Calculates TWAP price for quote/asset. It unifies all tokens decimal to 18, examples: - if asses == quote it returns 1e18 - if asset is USDC and quote is ETH and ETH costs ~$3300 then it returns ~0.0003e18 WETH per 1 USDC"
      },
      "priceProviderPing()": {
        "notice": "Helper method that allows easily detects, if contract is PriceProvider"
      },
      "priceProvidersRepository()": {
        "notice": "PriceProvidersRepository address"
      },
      "quoteToken()": {
        "notice": "Token address which prices are quoted in. Must be the same as PriceProvidersRepository.quoteToken"
      },
      "setupAsset(address,address,address,uint256,bool)": {
        "notice": "this method overrides original to make sure `_convertToQuote` is always true, because we will be using `toQuote` to calculate wstETH price."
      }
    },
    "notice": "WSTETHPriceByChainlinkArbitrum is the price provider for wstETH token for Arbitrum. Price calculations depends on the price of stETH and wstETH-stETH Exchange Rate.",
    "version": 1
  },
  "storageLayout": {
    "storage": [
      {
        "astId": 41581,
        "contract": "contracts/priceProviders/wstETH/WSTETHPriceByChainlinkArbitrum.sol:WSTETHPriceByChainlinkArbitrum",
        "label": "emergencyManager",
        "offset": 0,
        "slot": "0",
        "type": "t_address"
      },
      {
        "astId": 41584,
        "contract": "contracts/priceProviders/wstETH/WSTETHPriceByChainlinkArbitrum.sol:WSTETHPriceByChainlinkArbitrum",
        "label": "quoteAggregatorHeartbeat",
        "offset": 0,
        "slot": "1",
        "type": "t_uint256"
      },
      {
        "astId": 41590,
        "contract": "contracts/priceProviders/wstETH/WSTETHPriceByChainlinkArbitrum.sol:WSTETHPriceByChainlinkArbitrum",
        "label": "assetData",
        "offset": 0,
        "slot": "2",
        "type": "t_mapping(t_address,t_struct(AssetData)41546_storage)"
      }
    ],
    "types": {
      "t_address": {
        "encoding": "inplace",
        "label": "address",
        "numberOfBytes": "20"
      },
      "t_bool": {
        "encoding": "inplace",
        "label": "bool",
        "numberOfBytes": "1"
      },
      "t_contract(AggregatorV3Interface)45": {
        "encoding": "inplace",
        "label": "contract AggregatorV3Interface",
        "numberOfBytes": "20"
      },
      "t_contract(IPriceProvider)24571": {
        "encoding": "inplace",
        "label": "contract IPriceProvider",
        "numberOfBytes": "20"
      },
      "t_mapping(t_address,t_struct(AssetData)41546_storage)": {
        "encoding": "mapping",
        "key": "t_address",
        "label": "mapping(address => struct ChainlinkV3PriceProvider.AssetData)",
        "numberOfBytes": "32",
        "value": "t_struct(AssetData)41546_storage"
      },
      "t_struct(AssetData)41546_storage": {
        "encoding": "inplace",
        "label": "struct ChainlinkV3PriceProvider.AssetData",
        "members": [
          {
            "astId": 41535,
            "contract": "contracts/priceProviders/wstETH/WSTETHPriceByChainlinkArbitrum.sol:WSTETHPriceByChainlinkArbitrum",
            "label": "heartbeat",
            "offset": 0,
            "slot": "0",
            "type": "t_uint256"
          },
          {
            "astId": 41537,
            "contract": "contracts/priceProviders/wstETH/WSTETHPriceByChainlinkArbitrum.sol:WSTETHPriceByChainlinkArbitrum",
            "label": "forceFallback",
            "offset": 0,
            "slot": "1",
            "type": "t_bool"
          },
          {
            "astId": 41539,
            "contract": "contracts/priceProviders/wstETH/WSTETHPriceByChainlinkArbitrum.sol:WSTETHPriceByChainlinkArbitrum",
            "label": "convertToQuote",
            "offset": 1,
            "slot": "1",
            "type": "t_bool"
          },
          {
            "astId": 41542,
            "contract": "contracts/priceProviders/wstETH/WSTETHPriceByChainlinkArbitrum.sol:WSTETHPriceByChainlinkArbitrum",
            "label": "aggregator",
            "offset": 2,
            "slot": "1",
            "type": "t_contract(AggregatorV3Interface)45"
          },
          {
            "astId": 41545,
            "contract": "contracts/priceProviders/wstETH/WSTETHPriceByChainlinkArbitrum.sol:WSTETHPriceByChainlinkArbitrum",
            "label": "fallbackProvider",
            "offset": 0,
            "slot": "2",
            "type": "t_contract(IPriceProvider)24571"
          }
        ],
        "numberOfBytes": "96"
      },
      "t_uint256": {
        "encoding": "inplace",
        "label": "uint256",
        "numberOfBytes": "32"
      }
    }
  }
}