{
  "address": "0x29752e1bbD2d67992a4A28900B4122FF99Ad4FCa",
  "abi": [
    {
      "inputs": [],
      "stateMutability": "nonpayable",
      "type": "constructor"
    },
    {
      "inputs": [],
      "name": "InvalidAsset",
      "type": "error"
    },
    {
      "inputs": [],
      "name": "ASSET",
      "outputs": [
        {
          "internalType": "address",
          "name": "",
          "type": "address"
        }
      ],
      "stateMutability": "view",
      "type": "function"
    },
    {
      "inputs": [],
      "name": "POOL_FEE",
      "outputs": [
        {
          "internalType": "uint24",
          "name": "",
          "type": "uint24"
        }
      ],
      "stateMutability": "view",
      "type": "function"
    },
    {
      "inputs": [],
      "name": "ROUTER",
      "outputs": [
        {
          "internalType": "contract IV3SwapRouter",
          "name": "",
          "type": "address"
        }
      ],
      "stateMutability": "view",
      "type": "function"
    },
    {
      "inputs": [],
      "name": "WETH",
      "outputs": [
        {
          "internalType": "address",
          "name": "",
          "type": "address"
        }
      ],
      "stateMutability": "view",
      "type": "function"
    },
    {
      "inputs": [
        {
          "internalType": "address",
          "name": "_asset",
          "type": "address"
        },
        {
          "internalType": "uint256",
          "name": "_amount",
          "type": "uint256"
        }
      ],
      "name": "towardsAsset",
      "outputs": [
        {
          "internalType": "address",
          "name": "asset",
          "type": "address"
        },
        {
          "internalType": "uint256",
          "name": "amount",
          "type": "uint256"
        }
      ],
      "stateMutability": "nonpayable",
      "type": "function"
    },
    {
      "inputs": [
        {
          "internalType": "address",
          "name": "_asset",
          "type": "address"
        },
        {
          "internalType": "uint256",
          "name": "_amount",
          "type": "uint256"
        }
      ],
      "name": "towardsNative",
      "outputs": [
        {
          "internalType": "address",
          "name": "",
          "type": "address"
        },
        {
          "internalType": "uint256",
          "name": "",
          "type": "uint256"
        }
      ],
      "stateMutability": "nonpayable",
      "type": "function"
    }
  ],
  "transactionHash": "0x5b0079be6f77df2b772197c09ee3ed23ffee766e402fc508a57cd8d824836b92",
  "args": [],
  "numDeployments": 1,
  "solcInputHash": "6dd8d59ce7142a809d67b95b15fd089c",
  "bytecode": "0x60c060405234801561001057600080fd5b5073833589fcd6edb6e08f4c7c32d4f71b54bda029136080526101f460a05260805160a05161068461006f6000396000818161011e0152818161025a015261042401526000818160d601528181610159015261032601526106846000f3fe608060405234801561001057600080fd5b50600436106100625760003560e01c806321ebbf011461006757806332fe7b261461009e5780634800d97f146100d15780636ea477da146100f8578063ad5c46481461010b578063dd1b9c4a14610119575b600080fd5b61007a61007536600461056f565b610154565b604080516001600160a01b0390931683526020830191909152015b60405180910390f35b6100b9732626664c2603336e57b271c5c0b26f421741e48181565b6040516001600160a01b039091168152602001610095565b6100b97f000000000000000000000000000000000000000000000000000000000000000081565b61007a61010636600461056f565b610321565b6100b96006602160991b0181565b6101407f000000000000000000000000000000000000000000000000000000000000000081565b60405162ffffff9091168152602001610095565b6000807f00000000000000000000000000000000000000000000000000000000000000006001600160a01b0316846001600160a01b0316146101a957604051636448d6e960e11b815260040160405180910390fd5b60405163095ea7b360e01b8152732626664c2603336e57b271c5c0b26f421741e4816004820152602481018490526001600160a01b0385169063095ea7b3906044016020604051808303816000875af115801561020a573d6000803e3d6000fd5b505050506040513d601f19601f8201168201806040525081019061022e91906105a7565b506040805160e0810182526001600160a01b03861681526006602160991b016020820181905262ffffff7f0000000000000000000000000000000000000000000000000000000000000000168284015230606083015260808201869052600160a0830152600060c083015291516304e45aaf60e01b8152909190732626664c2603336e57b271c5c0b26f421741e481906304e45aaf906102d29085906004016105d0565b6020604051808303816000875af11580156102f1573d6000803e3d6000fd5b505050506040513d601f19601f820116820180604052508101906103159190610635565b92509250509250929050565b6000807f00000000000000000000000000000000000000000000000000000000000000006001600160a01b0316846001600160a01b03161461037657604051636448d6e960e11b815260040160405180910390fd5b60405163095ea7b360e01b8152732626664c2603336e57b271c5c0b26f421741e481600482015260001960248201526006602160991b019063095ea7b3906044016020604051808303816000875af11580156103d6573d6000803e3d6000fd5b505050506040513d601f19601f820116820180604052508101906103fa91906105a7565b506040805160e0810182526006602160991b0181526001600160a01b038616602082015262ffffff7f000000000000000000000000000000000000000000000000000000000000000016818301523060608201526080810185905260001960a0820152600060c08201529051635023b4df60e01b8152859350732626664c2603336e57b271c5c0b26f421741e48190635023b4df9061049d9084906004016105d0565b6020604051808303816000875af11580156104bc573d6000803e3d6000fd5b505050506040513d601f19601f820116820180604052508101906104e09190610635565b60405163095ea7b360e01b8152732626664c2603336e57b271c5c0b26f421741e4816004820152600060248201529092506006602160991b019063095ea7b3906044016020604051808303816000875af1158015610542573d6000803e3d6000fd5b505050506040513d601f19601f8201168201806040525081019061056691906105a7565b50509250929050565b6000806040838503121561058257600080fd5b82356001600160a01b038116811461059957600080fd5b946020939093013593505050565b6000602082840312156105b957600080fd5b815180151581146105c957600080fd5b9392505050565b60e0810161062f828480516001600160a01b03908116835260208083015182169084015260408083015162ffffff16908401526060808301518216908401526080808301519084015260a0828101519084015260c09182015116910152565b92915050565b60006020828403121561064757600080fd5b505191905056fea2646970667358221220226549a291aafd51dc7dc9099e1cb0dfa9d886589228c3ec257565996c80bf2764736f6c634300080d0033",
  "devdoc": {
    "kind": "dev",
    "methods": {
      "towardsAsset(address,uint256)": {
        "params": {
          "_amount": "Amount of the `_asset`",
          "_asset": "Asset to be wrapped"
        },
        "returns": {
          "amount": "Amount of the quote token that we spent to get `_amoun` of the `_asset`",
          "asset": "A token that the `_asset` has been converted to"
        }
      },
      "towardsNative(address,uint256)": {
        "params": {
          "_amount": "Amount of the `_asset`",
          "_asset": "Asset to be unwrapped"
        },
        "returns": {
          "_0": "A token that the `_asset` has been converted to",
          "_1": "Amount of the `tokenOut` that we received"
        }
      }
    },
    "version": 1
  },
  "userdoc": {
    "kind": "user",
    "methods": {
      "towardsAsset(address,uint256)": {
        "notice": "Performs operation opposit to `towardsNative`"
      },
      "towardsNative(address,uint256)": {
        "notice": "Operates to unwrap an `_asset`"
      }
    },
    "version": 1
  },
  "storageLayout": {
    "storage": [],
    "types": null
  }
}