{
  "address": "0x9F9925f75C621173a8CBea798331526C93C6397b",
  "abi": [
    {
      "inputs": [
        {
          "internalType": "contract IPriceProvidersRepository",
          "name": "_priceProvidersRepository",
          "type": "address"
        },
        {
          "internalType": "address",
          "name": "_emergencyManager",
          "type": "address"
        },
        {
          "internalType": "contract AggregatorV3Interface",
          "name": "_quoteAggregator",
          "type": "address"
        },
        {
          "internalType": "uint256",
          "name": "_quoteAggregatorHeartbeat",
          "type": "uint256"
        }
      ],
      "stateMutability": "nonpayable",
      "type": "constructor"
    },
    {
      "inputs": [],
      "name": "AggregatorDidNotChange",
      "type": "error"
    },
    {
      "inputs": [],
      "name": "AggregatorPriceNotAvailable",
      "type": "error"
    },
    {
      "inputs": [],
      "name": "AssetNotSupported",
      "type": "error"
    },
    {
      "inputs": [],
      "name": "EmergencyManagerDidNotChange",
      "type": "error"
    },
    {
      "inputs": [],
      "name": "EmergencyThresholdNotReached",
      "type": "error"
    },
    {
      "inputs": [],
      "name": "FallbackProviderAlreadySet",
      "type": "error"
    },
    {
      "inputs": [],
      "name": "FallbackProviderDidNotChange",
      "type": "error"
    },
    {
      "inputs": [],
      "name": "FallbackProviderNotSet",
      "type": "error"
    },
    {
      "inputs": [],
      "name": "HeartbeatDidNotChange",
      "type": "error"
    },
    {
      "inputs": [],
      "name": "InvalidAggregator",
      "type": "error"
    },
    {
      "inputs": [],
      "name": "InvalidAggregatorDecimals",
      "type": "error"
    },
    {
      "inputs": [],
      "name": "InvalidFallbackPriceProvider",
      "type": "error"
    },
    {
      "inputs": [],
      "name": "InvalidHeartbeat",
      "type": "error"
    },
    {
      "inputs": [],
      "name": "OnlyEmergencyManager",
      "type": "error"
    },
    {
      "anonymous": false,
      "inputs": [
        {
          "indexed": true,
          "internalType": "address",
          "name": "asset",
          "type": "address"
        },
        {
          "indexed": true,
          "internalType": "contract AggregatorV3Interface",
          "name": "aggregator",
          "type": "address"
        }
      ],
      "name": "AggregatorDisabled",
      "type": "event"
    },
    {
      "anonymous": false,
      "inputs": [
        {
          "indexed": true,
          "internalType": "address",
          "name": "asset",
          "type": "address"
        },
        {
          "indexed": true,
          "internalType": "contract AggregatorV3Interface",
          "name": "aggregator",
          "type": "address"
        },
        {
          "indexed": false,
          "internalType": "bool",
          "name": "convertToQuote",
          "type": "bool"
        }
      ],
      "name": "NewAggregator",
      "type": "event"
    },
    {
      "anonymous": false,
      "inputs": [
        {
          "indexed": true,
          "internalType": "address",
          "name": "emergencyManager",
          "type": "address"
        }
      ],
      "name": "NewEmergencyManager",
      "type": "event"
    },
    {
      "anonymous": false,
      "inputs": [
        {
          "indexed": true,
          "internalType": "address",
          "name": "asset",
          "type": "address"
        },
        {
          "indexed": true,
          "internalType": "contract IPriceProvider",
          "name": "fallbackProvider",
          "type": "address"
        }
      ],
      "name": "NewFallbackPriceProvider",
      "type": "event"
    },
    {
      "anonymous": false,
      "inputs": [
        {
          "indexed": true,
          "internalType": "address",
          "name": "asset",
          "type": "address"
        },
        {
          "indexed": false,
          "internalType": "uint256",
          "name": "heartbeat",
          "type": "uint256"
        }
      ],
      "name": "NewHeartbeat",
      "type": "event"
    },
    {
      "anonymous": false,
      "inputs": [
        {
          "indexed": false,
          "internalType": "uint256",
          "name": "heartbeat",
          "type": "uint256"
        }
      ],
      "name": "NewQuoteAggregatorHeartbeat",
      "type": "event"
    },
    {
      "inputs": [],
      "name": "EMERGENCY_PRECISION",
      "outputs": [
        {
          "internalType": "uint256",
          "name": "",
          "type": "uint256"
        }
      ],
      "stateMutability": "view",
      "type": "function"
    },
    {
      "inputs": [],
      "name": "EMERGENCY_THRESHOLD",
      "outputs": [
        {
          "internalType": "uint256",
          "name": "",
          "type": "uint256"
        }
      ],
      "stateMutability": "view",
      "type": "function"
    },
    {
      "inputs": [
        {
          "internalType": "address",
          "name": "",
          "type": "address"
        }
      ],
      "name": "assetData",
      "outputs": [
        {
          "internalType": "uint256",
          "name": "heartbeat",
          "type": "uint256"
        },
        {
          "internalType": "bool",
          "name": "forceFallback",
          "type": "bool"
        },
        {
          "internalType": "bool",
          "name": "convertToQuote",
          "type": "bool"
        },
        {
          "internalType": "contract AggregatorV3Interface",
          "name": "aggregator",
          "type": "address"
        },
        {
          "internalType": "contract IPriceProvider",
          "name": "fallbackProvider",
          "type": "address"
        }
      ],
      "stateMutability": "view",
      "type": "function"
    },
    {
      "inputs": [
        {
          "internalType": "address",
          "name": "_asset",
          "type": "address"
        }
      ],
      "name": "assetSupported",
      "outputs": [
        {
          "internalType": "bool",
          "name": "",
          "type": "bool"
        }
      ],
      "stateMutability": "view",
      "type": "function"
    },
    {
      "inputs": [
        {
          "internalType": "address",
          "name": "_asset",
          "type": "address"
        }
      ],
      "name": "emergencyDisable",
      "outputs": [],
      "stateMutability": "nonpayable",
      "type": "function"
    },
    {
      "inputs": [],
      "name": "emergencyManager",
      "outputs": [
        {
          "internalType": "address",
          "name": "",
          "type": "address"
        }
      ],
      "stateMutability": "view",
      "type": "function"
    },
    {
      "inputs": [
        {
          "internalType": "address",
          "name": "_asset",
          "type": "address"
        }
      ],
      "name": "getPrice",
      "outputs": [
        {
          "internalType": "uint256",
          "name": "",
          "type": "uint256"
        }
      ],
      "stateMutability": "view",
      "type": "function"
    },
    {
      "inputs": [],
      "name": "priceProviderPing",
      "outputs": [
        {
          "internalType": "bytes4",
          "name": "",
          "type": "bytes4"
        }
      ],
      "stateMutability": "pure",
      "type": "function"
    },
    {
      "inputs": [],
      "name": "priceProvidersRepository",
      "outputs": [
        {
          "internalType": "contract IPriceProvidersRepository",
          "name": "",
          "type": "address"
        }
      ],
      "stateMutability": "view",
      "type": "function"
    },
    {
      "inputs": [],
      "name": "quoteAggregatorHeartbeat",
      "outputs": [
        {
          "internalType": "uint256",
          "name": "",
          "type": "uint256"
        }
      ],
      "stateMutability": "view",
      "type": "function"
    },
    {
      "inputs": [],
      "name": "quoteToken",
      "outputs": [
        {
          "internalType": "address",
          "name": "",
          "type": "address"
        }
      ],
      "stateMutability": "view",
      "type": "function"
    },
    {
      "inputs": [
        {
          "internalType": "address",
          "name": "_asset",
          "type": "address"
        },
        {
          "internalType": "contract AggregatorV3Interface",
          "name": "_aggregator",
          "type": "address"
        },
        {
          "internalType": "bool",
          "name": "_convertToQuote",
          "type": "bool"
        }
      ],
      "name": "setAggregator",
      "outputs": [],
      "stateMutability": "nonpayable",
      "type": "function"
    },
    {
      "inputs": [
        {
          "internalType": "address",
          "name": "_emergencyManager",
          "type": "address"
        }
      ],
      "name": "setEmergencyManager",
      "outputs": [],
      "stateMutability": "nonpayable",
      "type": "function"
    },
    {
      "inputs": [
        {
          "internalType": "address",
          "name": "_asset",
          "type": "address"
        },
        {
          "internalType": "contract IPriceProvider",
          "name": "_fallbackProvider",
          "type": "address"
        }
      ],
      "name": "setFallbackPriceProvider",
      "outputs": [],
      "stateMutability": "nonpayable",
      "type": "function"
    },
    {
      "inputs": [
        {
          "internalType": "address",
          "name": "_asset",
          "type": "address"
        },
        {
          "internalType": "uint256",
          "name": "_threshold",
          "type": "uint256"
        }
      ],
      "name": "setHeartbeat",
      "outputs": [],
      "stateMutability": "nonpayable",
      "type": "function"
    },
    {
      "inputs": [
        {
          "internalType": "address",
          "name": "_asset",
          "type": "address"
        },
        {
          "internalType": "contract AggregatorV3Interface",
          "name": "_aggregator",
          "type": "address"
        },
        {
          "internalType": "contract IPriceProvider",
          "name": "_fallbackProvider",
          "type": "address"
        },
        {
          "internalType": "uint256",
          "name": "_heartbeat",
          "type": "uint256"
        },
        {
          "internalType": "bool",
          "name": "_convertToQuote",
          "type": "bool"
        }
      ],
      "name": "setupAsset",
      "outputs": [],
      "stateMutability": "nonpayable",
      "type": "function"
    }
  ],
  "transactionHash": "0x53efefa628f7581403e355b5a1a827a4fb0efd26692351b0f4f67f475d8469de",
  "args": [
    "0x7C2ca9D502f2409BeceAfa68E97a176Ff805029F",
    "0xe1F03b7B0eBf84e9B9f62a1dB40f1Efb8FaA7d22",
    "0x5f4eC3Df9cbd43714FE2740f5E3616155c5b8419",
    7200
  ],
  "numDeployments": 1,
  "solcInputHash": "72f3a7246bc5e8e8b2f10ac1e42f1c60",
  "bytecode": "0x61014060405262000015620f42406064620003a2565b6200002390600019620003d0565b610120523480156200003457600080fd5b5060405162001e5538038062001e5583398101604081905262000057916200040c565b836200007c816001600160a01b031663eec3e6a7620002ab60201b62000a731760201c565b620000cd5760405162461bcd60e51b815260206004820152601e60248201527f496e76616c6964507269636550726f76696465725265706f7369746f72790000604482015260640160405180910390fd5b6001600160a01b038116608081905260408051630217a4b760e41b8152905163217a4b70916004808201926020929091908290030181865afa15801562000118573d6000803e3d6000fd5b505050506040513d601f19601f820116820180604052508101906200013e919062000466565b6001600160a01b031660a05250620001568362000335565b50836001600160a01b031663217a4b706040518163ffffffff1660e01b8152600401602060405180830381865afa15801562000196573d6000803e3d6000fd5b505050506040513d601f19601f82011682018060405250810190620001bc919062000466565b6001600160a01b031663313ce5676040518163ffffffff1660e01b8152600401602060405180830381865afa158015620001fa573d6000803e3d6000fd5b505050506040513d601f19601f8201168201806040525081019062000220919062000486565b60ff16610100526001600160a01b03821660c08190526040805163313ce56760e01b8152905163313ce567916004808201926020929091908290030181865afa15801562000272573d6000803e3d6000fd5b505050506040513d601f19601f8201168201806040525081019062000298919062000486565b60ff1660e05260015550620004d7915050565b60006001600160a01b038316158015906200032e575082826040518163ffffffff1660e01b8152600401602060405180830381865afa158015620002f3573d6000803e3d6000fd5b505050506040513d601f19601f82011682018060405250810190620003199190620004ab565b60e083901b6001600160e01b03199081169116145b9392505050565b600080546001600160a01b03908116908316036200035557506000919050565b600080546001600160a01b0319166001600160a01b038416908117825560405190917fc9f3c0828967b8c34f2d6bbf6797c2965918320a1b0cd659293a94bff918fecd91a2506001919050565b6000816000190483118215151615620003cb57634e487b7160e01b600052601160045260246000fd5b500290565b600082620003ee57634e487b7160e01b600052601260045260246000fd5b500490565b6001600160a01b03811681146200040957600080fd5b50565b600080600080608085870312156200042357600080fd5b84516200043081620003f3565b60208601519094506200044381620003f3565b60408601519093506200045681620003f3565b6060959095015193969295505050565b6000602082840312156200047957600080fd5b81516200032e81620003f3565b6000602082840312156200049957600080fd5b815160ff811681146200032e57600080fd5b600060208284031215620004be57600080fd5b81516001600160e01b0319811681146200032e57600080fd5b60805160a05160c05160e05161010051610120516118cc62000589600039600061062701526000818161054c0152818161138e015281816113d00152818161140101528181611428015261146c01526000611120015260006112d701526000818161012f01528181610515015281816109210152610c680152600081816102450152818161030f0152818161041d0152818161071001528181610817015281816109a40152610b8201526118cc6000f3fe608060405234801561001057600080fd5b50600436106101005760003560e01c80635ddf2be311610097578063b31fb25611610066578063b31fb256146102a0578063d0532d91146102c3578063d2c18f59146102d6578063da31cf3c146102e957600080fd5b80635ddf2be31461024057806375435703146102675780637f2141c81461027a5780639a2ca2571461028d57600080fd5b80632f1605fc116100d35780632f1605fc1461017e57806341976e091461019157806341fee44a146101a457806357e0c50f1461022b57600080fd5b8063087d31b7146101055780630f2a163214610120578063217a4b701461012a5780632553b17f14610169575b600080fd5b61010d6102f2565b6040519081526020015b60405180910390f35b61010d620f424081565b6101517f000000000000000000000000000000000000000000000000000000000000000081565b6040516001600160a01b039091168152602001610117565b61017c6101773660046114ab565b610303565b005b61017c61018c3660046114e4565b610411565b61010d61019f366004611510565b610511565b6101f46101b2366004611510565b600260208190526000918252604090912080546001820154919092015460ff808316926101008104909116916001600160a01b03620100009092048216911685565b604080519586529315156020860152911515928401929092526001600160a01b03918216606084015216608082015260a001610117565b6040516357e0c50f60e01b8152602001610117565b6101517f000000000000000000000000000000000000000000000000000000000000000081565b61017c610275366004611510565b6105a7565b61017c61028836600461153b565b610704565b61017c61029b366004611586565b61080b565b6102b36102ae366004611510565b610902565b6040519015158152602001610117565b61017c6102d1366004611510565b610998565b600054610151906001600160a01b031681565b61010d60015481565b610300620f4240600a611604565b81565b336001600160a01b03167f00000000000000000000000000000000000000000000000000000000000000006001600160a01b031663481c6a756040518163ffffffff1660e01b8152600401602060405180830381865afa15801561036b573d6000803e3d6000fd5b505050506040513d601f19601f8201168201806040525081019061038f9190611623565b6001600160a01b0316146103be5760405162461bcd60e51b81526004016103b590611640565b60405180910390fd5b816103c881610902565b6103e55760405163981a2a2b60e01b815260040160405180910390fd5b6103ef8383610afb565b61040c57604051630d51b37960e21b815260040160405180910390fd5b505050565b336001600160a01b03167f00000000000000000000000000000000000000000000000000000000000000006001600160a01b031663481c6a756040518163ffffffff1660e01b8152600401602060405180830381865afa158015610479573d6000803e3d6000fd5b505050506040513d601f19601f8201168201806040525081019061049d9190611623565b6001600160a01b0316146104c35760405162461bcd60e51b81526004016103b590611640565b816104cd81610902565b6104ea5760405163981a2a2b60e01b815260040160405180910390fd5b6104f48383610d70565b61040c5760405163d0abfce560e01b815260040160405180910390fd5b60007f00000000000000000000000000000000000000000000000000000000000000006001600160a01b0380821690841603610579576105727f0000000000000000000000000000000000000000000000000000000000000000600a611749565b9392505050565b60008061058585610e1b565b915091508161059c5761059785610faa565b61059e565b805b95945050505050565b6000546001600160a01b031633146105d257604051633111da4560e21b815260040160405180910390fd5b6000806105de83610e1b565b915091508161060057604051638a93c04960e01b815260040160405180910390fd5b600061060b84610faa565b905060008282101561061f57818303610623565b8282035b90507f0000000000000000000000000000000000000000000000000000000000000000811180610682575061065c620f4240600a611604565b83620f424061066c846064611604565b6106769190611604565b610680919061176b565b105b156106a0576040516332d3273560e21b815260040160405180910390fd5b6001600160a01b038086166000818152600260205260408082206001908101805460ff191690911790819055905162010000909104909316927f19986ca6379d8de58c363928f6de20927669b98ab030c431c2f2fee2625961d59190a35050505050565b336001600160a01b03167f00000000000000000000000000000000000000000000000000000000000000006001600160a01b031663481c6a756040518163ffffffff1660e01b8152600401602060405180830381865afa15801561076c573d6000803e3d6000fd5b505050506040513d601f19601f820116820180604052508101906107909190611623565b6001600160a01b0316146107b65760405162461bcd60e51b81526004016103b590611640565b826107c081610902565b6107dd5760405163981a2a2b60e01b815260040160405180910390fd5b6107e8848484611052565b61080557604051630fe8d77760e11b815260040160405180910390fd5b50505050565b336001600160a01b03167f00000000000000000000000000000000000000000000000000000000000000006001600160a01b031663481c6a756040518163ffffffff1660e01b8152600401602060405180830381865afa158015610873573d6000803e3d6000fd5b505050506040513d601f19601f820116820180604052508101906108979190611623565b6001600160a01b0316146108bd5760405162461bcd60e51b81526004016103b590611640565b6108c78583610d70565b506108d3858583611052565b6108f057604051630fe8d77760e11b815260040160405180910390fd5b6108fa8584610afb565b505050505050565b6001600160a01b038082166000818152600260205260408120909290917f000000000000000000000000000000000000000000000000000000000000000090911690036109525750600192915050565b60018101546201000090046001600160a01b03161561098f57600181015460ff1615806105725750600201546001600160a01b0316151592915050565b50600092915050565b336001600160a01b03167f00000000000000000000000000000000000000000000000000000000000000006001600160a01b031663481c6a756040518163ffffffff1660e01b8152600401602060405180830381865afa158015610a00573d6000803e3d6000fd5b505050506040513d601f19601f82011682018060405250810190610a249190611623565b6001600160a01b031614610a4a5760405162461bcd60e51b81526004016103b590611640565b610a5381611243565b610a70576040516393c3b9ab60e01b815260040160405180910390fd5b50565b60006001600160a01b03831615801590610af2575082826040518163ffffffff1660e01b8152600401602060405180830381865afa158015610ab9573d6000803e3d6000fd5b505050506040513d601f19601f82011682018060405250810190610add919061178d565b60e083901b6001600160e01b03199081169116145b90505b92915050565b6001600160a01b03808316600090815260026020819052604082200154909190811690831603610b2d57506000610af5565b6001600160a01b0383811660009081526002602081905260409091200180546001600160a01b031916918416918217905515610d27576040516312fd145b60e31b81526001600160a01b0383811660048301527f000000000000000000000000000000000000000000000000000000000000000016906397e8a2d890602401602060405180830381865afa158015610bc9573d6000803e3d6000fd5b505050506040513d601f19601f82011682018060405250810190610bed91906117b7565b1580610c60575060405163598fd92b60e11b81526001600160a01b03848116600483015283169063b31fb25690602401602060405180830381865afa158015610c3a573d6000803e3d6000fd5b505050506040513d601f19601f82011682018060405250810190610c5e91906117b7565b155b80610cfe57507f00000000000000000000000000000000000000000000000000000000000000006001600160a01b0316826001600160a01b031663217a4b706040518163ffffffff1660e01b8152600401602060405180830381865afa158015610cce573d6000803e3d6000fd5b505050506040513d601f19601f82011682018060405250810190610cf29190611623565b6001600160a01b031614155b15610d1c5760405163f7ebc71360e01b815260040160405180910390fd5b610d2583610faa565b505b816001600160a01b0316836001600160a01b03167f26f22f8c474f2065d47d555b7f96badf39d94093d6db814098680b098d96a27860405160405180910390a350600192915050565b60006202a300821115610d9657604051638f1825c960e01b815260040160405180910390fd5b6001600160a01b0383166000908152600260205260409020548203610dbd57506000610af5565b6001600160a01b03831660008181526002602052604090819020849055517f7892d1ac746d3db86c35b555e3c7ddbe78b1a209068eadaf1ad5bfe08a8653a990610e0a9085815260200190565b60405180910390a250600192915050565b6001600160a01b038082166000908152600260205260408120805460018201549293849360ff811691620100009091041680610e6a5760405163981a2a2b60e01b815260040160405180910390fd5b600080826001600160a01b031663feaf968c6040518163ffffffff1660e01b815260040160a060405180830381865afa158015610eab573d6000803e3d6000fd5b505050506040513d601f19601f82011682018060405250810190610ecf91906117f3565b5093505092505083158015610eea5750610eea8282876112af565b15610f99576001860154600090610100900460ff1615610f1457610f0d836112d0565b9050610f88565b6000846001600160a01b031663313ce5676040518163ffffffff1660e01b8152600401602060405180830381865afa158015610f54573d6000803e3d6000fd5b505050506040513d601f19601f82011682018060405250810190610f789190611843565b9050610f8484826113c8565b9150505b60019a909950975050505050505050565b506000988998509650505050505050565b6001600160a01b0380821660009081526002602081905260408220015490911680610fe857604051631c48ef1360e21b815260040160405180910390fd5b6040516341976e0960e01b81526001600160a01b0384811660048301528216906341976e0990602401602060405180830381865afa15801561102e573d6000803e3d6000fd5b505050506040513d601f19601f820116820180604052508101906105729190611866565b60006001600160a01b03831661107b5760405163029a68ed60e41b815260040160405180910390fd5b6001600160a01b0384811660009081526002602052604090206001810154909185811662010000909204161480156110b85750600181015460ff16155b156110c7576000915050610572565b60018101805461ff01600160b01b031916620100006001600160a01b0387160217905560006110f586610e1b565b5090508061111657604051638a93c04960e01b815260040160405180910390fd5b8380156111aa57507f000000000000000000000000000000000000000000000000000000000000000060ff16856001600160a01b031663313ce5676040518163ffffffff1660e01b8152600401602060405180830381865afa158015611180573d6000803e3d6000fd5b505050506040513d601f19601f820116820180604052508101906111a49190611843565b60ff1614155b156111c857604051636322b92560e11b815260040160405180910390fd5b6001600160a01b038087166000818152600260205260409081902060010180548815156101000261ff001990911617905551918716917ffc4600a47c5e7ea766bb29e689a692a267b8549a1f07afa418b47bdd479e18179061122f90881515815260200190565b60405180910390a350600195945050505050565b600080546001600160a01b039081169083160361126257506000919050565b600080546001600160a01b0319166001600160a01b038416908117825560405190917fc9f3c0828967b8c34f2d6bbf6797c2965918320a1b0cd659293a94bff918fecd91a2506001919050565b600080841380156112c85750816112c6844261187f565b105b949350505050565b60008060007f00000000000000000000000000000000000000000000000000000000000000006001600160a01b031663feaf968c6040518163ffffffff1660e01b815260040160a060405180830381865afa158015611333573d6000803e3d6000fd5b505050506040513d601f19601f8201168201806040525081019061135791906117f3565b5093505092505061136b82826001546112af565b61138857604051638a93c04960e01b815260040160405180910390fd5b816113b47f0000000000000000000000000000000000000000000000000000000000000000600a611749565b6113be9086611604565b6112c8919061176b565b60008160ff167f0000000000000000000000000000000000000000000000000000000000000000036113fb575081610af5565b8160ff167f00000000000000000000000000000000000000000000000000000000000000001015611465577f00000000000000000000000000000000000000000000000000000000000000008260ff1603600a0a838161145d5761145d611755565b049050610af5565b5060ff81167f000000000000000000000000000000000000000000000000000000000000000003600a0a8202610af5565b6001600160a01b0381168114610a7057600080fd5b600080604083850312156114be57600080fd5b82356114c981611496565b915060208301356114d981611496565b809150509250929050565b600080604083850312156114f757600080fd5b823561150281611496565b946020939093013593505050565b60006020828403121561152257600080fd5b813561057281611496565b8015158114610a7057600080fd5b60008060006060848603121561155057600080fd5b833561155b81611496565b9250602084013561156b81611496565b9150604084013561157b8161152d565b809150509250925092565b600080600080600060a0868803121561159e57600080fd5b85356115a981611496565b945060208601356115b981611496565b935060408601356115c981611496565b92506060860135915060808601356115e08161152d565b809150509295509295909350565b634e487b7160e01b600052601160045260246000fd5b600081600019048311821515161561161e5761161e6115ee565b500290565b60006020828403121561163557600080fd5b815161057281611496565b6020808252600b908201526a27b7363ca6b0b730b3b2b960a91b604082015260600190565b600181815b808511156116a0578160001904821115611686576116866115ee565b8085161561169357918102915b93841c939080029061166a565b509250929050565b6000826116b757506001610af5565b816116c457506000610af5565b81600181146116da57600281146116e457611700565b6001915050610af5565b60ff8411156116f5576116f56115ee565b50506001821b610af5565b5060208310610133831016604e8410600b8410161715611723575081810a610af5565b61172d8383611665565b8060001904821115611741576117416115ee565b029392505050565b6000610af283836116a8565b634e487b7160e01b600052601260045260246000fd5b60008261178857634e487b7160e01b600052601260045260246000fd5b500490565b60006020828403121561179f57600080fd5b81516001600160e01b03198116811461057257600080fd5b6000602082840312156117c957600080fd5b81516105728161152d565b805169ffffffffffffffffffff811681146117ee57600080fd5b919050565b600080600080600060a0868803121561180b57600080fd5b611814866117d4565b9450602086015193506040860151925060608601519150611837608087016117d4565b90509295509295909350565b60006020828403121561185557600080fd5b815160ff8116811461057257600080fd5b60006020828403121561187857600080fd5b5051919050565b600082821015611891576118916115ee565b50039056fea26469706673582212202a9c8fbb87f9642ddb647ce7e3eda6f62bb2f32b452826f322bda3618132bd2a64736f6c634300080d0033",
  "devdoc": {
    "kind": "dev",
    "methods": {
      "assetSupported(address)": {
        "details": "Informs if PriceProvider is setup for asset. It does not means PriceProvider can provide price right away. Some providers implementations need time to \"build\" buffer for TWAP price, so price may not be available yet but this method will return true.",
        "params": {
          "_asset": "asset in question"
        },
        "returns": {
          "_0": "TRUE if asset has been setup, otherwise false"
        }
      },
      "emergencyDisable(address)": {
        "details": "Disables the aggregator for an asset if there is a big discrepancy between the aggregator and the fallback provider. The only way to reenable the asset is by calling setupAsset or setAggregator again. Can only be called by the emergencyManager.",
        "params": {
          "_asset": "Asset for which to disable the aggregator"
        }
      },
      "getPrice(address)": {
        "params": {
          "_asset": "address of an asset for which to read price"
        },
        "returns": {
          "_0": "of asses with 18 decimals, throws when pool is not ready yet to provide price"
        }
      },
      "priceProviderPing()": {
        "details": "this can save us from simple human errors, in case we use invalid address but this should NOT be treated as security check",
        "returns": {
          "_0": "always true"
        }
      },
      "setAggregator(address,address,bool)": {
        "details": "Sets the aggregator for an asset. Can only be called by the manager.",
        "params": {
          "_aggregator": "Aggregator to set",
          "_asset": "Asset for which to set the aggregator"
        }
      },
      "setEmergencyManager(address)": {
        "details": "Sets the emergencyManager. Can only be called by the manager.",
        "params": {
          "_emergencyManager": "Emergency manager to set"
        }
      },
      "setFallbackPriceProvider(address,address)": {
        "details": "Sets the fallback provider for an asset. Can only be called by the manager.",
        "params": {
          "_asset": "Asset for which to set the fallback provider",
          "_fallbackProvider": "Provider to set"
        }
      },
      "setHeartbeat(address,uint256)": {
        "details": "Sets the heartbeat threshold for an asset. Can only be called by the manager.",
        "params": {
          "_asset": "Asset for which to set the heartbeat threshold",
          "_threshold": "Threshold to set"
        }
      },
      "setupAsset(address,address,address,uint256,bool)": {
        "details": "Sets the aggregator, fallbackProvider and heartbeat for an asset. Can only be called by the manager.",
        "params": {
          "_aggregator": "Chainlink aggregator proxy",
          "_asset": "Asset to setup",
          "_fallbackProvider": "Provider to use if the price is invalid or if the aggregator was disabled",
          "_heartbeat": "Threshold in seconds to invalidate a stale price"
        }
      }
    },
    "stateVariables": {
      "EMERGENCY_THRESHOLD": {
        "details": "Disable the aggregator if the difference with the fallback is higher than this percentage (10%)"
      },
      "_MAX_PRICE_DIFF": {
        "details": "Used to optimize calculations in emergency disable function"
      },
      "_QUOTE_AGGREGATOR": {
        "details": "Aggregator that converts from USD to quote token"
      },
      "_QUOTE_AGGREGATOR_DECIMALS": {
        "details": "Decimals used by the _QUOTE_AGGREGATOR"
      },
      "_QUOTE_TOKEN_DECIMALS": {
        "details": "this is basically `PriceProvider.quoteToken.decimals()`"
      },
      "assetData": {
        "details": "Data used for each asset"
      },
      "emergencyManager": {
        "details": "Address allowed to call the emergencyDisable function, can be set by the owner"
      },
      "quoteAggregatorHeartbeat": {
        "details": "Threshold used to determine if the price returned by the _QUOTE_AGGREGATOR is valid"
      }
    },
    "version": 1
  },
  "userdoc": {
    "kind": "user",
    "methods": {
      "getPrice(address)": {
        "notice": "Returns \"Time-Weighted Average Price\" for an asset. Calculates TWAP price for quote/asset. It unifies all tokens decimal to 18, examples: - if asses == quote it returns 1e18 - if asset is USDC and quote is ETH and ETH costs ~$3300 then it returns ~0.0003e18 WETH per 1 USDC"
      },
      "priceProviderPing()": {
        "notice": "Helper method that allows easily detects, if contract is PriceProvider"
      },
      "priceProvidersRepository()": {
        "notice": "PriceProvidersRepository address"
      },
      "quoteToken()": {
        "notice": "Token address which prices are quoted in. Must be the same as PriceProvidersRepository.quoteToken"
      }
    },
    "version": 1
  },
  "storageLayout": {
    "storage": [
      {
        "astId": 24932,
        "contract": "contracts/priceProviders/chainlinkV3/ChainlinkV3PriceProvider.sol:ChainlinkV3PriceProvider",
        "label": "emergencyManager",
        "offset": 0,
        "slot": "0",
        "type": "t_address"
      },
      {
        "astId": 24935,
        "contract": "contracts/priceProviders/chainlinkV3/ChainlinkV3PriceProvider.sol:ChainlinkV3PriceProvider",
        "label": "quoteAggregatorHeartbeat",
        "offset": 0,
        "slot": "1",
        "type": "t_uint256"
      },
      {
        "astId": 24941,
        "contract": "contracts/priceProviders/chainlinkV3/ChainlinkV3PriceProvider.sol:ChainlinkV3PriceProvider",
        "label": "assetData",
        "offset": 0,
        "slot": "2",
        "type": "t_mapping(t_address,t_struct(AssetData)24897_storage)"
      }
    ],
    "types": {
      "t_address": {
        "encoding": "inplace",
        "label": "address",
        "numberOfBytes": "20"
      },
      "t_bool": {
        "encoding": "inplace",
        "label": "bool",
        "numberOfBytes": "1"
      },
      "t_contract(AggregatorV3Interface)45": {
        "encoding": "inplace",
        "label": "contract AggregatorV3Interface",
        "numberOfBytes": "20"
      },
      "t_contract(IPriceProvider)18145": {
        "encoding": "inplace",
        "label": "contract IPriceProvider",
        "numberOfBytes": "20"
      },
      "t_mapping(t_address,t_struct(AssetData)24897_storage)": {
        "encoding": "mapping",
        "key": "t_address",
        "label": "mapping(address => struct ChainlinkV3PriceProvider.AssetData)",
        "numberOfBytes": "32",
        "value": "t_struct(AssetData)24897_storage"
      },
      "t_struct(AssetData)24897_storage": {
        "encoding": "inplace",
        "label": "struct ChainlinkV3PriceProvider.AssetData",
        "members": [
          {
            "astId": 24886,
            "contract": "contracts/priceProviders/chainlinkV3/ChainlinkV3PriceProvider.sol:ChainlinkV3PriceProvider",
            "label": "heartbeat",
            "offset": 0,
            "slot": "0",
            "type": "t_uint256"
          },
          {
            "astId": 24888,
            "contract": "contracts/priceProviders/chainlinkV3/ChainlinkV3PriceProvider.sol:ChainlinkV3PriceProvider",
            "label": "forceFallback",
            "offset": 0,
            "slot": "1",
            "type": "t_bool"
          },
          {
            "astId": 24890,
            "contract": "contracts/priceProviders/chainlinkV3/ChainlinkV3PriceProvider.sol:ChainlinkV3PriceProvider",
            "label": "convertToQuote",
            "offset": 1,
            "slot": "1",
            "type": "t_bool"
          },
          {
            "astId": 24893,
            "contract": "contracts/priceProviders/chainlinkV3/ChainlinkV3PriceProvider.sol:ChainlinkV3PriceProvider",
            "label": "aggregator",
            "offset": 2,
            "slot": "1",
            "type": "t_contract(AggregatorV3Interface)45"
          },
          {
            "astId": 24896,
            "contract": "contracts/priceProviders/chainlinkV3/ChainlinkV3PriceProvider.sol:ChainlinkV3PriceProvider",
            "label": "fallbackProvider",
            "offset": 0,
            "slot": "2",
            "type": "t_contract(IPriceProvider)18145"
          }
        ],
        "numberOfBytes": "96"
      },
      "t_uint256": {
        "encoding": "inplace",
        "label": "uint256",
        "numberOfBytes": "32"
      }
    }
  }
}