{
  "address": "0x76577efdCb4539B7D0aFe6F31d3C76d546E3c79d",
  "abi": [
    {
      "inputs": [],
      "name": "InvalidAsset",
      "type": "error"
    },
    {
      "inputs": [],
      "name": "Unsupported",
      "type": "error"
    },
    {
      "inputs": [
        {
          "internalType": "address",
          "name": "",
          "type": "address"
        },
        {
          "internalType": "uint256",
          "name": "",
          "type": "uint256"
        }
      ],
      "name": "towardsAsset",
      "outputs": [
        {
          "internalType": "address",
          "name": "",
          "type": "address"
        },
        {
          "internalType": "uint256",
          "name": "",
          "type": "uint256"
        }
      ],
      "stateMutability": "nonpayable",
      "type": "function"
    },
    {
      "inputs": [
        {
          "internalType": "address",
          "name": "_asset",
          "type": "address"
        },
        {
          "internalType": "uint256",
          "name": "_amount",
          "type": "uint256"
        }
      ],
      "name": "towardsNative",
      "outputs": [
        {
          "internalType": "address",
          "name": "tokenOut",
          "type": "address"
        },
        {
          "internalType": "uint256",
          "name": "amountOut",
          "type": "uint256"
        }
      ],
      "stateMutability": "nonpayable",
      "type": "function"
    }
  ],
  "transactionHash": "0xba3a30ccc341f9ad386fee7bf2e51a5855b7d936100c0dab7891f9f0949ff9a4",
  "args": [],
  "numDeployments": 1,
  "solcInputHash": "c9303397e20c2b4613b58e6ec221d180",
  "bytecode": "0x608060405234801561001057600080fd5b5061020a806100206000396000f3fe608060405234801561001057600080fd5b50600436106100365760003560e01c806321ebbf011461003b5780636ea477da14610071575b600080fd5b61004e610049366004610184565b610084565b604080516001600160a01b03909316835260208301919091520160405180910390f35b61004e61007f366004610184565b610150565b600080836001600160a01b0316632495a5996040518163ffffffff1660e01b8152600401602060405180830381865afa1580156100c5573d6000803e3d6000fd5b505050506040513d601f19601f820116820180604052508101906100e991906101b0565b604051630e5a77ed60e21b8152600481018590529092508391506001600160a01b03851690633969dfb490602401600060405180830381600087803b15801561013157600080fd5b505af1158015610145573d6000803e3d6000fd5b505050509250929050565b600080604051634851657960e11b815260040160405180910390fd5b6001600160a01b038116811461018157600080fd5b50565b6000806040838503121561019757600080fd5b82356101a28161016c565b946020939093013593505050565b6000602082840312156101c257600080fd5b81516101cd8161016c565b939250505056fea2646970667358221220009f48c59b1496835743cbaad6de9dd2ecda996fa4572f1a6425d28e44d343ee64736f6c634300080d0033",
  "devdoc": {
    "details": "ConvexSiloWrapperMagician Magician for unwrapping `ConvexSiloWrapper` tokens to     Curve LP tokens. IT IS NOT PART OF THE PROTOCOL. SILO CREATED THIS TOOL, MOSTLY AS AN EXAMPLE.",
    "errors": {
      "InvalidAsset()": [
        {
          "details": "revert when the asset is not ConvexSiloWrapper token."
        }
      ],
      "Unsupported()": [
        {
          "details": "revert when towardsAsset is called, because `ConvexSiloWrapper` is collateralOnly.     Liquidations of that collateral will not happen, because it can not be borrowed."
        }
      ]
    },
    "kind": "dev",
    "methods": {
      "towardsAsset(address,uint256)": {
        "params": {
          "_amount": "Amount of the `_asset`",
          "_asset": "Asset to be wrapped"
        },
        "returns": {
          "_0": "A token that the `_asset` has been converted to",
          "_1": "Amount of the quote token that we spent to get `_amoun` of the `_asset`"
        }
      },
      "towardsNative(address,uint256)": {
        "params": {
          "_amount": "Amount of the `_asset`",
          "_asset": "Asset to be unwrapped"
        },
        "returns": {
          "amountOut": "Amount of the `tokenOut` that we received",
          "tokenOut": "A token that the `_asset` has been converted to"
        }
      }
    },
    "version": 1
  },
  "userdoc": {
    "kind": "user",
    "methods": {
      "towardsAsset(address,uint256)": {
        "notice": "Performs operation opposit to `towardsNative`"
      },
      "towardsNative(address,uint256)": {
        "notice": "Operates to unwrap an `_asset`"
      }
    },
    "version": 1
  },
  "storageLayout": {
    "storage": [],
    "types": null
  }
}