{
  "address": "0xF4999AB1a5a2a2206a71d53Fa31d8Fc9ABF2709D",
  "abi": [
    {
      "inputs": [
        {
          "internalType": "contract IPriceProvidersRepository",
          "name": "_repository",
          "type": "address"
        },
        {
          "internalType": "contract ICurveAddressProviderLike",
          "name": "_addressProvider",
          "type": "address"
        },
        {
          "components": [
            {
              "internalType": "address",
              "name": "addr",
              "type": "address"
            },
            {
              "internalType": "bool",
              "name": "isMeta",
              "type": "bool"
            }
          ],
          "internalType": "struct Pool[]",
          "name": "_pools",
          "type": "tuple[]"
        }
      ],
      "stateMutability": "nonpayable",
      "type": "constructor"
    },
    {
      "inputs": [
        {
          "internalType": "address",
          "name": "pool",
          "type": "address"
        }
      ],
      "name": "AlreadyRegistered",
      "type": "error"
    },
    {
      "inputs": [],
      "name": "CantResolvePoolInRegistry",
      "type": "error"
    },
    {
      "inputs": [],
      "name": "EmptyAddressProvider",
      "type": "error"
    },
    {
      "inputs": [],
      "name": "EmptyPoolAddress",
      "type": "error"
    },
    {
      "inputs": [],
      "name": "InvalidPriceProviderRepository",
      "type": "error"
    },
    {
      "inputs": [],
      "name": "OnlyManager",
      "type": "error"
    },
    {
      "inputs": [
        {
          "internalType": "address",
          "name": "pool",
          "type": "address"
        }
      ],
      "name": "PoolIsNotRegistered",
      "type": "error"
    },
    {
      "inputs": [],
      "name": "RegistryIsTheSame",
      "type": "error"
    },
    {
      "inputs": [
        {
          "internalType": "enum RegistryId",
          "name": "id",
          "type": "uint8"
        }
      ],
      "name": "RegistryNotFoundById",
      "type": "error"
    },
    {
      "anonymous": false,
      "inputs": [
        {
          "indexed": false,
          "internalType": "contract ICurveAddressProviderLike",
          "name": "curveAddressProvider",
          "type": "address"
        },
        {
          "indexed": false,
          "internalType": "enum RegistryId",
          "name": "registryId",
          "type": "uint8"
        }
      ],
      "name": "DataFetcherCreated",
      "type": "event"
    },
    {
      "anonymous": false,
      "inputs": [
        {
          "indexed": true,
          "internalType": "address",
          "name": "_pool",
          "type": "address"
        }
      ],
      "name": "PoolAdded",
      "type": "event"
    },
    {
      "anonymous": false,
      "inputs": [
        {
          "indexed": true,
          "internalType": "address",
          "name": "_pool",
          "type": "address"
        }
      ],
      "name": "PoolRemoved",
      "type": "event"
    },
    {
      "anonymous": false,
      "inputs": [
        {
          "indexed": true,
          "internalType": "address",
          "name": "registry",
          "type": "address"
        }
      ],
      "name": "RegistryUpdated",
      "type": "event"
    },
    {
      "inputs": [],
      "name": "ADDRESS_PROVIDER",
      "outputs": [
        {
          "internalType": "contract ICurveAddressProviderLike",
          "name": "",
          "type": "address"
        }
      ],
      "stateMutability": "view",
      "type": "function"
    },
    {
      "inputs": [],
      "name": "REGISTRY_ID",
      "outputs": [
        {
          "internalType": "enum RegistryId",
          "name": "",
          "type": "uint8"
        }
      ],
      "stateMutability": "view",
      "type": "function"
    },
    {
      "inputs": [
        {
          "components": [
            {
              "internalType": "address",
              "name": "addr",
              "type": "address"
            },
            {
              "internalType": "bool",
              "name": "isMeta",
              "type": "bool"
            }
          ],
          "internalType": "struct Pool[]",
          "name": "_pools",
          "type": "tuple[]"
        }
      ],
      "name": "addPools",
      "outputs": [],
      "stateMutability": "nonpayable",
      "type": "function"
    },
    {
      "inputs": [],
      "name": "curveLPTokensDetailsFetcherPing",
      "outputs": [
        {
          "internalType": "bytes4",
          "name": "",
          "type": "bytes4"
        }
      ],
      "stateMutability": "pure",
      "type": "function"
    },
    {
      "inputs": [
        {
          "internalType": "address",
          "name": "_lpToken",
          "type": "address"
        },
        {
          "internalType": "bytes",
          "name": "",
          "type": "bytes"
        }
      ],
      "name": "getLPTokenDetails",
      "outputs": [
        {
          "components": [
            {
              "components": [
                {
                  "internalType": "address",
                  "name": "addr",
                  "type": "address"
                },
                {
                  "internalType": "bool",
                  "name": "isMeta",
                  "type": "bool"
                }
              ],
              "internalType": "struct Pool",
              "name": "pool",
              "type": "tuple"
            },
            {
              "internalType": "address[]",
              "name": "coins",
              "type": "address[]"
            }
          ],
          "internalType": "struct LPTokenDetails",
          "name": "details",
          "type": "tuple"
        },
        {
          "internalType": "bytes",
          "name": "data",
          "type": "bytes"
        }
      ],
      "stateMutability": "view",
      "type": "function"
    },
    {
      "inputs": [
        {
          "internalType": "address",
          "name": "",
          "type": "address"
        }
      ],
      "name": "registeredPools",
      "outputs": [
        {
          "internalType": "bool",
          "name": "isRegistered",
          "type": "bool"
        },
        {
          "internalType": "bool",
          "name": "isMeta",
          "type": "bool"
        }
      ],
      "stateMutability": "view",
      "type": "function"
    },
    {
      "inputs": [],
      "name": "registry",
      "outputs": [
        {
          "internalType": "address",
          "name": "",
          "type": "address"
        }
      ],
      "stateMutability": "view",
      "type": "function"
    },
    {
      "inputs": [
        {
          "internalType": "address[]",
          "name": "_pools",
          "type": "address[]"
        }
      ],
      "name": "removePools",
      "outputs": [],
      "stateMutability": "nonpayable",
      "type": "function"
    },
    {
      "inputs": [],
      "name": "updateRegistry",
      "outputs": [],
      "stateMutability": "nonpayable",
      "type": "function"
    }
  ],
  "transactionHash": "0x5872e10508d0e374fbb9c14bba5020fe79d4083b4be634c5436e9efdbfbe6d33",
  "args": [
    "0x7C2ca9D502f2409BeceAfa68E97a176Ff805029F",
    "0x0000000022D53366457F9d5E68Ec105046FC4383",
    [
      {
        "addr": "0xD51a44d3FaE010294C616388b506AcdA1bfAAE46",
        "isMeta": false,
        "registryId": 5
      },
      {
        "addr": "0x9838eCcC42659FA8AA7daF2aD134b53984c9427b",
        "isMeta": true,
        "registryId": 5
      },
      {
        "addr": "0x98a7F18d4E56Cfe84E3D081B40001B3d5bD3eB8B",
        "isMeta": false,
        "registryId": 5
      },
      {
        "addr": "0x8301AE4fc9c624d1D396cbDAa1ed877821D7C511",
        "isMeta": false,
        "registryId": 5
      },
      {
        "addr": "0xB576491F1E6e5E62f1d8F26062Ee822B40B0E0d4",
        "isMeta": false,
        "registryId": 5
      },
      {
        "addr": "0xAdCFcf9894335dC340f6Cd182aFA45999F45Fc44",
        "isMeta": true,
        "registryId": 5
      },
      {
        "addr": "0x98638FAcf9a3865cd033F36548713183f6996122",
        "isMeta": false,
        "registryId": 5
      },
      {
        "addr": "0x752eBeb79963cf0732E9c0fec72a49FD1DEfAEAC",
        "isMeta": false,
        "registryId": 5
      },
      {
        "addr": "0xE84f5b1582BA325fDf9cE6B0c1F087ccfC924e54",
        "isMeta": true,
        "registryId": 5
      }
    ]
  ],
  "numDeployments": 1,
  "solcInputHash": "c9303397e20c2b4613b58e6ec221d180",
  "bytecode": "0x60e06040523480156200001157600080fd5b50604051620017ce380380620017ce833981016040819052620000349162000582565b80826005856200005d816001600160a01b031663eec3e6a76200014660201b620007951760201c565b6200007b5760405163352cccdf60e01b815260040160405180910390fd5b6001600160a01b039081166080528216620000a95760405163a9b0233160e01b815260040160405180910390fd5b806006811115620000be57620000be620006a5565b60a0816006811115620000d557620000d5620006a5565b9052506001600160a01b03821660c052620000ef620001d2565b7f52de47fa822e34a3c6f13eb7aa0c053b483adc5dda099e1145c373d34224973560c05160a05160405162000126929190620006de565b60405180910390a1506200013c9050816200030f565b5050505062000776565b60006001600160a01b03831615801590620001c9575082826040518163ffffffff1660e01b8152600401602060405180830381865afa1580156200018e573d6000803e3d6000fd5b505050506040513d601f19601f82011682018060405250810190620001b4919062000704565b60e083901b6001600160e01b03199081169116145b90505b92915050565b600060c0516001600160a01b031663493f4f7460a0516006811115620001fc57620001fc620006a5565b6040518263ffffffff1660e01b81526004016200021b91815260200190565b602060405180830381865afa15801562000239573d6000803e3d6000fd5b505050506040513d601f19601f820116820180604052508101906200025f919062000730565b90506001600160a01b038116620002985760a0516040516353616e6160e11b81526004016200028f919062000750565b60405180910390fd5b6000546001600160a01b03808316911603620002c75760405163c4c1c75960e01b815260040160405180910390fd5b600080546001600160a01b0319166001600160a01b038316908117825560405190917fd6ceddf6d2a22f21c7c81675c518004eff43bc5c8a6fc32a0b748e69d58671cd91a250565b600080546001600160a01b03165b8251821015620004f05760008383815181106200033e576200033e62000760565b602090810291909101015180519091506001600160a01b0316620003755760405163de4db0af60e01b815260040160405180910390fd5b80516001600160a01b031660009081526001602052604090205460ff1615620003c05780516040516345ed80e960e01b81526001600160a01b0390911660048201526024016200028f565b8051604051633795104960e01b81526001600160a01b039182166004820152600091841690633795104990602401602060405180830381865afa1580156200040c573d6000803e3d6000fd5b505050506040513d601f19601f8201168201806040525081019062000432919062000730565b90506001600160a01b0381166200045c5760405163096bdb7160e41b815260040160405180910390fd5b6040805180820182526001808252602085810151151581840190815286516001600160a01b0390811660009081529390925284832093518454915161ffff1990921690151561ff0019161761010091151591909102179092558451925192909116917f73cca62ab1b520c9715bf4e6c71e3e518c754e7148f65102f43289a7df0efea69190a250506001909101906200031d565b505050565b6001600160a01b03811681146200050b57600080fd5b50565b634e487b7160e01b600052604160045260246000fd5b604080519081016001600160401b03811182821017156200054957620005496200050e565b60405290565b604051601f8201601f191681016001600160401b03811182821017156200057a576200057a6200050e565b604052919050565b6000806000606084860312156200059857600080fd5b8351620005a581620004f5565b80935050602080850151620005ba81620004f5565b604086810151919450906001600160401b0380821115620005da57600080fd5b818801915088601f830112620005ef57600080fd5b8151818111156200060457620006046200050e565b62000614858260051b016200054f565b818152858101925060069190911b83018501908a8211156200063557600080fd5b928501925b81841015620006955784848c031215620006545760008081fd5b6200065e62000524565b84516200066b81620004f5565b8152848701518015158114620006815760008081fd5b81880152835292840192918501916200063a565b8096505050505050509250925092565b634e487b7160e01b600052602160045260246000fd5b60078110620006da57634e487b7160e01b600052602160045260246000fd5b9052565b6001600160a01b038316815260408101620006fd6020830184620006bb565b9392505050565b6000602082840312156200071757600080fd5b81516001600160e01b031981168114620006fd57600080fd5b6000602082840312156200074357600080fd5b8151620006fd81620004f5565b60208101620001cc8284620006bb565b634e487b7160e01b600052603260045260246000fd5b60805160a05160c051611006620007c86000396000818160b7015261081f0152600081816101770152818161084e01526108ef01526000818161044a01528181610507015261068f01526110066000f3fe608060405234801561001057600080fd5b50600436106100935760003560e01c806349d10b641161006657806349d10b64146101555780634b1641401461015f5780636ad3f74c146101725780637b103999146101a657806388990903146101b957600080fd5b806314f2627e146100985780631848effa146100b25780633afc259d146100f15780634578d29014610112575b600080fd5b604051630a79313f60e11b81526020015b60405180910390f35b6100d97f000000000000000000000000000000000000000000000000000000000000000081565b6040516001600160a01b0390911681526020016100a9565b6101046100ff366004610bd2565b6101cc565b6040516100a9929190610cc7565b61013e610120366004610d54565b60016020526000908152604090205460ff8082169161010090041682565b6040805192151583529015156020830152016100a9565b61015d61043e565b005b61015d61016d366004610d71565b6104fb565b6101997f000000000000000000000000000000000000000000000000000000000000000081565b6040516100a99190610dfc565b6000546100d9906001600160a01b031681565b61015d6101c7366004610e24565b610683565b6040805160808101825260009181018281526060808301939093528152602081019190915260005460405163bdf475c360e01b81526001600160a01b0385811660048301526060921690819063bdf475c390602401602060405180830381865afa15801561023e573d6000803e3d6000fd5b505050506040513d601f19601f820116820180604052508101906102629190610e87565b83516001600160a01b0391821690528351511661027f5750610437565b8251516001600160a01b031660009081526001602090815260409182902082518084019093525460ff8082161515808552610100909204161515918301919091526102d1575050815160009052610437565b6020818101518551901515910152835151604051639ac90d3d60e01b81526001600160a01b039182166004820152600091829190851690639ac90d3d9060240161010060405180830381865afa15801561032f573d6000803e3d6000fd5b505050506040513d601f19601f820116820180604052508101906103539190610ea4565b90505b600882101561039157600081836008811061037357610373610f2c565b60200201516001600160a01b03161461039157600190910190610356565b8167ffffffffffffffff8111156103aa576103aa610b8b565b6040519080825280602002602001820160405280156103d3578160200160208202803683370190505b50602087015260005b82811015610431578181600881106103f6576103f6610f2c565b60200201518760200151828151811061041157610411610f2c565b6001600160a01b03909216602092830291909101909101526001016103dc565b50505050505b9250929050565b336001600160a01b03167f00000000000000000000000000000000000000000000000000000000000000006001600160a01b031663481c6a756040518163ffffffff1660e01b8152600401602060405180830381865afa1580156104a6573d6000803e3d6000fd5b505050506040513d601f19601f820116820180604052508101906104ca9190610e87565b6001600160a01b0316146104f15760405163605919ad60e11b815260040160405180910390fd5b6104f961081b565b565b336001600160a01b03167f00000000000000000000000000000000000000000000000000000000000000006001600160a01b031663481c6a756040518163ffffffff1660e01b8152600401602060405180830381865afa158015610563573d6000803e3d6000fd5b505050506040513d601f19601f820116820180604052508101906105879190610e87565b6001600160a01b0316146105ae5760405163605919ad60e11b815260040160405180910390fd5b60005b8181101561067e5760008383838181106105cd576105cd610f2c565b90506020020160208101906105e29190610d54565b6001600160a01b03811660009081526001602052604090205490915060ff1661062e57604051633415a99d60e01b81526001600160a01b03821660048201526024015b60405180910390fd5b6001600160a01b038116600081815260016020526040808220805461ffff19169055517f4106dfdaa577573db51c0ca93f766dbedfa0758faa2e7f5bcdb7c142be803c3f9190a2506001016105b1565b505050565b336001600160a01b03167f00000000000000000000000000000000000000000000000000000000000000006001600160a01b031663481c6a756040518163ffffffff1660e01b8152600401602060405180830381865afa1580156106eb573d6000803e3d6000fd5b505050506040513d601f19601f8201168201806040525081019061070f9190610e87565b6001600160a01b0316146107365760405163605919ad60e11b815260040160405180910390fd5b6107918282808060200260200160405190810160405280939291908181526020016000905b828210156107875761077860408302860136819003810190610f42565b8152602001906001019061075b565b505050505061099e565b5050565b60006001600160a01b03831615801590610814575082826040518163ffffffff1660e01b8152600401602060405180830381865afa1580156107db573d6000803e3d6000fd5b505050506040513d601f19601f820116820180604052508101906107ff9190610fa6565b60e083901b6001600160e01b03199081169116145b9392505050565b60007f00000000000000000000000000000000000000000000000000000000000000006001600160a01b031663493f4f747f0000000000000000000000000000000000000000000000000000000000000000600681111561087e5761087e610de6565b6040518263ffffffff1660e01b815260040161089c91815260200190565b602060405180830381865afa1580156108b9573d6000803e3d6000fd5b505050506040513d601f19601f820116820180604052508101906108dd9190610e87565b90506001600160a01b038116610928577f00000000000000000000000000000000000000000000000000000000000000006040516353616e6160e11b81526004016106259190610dfc565b6000546001600160a01b038083169116036109565760405163c4c1c75960e01b815260040160405180910390fd5b600080546001600160a01b0319166001600160a01b038316908117825560405190917fd6ceddf6d2a22f21c7c81675c518004eff43bc5c8a6fc32a0b748e69d58671cd91a250565b600080546001600160a01b03165b825182101561067e5760008383815181106109c9576109c9610f2c565b602090810291909101015180519091506001600160a01b03166109ff5760405163de4db0af60e01b815260040160405180910390fd5b80516001600160a01b031660009081526001602052604090205460ff1615610a485780516040516345ed80e960e01b81526001600160a01b039091166004820152602401610625565b8051604051633795104960e01b81526001600160a01b039182166004820152600091841690633795104990602401602060405180830381865afa158015610a93573d6000803e3d6000fd5b505050506040513d601f19601f82011682018060405250810190610ab79190610e87565b90506001600160a01b038116610ae05760405163096bdb7160e41b815260040160405180910390fd5b6040805180820182526001808252602085810151151581840190815286516001600160a01b0390811660009081529390925284832093518454915161ffff1990921690151561ff0019161761010091151591909102179092558451925192909116917f73cca62ab1b520c9715bf4e6c71e3e518c754e7148f65102f43289a7df0efea69190a250506001909101906109ac565b6001600160a01b0381168114610b8857600080fd5b50565b634e487b7160e01b600052604160045260246000fd5b604051601f8201601f1916810167ffffffffffffffff81118282101715610bca57610bca610b8b565b604052919050565b60008060408385031215610be557600080fd5b8235610bf081610b73565b915060208381013567ffffffffffffffff80821115610c0e57600080fd5b818601915086601f830112610c2257600080fd5b813581811115610c3457610c34610b8b565b610c46601f8201601f19168501610ba1565b91508082528784828501011115610c5c57600080fd5b80848401858401376000848284010152508093505050509250929050565b6000815180845260005b81811015610ca057602081850181015186830182015201610c84565b81811115610cb2576000602083870101525b50601f01601f19169290920160200192915050565b60408152600060a08201845160018060a01b03808251166040860152602080830151151560608701528088015192506060608087015283835180865260c0880191508285019550600094505b80851015610d3557855184168252948201946001949094019390820190610d13565b5086810382880152610d478189610c7a565b9998505050505050505050565b600060208284031215610d6657600080fd5b813561081481610b73565b60008060208385031215610d8457600080fd5b823567ffffffffffffffff80821115610d9c57600080fd5b818501915085601f830112610db057600080fd5b813581811115610dbf57600080fd5b8660208260051b8501011115610dd457600080fd5b60209290920196919550909350505050565b634e487b7160e01b600052602160045260246000fd5b6020810160078310610e1e57634e487b7160e01b600052602160045260246000fd5b91905290565b60008060208385031215610e3757600080fd5b823567ffffffffffffffff80821115610e4f57600080fd5b818501915085601f830112610e6357600080fd5b813581811115610e7257600080fd5b8660208260061b8501011115610dd457600080fd5b600060208284031215610e9957600080fd5b815161081481610b73565b6000610100808385031215610eb857600080fd5b83601f840112610ec757600080fd5b60405181810181811067ffffffffffffffff82111715610ee957610ee9610b8b565b604052908301908085831115610efe57600080fd5b845b83811015610f21578051610f1381610b73565b825260209182019101610f00565b509095945050505050565b634e487b7160e01b600052603260045260246000fd5b600060408284031215610f5457600080fd5b6040516040810181811067ffffffffffffffff82111715610f7757610f77610b8b565b6040528235610f8581610b73565b815260208301358015158114610f9a57600080fd5b60208201529392505050565b600060208284031215610fb857600080fd5b81516001600160e01b03198116811461081457600080fdfea26469706673582212204ce4f06ee439b8c756a580baadc2e2d51cdf8166a892ab3e3658b5da5c4cc10f64736f6c634300080d0033",
  "devdoc": {
    "details": "Registry id `5` in the Curve address provider",
    "errors": {
      "EmptyAddressProvider()": [
        {
          "details": "Revert if address provider address is empty"
        }
      ],
      "InvalidPriceProviderRepository()": [
        {
          "details": "Revert on a false sanity check with `Ping` library"
        }
      ],
      "OnlyManager()": [
        {
          "details": "Revert if `msg.sender` is not Price Providers Repository manager"
        }
      ],
      "RegistryIsTheSame()": [
        {
          "details": "Revert if Curve registry is not changed"
        }
      ],
      "RegistryNotFoundById(uint8)": [
        {
          "details": "Revert if in the Curve address provider the registry is not found by the provided registry id"
        }
      ]
    },
    "kind": "dev",
    "methods": {
      "addPools((address,bool)[])": {
        "params": {
          "_pools": "A list of pools to be added"
        }
      },
      "constructor": {
        "details": "Constructor is required for indirect CurveRegistriesBaseFetcher and PriceProvidersRepositoryManager initialization. Arguments for CurveRegistriesBaseFetcher initialization are given in the modifier-style in the derived constructor. CurveCryptoSwapRegistryFetcher constructor body should be empty as we need to do nothing.",
        "params": {
          "_addressProvider": "Curve address provider address",
          "_pools": "A list of pools with details for a fetcher initialization",
          "_repository": "Price providers repository address"
        }
      },
      "curveLPTokensDetailsFetcherPing()": {
        "returns": {
          "_0": "always curveLPTokensDetailsFetcherPing.selector"
        }
      },
      "getLPTokenDetails(address,bytes)": {
        "details": "This method should not revert. If the data is not found or provided an invalid LP token address, it should return an empty data structure.",
        "params": {
          "_data": "Any additional data that can be required",
          "_lpToken": "Curve LP token address"
        },
        "returns": {
          "data": "Any additional data to return",
          "details": "LP token details. See CurveLPTokensDataTypes.LPTokenDetails"
        }
      },
      "removePools(address[])": {
        "params": {
          "_pools": "A list of pools to be removed"
        }
      }
    },
    "stateVariables": {
      "_MAX_NUMBER_OF_COINS": {
        "details": "Number of coins by the Curve CryptoSwap Registry interface"
      }
    },
    "title": "Curve LP Tokens details fetcher for CryptoSwap Registry",
    "version": 1
  },
  "userdoc": {
    "errors": {
      "AlreadyRegistered(address)": [
        {
          "notice": "Reverts if a pool is already registered in the fetcher"
        }
      ],
      "CantResolvePoolInRegistry()": [
        {
          "notice": "Reverts if a pool is not found in the registry"
        }
      ],
      "EmptyPoolAddress()": [
        {
          "notice": "Reverts if a pool address is empty"
        }
      ],
      "PoolIsNotRegistered(address)": [
        {
          "notice": "Reverts if a pool is not registered"
        }
      ]
    },
    "events": {
      "RegistryUpdated(address)": {
        "notice": "Emitted when Curve LP registry address has been updated"
      }
    },
    "kind": "user",
    "methods": {
      "addPools((address,bool)[])": {
        "notice": "Add pools to the handler"
      },
      "curveLPTokensDetailsFetcherPing()": {
        "notice": "Helper method that allows easily detects, if contract is Curve Registry Fatcher"
      },
      "getLPTokenDetails(address,bytes)": {
        "notice": "Curve LP Token details getter"
      },
      "registeredPools(address)": {
        "notice": "pool address => registered pool details"
      },
      "removePools(address[])": {
        "notice": "Remove pools to the handler"
      },
      "updateRegistry()": {
        "notice": "Pulls a registry address from the Curve address provider"
      }
    },
    "version": 1
  },
  "storageLayout": {
    "storage": [
      {
        "astId": 41192,
        "contract": "contracts/priceProviders/curveLPTokens/LPTokensDetailsFetchers/CurveCryptoSwapRegistryFetcher.sol:CurveCryptoSwapRegistryFetcher",
        "label": "registry",
        "offset": 0,
        "slot": "0",
        "type": "t_address"
      },
      {
        "astId": 41338,
        "contract": "contracts/priceProviders/curveLPTokens/LPTokensDetailsFetchers/CurveCryptoSwapRegistryFetcher.sol:CurveCryptoSwapRegistryFetcher",
        "label": "registeredPools",
        "offset": 0,
        "slot": "1",
        "type": "t_mapping(t_address,t_struct(RegisteredPool)41332_storage)"
      }
    ],
    "types": {
      "t_address": {
        "encoding": "inplace",
        "label": "address",
        "numberOfBytes": "20"
      },
      "t_bool": {
        "encoding": "inplace",
        "label": "bool",
        "numberOfBytes": "1"
      },
      "t_mapping(t_address,t_struct(RegisteredPool)41332_storage)": {
        "encoding": "mapping",
        "key": "t_address",
        "label": "mapping(address => struct CurveRegistriesPoolsManagement.RegisteredPool)",
        "numberOfBytes": "32",
        "value": "t_struct(RegisteredPool)41332_storage"
      },
      "t_struct(RegisteredPool)41332_storage": {
        "encoding": "inplace",
        "label": "struct CurveRegistriesPoolsManagement.RegisteredPool",
        "members": [
          {
            "astId": 41329,
            "contract": "contracts/priceProviders/curveLPTokens/LPTokensDetailsFetchers/CurveCryptoSwapRegistryFetcher.sol:CurveCryptoSwapRegistryFetcher",
            "label": "isRegistered",
            "offset": 0,
            "slot": "0",
            "type": "t_bool"
          },
          {
            "astId": 41331,
            "contract": "contracts/priceProviders/curveLPTokens/LPTokensDetailsFetchers/CurveCryptoSwapRegistryFetcher.sol:CurveCryptoSwapRegistryFetcher",
            "label": "isMeta",
            "offset": 1,
            "slot": "0",
            "type": "t_bool"
          }
        ],
        "numberOfBytes": "32"
      }
    }
  }
}