{
  "address": "0x0c1cc599D77A1c485775e59591C225D11da1eB5A",
  "abi": [
    {
      "inputs": [
        {
          "internalType": "contract IPriceProvidersRepository",
          "name": "_repository",
          "type": "address"
        },
        {
          "internalType": "contract ICurveAddressProviderLike",
          "name": "_addressProvider",
          "type": "address"
        }
      ],
      "stateMutability": "nonpayable",
      "type": "constructor"
    },
    {
      "inputs": [],
      "name": "EmptyAddressProvider",
      "type": "error"
    },
    {
      "inputs": [],
      "name": "InvalidPriceProviderRepository",
      "type": "error"
    },
    {
      "inputs": [],
      "name": "OnlyManager",
      "type": "error"
    },
    {
      "inputs": [],
      "name": "RegistryIsTheSame",
      "type": "error"
    },
    {
      "inputs": [
        {
          "internalType": "enum RegistryId",
          "name": "id",
          "type": "uint8"
        }
      ],
      "name": "RegistryNotFoundById",
      "type": "error"
    },
    {
      "anonymous": false,
      "inputs": [
        {
          "indexed": false,
          "internalType": "contract ICurveAddressProviderLike",
          "name": "curveAddressProvider",
          "type": "address"
        },
        {
          "indexed": false,
          "internalType": "enum RegistryId",
          "name": "registryId",
          "type": "uint8"
        }
      ],
      "name": "DataFetcherCreated",
      "type": "event"
    },
    {
      "anonymous": false,
      "inputs": [
        {
          "indexed": true,
          "internalType": "address",
          "name": "registry",
          "type": "address"
        }
      ],
      "name": "RegistryUpdated",
      "type": "event"
    },
    {
      "inputs": [],
      "name": "ADDRESS_PROVIDER",
      "outputs": [
        {
          "internalType": "contract ICurveAddressProviderLike",
          "name": "",
          "type": "address"
        }
      ],
      "stateMutability": "view",
      "type": "function"
    },
    {
      "inputs": [],
      "name": "REGISTRY_ID",
      "outputs": [
        {
          "internalType": "enum RegistryId",
          "name": "",
          "type": "uint8"
        }
      ],
      "stateMutability": "view",
      "type": "function"
    },
    {
      "inputs": [],
      "name": "curveLPTokensDetailsFetcherPing",
      "outputs": [
        {
          "internalType": "bytes4",
          "name": "",
          "type": "bytes4"
        }
      ],
      "stateMutability": "pure",
      "type": "function"
    },
    {
      "inputs": [
        {
          "internalType": "address",
          "name": "_lpToken",
          "type": "address"
        },
        {
          "internalType": "bytes",
          "name": "",
          "type": "bytes"
        }
      ],
      "name": "getLPTokenDetails",
      "outputs": [
        {
          "components": [
            {
              "components": [
                {
                  "internalType": "address",
                  "name": "addr",
                  "type": "address"
                },
                {
                  "internalType": "bool",
                  "name": "isMeta",
                  "type": "bool"
                }
              ],
              "internalType": "struct Pool",
              "name": "pool",
              "type": "tuple"
            },
            {
              "internalType": "address[]",
              "name": "coins",
              "type": "address[]"
            }
          ],
          "internalType": "struct LPTokenDetails",
          "name": "details",
          "type": "tuple"
        },
        {
          "internalType": "bytes",
          "name": "data",
          "type": "bytes"
        }
      ],
      "stateMutability": "view",
      "type": "function"
    },
    {
      "inputs": [],
      "name": "registry",
      "outputs": [
        {
          "internalType": "address",
          "name": "",
          "type": "address"
        }
      ],
      "stateMutability": "view",
      "type": "function"
    },
    {
      "inputs": [],
      "name": "updateRegistry",
      "outputs": [],
      "stateMutability": "nonpayable",
      "type": "function"
    }
  ],
  "transactionHash": "0x6470aca1f99c2213640a2527ffa68644b15b79fa222ea8a7c25ad753b11f6a07",
  "args": [
    "0x7C2ca9D502f2409BeceAfa68E97a176Ff805029F",
    "0x0000000022D53366457F9d5E68Ec105046FC4383"
  ],
  "numDeployments": 1,
  "solcInputHash": "c9303397e20c2b4613b58e6ec221d180",
  "bytecode": "0x60e06040523480156200001157600080fd5b5060405162000e3d38038062000e3d833981016040819052620000349162000319565b806000836200005c816001600160a01b031663eec3e6a76200013760201b620004791760201c565b6200007a5760405163352cccdf60e01b815260040160405180910390fd5b6001600160a01b039081166080528216620000a85760405163a9b0233160e01b815260040160405180910390fd5b806006811115620000bd57620000bd62000358565b60a0816006811115620000d457620000d462000358565b9052506001600160a01b03821660c052620000ee620001c3565b7f52de47fa822e34a3c6f13eb7aa0c053b483adc5dda099e1145c373d34224973560c05160a0516040516200012592919062000391565b60405180910390a15050505062000413565b60006001600160a01b03831615801590620001ba575082826040518163ffffffff1660e01b8152600401602060405180830381865afa1580156200017f573d6000803e3d6000fd5b505050506040513d601f19601f82011682018060405250810190620001a59190620003b7565b60e083901b6001600160e01b03199081169116145b90505b92915050565b600060c0516001600160a01b031663493f4f7460a0516006811115620001ed57620001ed62000358565b6040518263ffffffff1660e01b81526004016200020c91815260200190565b602060405180830381865afa1580156200022a573d6000803e3d6000fd5b505050506040513d601f19601f82011682018060405250810190620002509190620003e3565b90506001600160a01b038116620002895760a0516040516353616e6160e11b815260040162000280919062000403565b60405180910390fd5b6000546001600160a01b03808316911603620002b85760405163c4c1c75960e01b815260040160405180910390fd5b600080546001600160a01b0319166001600160a01b038316908117825560405190917fd6ceddf6d2a22f21c7c81675c518004eff43bc5c8a6fc32a0b748e69d58671cd91a250565b6001600160a01b03811681146200031657600080fd5b50565b600080604083850312156200032d57600080fd5b82516200033a8162000300565b60208401519092506200034d8162000300565b809150509250929050565b634e487b7160e01b600052602160045260246000fd5b600781106200038d57634e487b7160e01b600052602160045260246000fd5b9052565b6001600160a01b038316815260408101620003b060208301846200036e565b9392505050565b600060208284031215620003ca57600080fd5b81516001600160e01b031981168114620003b057600080fd5b600060208284031215620003f657600080fd5b8151620003b08162000300565b60208101620001bd82846200036e565b60805160a05160c0516109e762000456600039600081816086015261050301526000818160f00152818161053201526105d3015260006103c801526109e76000f3fe608060405234801561001057600080fd5b50600436106100625760003560e01c806314f2627e146100675780631848effa146100815780633afc259d146100c057806349d10b64146100e15780636ad3f74c146100eb5780637b1039991461011f575b600080fd5b604051630a79313f60e11b81526020015b60405180910390f35b6100a87f000000000000000000000000000000000000000000000000000000000000000081565b6040516001600160a01b039091168152602001610078565b6100d36100ce3660046106ea565b610132565b6040516100789291906107df565b6100e96103bc565b005b6101127f000000000000000000000000000000000000000000000000000000000000000081565b6040516100789190610882565b6000546100a8906001600160a01b031681565b6040805160808101825260009181018281526060808301939093528152602081019190915260005460405163bdf475c360e01b81526001600160a01b0385811660048301526060921690819063bdf475c390602401602060405180830381865afa1580156101a4573d6000803e3d6000fd5b505050506040513d601f19601f820116820180604052508101906101c891906108aa565b83516001600160a01b039182169052835151166101e557506103b5565b82515160405163e4d332a960e01b81526001600160a01b0391821660048201529082169063e4d332a990602401602060405180830381865afa15801561022f573d6000803e3d6000fd5b505050506040513d601f19601f8201168201806040525081019061025391906108c7565b8351901515602090910152825151604051639ac90d3d60e01b81526001600160a01b039182166004820152600091829190841690639ac90d3d9060240161010060405180830381865afa1580156102ae573d6000803e3d6000fd5b505050506040513d601f19601f820116820180604052508101906102d291906108e9565b90505b60088210156103105760008183600881106102f2576102f2610971565b60200201516001600160a01b031614610310576001909101906102d5565b8167ffffffffffffffff811115610329576103296106a3565b604051908082528060200260200182016040528015610352578160200160208202803683370190505b50602086015260005b828110156103b05781816008811061037557610375610971565b60200201518660200151828151811061039057610390610971565b6001600160a01b039092166020928302919091019091015260010161035b565b505050505b9250929050565b336001600160a01b03167f00000000000000000000000000000000000000000000000000000000000000006001600160a01b031663481c6a756040518163ffffffff1660e01b8152600401602060405180830381865afa158015610424573d6000803e3d6000fd5b505050506040513d601f19601f8201168201806040525081019061044891906108aa565b6001600160a01b03161461046f5760405163605919ad60e11b815260040160405180910390fd5b6104776104ff565b565b60006001600160a01b038316158015906104f8575082826040518163ffffffff1660e01b8152600401602060405180830381865afa1580156104bf573d6000803e3d6000fd5b505050506040513d601f19601f820116820180604052508101906104e39190610987565b60e083901b6001600160e01b03199081169116145b9392505050565b60007f00000000000000000000000000000000000000000000000000000000000000006001600160a01b031663493f4f747f000000000000000000000000000000000000000000000000000000000000000060068111156105625761056261086c565b6040518263ffffffff1660e01b815260040161058091815260200190565b602060405180830381865afa15801561059d573d6000803e3d6000fd5b505050506040513d601f19601f820116820180604052508101906105c191906108aa565b90506001600160a01b038116610615577f00000000000000000000000000000000000000000000000000000000000000006040516353616e6160e11b815260040161060c9190610882565b60405180910390fd5b6000546001600160a01b038083169116036106435760405163c4c1c75960e01b815260040160405180910390fd5b600080546001600160a01b0319166001600160a01b038316908117825560405190917fd6ceddf6d2a22f21c7c81675c518004eff43bc5c8a6fc32a0b748e69d58671cd91a250565b6001600160a01b03811681146106a057600080fd5b50565b634e487b7160e01b600052604160045260246000fd5b604051601f8201601f1916810167ffffffffffffffff811182821017156106e2576106e26106a3565b604052919050565b600080604083850312156106fd57600080fd5b82356107088161068b565b915060208381013567ffffffffffffffff8082111561072657600080fd5b818601915086601f83011261073a57600080fd5b81358181111561074c5761074c6106a3565b61075e601f8201601f191685016106b9565b9150808252878482850101111561077457600080fd5b80848401858401376000848284010152508093505050509250929050565b6000815180845260005b818110156107b85760208185018101518683018201520161079c565b818111156107ca576000602083870101525b50601f01601f19169290920160200192915050565b60408152600060a08201845160018060a01b03808251166040860152602080830151151560608701528088015192506060608087015283835180865260c0880191508285019550600094505b8085101561084d5785518416825294820194600194909401939082019061082b565b508681038288015261085f8189610792565b9998505050505050505050565b634e487b7160e01b600052602160045260246000fd5b60208101600783106108a457634e487b7160e01b600052602160045260246000fd5b91905290565b6000602082840312156108bc57600080fd5b81516104f88161068b565b6000602082840312156108d957600080fd5b815180151581146104f857600080fd5b60006101008083850312156108fd57600080fd5b83601f84011261090c57600080fd5b60405181810181811067ffffffffffffffff8211171561092e5761092e6106a3565b60405290830190808583111561094357600080fd5b845b838110156109665780516109588161068b565b825260209182019101610945565b509095945050505050565b634e487b7160e01b600052603260045260246000fd5b60006020828403121561099957600080fd5b81516001600160e01b0319811681146104f857600080fdfea2646970667358221220e4f9071bfcda3a3b1eab2bd4d167398f5fdd0a44a42fa3bd779a98bf659e50ac64736f6c634300080d0033",
  "devdoc": {
    "details": "Registry id `0` in the Curve address provider",
    "errors": {
      "EmptyAddressProvider()": [
        {
          "details": "Revert if address provider address is empty"
        }
      ],
      "InvalidPriceProviderRepository()": [
        {
          "details": "Revert on a false sanity check with `Ping` library"
        }
      ],
      "OnlyManager()": [
        {
          "details": "Revert if `msg.sender` is not Price Providers Repository manager"
        }
      ],
      "RegistryIsTheSame()": [
        {
          "details": "Revert if Curve registry is not changed"
        }
      ],
      "RegistryNotFoundById(uint8)": [
        {
          "details": "Revert if in the Curve address provider the registry is not found by the provided registry id"
        }
      ]
    },
    "kind": "dev",
    "methods": {
      "constructor": {
        "details": "Constructor is required for indirect CurveRegistriesBaseFetcher and PriceProvidersRepositoryManager initialization. Arguments for CurveRegistriesBaseFetcher initialization are given in the modifier-style in the derived constructor. CurveMainRegistryFetcher constructor body should be empty as we need to do nothing.",
        "params": {
          "_addressProvider": "Curve address provider address",
          "_repository": "Price providers repository address"
        }
      },
      "curveLPTokensDetailsFetcherPing()": {
        "returns": {
          "_0": "always curveLPTokensDetailsFetcherPing.selector"
        }
      },
      "getLPTokenDetails(address,bytes)": {
        "details": "This method should not revert. If the data is not found or provided an invalid LP token address, it should return an empty data structure.",
        "params": {
          "_data": "Any additional data that can be required",
          "_lpToken": "Curve LP token address"
        },
        "returns": {
          "data": "Any additional data to return",
          "details": "LP token details. See CurveLPTokensDataTypes.LPTokenDetails"
        }
      }
    },
    "stateVariables": {
      "_MAX_NUMBER_OF_COINS": {
        "details": "Number of coins by the Curve Main Registry interface"
      }
    },
    "title": "Curve LP Tokens details fetcher for Main Registry",
    "version": 1
  },
  "userdoc": {
    "events": {
      "RegistryUpdated(address)": {
        "notice": "Emitted when Curve LP registry address has been updated"
      }
    },
    "kind": "user",
    "methods": {
      "curveLPTokensDetailsFetcherPing()": {
        "notice": "Helper method that allows easily detects, if contract is Curve Registry Fatcher"
      },
      "getLPTokenDetails(address,bytes)": {
        "notice": "Curve LP Token details getter"
      },
      "updateRegistry()": {
        "notice": "Pulls a registry address from the Curve address provider"
      }
    },
    "version": 1
  },
  "storageLayout": {
    "storage": [
      {
        "astId": 41192,
        "contract": "contracts/priceProviders/curveLPTokens/LPTokensDetailsFetchers/CurveMainRegistryFetcher.sol:CurveMainRegistryFetcher",
        "label": "registry",
        "offset": 0,
        "slot": "0",
        "type": "t_address"
      }
    ],
    "types": {
      "t_address": {
        "encoding": "inplace",
        "label": "address",
        "numberOfBytes": "20"
      }
    }
  }
}