{
  "address": "0xbAcc38fdd9cd697Cd9082Dd6A790b58BCa306288",
  "abi": [
    {
      "inputs": [
        {
          "internalType": "contract ICurveLPTokensDetailsFetchersRepository",
          "name": "_fetchersRepository",
          "type": "address"
        },
        {
          "internalType": "contract IPriceProvidersRepository",
          "name": "_priceProvidersRepository",
          "type": "address"
        },
        {
          "internalType": "address",
          "name": "_weth",
          "type": "address"
        },
        {
          "internalType": "address",
          "name": "_nullAddress",
          "type": "address"
        }
      ],
      "stateMutability": "nonpayable",
      "type": "constructor"
    },
    {
      "inputs": [],
      "name": "InvalidCurvePriceProviderLPTokenPair",
      "type": "error"
    },
    {
      "inputs": [],
      "name": "InvalidFetchersRepository",
      "type": "error"
    },
    {
      "inputs": [],
      "name": "InvalidOrNotSupportedLPToken",
      "type": "error"
    },
    {
      "inputs": [],
      "name": "Unsupported",
      "type": "error"
    },
    {
      "anonymous": false,
      "inputs": [
        {
          "indexed": false,
          "internalType": "address",
          "name": "pool",
          "type": "address"
        },
        {
          "indexed": false,
          "internalType": "address",
          "name": "coin",
          "type": "address"
        }
      ],
      "name": "Cached",
      "type": "event"
    },
    {
      "inputs": [],
      "name": "FETCHERS_REPO",
      "outputs": [
        {
          "internalType": "contract ICurveLPTokensDetailsFetchersRepository",
          "name": "",
          "type": "address"
        }
      ],
      "stateMutability": "view",
      "type": "function"
    },
    {
      "inputs": [],
      "name": "MAX_COINS",
      "outputs": [
        {
          "internalType": "int128",
          "name": "",
          "type": "int128"
        }
      ],
      "stateMutability": "view",
      "type": "function"
    },
    {
      "inputs": [],
      "name": "NULL_ADDRESS",
      "outputs": [
        {
          "internalType": "address",
          "name": "",
          "type": "address"
        }
      ],
      "stateMutability": "view",
      "type": "function"
    },
    {
      "inputs": [],
      "name": "QUOTE_TOKEN",
      "outputs": [
        {
          "internalType": "address",
          "name": "",
          "type": "address"
        }
      ],
      "stateMutability": "view",
      "type": "function"
    },
    {
      "inputs": [],
      "name": "WETH",
      "outputs": [
        {
          "internalType": "address",
          "name": "",
          "type": "address"
        }
      ],
      "stateMutability": "view",
      "type": "function"
    },
    {
      "inputs": [
        {
          "internalType": "address",
          "name": "",
          "type": "address"
        }
      ],
      "name": "poolCoins",
      "outputs": [
        {
          "internalType": "address",
          "name": "coin",
          "type": "address"
        },
        {
          "internalType": "uint8",
          "name": "index",
          "type": "uint8"
        }
      ],
      "stateMutability": "view",
      "type": "function"
    },
    {
      "inputs": [
        {
          "internalType": "address",
          "name": "",
          "type": "address"
        }
      ],
      "name": "pools",
      "outputs": [
        {
          "internalType": "address",
          "name": "",
          "type": "address"
        }
      ],
      "stateMutability": "view",
      "type": "function"
    },
    {
      "inputs": [
        {
          "internalType": "address",
          "name": "",
          "type": "address"
        },
        {
          "internalType": "uint256",
          "name": "",
          "type": "uint256"
        }
      ],
      "name": "towardsAsset",
      "outputs": [
        {
          "internalType": "address",
          "name": "",
          "type": "address"
        },
        {
          "internalType": "uint256",
          "name": "",
          "type": "uint256"
        }
      ],
      "stateMutability": "pure",
      "type": "function"
    },
    {
      "inputs": [
        {
          "internalType": "address",
          "name": "_asset",
          "type": "address"
        },
        {
          "internalType": "uint256",
          "name": "_amount",
          "type": "uint256"
        }
      ],
      "name": "towardsNative",
      "outputs": [
        {
          "internalType": "address",
          "name": "tokenOut",
          "type": "address"
        },
        {
          "internalType": "uint256",
          "name": "amountOut",
          "type": "uint256"
        }
      ],
      "stateMutability": "nonpayable",
      "type": "function"
    }
  ],
  "transactionHash": "0x1b31db75da98f68b75ab29b8147ddc4b394575d75f07fce3cd84abac1332302f",
  "args": [
    "0xeaC05930c685A168c40C3aA9D017691a88e31fE9",
    "0x7C2ca9D502f2409BeceAfa68E97a176Ff805029F",
    "0xC02aaA39b223FE8D0A0e5C4F27eAD9083C756Cc2",
    "0xEeeeeEeeeEeEeeEeEeEeeEEEeeeeEeeeeeeeEEeE"
  ],
  "numDeployments": 1,
  "solcInputHash": "c9303397e20c2b4613b58e6ec221d180",
  "bytecode": "0x6101006040523480156200001257600080fd5b506040516200106b3803806200106b8339810160408190526200003591620001c6565b8383838383836200005f826001600160a01b0316630956403e6200012360201b620004c41760201c565b6200007d5760405163011848e160e11b815260040160405180910390fd5b816001600160a01b03166080816001600160a01b031681525050806001600160a01b031663217a4b706040518163ffffffff1660e01b8152600401602060405180830381865afa158015620000d6573d6000803e3d6000fd5b505050506040513d601f19601f82011682018060405250810190620000fc91906200022e565b6001600160a01b0390811660a05293841660e05250501660c052506200027a945050505050565b60006001600160a01b03831615801590620001a6575082826040518163ffffffff1660e01b8152600401602060405180830381865afa1580156200016b573d6000803e3d6000fd5b505050506040513d601f19601f820116820180604052508101906200019191906200024e565b60e083901b6001600160e01b03199081169116145b9392505050565b6001600160a01b0381168114620001c357600080fd5b50565b60008060008060808587031215620001dd57600080fd5b8451620001ea81620001ad565b6020860151909450620001fd81620001ad565b60408601519093506200021081620001ad565b60608601519092506200022381620001ad565b939692955090935050565b6000602082840312156200024157600080fd5b8151620001a681620001ad565b6000602082840312156200026157600080fd5b81516001600160e01b031981168114620001a657600080fd5b60805160a05160c05160e051610d6a62000301600039600081816101e701528181610280015281816107a3015281816107e8015261085801526000818161020e0152818161024601528181610768015281816109540152610983015260008181610102015281816108d8015261090701526000818161019701526105cd0152610d6a6000f3fe608060405234801561001057600080fd5b50600436106100935760003560e01c80638ffcc065116100665780638ffcc0651461013c5780639dca400014610192578063a4063dbc146101b9578063ad5c4648146101e2578063de0ce17d1461020957600080fd5b806321ebbf0114610098578063384302a9146100cf5780636ea477da146100ea57806378892cea146100fd575b600080fd5b6100ab6100a63660046109f4565b610230565b604080516001600160a01b0390931683526020830191909152015b60405180910390f35b6100d7600881565b604051600f9190910b81526020016100c6565b6100ab6100f83660046109f4565b6104a8565b6101247f000000000000000000000000000000000000000000000000000000000000000081565b6040516001600160a01b0390911681526020016100c6565b61017161014a366004610a20565b6000602081905290815260409020546001600160a01b03811690600160a01b900460ff1682565b604080516001600160a01b03909316835260ff9091166020830152016100c6565b6101247f000000000000000000000000000000000000000000000000000000000000000081565b6101246101c7366004610a20565b6001602052600090815260409020546001600160a01b031681565b6101247f000000000000000000000000000000000000000000000000000000000000000081565b6101247f000000000000000000000000000000000000000000000000000000000000000081565b600080600061023e8561054c565b9350905060007f00000000000000000000000000000000000000000000000000000000000000006001600160a01b039081169085161461027e57836102a0565b7f00000000000000000000000000000000000000000000000000000000000000005b6001600160a01b0387166000908152602081905260408120549192508391600160a01b900460ff1660405163cc2b27d760e01b815260048101899052600f82900b60248201529091506000906001600160a01b0384169063cc2b27d790604401602060405180830381865afa15801561031d573d6000803e3d6000fd5b505050506040513d601f19601f820116820180604052508101906103419190610a44565b6040516370a0823160e01b81523060048201529091506000906001600160a01b038616906370a0823190602401602060405180830381865afa15801561038b573d6000803e3d6000fd5b505050506040513d601f19601f820116820180604052508101906103af9190610a44565b604051630d2680e960e11b8152600481018b9052600f85900b6024820152604481018490529091506001600160a01b03851690631a4d01d290606401600060405180830381600087803b15801561040557600080fd5b505af1158015610419573d6000803e3d6000fd5b505050506104278883610761565b6040516370a0823160e01b81523060048201529098506000906001600160a01b038716906370a0823190602401602060405180830381865afa158015610471573d6000803e3d6000fd5b505050506040513d601f19601f820116820180604052508101906104959190610a44565b989b919098039950975050505050505050565b600080604051634851657960e11b815260040160405180910390fd5b60006001600160a01b03831615801590610543575082826040518163ffffffff1660e01b8152600401602060405180830381865afa15801561050a573d6000803e3d6000fd5b505050506040513d601f19601f8201168201806040525081019061052e9190610a5d565b60e083901b6001600160e01b03199081169116145b90505b92915050565b6001600160a01b0380821660009081526001602052604081205490911690811561059257506001600160a01b039182166000908152602081905260409020549092911690565b604080516080810182526000918101828152606082810193909352815260208101829052604051633afc259d60e01b81526001600160a01b037f00000000000000000000000000000000000000000000000000000000000000001690633afc259d906106049088908690600401610ab7565b600060405180830381865afa158015610621573d6000803e3d6000fd5b505050506040513d6000823e601f3d908101601f191682016040526106499190810190610bd5565b8151519093509091506001600160a01b0316158061066a5750602081015151155b1561068857604051632dab5ccd60e21b815260040160405180910390fd5b805151602082015190945060009061069f90610882565b6001600160a01b03888116600081815260016020908152604080832080548d87166001600160a01b031990911681179091558151808301835288871680825260ff89811683870190815297875286865295849020915182549751909616600160a01b026001600160a81b031990971695909716949094179490941790925581519283528201929092529296509092507fad100fb0d449551c9d88b48509ed4dcdd964416a7094b30659487c3ea2e10296910160405180910390a1505050915091565b60008290507f00000000000000000000000000000000000000000000000000000000000000006001600160a01b0316816001600160a01b031614806107e157507f00000000000000000000000000000000000000000000000000000000000000006001600160a01b0316816001600160a01b03161480156107e157508147145b15610546577f00000000000000000000000000000000000000000000000000000000000000006001600160a01b031663d0e30db0836040518263ffffffff1660e01b81526004016000604051808303818588803b15801561084157600080fd5b505af1158015610855573d6000803e3d6000fd5b507f0000000000000000000000000000000000000000000000000000000000000000979650505050505050565b60008082516000036108a7576040516326aef2bd60e21b815260040160405180910390fd5b60005b83518110156109b3578381815181106108c5576108c5610d1e565b60200260200101516001600160a01b03167f00000000000000000000000000000000000000000000000000000000000000006001600160a01b03160361092f577f000000000000000000000000000000000000000000000000000000000000000094909350915050565b83818151811061094157610941610d1e565b60200260200101516001600160a01b03167f00000000000000000000000000000000000000000000000000000000000000006001600160a01b0316036109ab577f000000000000000000000000000000000000000000000000000000000000000094909350915050565b6001016108aa565b506000836000815181106109c9576109c9610d1e565b6020026020010151819250925050915091565b6001600160a01b03811681146109f157600080fd5b50565b60008060408385031215610a0757600080fd5b8235610a12816109dc565b946020939093013593505050565b600060208284031215610a3257600080fd5b8135610a3d816109dc565b9392505050565b600060208284031215610a5657600080fd5b5051919050565b600060208284031215610a6f57600080fd5b81516001600160e01b031981168114610a3d57600080fd5b60005b83811015610aa2578181015183820152602001610a8a565b83811115610ab1576000848401525b50505050565b60018060a01b03831681526040602082015260008251806040840152610ae4816060850160208701610a87565b601f01601f1916919091016060019392505050565b634e487b7160e01b600052604160045260246000fd5b6040805190810167ffffffffffffffff81118282101715610b3257610b32610af9565b60405290565b604051601f8201601f1916810167ffffffffffffffff81118282101715610b6157610b61610af9565b604052919050565b600082601f830112610b7a57600080fd5b815167ffffffffffffffff811115610b9457610b94610af9565b610ba7601f8201601f1916602001610b38565b818152846020838601011115610bbc57600080fd5b610bcd826020830160208701610a87565b949350505050565b60008060408385031215610be857600080fd5b825167ffffffffffffffff80821115610c0057600080fd5b908401908186036060811215610c1557600080fd5b610c1d610b0f565b6040821215610c2b57600080fd5b610c33610b0f565b91508351610c40816109dc565b82526020848101518015158114610c5657600080fd5b8382015291815260408401519183831115610c7057600080fd5b828501945088601f860112610c8457600080fd5b8451925083831115610c9857610c98610af9565b8260051b610ca7828201610b38565b938452858101820193828101908b861115610cc157600080fd5b968301965b85881015610ceb5787519250610cdb836109dc565b8282529683019690830190610cc6565b84840152505087015190955092505080821115610d0757600080fd5b50610d1485828601610b69565b9150509250929050565b634e487b7160e01b600052603260045260246000fdfea2646970667358221220b6399f662db8ae8652d2789adde3d0ca9b5889d2f18fe9f412a7a4a79597a82964736f6c634300080d0033",
  "devdoc": {
    "details": "Curve LP Tokens unwrapping IT IS NOT PART OF THE PROTOCOL. SILO CREATED THIS TOOL, MOSTLY AS AN EXAMPLE.",
    "errors": {
      "InvalidCurvePriceProviderLPTokenPair()": [
        {
          "details": "Revert if we are not able to get the pool coins by provided curve LP token"
        }
      ],
      "InvalidFetchersRepository()": [
        {
          "details": "Revert on a false sanity check with `Ping` library"
        }
      ],
      "InvalidOrNotSupportedLPToken()": [
        {
          "details": "Revert if we are not able to get LP Token pool details from the price provider"
        }
      ],
      "Unsupported()": [
        {
          "details": "Revert on a `swapAmountOut` call as it in unsupported "
        }
      ]
    },
    "kind": "dev",
    "methods": {
      "towardsAsset(address,uint256)": {
        "details": "As Curve LP Tokens can be collateral-only assets we skip the implementation of this function"
      },
      "towardsNative(address,uint256)": {
        "params": {
          "_amount": "Amount of the `_asset`",
          "_asset": "Asset to be unwrapped"
        },
        "returns": {
          "amountOut": "Amount of the `tokenOut` that we received",
          "tokenOut": "A token that the `_asset` has been converted to"
        }
      }
    },
    "version": 1
  },
  "userdoc": {
    "kind": "user",
    "methods": {
      "FETCHERS_REPO()": {
        "notice": "Curve LP Tokens details fetchers repository"
      },
      "towardsNative(address,uint256)": {
        "notice": "Operates to unwrap an `_asset`"
      }
    },
    "version": 1
  },
  "storageLayout": {
    "storage": [
      {
        "astId": 35721,
        "contract": "contracts/liquidation/magicians/curveLPTokens/eth/CurveLPTokensMagicianETH128.sol:CurveLPTokensMagicianETH128",
        "label": "poolCoins",
        "offset": 0,
        "slot": "0",
        "type": "t_mapping(t_address,t_struct(PoolCoinDetails)35705_storage)"
      },
      {
        "astId": 35725,
        "contract": "contracts/liquidation/magicians/curveLPTokens/eth/CurveLPTokensMagicianETH128.sol:CurveLPTokensMagicianETH128",
        "label": "pools",
        "offset": 0,
        "slot": "1",
        "type": "t_mapping(t_address,t_address)"
      }
    ],
    "types": {
      "t_address": {
        "encoding": "inplace",
        "label": "address",
        "numberOfBytes": "20"
      },
      "t_mapping(t_address,t_address)": {
        "encoding": "mapping",
        "key": "t_address",
        "label": "mapping(address => address)",
        "numberOfBytes": "32",
        "value": "t_address"
      },
      "t_mapping(t_address,t_struct(PoolCoinDetails)35705_storage)": {
        "encoding": "mapping",
        "key": "t_address",
        "label": "mapping(address => struct CurveLPTokensMagician.PoolCoinDetails)",
        "numberOfBytes": "32",
        "value": "t_struct(PoolCoinDetails)35705_storage"
      },
      "t_struct(PoolCoinDetails)35705_storage": {
        "encoding": "inplace",
        "label": "struct CurveLPTokensMagician.PoolCoinDetails",
        "members": [
          {
            "astId": 35702,
            "contract": "contracts/liquidation/magicians/curveLPTokens/eth/CurveLPTokensMagicianETH128.sol:CurveLPTokensMagicianETH128",
            "label": "coin",
            "offset": 0,
            "slot": "0",
            "type": "t_address"
          },
          {
            "astId": 35704,
            "contract": "contracts/liquidation/magicians/curveLPTokens/eth/CurveLPTokensMagicianETH128.sol:CurveLPTokensMagicianETH128",
            "label": "index",
            "offset": 20,
            "slot": "0",
            "type": "t_uint8"
          }
        ],
        "numberOfBytes": "32"
      },
      "t_uint8": {
        "encoding": "inplace",
        "label": "uint8",
        "numberOfBytes": "1"
      }
    }
  }
}