{
  "address": "0x9315FEb6b8e68ff66B2b47E1aD9d6FC68b4dfa2B",
  "abi": [
    {
      "inputs": [
        {
          "internalType": "contract IPriceProvidersRepository",
          "name": "_priceProvidersRepository",
          "type": "address"
        },
        {
          "internalType": "address",
          "name": "_ohm",
          "type": "address"
        },
        {
          "internalType": "contract IgOHMLike",
          "name": "_gOhm",
          "type": "address"
        }
      ],
      "stateMutability": "nonpayable",
      "type": "constructor"
    },
    {
      "inputs": [],
      "name": "AssetNotSupported",
      "type": "error"
    },
    {
      "inputs": [],
      "name": "InvalidGOHMAddress",
      "type": "error"
    },
    {
      "inputs": [],
      "name": "InvalidOHMAddress",
      "type": "error"
    },
    {
      "inputs": [],
      "name": "TokenIsNotAContract",
      "type": "error"
    },
    {
      "inputs": [],
      "name": "GOHM",
      "outputs": [
        {
          "internalType": "contract IgOHMLike",
          "name": "",
          "type": "address"
        }
      ],
      "stateMutability": "view",
      "type": "function"
    },
    {
      "inputs": [],
      "name": "OHM",
      "outputs": [
        {
          "internalType": "address",
          "name": "",
          "type": "address"
        }
      ],
      "stateMutability": "view",
      "type": "function"
    },
    {
      "inputs": [],
      "name": "OHM_INDEX_BASE_UNITS",
      "outputs": [
        {
          "internalType": "uint256",
          "name": "",
          "type": "uint256"
        }
      ],
      "stateMutability": "view",
      "type": "function"
    },
    {
      "inputs": [
        {
          "internalType": "address",
          "name": "_asset",
          "type": "address"
        }
      ],
      "name": "assetSupported",
      "outputs": [
        {
          "internalType": "bool",
          "name": "",
          "type": "bool"
        }
      ],
      "stateMutability": "view",
      "type": "function"
    },
    {
      "inputs": [
        {
          "internalType": "address",
          "name": "_asset",
          "type": "address"
        }
      ],
      "name": "getPrice",
      "outputs": [
        {
          "internalType": "uint256",
          "name": "gOhmPrice",
          "type": "uint256"
        }
      ],
      "stateMutability": "view",
      "type": "function"
    },
    {
      "inputs": [],
      "name": "index",
      "outputs": [
        {
          "internalType": "uint256",
          "name": "",
          "type": "uint256"
        }
      ],
      "stateMutability": "view",
      "type": "function"
    },
    {
      "inputs": [],
      "name": "priceProviderPing",
      "outputs": [
        {
          "internalType": "bytes4",
          "name": "",
          "type": "bytes4"
        }
      ],
      "stateMutability": "pure",
      "type": "function"
    },
    {
      "inputs": [],
      "name": "priceProvidersRepository",
      "outputs": [
        {
          "internalType": "contract IPriceProvidersRepository",
          "name": "",
          "type": "address"
        }
      ],
      "stateMutability": "view",
      "type": "function"
    },
    {
      "inputs": [],
      "name": "quoteToken",
      "outputs": [
        {
          "internalType": "address",
          "name": "",
          "type": "address"
        }
      ],
      "stateMutability": "view",
      "type": "function"
    }
  ],
  "transactionHash": "0x18c198d08887910850b697615ab0899ac96ec575ae64486e3a3d86cd95c4b247",
  "args": [
    "0x7C2ca9D502f2409BeceAfa68E97a176Ff805029F",
    "0x64aa3364F17a4D01c6f1751Fd97C2BD3D7e7f1D5",
    "0x0ab87046fBb341D058F17CBC4c1133F25a20a52f"
  ],
  "numDeployments": 1,
  "solcInputHash": "87d8d711ca9232203f5f0813228d6707",
  "bytecode": "0x6101006040523480156200001257600080fd5b506040516200110e3803806200110e8339810160408190526200003591620005e3565b826200005a816001600160a01b031663eec3e6a76200032d60201b620004051760201c565b620000ab5760405162461bcd60e51b815260206004820152601e60248201527f496e76616c6964507269636550726f76696465725265706f7369746f72790000604482015260640160405180910390fd5b6001600160a01b038116608081905260408051630217a4b760e41b8152905163217a4b70916004808201926020929091908290030181865afa158015620000f6573d6000803e3d6000fd5b505050506040513d601f19601f820116820180604052508101906200011c919062000637565b6001600160a01b0390811660a05260408051600481526024810182526020810180516001600160e01b0316632986c0e560e01b179052905160009350839285169162000168916200068a565b600060405180830381855afa9150503d8060008114620001a5576040519150601f19603f3d011682016040523d82523d6000602084013e620001aa565b606091505b5091509150811580620001bc57508051155b15620001db576040516346a4bb0760e11b815260040160405180910390fd5b6040516020016200020490602080825260049082015263674f484d60e01b604082015260600190565b604051602081830303815290604052805190602001206200023084620003b760201b6200048b1760201c565b604051602001620002429190620006a8565b604051602081830303815290604052805190602001201462000277576040516346a4bb0760e11b815260040160405180910390fd5b6040516020016200029f906020808252600390820152624f484d60e81b604082015260600190565b60405160208183030381529060405280519060200120620002cb85620003b760201b6200048b1760201c565b604051602001620002dd9190620006a8565b6040516020818303038152906040528051906020012014620003125760405163cf091b2160e01b815260040160405180910390fd5b50506001600160a01b0391821660c0521660e052506200081e565b60006001600160a01b03831615801590620003b0575082826040518163ffffffff1660e01b8152600401602060405180830381865afa15801562000375573d6000803e3d6000fd5b505050506040513d601f19601f820116820180604052508101906200039b9190620006dd565b60e083901b6001600160e01b03199081169116145b9392505050565b6040805160048152602481019091526020810180516001600160e01b039081166395d89b4160e01b179091526060916000918291620003fa918691906200046b16565b915091508115806200040b57508051155b15620004315750506040805180820190915260018152603f60f81b602082015292915050565b60208151036200044e5762000446816200053a565b949350505050565b808060200190518101906200044691906200071f565b5050919050565b600060606200048584620005c460201b620005311760201c565b620004a3576040516373d39f9d60e01b815260040160405180910390fd5b600080856001600160a01b031685604051620004c091906200068a565b600060405180830381855afa9150503d8060008114620004fd576040519150601f19603f3d011682016040523d82523d6000602084013e62000502565b606091505b5091509150816200052b5760006040518060200160405280600081525093509350505062000533565b600193509150505b9250929050565b805160609060005b818110156200046457838181518110620005605762000560620007d7565b01602001516001600160f81b03191615620005bb57828482815181106200058b576200058b620007d7565b602001015160f81c60f81b604051602001620005a9929190620007ed565b60405160208183030381529060405292505b60010162000542565b3b151590565b6001600160a01b0381168114620005e057600080fd5b50565b600080600060608486031215620005f957600080fd5b83516200060681620005ca565b60208501519093506200061981620005ca565b60408501519092506200062c81620005ca565b809150509250925092565b6000602082840312156200064a57600080fd5b8151620003b081620005ca565b60005b83811015620006745781810151838201526020016200065a565b8381111562000684576000848401525b50505050565b600082516200069e81846020870162000657565b9190910192915050565b6020815260008251806020840152620006c981604085016020870162000657565b601f01601f19169190910160400192915050565b600060208284031215620006f057600080fd5b81516001600160e01b031981168114620003b057600080fd5b634e487b7160e01b600052604160045260246000fd5b6000602082840312156200073257600080fd5b81516001600160401b03808211156200074a57600080fd5b818401915084601f8301126200075f57600080fd5b81518181111562000774576200077462000709565b604051601f8201601f19908116603f011681019083821181831017156200079f576200079f62000709565b81604052828152876020848701011115620007b957600080fd5b620007cc83602083016020880162000657565b979650505050505050565b634e487b7160e01b600052603260045260246000fd5b600083516200080181846020880162000657565b6001600160f81b0319939093169190920190815260010192915050565b60805160a05160c05160e05161088d6200088160003960008181610183015281816101c8015281816101ee0152818161027701526102c4015260008181610151015261035b01526000609d01526000818161011f0152610383015261088d6000f3fe608060405234801561001057600080fd5b50600436106100935760003560e01c80635ddf2be3116100665780635ddf2be31461011a5780637c07e07414610141578063a6c41fec1461014c578063b31fb25614610173578063d1d5b4c8146101c357600080fd5b8063217a4b70146100985780632986c0e5146100dc57806341976e09146100f257806357e0c50f14610105575b600080fd5b6100bf7f000000000000000000000000000000000000000000000000000000000000000081565b6040516001600160a01b0390911681526020015b60405180910390f35b6100e46101ea565b6040519081526020016100d3565b6100e461010036600461066a565b610273565b6040516357e0c50f60e01b81526020016100d3565b6100bf7f000000000000000000000000000000000000000000000000000000000000000081565b6100e4633b9aca0081565b6100bf7f000000000000000000000000000000000000000000000000000000000000000081565b6101b361018136600461066a565b7f00000000000000000000000000000000000000000000000000000000000000006001600160a01b0390811691161490565b60405190151581526020016100d3565b6100bf7f000000000000000000000000000000000000000000000000000000000000000081565b60007f00000000000000000000000000000000000000000000000000000000000000006001600160a01b0316632986c0e56040518163ffffffff1660e01b8152600401602060405180830381865afa15801561024a573d6000803e3d6000fd5b505050506040513d601f19601f8201168201806040525081019061026e9190610693565b905090565b60007f00000000000000000000000000000000000000000000000000000000000000006001600160a01b03908116908316146102c25760405163981a2a2b60e01b815260040160405180910390fd5b7f00000000000000000000000000000000000000000000000000000000000000006001600160a01b0316632986c0e56040518163ffffffff1660e01b8152600401602060405180830381865afa158015610320573d6000803e3d6000fd5b505050506040513d601f19601f820116820180604052508101906103449190610693565b6040516341976e0960e01b81526001600160a01b037f0000000000000000000000000000000000000000000000000000000000000000811660048301527f000000000000000000000000000000000000000000000000000000000000000016906341976e0990602401602060405180830381865afa1580156103ca573d6000803e3d6000fd5b505050506040513d601f19601f820116820180604052508101906103ee9190610693565b6103f891906106ac565b633b9aca00900492915050565b60006001600160a01b03831615801590610484575082826040518163ffffffff1660e01b8152600401602060405180830381865afa15801561044b573d6000803e3d6000fd5b505050506040513d601f19601f8201168201806040525081019061046f91906106d9565b60e083901b6001600160e01b03199081169116145b9392505050565b6040805160048152602481019091526020810180516001600160e01b03166395d89b4160e01b17905260609060009081906104c7908590610537565b915091508115806104d757508051155b156104fc5750506040805180820190915260018152603f60f81b602082015292915050565b60208151036105165761050e816105eb565b949350505050565b8080602001905181019061050e9190610749565b5050919050565b3b151590565b60006060833b61055a576040516373d39f9d60e01b815260040160405180910390fd5b600080856001600160a01b03168560405161057591906107f6565b600060405180830381855afa9150503d80600081146105b0576040519150601f19603f3d011682016040523d82523d6000602084013e6105b5565b606091505b5091509150816105dc576000604051806020016040528060008152509350935050506105e4565b600193509150505b9250929050565b805160609060005b8181101561052a5783818151811061060d5761060d610812565b01602001516001600160f81b03191615610662578284828151811061063457610634610812565b602001015160f81c60f81b604051602001610650929190610828565b60405160208183030381529060405292505b6001016105f3565b60006020828403121561067c57600080fd5b81356001600160a01b038116811461048457600080fd5b6000602082840312156106a557600080fd5b5051919050565b60008160001904831182151516156106d457634e487b7160e01b600052601160045260246000fd5b500290565b6000602082840312156106eb57600080fd5b81516001600160e01b03198116811461048457600080fd5b634e487b7160e01b600052604160045260246000fd5b60005b8381101561073457818101518382015260200161071c565b83811115610743576000848401525b50505050565b60006020828403121561075b57600080fd5b815167ffffffffffffffff8082111561077357600080fd5b818401915084601f83011261078757600080fd5b81518181111561079957610799610703565b604051601f8201601f19908116603f011681019083821181831017156107c1576107c1610703565b816040528281528760208487010111156107da57600080fd5b6107eb836020830160208801610719565b979650505050505050565b60008251610808818460208701610719565b9190910192915050565b634e487b7160e01b600052603260045260246000fd5b6000835161083a818460208801610719565b6001600160f81b031993909316919092019081526001019291505056fea26469706673582212204b7cc4ce7f442123f6dbf914d8650468eb1a31930a5e5d19d08643153440e54d64736f6c634300080d0033",
  "devdoc": {
    "custom:security-contact": "security@silo.finance",
    "kind": "dev",
    "methods": {
      "assetSupported(address)": {
        "params": {
          "_asset": "address of an asset"
        }
      },
      "constructor": {
        "details": "Inside constructor there is a check of gOHM address."
      },
      "getPrice(address)": {
        "params": {
          "_asset": "address of an asset for which to read price"
        },
        "returns": {
          "gOhmPrice": "of asses with 18 decimals, throws when pool is not ready yet to provide price"
        }
      },
      "priceProviderPing()": {
        "details": "this can save us from simple human errors, in case we use invalid address but this should NOT be treated as security check",
        "returns": {
          "_0": "always true"
        }
      }
    },
    "stateVariables": {
      "GOHM": {
        "details": "gOHM is a wrapper of the rebasing OHM token"
      },
      "OHM": {
        "details": "Original rebasing token, OHMv2"
      },
      "OHM_INDEX_BASE_UNITS": {
        "details": "Base units for the rebase index value"
      }
    },
    "title": "GOHMPriceProvider",
    "version": 1
  },
  "userdoc": {
    "kind": "user",
    "methods": {
      "assetSupported(address)": {
        "notice": "Only gOHM token is supported, false otherwise."
      },
      "getPrice(address)": {
        "notice": "Returns \"Time-Weighted Average Price\" for an asset. Calculates TWAP price for quote/asset. It unifies all tokens decimal to 18, examples: - if asses == quote it returns 1e18 - if asset is USDC and quote is ETH and ETH costs ~$3300 then it returns ~0.0003e18 WETH per 1 USDC"
      },
      "index()": {
        "notice": "Returns the current index of rebasing token per one wrapped token (total amount of rebases) in OHM_INDEX_BASE_UNITS"
      },
      "priceProviderPing()": {
        "notice": "Helper method that allows easily detects, if contract is PriceProvider"
      },
      "priceProvidersRepository()": {
        "notice": "PriceProvidersRepository address"
      },
      "quoteToken()": {
        "notice": "Token address which prices are quoted in. Must be the same as PriceProvidersRepository.quoteToken"
      }
    },
    "notice": "GOHMPriceProvider is the price provider for gOHM token. Price calculations depends on the price of OHMv2. Price providers repository must be ready to provide the OHMv2 price.",
    "version": 1
  },
  "storageLayout": {
    "storage": [],
    "types": null
  }
}