{
  "address": "0x8205EFbE542F0ADd72eC7D862060Cab8A3E76137",
  "abi": [
    {
      "inputs": [
        {
          "internalType": "contract ISiloRepository",
          "name": "_siloRepo",
          "type": "address"
        },
        {
          "internalType": "contract SiloLens",
          "name": "_lens",
          "type": "address"
        }
      ],
      "stateMutability": "nonpayable",
      "type": "constructor"
    },
    {
      "inputs": [],
      "name": "EmptySilos",
      "type": "error"
    },
    {
      "inputs": [],
      "name": "InvalidSiloLens",
      "type": "error"
    },
    {
      "inputs": [],
      "name": "InvalidSiloRepository",
      "type": "error"
    },
    {
      "inputs": [
        {
          "internalType": "contract ISilo",
          "name": "_silo",
          "type": "address"
        },
        {
          "internalType": "address",
          "name": "_asset",
          "type": "address"
        }
      ],
      "name": "getData",
      "outputs": [
        {
          "components": [
            {
              "internalType": "address",
              "name": "asset",
              "type": "address"
            },
            {
              "components": [
                {
                  "internalType": "int256",
                  "name": "uopt",
                  "type": "int256"
                },
                {
                  "internalType": "int256",
                  "name": "ucrit",
                  "type": "int256"
                },
                {
                  "internalType": "int256",
                  "name": "ulow",
                  "type": "int256"
                },
                {
                  "internalType": "int256",
                  "name": "ki",
                  "type": "int256"
                },
                {
                  "internalType": "int256",
                  "name": "kcrit",
                  "type": "int256"
                },
                {
                  "internalType": "int256",
                  "name": "klow",
                  "type": "int256"
                },
                {
                  "internalType": "int256",
                  "name": "klin",
                  "type": "int256"
                },
                {
                  "internalType": "int256",
                  "name": "beta",
                  "type": "int256"
                },
                {
                  "internalType": "int256",
                  "name": "ri",
                  "type": "int256"
                },
                {
                  "internalType": "int256",
                  "name": "Tcrit",
                  "type": "int256"
                }
              ],
              "internalType": "struct IInterestRateModel.Config",
              "name": "modelConfig",
              "type": "tuple"
            },
            {
              "internalType": "uint256",
              "name": "currentInterestRate",
              "type": "uint256"
            },
            {
              "internalType": "uint256",
              "name": "siloUtilization",
              "type": "uint256"
            },
            {
              "internalType": "uint256",
              "name": "totalDepositsWithInterest",
              "type": "uint256"
            }
          ],
          "internalType": "struct InterestRateDataResolver.AssetData",
          "name": "assetData",
          "type": "tuple"
        },
        {
          "internalType": "uint256",
          "name": "timestamp",
          "type": "uint256"
        }
      ],
      "stateMutability": "view",
      "type": "function"
    },
    {
      "inputs": [
        {
          "internalType": "contract ISilo[]",
          "name": "_silos",
          "type": "address[]"
        }
      ],
      "name": "getDataBatch",
      "outputs": [
        {
          "components": [
            {
              "internalType": "contract ISilo",
              "name": "silo",
              "type": "address"
            },
            {
              "components": [
                {
                  "internalType": "address",
                  "name": "asset",
                  "type": "address"
                },
                {
                  "components": [
                    {
                      "internalType": "int256",
                      "name": "uopt",
                      "type": "int256"
                    },
                    {
                      "internalType": "int256",
                      "name": "ucrit",
                      "type": "int256"
                    },
                    {
                      "internalType": "int256",
                      "name": "ulow",
                      "type": "int256"
                    },
                    {
                      "internalType": "int256",
                      "name": "ki",
                      "type": "int256"
                    },
                    {
                      "internalType": "int256",
                      "name": "kcrit",
                      "type": "int256"
                    },
                    {
                      "internalType": "int256",
                      "name": "klow",
                      "type": "int256"
                    },
                    {
                      "internalType": "int256",
                      "name": "klin",
                      "type": "int256"
                    },
                    {
                      "internalType": "int256",
                      "name": "beta",
                      "type": "int256"
                    },
                    {
                      "internalType": "int256",
                      "name": "ri",
                      "type": "int256"
                    },
                    {
                      "internalType": "int256",
                      "name": "Tcrit",
                      "type": "int256"
                    }
                  ],
                  "internalType": "struct IInterestRateModel.Config",
                  "name": "modelConfig",
                  "type": "tuple"
                },
                {
                  "internalType": "uint256",
                  "name": "currentInterestRate",
                  "type": "uint256"
                },
                {
                  "internalType": "uint256",
                  "name": "siloUtilization",
                  "type": "uint256"
                },
                {
                  "internalType": "uint256",
                  "name": "totalDepositsWithInterest",
                  "type": "uint256"
                }
              ],
              "internalType": "struct InterestRateDataResolver.AssetData[]",
              "name": "assetData",
              "type": "tuple[]"
            }
          ],
          "internalType": "struct InterestRateDataResolver.SiloAssetsData[]",
          "name": "siloAssetsData",
          "type": "tuple[]"
        },
        {
          "internalType": "uint256",
          "name": "timestamp",
          "type": "uint256"
        }
      ],
      "stateMutability": "view",
      "type": "function"
    },
    {
      "inputs": [
        {
          "internalType": "contract ISilo",
          "name": "_silo",
          "type": "address"
        },
        {
          "internalType": "address",
          "name": "_asset",
          "type": "address"
        }
      ],
      "name": "getModel",
      "outputs": [
        {
          "internalType": "contract IInterestRateModel",
          "name": "",
          "type": "address"
        }
      ],
      "stateMutability": "view",
      "type": "function"
    },
    {
      "inputs": [],
      "name": "lens",
      "outputs": [
        {
          "internalType": "contract SiloLens",
          "name": "",
          "type": "address"
        }
      ],
      "stateMutability": "view",
      "type": "function"
    },
    {
      "inputs": [],
      "name": "siloRepository",
      "outputs": [
        {
          "internalType": "contract ISiloRepository",
          "name": "",
          "type": "address"
        }
      ],
      "stateMutability": "view",
      "type": "function"
    }
  ],
  "transactionHash": "0xf7593fb845bc2709bcddc5557ea6995aa588c9f929492ee18078c4711f5604c7",
  "args": [
    "0x692d205981373c8E5C36133bD08d5d7A66Bb7d8A",
    "0x372256705dbEB5fA610328A437D4840BB13AF073"
  ],
  "numDeployments": 1,
  "solcInputHash": "e7f011ba740bdebb662c0a0e3193075d",
  "bytecode": "0x60c06040523480156200001157600080fd5b5060405162000e7738038062000e77833981016040819052620000349162000172565b62000058826001600160a01b031663e99ed41d620000cf60201b6200069c1760201c565b62000075576040516295241d60e21b815260040160405180910390fd5b62000099816001600160a01b031663035054cd620000cf60201b6200069c1760201c565b620000b75760405163778e646d60e11b815260040160405180910390fd5b6001600160a01b039182166080521660a052620001dd565b60006001600160a01b0383161580159062000152575082826040518163ffffffff1660e01b8152600401602060405180830381865afa15801562000117573d6000803e3d6000fd5b505050506040513d601f19601f820116820180604052508101906200013d9190620001b1565b60e083901b6001600160e01b03199081169116145b9392505050565b6001600160a01b03811681146200016f57600080fd5b50565b600080604083850312156200018657600080fd5b8251620001938162000159565b6020840151909250620001a68162000159565b809150509250929050565b600060208284031215620001c457600080fd5b81516001600160e01b0319811681146200015257600080fd5b60805160a051610c61620002166000396000818160610152818161058a015261062101526000818160fa01526103da0152610c616000f3fe608060405234801561001057600080fd5b50600436106100575760003560e01c8063112666b71461005c5780631de1f54a146100a05780638feddfec146100c1578063b4909307146100d4578063bde12718146100f5575b600080fd5b6100837f000000000000000000000000000000000000000000000000000000000000000081565b6040516001600160a01b0390911681526020015b60405180910390f35b6100b36100ae3660046107ae565b61011c565b6040516100979291906108c5565b6100836100cf366004610998565b6103b0565b6100e76100e2366004610998565b61044e565b6040516100979291906109d1565b6100837f000000000000000000000000000000000000000000000000000000000000000081565b60606000828103610140576040516373459bd560e01b815260040160405180910390fd5b8267ffffffffffffffff811115610159576101596109ee565b60405190808252806020026020018201604052801561019f57816020015b6040805180820190915260008152606060208201528152602001906001900390816101775790505b50915060005b838110156103a55760008585838181106101c1576101c1610a04565b90506020020160208101906101d69190610a1a565b6001600160a01b03166367e4ac2c6040518163ffffffff1660e01b8152600401600060405180830381865afa158015610213573d6000803e3d6000fd5b505050506040513d6000823e601f3d908101601f1916820160405261023b9190810190610a92565b905085858381811061024f5761024f610a04565b90506020020160208101906102649190610a1a565b84838151811061027657610276610a04565b60209081029190910101516001600160a01b039091169052805167ffffffffffffffff8111156102a8576102a86109ee565b6040519080825280602002602001820160405280156102e157816020015b6102ce610722565b8152602001906001900390816102c65790505b508483815181106102f4576102f4610a04565b60200260200101516020018190525060005b815181101561039b5761035887878581811061032457610324610a04565b90506020020160208101906103399190610a1a565b83838151811061034b5761034b610a04565b602002602001015161044e565b5085848151811061036b5761036b610a04565b602002602001015160200151828151811061038857610388610a04565b6020908102919091010152600101610306565b50506001016101a5565b504290509250929050565b60405163122cfaaf60e21b81526001600160a01b03838116600483015282811660248301526000917f0000000000000000000000000000000000000000000000000000000000000000909116906348b3eabc90604401602060405180830381865afa158015610423573d6000803e3d6000fd5b505050506040513d601f19601f820116820180604052508101906104479190610b44565b9392505050565b610456610722565b60008061046385856103b0565b6001600160a01b03858116808652604051635dee5f6b60e11b81528883166004820152602481019190915291925082169063bbdcbed69060440161014060405180830381865afa1580156104bb573d6000803e3d6000fd5b505050506040513d601f19601f820116820180604052508101906104df9190610b61565b602084015260405163071962ff60e01b81526001600160a01b038681166004830152858116602483015242604483015282169063071962ff90606401602060405180830381865afa158015610538573d6000803e3d6000fd5b505050506040513d601f19601f8201168201806040525081019061055c9190610be8565b604084810191909152516339bfb72160e11b81526001600160a01b03868116600483015285811660248301527f0000000000000000000000000000000000000000000000000000000000000000169063737f6e4290604401602060405180830381865afa1580156105d1573d6000803e3d6000fd5b505050506040513d601f19601f820116820180604052508101906105f59190610be8565b606084015260405163993dadeb60e01b81526001600160a01b03868116600483015285811660248301527f0000000000000000000000000000000000000000000000000000000000000000169063993dadeb90604401602060405180830381865afa158015610668573d6000803e3d6000fd5b505050506040513d601f19601f8201168201806040525081019061068c9190610be8565b6080840152509093429350915050565b60006001600160a01b03831615801590610447575082826040518163ffffffff1660e01b8152600401602060405180830381865afa1580156106e2573d6000803e3d6000fd5b505050506040513d601f19601f820116820180604052508101906107069190610c01565b60e083901b6001600160e01b0319908116911614905092915050565b6040518060a0016040528060006001600160a01b03168152602001610793604051806101400160405280600081526020016000815260200160008152602001600081526020016000815260200160008152602001600081526020016000815260200160008152602001600081525090565b81526020016000815260200160008152602001600081525090565b600080602083850312156107c157600080fd5b823567ffffffffffffffff808211156107d957600080fd5b818501915085601f8301126107ed57600080fd5b8135818111156107fc57600080fd5b8660208260051b850101111561081157600080fd5b60209290920196919550909350505050565b60018060a01b038151168252602081015180516020840152602081015160408401526040810151606084015260608101516080840152608081015160a084015260a081015160c084015260c081015160e084015260e08101516101008181860152808301519150506101208181860152808301516101408601525050506040810151610160830152606081015161018083015260808101516101a08301525050565b60006040808301818452808651808352606092508286019150828160051b8701016020808a016000805b8581101561096a578a8503605f19018752825180516001600160a01b031686528401518486018a905280518a87018190529085019083908a8801905b808310156109555761093e828551610823565b6101c082019150878401935060018301925061092b565b509886019896505050918301916001016108ef565b5050509690960196909652509295945050505050565b6001600160a01b038116811461099557600080fd5b50565b600080604083850312156109ab57600080fd5b82356109b681610980565b915060208301356109c681610980565b809150509250929050565b6101e081016109e08285610823565b826101c08301529392505050565b634e487b7160e01b600052604160045260246000fd5b634e487b7160e01b600052603260045260246000fd5b600060208284031215610a2c57600080fd5b813561044781610980565b604051610140810167ffffffffffffffff81118282101715610a5b57610a5b6109ee565b60405290565b604051601f8201601f1916810167ffffffffffffffff81118282101715610a8a57610a8a6109ee565b604052919050565b60006020808385031215610aa557600080fd5b825167ffffffffffffffff80821115610abd57600080fd5b818501915085601f830112610ad157600080fd5b815181811115610ae357610ae36109ee565b8060051b9150610af4848301610a61565b8181529183018401918481019088841115610b0e57600080fd5b938501935b83851015610b385784519250610b2883610980565b8282529385019390850190610b13565b98975050505050505050565b600060208284031215610b5657600080fd5b815161044781610980565b60006101408284031215610b7457600080fd5b610b7c610a37565b825181526020830151602082015260408301516040820152606083015160608201526080830151608082015260a083015160a082015260c083015160c082015260e083015160e08201526101008084015181830152506101208084015181830152508091505092915050565b600060208284031215610bfa57600080fd5b5051919050565b600060208284031215610c1357600080fd5b81516001600160e01b03198116811461044757600080fdfea26469706673582212203e7f189e4474e3db9deb242bc99f28227098f6a9821878180cc83ead157bf94364736f6c634300080d0033",
  "devdoc": {
    "kind": "dev",
    "methods": {
      "getData(address,address)": {
        "details": "pulls all data required for bot that collect interest rate model data for researchers"
      },
      "getDataBatch(address[])": {
        "details": "batch method for `getData()`"
      }
    },
    "version": 1
  },
  "userdoc": {
    "kind": "user",
    "methods": {},
    "version": 1
  },
  "storageLayout": {
    "storage": [],
    "types": null
  }
}