{
  "address": "0xEd0f6833E824139C1aC627B3B65F32bc8b942E81",
  "abi": [
    {
      "inputs": [
        {
          "internalType": "address",
          "name": "_repository",
          "type": "address"
        },
        {
          "internalType": "address",
          "name": "_lens",
          "type": "address"
        },
        {
          "internalType": "contract IPriceProvider[]",
          "name": "_priceProvidersWithSwapOption",
          "type": "address[]"
        },
        {
          "internalType": "contract ISwapper[]",
          "name": "_swappers",
          "type": "address[]"
        },
        {
          "internalType": "uint256",
          "name": "_baseCost",
          "type": "uint256"
        }
      ],
      "stateMutability": "nonpayable",
      "type": "constructor"
    },
    {
      "inputs": [],
      "name": "InvalidSiloLens",
      "type": "error"
    },
    {
      "inputs": [],
      "name": "InvalidSiloRepository",
      "type": "error"
    },
    {
      "inputs": [
        {
          "internalType": "uint256",
          "name": "inTheRed",
          "type": "uint256"
        }
      ],
      "name": "LiquidationNotProfitable",
      "type": "error"
    },
    {
      "inputs": [],
      "name": "NotSilo",
      "type": "error"
    },
    {
      "inputs": [],
      "name": "PriceProviderNotFound",
      "type": "error"
    },
    {
      "inputs": [],
      "name": "RepayFailed",
      "type": "error"
    },
    {
      "inputs": [],
      "name": "SwapAmountInFailed",
      "type": "error"
    },
    {
      "inputs": [],
      "name": "SwapAmountOutFailed",
      "type": "error"
    },
    {
      "inputs": [],
      "name": "SwappersMustMatchProviders",
      "type": "error"
    },
    {
      "inputs": [],
      "name": "UsersMustMatchSilos",
      "type": "error"
    },
    {
      "anonymous": false,
      "inputs": [
        {
          "indexed": false,
          "internalType": "address",
          "name": "user",
          "type": "address"
        },
        {
          "indexed": false,
          "internalType": "uint256",
          "name": "quoteAmountFromCollaterals",
          "type": "uint256"
        },
        {
          "indexed": false,
          "internalType": "uint256",
          "name": "quoteLeftAfterRepay",
          "type": "uint256"
        }
      ],
      "name": "LiquidationBalance",
      "type": "event"
    },
    {
      "anonymous": false,
      "inputs": [
        {
          "indexed": true,
          "internalType": "address",
          "name": "previousOwner",
          "type": "address"
        },
        {
          "indexed": true,
          "internalType": "address",
          "name": "newOwner",
          "type": "address"
        }
      ],
      "name": "OwnershipTransferred",
      "type": "event"
    },
    {
      "inputs": [
        {
          "internalType": "address[]",
          "name": "_users",
          "type": "address[]"
        },
        {
          "internalType": "contract ISilo[]",
          "name": "_silos",
          "type": "address[]"
        }
      ],
      "name": "checkDebt",
      "outputs": [
        {
          "internalType": "bool[]",
          "name": "",
          "type": "bool[]"
        }
      ],
      "stateMutability": "view",
      "type": "function"
    },
    {
      "inputs": [
        {
          "internalType": "address[]",
          "name": "_users",
          "type": "address[]"
        },
        {
          "internalType": "contract ISilo[]",
          "name": "_silos",
          "type": "address[]"
        }
      ],
      "name": "checkSolvency",
      "outputs": [
        {
          "internalType": "bool[]",
          "name": "",
          "type": "bool[]"
        }
      ],
      "stateMutability": "view",
      "type": "function"
    },
    {
      "inputs": [
        {
          "internalType": "address",
          "name": "",
          "type": "address"
        }
      ],
      "name": "earnings",
      "outputs": [
        {
          "internalType": "uint256",
          "name": "",
          "type": "uint256"
        }
      ],
      "stateMutability": "view",
      "type": "function"
    },
    {
      "inputs": [
        {
          "internalType": "address[]",
          "name": "_users",
          "type": "address[]"
        },
        {
          "internalType": "contract ISilo",
          "name": "_silo",
          "type": "address"
        },
        {
          "internalType": "address",
          "name": "_swapper",
          "type": "address"
        }
      ],
      "name": "executeLiquidation",
      "outputs": [],
      "stateMutability": "nonpayable",
      "type": "function"
    },
    {
      "inputs": [
        {
          "internalType": "address",
          "name": "_asset",
          "type": "address"
        }
      ],
      "name": "findPriceProvider",
      "outputs": [
        {
          "internalType": "contract IPriceProvider",
          "name": "",
          "type": "address"
        }
      ],
      "stateMutability": "view",
      "type": "function"
    },
    {
      "inputs": [],
      "name": "lens",
      "outputs": [
        {
          "internalType": "contract SiloLens",
          "name": "",
          "type": "address"
        }
      ],
      "stateMutability": "view",
      "type": "function"
    },
    {
      "inputs": [],
      "name": "owner",
      "outputs": [
        {
          "internalType": "address",
          "name": "",
          "type": "address"
        }
      ],
      "stateMutability": "view",
      "type": "function"
    },
    {
      "inputs": [
        {
          "internalType": "uint256",
          "name": "",
          "type": "uint256"
        }
      ],
      "name": "priceProvidersWithSwapOption",
      "outputs": [
        {
          "internalType": "contract IPriceProvider",
          "name": "",
          "type": "address"
        }
      ],
      "stateMutability": "view",
      "type": "function"
    },
    {
      "inputs": [],
      "name": "priceProvidersWithSwapOptionCount",
      "outputs": [
        {
          "internalType": "uint256",
          "name": "",
          "type": "uint256"
        }
      ],
      "stateMutability": "view",
      "type": "function"
    },
    {
      "inputs": [],
      "name": "quoteToken",
      "outputs": [
        {
          "internalType": "contract IERC20",
          "name": "",
          "type": "address"
        }
      ],
      "stateMutability": "view",
      "type": "function"
    },
    {
      "inputs": [],
      "name": "renounceOwnership",
      "outputs": [],
      "stateMutability": "nonpayable",
      "type": "function"
    },
    {
      "inputs": [
        {
          "internalType": "contract IPriceProvider",
          "name": "_oracle",
          "type": "address"
        },
        {
          "internalType": "contract ISwapper",
          "name": "_swapper",
          "type": "address"
        }
      ],
      "name": "setSwapper",
      "outputs": [],
      "stateMutability": "nonpayable",
      "type": "function"
    },
    {
      "inputs": [
        {
          "internalType": "address",
          "name": "_user",
          "type": "address"
        },
        {
          "internalType": "address[]",
          "name": "_assets",
          "type": "address[]"
        },
        {
          "internalType": "uint256[]",
          "name": "_receivedCollaterals",
          "type": "uint256[]"
        },
        {
          "internalType": "uint256[]",
          "name": "_shareAmountsToRepaid",
          "type": "uint256[]"
        },
        {
          "internalType": "bytes",
          "name": "_flashReceiverData",
          "type": "bytes"
        }
      ],
      "name": "siloLiquidationCallback",
      "outputs": [],
      "stateMutability": "nonpayable",
      "type": "function"
    },
    {
      "inputs": [],
      "name": "siloRepository",
      "outputs": [
        {
          "internalType": "contract ISiloRepository",
          "name": "",
          "type": "address"
        }
      ],
      "stateMutability": "view",
      "type": "function"
    },
    {
      "inputs": [
        {
          "internalType": "contract IPriceProvider",
          "name": "",
          "type": "address"
        }
      ],
      "name": "swappers",
      "outputs": [
        {
          "internalType": "contract ISwapper",
          "name": "",
          "type": "address"
        }
      ],
      "stateMutability": "view",
      "type": "function"
    },
    {
      "inputs": [
        {
          "internalType": "address",
          "name": "newOwner",
          "type": "address"
        }
      ],
      "name": "transferOwnership",
      "outputs": [],
      "stateMutability": "nonpayable",
      "type": "function"
    },
    {
      "inputs": [],
      "name": "withdraw",
      "outputs": [],
      "stateMutability": "nonpayable",
      "type": "function"
    },
    {
      "inputs": [],
      "name": "withdrawEth",
      "outputs": [],
      "stateMutability": "nonpayable",
      "type": "function"
    }
  ],
  "transactionHash": "0x4c09d825b4be3c79d70b805558311020ee1b8f090bf17f64d03bc27ace6b1dc8",
  "args": [
    "0xA7042256F41Ad016A147ea3C8fD666925117eC6d",
    "0xe9f1a7790E5D0Dc79BD06A2aee888AdF043DD0d4",
    [
      "0x9546d86C4DFdBcb53a3CeB18b19c397c873C9065",
      "0x731a78C228d2195163fAdeE12b8389b58Ea75B5B"
    ],
    [
      "0xb51889962FcCfb5cc150ef0ac4e2f3b91F8fE512",
      "0xB11bF3fAA4f25B9D1ffd73f3A0b104e538cee4Af"
    ],
    21000
  ],
  "numDeployments": 1,
  "solcInputHash": "8e9a0ef8ce926c9d3d3d0a119bbb7645",
  "bytecode": "0x6101006040523480156200001257600080fd5b506040516200277e3803806200277e8339810160408190526200003591620004ff565b62000040336200029e565b62000064846001600160a01b031663035054cd620002ee60201b62000c011760201c565b620000825760405163778e646d60e11b815260040160405180910390fd5b620000a6856001600160a01b031663e99ed41d620002ee60201b62000c011760201c565b620000c3576040516295241d60e21b815260040160405180910390fd5b8251825114620000e657604051638d4eb31b60e01b815260040160405180910390fd5b6001600160a01b0380861660a052841660c05260005b82518110156200019e578281815181106200011b576200011b62000607565b6020026020010151600260008684815181106200013c576200013c62000607565b60200260200101516001600160a01b03166001600160a01b0316815260200190815260200160002060006101000a8154816001600160a01b0302191690836001600160a01b03160217905550808062000195906200061d565b915050620000fc565b508251620001b490600390602086019062000378565b506000856001600160a01b0316635ddf2be36040518163ffffffff1660e01b8152600401602060405180830381865afa158015620001f6573d6000803e3d6000fd5b505050506040513d601f19601f820116820180604052508101906200021c919062000645565b9050806001600160a01b031663217a4b706040518163ffffffff1660e01b8152600401602060405180830381865afa1580156200025d573d6000803e3d6000fd5b505050506040513d601f19601f8201168201806040525081019062000283919062000645565b6001600160a01b031660e05250608052506200069192505050565b600080546001600160a01b038381166001600160a01b0319831681178455604051919092169283917f8be0079c531659141344cd1fd0a4f28419497f9722a3daafe3b4186f6b6457e09190a35050565b60006001600160a01b0383161580159062000371575082826040518163ffffffff1660e01b8152600401602060405180830381865afa15801562000336573d6000803e3d6000fd5b505050506040513d601f19601f820116820180604052508101906200035c919062000665565b60e083901b6001600160e01b03199081169116145b9392505050565b828054828255906000526020600020908101928215620003d0579160200282015b82811115620003d057825182546001600160a01b0319166001600160a01b0390911617825560209092019160019091019062000399565b50620003de929150620003e2565b5090565b5b80821115620003de5760008155600101620003e3565b6001600160a01b03811681146200040f57600080fd5b50565b634e487b7160e01b600052604160045260246000fd5b604051601f8201601f191681016001600160401b038111828210171562000453576200045362000412565b604052919050565b60006001600160401b0382111562000477576200047762000412565b5060051b60200190565b600082601f8301126200049357600080fd5b81516020620004ac620004a6836200045b565b62000428565b82815260059290921b84018101918181019086841115620004cc57600080fd5b8286015b84811015620004f4578051620004e681620003f9565b8352918301918301620004d0565b509695505050505050565b600080600080600060a086880312156200051857600080fd5b85516200052581620003f9565b809550506020808701516200053a81620003f9565b60408801519095506001600160401b03808211156200055857600080fd5b818901915089601f8301126200056d57600080fd5b81516200057e620004a6826200045b565b81815260059190911b8301840190848101908c8311156200059e57600080fd5b938501935b82851015620005c9578451620005b981620003f9565b82529385019390850190620005a3565b60608c01519098509450505080831115620005e357600080fd5b5050620005f38882890162000481565b925050608086015190509295509295909350565b634e487b7160e01b600052603260045260246000fd5b6000600182016200063e57634e487b7160e01b600052601160045260246000fd5b5060010190565b6000602082840312156200065857600080fd5b81516200037181620003f9565b6000602082840312156200067857600080fd5b81516001600160e01b0319811681146200037157600080fd5b60805160a05160c05160e05161206d620007116000396000818161019b015281816104c7015281816106f501528181611148015281816111ae015281816113e5015281816114400152818161156f0152611683015260008181610149015261033801526000818161025f0152610d64015260006109d4015261206d6000f3fe608060405234801561001057600080fd5b50600436106101165760003560e01c806394fa3add116100a2578063beed5add11610071578063beed5add14610281578063dde6430314610294578063e7b43da5146102a7578063effca705146102ba578063f2fde38b146102cd57600080fd5b806394fa3add146102375780639d3ac04c1461024a578063a0ef91df14610252578063bde127181461025a57600080fd5b80633ccfd60b116100e95780633ccfd60b146101bd578063543fd313146101c7578063715018a6146101f55780638cad7fbe146101fd5780638da5cb5b1461022657600080fd5b806303a69c9a1461011b578063112666b7146101445780631b2df30a14610183578063217a4b7014610196575b600080fd5b61012e61012936600461184c565b6102e0565b60405161013b919061190e565b60405180910390f35b61016b7f000000000000000000000000000000000000000000000000000000000000000081565b6040516001600160a01b03909116815260200161013b565b61016b610191366004611954565b61044a565b61016b7f000000000000000000000000000000000000000000000000000000000000000081565b6101c5610474565b005b6101e76101d536600461196d565b60016020526000908152604090205481565b60405190815260200161013b565b6101c5610538565b61016b61020b36600461196d565b6002602052600090815260409020546001600160a01b031681565b6000546001600160a01b031661016b565b61016b61024536600461196d565b610577565b6003546101e7565b6101c56106aa565b61016b7f000000000000000000000000000000000000000000000000000000000000000081565b6101c561028f3660046119d6565b61077e565b61012e6102a236600461184c565b610837565b6101c56102b5366004611a3e565b610991565b6101c56102c8366004611b64565b610b0e565b6101c56102db36600461196d565b610b66565b60606000835167ffffffffffffffff8111156102fe576102fe611758565b604051908082528060200260200182016040528015610327578160200160208202803683370190505b50905060005b8451811015610440577f00000000000000000000000000000000000000000000000000000000000000006001600160a01b0316638705c35985838151811061037757610377611b9d565b602002602001015187848151811061039157610391611b9d565b60200260200101516040518363ffffffff1660e01b81526004016103cb9291906001600160a01b0392831681529116602082015260400190565b602060405180830381865afa1580156103e8573d6000803e3d6000fd5b505050506040513d601f19601f8201168201806040525081019061040c9190611bb3565b82828151811061041e5761041e611b9d565b911515602092830291909101909101528061043881611beb565b91505061032d565b5090505b92915050565b6003818154811061045a57600080fd5b6000918252602090912001546001600160a01b0316905081565b336000908152600160205260408120549081900361048f5750565b33600081815260016020526040808220919091555163a9059cbb60e01b81526004810191909152602481018290526001600160a01b037f0000000000000000000000000000000000000000000000000000000000000000169063a9059cbb906044016020604051808303816000875af1158015610510573d6000803e3d6000fd5b505050506040513d601f19601f820116820180604052508101906105349190611bb3565b5050565b6000546001600160a01b0316331461056b5760405162461bcd60e51b815260040161056290611c04565b60405180910390fd5b6105756000610c87565b565b60008060038054806020026020016040519081016040528092919081815260200182805480156105d057602002820191906000526020600020905b81546001600160a01b031681526001909101906020018083116105b2575b5050505050905060005b81518110156106905760008282815181106105f7576105f7611b9d565b602090810291909101015160405163598fd92b60e11b81526001600160a01b0387811660048301529192509082169063b31fb25690602401602060405180830381865afa15801561064c573d6000803e3d6000fd5b505050506040513d601f19601f820116820180604052508101906106709190611bb3565b1561067d57949350505050565b508061068881611beb565b9150506105da565b50604051637de7a71560e11b815260040160405180910390fd5b33600090815260016020526040812054908190036106c55750565b336000908152600160205260408082209190915551632e1a7d4d60e01b8152600481018290526001600160a01b037f00000000000000000000000000000000000000000000000000000000000000001690632e1a7d4d90602401600060405180830381600087803b15801561073957600080fd5b505af115801561074d573d6000803e3d6000fd5b505060405133925083156108fc02915083906000818181858888f19350505050158015610534573d6000803e3d6000fd5b60005a9050826001600160a01b03166393a94ca3868684866040516020016107b99291909182526001600160a01b0316602082015260400190565b6040516020818303038152906040526040518463ffffffff1660e01b81526004016107e693929190611c69565b6000604051808303816000875af1158015610805573d6000803e3d6000fd5b505050506040513d6000823e601f3d908101601f1916820160405261082d9190810190611dc5565b5050505050505050565b6060815183511461085b5760405163fedad93960e01b815260040160405180910390fd5b6000835167ffffffffffffffff81111561087757610877611758565b6040519080825280602002602001820160405280156108a0578160200160208202803683370190505b50905060005b8451811015610440578381815181106108c1576108c1611b9d565b60200260200101516001600160a01b03166338b51ce18683815181106108e9576108e9611b9d565b60200260200101516040518263ffffffff1660e01b815260040161091c91906001600160a01b0391909116815260200190565b602060405180830381865afa158015610939573d6000803e3d6000fd5b505050506040513d601f19601f8201168201806040525081019061095d9190611bb3565b82828151811061096f5761096f611b9d565b911515602092830291909101909101528061098981611beb565b9150506108a6565b600080828060200190518101906109a89190611eae565b9150915060006109bb8a8a8a8a86610cd7565b905060006109ce338d8d8d8b8b89610d42565b905060007f00000000000000000000000000000000000000000000000000000000000000005a6109fe9087611ed3565b610a089190611ed3565b905082610a158284611eea565b1115610a4c5782610a268284611eea565b610a309190611ed3565b60405163e1c4c60560e01b815260040161056291815260200190565b6000610a588385611ed3565b90508060016000610a716000546001600160a01b031690565b6001600160a01b03166001600160a01b031681526020019081526020016000206000828254610aa09190611eea565b925050819055507f543a34fd37c620d14976aef24c3f0d9632592a2b79e91d06e83b08ed1dcd20768e8583604051610af6939291906001600160a01b039390931683526020830191909152604082015260600190565b60405180910390a15050505050505050505050505050565b6000546001600160a01b03163314610b385760405162461bcd60e51b815260040161056290611c04565b6001600160a01b03918216600090815260026020526040902080546001600160a01b03191691909216179055565b6000546001600160a01b03163314610b905760405162461bcd60e51b815260040161056290611c04565b6001600160a01b038116610bf55760405162461bcd60e51b815260206004820152602660248201527f4f776e61626c653a206e6577206f776e657220697320746865207a65726f206160448201526564647265737360d01b6064820152608401610562565b610bfe81610c87565b50565b60006001600160a01b03831615801590610c80575082826040518163ffffffff1660e01b8152600401602060405180830381865afa158015610c47573d6000803e3d6000fd5b505050506040513d601f19601f82011682018060405250810190610c6b9190611f02565b60e083901b6001600160e01b03199081169116145b9392505050565b600080546001600160a01b038381166001600160a01b0319831681178455604051919092169283917f8be0079c531659141344cd1fd0a4f28419497f9722a3daafe3b4186f6b6457e09190a35050565b6000805b85811015610d3857610d2c878783818110610cf857610cf8611b9d565b9050602002016020810190610d0d919061196d565b868684818110610d1f57610d1f611b9d565b905060200201358561113c565b90910190600101610cdb565b5095945050505050565b60405163025e1b9b60e31b81526001600160a01b0388811660048301526000917f0000000000000000000000000000000000000000000000000000000000000000909116906312f0dcd890602401602060405180830381865afa158015610dad573d6000803e3d6000fd5b505050506040513d601f19601f82011682018060405250810190610dd19190611bb3565b610dee5760405163a812ea3160e01b815260040160405180910390fd5b60005b8581101561113057848482818110610e0b57610e0b611b9d565b905060200201356000031561111e57610e63878783818110610e2f57610e2f611b9d565b9050602002016020810190610e44919061196d565b868684818110610e5657610e56611b9d565b90506020020135856113cf565b82019150868682818110610e7957610e79611b9d565b9050602002016020810190610e8e919061196d565b6001600160a01b031663095ea7b38a878785818110610eaf57610eaf611b9d565b6040516001600160e01b031960e087901b1681526001600160a01b03909416600485015260200291909101356024830152506044016020604051808303816000875af1158015610f03573d6000803e3d6000fd5b505050506040513d601f19601f82011682018060405250810190610f279190611bb3565b50886001600160a01b031663976ce495888884818110610f4957610f49611b9d565b9050602002016020810190610f5e919061196d565b8a888886818110610f7157610f71611b9d565b6040516001600160e01b031960e088901b1681526001600160a01b0395861660048201529490931660248501525060209091020135604482015260640160408051808303816000875af1158015610fcc573d6000803e3d6000fd5b505050506040513d601f19601f82011682018060405250810190610ff09190611f2c565b5050886001600160a01b031663bf27304188888481811061101357611013611b9d565b9050602002016020810190611028919061196d565b6040516001600160e01b031960e084901b1681526001600160a01b03909116600482015260240160c060405180830381865afa15801561106c573d6000803e3d6000fd5b505050506040513d601f19601f820116820180604052508101906110909190611f50565b60409081015190516370a0823160e01b81526001600160a01b038a81166004830152909116906370a0823190602401602060405180830381865afa1580156110dc573d6000803e3d6000fd5b505050506040513d601f19601f820116820180604052508101906111009190611fe5565b1561111e57604051639e703a0560e01b815260040160405180910390fd5b8061112881611beb565b915050610df1565b50979650505050505050565b600082158061117c57507f00000000000000000000000000000000000000000000000000000000000000006001600160a01b0316846001600160a01b0316145b15611188575081610c80565b60007f9cffaf6fb5a9865a918eb304cffc7751c01747ee00e8e35a30144c35b800d32e857f0000000000000000000000000000000000000000000000000000000000000000866111d789610577565b6040516001600160a01b039485166024820152928416604484015260648301919091528216608482015290871660a482015260c40160408051601f198184030181529190526020810180516001600160e01b03166001600160e01b0319909316929092179091529050600061124c8685611712565b9050856001600160a01b031663095ea7b3826001600160a01b031663db36eb2e6040518163ffffffff1660e01b8152600401602060405180830381865afa15801561129b573d6000803e3d6000fd5b505050506040513d601f19601f820116820180604052508101906112bf9190611ffe565b6040516001600160e01b031960e084901b1681526001600160a01b039091166004820152602481018890526044016020604051808303816000875af115801561130c573d6000803e3d6000fd5b505050506040513d601f19601f820116820180604052508101906113309190611bb3565b50600080826001600160a01b03168460405161134c919061201b565b600060405180830381855af49150503d8060008114611387576040519150601f19603f3d011682016040523d82523d6000602084013e61138c565b606091505b5091509150816113af5760405163e1946a7760e01b815260040160405180910390fd5b808060200190518101906113c39190611fe5565b98975050505050505050565b600082158061140f5750836001600160a01b03167f00000000000000000000000000000000000000000000000000000000000000006001600160a01b0316145b1561141b575081610c80565b60007f168c66b4ef41014cf231456cf6fce893ddb0a4a9bbef08aa50af66187c72fa1c7f0000000000000000000000000000000000000000000000000000000000000000868661146a89610577565b6040516001600160a01b039485166024820152928416604484015260648301919091528216608482015290871660a482015260c40160408051601f198184030181529190526020810180516001600160e01b03166001600160e01b031990931692909217909152905060006114df8685611712565b90506000816001600160a01b031663db36eb2e6040518163ffffffff1660e01b8152600401602060405180830381865afa158015611521573d6000803e3d6000fd5b505050506040513d601f19601f820116820180604052508101906115459190611ffe565b60405163095ea7b360e01b81526001600160a01b03808316600483015260001960248301529192507f00000000000000000000000000000000000000000000000000000000000000009091169063095ea7b3906044016020604051808303816000875af11580156115ba573d6000803e3d6000fd5b505050506040513d601f19601f820116820180604052508101906115de9190611bb3565b50600080836001600160a01b0316856040516115fa919061201b565b600060405180830381855af49150503d8060008114611635576040519150601f19603f3d011682016040523d82523d6000602084013e61163a565b606091505b50915091508161165d57604051631c64b3d360e21b815260040160405180910390fd5b60405163095ea7b360e01b81526001600160a01b038481166004830152600060248301527f0000000000000000000000000000000000000000000000000000000000000000169063095ea7b3906044016020604051808303816000875af11580156116cc573d6000803e3d6000fd5b505050506040513d601f19601f820116820180604052508101906116f09190611bb3565b50808060200190518101906117059190611fe5565b9998505050505050505050565b60006001600160a01b0382161561172a575080610444565b600061173584610577565b6001600160a01b0390811660009081526002602052604090205416949350505050565b634e487b7160e01b600052604160045260246000fd5b604051601f8201601f1916810167ffffffffffffffff8111828210171561179757611797611758565b604052919050565b600067ffffffffffffffff8211156117b9576117b9611758565b5060051b60200190565b6001600160a01b0381168114610bfe57600080fd5b600082601f8301126117e957600080fd5b813560206117fe6117f98361179f565b61176e565b82815260059290921b8401810191818101908684111561181d57600080fd5b8286015b84811015611841578035611834816117c3565b8352918301918301611821565b509695505050505050565b6000806040838503121561185f57600080fd5b823567ffffffffffffffff8082111561187757600080fd5b818501915085601f83011261188b57600080fd5b8135602061189b6117f98361179f565b82815260059290921b840181019181810190898411156118ba57600080fd5b948201945b838610156118e15785356118d2816117c3565b825294820194908201906118bf565b965050860135925050808211156118f757600080fd5b50611904858286016117d8565b9150509250929050565b6020808252825182820181905260009190848201906040850190845b8181101561194857835115158352928401929184019160010161192a565b50909695505050505050565b60006020828403121561196657600080fd5b5035919050565b60006020828403121561197f57600080fd5b8135610c80816117c3565b60008083601f84011261199c57600080fd5b50813567ffffffffffffffff8111156119b457600080fd5b6020830191508360208260051b85010111156119cf57600080fd5b9250929050565b600080600080606085870312156119ec57600080fd5b843567ffffffffffffffff811115611a0357600080fd5b611a0f8782880161198a565b9095509350506020850135611a23816117c3565b91506040850135611a33816117c3565b939692955090935050565b60008060008060008060008060a0898b031215611a5a57600080fd5b8835611a65816117c3565b975060208981013567ffffffffffffffff80821115611a8357600080fd5b611a8f8d838e0161198a565b909a50985060408c0135915080821115611aa857600080fd5b611ab48d838e0161198a565b909850965060608c0135915080821115611acd57600080fd5b611ad98d838e0161198a565b909650945060808c0135915080821115611af257600080fd5b818c0191508c601f830112611b0657600080fd5b813581811115611b1857611b18611758565b611b2a601f8201601f1916850161176e565b91508082528d84828501011115611b4057600080fd5b80848401858401376000848284010152508093505050509295985092959890939650565b60008060408385031215611b7757600080fd5b8235611b82816117c3565b91506020830135611b92816117c3565b809150509250929050565b634e487b7160e01b600052603260045260246000fd5b600060208284031215611bc557600080fd5b81518015158114610c8057600080fd5b634e487b7160e01b600052601160045260246000fd5b600060018201611bfd57611bfd611bd5565b5060010190565b6020808252818101527f4f776e61626c653a2063616c6c6572206973206e6f7420746865206f776e6572604082015260600190565b60005b83811015611c54578181015183820152602001611c3c565b83811115611c63576000848401525b50505050565b6040808252810183905260008460608301825b86811015611cac578235611c8f816117c3565b6001600160a01b0316825260209283019290910190600101611c7c565b50838103602085015284519150818152611ccd826020830160208801611c39565b601f91909101601f19160160200195945050505050565b600082601f830112611cf557600080fd5b81516020611d056117f98361179f565b828152600592831b8501820192828201919087851115611d2457600080fd5b8387015b85811015611db857805167ffffffffffffffff811115611d485760008081fd5b8801603f81018a13611d5a5760008081fd5b858101516040611d6c6117f98361179f565b82815291851b8301810191888101908d841115611d895760008081fd5b938201935b83851015611da757845182529389019390890190611d8e565b885250505093850193508401611d28565b5090979650505050505050565b600080600060608486031215611dda57600080fd5b835167ffffffffffffffff80821115611df257600080fd5b818601915086601f830112611e0657600080fd5b81516020611e166117f98361179f565b82815260059290921b8401810191818101908a841115611e3557600080fd5b948201945b83861015611e5c578551611e4d816117c3565b82529482019490820190611e3a565b91890151919750909350505080821115611e7557600080fd5b611e8187838801611ce4565b93506040860151915080821115611e9757600080fd5b50611ea486828701611ce4565b9150509250925092565b60008060408385031215611ec157600080fd5b825191506020830151611b92816117c3565b600082821015611ee557611ee5611bd5565b500390565b60008219821115611efd57611efd611bd5565b500190565b600060208284031215611f1457600080fd5b81516001600160e01b031981168114610c8057600080fd5b60008060408385031215611f3f57600080fd5b505080516020909101519092909150565b600060c08284031215611f6257600080fd5b60405160c0810181811067ffffffffffffffff82111715611f8557611f85611758565b6040528251611f93816117c3565b81526020830151611fa3816117c3565b60208201526040830151611fb6816117c3565b80604083015250606083015160608201526080830151608082015260a083015160a08201528091505092915050565b600060208284031215611ff757600080fd5b5051919050565b60006020828403121561201057600080fd5b8151610c80816117c3565b6000825161202d818460208701611c39565b919091019291505056fea2646970667358221220884a6e8a0879c442e2f606ce32e7dcbb995c6a9e7def5af564896f6af2545d3c64736f6c634300080d0033",
  "devdoc": {
    "kind": "dev",
    "methods": {
      "executeLiquidation(address[],address,address)": {
        "params": {
          "_swapper": "address of swapper contract, must follow ISwapper interface. If provided, it will be used for all users and all assets. If empty swapper will be chosen automatically for every asset based on registered swappers."
        }
      },
      "owner()": {
        "details": "Returns the address of the current owner."
      },
      "renounceOwnership()": {
        "details": "Leaves the contract without owner. It will not be possible to call `onlyOwner` functions anymore. Can only be called by the current owner. NOTE: Renouncing ownership will leave the contract without an owner, thereby removing any functionality that is only available to the owner."
      },
      "siloLiquidationCallback(address,address[],uint256[],uint256[],bytes)": {
        "details": "this is working example of how to perform liquidation, this method will be called by Silo         Keep in mind, that this helper might NOT choose the best swap option.         For best results (highest earnings) you probably want to implement your own callback and maybe use some         dex aggregators."
      },
      "transferOwnership(address)": {
        "details": "Transfers ownership of the contract to a new account (`newOwner`). Can only be called by the current owner."
      }
    },
    "version": 1
  },
  "userdoc": {
    "kind": "user",
    "methods": {},
    "notice": "LiquidationHelper IS NOT PART OF THE PROTOCOL. SILO CREATED THIS TOOL, MOSTLY AS AN EXAMPLE. see https://github.com/silo-finance/liquidation#readme for details how liquidation process should look like",
    "version": 1
  },
  "storageLayout": {
    "storage": [
      {
        "astId": 389,
        "contract": "contracts/liquidation/LiquidationHelper.sol:LiquidationHelper",
        "label": "_owner",
        "offset": 0,
        "slot": "0",
        "type": "t_address"
      },
      {
        "astId": 21315,
        "contract": "contracts/liquidation/LiquidationHelper.sol:LiquidationHelper",
        "label": "earnings",
        "offset": 0,
        "slot": "1",
        "type": "t_mapping(t_address,t_uint256)"
      },
      {
        "astId": 21321,
        "contract": "contracts/liquidation/LiquidationHelper.sol:LiquidationHelper",
        "label": "swappers",
        "offset": 0,
        "slot": "2",
        "type": "t_mapping(t_contract(IPriceProvider)17732,t_contract(ISwapper)18524)"
      },
      {
        "astId": 21325,
        "contract": "contracts/liquidation/LiquidationHelper.sol:LiquidationHelper",
        "label": "priceProvidersWithSwapOption",
        "offset": 0,
        "slot": "3",
        "type": "t_array(t_contract(IPriceProvider)17732)dyn_storage"
      }
    ],
    "types": {
      "t_address": {
        "encoding": "inplace",
        "label": "address",
        "numberOfBytes": "20"
      },
      "t_array(t_contract(IPriceProvider)17732)dyn_storage": {
        "base": "t_contract(IPriceProvider)17732",
        "encoding": "dynamic_array",
        "label": "contract IPriceProvider[]",
        "numberOfBytes": "32"
      },
      "t_contract(IPriceProvider)17732": {
        "encoding": "inplace",
        "label": "contract IPriceProvider",
        "numberOfBytes": "20"
      },
      "t_contract(ISwapper)18524": {
        "encoding": "inplace",
        "label": "contract ISwapper",
        "numberOfBytes": "20"
      },
      "t_mapping(t_address,t_uint256)": {
        "encoding": "mapping",
        "key": "t_address",
        "label": "mapping(address => uint256)",
        "numberOfBytes": "32",
        "value": "t_uint256"
      },
      "t_mapping(t_contract(IPriceProvider)17732,t_contract(ISwapper)18524)": {
        "encoding": "mapping",
        "key": "t_contract(IPriceProvider)17732",
        "label": "mapping(contract IPriceProvider => contract ISwapper)",
        "numberOfBytes": "32",
        "value": "t_contract(ISwapper)18524"
      },
      "t_uint256": {
        "encoding": "inplace",
        "label": "uint256",
        "numberOfBytes": "32"
      }
    }
  }
}