{
  "address": "0x91e94B6BA4e2D05D1427E6eE3873bcA7282Ce17d",
  "abi": [
    {
      "inputs": [
        {
          "internalType": "address",
          "name": "_repository",
          "type": "address"
        },
        {
          "internalType": "address",
          "name": "_chainlinkPriceProvider",
          "type": "address"
        },
        {
          "internalType": "address",
          "name": "_lens",
          "type": "address"
        },
        {
          "internalType": "contract IPriceProvider[]",
          "name": "_priceProvidersWithSwapOption",
          "type": "address[]"
        },
        {
          "internalType": "contract ISwapper[]",
          "name": "_swappers",
          "type": "address[]"
        },
        {
          "internalType": "uint256",
          "name": "_baseCost",
          "type": "uint256"
        }
      ],
      "stateMutability": "nonpayable",
      "type": "constructor"
    },
    {
      "inputs": [],
      "name": "ApprovalFailed",
      "type": "error"
    },
    {
      "inputs": [],
      "name": "InvalidSiloLens",
      "type": "error"
    },
    {
      "inputs": [],
      "name": "InvalidSiloRepository",
      "type": "error"
    },
    {
      "inputs": [
        {
          "internalType": "uint256",
          "name": "inTheRed",
          "type": "uint256"
        }
      ],
      "name": "LiquidationNotProfitable",
      "type": "error"
    },
    {
      "inputs": [],
      "name": "NotSilo",
      "type": "error"
    },
    {
      "inputs": [],
      "name": "PriceProviderNotFound",
      "type": "error"
    },
    {
      "inputs": [],
      "name": "RepayFailed",
      "type": "error"
    },
    {
      "inputs": [],
      "name": "SwapAmountInFailed",
      "type": "error"
    },
    {
      "inputs": [],
      "name": "SwapAmountOutFailed",
      "type": "error"
    },
    {
      "inputs": [],
      "name": "SwapperNotFound",
      "type": "error"
    },
    {
      "inputs": [],
      "name": "SwappersMustMatchProviders",
      "type": "error"
    },
    {
      "inputs": [],
      "name": "UsersMustMatchSilos",
      "type": "error"
    },
    {
      "anonymous": false,
      "inputs": [
        {
          "indexed": false,
          "internalType": "address",
          "name": "user",
          "type": "address"
        },
        {
          "indexed": false,
          "internalType": "uint256",
          "name": "quoteAmountFromCollaterals",
          "type": "uint256"
        },
        {
          "indexed": false,
          "internalType": "uint256",
          "name": "quoteLeftAfterRepay",
          "type": "uint256"
        }
      ],
      "name": "LiquidationBalance",
      "type": "event"
    },
    {
      "anonymous": false,
      "inputs": [
        {
          "indexed": true,
          "internalType": "address",
          "name": "previousOwner",
          "type": "address"
        },
        {
          "indexed": true,
          "internalType": "address",
          "name": "newOwner",
          "type": "address"
        }
      ],
      "name": "OwnershipTransferred",
      "type": "event"
    },
    {
      "inputs": [],
      "name": "chainlinkPriceProvider",
      "outputs": [
        {
          "internalType": "contract ChainlinkV3PriceProvider",
          "name": "",
          "type": "address"
        }
      ],
      "stateMutability": "view",
      "type": "function"
    },
    {
      "inputs": [
        {
          "internalType": "address[]",
          "name": "_users",
          "type": "address[]"
        },
        {
          "internalType": "contract ISilo[]",
          "name": "_silos",
          "type": "address[]"
        }
      ],
      "name": "checkDebt",
      "outputs": [
        {
          "internalType": "bool[]",
          "name": "",
          "type": "bool[]"
        }
      ],
      "stateMutability": "view",
      "type": "function"
    },
    {
      "inputs": [
        {
          "internalType": "address[]",
          "name": "_users",
          "type": "address[]"
        },
        {
          "internalType": "contract ISilo[]",
          "name": "_silos",
          "type": "address[]"
        }
      ],
      "name": "checkSolvency",
      "outputs": [
        {
          "internalType": "bool[]",
          "name": "",
          "type": "bool[]"
        }
      ],
      "stateMutability": "view",
      "type": "function"
    },
    {
      "inputs": [
        {
          "internalType": "address[]",
          "name": "_users",
          "type": "address[]"
        },
        {
          "internalType": "contract ISilo",
          "name": "_silo",
          "type": "address"
        },
        {
          "internalType": "address",
          "name": "",
          "type": "address"
        }
      ],
      "name": "executeLiquidation",
      "outputs": [],
      "stateMutability": "nonpayable",
      "type": "function"
    },
    {
      "inputs": [
        {
          "internalType": "address",
          "name": "_asset",
          "type": "address"
        }
      ],
      "name": "findPriceProvider",
      "outputs": [
        {
          "internalType": "contract IPriceProvider",
          "name": "",
          "type": "address"
        }
      ],
      "stateMutability": "view",
      "type": "function"
    },
    {
      "inputs": [],
      "name": "lens",
      "outputs": [
        {
          "internalType": "contract SiloLens",
          "name": "",
          "type": "address"
        }
      ],
      "stateMutability": "view",
      "type": "function"
    },
    {
      "inputs": [],
      "name": "owner",
      "outputs": [
        {
          "internalType": "address",
          "name": "",
          "type": "address"
        }
      ],
      "stateMutability": "view",
      "type": "function"
    },
    {
      "inputs": [],
      "name": "priceProvidersRepository",
      "outputs": [
        {
          "internalType": "contract IPriceProvidersRepository",
          "name": "",
          "type": "address"
        }
      ],
      "stateMutability": "view",
      "type": "function"
    },
    {
      "inputs": [],
      "name": "quoteToken",
      "outputs": [
        {
          "internalType": "contract IERC20",
          "name": "",
          "type": "address"
        }
      ],
      "stateMutability": "view",
      "type": "function"
    },
    {
      "inputs": [],
      "name": "renounceOwnership",
      "outputs": [],
      "stateMutability": "nonpayable",
      "type": "function"
    },
    {
      "inputs": [
        {
          "internalType": "contract IPriceProvider",
          "name": "_oracle",
          "type": "address"
        },
        {
          "internalType": "contract ISwapper",
          "name": "_swapper",
          "type": "address"
        }
      ],
      "name": "setSwapper",
      "outputs": [],
      "stateMutability": "nonpayable",
      "type": "function"
    },
    {
      "inputs": [
        {
          "internalType": "address",
          "name": "_user",
          "type": "address"
        },
        {
          "internalType": "address[]",
          "name": "_assets",
          "type": "address[]"
        },
        {
          "internalType": "uint256[]",
          "name": "_receivedCollaterals",
          "type": "uint256[]"
        },
        {
          "internalType": "uint256[]",
          "name": "_shareAmountsToRepaid",
          "type": "uint256[]"
        },
        {
          "internalType": "bytes",
          "name": "_flashReceiverData",
          "type": "bytes"
        }
      ],
      "name": "siloLiquidationCallback",
      "outputs": [],
      "stateMutability": "nonpayable",
      "type": "function"
    },
    {
      "inputs": [],
      "name": "siloRepository",
      "outputs": [
        {
          "internalType": "contract ISiloRepository",
          "name": "",
          "type": "address"
        }
      ],
      "stateMutability": "view",
      "type": "function"
    },
    {
      "inputs": [
        {
          "internalType": "contract IPriceProvider",
          "name": "",
          "type": "address"
        }
      ],
      "name": "swappers",
      "outputs": [
        {
          "internalType": "contract ISwapper",
          "name": "",
          "type": "address"
        }
      ],
      "stateMutability": "view",
      "type": "function"
    },
    {
      "inputs": [
        {
          "internalType": "address",
          "name": "newOwner",
          "type": "address"
        }
      ],
      "name": "transferOwnership",
      "outputs": [],
      "stateMutability": "nonpayable",
      "type": "function"
    },
    {
      "stateMutability": "payable",
      "type": "receive"
    }
  ],
  "transactionHash": "0x474bc387ebbfd1d5521d6a7bcab55402f3fd8e28cbfbbf55a5bcd2c1805283cb",
  "args": [
    "0xd998C35B7900b344bbBe6555cc11576942Cf309d",
    "0xc089aAb255242617C4f9D0eCDf5B18f6Db580C80",
    "0xf12C3758c1eC393704f0Db8537ef7F57368D92Ea",
    [
      "0x9D46F86516d6083ACA3F9850D060CB62CD0F6924",
      "0xFAe64471ae04068e872C6A73C9F5a255c37dDbDC",
      "0x2F1aA93249bcc0DF7d89739F86308c7a270F5EEd"
    ],
    [
      "0xff36fdF7DE2aa239b0295d406A6ca5c25c6c9e99",
      "0x96fBF6F0A431e64e05E22e5dBf6f1d92E5dda81f",
      "0xA40158686a5bDBe6C3Ea8a32F6e4E045C1C13F90"
    ],
    21000
  ],
  "numDeployments": 3,
  "solcInputHash": "58e414819972609827f63f42cce449be",
  "bytecode": "0x6101406040523480156200001257600080fd5b506040516200264438038062002644833981016040819052620000359162000479565b620000403362000299565b62000064846001600160a01b031663035054cd620002e960201b62000b4d1760201c565b620000825760405163778e646d60e11b815260040160405180910390fd5b620000a6866001600160a01b031663e99ed41d620002e960201b62000b4d1760201c565b620000c3576040516295241d60e21b815260040160405180910390fd5b8251825114620000e657604051638d4eb31b60e01b815260040160405180910390fd5b6001600160a01b0380871660a052841660e05260005b82518110156200019e578281815181106200011b576200011b62000595565b6020026020010151600160008684815181106200013c576200013c62000595565b60200260200101516001600160a01b03166001600160a01b0316815260200190815260200160002060006101000a8154816001600160a01b0302191690836001600160a01b0316021790555080806200019590620005ab565b915050620000fc565b50856001600160a01b0316635ddf2be36040518163ffffffff1660e01b8152600401602060405180830381865afa158015620001de573d6000803e3d6000fd5b505050506040513d601f19601f82011682018060405250810190620002049190620005d3565b6001600160a01b0390811660c08190529086166101205260408051630217a4b760e41b8152905163217a4b70916004808201926020929091908290030181865afa15801562000257573d6000803e3d6000fd5b505050506040513d601f19601f820116820180604052508101906200027d9190620005d3565b6001600160a01b031661010052608052506200061f9350505050565b600080546001600160a01b038381166001600160a01b0319831681178455604051919092169283917f8be0079c531659141344cd1fd0a4f28419497f9722a3daafe3b4186f6b6457e09190a35050565b60006001600160a01b038316158015906200036c575082826040518163ffffffff1660e01b8152600401602060405180830381865afa15801562000331573d6000803e3d6000fd5b505050506040513d601f19601f82011682018060405250810190620003579190620005f3565b60e083901b6001600160e01b03199081169116145b9392505050565b6001600160a01b03811681146200038957600080fd5b50565b634e487b7160e01b600052604160045260246000fd5b604051601f8201601f191681016001600160401b0381118282101715620003cd57620003cd6200038c565b604052919050565b60006001600160401b03821115620003f157620003f16200038c565b5060051b60200190565b600082601f8301126200040d57600080fd5b81516020620004266200042083620003d5565b620003a2565b82815260059290921b840181019181810190868411156200044657600080fd5b8286015b848110156200046e578051620004608162000373565b83529183019183016200044a565b509695505050505050565b60008060008060008060c087890312156200049357600080fd5b8651620004a08162000373565b80965050602080880151620004b58162000373565b6040890151909650620004c88162000373565b60608901519095506001600160401b0380821115620004e657600080fd5b818a0191508a601f830112620004fb57600080fd5b81516200050c6200042082620003d5565b81815260059190911b8301840190848101908d8311156200052c57600080fd5b938501935b8285101562000557578451620005478162000373565b8252938501939085019062000531565b60808d015190985094505050808311156200057157600080fd5b50506200058189828a01620003fb565b92505060a087015190509295509295509295565b634e487b7160e01b600052603260045260246000fd5b600060018201620005cc57634e487b7160e01b600052601160045260246000fd5b5060010190565b600060208284031215620005e657600080fd5b81516200036c8162000373565b6000602082840312156200060657600080fd5b81516001600160e01b0319811681146200036c57600080fd5b60805160a05160c05160e0516101005161012051611f81620006c36000396000818161027f015281816105b1015261060701526000818161018c0152818161097801528181611136015281816111990152818161132c0152818161137b01528181611466015261152d01526000818161014001526103cd0152600081816101c001526105420152600081816102b30152610cae015260006108db0152611f816000f3fe6080604052600436106100ec5760003560e01c806394fa3add1161008a578063dde6430311610059578063dde64303146102f5578063e7b43da514610315578063effca70514610335578063f2fde38b1461035557600080fd5b806394fa3add1461024d578063b74d8d721461026d578063bde12718146102a1578063beed5add146102d557600080fd5b80635ddf2be3116100c65780635ddf2be3146101ae578063715018a6146101e25780638cad7fbe146101f95780638da5cb5b1461022f57600080fd5b806303a69c9a146100f8578063112666b71461012e578063217a4b701461017a57600080fd5b366100f357005b600080fd5b34801561010457600080fd5b50610118610113366004611779565b610375565b604051610125919061183b565b60405180910390f35b34801561013a57600080fd5b506101627f000000000000000000000000000000000000000000000000000000000000000081565b6040516001600160a01b039091168152602001610125565b34801561018657600080fd5b506101627f000000000000000000000000000000000000000000000000000000000000000081565b3480156101ba57600080fd5b506101627f000000000000000000000000000000000000000000000000000000000000000081565b3480156101ee57600080fd5b506101f76104df565b005b34801561020557600080fd5b50610162610214366004611881565b6001602052600090815260409020546001600160a01b031681565b34801561023b57600080fd5b506000546001600160a01b0316610162565b34801561025957600080fd5b50610162610268366004611881565b61051e565b34801561027957600080fd5b506101627f000000000000000000000000000000000000000000000000000000000000000081565b3480156102ad57600080fd5b506101627f000000000000000000000000000000000000000000000000000000000000000081565b3480156102e157600080fd5b506101f76102f03660046118ea565b61069c565b34801561030157600080fd5b50610118610310366004611779565b610743565b34801561032157600080fd5b506101f7610330366004611952565b61089d565b34801561034157600080fd5b506101f7610350366004611a78565b610a5a565b34801561036157600080fd5b506101f7610370366004611881565b610ab2565b60606000835167ffffffffffffffff81111561039357610393611690565b6040519080825280602002602001820160405280156103bc578160200160208202803683370190505b50905060005b84518110156104d5577f00000000000000000000000000000000000000000000000000000000000000006001600160a01b0316638705c35985838151811061040c5761040c611ab1565b602002602001015187848151811061042657610426611ab1565b60200260200101516040518363ffffffff1660e01b81526004016104609291906001600160a01b0392831681529116602082015260400190565b602060405180830381865afa15801561047d573d6000803e3d6000fd5b505050506040513d601f19601f820116820180604052508101906104a19190611ac7565b8282815181106104b3576104b3611ab1565b91151560209283029190910190910152806104cd81611aff565b9150506103c2565b5090505b92915050565b6000546001600160a01b031633146105125760405162461bcd60e51b815260040161050990611b18565b60405180910390fd5b61051c6000610bd3565b565b604051635d54e39560e01b81526001600160a01b03828116600483015260009182917f00000000000000000000000000000000000000000000000000000000000000001690635d54e39590602401602060405180830381865afa158015610589573d6000803e3d6000fd5b505050506040513d601f19601f820116820180604052508101906105ad9190611b4d565b90507f00000000000000000000000000000000000000000000000000000000000000006001600160a01b0316816001600160a01b0316036106755760405163db09c3fd60e01b81526001600160a01b0384811660048301527f0000000000000000000000000000000000000000000000000000000000000000169063db09c3fd90602401602060405180830381865afa15801561064e573d6000803e3d6000fd5b505050506040513d601f19601f820116820180604052508101906106729190611b4d565b90505b6001600160a01b0381166104d957604051637de7a71560e11b815260040160405180910390fd5b60005a9050826001600160a01b03166393a94ca38686846040516020016106c591815260200190565b6040516020818303038152906040526040518463ffffffff1660e01b81526004016106f293929190611bc6565b6000604051808303816000875af1158015610711573d6000803e3d6000fd5b505050506040513d6000823e601f3d908101601f191682016040526107399190810190611d08565b5050505050505050565b606081518351146107675760405163fedad93960e01b815260040160405180910390fd5b6000835167ffffffffffffffff81111561078357610783611690565b6040519080825280602002602001820160405280156107ac578160200160208202803683370190505b50905060005b84518110156104d5578381815181106107cd576107cd611ab1565b60200260200101516001600160a01b03166338b51ce18683815181106107f5576107f5611ab1565b60200260200101516040518263ffffffff1660e01b815260040161082891906001600160a01b0391909116815260200190565b602060405180830381865afa158015610845573d6000803e3d6000fd5b505050506040513d601f19601f820116820180604052508101906108699190611ac7565b82828151811061087b5761087b611ab1565b911515602092830291909101909101528061089581611aff565b9150506107b2565b6000818060200190518101906108b39190611df1565b905060006108c389898989610c23565b905060006108d5338c8c8c8a8a610c8c565b905060007f00000000000000000000000000000000000000000000000000000000000000005a6109059086611e0a565b61090f9190611e0a565b90508261091c8284611e21565b1115610953578261092d8284611e21565b6109379190611e0a565b60405163e1c4c60560e01b815260040161050991815260200190565b600061095f8385611e0a565b604051632e1a7d4d60e01b8152600481018290529091507f00000000000000000000000000000000000000000000000000000000000000006001600160a01b031690632e1a7d4d90602401600060405180830381600087803b1580156109c457600080fd5b505af11580156109d8573d6000803e3d6000fd5b50505050610a01816109f26000546001600160a01b031690565b6001600160a01b03169061100c565b604080516001600160a01b038f168152602081018690529081018290527f543a34fd37c620d14976aef24c3f0d9632592a2b79e91d06e83b08ed1dcd20769060600160405180910390a150505050505050505050505050565b6000546001600160a01b03163314610a845760405162461bcd60e51b815260040161050990611b18565b6001600160a01b03918216600090815260016020526040902080546001600160a01b03191691909216179055565b6000546001600160a01b03163314610adc5760405162461bcd60e51b815260040161050990611b18565b6001600160a01b038116610b415760405162461bcd60e51b815260206004820152602660248201527f4f776e61626c653a206e6577206f776e657220697320746865207a65726f206160448201526564647265737360d01b6064820152608401610509565b610b4a81610bd3565b50565b60006001600160a01b03831615801590610bcc575082826040518163ffffffff1660e01b8152600401602060405180830381865afa158015610b93573d6000803e3d6000fd5b505050506040513d601f19601f82011682018060405250810190610bb79190611e39565b60e083901b6001600160e01b03199081169116145b9392505050565b600080546001600160a01b038381166001600160a01b0319831681178455604051919092169283917f8be0079c531659141344cd1fd0a4f28419497f9722a3daafe3b4186f6b6457e09190a35050565b6000805b84811015610c8357610c77868683818110610c4457610c44611ab1565b9050602002016020810190610c599190611881565b858584818110610c6b57610c6b611ab1565b9050602002013561112a565b90910190600101610c27565b50949350505050565b60405163025e1b9b60e31b81526001600160a01b0387811660048301526000917f0000000000000000000000000000000000000000000000000000000000000000909116906312f0dcd890602401602060405180830381865afa158015610cf7573d6000803e3d6000fd5b505050506040513d601f19601f82011682018060405250810190610d1b9190611ac7565b610d385760405163a812ea3160e01b815260040160405180910390fd5b60005b8481101561100157838382818110610d5557610d55611ab1565b9050602002013560000315610fef57610dac868683818110610d7957610d79611ab1565b9050602002016020810190610d8e9190611881565b858584818110610da057610da0611ab1565b90506020020135611316565b82019150610df9868683818110610dc557610dc5611ab1565b9050602002016020810190610dda9190611881565b89868685818110610ded57610ded611ab1565b90506020020135611575565b876001600160a01b031663976ce495878784818110610e1a57610e1a611ab1565b9050602002016020810190610e2f9190611881565b89878786818110610e4257610e42611ab1565b6040516001600160e01b031960e088901b1681526001600160a01b0395861660048201529490931660248501525060209091020135604482015260640160408051808303816000875af1158015610e9d573d6000803e3d6000fd5b505050506040513d601f19601f82011682018060405250810190610ec19190611e63565b5050876001600160a01b031663bf273041878784818110610ee457610ee4611ab1565b9050602002016020810190610ef99190611881565b6040516001600160e01b031960e084901b1681526001600160a01b03909116600482015260240160c060405180830381865afa158015610f3d573d6000803e3d6000fd5b505050506040513d601f19601f82011682018060405250810190610f619190611e87565b60409081015190516370a0823160e01b81526001600160a01b038981166004830152909116906370a0823190602401602060405180830381865afa158015610fad573d6000803e3d6000fd5b505050506040513d601f19601f82011682018060405250810190610fd19190611df1565b15610fef57604051639e703a0560e01b815260040160405180910390fd5b80610ff981611aff565b915050610d3b565b509695505050505050565b8047101561105c5760405162461bcd60e51b815260206004820152601d60248201527f416464726573733a20696e73756666696369656e742062616c616e63650000006044820152606401610509565b6000826001600160a01b03168260405160006040518083038185875af1925050503d80600081146110a9576040519150601f19603f3d011682016040523d82523d6000602084013e6110ae565b606091505b50509050806111255760405162461bcd60e51b815260206004820152603a60248201527f416464726573733a20756e61626c6520746f2073656e642076616c75652c207260448201527f6563697069656e74206d617920686176652072657665727465640000000000006064820152608401610509565b505050565b600081158061116a57507f00000000000000000000000000000000000000000000000000000000000000006001600160a01b0316836001600160a01b0316145b156111765750806104d9565b60008061118285611605565b6040516001600160a01b03808916602483018190527f00000000000000000000000000000000000000000000000000000000000000008216604484015260648301899052908416608483015260a4820152919350915060009060c40160408051601f19818403018152918152602080830180516001600160e01b0316639cffaf6f60e01b1790528151636d9b759760e11b8152915192935061127a9289926001600160a01b0387169263db36eb2e926004808401938290030181865afa158015611250573d6000803e3d6000fd5b505050506040513d601f19601f820116820180604052508101906112749190611b4d565b87611575565b600080836001600160a01b0316836040516112959190611f1c565b600060405180830381855af49150503d80600081146112d0576040519150601f19603f3d011682016040523d82523d6000602084013e6112d5565b606091505b5091509150811580156112e9575060008151115b156112f657805181602001fd5b8080602001905181019061130a9190611df1565b98975050505050505050565b60008115806113565750826001600160a01b03167f00000000000000000000000000000000000000000000000000000000000000006001600160a01b0316145b156113625750806104d9565b60008061136e85611605565b6040516001600160a01b037f0000000000000000000000000000000000000000000000000000000000000000811660248301528089166044830181905260648301899052908416608483015260a4820152919350915060009060c40160408051601f19818403018152918152602080830180516001600160e01b03166305a319ad60e21b1790528151636d9b759760e11b815291519293506000926001600160a01b0386169263db36eb2e9260048083019391928290030181865afa15801561143b573d6000803e3d6000fd5b505050506040513d601f19601f8201168201806040525081019061145f9190611b4d565b905061148e7f000000000000000000000000000000000000000000000000000000000000000082600019611575565b600080846001600160a01b0316846040516114a99190611f1c565b600060405180830381855af49150503d80600081146114e4576040519150601f19603f3d011682016040523d82523d6000602084013e6114e9565b606091505b5091509150816115285760408051808201909152601381527214ddd85c105b5bdd5b9d13dd5d11985a5b1959606a1b602082015261152890829061162c565b6115547f0000000000000000000000000000000000000000000000000000000000000000846000611575565b808060200190518101906115689190611df1565b9998505050505050505050565b60405163095ea7b360e01b81526001600160a01b0383811660048301526024820183905284169063095ea7b3906044016020604051808303816000875af11580156115c4573d6000803e3d6000fd5b505050506040513d601f19601f820116820180604052508101906115e89190611ac7565b611125576040516340b27c2160e11b815260040160405180910390fd5b60008060006116138461051e565b9050600061162082611655565b91959194509092505050565b81511561163b57815182602001fd5b8060405162461bcd60e51b81526004016105099190611f38565b6001600160a01b03808216600090815260016020526040812054909116806104d957604051636ce6ae9b60e11b815260040160405180910390fd5b634e487b7160e01b600052604160045260246000fd5b604051601f8201601f1916810167ffffffffffffffff811182821017156116cf576116cf611690565b604052919050565b600067ffffffffffffffff8211156116f1576116f1611690565b5060051b60200190565b6001600160a01b0381168114610b4a57600080fd5b600082601f83011261172157600080fd5b81356020611736611731836116d7565b6116a6565b82815260059290921b8401810191818101908684111561175557600080fd5b8286015b8481101561100157803561176c816116fb565b8352918301918301611759565b6000806040838503121561178c57600080fd5b823567ffffffffffffffff808211156117a457600080fd5b818501915085601f8301126117b857600080fd5b813560206117c8611731836116d7565b82815260059290921b840181019181810190898411156117e757600080fd5b948201945b8386101561180e5785356117ff816116fb565b825294820194908201906117ec565b9650508601359250508082111561182457600080fd5b5061183185828601611710565b9150509250929050565b6020808252825182820181905260009190848201906040850190845b81811015611875578351151583529284019291840191600101611857565b50909695505050505050565b60006020828403121561189357600080fd5b8135610bcc816116fb565b60008083601f8401126118b057600080fd5b50813567ffffffffffffffff8111156118c857600080fd5b6020830191508360208260051b85010111156118e357600080fd5b9250929050565b6000806000806060858703121561190057600080fd5b843567ffffffffffffffff81111561191757600080fd5b6119238782880161189e565b9095509350506020850135611937816116fb565b91506040850135611947816116fb565b939692955090935050565b60008060008060008060008060a0898b03121561196e57600080fd5b8835611979816116fb565b975060208981013567ffffffffffffffff8082111561199757600080fd5b6119a38d838e0161189e565b909a50985060408c01359150808211156119bc57600080fd5b6119c88d838e0161189e565b909850965060608c01359150808211156119e157600080fd5b6119ed8d838e0161189e565b909650945060808c0135915080821115611a0657600080fd5b818c0191508c601f830112611a1a57600080fd5b813581811115611a2c57611a2c611690565b611a3e601f8201601f191685016116a6565b91508082528d84828501011115611a5457600080fd5b80848401858401376000848284010152508093505050509295985092959890939650565b60008060408385031215611a8b57600080fd5b8235611a96816116fb565b91506020830135611aa6816116fb565b809150509250929050565b634e487b7160e01b600052603260045260246000fd5b600060208284031215611ad957600080fd5b81518015158114610bcc57600080fd5b634e487b7160e01b600052601160045260246000fd5b600060018201611b1157611b11611ae9565b5060010190565b6020808252818101527f4f776e61626c653a2063616c6c6572206973206e6f7420746865206f776e6572604082015260600190565b600060208284031215611b5f57600080fd5b8151610bcc816116fb565b60005b83811015611b85578181015183820152602001611b6d565b83811115611b94576000848401525b50505050565b60008151808452611bb2816020860160208601611b6a565b601f01601f19169290920160200192915050565b6040808252810183905260008460608301825b86811015611c09578235611bec816116fb565b6001600160a01b0316825260209283019290910190600101611bd9565b508381036020850152611c1c8186611b9a565b979650505050505050565b600082601f830112611c3857600080fd5b81516020611c48611731836116d7565b828152600592831b8501820192828201919087851115611c6757600080fd5b8387015b85811015611cfb57805167ffffffffffffffff811115611c8b5760008081fd5b8801603f81018a13611c9d5760008081fd5b858101516040611caf611731836116d7565b82815291851b8301810191888101908d841115611ccc5760008081fd5b938201935b83851015611cea57845182529389019390890190611cd1565b885250505093850193508401611c6b565b5090979650505050505050565b600080600060608486031215611d1d57600080fd5b835167ffffffffffffffff80821115611d3557600080fd5b818601915086601f830112611d4957600080fd5b81516020611d59611731836116d7565b82815260059290921b8401810191818101908a841115611d7857600080fd5b948201945b83861015611d9f578551611d90816116fb565b82529482019490820190611d7d565b91890151919750909350505080821115611db857600080fd5b611dc487838801611c27565b93506040860151915080821115611dda57600080fd5b50611de786828701611c27565b9150509250925092565b600060208284031215611e0357600080fd5b5051919050565b600082821015611e1c57611e1c611ae9565b500390565b60008219821115611e3457611e34611ae9565b500190565b600060208284031215611e4b57600080fd5b81516001600160e01b031981168114610bcc57600080fd5b60008060408385031215611e7657600080fd5b505080516020909101519092909150565b600060c08284031215611e9957600080fd5b60405160c0810181811067ffffffffffffffff82111715611ebc57611ebc611690565b6040528251611eca816116fb565b81526020830151611eda816116fb565b60208201526040830151611eed816116fb565b80604083015250606083015160608201526080830151608082015260a083015160a08201528091505092915050565b60008251611f2e818460208701611b6a565b9190910192915050565b602081526000610bcc6020830184611b9a56fea26469706673582212204a434e77b394b026b0623cf6b50f9d3168654afc4d6833d2cc69bc8c0a76815064736f6c634300080d0033",
  "devdoc": {
    "kind": "dev",
    "methods": {
      "owner()": {
        "details": "Returns the address of the current owner."
      },
      "renounceOwnership()": {
        "details": "Leaves the contract without owner. It will not be possible to call `onlyOwner` functions anymore. Can only be called by the current owner. NOTE: Renouncing ownership will leave the contract without an owner, thereby removing any functionality that is only available to the owner."
      },
      "siloLiquidationCallback(address,address[],uint256[],uint256[],bytes)": {
        "details": "this is working example of how to perform liquidation, this method will be called by Silo         Keep in mind, that this helper might NOT choose the best swap option.         For best results (highest earnings) you probably want to implement your own callback and maybe use some         dex aggregators."
      },
      "transferOwnership(address)": {
        "details": "Transfers ownership of the contract to a new account (`newOwner`). Can only be called by the current owner."
      }
    },
    "version": 1
  },
  "userdoc": {
    "kind": "user",
    "methods": {},
    "notice": "LiquidationHelper IS NOT PART OF THE PROTOCOL. SILO CREATED THIS TOOL, MOSTLY AS AN EXAMPLE. see https://github.com/silo-finance/liquidation#readme for details how liquidation process should look like",
    "version": 1
  },
  "storageLayout": {
    "storage": [
      {
        "astId": 435,
        "contract": "contracts/liquidation/LiquidationHelper.sol:LiquidationHelper",
        "label": "_owner",
        "offset": 0,
        "slot": "0",
        "type": "t_address"
      },
      {
        "astId": 21756,
        "contract": "contracts/liquidation/LiquidationHelper.sol:LiquidationHelper",
        "label": "swappers",
        "offset": 0,
        "slot": "1",
        "type": "t_mapping(t_contract(IPriceProvider)18145,t_contract(ISwapper)18937)"
      }
    ],
    "types": {
      "t_address": {
        "encoding": "inplace",
        "label": "address",
        "numberOfBytes": "20"
      },
      "t_contract(IPriceProvider)18145": {
        "encoding": "inplace",
        "label": "contract IPriceProvider",
        "numberOfBytes": "20"
      },
      "t_contract(ISwapper)18937": {
        "encoding": "inplace",
        "label": "contract ISwapper",
        "numberOfBytes": "20"
      },
      "t_mapping(t_contract(IPriceProvider)18145,t_contract(ISwapper)18937)": {
        "encoding": "mapping",
        "key": "t_contract(IPriceProvider)18145",
        "label": "mapping(contract IPriceProvider => contract ISwapper)",
        "numberOfBytes": "32",
        "value": "t_contract(ISwapper)18937"
      }
    }
  }
}