{
  "address": "0x1f6285e2e03832A6F01c2b3d4AC5cb5B73817fBD",
  "abi": [
    {
      "inputs": [],
      "stateMutability": "nonpayable",
      "type": "constructor"
    },
    {
      "inputs": [],
      "name": "InvalidAsset",
      "type": "error"
    },
    {
      "inputs": [],
      "name": "Unsupported",
      "type": "error"
    },
    {
      "inputs": [],
      "name": "BALANCER_VAULT",
      "outputs": [
        {
          "internalType": "address",
          "name": "",
          "type": "address"
        }
      ],
      "stateMutability": "view",
      "type": "function"
    },
    {
      "inputs": [],
      "name": "EZETH",
      "outputs": [
        {
          "internalType": "address",
          "name": "",
          "type": "address"
        }
      ],
      "stateMutability": "view",
      "type": "function"
    },
    {
      "inputs": [],
      "name": "EZETH_BALANCE_POOL_ID",
      "outputs": [
        {
          "internalType": "bytes32",
          "name": "",
          "type": "bytes32"
        }
      ],
      "stateMutability": "view",
      "type": "function"
    },
    {
      "inputs": [],
      "name": "PENDLE_MARKET",
      "outputs": [
        {
          "internalType": "address",
          "name": "",
          "type": "address"
        }
      ],
      "stateMutability": "view",
      "type": "function"
    },
    {
      "inputs": [],
      "name": "PENDLE_TOKEN",
      "outputs": [
        {
          "internalType": "address",
          "name": "",
          "type": "address"
        }
      ],
      "stateMutability": "view",
      "type": "function"
    },
    {
      "inputs": [],
      "name": "RSWETH",
      "outputs": [
        {
          "internalType": "address",
          "name": "",
          "type": "address"
        }
      ],
      "stateMutability": "view",
      "type": "function"
    },
    {
      "inputs": [],
      "name": "RSW_BALANCE_POOL_ID",
      "outputs": [
        {
          "internalType": "bytes32",
          "name": "",
          "type": "bytes32"
        }
      ],
      "stateMutability": "view",
      "type": "function"
    },
    {
      "inputs": [],
      "name": "WETH",
      "outputs": [
        {
          "internalType": "address",
          "name": "",
          "type": "address"
        }
      ],
      "stateMutability": "view",
      "type": "function"
    },
    {
      "inputs": [
        {
          "internalType": "address",
          "name": "",
          "type": "address"
        },
        {
          "internalType": "uint256",
          "name": "",
          "type": "uint256"
        }
      ],
      "name": "towardsAsset",
      "outputs": [
        {
          "internalType": "address",
          "name": "",
          "type": "address"
        },
        {
          "internalType": "uint256",
          "name": "",
          "type": "uint256"
        }
      ],
      "stateMutability": "pure",
      "type": "function"
    },
    {
      "inputs": [
        {
          "internalType": "address",
          "name": "_asset",
          "type": "address"
        },
        {
          "internalType": "uint256",
          "name": "_amount",
          "type": "uint256"
        }
      ],
      "name": "towardsNative",
      "outputs": [
        {
          "internalType": "address",
          "name": "asset",
          "type": "address"
        },
        {
          "internalType": "uint256",
          "name": "amount",
          "type": "uint256"
        }
      ],
      "stateMutability": "nonpayable",
      "type": "function"
    }
  ],
  "transactionHash": "0x8453cf3314503fdc8a98212c1c21f7db5ee7e875d6d1b972cd40e24b66b08bf1",
  "args": [],
  "numDeployments": 1,
  "solcInputHash": "f6f5fc84835521d99925df1380f99edf",
  "bytecode": "0x60c060405234801561001057600080fd5b50735cb12d56f5346a016dbba8ca90635d82e6d1bcea60805273a9355a5d306c67027c54de0e5a72df76befa569460a05260805160a051610bfd6100816000396000818160a8015281816104a701528181610682015261071001526000818161011e01526102200152610bfd6000f3fe608060405234801561001057600080fd5b506004361061009e5760003560e01c8063ad5c464811610066578063ad5c46481461016e578063bc16384614610189578063d70d0e0f146101a4578063e167565a146101d9578063fb3a49981461020057600080fd5b80630f61ac82146100a357806321ebbf01146100e7578063277efdce1461011957806358fe922d146101405780636ea477da1461015b575b600080fd5b6100ca7f000000000000000000000000000000000000000000000000000000000000000081565b6040516001600160a01b0390911681526020015b60405180910390f35b6100fa6100f5366004610977565b61021b565b604080516001600160a01b0390931683526020830191909152016100de565b6100ca7f000000000000000000000000000000000000000000000000000000000000000081565b6100ca73bf5495efe5db9ce00f80364c8b423567e58d211081565b6100fa610169366004610977565b610483565b6100ca73c02aaa39b223fe8d0a0e5c4f27ead9083c756cc281565b6100ca73ba12222222228d8ba445958a75a0704d566bf2c881565b6101cb7f848a5564158d84b8a8fb68ab5d004fae11619a5400000000000000000000066a81565b6040519081526020016100de565b6101cb7f596192bb6e41802428ac943d2f1476c1af25cc0e00000000000000000000065981565b6100ca73fae103dc9cf190ed75350761e95403b7b8afa6c081565b6000807f00000000000000000000000000000000000000000000000000000000000000006001600160a01b0316846001600160a01b03161461027057604051636448d6e960e11b815260040160405180910390fd5b60006102908473fae103dc9cf190ed75350761e95403b7b8afa6c061049f565b60405163095ea7b360e01b815273ba12222222228d8ba445958a75a0704d566bf2c860048201526024810182905290915073fae103dc9cf190ed75350761e95403b7b8afa6c09063095ea7b3906044016020604051808303816000875af11580156102ff573d6000803e3d6000fd5b505050506040513d601f19601f8201168201806040525081019061032391906109a3565b50600061037a827f848a5564158d84b8a8fb68ab5d004fae11619a5400000000000000000000066a73fae103dc9cf190ed75350761e95403b7b8afa6c073bf5495efe5db9ce00f80364c8b423567e58d2110610822565b60405163095ea7b360e01b815273ba12222222228d8ba445958a75a0704d566bf2c860048201526024810182905290915073bf5495efe5db9ce00f80364c8b423567e58d21109063095ea7b3906044016020604051808303816000875af11580156103e9573d6000803e3d6000fd5b505050506040513d601f19601f8201168201806040525081019061040d91906109a3565b50610462817f596192bb6e41802428ac943d2f1476c1af25cc0e00000000000000000000065973bf5495efe5db9ce00f80364c8b423567e58d211073c02aaa39b223fe8d0a0e5c4f27ead9083c756cc2610822565b73c02aaa39b223fe8d0a0e5c4f27ead9083c756cc297909650945050505050565b600080604051634851657960e11b815260040160405180910390fd5b6000806000807f00000000000000000000000000000000000000000000000000000000000000006001600160a01b0316632c8ce6bc6040518163ffffffff1660e01b8152600401606060405180830381865afa158015610503573d6000803e3d6000fd5b505050506040513d601f19601f8201168201806040525081019061052791906109cc565b9250925092506000826001600160a01b0316632f13b60c6040518163ffffffff1660e01b8152600401602060405180830381865afa15801561056d573d6000803e3d6000fd5b505050506040513d601f19601f8201168201806040525081019061059191906109a3565b1561066b5760405163a9059cbb60e01b81526001600160a01b0383811660048301526024820189905284169063a9059cbb90604401600060405180830381600087803b1580156105e057600080fd5b505af11580156105f4573d6000803e3d6000fd5b505060405163bcb7ea5d60e01b81526001600160a01b0387811660048301528516925063bcb7ea5d91506024016020604051808303816000875af1158015610640573d6000803e3d6000fd5b505050506040513d601f19601f820116820180604052508101906106649190610a19565b9050610790565b60405163a9059cbb60e01b81526001600160a01b037f0000000000000000000000000000000000000000000000000000000000000000811660048301526024820189905284169063a9059cbb90604401600060405180830381600087803b1580156106d557600080fd5b505af11580156106e9573d6000803e3d6000fd5b5050604080516000815260208101918290526329910b1160e01b9091526001600160a01b037f00000000000000000000000000000000000000000000000000000000000000001692506329910b11915061074a9087908b9060248101610a7f565b60408051808303816000875af1158015610768573d6000803e3d6000fd5b505050506040513d601f19601f8201168201806040525081019061078c9190610aaf565b5090505b60405163769f8e5d60e01b8152306004820152602481018290526001600160a01b038781166044830152600060648301526001608483015285169063769f8e5d9060a4016020604051808303816000875af11580156107f3573d6000803e3d6000fd5b505050506040513d601f19601f820116820180604052508101906108179190610a19565b979650505050505050565b6000806040518060c001604052808681526020016000600181111561084957610849610ad3565b8152602001856001600160a01b03168152602001846001600160a01b0316815260200187815260200160405180602001604052806000815250815250905060006040518060800160405280306001600160a01b03168152602001600015158152602001306001600160a01b0316815260200160001515815250905060006001905073ba12222222228d8ba445958a75a0704d566bf2c86001600160a01b03166352bbbe29848484426040518563ffffffff1660e01b81526004016109109493929190610ae9565b6020604051808303816000875af115801561092f573d6000803e3d6000fd5b505050506040513d601f19601f820116820180604052508101906109539190610a19565b98975050505050505050565b6001600160a01b038116811461097457600080fd5b50565b6000806040838503121561098a57600080fd5b82356109958161095f565b946020939093013593505050565b6000602082840312156109b557600080fd5b815180151581146109c557600080fd5b9392505050565b6000806000606084860312156109e157600080fd5b83516109ec8161095f565b60208501519093506109fd8161095f565b6040850151909250610a0e8161095f565b809150509250925092565b600060208284031215610a2b57600080fd5b5051919050565b6000815180845260005b81811015610a5857602081850181015186830182015201610a3c565b81811115610a6a576000602083870101525b50601f01601f19169290920160200192915050565b60018060a01b0384168152826020820152606060408201526000610aa66060830184610a32565b95945050505050565b60008060408385031215610ac257600080fd5b505080516020909101519092909150565b634e487b7160e01b600052602160045260246000fd5b60e08152845160e08201526000602086015160028110610b1957634e487b7160e01b600052602160045260246000fd5b61010083015260408601516001600160a01b03166101208301526060860151610b4e6101408401826001600160a01b03169052565b50608086015161016083015260a086015160c0610180840152610b756101a0840182610a32565b915050610bb5602083018680516001600160a01b039081168352602080830151151590840152604080830151909116908301526060908101511515910152565b60a082019390935260c001529291505056fea26469706673582212207e055f131bc2e7c179309405c5a95a93084dd1d1332835e2f83499fa3697a96c64736f6c634300080d0033",
  "devdoc": {
    "kind": "dev",
    "methods": {
      "towardsAsset(address,uint256)": {
        "params": {
          "_amount": "Amount of the `_asset`",
          "_asset": "Asset to be wrapped"
        },
        "returns": {
          "_0": "A token that the `_asset` has been converted to",
          "_1": "Amount of the quote token that we spent to get `_amoun` of the `_asset`"
        }
      },
      "towardsNative(address,uint256)": {
        "params": {
          "_amount": "Amount of the `_asset`",
          "_asset": "Asset to be unwrapped"
        },
        "returns": {
          "amount": "Amount of the `tokenOut` that we received",
          "asset": "A token that the `_asset` has been converted to"
        }
      }
    },
    "version": 1
  },
  "userdoc": {
    "kind": "user",
    "methods": {
      "towardsAsset(address,uint256)": {
        "notice": "Performs operation opposit to `towardsNative`"
      },
      "towardsNative(address,uint256)": {
        "notice": "Operates to unwrap an `_asset`"
      }
    },
    "version": 1
  },
  "storageLayout": {
    "storage": [],
    "types": null
  }
}