{
  "address": "0x375037Cc9168c0ee3E5Ec561035802dBe17a5B3c",
  "abi": [
    {
      "inputs": [],
      "stateMutability": "nonpayable",
      "type": "constructor"
    },
    {
      "inputs": [],
      "name": "InvalidAsset",
      "type": "error"
    },
    {
      "inputs": [],
      "name": "Unsupported",
      "type": "error"
    },
    {
      "inputs": [],
      "name": "PENDLE_MARKET",
      "outputs": [
        {
          "internalType": "address",
          "name": "",
          "type": "address"
        }
      ],
      "stateMutability": "view",
      "type": "function"
    },
    {
      "inputs": [],
      "name": "PENDLE_TOKEN",
      "outputs": [
        {
          "internalType": "address",
          "name": "",
          "type": "address"
        }
      ],
      "stateMutability": "view",
      "type": "function"
    },
    {
      "inputs": [],
      "name": "POOL_ID",
      "outputs": [
        {
          "internalType": "bytes32",
          "name": "",
          "type": "bytes32"
        }
      ],
      "stateMutability": "view",
      "type": "function"
    },
    {
      "inputs": [],
      "name": "UNDERLYING",
      "outputs": [
        {
          "internalType": "address",
          "name": "",
          "type": "address"
        }
      ],
      "stateMutability": "view",
      "type": "function"
    },
    {
      "inputs": [],
      "name": "VAULT",
      "outputs": [
        {
          "internalType": "address",
          "name": "",
          "type": "address"
        }
      ],
      "stateMutability": "view",
      "type": "function"
    },
    {
      "inputs": [],
      "name": "WETH",
      "outputs": [
        {
          "internalType": "address",
          "name": "",
          "type": "address"
        }
      ],
      "stateMutability": "view",
      "type": "function"
    },
    {
      "inputs": [
        {
          "internalType": "address",
          "name": "",
          "type": "address"
        },
        {
          "internalType": "uint256",
          "name": "",
          "type": "uint256"
        }
      ],
      "name": "towardsAsset",
      "outputs": [
        {
          "internalType": "address",
          "name": "",
          "type": "address"
        },
        {
          "internalType": "uint256",
          "name": "",
          "type": "uint256"
        }
      ],
      "stateMutability": "pure",
      "type": "function"
    },
    {
      "inputs": [
        {
          "internalType": "address",
          "name": "_asset",
          "type": "address"
        },
        {
          "internalType": "uint256",
          "name": "_amount",
          "type": "uint256"
        }
      ],
      "name": "towardsNative",
      "outputs": [
        {
          "internalType": "address",
          "name": "asset",
          "type": "address"
        },
        {
          "internalType": "uint256",
          "name": "amount",
          "type": "uint256"
        }
      ],
      "stateMutability": "nonpayable",
      "type": "function"
    }
  ],
  "transactionHash": "0xa8d5426555fededa41395b87ac77cf2694788dbedf1528f57765515143a8e8ac",
  "args": [],
  "numDeployments": 1,
  "solcInputHash": "32d67ad6fbc420763e96aa330bf9a54c",
  "bytecode": "0x61014060405234801561001157600080fd5b5073b05cabcd99cf9a73b19805edefc5f67ca5d1895e608052734f43c77872db6ba177c270986cd30c3381af37ee60a05273c02aaa39b223fe8d0a0e5c4f27ead9083c756cc260e05273a1290d69c65a6fe4df752f95823fae25cb99e5a760c05273ba12222222228d8ba445958a75a0704d566bf2c8610100527f58aadfb1afac0ad7fca1148f3cde6aedf5236b6d00000000000000000000067f6101205260805160a05160c05160e0516101005161012051610b31610152600039600081816101b7015261070601526000818161012f015281816102a201526108000152600081816101690152818161023e015261077301526000818161019001528181610267015281816102d4015261074401526000818160920152818161037b0152818161055601526105e401526000818161010801526101ec0152610b316000f3fe608060405234801561001057600080fd5b50600436106100885760003560e01c80636ea477da1161005b5780636ea477da14610151578063ad5c464814610164578063c5d664c61461018b578063e0d7d0e9146101b257600080fd5b80630f61ac821461008d57806321ebbf01146100d1578063277efdce14610103578063411557d11461012a575b600080fd5b6100b47f000000000000000000000000000000000000000000000000000000000000000081565b6040516001600160a01b0390911681526020015b60405180910390f35b6100e46100df3660046108b4565b6101e7565b604080516001600160a01b0390931683526020830191909152016100c8565b6100b47f000000000000000000000000000000000000000000000000000000000000000081565b6100b47f000000000000000000000000000000000000000000000000000000000000000081565b6100e461015f3660046108b4565b610357565b6100b47f000000000000000000000000000000000000000000000000000000000000000081565b6100b47f000000000000000000000000000000000000000000000000000000000000000081565b6101d97f000000000000000000000000000000000000000000000000000000000000000081565b6040519081526020016100c8565b6000807f00000000000000000000000000000000000000000000000000000000000000006001600160a01b0316846001600160a01b03161461023c57604051636448d6e960e11b815260040160405180910390fd5b7f00000000000000000000000000000000000000000000000000000000000000009150600061028b847f0000000000000000000000000000000000000000000000000000000000000000610373565b60405163095ea7b360e01b81526001600160a01b037f000000000000000000000000000000000000000000000000000000000000000081166004830152602482018390529192507f00000000000000000000000000000000000000000000000000000000000000009091169063095ea7b3906044016020604051808303816000875af115801561031f573d6000803e3d6000fd5b505050506040513d601f19601f8201168201806040525081019061034391906108e0565b5061034d816106f6565b9150509250929050565b600080604051634851657960e11b815260040160405180910390fd5b6000806000807f00000000000000000000000000000000000000000000000000000000000000006001600160a01b0316632c8ce6bc6040518163ffffffff1660e01b8152600401606060405180830381865afa1580156103d7573d6000803e3d6000fd5b505050506040513d601f19601f820116820180604052508101906103fb9190610909565b9250925092506000826001600160a01b0316632f13b60c6040518163ffffffff1660e01b8152600401602060405180830381865afa158015610441573d6000803e3d6000fd5b505050506040513d601f19601f8201168201806040525081019061046591906108e0565b1561053f5760405163a9059cbb60e01b81526001600160a01b0383811660048301526024820189905284169063a9059cbb90604401600060405180830381600087803b1580156104b457600080fd5b505af11580156104c8573d6000803e3d6000fd5b505060405163bcb7ea5d60e01b81526001600160a01b0387811660048301528516925063bcb7ea5d91506024016020604051808303816000875af1158015610514573d6000803e3d6000fd5b505050506040513d601f19601f820116820180604052508101906105389190610956565b9050610664565b60405163a9059cbb60e01b81526001600160a01b037f0000000000000000000000000000000000000000000000000000000000000000811660048301526024820189905284169063a9059cbb90604401600060405180830381600087803b1580156105a957600080fd5b505af11580156105bd573d6000803e3d6000fd5b5050604080516000815260208101918290526329910b1160e01b9091526001600160a01b037f00000000000000000000000000000000000000000000000000000000000000001692506329910b11915061061e9087908b90602481016109bc565b60408051808303816000875af115801561063c573d6000803e3d6000fd5b505050506040513d601f19601f8201168201806040525081019061066091906109e3565b5090505b60405163769f8e5d60e01b8152306004820152602481018290526001600160a01b038781166044830152600060648301526001608483015285169063769f8e5d9060a4016020604051808303816000875af11580156106c7573d6000803e3d6000fd5b505050506040513d601f19601f820116820180604052508101906106eb9190610956565b979650505050505050565b6000806040518060c001604052807f000000000000000000000000000000000000000000000000000000000000000081526020016000600181111561073d5761073d610a07565b81526020017f00000000000000000000000000000000000000000000000000000000000000006001600160a01b031681526020017f00000000000000000000000000000000000000000000000000000000000000006001600160a01b0316815260200184815260200160405180602001604052806000815250815250905060006040518060800160405280306001600160a01b03168152602001600015158152602001306001600160a01b031681526020016000151581525090506000600190507f00000000000000000000000000000000000000000000000000000000000000006001600160a01b03166352bbbe29848484426040518563ffffffff1660e01b81526004016108509493929190610a1d565b6020604051808303816000875af115801561086f573d6000803e3d6000fd5b505050506040513d601f19601f820116820180604052508101906108939190610956565b95945050505050565b6001600160a01b03811681146108b157600080fd5b50565b600080604083850312156108c757600080fd5b82356108d28161089c565b946020939093013593505050565b6000602082840312156108f257600080fd5b8151801515811461090257600080fd5b9392505050565b60008060006060848603121561091e57600080fd5b83516109298161089c565b602085015190935061093a8161089c565b604085015190925061094b8161089c565b809150509250925092565b60006020828403121561096857600080fd5b5051919050565b6000815180845260005b8181101561099557602081850181015186830182015201610979565b818111156109a7576000602083870101525b50601f01601f19169290920160200192915050565b60018060a01b0384168152826020820152606060408201526000610893606083018461096f565b600080604083850312156109f657600080fd5b505080516020909101519092909150565b634e487b7160e01b600052602160045260246000fd5b60e08152845160e08201526000602086015160028110610a4d57634e487b7160e01b600052602160045260246000fd5b61010083015260408601516001600160a01b03166101208301526060860151610a826101408401826001600160a01b03169052565b50608086015161016083015260a086015160c0610180840152610aa96101a084018261096f565b915050610ae9602083018680516001600160a01b039081168352602080830151151590840152604080830151909116908301526060908101511515910152565b60a082019390935260c001529291505056fea26469706673582212203ae980081ec4095d702247f5d6bc41f2fc371f728b642ce126902c742379260f64736f6c634300080d0033",
  "devdoc": {
    "kind": "dev",
    "methods": {
      "towardsAsset(address,uint256)": {
        "params": {
          "_amount": "Amount of the `_asset`",
          "_asset": "Asset to be wrapped"
        },
        "returns": {
          "_0": "A token that the `_asset` has been converted to",
          "_1": "Amount of the quote token that we spent to get `_amoun` of the `_asset`"
        }
      },
      "towardsNative(address,uint256)": {
        "params": {
          "_amount": "Amount of the `_asset`",
          "_asset": "Asset to be unwrapped"
        },
        "returns": {
          "amount": "Amount of the `tokenOut` that we received",
          "asset": "A token that the `_asset` has been converted to"
        }
      }
    },
    "version": 1
  },
  "userdoc": {
    "kind": "user",
    "methods": {
      "towardsAsset(address,uint256)": {
        "notice": "Performs operation opposit to `towardsNative`"
      },
      "towardsNative(address,uint256)": {
        "notice": "Operates to unwrap an `_asset`"
      }
    },
    "version": 1
  },
  "storageLayout": {
    "storage": [],
    "types": null
  }
}