{
  "address": "0x60174496accaEb8B0815C9Fb75BaC50230D40266",
  "abi": [
    {
      "inputs": [],
      "stateMutability": "nonpayable",
      "type": "constructor"
    },
    {
      "inputs": [],
      "name": "InvalidAsset",
      "type": "error"
    },
    {
      "inputs": [],
      "name": "Unsupported",
      "type": "error"
    },
    {
      "inputs": [],
      "name": "EZETH",
      "outputs": [
        {
          "internalType": "address",
          "name": "",
          "type": "address"
        }
      ],
      "stateMutability": "view",
      "type": "function"
    },
    {
      "inputs": [],
      "name": "PENDLE_MARKET",
      "outputs": [
        {
          "internalType": "address",
          "name": "",
          "type": "address"
        }
      ],
      "stateMutability": "view",
      "type": "function"
    },
    {
      "inputs": [],
      "name": "PENDLE_TOKEN",
      "outputs": [
        {
          "internalType": "address",
          "name": "",
          "type": "address"
        }
      ],
      "stateMutability": "view",
      "type": "function"
    },
    {
      "inputs": [],
      "name": "POOL_ID",
      "outputs": [
        {
          "internalType": "bytes32",
          "name": "",
          "type": "bytes32"
        }
      ],
      "stateMutability": "view",
      "type": "function"
    },
    {
      "inputs": [],
      "name": "VAULT",
      "outputs": [
        {
          "internalType": "address",
          "name": "",
          "type": "address"
        }
      ],
      "stateMutability": "view",
      "type": "function"
    },
    {
      "inputs": [],
      "name": "WETH",
      "outputs": [
        {
          "internalType": "address",
          "name": "",
          "type": "address"
        }
      ],
      "stateMutability": "view",
      "type": "function"
    },
    {
      "inputs": [
        {
          "internalType": "address",
          "name": "",
          "type": "address"
        },
        {
          "internalType": "uint256",
          "name": "",
          "type": "uint256"
        }
      ],
      "name": "towardsAsset",
      "outputs": [
        {
          "internalType": "address",
          "name": "",
          "type": "address"
        },
        {
          "internalType": "uint256",
          "name": "",
          "type": "uint256"
        }
      ],
      "stateMutability": "pure",
      "type": "function"
    },
    {
      "inputs": [
        {
          "internalType": "address",
          "name": "_asset",
          "type": "address"
        },
        {
          "internalType": "uint256",
          "name": "_amount",
          "type": "uint256"
        }
      ],
      "name": "towardsNative",
      "outputs": [
        {
          "internalType": "address",
          "name": "asset",
          "type": "address"
        },
        {
          "internalType": "uint256",
          "name": "amount",
          "type": "uint256"
        }
      ],
      "stateMutability": "nonpayable",
      "type": "function"
    }
  ],
  "transactionHash": "0xd5208c2b2811f369e8add268a55787d05df409ec756aafa89e2ce49e83278021",
  "args": [],
  "numDeployments": 1,
  "solcInputHash": "986f1f0675541c27457f499da27f8d3d",
  "bytecode": "0x60c060405234801561001057600080fd5b5073f7906f274c174a52d444175729e3fa98f9bde28560805273d8f12bcde578c653014f27379a6114f67f0e445f60a05260805160a051610a446100816000396000818160920152818161031a015281816104f5015261058301526000818161010801526101c80152610a446000f3fe608060405234801561001057600080fd5b50600436106100885760003560e01c806358fe922d1161005b57806358fe922d146101455780636ea477da14610160578063ad5c464814610173578063e0d7d0e91461018e57600080fd5b80630f61ac821461008d57806321ebbf01146100d1578063277efdce14610103578063411557d11461012a575b600080fd5b6100b47f000000000000000000000000000000000000000000000000000000000000000081565b6040516001600160a01b0390911681526020015b60405180910390f35b6100e46100df3660046107dd565b6101c3565b604080516001600160a01b0390931683526020830191909152016100c8565b6100b47f000000000000000000000000000000000000000000000000000000000000000081565b6100b473ba12222222228d8ba445958a75a0704d566bf2c881565b6100b473bf5495efe5db9ce00f80364c8b423567e58d211081565b6100e461016e3660046107dd565b6102f6565b6100b473c02aaa39b223fe8d0a0e5c4f27ead9083c756cc281565b6101b57f596192bb6e41802428ac943d2f1476c1af25cc0e00000000000000000000065981565b6040519081526020016100c8565b6000807f00000000000000000000000000000000000000000000000000000000000000006001600160a01b0316846001600160a01b03161461021857604051636448d6e960e11b815260040160405180910390fd5b73c02aaa39b223fe8d0a0e5c4f27ead9083c756cc29150600061024f8473bf5495efe5db9ce00f80364c8b423567e58d2110610312565b60405163095ea7b360e01b815273ba12222222228d8ba445958a75a0704d566bf2c860048201526024810182905290915073bf5495efe5db9ce00f80364c8b423567e58d21109063095ea7b3906044016020604051808303816000875af11580156102be573d6000803e3d6000fd5b505050506040513d601f19601f820116820180604052508101906102e29190610809565b506102ec81610695565b9150509250929050565b600080604051634851657960e11b815260040160405180910390fd5b6000806000807f00000000000000000000000000000000000000000000000000000000000000006001600160a01b0316632c8ce6bc6040518163ffffffff1660e01b8152600401606060405180830381865afa158015610376573d6000803e3d6000fd5b505050506040513d601f19601f8201168201806040525081019061039a9190610832565b9250925092506000826001600160a01b0316632f13b60c6040518163ffffffff1660e01b8152600401602060405180830381865afa1580156103e0573d6000803e3d6000fd5b505050506040513d601f19601f820116820180604052508101906104049190610809565b156104de5760405163a9059cbb60e01b81526001600160a01b0383811660048301526024820189905284169063a9059cbb90604401600060405180830381600087803b15801561045357600080fd5b505af1158015610467573d6000803e3d6000fd5b505060405163bcb7ea5d60e01b81526001600160a01b0387811660048301528516925063bcb7ea5d91506024016020604051808303816000875af11580156104b3573d6000803e3d6000fd5b505050506040513d601f19601f820116820180604052508101906104d7919061087f565b9050610603565b60405163a9059cbb60e01b81526001600160a01b037f0000000000000000000000000000000000000000000000000000000000000000811660048301526024820189905284169063a9059cbb90604401600060405180830381600087803b15801561054857600080fd5b505af115801561055c573d6000803e3d6000fd5b5050604080516000815260208101918290526329910b1160e01b9091526001600160a01b037f00000000000000000000000000000000000000000000000000000000000000001692506329910b1191506105bd9087908b90602481016108e5565b60408051808303816000875af11580156105db573d6000803e3d6000fd5b505050506040513d601f19601f820116820180604052508101906105ff919061090c565b5090505b60405163769f8e5d60e01b8152306004820152602481018290526001600160a01b038781166044830152600060648301526001608483015285169063769f8e5d9060a4016020604051808303816000875af1158015610666573d6000803e3d6000fd5b505050506040513d601f19601f8201168201806040525081019061068a919061087f565b979650505050505050565b6040805160c0810182527f596192bb6e41802428ac943d2f1476c1af25cc0e00000000000000000000065981526000602080830182905273bf5495efe5db9ce00f80364c8b423567e58d21108385015273c02aaa39b223fe8d0a0e5c4f27ead9083c756cc260608085019190915260808085018790528551808401875284815260a0860152855190810186523080825292810184905280860192909252810182905292516352bbbe2960e01b815290929060019073ba12222222228d8ba445958a75a0704d566bf2c8906352bbbe2990610779908690869086904290600401610930565b6020604051808303816000875af1158015610798573d6000803e3d6000fd5b505050506040513d601f19601f820116820180604052508101906107bc919061087f565b95945050505050565b6001600160a01b03811681146107da57600080fd5b50565b600080604083850312156107f057600080fd5b82356107fb816107c5565b946020939093013593505050565b60006020828403121561081b57600080fd5b8151801515811461082b57600080fd5b9392505050565b60008060006060848603121561084757600080fd5b8351610852816107c5565b6020850151909350610863816107c5565b6040850151909250610874816107c5565b809150509250925092565b60006020828403121561089157600080fd5b5051919050565b6000815180845260005b818110156108be576020818501810151868301820152016108a2565b818111156108d0576000602083870101525b50601f01601f19169290920160200192915050565b60018060a01b03841681528260208201526060604082015260006107bc6060830184610898565b6000806040838503121561091f57600080fd5b505080516020909101519092909150565b60e08152845160e0820152600060208601516002811061096057634e487b7160e01b600052602160045260246000fd5b61010083015260408601516001600160a01b031661012083015260608601516109956101408401826001600160a01b03169052565b50608086015161016083015260a086015160c06101808401526109bc6101a0840182610898565b9150506109fc602083018680516001600160a01b039081168352602080830151151590840152604080830151909116908301526060908101511515910152565b60a082019390935260c001529291505056fea2646970667358221220206b62f57a907c1ae8b36a88f387b78e6f1967ded571eca35ea4210af064ac4364736f6c634300080d0033",
  "devdoc": {
    "kind": "dev",
    "methods": {
      "towardsAsset(address,uint256)": {
        "params": {
          "_amount": "Amount of the `_asset`",
          "_asset": "Asset to be wrapped"
        },
        "returns": {
          "_0": "A token that the `_asset` has been converted to",
          "_1": "Amount of the quote token that we spent to get `_amoun` of the `_asset`"
        }
      },
      "towardsNative(address,uint256)": {
        "params": {
          "_amount": "Amount of the `_asset`",
          "_asset": "Asset to be unwrapped"
        },
        "returns": {
          "amount": "Amount of the `tokenOut` that we received",
          "asset": "A token that the `_asset` has been converted to"
        }
      }
    },
    "version": 1
  },
  "userdoc": {
    "kind": "user",
    "methods": {
      "towardsAsset(address,uint256)": {
        "notice": "Performs operation opposit to `towardsNative`"
      },
      "towardsNative(address,uint256)": {
        "notice": "Operates to unwrap an `_asset`"
      }
    },
    "version": 1
  },
  "storageLayout": {
    "storage": [],
    "types": null
  }
}