{
  "address": "0x7a90F2b9f72bA840A55557b5c6fa2E3b83B86037",
  "abi": [
    {
      "inputs": [
        {
          "internalType": "contract IPriceProvidersRepository",
          "name": "_priceProvidersRepository",
          "type": "address"
        }
      ],
      "stateMutability": "nonpayable",
      "type": "constructor"
    },
    {
      "inputs": [],
      "name": "AssetNotSupported",
      "type": "error"
    },
    {
      "inputs": [],
      "name": "InvalidAssetAddress",
      "type": "error"
    },
    {
      "inputs": [
        {
          "internalType": "bool",
          "name": "increaseCardinalityRequired",
          "type": "bool"
        },
        {
          "internalType": "bool",
          "name": "oldestObservationSatisfied",
          "type": "bool"
        }
      ],
      "name": "OracleNotReady",
      "type": "error"
    },
    {
      "inputs": [],
      "name": "TokenIsNotAContract",
      "type": "error"
    },
    {
      "inputs": [],
      "name": "ZeroPrice",
      "type": "error"
    },
    {
      "anonymous": false,
      "inputs": [
        {
          "indexed": false,
          "internalType": "uint256",
          "name": "twapDuration",
          "type": "uint256"
        }
      ],
      "name": "TwapDurationUpdated",
      "type": "event"
    },
    {
      "inputs": [],
      "name": "ASSET",
      "outputs": [
        {
          "internalType": "address",
          "name": "",
          "type": "address"
        }
      ],
      "stateMutability": "view",
      "type": "function"
    },
    {
      "inputs": [],
      "name": "EZETH",
      "outputs": [
        {
          "internalType": "address",
          "name": "",
          "type": "address"
        }
      ],
      "stateMutability": "view",
      "type": "function"
    },
    {
      "inputs": [],
      "name": "MARKET",
      "outputs": [
        {
          "internalType": "address",
          "name": "",
          "type": "address"
        }
      ],
      "stateMutability": "view",
      "type": "function"
    },
    {
      "inputs": [],
      "name": "PT_ORACLE",
      "outputs": [
        {
          "internalType": "address",
          "name": "",
          "type": "address"
        }
      ],
      "stateMutability": "view",
      "type": "function"
    },
    {
      "inputs": [
        {
          "internalType": "address",
          "name": "_asset",
          "type": "address"
        }
      ],
      "name": "assetSupported",
      "outputs": [
        {
          "internalType": "bool",
          "name": "",
          "type": "bool"
        }
      ],
      "stateMutability": "view",
      "type": "function"
    },
    {
      "inputs": [],
      "name": "ezETH",
      "outputs": [
        {
          "internalType": "address",
          "name": "asset",
          "type": "address"
        }
      ],
      "stateMutability": "pure",
      "type": "function"
    },
    {
      "inputs": [
        {
          "internalType": "uint32",
          "name": "_newTwapDuration",
          "type": "uint32"
        }
      ],
      "name": "getOracleState",
      "outputs": [
        {
          "internalType": "bool",
          "name": "increaseCardinalityRequired",
          "type": "bool"
        },
        {
          "internalType": "bool",
          "name": "oldestObservationSatisfied",
          "type": "bool"
        }
      ],
      "stateMutability": "view",
      "type": "function"
    },
    {
      "inputs": [
        {
          "internalType": "address",
          "name": "_asset",
          "type": "address"
        }
      ],
      "name": "getPrice",
      "outputs": [
        {
          "internalType": "uint256",
          "name": "price",
          "type": "uint256"
        }
      ],
      "stateMutability": "view",
      "type": "function"
    },
    {
      "inputs": [
        {
          "internalType": "uint32",
          "name": "_twapDuration",
          "type": "uint32"
        }
      ],
      "name": "getPtToSyRate",
      "outputs": [
        {
          "internalType": "uint256",
          "name": "ratePRtoEETH",
          "type": "uint256"
        }
      ],
      "stateMutability": "view",
      "type": "function"
    },
    {
      "inputs": [],
      "name": "priceProviderPing",
      "outputs": [
        {
          "internalType": "bytes4",
          "name": "",
          "type": "bytes4"
        }
      ],
      "stateMutability": "pure",
      "type": "function"
    },
    {
      "inputs": [],
      "name": "priceProvidersRepository",
      "outputs": [
        {
          "internalType": "contract IPriceProvidersRepository",
          "name": "",
          "type": "address"
        }
      ],
      "stateMutability": "view",
      "type": "function"
    },
    {
      "inputs": [],
      "name": "quoteToken",
      "outputs": [
        {
          "internalType": "address",
          "name": "",
          "type": "address"
        }
      ],
      "stateMutability": "view",
      "type": "function"
    },
    {
      "inputs": [
        {
          "internalType": "uint32",
          "name": "_newTwapDuration",
          "type": "uint32"
        }
      ],
      "name": "setTwapDuration",
      "outputs": [],
      "stateMutability": "nonpayable",
      "type": "function"
    },
    {
      "inputs": [],
      "name": "twapDuration",
      "outputs": [
        {
          "internalType": "uint32",
          "name": "",
          "type": "uint32"
        }
      ],
      "stateMutability": "view",
      "type": "function"
    }
  ],
  "transactionHash": "0x82db7ca4e9e2d22f857c8177a491eb8e05bf759748b02d42c1b7b872a53d3812",
  "args": [
    "0x7C2ca9D502f2409BeceAfa68E97a176Ff805029F"
  ],
  "numDeployments": 2,
  "solcInputHash": "cb151eff327eb77b7e9df1a334dc1852",
  "bytecode": "0x6101206040523480156200001257600080fd5b506040516200157a3803806200157a833981016040819052620000359162000633565b7366a1096c6366b2529274df4f5d8247827fe4cea861070873de715330043799d7a80249660d1e6b61eb3713b38373eee8aed1957ca1545a0508afb51b53cca7e3c0d16040518060400160405280601281526020017114150b595e9155120b4c8d5054148c8c0c8d60721b81525082828282620000cb816001600160a01b031663eec3e6a76200025560201b620006b91760201c565b6200011d5760405162461bcd60e51b815260206004820152601e60248201527f496e76616c6964507269636550726f76696465725265706f7369746f7279000060448201526064015b60405180910390fd5b6001600160a01b038116608081905260408051630217a4b760e41b8152905163217a4b70916004808201926020929091908290030181865afa15801562000168573d6000803e3d6000fd5b505050506040513d601f19601f820116820180604052508101906200018e919062000633565b6001600160a01b031660a05250604051620001ae90829060200162000686565b60405160208183030381529060405280519060200120620001da83620002df60201b6200073f1760201c565b604051602001620001ec919062000686565b60405160208183030381529060405280519060200120146200022157604051630ccd248560e21b815260040160405180910390fd5b506001600160a01b0390811660c05287811660e05285166101005250620002488562000393565b5050505050505062000882565b60006001600160a01b03831615801590620002d8575082826040518163ffffffff1660e01b8152600401602060405180830381865afa1580156200029d573d6000803e3d6000fd5b505050506040513d601f19601f82011682018060405250810190620002c39190620006bb565b60e083901b6001600160e01b03199081169116145b9392505050565b6040805160048152602481019091526020810180516001600160e01b039081166395d89b4160e01b17909152606091600091829162000322918691906200042c16565b915091508115806200033357508051155b15620003595750506040805180820190915260018152603f60f81b602082015292915050565b602081510362000376576200036e81620004fb565b949350505050565b808060200190518101906200036e9190620006fd565b5050919050565b600080620003a18362000585565b915091508180620003b0575080155b15620003dc5760405163685ddbe760e11b81528215156004820152811515602482015260440162000114565b6000805463ffffffff191663ffffffff85169081179091556040519081527fd82b20bed317f4f38777ecc650568940cbd210b15af84857f885373342a3d6fa9060200160405180910390a1505050565b6000606062000446846200061460201b620007de1760201c565b62000464576040516373d39f9d60e01b815260040160405180910390fd5b600080856001600160a01b031685604051620004819190620007b5565b600060405180830381855afa9150503d8060008114620004be576040519150601f19603f3d011682016040523d82523d6000602084013e620004c3565b606091505b509150915081620004ec57600060405180602001604052806000815250935093505050620004f4565b600193509150505b9250929050565b805160609060005b818110156200038c57838181518110620005215762000521620007d3565b01602001516001600160f81b031916156200057c57828482815181106200054c576200054c620007d3565b602001015160f81c60f81b6040516020016200056a929190620007e9565b60405160208183030381529060405292505b60010162000503565b60e0516101005160405162439f4b60e91b81526001600160a01b03918216600482015263ffffffff841660248201526000928392169063873e960090604401606060405180830381865afa158015620005e2573d6000803e3d6000fd5b505050506040513d601f19601f8201168201806040525081019062000608919062000830565b91959194509092505050565b3b151590565b6001600160a01b03811681146200063057600080fd5b50565b6000602082840312156200064657600080fd5b8151620002d8816200061a565b60005b838110156200067057818101518382015260200162000656565b8381111562000680576000848401525b50505050565b6020815260008251806020840152620006a781604085016020870162000653565b601f01601f19169190910160400192915050565b600060208284031215620006ce57600080fd5b81516001600160e01b031981168114620002d857600080fd5b634e487b7160e01b600052604160045260246000fd5b6000602082840312156200071057600080fd5b81516001600160401b03808211156200072857600080fd5b818401915084601f8301126200073d57600080fd5b815181811115620007525762000752620006e7565b604051601f8201601f19908116603f011681019083821181831017156200077d576200077d620006e7565b816040528281528760208487010111156200079757600080fd5b620007aa83602083016020880162000653565b979650505050505050565b60008251620007c981846020870162000653565b9190910192915050565b634e487b7160e01b600052603260045260246000fd5b60008351620007fd81846020880162000653565b6001600160f81b0319939093169190920190815260010192915050565b805180151581146200082b57600080fd5b919050565b6000806000606084860312156200084657600080fd5b62000851846200081a565b9250602084015161ffff811681146200086957600080fd5b915062000879604085016200081a565b90509250925092565b60805160a05160c05160e05161010051610c7b620008ff600039600081816102db01528181610313015261052e01526000818161024f0152818161034c01526105650152600081816101be0152818161028101526103c7015260006101270152600081816102150152818161043301526105e40152610c7b6000f3fe608060405234801561001057600080fd5b50600436106100ea5760003560e01c806358fe922d1161008c578063809d7b3111610066578063809d7b311461024a578063b31fb25614610271578063c433c80a146102c1578063f46f16c2146102d657600080fd5b806358fe922d146101f55780635ddf2be3146102105780637b1d10891461023757600080fd5b8063284ada3e116100c8578063284ada3e1461016e57806341976e09146101985780634800d97f146101b957806357e0c50f146101e057600080fd5b806313a73c78146100ef578063217a4b701461012257806326d8954514610149575b600080fd5b73bf5495efe5db9ce00f80364c8b423567e58d21105b6040516001600160a01b0390911681526020015b60405180910390f35b6101057f000000000000000000000000000000000000000000000000000000000000000081565b6000546101599063ffffffff1681565b60405163ffffffff9091168152602001610119565b61018161017c3660046109ab565b6102fd565b604080519215158352901515602083015201610119565b6101ab6101a63660046109e6565b6103c3565b604051908152602001610119565b6101057f000000000000000000000000000000000000000000000000000000000000000081565b6040516357e0c50f60e01b8152602001610119565b61010573bf5495efe5db9ce00f80364c8b423567e58d211081565b6101057f000000000000000000000000000000000000000000000000000000000000000081565b6101ab6102453660046109ab565b610517565b6101057f000000000000000000000000000000000000000000000000000000000000000081565b6102b161027f3660046109e6565b7f00000000000000000000000000000000000000000000000000000000000000006001600160a01b0390811691161490565b6040519015158152602001610119565b6102d46102cf3660046109ab565b6105d8565b005b6101057f000000000000000000000000000000000000000000000000000000000000000081565b60405162439f4b60e91b81526001600160a01b037f00000000000000000000000000000000000000000000000000000000000000008116600483015263ffffffff8316602483015260009182917f0000000000000000000000000000000000000000000000000000000000000000169063873e960090604401606060405180830381865afa158015610393573d6000803e3d6000fd5b505050506040513d601f19601f820116820180604052508101906103b79190610a18565b91959194509092505050565b60007f00000000000000000000000000000000000000000000000000000000000000006001600160a01b03908116908316146104125760405163981a2a2b60e01b815260040160405180910390fd5b600080546104259063ffffffff16610517565b905060006001600160a01b037f0000000000000000000000000000000000000000000000000000000000000000166341976e0973bf5495efe5db9ce00f80364c8b423567e58d21106040516001600160e01b031960e084901b1681526001600160a01b039091166004820152602401602060405180830381865afa1580156104b1573d6000803e3d6000fd5b505050506040513d601f19601f820116820180604052508101906104d59190610a64565b90506104e18183610a7d565b670de0b6b3a764000090049250600083900361051057604051634dfba02360e01b815260040160405180910390fd5b5050919050565b60405163a31426d160e01b81526001600160a01b037f00000000000000000000000000000000000000000000000000000000000000008116600483015263ffffffff831660248301526000917f00000000000000000000000000000000000000000000000000000000000000009091169063a31426d190604401602060405180830381865afa1580156105ae573d6000803e3d6000fd5b505050506040513d601f19601f820116820180604052508101906105d29190610a64565b92915050565b336001600160a01b03167f00000000000000000000000000000000000000000000000000000000000000006001600160a01b031663481c6a756040518163ffffffff1660e01b8152600401602060405180830381865afa158015610640573d6000803e3d6000fd5b505050506040513d601f19601f820116820180604052508101906106649190610aaa565b6001600160a01b0316146106ad5760405162461bcd60e51b815260206004820152600b60248201526a27b7363ca6b0b730b3b2b960a91b60448201526064015b60405180910390fd5b6106b6816107e4565b50565b60006001600160a01b03831615801590610738575082826040518163ffffffff1660e01b8152600401602060405180830381865afa1580156106ff573d6000803e3d6000fd5b505050506040513d601f19601f820116820180604052508101906107239190610ac7565b60e083901b6001600160e01b03199081169116145b9392505050565b6040805160048152602481019091526020810180516001600160e01b03166395d89b4160e01b179052606090600090819061077b908590610878565b9150915081158061078b57508051155b156107b05750506040805180820190915260018152603f60f81b602082015292915050565b60208151036107ca576107c28161092c565b949350505050565b808060200190518101906107c29190610b37565b3b151590565b6000806107f0836102fd565b9150915081806107fe575080155b156108285760405163685ddbe760e11b8152821515600482015281151560248201526044016106a4565b6000805463ffffffff191663ffffffff85169081179091556040519081527fd82b20bed317f4f38777ecc650568940cbd210b15af84857f885373342a3d6fa9060200160405180910390a1505050565b60006060833b61089b576040516373d39f9d60e01b815260040160405180910390fd5b600080856001600160a01b0316856040516108b69190610be4565b600060405180830381855afa9150503d80600081146108f1576040519150601f19603f3d011682016040523d82523d6000602084013e6108f6565b606091505b50915091508161091d57600060405180602001604052806000815250935093505050610925565b600193509150505b9250929050565b805160609060005b818110156105105783818151811061094e5761094e610c00565b01602001516001600160f81b031916156109a3578284828151811061097557610975610c00565b602001015160f81c60f81b604051602001610991929190610c16565b60405160208183030381529060405292505b600101610934565b6000602082840312156109bd57600080fd5b813563ffffffff8116811461073857600080fd5b6001600160a01b03811681146106b657600080fd5b6000602082840312156109f857600080fd5b8135610738816109d1565b80518015158114610a1357600080fd5b919050565b600080600060608486031215610a2d57600080fd5b610a3684610a03565b9250602084015161ffff81168114610a4d57600080fd5b9150610a5b60408501610a03565b90509250925092565b600060208284031215610a7657600080fd5b5051919050565b6000816000190483118215151615610aa557634e487b7160e01b600052601160045260246000fd5b500290565b600060208284031215610abc57600080fd5b8151610738816109d1565b600060208284031215610ad957600080fd5b81516001600160e01b03198116811461073857600080fd5b634e487b7160e01b600052604160045260246000fd5b60005b83811015610b22578181015183820152602001610b0a565b83811115610b31576000848401525b50505050565b600060208284031215610b4957600080fd5b815167ffffffffffffffff80821115610b6157600080fd5b818401915084601f830112610b7557600080fd5b815181811115610b8757610b87610af1565b604051601f8201601f19908116603f01168101908382118183101715610baf57610baf610af1565b81604052828152876020848701011115610bc857600080fd5b610bd9836020830160208801610b07565b979650505050505050565b60008251610bf6818460208701610b07565b9190910192915050565b634e487b7160e01b600052603260045260246000fd5b60008351610c28818460208801610b07565b6001600160f81b031993909316919092019081526001019291505056fea26469706673582212203497183f73a81a7b4bb4a0a886ec8f5adf442b51ae207bb02744a80c745db1e564736f6c634300080d0033",
  "devdoc": {
    "kind": "dev",
    "methods": {
      "assetSupported(address)": {
        "params": {
          "_asset": "address of an asset"
        }
      },
      "getPrice(address)": {
        "params": {
          "_asset": "address of an asset for which to read price"
        },
        "returns": {
          "price": "of asses with 18 decimals, throws when pool is not ready yet to provide price"
        }
      },
      "priceProviderPing()": {
        "details": "this can save us from simple human errors, in case we use invalid address but this should NOT be treated as security check",
        "returns": {
          "_0": "always true"
        }
      },
      "setTwapDuration(uint32)": {
        "params": {
          "_newTwapDuration": "The new TWAP duration that should be used in the price provider"
        }
      }
    },
    "version": 1
  },
  "userdoc": {
    "kind": "user",
    "methods": {
      "assetSupported(address)": {
        "notice": "Only ASSET token is supported, false otherwise."
      },
      "getOracleState(uint32)": {
        "notice": "Resolve oracle state"
      },
      "getPrice(address)": {
        "notice": "Returns \"Time-Weighted Average Price\" for an asset. Calculates TWAP price for quote/asset. It unifies all tokens decimal to 18, examples: - if asses == quote it returns 1e18 - if asset is USDC and quote is ETH and ETH costs ~$3300 then it returns ~0.0003e18 WETH per 1 USDC"
      },
      "getPtToSyRate(uint32)": {
        "notice": "Get PT to asset rate"
      },
      "priceProviderPing()": {
        "notice": "Helper method that allows easily detects, if contract is PriceProvider"
      },
      "priceProvidersRepository()": {
        "notice": "PriceProvidersRepository address"
      },
      "quoteToken()": {
        "notice": "Token address which prices are quoted in. Must be the same as PriceProvidersRepository.quoteToken"
      },
      "setTwapDuration(uint32)": {
        "notice": "Allow's to update a TWAP duration"
      }
    },
    "version": 1
  },
  "storageLayout": {
    "storage": [
      {
        "astId": 1133,
        "contract": "contracts/priceProviders/pendleTokens/PendleEzETH250424PriceProviderEth.sol:PendleEzETH250424PriceProviderEth",
        "label": "twapDuration",
        "offset": 0,
        "slot": "0",
        "type": "t_uint32"
      }
    ],
    "types": {
      "t_uint32": {
        "encoding": "inplace",
        "label": "uint32",
        "numberOfBytes": "4"
      }
    }
  }
}