{
  "address": "0xCE3d2E0331D6776C79F329140d7aCE2E94B168A4",
  "abi": [
    {
      "inputs": [
        {
          "internalType": "address",
          "name": "_siloToken",
          "type": "address"
        },
        {
          "internalType": "address[]",
          "name": "_vestingContracts",
          "type": "address[]"
        }
      ],
      "stateMutability": "nonpayable",
      "type": "constructor"
    },
    {
      "anonymous": false,
      "inputs": [
        {
          "indexed": true,
          "internalType": "address",
          "name": "owner",
          "type": "address"
        },
        {
          "indexed": true,
          "internalType": "address",
          "name": "spender",
          "type": "address"
        },
        {
          "indexed": false,
          "internalType": "uint256",
          "name": "value",
          "type": "uint256"
        }
      ],
      "name": "Approval",
      "type": "event"
    },
    {
      "anonymous": false,
      "inputs": [
        {
          "indexed": true,
          "internalType": "address",
          "name": "from",
          "type": "address"
        },
        {
          "indexed": true,
          "internalType": "address",
          "name": "to",
          "type": "address"
        },
        {
          "indexed": false,
          "internalType": "uint256",
          "name": "value",
          "type": "uint256"
        }
      ],
      "name": "Transfer",
      "type": "event"
    },
    {
      "inputs": [
        {
          "internalType": "address",
          "name": "owner",
          "type": "address"
        },
        {
          "internalType": "address",
          "name": "spender",
          "type": "address"
        }
      ],
      "name": "allowance",
      "outputs": [
        {
          "internalType": "uint256",
          "name": "",
          "type": "uint256"
        }
      ],
      "stateMutability": "view",
      "type": "function"
    },
    {
      "inputs": [
        {
          "internalType": "address",
          "name": "spender",
          "type": "address"
        },
        {
          "internalType": "uint256",
          "name": "amount",
          "type": "uint256"
        }
      ],
      "name": "approve",
      "outputs": [
        {
          "internalType": "bool",
          "name": "",
          "type": "bool"
        }
      ],
      "stateMutability": "nonpayable",
      "type": "function"
    },
    {
      "inputs": [
        {
          "internalType": "address",
          "name": "_account",
          "type": "address"
        }
      ],
      "name": "balanceOf",
      "outputs": [
        {
          "internalType": "uint256",
          "name": "",
          "type": "uint256"
        }
      ],
      "stateMutability": "view",
      "type": "function"
    },
    {
      "inputs": [],
      "name": "decimals",
      "outputs": [
        {
          "internalType": "uint8",
          "name": "",
          "type": "uint8"
        }
      ],
      "stateMutability": "view",
      "type": "function"
    },
    {
      "inputs": [
        {
          "internalType": "address",
          "name": "spender",
          "type": "address"
        },
        {
          "internalType": "uint256",
          "name": "subtractedValue",
          "type": "uint256"
        }
      ],
      "name": "decreaseAllowance",
      "outputs": [
        {
          "internalType": "bool",
          "name": "",
          "type": "bool"
        }
      ],
      "stateMutability": "nonpayable",
      "type": "function"
    },
    {
      "inputs": [
        {
          "internalType": "address",
          "name": "_account",
          "type": "address"
        }
      ],
      "name": "getCurrentBalance",
      "outputs": [
        {
          "internalType": "uint256",
          "name": "",
          "type": "uint256"
        }
      ],
      "stateMutability": "view",
      "type": "function"
    },
    {
      "inputs": [
        {
          "internalType": "address",
          "name": "_account",
          "type": "address"
        }
      ],
      "name": "getVestingBalance",
      "outputs": [
        {
          "internalType": "uint256",
          "name": "userBalance",
          "type": "uint256"
        }
      ],
      "stateMutability": "view",
      "type": "function"
    },
    {
      "inputs": [
        {
          "internalType": "address",
          "name": "spender",
          "type": "address"
        },
        {
          "internalType": "uint256",
          "name": "addedValue",
          "type": "uint256"
        }
      ],
      "name": "increaseAllowance",
      "outputs": [
        {
          "internalType": "bool",
          "name": "",
          "type": "bool"
        }
      ],
      "stateMutability": "nonpayable",
      "type": "function"
    },
    {
      "inputs": [],
      "name": "name",
      "outputs": [
        {
          "internalType": "string",
          "name": "",
          "type": "string"
        }
      ],
      "stateMutability": "view",
      "type": "function"
    },
    {
      "inputs": [],
      "name": "siloToken",
      "outputs": [
        {
          "internalType": "contract ERC20",
          "name": "",
          "type": "address"
        }
      ],
      "stateMutability": "view",
      "type": "function"
    },
    {
      "inputs": [],
      "name": "symbol",
      "outputs": [
        {
          "internalType": "string",
          "name": "",
          "type": "string"
        }
      ],
      "stateMutability": "view",
      "type": "function"
    },
    {
      "inputs": [],
      "name": "totalSupply",
      "outputs": [
        {
          "internalType": "uint256",
          "name": "",
          "type": "uint256"
        }
      ],
      "stateMutability": "view",
      "type": "function"
    },
    {
      "inputs": [
        {
          "internalType": "address",
          "name": "recipient",
          "type": "address"
        },
        {
          "internalType": "uint256",
          "name": "amount",
          "type": "uint256"
        }
      ],
      "name": "transfer",
      "outputs": [
        {
          "internalType": "bool",
          "name": "",
          "type": "bool"
        }
      ],
      "stateMutability": "nonpayable",
      "type": "function"
    },
    {
      "inputs": [
        {
          "internalType": "address",
          "name": "sender",
          "type": "address"
        },
        {
          "internalType": "address",
          "name": "recipient",
          "type": "address"
        },
        {
          "internalType": "uint256",
          "name": "amount",
          "type": "uint256"
        }
      ],
      "name": "transferFrom",
      "outputs": [
        {
          "internalType": "bool",
          "name": "",
          "type": "bool"
        }
      ],
      "stateMutability": "nonpayable",
      "type": "function"
    },
    {
      "inputs": [
        {
          "internalType": "uint256",
          "name": "",
          "type": "uint256"
        }
      ],
      "name": "vestingContracts",
      "outputs": [
        {
          "internalType": "address",
          "name": "",
          "type": "address"
        }
      ],
      "stateMutability": "view",
      "type": "function"
    }
  ],
  "transactionHash": "0x9f2f62670d77bcdc96abdf4ecce24e0245a22c2dea76fc592c87f0f1ff0c2c15",
  "args": [
    "0x6f80310CA7F2C654691D1383149Fa1A57d8AB1f8",
    [
      "0x83053A452bF28389D7f2584578F3f3e470aadCD7",
      "0x09C8971571ca3EEaCDC4BFefD9DAfbA6b0C92110",
      "0xac2c2f627B26CAdDfEd33D9AcC1Fc8966995dCC6",
      "0xA9F31612D724B4574Ff68B513Bc0856e631b92cc",
      "0xfCC848A7433B35d2C01d4F94EA3dcFf86d558fEC",
      "0xf60c1E383FFca607b6207D9003d1F55B51C321E1",
      "0xBd5FB1D64e5464E9CA1565fc37fe3613460c1a2b",
      "0xf2b4389Dd9035C735818D1AEc881F8361481f276",
      "0x81b8ae3E394293217363E7CB91949cD8e6103dcc",
      "0x86c9ec37fB37Ab34790b1052EE00B88f51d56A49",
      "0x4eC034ce4659052c4884AA7Ab489a7b23848A455",
      "0x08605E00B877C878d20AA6466f0ac2063f72aB53",
      "0xA1c7dc4B79D5338b30b6E3a7C1b09429CD42f4DA",
      "0xA538907FF0993c67b3600ac1d753c5f2527aBC18",
      "0x85578f50E8Ca7eE328bCbEe41a77715e92d2813a",
      "0x895bb5EebBAF9bF9C5788EDb1a20eD6609f17002",
      "0x9BaE7861110AFEb00ecf740D43d94064C94929BB",
      "0x174CE3F08aB1025736FB66d2A964F7F1b6687639",
      "0x01d360c54eb27a6a95ea1f8e309e5c8263ed8508",
      "0xe3006D793B604D8f103e6EaB4cb787fFed59Cf23",
      "0x25D3A8017793Fb263EFeAecaFd2F2BF34228a10c",
      "0xD6B294bCd6Bc7FB46D84434A384edE079a4bc22E",
      "0x0BC03a02cC7287DE72e1817aEf73de8514d9372b",
      "0x239f612d65B8b0d0ee830492DB1C4d669A128bDb",
      "0x44f76e33af2e29af2c4a57d2ccd5ff0d73644b7a",
      "0xE519F37B8ecC509721E1F49746E10b9f49519c13",
      "0xcFEedb0219A99bE73dFE04B2A9905a109Cf87823",
      "0x6e5C8274012d9cb386EF8Dcc71a461B71BD07831"
    ]
  ],
  "solcInputHash": "8a75af25601200a6763b90fb57b73462",
  "bytecode": "0x60806040523480156200001157600080fd5b506040516200106d3803806200106d83398101604081905262000034916200020a565b604080518082018252601381527f53696c6f20536e617073686f7420546f6b656e0000000000000000000000000060208083019182528351808501909452600c84526b736e617073686f7453494c4f60a01b9084015281519192916200009d91600391620000ef565b508051620000b3906004906020840190620000ef565b5050600580546001600160a01b0319166001600160a01b038516179055508051620000e69060069060208401906200017e565b5050506200034d565b828054620000fd90620002fa565b90600052602060002090601f0160209004810192826200012157600085556200016c565b82601f106200013c57805160ff19168380011785556200016c565b828001600101855582156200016c579182015b828111156200016c5782518255916020019190600101906200014f565b506200017a929150620001d6565b5090565b8280548282559060005260206000209081019282156200016c579160200282015b828111156200016c57825182546001600160a01b0319166001600160a01b039091161782556020909201916001909101906200019f565b5b808211156200017a5760008155600101620001d7565b80516001600160a01b03811681146200020557600080fd5b919050565b600080604083850312156200021e57600080fd5b6200022983620001ed565b602084810151919350906001600160401b03808211156200024957600080fd5b818601915086601f8301126200025e57600080fd5b81518181111562000273576200027362000337565b8060051b604051601f19603f830116810181811085821117156200029b576200029b62000337565b604052828152858101935084860182860187018b1015620002bb57600080fd5b600095505b83861015620002e957620002d481620001ed565b855260019590950194938601938601620002c0565b508096505050505050509250929050565b600181811c908216806200030f57607f821691505b602082108114156200033157634e487b7160e01b600052602260045260246000fd5b50919050565b634e487b7160e01b600052604160045260246000fd5b610d10806200035d6000396000f3fe608060405234801561001057600080fd5b50600436106100f55760003560e01c8063395093511161009757806395d89b411161006657806395d89b41146101fd578063a457c2d714610205578063a9059cbb14610218578063dd62ed3e1461022b57600080fd5b806339509351146101b1578063440277e8146101c457806358281bf3146101d757806370a08231146101ea57600080fd5b806321fd24ca116100d357806321fd24ca1461015157806323b872dd146101645780632c0d981414610177578063313ce567146101a257600080fd5b806306fdde03146100fa578063095ea7b31461011857806318160ddd1461013b575b600080fd5b610102610264565b60405161010f9190610bd9565b60405180910390f35b61012b610126366004610b7b565b6102f6565b604051901515815260200161010f565b61014361030c565b60405190815260200161010f565b61014361015f366004610ac0565b61038e565b61012b610172366004610b3a565b61051b565b60055461018a906001600160a01b031681565b6040516001600160a01b03909116815260200161010f565b6040516012815260200161010f565b61012b6101bf366004610b7b565b6105ca565b6101436101d2366004610ac0565b610606565b61018a6101e5366004610ba7565b61068a565b6101436101f8366004610ac0565b6106b4565b6101026106d2565b61012b610213366004610b7b565b6106e1565b61012b610226366004610b7b565b61077a565b610143610239366004610b01565b6001600160a01b03918216600090815260016020908152604080832093909416825291909152205490565b60606003805461027390610c46565b80601f016020809104026020016040519081016040528092919081815260200182805461029f90610c46565b80156102ec5780601f106102c1576101008083540402835291602001916102ec565b820191906000526020600020905b8154815290600101906020018083116102cf57829003601f168201915b5050505050905090565b6000610303338484610787565b50600192915050565b600554604080516318160ddd60e01b815290516000926001600160a01b0316916318160ddd916004808301926020929190829003018186803b15801561035157600080fd5b505afa158015610365573d6000803e3d6000fd5b505050506040513d601f19601f820116820180604052508101906103899190610bc0565b905090565b6000805b60065481101561051557826001600160a01b0316600682815481106103b9576103b9610cac565b60009182526020918290200154604080516319b400eb60e21b815290516001600160a01b03909216926366d003ac92600480840193829003018186803b15801561040257600080fd5b505afa158015610416573d6000803e3d6000fd5b505050506040513d601f19601f8201168201806040525081019061043a9190610ae4565b6001600160a01b0316141561050357600554600680546001600160a01b03909216916370a0823191908490811061047357610473610cac565b60009182526020909120015460405160e083901b6001600160e01b03191681526001600160a01b03909116600482015260240160206040518083038186803b1580156104be57600080fd5b505afa1580156104d2573d6000803e3d6000fd5b505050506040513d601f19601f820116820180604052508101906104f69190610bc0565b6105009083610c2e565b91505b8061050d81610c7b565b915050610392565b50919050565b60006105288484846108ab565b6001600160a01b0384166000908152600160209081526040808320338452909152902054828110156105b25760405162461bcd60e51b815260206004820152602860248201527f45524332303a207472616e7366657220616d6f756e74206578636565647320616044820152676c6c6f77616e636560c01b60648201526084015b60405180910390fd5b6105bf8533858403610787565b506001949350505050565b3360008181526001602090815260408083206001600160a01b03871684529091528120549091610303918590610601908690610c2e565b610787565b6005546040516370a0823160e01b81526001600160a01b03838116600483015260009216906370a082319060240160206040518083038186803b15801561064c57600080fd5b505afa158015610660573d6000803e3d6000fd5b505050506040513d601f19601f820116820180604052508101906106849190610bc0565b92915050565b6006818154811061069a57600080fd5b6000918252602090912001546001600160a01b0316905081565b60006106bf8261038e565b6106c883610606565b6106849190610c2e565b60606004805461027390610c46565b3360009081526001602090815260408083206001600160a01b0386168452909152812054828110156107635760405162461bcd60e51b815260206004820152602560248201527f45524332303a2064656372656173656420616c6c6f77616e63652062656c6f77604482015264207a65726f60d81b60648201526084016105a9565b6107703385858403610787565b5060019392505050565b60006103033384846108ab565b6001600160a01b0383166107e95760405162461bcd60e51b8152602060048201526024808201527f45524332303a20617070726f76652066726f6d20746865207a65726f206164646044820152637265737360e01b60648201526084016105a9565b6001600160a01b03821661084a5760405162461bcd60e51b815260206004820152602260248201527f45524332303a20617070726f766520746f20746865207a65726f206164647265604482015261737360f01b60648201526084016105a9565b6001600160a01b0383811660008181526001602090815260408083209487168084529482529182902085905590518481527f8c5be1e5ebec7d5bd14f71427d1e84f3dd0314c0f7b2291e5b200ac8c7c3b925910160405180910390a3505050565b6001600160a01b03831661090f5760405162461bcd60e51b815260206004820152602560248201527f45524332303a207472616e736665722066726f6d20746865207a65726f206164604482015264647265737360d81b60648201526084016105a9565b6001600160a01b0382166109715760405162461bcd60e51b815260206004820152602360248201527f45524332303a207472616e7366657220746f20746865207a65726f206164647260448201526265737360e81b60648201526084016105a9565b61097c838383610a85565b6001600160a01b038316600090815260208190526040902054818110156109f45760405162461bcd60e51b815260206004820152602660248201527f45524332303a207472616e7366657220616d6f756e7420657863656564732062604482015265616c616e636560d01b60648201526084016105a9565b6001600160a01b03808516600090815260208190526040808220858503905591851681529081208054849290610a2b908490610c2e565b92505081905550826001600160a01b0316846001600160a01b03167fddf252ad1be2c89b69c2b068fc378daa952ba7f163c4a11628f55a4df523b3ef84604051610a7791815260200190565b60405180910390a350505050565b60405162461bcd60e51b815260206004820152601060248201526f4e6f6e2d7472616e7366657261626c6560801b60448201526064016105a9565b600060208284031215610ad257600080fd5b8135610add81610cc2565b9392505050565b600060208284031215610af657600080fd5b8151610add81610cc2565b60008060408385031215610b1457600080fd5b8235610b1f81610cc2565b91506020830135610b2f81610cc2565b809150509250929050565b600080600060608486031215610b4f57600080fd5b8335610b5a81610cc2565b92506020840135610b6a81610cc2565b929592945050506040919091013590565b60008060408385031215610b8e57600080fd5b8235610b9981610cc2565b946020939093013593505050565b600060208284031215610bb957600080fd5b5035919050565b600060208284031215610bd257600080fd5b5051919050565b600060208083528351808285015260005b81811015610c0657858101830151858201604001528201610bea565b81811115610c18576000604083870101525b50601f01601f1916929092016040019392505050565b60008219821115610c4157610c41610c96565b500190565b600181811c90821680610c5a57607f821691505b6020821081141561051557634e487b7160e01b600052602260045260246000fd5b6000600019821415610c8f57610c8f610c96565b5060010190565b634e487b7160e01b600052601160045260246000fd5b634e487b7160e01b600052603260045260246000fd5b6001600160a01b0381168114610cd757600080fd5b5056fea264697066735822122058504045fe5d30415091e5ca64d27045e1171a1bd8d408d2c7cc8e1ac340cdbf64736f6c63430008070033",
  "devdoc": {
    "kind": "dev",
    "methods": {
      "allowance(address,address)": {
        "details": "See {IERC20-allowance}."
      },
      "approve(address,uint256)": {
        "details": "See {IERC20-approve}. Requirements: - `spender` cannot be the zero address."
      },
      "decimals()": {
        "details": "Returns the number of decimals used to get its user representation. For example, if `decimals` equals `2`, a balance of `505` tokens should be displayed to a user as `5.05` (`505 / 10 ** 2`). Tokens usually opt for a value of 18, imitating the relationship between Ether and Wei. This is the value {ERC20} uses, unless this function is overridden; NOTE: This information is only used for _display_ purposes: it in no way affects any of the arithmetic of the contract, including {IERC20-balanceOf} and {IERC20-transfer}."
      },
      "decreaseAllowance(address,uint256)": {
        "details": "Atomically decreases the allowance granted to `spender` by the caller. This is an alternative to {approve} that can be used as a mitigation for problems described in {IERC20-approve}. Emits an {Approval} event indicating the updated allowance. Requirements: - `spender` cannot be the zero address. - `spender` must have allowance for the caller of at least `subtractedValue`."
      },
      "increaseAllowance(address,uint256)": {
        "details": "Atomically increases the allowance granted to `spender` by the caller. This is an alternative to {approve} that can be used as a mitigation for problems described in {IERC20-approve}. Emits an {Approval} event indicating the updated allowance. Requirements: - `spender` cannot be the zero address."
      },
      "name()": {
        "details": "Returns the name of the token."
      },
      "symbol()": {
        "details": "Returns the symbol of the token, usually a shorter version of the name."
      },
      "totalSupply()": {
        "details": "See {IERC20-totalSupply}."
      },
      "transfer(address,uint256)": {
        "details": "See {IERC20-transfer}. Requirements: - `recipient` cannot be the zero address. - the caller must have a balance of at least `amount`."
      },
      "transferFrom(address,address,uint256)": {
        "details": "See {IERC20-transferFrom}. Emits an {Approval} event indicating the updated allowance. This is not required by the EIP. See the note at the beginning of {ERC20}. Requirements: - `sender` and `recipient` cannot be the zero address. - `sender` must have a balance of at least `amount`. - the caller must have allowance for ``sender``'s tokens of at least `amount`."
      }
    },
    "version": 1
  },
  "userdoc": {
    "kind": "user",
    "methods": {},
    "version": 1
  },
  "storageLayout": {
    "storage": [
      {
        "astId": 3669,
        "contract": "contracts/governance/SiloSnapshotWrapper.sol:SiloSnapshotWrapper",
        "label": "_balances",
        "offset": 0,
        "slot": "0",
        "type": "t_mapping(t_address,t_uint256)"
      },
      {
        "astId": 3675,
        "contract": "contracts/governance/SiloSnapshotWrapper.sol:SiloSnapshotWrapper",
        "label": "_allowances",
        "offset": 0,
        "slot": "1",
        "type": "t_mapping(t_address,t_mapping(t_address,t_uint256))"
      },
      {
        "astId": 3677,
        "contract": "contracts/governance/SiloSnapshotWrapper.sol:SiloSnapshotWrapper",
        "label": "_totalSupply",
        "offset": 0,
        "slot": "2",
        "type": "t_uint256"
      },
      {
        "astId": 3679,
        "contract": "contracts/governance/SiloSnapshotWrapper.sol:SiloSnapshotWrapper",
        "label": "_name",
        "offset": 0,
        "slot": "3",
        "type": "t_string_storage"
      },
      {
        "astId": 3681,
        "contract": "contracts/governance/SiloSnapshotWrapper.sol:SiloSnapshotWrapper",
        "label": "_symbol",
        "offset": 0,
        "slot": "4",
        "type": "t_string_storage"
      },
      {
        "astId": 14100,
        "contract": "contracts/governance/SiloSnapshotWrapper.sol:SiloSnapshotWrapper",
        "label": "siloToken",
        "offset": 0,
        "slot": "5",
        "type": "t_contract(ERC20)4199"
      },
      {
        "astId": 14103,
        "contract": "contracts/governance/SiloSnapshotWrapper.sol:SiloSnapshotWrapper",
        "label": "vestingContracts",
        "offset": 0,
        "slot": "6",
        "type": "t_array(t_address)dyn_storage"
      }
    ],
    "types": {
      "t_address": {
        "encoding": "inplace",
        "label": "address",
        "numberOfBytes": "20"
      },
      "t_array(t_address)dyn_storage": {
        "base": "t_address",
        "encoding": "dynamic_array",
        "label": "address[]",
        "numberOfBytes": "32"
      },
      "t_contract(ERC20)4199": {
        "encoding": "inplace",
        "label": "contract ERC20",
        "numberOfBytes": "20"
      },
      "t_mapping(t_address,t_mapping(t_address,t_uint256))": {
        "encoding": "mapping",
        "key": "t_address",
        "label": "mapping(address => mapping(address => uint256))",
        "numberOfBytes": "32",
        "value": "t_mapping(t_address,t_uint256)"
      },
      "t_mapping(t_address,t_uint256)": {
        "encoding": "mapping",
        "key": "t_address",
        "label": "mapping(address => uint256)",
        "numberOfBytes": "32",
        "value": "t_uint256"
      },
      "t_string_storage": {
        "encoding": "bytes",
        "label": "string",
        "numberOfBytes": "32"
      },
      "t_uint256": {
        "encoding": "inplace",
        "label": "uint256",
        "numberOfBytes": "32"
      }
    }
  }
}