{
  "address": "0x3BCa0e9780f63508938Cc3D8F870EB2bFef1Aa77",
  "abi": [
    {
      "inputs": [
        {
          "internalType": "address",
          "name": "_quoteToken",
          "type": "address"
        },
        {
          "internalType": "address",
          "name": "_factory",
          "type": "address"
        }
      ],
      "stateMutability": "nonpayable",
      "type": "constructor"
    },
    {
      "anonymous": false,
      "inputs": [
        {
          "indexed": false,
          "internalType": "address",
          "name": "newOracle",
          "type": "address"
        },
        {
          "indexed": false,
          "internalType": "uint256",
          "name": "id",
          "type": "uint256"
        }
      ],
      "name": "NewOracle",
      "type": "event"
    },
    {
      "anonymous": false,
      "inputs": [
        {
          "indexed": false,
          "internalType": "address",
          "name": "oracle",
          "type": "address"
        },
        {
          "indexed": false,
          "internalType": "address",
          "name": "asset",
          "type": "address"
        }
      ],
      "name": "OracleForAsset",
      "type": "event"
    },
    {
      "anonymous": false,
      "inputs": [
        {
          "indexed": false,
          "internalType": "address",
          "name": "oracle",
          "type": "address"
        }
      ],
      "name": "OracleRemoved",
      "type": "event"
    },
    {
      "anonymous": false,
      "inputs": [
        {
          "indexed": true,
          "internalType": "address",
          "name": "previousOwner",
          "type": "address"
        },
        {
          "indexed": true,
          "internalType": "address",
          "name": "newOwner",
          "type": "address"
        }
      ],
      "name": "OwnershipPending",
      "type": "event"
    },
    {
      "anonymous": false,
      "inputs": [
        {
          "indexed": true,
          "internalType": "address",
          "name": "previousOwner",
          "type": "address"
        },
        {
          "indexed": true,
          "internalType": "address",
          "name": "newOwner",
          "type": "address"
        }
      ],
      "name": "OwnershipTransferred",
      "type": "event"
    },
    {
      "inputs": [],
      "name": "ONE",
      "outputs": [
        {
          "internalType": "uint256",
          "name": "",
          "type": "uint256"
        }
      ],
      "stateMutability": "view",
      "type": "function"
    },
    {
      "inputs": [],
      "name": "acceptOwnership",
      "outputs": [],
      "stateMutability": "nonpayable",
      "type": "function"
    },
    {
      "inputs": [
        {
          "internalType": "address",
          "name": "_oracle",
          "type": "address"
        }
      ],
      "name": "addOracle",
      "outputs": [],
      "stateMutability": "nonpayable",
      "type": "function"
    },
    {
      "inputs": [
        {
          "internalType": "address",
          "name": "",
          "type": "address"
        }
      ],
      "name": "assetsOracles",
      "outputs": [
        {
          "internalType": "address",
          "name": "",
          "type": "address"
        }
      ],
      "stateMutability": "view",
      "type": "function"
    },
    {
      "inputs": [
        {
          "internalType": "address",
          "name": "_asset",
          "type": "address"
        },
        {
          "internalType": "address",
          "name": "_oracle",
          "type": "address"
        }
      ],
      "name": "changeBestOracleForAsset",
      "outputs": [],
      "stateMutability": "nonpayable",
      "type": "function"
    },
    {
      "inputs": [],
      "name": "factory",
      "outputs": [
        {
          "internalType": "address",
          "name": "",
          "type": "address"
        }
      ],
      "stateMutability": "view",
      "type": "function"
    },
    {
      "inputs": [
        {
          "internalType": "address",
          "name": "_asset",
          "type": "address"
        }
      ],
      "name": "findBestOracle",
      "outputs": [
        {
          "internalType": "address",
          "name": "",
          "type": "address"
        }
      ],
      "stateMutability": "view",
      "type": "function"
    },
    {
      "inputs": [
        {
          "internalType": "address",
          "name": "_base",
          "type": "address"
        }
      ],
      "name": "getPrice",
      "outputs": [
        {
          "internalType": "uint256",
          "name": "",
          "type": "uint256"
        }
      ],
      "stateMutability": "view",
      "type": "function"
    },
    {
      "inputs": [
        {
          "internalType": "address",
          "name": "_asset",
          "type": "address"
        },
        {
          "internalType": "address",
          "name": "_oracle",
          "type": "address"
        },
        {
          "internalType": "bytes",
          "name": "_data",
          "type": "bytes"
        }
      ],
      "name": "initOracleForAsset",
      "outputs": [],
      "stateMutability": "nonpayable",
      "type": "function"
    },
    {
      "inputs": [],
      "name": "oracleList",
      "outputs": [
        {
          "internalType": "address[]",
          "name": "",
          "type": "address[]"
        }
      ],
      "stateMutability": "view",
      "type": "function"
    },
    {
      "inputs": [
        {
          "internalType": "uint256",
          "name": "",
          "type": "uint256"
        }
      ],
      "name": "oracles",
      "outputs": [
        {
          "internalType": "address",
          "name": "",
          "type": "address"
        }
      ],
      "stateMutability": "view",
      "type": "function"
    },
    {
      "inputs": [],
      "name": "oraclesCount",
      "outputs": [
        {
          "internalType": "uint256",
          "name": "",
          "type": "uint256"
        }
      ],
      "stateMutability": "view",
      "type": "function"
    },
    {
      "inputs": [],
      "name": "owner",
      "outputs": [
        {
          "internalType": "address",
          "name": "",
          "type": "address"
        }
      ],
      "stateMutability": "view",
      "type": "function"
    },
    {
      "inputs": [],
      "name": "pendingOwner",
      "outputs": [
        {
          "internalType": "address",
          "name": "",
          "type": "address"
        }
      ],
      "stateMutability": "view",
      "type": "function"
    },
    {
      "inputs": [],
      "name": "quoteToken",
      "outputs": [
        {
          "internalType": "address",
          "name": "",
          "type": "address"
        }
      ],
      "stateMutability": "view",
      "type": "function"
    },
    {
      "inputs": [
        {
          "internalType": "address",
          "name": "",
          "type": "address"
        }
      ],
      "name": "registeredOracles",
      "outputs": [
        {
          "internalType": "bool",
          "name": "",
          "type": "bool"
        }
      ],
      "stateMutability": "view",
      "type": "function"
    },
    {
      "inputs": [
        {
          "internalType": "uint256",
          "name": "_oracleId",
          "type": "uint256"
        }
      ],
      "name": "removeOracle",
      "outputs": [],
      "stateMutability": "nonpayable",
      "type": "function"
    },
    {
      "inputs": [],
      "name": "renounceOwnership",
      "outputs": [],
      "stateMutability": "nonpayable",
      "type": "function"
    },
    {
      "inputs": [
        {
          "internalType": "address",
          "name": "_asset",
          "type": "address"
        }
      ],
      "name": "setBestOracleForAsset",
      "outputs": [
        {
          "internalType": "address",
          "name": "bestOracle",
          "type": "address"
        }
      ],
      "stateMutability": "nonpayable",
      "type": "function"
    },
    {
      "inputs": [
        {
          "internalType": "address",
          "name": "newOwner",
          "type": "address"
        }
      ],
      "name": "transferOwnership",
      "outputs": [],
      "stateMutability": "nonpayable",
      "type": "function"
    },
    {
      "inputs": [
        {
          "internalType": "address",
          "name": "newPendingOwner",
          "type": "address"
        }
      ],
      "name": "transferPendingOwnership",
      "outputs": [],
      "stateMutability": "nonpayable",
      "type": "function"
    }
  ],
  "transactionHash": "0x52c138b3a2f4dfd1cc14c8317c5a13ef7b88d1b573255bff3dacc1eae6d201ec",
  "args": [
    "0xC02aaA39b223FE8D0A0e5C4F27eAD9083C756Cc2",
    "0x012D960E091587A6075C8233FDEba7db87142923"
  ],
  "solcInputHash": "537831d942c1ab4870aa40f6dd7512c8",
  "bytecode": "0x60c06040523480156200001157600080fd5b5060405162001770380380620017708339810160408190526200003491620002c7565b6200003e6200005e565b6001600160601b0319606091821b811660805291901b1660a052620002ff565b600054610100900460ff168062000078575060005460ff16155b620000d05760405162461bcd60e51b815260206004820152602e60248201526000805160206200175083398151915260448201526d191e481a5b9a5d1a585b1a5e995960921b60648201526084015b60405180910390fd5b600054610100900460ff16158015620000f3576000805461ffff19166101011790555b620000fd6200011d565b62000107620001c2565b80156200011a576000805461ff00191690555b50565b600054610100900460ff168062000137575060005460ff16155b6200018b5760405162461bcd60e51b815260206004820152602e60248201526000805160206200175083398151915260448201526d191e481a5b9a5d1a585b1a5e995960921b6064820152608401620000c7565b600054610100900460ff1615801562000107576000805461ffff191661010117905580156200011a576000805461ff001916905550565b600054610100900460ff1680620001dc575060005460ff16155b620002305760405162461bcd60e51b815260206004820152602e60248201526000805160206200175083398151915260448201526d191e481a5b9a5d1a585b1a5e995960921b6064820152608401620000c7565b600054610100900460ff1615801562000253576000805461ffff19166101011790555b6200010733603380546001600160a01b038381166001600160a01b0319831681179093556040519116919082907f8be0079c531659141344cd1fd0a4f28419497f9722a3daafe3b4186f6b6457e090600090a35050565b80516001600160a01b0381168114620002c257600080fd5b919050565b60008060408385031215620002db57600080fd5b620002e683620002aa565b9150620002f660208401620002aa565b90509250929050565b60805160601c60a05160601c6114176200033960003960008181610187015281816106ce0152610c5f0152600061028e01526114176000f3fe608060405234801561001057600080fd5b50600436106101375760003560e01c806379ba5097116100b8578063c45a01551161007c578063c45a015514610289578063d58bcd04146102b0578063df5dd1a5146102c5578063e30c3978146102d8578063e4362b23146102e9578063f2fde38b1461031c57600080fd5b806379ba50971461023b5780637bb0e9e81461024357806380935dbf146102565780638da5cb5b14610269578063c2ee3a081461027a57600080fd5b806341976e09116100ff57806341976e09146101e45780634cee966a146102055780635b69a7d814610218578063715018a61461022b57806376f709001461023357600080fd5b80630ef0e5e81461013c578063217a4b70146101825780632979f8f1146101a95780633278c694146101be578063332f3c21146101d1575b600080fd5b61016561014a366004611136565b6036602052600090815260409020546001600160a01b031681565b6040516001600160a01b0390911681526020015b60405180910390f35b6101657f000000000000000000000000000000000000000000000000000000000000000081565b6101bc6101b7366004611177565b61032f565b005b6101bc6101cc366004611136565b6105b2565b6101bc6101df3660046111b0565b61064f565b6101f76101f2366004611136565b6106ca565b604051908152602001610179565b610165610213366004611136565b6107a8565b610165610226366004611264565b6107b3565b6101bc6107dd565b6037546101f7565b6101bc610813565b610165610251366004611136565b6108a9565b6101bc610264366004611264565b6108b4565b6033546001600160a01b0316610165565b6101f7670de0b6b3a764000081565b6101657f000000000000000000000000000000000000000000000000000000000000000081565b6102b8610a8b565b60405161017991906112d6565b6101bc6102d3366004611136565b610aed565b6034546001600160a01b0316610165565b61030c6102f7366004611136565b60356020526000908152604090205460ff1681565b6040519015158152602001610179565b6101bc61032a366004611136565b610e15565b6001600160a01b03811660009081526035602052604090205460ff166103b05760405162461bcd60e51b815260206004820152602b60248201527f53696c6f4f7261636c655265706f7369746f72793a206f7261636c65206e6f7460448201526a081c9959da5cdd195c995960aa1b60648201526084015b60405180910390fd5b6001600160a01b03808316600090815260366020526040902054168061043e5760405162461bcd60e51b815260206004820152603d60248201527f53696c6f4f7261636c655265706f7369746f72793a207573652073657442657360448201527f744f7261636c65466f72417373657420746f20696e697420617373657400000060648201526084016103a7565b604051630b8abf1d60e31b81526001600160a01b03848116600483015260009190831690635c55f8e89060240160206040518083038186803b15801561048357600080fd5b505afa158015610497573d6000803e3d6000fd5b505050506040513d601f19601f820116820180604052508101906104bb919061127d565b604051630b8abf1d60e31b81526001600160a01b038681166004830152919250600091851690635c55f8e89060240160206040518083038186803b15801561050257600080fd5b505afa158015610516573d6000803e3d6000fd5b505050506040513d601f19601f8201168201806040525081019061053a919061127d565b9050818110156105a15760405162461bcd60e51b815260206004820152602c60248201527f53696c6f4f7261636c655265706f7369746f72793a2063686f73656e206f726160448201526b636c6520697320776f72736560a01b60648201526084016103a7565b6105ab8585610eb0565b5050505050565b6033546001600160a01b031633146105dc5760405162461bcd60e51b81526004016103a790611323565b806001600160a01b03166105f86033546001600160a01b031690565b6001600160a01b03167f3c672e6c16e239c29e969deaf4eae15d7002350bf5490175e7481155af04c83a60405160405180910390a3603480546001600160a01b0319166001600160a01b0392909216919091179055565b6001600160a01b038316156106c157604051635e3263fb60e01b81526001600160a01b03841690635e3263fb9061068e90879086908690600401611296565b600060405180830381600087803b1580156106a857600080fd5b505af11580156106bc573d6000803e3d6000fd5b505050505b6105ab84610f7c565b60007f00000000000000000000000000000000000000000000000000000000000000006001600160a01b0316826001600160a01b031614156107155750670de0b6b3a7640000919050565b6001600160a01b03828116600081815260366020526040908190205490516341976e0960e01b81526004810192909252909116906341976e099060240160206040518083038186803b15801561076a57600080fd5b505afa15801561077e573d6000803e3d6000fd5b505050506040513d601f19601f820116820180604052508101906107a2919061127d565b92915050565b60006107a28261100a565b603781815481106107c357600080fd5b6000918252602090912001546001600160a01b0316905081565b6033546001600160a01b031633146108075760405162461bcd60e51b81526004016103a790611323565b61081160006110e4565b565b6034546001600160a01b0316331461087d5760405162461bcd60e51b815260206004820152602760248201527f4f776e61626c653a2063616c6c6572206973206e6f74207468652070656e64696044820152663733a7bbb732b960c91b60648201526084016103a7565b6108976108926034546001600160a01b031690565b6110e4565b603480546001600160a01b0319169055565b60006107a282610f7c565b6033546001600160a01b031633146108de5760405162461bcd60e51b81526004016103a790611323565b6000603782815481106108f3576108f36113b6565b60009182526020808320909101546001600160a01b0316808352603590915260409091205490915060ff1661097e5760405162461bcd60e51b815260206004820152602b60248201527f53696c6f4f7261636c655265706f7369746f72793a206f7261636c6520646f6560448201526a1cc81b9bdd08195e1a5cdd60aa1b60648201526084016103a7565b6040516001600160a01b03821681527f9c8e7d83025bef8a04c664b2f753f64b8814bdb7e27291d7e50935f18cc3c7129060200160405180910390a16001600160a01b0381166000908152603560205260409020805460ff19169055603780546109ea90600190611358565b815481106109fa576109fa6113b6565b600091825260209091200154603780546001600160a01b039092169184908110610a2657610a266113b6565b9060005260206000200160006101000a8154816001600160a01b0302191690836001600160a01b031602179055506037805480610a6557610a656113a0565b600082815260209020810160001990810180546001600160a01b03191690550190555050565b60606037805480602002602001604051908101604052809291908181526020018280548015610ae357602002820191906000526020600020905b81546001600160a01b03168152600190910190602001808311610ac5575b5050505050905090565b6033546001600160a01b03163314610b175760405162461bcd60e51b81526004016103a790611323565b6001600160a01b03811660009081526035602052604090205460ff1615610b945760405162461bcd60e51b815260206004820152602b60248201527f53696c6f4f7261636c655265706f7369746f72793a206f7261636c6520616c7260448201526a656164792065786973747360a81b60648201526084016103a7565b806001600160a01b031663ecdcb0ff6040518163ffffffff1660e01b815260040160206040518083038186803b158015610bcd57600080fd5b505afa158015610be1573d6000803e3d6000fd5b505050506040513d601f19601f82011682018060405250810190610c059190611242565b610c5d5760405162461bcd60e51b815260206004820152602360248201527f53696c6f4f7261636c655265706f7369746f72793a206e6f7420616e206f7261604482015262636c6560e81b60648201526084016103a7565b7f00000000000000000000000000000000000000000000000000000000000000006001600160a01b0316816001600160a01b031663217a4b706040518163ffffffff1660e01b815260040160206040518083038186803b158015610cc057600080fd5b505afa158015610cd4573d6000803e3d6000fd5b505050506040513d601f19601f82011682018060405250810190610cf8919061115a565b6001600160a01b031614610d695760405162461bcd60e51b815260206004820152603260248201527f53696c6f4f7261636c655265706f7369746f72793a20696e76616c69642071756044820152716f7465546f6b656e20696e206f7261636c6560701b60648201526084016103a7565b603754604080516001600160a01b038416815260208101929092527f45f1932942561e7d7562d1677fd99002dd4106d397ed7b756168542c4c5c0fac910160405180910390a16001600160a01b03166000818152603560205260408120805460ff191660019081179091556037805491820181559091527f42a7b7dd785cd69714a189dffb3fd7d7174edc9ece837694ce50f7078f7c31ae0180546001600160a01b0319169091179055565b6033546001600160a01b03163314610e3f5760405162461bcd60e51b81526004016103a790611323565b6001600160a01b038116610ea45760405162461bcd60e51b815260206004820152602660248201527f4f776e61626c653a206e6577206f776e657220697320746865207a65726f206160448201526564647265737360d01b60648201526084016103a7565b610ead816110e4565b50565b604080516001600160a01b038085168252831660208201527f87987abe74f65c11e5ed91847ea2a5d8f269929df44aab920a9dc3799e29ec70910160405180910390a16040516326b9797f60e01b81526001600160a01b0383811660048301528216906326b9797f90602401600060405180830381600087803b158015610f3657600080fd5b505af1158015610f4a573d6000803e3d6000fd5b505050506001600160a01b03918216600090815260366020526040902080546001600160a01b03191691909216179055565b6000610f878261100a565b90506001600160a01b038116610ffb5760405162461bcd60e51b815260206004820152603360248201527f53696c6f4f7261636c655265706f7369746f72793a2063616e206e6f742066696044820152721b99081bdc9858db1948199bdc88185cdcd95d606a1b60648201526084016103a7565b6110058282610eb0565b919050565b60008060005b6037548110156110dd5760006037828154811061102f5761102f6113b6565b6000918252602082200154604051630b8abf1d60e31b81526001600160a01b03888116600483015290911692508290635c55f8e89060240160206040518083038186803b15801561107f57600080fd5b505afa158015611093573d6000803e3d6000fd5b505050506040513d601f19601f820116820180604052508101906110b7919061127d565b9050838111156110c8578194508093505b505080806110d59061136f565b915050611010565b5050919050565b603380546001600160a01b038381166001600160a01b0319831681179093556040519116919082907f8be0079c531659141344cd1fd0a4f28419497f9722a3daafe3b4186f6b6457e090600090a35050565b60006020828403121561114857600080fd5b8135611153816113cc565b9392505050565b60006020828403121561116c57600080fd5b8151611153816113cc565b6000806040838503121561118a57600080fd5b8235611195816113cc565b915060208301356111a5816113cc565b809150509250929050565b600080600080606085870312156111c657600080fd5b84356111d1816113cc565b935060208501356111e1816113cc565b9250604085013567ffffffffffffffff808211156111fe57600080fd5b818701915087601f83011261121257600080fd5b81358181111561122157600080fd5b88602082850101111561123357600080fd5b95989497505060200194505050565b60006020828403121561125457600080fd5b8151801515811461115357600080fd5b60006020828403121561127657600080fd5b5035919050565b60006020828403121561128f57600080fd5b5051919050565b6001600160a01b03841681526040602082018190528101829052818360608301376000818301606090810191909152601f909201601f1916010192915050565b6020808252825182820181905260009190848201906040850190845b818110156113175783516001600160a01b0316835292840192918401916001016112f2565b50909695505050505050565b6020808252818101527f4f776e61626c653a2063616c6c6572206973206e6f7420746865206f776e6572604082015260600190565b60008282101561136a5761136a61138a565b500390565b60006000198214156113835761138361138a565b5060010190565b634e487b7160e01b600052601160045260246000fd5b634e487b7160e01b600052603160045260246000fd5b634e487b7160e01b600052603260045260246000fd5b6001600160a01b0381168114610ead57600080fdfea2646970667358221220cc07f0396affd26160c65655507892eb4e280413a655b77721ad9b3f39831b0c64736f6c63430008070033496e697469616c697a61626c653a20636f6e747261637420697320616c726561",
  "devdoc": {
    "kind": "dev",
    "methods": {
      "acceptOwnership()": {
        "details": "Transfers ownership of the contract to a pending owner Can only be called by the pending owner."
      },
      "initOracleForAsset(address,address,bytes)": {
        "details": "this method does two things:      - init new asset if oracle is provided      - search for best oracle and updates if we found better",
        "params": {
          "_asset": "address od token to be initialise",
          "_data": "(optional) custom data required for asset initialisation",
          "_oracle": "(optional) address of silo oracle that will be initialised with new asset        we do not check, if this oracle is registered or not, because it can not be used if not registered anyway"
        }
      },
      "owner()": {
        "details": "Returns the address of the current owner."
      },
      "pendingOwner()": {
        "details": "Returns the address of the pending owner."
      },
      "renounceOwnership()": {
        "details": "Leaves the contract without owner. It will not be possible to call `onlyOwner` functions anymore. Can only be called by the current owner. NOTE: Renouncing ownership will leave the contract without an owner, thereby removing any functionality that is only available to the owner."
      },
      "transferOwnership(address)": {
        "details": "Transfers ownership of the contract to a new account (`newOwner`). Can only be called by the current owner."
      },
      "transferPendingOwnership(address)": {
        "details": "Transfers pending ownership of the contract to a new account (`newPendingOwner`). Can only be called by the current owner."
      }
    },
    "version": 1
  },
  "userdoc": {
    "kind": "user",
    "methods": {
      "initOracleForAsset(address,address,bytes)": {
        "notice": "initialise oracle for asset"
      }
    },
    "version": 1
  },
  "storageLayout": {
    "storage": [
      {
        "astId": 5,
        "contract": "contracts/SiloOracleRepository.sol:SiloOracleRepository",
        "label": "_initialized",
        "offset": 0,
        "slot": "0",
        "type": "t_bool"
      },
      {
        "astId": 8,
        "contract": "contracts/SiloOracleRepository.sol:SiloOracleRepository",
        "label": "_initializing",
        "offset": 1,
        "slot": "0",
        "type": "t_bool"
      },
      {
        "astId": 822,
        "contract": "contracts/SiloOracleRepository.sol:SiloOracleRepository",
        "label": "__gap",
        "offset": 0,
        "slot": "1",
        "type": "t_array(t_uint256)50_storage"
      },
      {
        "astId": 10714,
        "contract": "contracts/SiloOracleRepository.sol:SiloOracleRepository",
        "label": "_owner",
        "offset": 0,
        "slot": "51",
        "type": "t_address"
      },
      {
        "astId": 10716,
        "contract": "contracts/SiloOracleRepository.sol:SiloOracleRepository",
        "label": "_pendingOwner",
        "offset": 0,
        "slot": "52",
        "type": "t_address"
      },
      {
        "astId": 8378,
        "contract": "contracts/SiloOracleRepository.sol:SiloOracleRepository",
        "label": "registeredOracles",
        "offset": 0,
        "slot": "53",
        "type": "t_mapping(t_address,t_bool)"
      },
      {
        "astId": 8382,
        "contract": "contracts/SiloOracleRepository.sol:SiloOracleRepository",
        "label": "assetsOracles",
        "offset": 0,
        "slot": "54",
        "type": "t_mapping(t_address,t_address)"
      },
      {
        "astId": 8385,
        "contract": "contracts/SiloOracleRepository.sol:SiloOracleRepository",
        "label": "oracles",
        "offset": 0,
        "slot": "55",
        "type": "t_array(t_address)dyn_storage"
      }
    ],
    "types": {
      "t_address": {
        "encoding": "inplace",
        "label": "address",
        "numberOfBytes": "20"
      },
      "t_array(t_address)dyn_storage": {
        "base": "t_address",
        "encoding": "dynamic_array",
        "label": "address[]",
        "numberOfBytes": "32"
      },
      "t_array(t_uint256)50_storage": {
        "base": "t_uint256",
        "encoding": "inplace",
        "label": "uint256[50]",
        "numberOfBytes": "1600"
      },
      "t_bool": {
        "encoding": "inplace",
        "label": "bool",
        "numberOfBytes": "1"
      },
      "t_mapping(t_address,t_address)": {
        "encoding": "mapping",
        "key": "t_address",
        "label": "mapping(address => address)",
        "numberOfBytes": "32",
        "value": "t_address"
      },
      "t_mapping(t_address,t_bool)": {
        "encoding": "mapping",
        "key": "t_address",
        "label": "mapping(address => bool)",
        "numberOfBytes": "32",
        "value": "t_bool"
      },
      "t_uint256": {
        "encoding": "inplace",
        "label": "uint256",
        "numberOfBytes": "32"
      }
    }
  }
}