{
  "address": "0xA89163F7B2D68A8fbA6Ca36BEEd32Bd4f3EeAf61",
  "abi": [
    {
      "inputs": [
        {
          "internalType": "contract ERC20Votes",
          "name": "_token",
          "type": "address"
        },
        {
          "internalType": "contract TimelockController",
          "name": "_timelock",
          "type": "address"
        }
      ],
      "stateMutability": "nonpayable",
      "type": "constructor"
    },
    {
      "anonymous": false,
      "inputs": [
        {
          "indexed": false,
          "internalType": "uint256",
          "name": "proposalId",
          "type": "uint256"
        }
      ],
      "name": "ProposalCanceled",
      "type": "event"
    },
    {
      "anonymous": false,
      "inputs": [
        {
          "indexed": false,
          "internalType": "uint256",
          "name": "proposalId",
          "type": "uint256"
        },
        {
          "indexed": false,
          "internalType": "address",
          "name": "proposer",
          "type": "address"
        },
        {
          "indexed": false,
          "internalType": "address[]",
          "name": "targets",
          "type": "address[]"
        },
        {
          "indexed": false,
          "internalType": "uint256[]",
          "name": "values",
          "type": "uint256[]"
        },
        {
          "indexed": false,
          "internalType": "string[]",
          "name": "signatures",
          "type": "string[]"
        },
        {
          "indexed": false,
          "internalType": "bytes[]",
          "name": "calldatas",
          "type": "bytes[]"
        },
        {
          "indexed": false,
          "internalType": "uint256",
          "name": "startBlock",
          "type": "uint256"
        },
        {
          "indexed": false,
          "internalType": "uint256",
          "name": "endBlock",
          "type": "uint256"
        },
        {
          "indexed": false,
          "internalType": "string",
          "name": "description",
          "type": "string"
        }
      ],
      "name": "ProposalCreated",
      "type": "event"
    },
    {
      "anonymous": false,
      "inputs": [
        {
          "indexed": false,
          "internalType": "uint256",
          "name": "proposalId",
          "type": "uint256"
        }
      ],
      "name": "ProposalExecuted",
      "type": "event"
    },
    {
      "anonymous": false,
      "inputs": [
        {
          "indexed": false,
          "internalType": "uint256",
          "name": "proposalId",
          "type": "uint256"
        },
        {
          "indexed": false,
          "internalType": "uint256",
          "name": "eta",
          "type": "uint256"
        }
      ],
      "name": "ProposalQueued",
      "type": "event"
    },
    {
      "anonymous": false,
      "inputs": [
        {
          "indexed": false,
          "internalType": "uint256",
          "name": "oldProposalThreshold",
          "type": "uint256"
        },
        {
          "indexed": false,
          "internalType": "uint256",
          "name": "newProposalThreshold",
          "type": "uint256"
        }
      ],
      "name": "ProposalThresholdSet",
      "type": "event"
    },
    {
      "anonymous": false,
      "inputs": [
        {
          "indexed": false,
          "internalType": "uint256",
          "name": "oldQuorumNumerator",
          "type": "uint256"
        },
        {
          "indexed": false,
          "internalType": "uint256",
          "name": "newQuorumNumerator",
          "type": "uint256"
        }
      ],
      "name": "QuorumNumeratorUpdated",
      "type": "event"
    },
    {
      "anonymous": false,
      "inputs": [
        {
          "indexed": false,
          "internalType": "address",
          "name": "oldTimelock",
          "type": "address"
        },
        {
          "indexed": false,
          "internalType": "address",
          "name": "newTimelock",
          "type": "address"
        }
      ],
      "name": "TimelockChange",
      "type": "event"
    },
    {
      "anonymous": false,
      "inputs": [
        {
          "indexed": true,
          "internalType": "address",
          "name": "voter",
          "type": "address"
        },
        {
          "indexed": false,
          "internalType": "uint256",
          "name": "proposalId",
          "type": "uint256"
        },
        {
          "indexed": false,
          "internalType": "uint8",
          "name": "support",
          "type": "uint8"
        },
        {
          "indexed": false,
          "internalType": "uint256",
          "name": "weight",
          "type": "uint256"
        },
        {
          "indexed": false,
          "internalType": "string",
          "name": "reason",
          "type": "string"
        }
      ],
      "name": "VoteCast",
      "type": "event"
    },
    {
      "anonymous": false,
      "inputs": [
        {
          "indexed": false,
          "internalType": "uint256",
          "name": "oldVotingDelay",
          "type": "uint256"
        },
        {
          "indexed": false,
          "internalType": "uint256",
          "name": "newVotingDelay",
          "type": "uint256"
        }
      ],
      "name": "VotingDelaySet",
      "type": "event"
    },
    {
      "anonymous": false,
      "inputs": [
        {
          "indexed": false,
          "internalType": "uint256",
          "name": "oldVotingPeriod",
          "type": "uint256"
        },
        {
          "indexed": false,
          "internalType": "uint256",
          "name": "newVotingPeriod",
          "type": "uint256"
        }
      ],
      "name": "VotingPeriodSet",
      "type": "event"
    },
    {
      "inputs": [],
      "name": "BALLOT_TYPEHASH",
      "outputs": [
        {
          "internalType": "bytes32",
          "name": "",
          "type": "bytes32"
        }
      ],
      "stateMutability": "view",
      "type": "function"
    },
    {
      "inputs": [],
      "name": "COUNTING_MODE",
      "outputs": [
        {
          "internalType": "string",
          "name": "",
          "type": "string"
        }
      ],
      "stateMutability": "pure",
      "type": "function"
    },
    {
      "inputs": [
        {
          "internalType": "uint256",
          "name": "proposalId",
          "type": "uint256"
        },
        {
          "internalType": "uint8",
          "name": "support",
          "type": "uint8"
        }
      ],
      "name": "castVote",
      "outputs": [
        {
          "internalType": "uint256",
          "name": "",
          "type": "uint256"
        }
      ],
      "stateMutability": "nonpayable",
      "type": "function"
    },
    {
      "inputs": [
        {
          "internalType": "uint256",
          "name": "proposalId",
          "type": "uint256"
        },
        {
          "internalType": "uint8",
          "name": "support",
          "type": "uint8"
        },
        {
          "internalType": "uint8",
          "name": "v",
          "type": "uint8"
        },
        {
          "internalType": "bytes32",
          "name": "r",
          "type": "bytes32"
        },
        {
          "internalType": "bytes32",
          "name": "s",
          "type": "bytes32"
        }
      ],
      "name": "castVoteBySig",
      "outputs": [
        {
          "internalType": "uint256",
          "name": "",
          "type": "uint256"
        }
      ],
      "stateMutability": "nonpayable",
      "type": "function"
    },
    {
      "inputs": [
        {
          "internalType": "uint256",
          "name": "proposalId",
          "type": "uint256"
        },
        {
          "internalType": "uint8",
          "name": "support",
          "type": "uint8"
        },
        {
          "internalType": "string",
          "name": "reason",
          "type": "string"
        }
      ],
      "name": "castVoteWithReason",
      "outputs": [
        {
          "internalType": "uint256",
          "name": "",
          "type": "uint256"
        }
      ],
      "stateMutability": "nonpayable",
      "type": "function"
    },
    {
      "inputs": [
        {
          "internalType": "address[]",
          "name": "targets",
          "type": "address[]"
        },
        {
          "internalType": "uint256[]",
          "name": "values",
          "type": "uint256[]"
        },
        {
          "internalType": "bytes[]",
          "name": "calldatas",
          "type": "bytes[]"
        },
        {
          "internalType": "bytes32",
          "name": "descriptionHash",
          "type": "bytes32"
        }
      ],
      "name": "execute",
      "outputs": [
        {
          "internalType": "uint256",
          "name": "",
          "type": "uint256"
        }
      ],
      "stateMutability": "payable",
      "type": "function"
    },
    {
      "inputs": [
        {
          "internalType": "address",
          "name": "_account",
          "type": "address"
        },
        {
          "internalType": "uint256",
          "name": "_blockNumber",
          "type": "uint256"
        }
      ],
      "name": "getVotes",
      "outputs": [
        {
          "internalType": "uint256",
          "name": "",
          "type": "uint256"
        }
      ],
      "stateMutability": "view",
      "type": "function"
    },
    {
      "inputs": [
        {
          "internalType": "uint256",
          "name": "proposalId",
          "type": "uint256"
        },
        {
          "internalType": "address",
          "name": "account",
          "type": "address"
        }
      ],
      "name": "hasVoted",
      "outputs": [
        {
          "internalType": "bool",
          "name": "",
          "type": "bool"
        }
      ],
      "stateMutability": "view",
      "type": "function"
    },
    {
      "inputs": [
        {
          "internalType": "address[]",
          "name": "targets",
          "type": "address[]"
        },
        {
          "internalType": "uint256[]",
          "name": "values",
          "type": "uint256[]"
        },
        {
          "internalType": "bytes[]",
          "name": "calldatas",
          "type": "bytes[]"
        },
        {
          "internalType": "bytes32",
          "name": "descriptionHash",
          "type": "bytes32"
        }
      ],
      "name": "hashProposal",
      "outputs": [
        {
          "internalType": "uint256",
          "name": "",
          "type": "uint256"
        }
      ],
      "stateMutability": "pure",
      "type": "function"
    },
    {
      "inputs": [],
      "name": "name",
      "outputs": [
        {
          "internalType": "string",
          "name": "",
          "type": "string"
        }
      ],
      "stateMutability": "view",
      "type": "function"
    },
    {
      "inputs": [
        {
          "internalType": "uint256",
          "name": "proposalId",
          "type": "uint256"
        }
      ],
      "name": "proposalDeadline",
      "outputs": [
        {
          "internalType": "uint256",
          "name": "",
          "type": "uint256"
        }
      ],
      "stateMutability": "view",
      "type": "function"
    },
    {
      "inputs": [
        {
          "internalType": "uint256",
          "name": "proposalId",
          "type": "uint256"
        }
      ],
      "name": "proposalEta",
      "outputs": [
        {
          "internalType": "uint256",
          "name": "",
          "type": "uint256"
        }
      ],
      "stateMutability": "view",
      "type": "function"
    },
    {
      "inputs": [
        {
          "internalType": "uint256",
          "name": "proposalId",
          "type": "uint256"
        }
      ],
      "name": "proposalSnapshot",
      "outputs": [
        {
          "internalType": "uint256",
          "name": "",
          "type": "uint256"
        }
      ],
      "stateMutability": "view",
      "type": "function"
    },
    {
      "inputs": [],
      "name": "proposalThreshold",
      "outputs": [
        {
          "internalType": "uint256",
          "name": "",
          "type": "uint256"
        }
      ],
      "stateMutability": "view",
      "type": "function"
    },
    {
      "inputs": [
        {
          "internalType": "uint256",
          "name": "proposalId",
          "type": "uint256"
        }
      ],
      "name": "proposalVotes",
      "outputs": [
        {
          "internalType": "uint256",
          "name": "againstVotes",
          "type": "uint256"
        },
        {
          "internalType": "uint256",
          "name": "forVotes",
          "type": "uint256"
        },
        {
          "internalType": "uint256",
          "name": "abstainVotes",
          "type": "uint256"
        }
      ],
      "stateMutability": "view",
      "type": "function"
    },
    {
      "inputs": [
        {
          "internalType": "address[]",
          "name": "_targets",
          "type": "address[]"
        },
        {
          "internalType": "uint256[]",
          "name": "_values",
          "type": "uint256[]"
        },
        {
          "internalType": "bytes[]",
          "name": "_calldatas",
          "type": "bytes[]"
        },
        {
          "internalType": "string",
          "name": "_description",
          "type": "string"
        }
      ],
      "name": "propose",
      "outputs": [
        {
          "internalType": "uint256",
          "name": "",
          "type": "uint256"
        }
      ],
      "stateMutability": "nonpayable",
      "type": "function"
    },
    {
      "inputs": [
        {
          "internalType": "address[]",
          "name": "targets",
          "type": "address[]"
        },
        {
          "internalType": "uint256[]",
          "name": "values",
          "type": "uint256[]"
        },
        {
          "internalType": "bytes[]",
          "name": "calldatas",
          "type": "bytes[]"
        },
        {
          "internalType": "bytes32",
          "name": "descriptionHash",
          "type": "bytes32"
        }
      ],
      "name": "queue",
      "outputs": [
        {
          "internalType": "uint256",
          "name": "",
          "type": "uint256"
        }
      ],
      "stateMutability": "nonpayable",
      "type": "function"
    },
    {
      "inputs": [
        {
          "internalType": "uint256",
          "name": "_blockNumber",
          "type": "uint256"
        }
      ],
      "name": "quorum",
      "outputs": [
        {
          "internalType": "uint256",
          "name": "",
          "type": "uint256"
        }
      ],
      "stateMutability": "view",
      "type": "function"
    },
    {
      "inputs": [],
      "name": "quorumDenominator",
      "outputs": [
        {
          "internalType": "uint256",
          "name": "",
          "type": "uint256"
        }
      ],
      "stateMutability": "view",
      "type": "function"
    },
    {
      "inputs": [],
      "name": "quorumNumerator",
      "outputs": [
        {
          "internalType": "uint256",
          "name": "",
          "type": "uint256"
        }
      ],
      "stateMutability": "view",
      "type": "function"
    },
    {
      "inputs": [
        {
          "internalType": "uint256",
          "name": "newProposalThreshold",
          "type": "uint256"
        }
      ],
      "name": "setProposalThreshold",
      "outputs": [],
      "stateMutability": "nonpayable",
      "type": "function"
    },
    {
      "inputs": [
        {
          "internalType": "uint256",
          "name": "newVotingDelay",
          "type": "uint256"
        }
      ],
      "name": "setVotingDelay",
      "outputs": [],
      "stateMutability": "nonpayable",
      "type": "function"
    },
    {
      "inputs": [
        {
          "internalType": "uint256",
          "name": "newVotingPeriod",
          "type": "uint256"
        }
      ],
      "name": "setVotingPeriod",
      "outputs": [],
      "stateMutability": "nonpayable",
      "type": "function"
    },
    {
      "inputs": [
        {
          "internalType": "uint256",
          "name": "_proposalId",
          "type": "uint256"
        }
      ],
      "name": "state",
      "outputs": [
        {
          "internalType": "enum IGovernor.ProposalState",
          "name": "",
          "type": "uint8"
        }
      ],
      "stateMutability": "view",
      "type": "function"
    },
    {
      "inputs": [
        {
          "internalType": "bytes4",
          "name": "_interfaceId",
          "type": "bytes4"
        }
      ],
      "name": "supportsInterface",
      "outputs": [
        {
          "internalType": "bool",
          "name": "",
          "type": "bool"
        }
      ],
      "stateMutability": "view",
      "type": "function"
    },
    {
      "inputs": [],
      "name": "timelock",
      "outputs": [
        {
          "internalType": "address",
          "name": "",
          "type": "address"
        }
      ],
      "stateMutability": "view",
      "type": "function"
    },
    {
      "inputs": [],
      "name": "token",
      "outputs": [
        {
          "internalType": "contract ERC20Votes",
          "name": "",
          "type": "address"
        }
      ],
      "stateMutability": "view",
      "type": "function"
    },
    {
      "inputs": [
        {
          "internalType": "uint256",
          "name": "newQuorumNumerator",
          "type": "uint256"
        }
      ],
      "name": "updateQuorumNumerator",
      "outputs": [],
      "stateMutability": "nonpayable",
      "type": "function"
    },
    {
      "inputs": [
        {
          "internalType": "contract TimelockController",
          "name": "newTimelock",
          "type": "address"
        }
      ],
      "name": "updateTimelock",
      "outputs": [],
      "stateMutability": "nonpayable",
      "type": "function"
    },
    {
      "inputs": [],
      "name": "version",
      "outputs": [
        {
          "internalType": "string",
          "name": "",
          "type": "string"
        }
      ],
      "stateMutability": "view",
      "type": "function"
    },
    {
      "inputs": [],
      "name": "votingDelay",
      "outputs": [
        {
          "internalType": "uint256",
          "name": "",
          "type": "uint256"
        }
      ],
      "stateMutability": "view",
      "type": "function"
    },
    {
      "inputs": [],
      "name": "votingPeriod",
      "outputs": [
        {
          "internalType": "uint256",
          "name": "",
          "type": "uint256"
        }
      ],
      "stateMutability": "view",
      "type": "function"
    },
    {
      "stateMutability": "payable",
      "type": "receive"
    }
  ],
  "transactionHash": "0xfdb4ec53eff175ce078fe134fb2abd39bb0af47ff5670c898f46b8d2457ac981",
  "args": [
    "0x6f80310CA7F2C654691D1383149Fa1A57d8AB1f8",
    "0xe1F03b7B0eBf84e9B9f62a1dB40f1Efb8FaA7d22"
  ],
  "solcInputHash": "627d33c136ffd991007390d0056b0443",
  "bytecode": "0x6101606040523480156200001257600080fd5b506040516200303f3803806200303f83398101604081905262000035916200049d565b80600183600161b2fa69152d02c7e14af68000006040518060400160405280600c81526020016b29b4b637a3b7bb32b93737b960a11b815250806200007f6200018060201b60201c565b815160208084019190912082518383012060e08290526101008190524660a0818152604080517f8b73c3c69bb8fe3d512ecc4cf759cc79239f7b179b0ffacaa9a75d522b39400f81880181905281830187905260608201869052608082019490945230818401528151808203909301835260c00190528051940193909320919290916080523060601b60c0526101205250508251620001289250600091506020840190620003f7565b50620001369050836200019b565b6200014182620001dc565b6200014c8162000283565b50505060601b6001600160601b031916610140526200016b81620002c4565b5062000177816200038e565b50505062000532565b6040805180820190915260018152603160f81b602082015290565b60025460408051918252602082018390527fc565b045403dc03c2eea82b81a0465edad9e2e7fc4d97e11421c209da93d7a93910160405180910390a1600255565b60008111620002425760405162461bcd60e51b815260206004820152602760248201527f476f7665726e6f7253657474696e67733a20766f74696e6720706572696f6420604482015266746f6f206c6f7760c81b60648201526084015b60405180910390fd5b60035460408051918252602082018390527f7e3f7f0708a84de9203036abaa450dccc85ad5ff52f78c170f3edb55cf5e8828910160405180910390a1600355565b60045460408051918252602082018390527fccb45da8d5717e6c4544694297c4ba5cf151d455c9bb0ed4fc7a38411bc05461910160405180910390a1600455565b6064811115620003495760405162461bcd60e51b815260206004820152604360248201527f476f7665726e6f72566f74657351756f72756d4672616374696f6e3a2071756f60448201527f72756d4e756d657261746f72206f7665722071756f72756d44656e6f6d696e616064820152623a37b960e91b608482015260a40162000239565b600680549082905560408051828152602081018490527f0553476bf02ef2726e8ce5ced78d63e26e602e4a2257b1f559418e24b4633997910160405180910390a15050565b600754604080516001600160a01b03928316815291831660208301527f08f74ea46ef7894f65eabfb5e6e695de773a000b47c529ab559178069b226401910160405180910390a1600780546001600160a01b0319166001600160a01b0392909216919091179055565b8280546200040590620004dc565b90600052602060002090601f01602090048101928262000429576000855562000474565b82601f106200044457805160ff191683800117855562000474565b8280016001018555821562000474579182015b828111156200047457825182559160200191906001019062000457565b506200048292915062000486565b5090565b5b8082111562000482576000815560010162000487565b60008060408385031215620004b157600080fd5b8251620004be8162000519565b6020840151909250620004d18162000519565b809150509250929050565b600181811c90821680620004f157607f821691505b602082108114156200051357634e487b7160e01b600052602260045260246000fd5b50919050565b6001600160a01b03811681146200052f57600080fd5b50565b60805160a05160c05160601c60e05161010051610120516101405160601c612a9e620005a1600039600081816106a30152818161161a01526116f4015260006118bd0152600061190c015260006118e7015260006118400152600061186a015260006118940152612a9e6000f3fe6080604052600436106101e75760003560e01c80637d5e81e211610102578063d33219b411610095578063eb9019d411610064578063eb9019d414610631578063ece40cc114610651578063f8ce560a14610671578063fc0c546a1461069157600080fd5b8063d33219b414610565578063dd4e2ba514610597578063deaaa7cc146105dd578063ea0217cf1461061157600080fd5b8063ab58fb8e116100d1578063ab58fb8e146104f0578063b58131b014610510578063c01f9e3714610525578063c59057e41461054557600080fd5b80637d5e81e21461048757806397c3d334146104a7578063a7713a70146104bb578063a890c910146104d057600080fd5b80633bccf4fd1161017a57806354fd4d501161014957806354fd4d50146103fd578063567813881461042757806370b0f660146104475780637b3c71d31461046757600080fd5b80633bccf4fd146103115780633e4f49e614610331578063438596321461035e578063544ffc9c146103a857600080fd5b8063160cbed7116101b6578063160cbed7146102a95780632656227d146102c95780632d63f693146102dc5780633932abb1146102fc57600080fd5b806301ffc9a71461020f57806302a251a31461024457806306f3f9e61461026757806306fdde031461028757600080fd5b3661020a57306101f56106c5565b6001600160a01b03161461020857600080fd5b005b600080fd5b34801561021b57600080fd5b5061022f61022a36600461234c565b6106de565b60405190151581526020015b60405180910390f35b34801561025057600080fd5b506102596106ef565b60405190815260200161023b565b34801561027357600080fd5b50610208610282366004612393565b6106fa565b34801561029357600080fd5b5061029c610747565b60405161023b919061270b565b3480156102b557600080fd5b506102596102c43660046121c2565b6107d9565b6102596102d73660046121c2565b6109f7565b3480156102e857600080fd5b506102596102f7366004612393565b610aca565b34801561030857600080fd5b50610259610b01565b34801561031d57600080fd5b5061025961032c36600461248e565b610b0c565b34801561033d57600080fd5b5061035161034c366004612393565b610ba0565b60405161023b91906126e3565b34801561036a57600080fd5b5061022f6103793660046123ac565b60008281526005602090815260408083206001600160a01b038516845260030190915290205460ff1692915050565b3480156103b457600080fd5b506103e26103c3366004612393565b6000908152600560205260409020805460018201546002909201549092565b6040805193845260208401929092529082015260600161023b565b34801561040957600080fd5b506040805180820190915260018152603160f81b602082015261029c565b34801561043357600080fd5b506102596104423660046123dc565b610bab565b34801561045357600080fd5b50610208610462366004612393565b610bd4565b34801561047357600080fd5b50610259610482366004612408565b610c15565b34801561049357600080fd5b506102596104a2366004612251565b610c67565b3480156104b357600080fd5b506064610259565b3480156104c757600080fd5b50600654610259565b3480156104dc57600080fd5b506102086104eb366004612376565b610c7e565b3480156104fc57600080fd5b5061025961050b366004612393565b610cbf565b34801561051c57600080fd5b50610259610d69565b34801561053157600080fd5b50610259610540366004612393565b610d74565b34801561055157600080fd5b506102596105603660046121c2565b610da3565b34801561057157600080fd5b506007546001600160a01b03165b6040516001600160a01b03909116815260200161023b565b3480156105a357600080fd5b506040805180820190915260208082527f737570706f72743d627261766f2671756f72756d3d666f722c6162737461696e9082015261029c565b3480156105e957600080fd5b506102597f150214d74d59b7d1e90c73fc22ef3d991dd0a76b046543d4d80ab92d2a50328f81565b34801561061d57600080fd5b5061020861062c366004612393565b610ddd565b34801561063d57600080fd5b5061025961064c366004612196565b610e1e565b34801561065d57600080fd5b5061020861066c366004612393565b610e2a565b34801561067d57600080fd5b5061025961068c366004612393565b610e6b565b34801561069d57600080fd5b5061057f7f000000000000000000000000000000000000000000000000000000000000000081565b60006106d96007546001600160a01b031690565b905090565b60006106e982610e76565b92915050565b60006106d960035490565b6107026106c5565b6001600160a01b0316336001600160a01b03161461073b5760405162461bcd60e51b81526004016107329061271e565b60405180910390fd5b61074481610e9b565b50565b606060008054610756906129dc565b80601f0160208091040260200160405190810160405280929190818152602001828054610782906129dc565b80156107cf5780601f106107a4576101008083540402835291602001916107cf565b820191906000526020600020905b8154815290600101906020018083116107b257829003601f168201915b5050505050905090565b6000806107e886868686610da3565b905060046107f582610ba0565b600781111561080657610806612a27565b146108235760405162461bcd60e51b815260040161073290612796565b6007546040805163793d064960e11b815290516000926001600160a01b03169163f27a0c92916004808301926020929190829003018186803b15801561086857600080fd5b505afa15801561087c573d6000803e3d6000fd5b505050506040513d601f19601f820116820180604052508101906108a09190612333565b60075460405163b1c5f42760e01b81529192506001600160a01b03169063b1c5f427906108da908a908a908a906000908b9060040161263d565b60206040518083038186803b1580156108f257600080fd5b505afa158015610906573d6000803e3d6000fd5b505050506040513d601f19601f8201168201806040525081019061092a9190612333565b6000838152600860205260408082209290925560075491516308f2a0bb60e41b81526001600160a01b0390921691638f2a0bb091610975918b918b918b91908b90899060040161268b565b600060405180830381600087803b15801561098f57600080fd5b505af11580156109a3573d6000803e3d6000fd5b505050507f9a2e42fd6722813d69113e7d0079d3d940171428df7373df9c7f7617cfda28928282426109d59190612941565b6040805192835260208301919091520160405180910390a15095945050505050565b600080610a0686868686610da3565b90506000610a1382610ba0565b90506004816007811115610a2957610a29612a27565b1480610a4657506005816007811115610a4457610a44612a27565b145b610a625760405162461bcd60e51b815260040161073290612796565b600082815260016020818152604092839020600201805460ff191690921790915590518381527f712ae1383f79ac853f8d882153778e0260ef8f03b504e2866e0593e04d2b291f910160405180910390a1610ac08288888888610f63565b5095945050505050565b60008181526001602090815260408083208151928301909152546001600160401b0316908190525b6001600160401b031692915050565b60006106d960025490565b604080517f150214d74d59b7d1e90c73fc22ef3d991dd0a76b046543d4d80ab92d2a50328f602082015290810186905260ff851660608201526000908190610b7890610b709060800160405160208183030381529060405280519060200120610f77565b868686610fc5565b9050610b9587828860405180602001604052806000815250610fe3565b979650505050505050565b60006106e9826110ee565b600080339050610bcc84828560405180602001604052806000815250610fe3565b949350505050565b610bdc6106c5565b6001600160a01b0316336001600160a01b031614610c0c5760405162461bcd60e51b81526004016107329061271e565b610744816111cb565b600080339050610c5d86828787878080601f016020809104026020016040519081016040528093929190818152602001838380828437600092019190915250610fe392505050565b9695505050505050565b6000610c758585858561120c565b95945050505050565b610c866106c5565b6001600160a01b0316336001600160a01b031614610cb65760405162461bcd60e51b81526004016107329061271e565b610744816114e7565b60075460008281526008602052604080822054905163d45c443560e01b81526004810191909152909182916001600160a01b039091169063d45c44359060240160206040518083038186803b158015610d1757600080fd5b505afa158015610d2b573d6000803e3d6000fd5b505050506040513d601f19601f82011682018060405250810190610d4f9190612333565b905080600114610d5f5780610d62565b60005b9392505050565b60006106d960045490565b60008181526001602081815260408084208151928301909152909101546001600160401b031690819052610af2565b600084848484604051602001610dbc94939291906125f2565b60408051601f19818403018152919052805160209091012095945050505050565b610de56106c5565b6001600160a01b0316336001600160a01b031614610e155760405162461bcd60e51b81526004016107329061271e565b61074481611550565b6000610d6283836115f1565b610e326106c5565b6001600160a01b0316336001600160a01b031614610e625760405162461bcd60e51b81526004016107329061271e565b61074481611696565b60006106e9826116d7565b60006001600160e01b03198216636e665ced60e01b14806106e957506106e98261178a565b6064811115610f1e5760405162461bcd60e51b815260206004820152604360248201527f476f7665726e6f72566f74657351756f72756d4672616374696f6e3a2071756f60448201527f72756d4e756d657261746f72206f7665722071756f72756d44656e6f6d696e616064820152623a37b960e91b608482015260a401610732565b600680549082905560408051828152602081018490527f0553476bf02ef2726e8ce5ced78d63e26e602e4a2257b1f559418e24b4633997910160405180910390a15050565b610f7085858585856117bf565b5050505050565b60006106e9610f84611833565b8360405161190160f01b6020820152602281018390526042810182905260009060620160405160208183030381529060405280519060200120905092915050565b6000806000610fd68787878761195a565b91509150610ac081611a47565b6000848152600160208190526040822090610ffd87610ba0565b600781111561100e5761100e612a27565b146110675760405162461bcd60e51b815260206004820152602360248201527f476f7665726e6f723a20766f7465206e6f742063757272656e746c792061637460448201526269766560e81b6064820152608401610732565b604080516020810190915281546001600160401b03169081905260009061108f908790610e1e565b905061109d87878784611c02565b856001600160a01b03167fb8e138887d0aa13bab447e82de9d5c1777041ecd21ca36ba824ff1e6c07ddda4888784886040516110dc94939291906128c6565b60405180910390a29695505050505050565b6000806110fa83611d81565b9050600481600781111561111057611110612a27565b1461111b5792915050565b60008381526008602052604090205480611136575092915050565b600754604051632ab0f52960e01b8152600481018390526001600160a01b0390911690632ab0f5299060240160206040518083038186803b15801561117a57600080fd5b505afa15801561118e573d6000803e3d6000fd5b505050506040513d601f19601f820116820180604052508101906111b29190612311565b156111c1575060079392505050565b5060059392505050565b60025460408051918252602082018390527fc565b045403dc03c2eea82b81a0465edad9e2e7fc4d97e11421c209da93d7a93910160405180910390a1600255565b6000611216610d69565b6112253361064c6001436129c5565b10156112a55760405162461bcd60e51b815260206004820152604360248201527f476f7665726e6f72436f6d7061746962696c697479427261766f3a2070726f7060448201527f6f73657220766f7465732062656c6f772070726f706f73616c207468726573686064820152621bdb1960ea1b608482015260a401610732565b60006112ba8686868680519060200120610da3565b905084518651146112dd5760405162461bcd60e51b815260040161073290612755565b83518651146112fe5760405162461bcd60e51b815260040161073290612755565b600086511161134f5760405162461bcd60e51b815260206004820152601860248201527f476f7665726e6f723a20656d7074792070726f706f73616c00000000000000006044820152606401610732565b600081815260016020908152604091829020825191820190925281546001600160401b031690819052156113cf5760405162461bcd60e51b815260206004820152602160248201527f476f7665726e6f723a2070726f706f73616c20616c72656164792065786973746044820152607360f81b6064820152608401610732565b60006113e16113dc610b01565b611ee5565b6113ea43611ee5565b6113f49190612959565b905060006114036113dc6106ef565b61140d9083612959565b835467ffffffffffffffff19166001600160401b038416178455905060018301805467ffffffffffffffff19166001600160401b0383161790557f7d84a6263ae0d98d3329bd7b46bb4e8d6f98cd35a7adb45c274c8b7fd5ebd5e084338b8b8d516001600160401b0381111561148557611485612a3d565b6040519080825280602002602001820160405280156114b857816020015b60608152602001906001900390816114a35790505b508c88888e6040516114d2999897969594939291906127d7565b60405180910390a15091979650505050505050565b600754604080516001600160a01b03928316815291831660208301527f08f74ea46ef7894f65eabfb5e6e695de773a000b47c529ab559178069b226401910160405180910390a1600780546001600160a01b0319166001600160a01b0392909216919091179055565b600081116115b05760405162461bcd60e51b815260206004820152602760248201527f476f7665726e6f7253657474696e67733a20766f74696e6720706572696f6420604482015266746f6f206c6f7760c81b6064820152608401610732565b60035460408051918252602082018390527f7e3f7f0708a84de9203036abaa450dccc85ad5ff52f78c170f3edb55cf5e8828910160405180910390a1600355565b604051630748d63560e31b81526001600160a01b038381166004830152602482018390526000917f000000000000000000000000000000000000000000000000000000000000000090911690633a46b1a89060440160206040518083038186803b15801561165e57600080fd5b505afa158015611672573d6000803e3d6000fd5b505050506040513d601f19601f82011682018060405250810190610d629190612333565b60045460408051918252602082018390527fccb45da8d5717e6c4544694297c4ba5cf151d455c9bb0ed4fc7a38411bc05461910160405180910390a1600455565b60006064600654604051632394e7a360e21b8152600481018590527f00000000000000000000000000000000000000000000000000000000000000006001600160a01b031690638e539e8c9060240160206040518083038186803b15801561173e57600080fd5b505afa158015611752573d6000803e3d6000fd5b505050506040513d601f19601f820116820180604052508101906117769190612333565b61178091906129a6565b6106e99190612984565b60006001600160e01b0319821663bf26d89760e01b14806106e957506301ffc9a760e01b6001600160e01b03198316146106e9565b60075460405163e38335e560e01b81526001600160a01b039091169063e38335e59034906117fa90889088908890600090899060040161263d565b6000604051808303818588803b15801561181357600080fd5b505af1158015611827573d6000803e3d6000fd5b50505050505050505050565b6000306001600160a01b037f00000000000000000000000000000000000000000000000000000000000000001614801561188c57507f000000000000000000000000000000000000000000000000000000000000000046145b156118b657507f000000000000000000000000000000000000000000000000000000000000000090565b50604080517f00000000000000000000000000000000000000000000000000000000000000006020808301919091527f0000000000000000000000000000000000000000000000000000000000000000828401527f000000000000000000000000000000000000000000000000000000000000000060608301524660808301523060a0808401919091528351808403909101815260c0909201909252805191012090565b6000807f7fffffffffffffffffffffffffffffff5d576e7357a4501ddfe92f46681b20a08311156119915750600090506003611a3e565b8460ff16601b141580156119a957508460ff16601c14155b156119ba5750600090506004611a3e565b6040805160008082526020820180845289905260ff881692820192909252606081018690526080810185905260019060a0016020604051602081039080840390855afa158015611a0e573d6000803e3d6000fd5b5050604051601f1901519150506001600160a01b038116611a3757600060019250925050611a3e565b9150600090505b94509492505050565b6000816004811115611a5b57611a5b612a27565b1415611a645750565b6001816004811115611a7857611a78612a27565b1415611ac65760405162461bcd60e51b815260206004820152601860248201527f45434453413a20696e76616c6964207369676e617475726500000000000000006044820152606401610732565b6002816004811115611ada57611ada612a27565b1415611b285760405162461bcd60e51b815260206004820152601f60248201527f45434453413a20696e76616c6964207369676e6174757265206c656e677468006044820152606401610732565b6003816004811115611b3c57611b3c612a27565b1415611b955760405162461bcd60e51b815260206004820152602260248201527f45434453413a20696e76616c6964207369676e6174757265202773272076616c604482015261756560f01b6064820152608401610732565b6004816004811115611ba957611ba9612a27565b14156107445760405162461bcd60e51b815260206004820152602260248201527f45434453413a20696e76616c6964207369676e6174757265202776272076616c604482015261756560f01b6064820152608401610732565b60008481526005602090815260408083206001600160a01b0387168452600381019092529091205460ff1615611c8a5760405162461bcd60e51b815260206004820152602760248201527f476f7665726e6f72566f74696e6753696d706c653a20766f746520616c726561604482015266191e4818d85cdd60ca1b6064820152608401610732565b6001600160a01b03841660009081526003820160205260408120805460ff1916600117905560ff168360ff161415611cdb5781816000016000828254611cd09190612941565b90915550610f709050565b60ff831660011415611cfb5781816001016000828254611cd09190612941565b60ff831660021415611d1b5781816002016000828254611cd09190612941565b60405162461bcd60e51b815260206004820152603560248201527f476f7665726e6f72566f74696e6753696d706c653a20696e76616c69642076616044820152746c756520666f7220656e756d20566f74655479706560581b6064820152608401610732565b6000818152600160208181526040808420815160a08101835281546001600160401b0390811660808301908152825283518086018552958301541685529283019390935260029092015460ff80821615801594840194909452610100909104161515606082015290611df65750600792915050565b806060015115611e095750600292915050565b80515143906001600160401b031610611e255750600092915050565b43611e3282602001515190565b6001600160401b031610611e495750600192915050565b611e568160200151611f51565b15611e9757611e6483611f80565b8015611e83575060008381526005602052604090208054600190910154115b611e8e576003610d62565b60049392505050565b60405162461bcd60e51b815260206004820152601d60248201527f476f7665726e6f723a20756e6b6e6f776e2070726f706f73616c2069640000006044820152606401610732565b50919050565b60006001600160401b03821115611f4d5760405162461bcd60e51b815260206004820152602660248201527f53616665436173743a2076616c756520646f65736e27742066697420696e203660448201526534206269747360d01b6064820152608401610732565b5090565b6000611f6682516001600160401b0316151590565b80156106e957505051436001600160401b03909116111590565b600081815260056020526040812060028101546001820154611fa29190612941565b611fae61068c85610aca565b11159392505050565b60006001600160401b03831115611fd057611fd0612a3d565b611fe3601f8401601f19166020016128ee565b9050828152838383011115611ff757600080fd5b828260208301376000602084830101529392505050565b600082601f83011261201f57600080fd5b8135602061203461202f8361291e565b6128ee565b80838252828201915082860187848660051b890101111561205457600080fd5b60005b8581101561207c57813561206a81612a53565b84529284019290840190600101612057565b5090979650505050505050565b600082601f83011261209a57600080fd5b813560206120aa61202f8361291e565b80838252828201915082860187848660051b89010111156120ca57600080fd5b60005b8581101561207c5781356001600160401b038111156120eb57600080fd5b8801603f81018a136120fc57600080fd5b61210d8a8783013560408401611fb7565b85525092840192908401906001016120cd565b600082601f83011261213157600080fd5b8135602061214161202f8361291e565b80838252828201915082860187848660051b890101111561216157600080fd5b60005b8581101561207c57813584529284019290840190600101612164565b803560ff8116811461219157600080fd5b919050565b600080604083850312156121a957600080fd5b82356121b481612a53565b946020939093013593505050565b600080600080608085870312156121d857600080fd5b84356001600160401b03808211156121ef57600080fd5b6121fb8883890161200e565b9550602087013591508082111561221157600080fd5b61221d88838901612120565b9450604087013591508082111561223357600080fd5b5061224087828801612089565b949793965093946060013593505050565b6000806000806080858703121561226757600080fd5b84356001600160401b038082111561227e57600080fd5b61228a8883890161200e565b955060208701359150808211156122a057600080fd5b6122ac88838901612120565b945060408701359150808211156122c257600080fd5b6122ce88838901612089565b935060608701359150808211156122e457600080fd5b508501601f810187136122f657600080fd5b61230587823560208401611fb7565b91505092959194509250565b60006020828403121561232357600080fd5b81518015158114610d6257600080fd5b60006020828403121561234557600080fd5b5051919050565b60006020828403121561235e57600080fd5b81356001600160e01b031981168114610d6257600080fd5b60006020828403121561238857600080fd5b8135610d6281612a53565b6000602082840312156123a557600080fd5b5035919050565b600080604083850312156123bf57600080fd5b8235915060208301356123d181612a53565b809150509250929050565b600080604083850312156123ef57600080fd5b823591506123ff60208401612180565b90509250929050565b6000806000806060858703121561241e57600080fd5b8435935061242e60208601612180565b925060408501356001600160401b038082111561244a57600080fd5b818701915087601f83011261245e57600080fd5b81358181111561246d57600080fd5b88602082850101111561247f57600080fd5b95989497505060200194505050565b600080600080600060a086880312156124a657600080fd5b853594506124b660208701612180565b93506124c460408701612180565b94979396509394606081013594506080013592915050565b600081518084526020808501945080840160005b838110156125155781516001600160a01b0316875295820195908201906001016124f0565b509495945050505050565b600081518084526020808501808196508360051b8101915082860160005b858110156125685782840389526125568483516125a5565b9885019893509084019060010161253e565b5091979650505050505050565b600081518084526020808501945080840160005b8381101561251557815187529582019590820190600101612589565b6000815180845260005b818110156125cb576020818501810151868301820152016125af565b818111156125dd576000602083870101525b50601f01601f19169290920160200192915050565b60808152600061260560808301876124dc565b82810360208401526126178187612575565b9050828103604084015261262b8186612520565b91505082606083015295945050505050565b60a08152600061265060a08301886124dc565b82810360208401526126628188612575565b905082810360408401526126768187612520565b60608401959095525050608001529392505050565b60c08152600061269e60c08301896124dc565b82810360208401526126b08189612575565b905082810360408401526126c48188612520565b60608401969096525050608081019290925260a0909101529392505050565b602081016008831061270557634e487b7160e01b600052602160045260246000fd5b91905290565b602081526000610d6260208301846125a5565b60208082526018908201527f476f7665726e6f723a206f6e6c79476f7665726e616e63650000000000000000604082015260600190565b60208082526021908201527f476f7665726e6f723a20696e76616c69642070726f706f73616c206c656e67746040820152600d60fb1b606082015260800190565b60208082526021908201527f476f7665726e6f723a2070726f706f73616c206e6f74207375636365737366756040820152601b60fa1b606082015260800190565b60006101208b8352602060018060a01b038c16818501528160408501526128008285018c6124dc565b91508382036060850152612814828b612575565b915083820360808501528189518084528284019150828160051b850101838c0160005b8381101561286557601f198784030185526128538383516125a5565b94860194925090850190600101612837565b505086810360a0880152612879818c612520565b94505050505061289460c08401876001600160401b03169052565b6001600160401b03851660e08401528281036101008401526128b681856125a5565b9c9b505050505050505050505050565b84815260ff84166020820152826040820152608060608201526000610c5d60808301846125a5565b604051601f8201601f191681016001600160401b038111828210171561291657612916612a3d565b604052919050565b60006001600160401b0382111561293757612937612a3d565b5060051b60200190565b6000821982111561295457612954612a11565b500190565b60006001600160401b0380831681851680830382111561297b5761297b612a11565b01949350505050565b6000826129a157634e487b7160e01b600052601260045260246000fd5b500490565b60008160001904831182151516156129c0576129c0612a11565b500290565b6000828210156129d7576129d7612a11565b500390565b600181811c908216806129f057607f821691505b60208210811415611edf57634e487b7160e01b600052602260045260246000fd5b634e487b7160e01b600052601160045260246000fd5b634e487b7160e01b600052602160045260246000fd5b634e487b7160e01b600052604160045260246000fd5b6001600160a01b038116811461074457600080fdfea26469706673582212200e9d3efa117a7bcf135116d5e01f7a1bba438a14eb6b99ee41b4fb07e33f36c064736f6c63430008070033",
  "devdoc": {
    "custom:security-contact": "security@silo.finance",
    "kind": "dev",
    "methods": {
      "COUNTING_MODE()": {
        "details": "See {IGovernor-COUNTING_MODE}."
      },
      "castVote(uint256,uint8)": {
        "details": "See {IGovernor-castVote}."
      },
      "castVoteBySig(uint256,uint8,uint8,bytes32,bytes32)": {
        "details": "See {IGovernor-castVoteBySig}."
      },
      "castVoteWithReason(uint256,uint8,string)": {
        "details": "See {IGovernor-castVoteWithReason}."
      },
      "execute(address[],uint256[],bytes[],bytes32)": {
        "details": "See {IGovernor-execute}."
      },
      "hasVoted(uint256,address)": {
        "details": "See {IGovernor-hasVoted}."
      },
      "hashProposal(address[],uint256[],bytes[],bytes32)": {
        "details": "See {IGovernor-hashProposal}. The proposal id is produced by hashing the RLC encoded `targets` array, the `values` array, the `calldatas` array and the descriptionHash (bytes32 which itself is the keccak256 hash of the description string). This proposal id can be produced from the proposal data which is part of the {ProposalCreated} event. It can even be computed in advance, before the proposal is submitted. Note that the chainId and the governor address are not part of the proposal id computation. Consequently, the same proposal (with same operation and same description) will have the same id if submitted on multiple governors accross multiple networks. This also means that in order to execute the same operation twice (on the same governor) the proposer will have to change the description in order to avoid proposal id conflicts."
      },
      "name()": {
        "details": "See {IGovernor-name}."
      },
      "proposalDeadline(uint256)": {
        "details": "See {IGovernor-proposalDeadline}."
      },
      "proposalEta(uint256)": {
        "details": "Public accessor to check the eta of a queued proposal"
      },
      "proposalSnapshot(uint256)": {
        "details": "See {IGovernor-proposalSnapshot}."
      },
      "proposalVotes(uint256)": {
        "details": "Accessor to the internal vote counts."
      },
      "queue(address[],uint256[],bytes[],bytes32)": {
        "details": "Function to queue a proposal to the timelock."
      },
      "setProposalThreshold(uint256)": {
        "details": "Update the proposal threshold. This operation can only be performed through a governance proposal. Emits a {ProposalThresholdSet} event."
      },
      "setVotingDelay(uint256)": {
        "details": "Update the voting delay. This operation can only be performed through a governance proposal. Emits a {VotingDelaySet} event."
      },
      "setVotingPeriod(uint256)": {
        "details": "Update the voting period. This operation can only be performed through a governance proposal. Emits a {VotingPeriodSet} event."
      },
      "timelock()": {
        "details": "Public accessor to check the address of the timelock"
      },
      "updateTimelock(address)": {
        "details": "Public endpoint to update the underlying timelock instance. Restricted to the timelock itself, so updates must be proposed, scheduled and executed using the {Governor} workflow."
      },
      "version()": {
        "details": "See {IGovernor-version}."
      }
    },
    "version": 1
  },
  "userdoc": {
    "kind": "user",
    "methods": {},
    "version": 1
  },
  "storageLayout": {
    "storage": [
      {
        "astId": 1504,
        "contract": "contracts/governance/SiloGovernor.sol:SiloGovernor",
        "label": "_name",
        "offset": 0,
        "slot": "0",
        "type": "t_string_storage"
      },
      {
        "astId": 1509,
        "contract": "contracts/governance/SiloGovernor.sol:SiloGovernor",
        "label": "_proposals",
        "offset": 0,
        "slot": "1",
        "type": "t_mapping(t_uint256,t_struct(ProposalCore)1502_storage)"
      },
      {
        "astId": 3534,
        "contract": "contracts/governance/SiloGovernor.sol:SiloGovernor",
        "label": "_votingDelay",
        "offset": 0,
        "slot": "2",
        "type": "t_uint256"
      },
      {
        "astId": 3536,
        "contract": "contracts/governance/SiloGovernor.sol:SiloGovernor",
        "label": "_votingPeriod",
        "offset": 0,
        "slot": "3",
        "type": "t_uint256"
      },
      {
        "astId": 3538,
        "contract": "contracts/governance/SiloGovernor.sol:SiloGovernor",
        "label": "_proposalThreshold",
        "offset": 0,
        "slot": "4",
        "type": "t_uint256"
      },
      {
        "astId": 3328,
        "contract": "contracts/governance/SiloGovernor.sol:SiloGovernor",
        "label": "_proposalVotes",
        "offset": 0,
        "slot": "5",
        "type": "t_mapping(t_uint256,t_struct(ProposalVote)3323_storage)"
      },
      {
        "astId": 4121,
        "contract": "contracts/governance/SiloGovernor.sol:SiloGovernor",
        "label": "_quorumNumerator",
        "offset": 0,
        "slot": "6",
        "type": "t_uint256"
      },
      {
        "astId": 3717,
        "contract": "contracts/governance/SiloGovernor.sol:SiloGovernor",
        "label": "_timelock",
        "offset": 0,
        "slot": "7",
        "type": "t_contract(TimelockController)3302"
      },
      {
        "astId": 3721,
        "contract": "contracts/governance/SiloGovernor.sol:SiloGovernor",
        "label": "_timelockIds",
        "offset": 0,
        "slot": "8",
        "type": "t_mapping(t_uint256,t_bytes32)"
      }
    ],
    "types": {
      "t_address": {
        "encoding": "inplace",
        "label": "address",
        "numberOfBytes": "20"
      },
      "t_bool": {
        "encoding": "inplace",
        "label": "bool",
        "numberOfBytes": "1"
      },
      "t_bytes32": {
        "encoding": "inplace",
        "label": "bytes32",
        "numberOfBytes": "32"
      },
      "t_contract(TimelockController)3302": {
        "encoding": "inplace",
        "label": "contract TimelockController",
        "numberOfBytes": "20"
      },
      "t_mapping(t_address,t_bool)": {
        "encoding": "mapping",
        "key": "t_address",
        "label": "mapping(address => bool)",
        "numberOfBytes": "32",
        "value": "t_bool"
      },
      "t_mapping(t_uint256,t_bytes32)": {
        "encoding": "mapping",
        "key": "t_uint256",
        "label": "mapping(uint256 => bytes32)",
        "numberOfBytes": "32",
        "value": "t_bytes32"
      },
      "t_mapping(t_uint256,t_struct(ProposalCore)1502_storage)": {
        "encoding": "mapping",
        "key": "t_uint256",
        "label": "mapping(uint256 => struct Governor.ProposalCore)",
        "numberOfBytes": "32",
        "value": "t_struct(ProposalCore)1502_storage"
      },
      "t_mapping(t_uint256,t_struct(ProposalVote)3323_storage)": {
        "encoding": "mapping",
        "key": "t_uint256",
        "label": "mapping(uint256 => struct GovernorCountingSimple.ProposalVote)",
        "numberOfBytes": "32",
        "value": "t_struct(ProposalVote)3323_storage"
      },
      "t_string_storage": {
        "encoding": "bytes",
        "label": "string",
        "numberOfBytes": "32"
      },
      "t_struct(BlockNumber)7133_storage": {
        "encoding": "inplace",
        "label": "struct Timers.BlockNumber",
        "members": [
          {
            "astId": 7132,
            "contract": "contracts/governance/SiloGovernor.sol:SiloGovernor",
            "label": "_deadline",
            "offset": 0,
            "slot": "0",
            "type": "t_uint64"
          }
        ],
        "numberOfBytes": "32"
      },
      "t_struct(ProposalCore)1502_storage": {
        "encoding": "inplace",
        "label": "struct Governor.ProposalCore",
        "members": [
          {
            "astId": 1494,
            "contract": "contracts/governance/SiloGovernor.sol:SiloGovernor",
            "label": "voteStart",
            "offset": 0,
            "slot": "0",
            "type": "t_struct(BlockNumber)7133_storage"
          },
          {
            "astId": 1497,
            "contract": "contracts/governance/SiloGovernor.sol:SiloGovernor",
            "label": "voteEnd",
            "offset": 0,
            "slot": "1",
            "type": "t_struct(BlockNumber)7133_storage"
          },
          {
            "astId": 1499,
            "contract": "contracts/governance/SiloGovernor.sol:SiloGovernor",
            "label": "executed",
            "offset": 0,
            "slot": "2",
            "type": "t_bool"
          },
          {
            "astId": 1501,
            "contract": "contracts/governance/SiloGovernor.sol:SiloGovernor",
            "label": "canceled",
            "offset": 1,
            "slot": "2",
            "type": "t_bool"
          }
        ],
        "numberOfBytes": "96"
      },
      "t_struct(ProposalVote)3323_storage": {
        "encoding": "inplace",
        "label": "struct GovernorCountingSimple.ProposalVote",
        "members": [
          {
            "astId": 3314,
            "contract": "contracts/governance/SiloGovernor.sol:SiloGovernor",
            "label": "againstVotes",
            "offset": 0,
            "slot": "0",
            "type": "t_uint256"
          },
          {
            "astId": 3316,
            "contract": "contracts/governance/SiloGovernor.sol:SiloGovernor",
            "label": "forVotes",
            "offset": 0,
            "slot": "1",
            "type": "t_uint256"
          },
          {
            "astId": 3318,
            "contract": "contracts/governance/SiloGovernor.sol:SiloGovernor",
            "label": "abstainVotes",
            "offset": 0,
            "slot": "2",
            "type": "t_uint256"
          },
          {
            "astId": 3322,
            "contract": "contracts/governance/SiloGovernor.sol:SiloGovernor",
            "label": "hasVoted",
            "offset": 0,
            "slot": "3",
            "type": "t_mapping(t_address,t_bool)"
          }
        ],
        "numberOfBytes": "128"
      },
      "t_uint256": {
        "encoding": "inplace",
        "label": "uint256",
        "numberOfBytes": "32"
      },
      "t_uint64": {
        "encoding": "inplace",
        "label": "uint64",
        "numberOfBytes": "8"
      }
    }
  }
}