{
  "address": "0x857c44b994a9BeeDcF5FA4B7E9fAf48556058F59",
  "abi": [
    {
      "inputs": [
        {
          "internalType": "contract ISiloRepository",
          "name": "_repository",
          "type": "address"
        },
        {
          "internalType": "contract ICurveLPTokensDetailsFetchersRepository",
          "name": "_fetchersRepo",
          "type": "address"
        },
        {
          "internalType": "contract IConvexSiloWrapperFactory",
          "name": "_wrapperFactory",
          "type": "address"
        }
      ],
      "stateMutability": "nonpayable",
      "type": "constructor"
    },
    {
      "inputs": [],
      "name": "InvalidConvexSiloWrapperFactory",
      "type": "error"
    },
    {
      "inputs": [],
      "name": "InvalidFetchersRepo",
      "type": "error"
    },
    {
      "inputs": [],
      "name": "InvalidRepository",
      "type": "error"
    },
    {
      "inputs": [],
      "name": "OnlySilo",
      "type": "error"
    },
    {
      "inputs": [],
      "name": "FETCHERS_REPO",
      "outputs": [
        {
          "internalType": "contract ICurveLPTokensDetailsFetchersRepository",
          "name": "",
          "type": "address"
        }
      ],
      "stateMutability": "view",
      "type": "function"
    },
    {
      "inputs": [],
      "name": "SILO_REPOSITORY",
      "outputs": [
        {
          "internalType": "contract ISiloRepository",
          "name": "",
          "type": "address"
        }
      ],
      "stateMutability": "view",
      "type": "function"
    },
    {
      "inputs": [],
      "name": "WRAPPER_FACTORY",
      "outputs": [
        {
          "internalType": "contract IConvexSiloWrapperFactory",
          "name": "",
          "type": "address"
        }
      ],
      "stateMutability": "view",
      "type": "function"
    },
    {
      "inputs": [
        {
          "internalType": "address",
          "name": "_firstToCheckpoint",
          "type": "address"
        },
        {
          "internalType": "address",
          "name": "_secondToCheckpoint",
          "type": "address"
        }
      ],
      "name": "beforeBalanceUpdate",
      "outputs": [],
      "stateMutability": "nonpayable",
      "type": "function"
    },
    {
      "inputs": [
        {
          "internalType": "contract ISiloLike",
          "name": "",
          "type": "address"
        }
      ],
      "name": "cachedSiloWrappers",
      "outputs": [
        {
          "internalType": "contract IConvexSiloWrapper",
          "name": "",
          "type": "address"
        }
      ],
      "stateMutability": "view",
      "type": "function"
    },
    {
      "inputs": [
        {
          "internalType": "address",
          "name": "_wrapper",
          "type": "address"
        }
      ],
      "name": "wrapperSetupVerification",
      "outputs": [
        {
          "internalType": "bool",
          "name": "",
          "type": "bool"
        }
      ],
      "stateMutability": "view",
      "type": "function"
    }
  ],
  "transactionHash": "0x022da596ea11e40b3ed030a234d1d2899766b184b4c7f7523382e2664825bbdf",
  "args": [
    "0xd998C35B7900b344bbBe6555cc11576942Cf309d",
    "0xeaC05930c685A168c40C3aA9D017691a88e31fE9",
    "0x634322671380cF1ee7bD555a77fcdD41e680D817"
  ],
  "numDeployments": 1,
  "solcInputHash": "c9303397e20c2b4613b58e6ec221d180",
  "bytecode": "0x60e060405234801561001057600080fd5b506040516108a63803806108a683398101604081905261002f916101a4565b610050836001600160a01b031663e99ed41d61010660201b6104b61760201c565b61006d57604051639f45596360e01b815260040160405180910390fd5b61008e826001600160a01b0316630956403e61010660201b6104b61760201c565b6100ab5760405163d31c0dc760e01b815260040160405180910390fd5b6100cc816001600160a01b0316638d333b3161010660201b6104b61760201c565b6100e957604051633c8fdf8360e01b815260040160405180910390fd5b6001600160a01b0392831660805290821660a0521660c05261021b565b60006001600160a01b03831615801590610185575082826040518163ffffffff1660e01b8152600401602060405180830381865afa15801561014c573d6000803e3d6000fd5b505050506040513d601f19601f8201168201806040525081019061017091906101f1565b60e083901b6001600160e01b03199081169116145b9392505050565b6001600160a01b03811681146101a157600080fd5b50565b6000806000606084860312156101b957600080fd5b83516101c48161018c565b60208501519093506101d58161018c565b60408501519092506101e68161018c565b809150509250925092565b60006020828403121561020357600080fd5b81516001600160e01b03198116811461018557600080fd5b60805160a05160c05161064961025d6000396000818160a9015261017c01526000818160e8015261027e01526000818161010f015261031101526106496000f3fe608060405234801561001057600080fd5b50600436106100625760003560e01c806303f9c36b1461006757806330bd295b1461008f5780633f6eef20146100a45780639dca4000146100e3578063a7e8489d1461010a578063fa63357114610131575b600080fd5b61007a610075366004610554565b61015a565b60405190151581526020015b60405180910390f35b6100a261009d366004610571565b6102fc565b005b6100cb7f000000000000000000000000000000000000000000000000000000000000000081565b6040516001600160a01b039091168152602001610086565b6100cb7f000000000000000000000000000000000000000000000000000000000000000081565b6100cb7f000000000000000000000000000000000000000000000000000000000000000081565b6100cb61013f366004610554565b6000602081905290815260409020546001600160a01b031681565b60405163e0aa279760e01b81526001600160a01b0382811660048301526000917f00000000000000000000000000000000000000000000000000000000000000009091169063e0aa279790602401602060405180830381865afa1580156101c5573d6000803e3d6000fd5b505050506040513d601f19601f820116820180604052508101906101e991906105aa565b6101f557506000919050565b6000826001600160a01b0316632495a5996040518163ffffffff1660e01b8152600401602060405180830381865afa158015610235573d6000803e3d6000fd5b505050506040513d601f19601f8201168201806040525081019061025991906105cc565b6040516306592e6160e01b81526001600160a01b0380831660048301529192506000917f000000000000000000000000000000000000000000000000000000000000000016906306592e6190602401602060405180830381865afa1580156102c5573d6000803e3d6000fd5b505050506040513d601f19601f820116820180604052508101906102e991906105cc565b6001600160a01b03161515949350505050565b60405163025e1b9b60e31b81523360048201527f00000000000000000000000000000000000000000000000000000000000000006001600160a01b0316906312f0dcd890602401602060405180830381865afa158015610360573d6000803e3d6000fd5b505050506040513d601f19601f8201168201806040525081019061038491906105aa565b6103a1576040516310528c6d60e11b815260040160405180910390fd5b336000908152602081905260409020546001600160a01b03168061044e57336001600160a01b0316634521c0196040518163ffffffff1660e01b81526004016020604051808303816000875af11580156103ff573d6000803e3d6000fd5b505050506040513d601f19601f8201168201806040525081019061042391906105cc565b33600090815260208190526040902080546001600160a01b0319166001600160a01b03831617905590505b6040516301e462dd60e01b81526001600160a01b03848116600483015283811660248301528216906301e462dd90604401600060405180830381600087803b15801561049957600080fd5b505af11580156104ad573d6000803e3d6000fd5b50505050505050565b60006001600160a01b03831615801590610535575082826040518163ffffffff1660e01b8152600401602060405180830381865afa1580156104fc573d6000803e3d6000fd5b505050506040513d601f19601f8201168201806040525081019061052091906105e9565b60e083901b6001600160e01b03199081169116145b9392505050565b6001600160a01b038116811461055157600080fd5b50565b60006020828403121561056657600080fd5b81356105358161053c565b6000806040838503121561058457600080fd5b823561058f8161053c565b9150602083013561059f8161053c565b809150509250929050565b6000602082840312156105bc57600080fd5b8151801515811461053557600080fd5b6000602082840312156105de57600080fd5b81516105358161053c565b6000602082840312156105fb57600080fd5b81516001600160e01b03198116811461053557600080fdfea2646970667358221220a93e572db0376265c98b90e2f4d3c790fbaa4c601f57911f30cbc7a244c4be3464736f6c634300080d0033",
  "devdoc": {
    "kind": "dev",
    "methods": {
      "beforeBalanceUpdate(address,address)": {
        "details": "This function checkpoints two users rewards. This part of code can not be implemented in the Silo     because of the smart contract bytecode limit. Can be called from the Silo only.",
        "params": {
          "_firstToCheckpoint": "address to checkpoint, can be zero.",
          "_secondToCheckpoint": "address to checkpoint, can be zero."
        }
      },
      "wrapperSetupVerification(address)": {
        "details": "This function checks ConvexSiloWrapper `_wrapper`. Returns false if `_wrapper` is not registered in     `ConvexSiloWrapperFactory`. Returns false if Curve pool can not be fetched for `_wrapper` underlying     Curve LP token. Otherwise, returns true.",
        "params": {
          "_wrapper": "address."
        },
        "returns": {
          "_0": "If the return argument is false, Silo contract must revert."
        }
      }
    },
    "stateVariables": {
      "cachedSiloWrappers": {
        "details": "silo => wrapper cached data of Silo assets to reduce external calls."
      }
    },
    "title": "SiloConvexStateChangesHandler is used in `SiloConvex` for checkpoints for users rewards.     This part of code can not be implemented in Silo code because of the smart contract bytecode limit.",
    "version": 1
  },
  "userdoc": {
    "kind": "user",
    "methods": {},
    "version": 1
  },
  "storageLayout": {
    "storage": [
      {
        "astId": 46981,
        "contract": "contracts/wrappers/convex/utils/SiloConvexStateChangesHandler.sol:SiloConvexStateChangesHandler",
        "label": "cachedSiloWrappers",
        "offset": 0,
        "slot": "0",
        "type": "t_mapping(t_contract(ISiloLike)46962,t_contract(IConvexSiloWrapper)24126)"
      }
    ],
    "types": {
      "t_contract(IConvexSiloWrapper)24126": {
        "encoding": "inplace",
        "label": "contract IConvexSiloWrapper",
        "numberOfBytes": "20"
      },
      "t_contract(ISiloLike)46962": {
        "encoding": "inplace",
        "label": "contract ISiloLike",
        "numberOfBytes": "20"
      },
      "t_mapping(t_contract(ISiloLike)46962,t_contract(IConvexSiloWrapper)24126)": {
        "encoding": "mapping",
        "key": "t_contract(ISiloLike)46962",
        "label": "mapping(contract ISiloLike => contract IConvexSiloWrapper)",
        "numberOfBytes": "32",
        "value": "t_contract(IConvexSiloWrapper)24126"
      }
    }
  }
}