{
  "address": "0x68b346925825624DD99135a66C28d4CF859f02F0",
  "abi": [
    {
      "inputs": [
        {
          "internalType": "contract ISiloRepository",
          "name": "_siloRepo",
          "type": "address"
        }
      ],
      "stateMutability": "nonpayable",
      "type": "constructor"
    },
    {
      "inputs": [],
      "name": "InvalidSiloRepository",
      "type": "error"
    },
    {
      "inputs": [],
      "name": "ZeroAssets",
      "type": "error"
    },
    {
      "inputs": [
        {
          "internalType": "contract ISilo",
          "name": "_silo",
          "type": "address"
        },
        {
          "internalType": "address[]",
          "name": "_users",
          "type": "address[]"
        }
      ],
      "name": "flashLiquidateView",
      "outputs": [
        {
          "internalType": "address[]",
          "name": "assets",
          "type": "address[]"
        },
        {
          "internalType": "uint256[][]",
          "name": "receivedCollaterals",
          "type": "uint256[][]"
        },
        {
          "internalType": "uint256[][]",
          "name": "shareAmountsToRepay",
          "type": "uint256[][]"
        }
      ],
      "stateMutability": "view",
      "type": "function"
    },
    {
      "inputs": [
        {
          "internalType": "contract ISilo",
          "name": "_silo",
          "type": "address"
        },
        {
          "internalType": "address",
          "name": "_asset",
          "type": "address"
        }
      ],
      "name": "getModel",
      "outputs": [
        {
          "internalType": "contract IInterestRateModel",
          "name": "",
          "type": "address"
        }
      ],
      "stateMutability": "view",
      "type": "function"
    },
    {
      "inputs": [],
      "name": "siloRepository",
      "outputs": [
        {
          "internalType": "contract ISiloRepository",
          "name": "",
          "type": "address"
        }
      ],
      "stateMutability": "view",
      "type": "function"
    }
  ],
  "transactionHash": "0x61bed469b288a502e9c3bff351a55a5a3ed5ddb12908fa9d669bae75c08a470f",
  "args": [
    "0xd998C35B7900b344bbBe6555cc11576942Cf309d"
  ],
  "numDeployments": 2,
  "solcInputHash": "d3294fecd62ba5cf538538c5a4c12d84",
  "bytecode": "0x60a06040523480156200001157600080fd5b50604051620013a1380380620013a1833981016040819052620000349162000111565b62000058816001600160a01b031663e99ed41d6200008760201b620002ee1760201c565b62000075576040516295241d60e21b815260040160405180910390fd5b6001600160a01b031660805262000168565b60006001600160a01b038316158015906200010a575082826040518163ffffffff1660e01b8152600401602060405180830381865afa158015620000cf573d6000803e3d6000fd5b505050506040513d601f19601f82011682018060405250810190620000f591906200013c565b60e083901b6001600160e01b03199081169116145b9392505050565b6000602082840312156200012457600080fd5b81516001600160a01b03811681146200010a57600080fd5b6000602082840312156200014f57600080fd5b81516001600160e01b0319811681146200010a57600080fd5b60805161120a6200019760003960008181607b0152818160e9015281816104e5015261083b015261120a6000f3fe608060405234801561001057600080fd5b50600436106100415760003560e01c80638feddfec14610046578063bde1271814610076578063f5f5df261461009d575b600080fd5b610059610054366004610c98565b6100bf565b6040516001600160a01b0390911681526020015b60405180910390f35b6100597f000000000000000000000000000000000000000000000000000000000000000081565b6100b06100ab366004610d3a565b61015d565b60405161006d93929190610e69565b60405163122cfaaf60e21b81526001600160a01b03838116600483015282811660248301526000917f0000000000000000000000000000000000000000000000000000000000000000909116906348b3eabc90604401602060405180830381865afa158015610132573d6000803e3d6000fd5b505050506040513d601f19601f820116820180604052508101906101569190610ed4565b9392505050565b6060806060846001600160a01b03166367e4ac2c6040518163ffffffff1660e01b8152600401600060405180830381865afa1580156101a0573d6000803e3d6000fd5b505050506040513d6000823e601f3d908101601f191682016040526101c89190810190610ef1565b8451909350806001600160401b038111156101e5576101e5610cd1565b60405190808252806020026020018201604052801561021857816020015b60608152602001906001900390816102035790505b509250806001600160401b0381111561023357610233610cd1565b60405190808252806020026020018201604052801561026657816020015b60608152602001906001900390816102515790505b50915060005b818110156102e557610298878688848151811061028b5761028b610f8a565b6020026020010151610374565b8583815181106102aa576102aa610f8a565b602002602001018584815181106102c3576102c3610f8a565b60200260200101829052829052505080806102dd90610fb6565b91505061026c565b50509250925092565b60006001600160a01b03831615801590610156575082826040518163ffffffff1660e01b8152600401602060405180830381865afa158015610334573d6000803e3d6000fd5b505050506040513d601f19601f820116820180604052508101906103589190610fcf565b60e083901b6001600160e01b0319908116911614905092915050565b6040516338b51ce160e01b81526001600160a01b03828116600483015260609182918616906338b51ce190602401602060405180830381865afa1580156103bf573d6000803e3d6000fd5b505050506040513d601f19601f820116820180604052508101906103e39190610ff9565b1561043957600084516001600160401b0381111561040357610403610cd1565b60405190808252806020026020018201604052801561042c578160200160208202803683370190505b50925082915061044a9050565b610444858585610452565b90925090505b935093915050565b81516060908190806001600160401b0381111561047157610471610cd1565b60405190808252806020026020018201604052801561049a578160200160208202803683370190505b509250806001600160401b038111156104b5576104b5610cd1565b6040519080825280602002602001820160405280156104de578160200160208202803683370190505b50915060007f00000000000000000000000000000000000000000000000000000000000000006001600160a01b031663eafecffa6040518163ffffffff1660e01b8152600401602060405180830381865afa158015610541573d6000803e3d6000fd5b505050506040513d601f19601f82011682018060405250810190610565919061101b565b905060005b8281101561076b576000886001600160a01b031663bf27304189848151811061059557610595610f8a565b60200260200101516040518263ffffffff1660e01b81526004016105c891906001600160a01b0391909116815260200190565b60c060405180830381865afa1580156105e5573d6000803e3d6000fd5b505050506040513d601f19601f820116820180604052508101906106099190611034565b90506000896001600160a01b031663fb2557038a858151811061062e5761062e610f8a565b60200260200101516040518263ffffffff1660e01b815260040161066191906001600160a01b0391909116815260200190565b608060405180830381865afa15801561067e573d6000803e3d6000fd5b505050506040513d601f19601f820116820180604052508101906106a291906110c8565b90506106c98a83838c87815181106106bc576106bc610f8a565b6020026020010151610776565b6106d38289610969565b508684815181106106e6576106e6610f8a565b602002602001018181525050600061070d836080015184602001518b888660200151610a65565b9050600061072a846060015185600001518c898760200151610a65565b90506107368183611148565b89868151811061074857610748610f8a565b60200260200101818152505050505050808061076390610fb6565b91505061056a565b505050935093915050565b60408201516001600160401b031660008190036107a257506001600160401b0342166040830152610963565b4281036107af5750610963565b60006107bb86846100bf565b60405163b1e0176560e01b81526001600160a01b0388811660048301528581166024830152426044830152919091169063b1e0176590606401602060405180830381865afa158015610811573d6000803e3d6000fd5b505050506040513d601f19601f82011682018060405250810190610835919061101b565b905060007f00000000000000000000000000000000000000000000000000000000000000006001600160a01b03166325ed3d446040518163ffffffff1660e01b8152600401602060405180830381865afa158015610897573d6000803e3d6000fd5b505050506040513d601f19601f820116820180604052508101906108bb919061101b565b60a08701519091506000670de0b6b3a76400006108d88584611160565b6108e29190611195565b90506000670de0b6b3a76400006108f98584611160565b6109039190611195565b9050600061091182846111a9565b905061091d8385611148565b60a08b015260608a0151610932908290611148565b60608b01526020890151610947908390611148565b60208a01525050506001600160401b0342166040870152505050505b50505050565b60408083015190516370a0823160e01b81526001600160a01b03838116600483015260009283929116906370a0823190602401602060405180830381865afa1580156109b9573d6000803e3d6000fd5b505050506040513d601f19601f820116820180604052508101906109dd919061101b565b9050600084604001516001600160a01b03166318160ddd6040518163ffffffff1660e01b8152600401602060405180830381865afa158015610a23573d6000803e3d6000fd5b505050506040513d601f19601f82011682018060405250810190610a47919061101b565b60a0860151909150610a5a838284610b77565b935050509250929050565b6040516370a0823160e01b81526001600160a01b03848116600483015260009182918716906370a0823190602401602060405180830381865afa158015610ab0573d6000803e3d6000fd5b505050506040513d601f19601f82011682018060405250810190610ad4919061101b565b9050610b4487876001600160a01b03166318160ddd6040518163ffffffff1660e01b8152600401602060405180830381865afa158015610b18573d6000803e3d6000fd5b505050506040513d601f19601f82011682018060405250810190610b3c919061101b565b839190610bd1565b915081600003610b58576000915050610b6e565b8315610b6c57610b69828585610c37565b91505b505b95945050505050565b6000811580610b84575082155b15610b9157506000610156565b6000610b9d8486611160565b90506000610bab8483611195565b9050610bb784836111c0565b15610b6e57610bc7600182611148565b9695505050505050565b6000811580610bde575082155b15610beb57506000610156565b600082610bf88587611160565b610c029190611195565b905080158015610c1157508415155b15610c2f57604051630cb65c7760e21b815260040160405180910390fd5b949350505050565b600080610c45838686610c51565b50909403949350505050565b670de0b6b3a76400008183020460008119851115610c75575050821960001961044a565b509392840192915050565b6001600160a01b0381168114610c9557600080fd5b50565b60008060408385031215610cab57600080fd5b8235610cb681610c80565b91506020830135610cc681610c80565b809150509250929050565b634e487b7160e01b600052604160045260246000fd5b604051601f8201601f191681016001600160401b0381118282101715610d0f57610d0f610cd1565b604052919050565b60006001600160401b03821115610d3057610d30610cd1565b5060051b60200190565b60008060408385031215610d4d57600080fd5b8235610d5881610c80565b91506020838101356001600160401b03811115610d7457600080fd5b8401601f81018613610d8557600080fd5b8035610d98610d9382610d17565b610ce7565b81815260059190911b82018301908381019088831115610db757600080fd5b928401925b82841015610dde578335610dcf81610c80565b82529284019290840190610dbc565b80955050505050509250929050565b600081518084526020808501808196508360051b810191508286016000805b86811015610e5b578385038a52825180518087529087019087870190845b81811015610e4657835183529289019291890191600101610e2a565b50509a87019a95505091850191600101610e0c565b509298975050505050505050565b606080825284519082018190526000906020906080840190828801845b82811015610eab5781516001600160a01b031684529284019290840190600101610e86565b50505083810382850152610ebf8187610ded565b9150508281036040840152610bc78185610ded565b600060208284031215610ee657600080fd5b815161015681610c80565b60006020808385031215610f0457600080fd5b82516001600160401b03811115610f1a57600080fd5b8301601f81018513610f2b57600080fd5b8051610f39610d9382610d17565b81815260059190911b82018301908381019087831115610f5857600080fd5b928401925b82841015610f7f578351610f7081610c80565b82529284019290840190610f5d565b979650505050505050565b634e487b7160e01b600052603260045260246000fd5b634e487b7160e01b600052601160045260246000fd5b600060018201610fc857610fc8610fa0565b5060010190565b600060208284031215610fe157600080fd5b81516001600160e01b03198116811461015657600080fd5b60006020828403121561100b57600080fd5b8151801515811461015657600080fd5b60006020828403121561102d57600080fd5b5051919050565b600060c0828403121561104657600080fd5b60405160c081018181106001600160401b038211171561106857611068610cd1565b604052825161107681610c80565b8152602083015161108681610c80565b6020820152604083015161109981610c80565b80604083015250606083015160608201526080830151608082015260a083015160a08201528091505092915050565b6000608082840312156110da57600080fd5b604051608081016001600160401b0382821081831117156110fd576110fd610cd1565b81604052845183526020850151602084015260408501519150808216821461112457600080fd5b50604082015260608301516003811061113c57600080fd5b60608201529392505050565b6000821982111561115b5761115b610fa0565b500190565b600081600019048311821515161561117a5761117a610fa0565b500290565b634e487b7160e01b600052601260045260246000fd5b6000826111a4576111a461117f565b500490565b6000828210156111bb576111bb610fa0565b500390565b6000826111cf576111cf61117f565b50069056fea2646970667358221220ff7430a6d67a0add65ab5cef3044db3ba8e6bd3b7fdb0d5ee5d0fb8bdffc862c64736f6c634300080d0033",
  "devdoc": {
    "custom:security-contact": "security@silo.finance",
    "kind": "dev",
    "methods": {
      "flashLiquidateView(address,address[])": {
        "details": "view method of ISilo.flashLiquidate",
        "params": {
          "_silo": "Silo address from which to read data",
          "_users": "array of users for witch we want to get liquidation data"
        },
        "returns": {
          "assets": "array of all processed assets (collateral + debt, including removed)",
          "receivedCollaterals": "receivedCollaterals[userId][assetId] => amount amounts of collaterals send to `_flashReceiver`",
          "shareAmountsToRepay": "shareAmountsToRepaid[userId][assetId] => amount required amounts of debt to be repaid"
        }
      },
      "getModel(address,address)": {
        "details": "gets interest rates model object",
        "params": {
          "_asset": "asset for which to calculate interest rate",
          "_silo": "Silo address from which to read data"
        },
        "returns": {
          "_0": "IInterestRateModel interest rates model object"
        }
      }
    },
    "title": "SiloLiquidationLens",
    "version": 1
  },
  "userdoc": {
    "kind": "user",
    "methods": {},
    "version": 1
  },
  "storageLayout": {
    "storage": [],
    "types": null
  }
}