{
  "address": "0xb2374f84b3cEeFF6492943Df613C9BcF45322a0c",
  "abi": [
    {
      "inputs": [
        {
          "internalType": "address",
          "name": "_wrappedNativeToken",
          "type": "address"
        },
        {
          "internalType": "address",
          "name": "_siloRepository",
          "type": "address"
        }
      ],
      "stateMutability": "nonpayable",
      "type": "constructor"
    },
    {
      "inputs": [],
      "name": "ApprovalFailed",
      "type": "error"
    },
    {
      "inputs": [],
      "name": "ERC20TransferFailed",
      "type": "error"
    },
    {
      "inputs": [],
      "name": "EthTransferFailed",
      "type": "error"
    },
    {
      "inputs": [],
      "name": "InvalidSilo",
      "type": "error"
    },
    {
      "inputs": [],
      "name": "InvalidSiloRepository",
      "type": "error"
    },
    {
      "inputs": [],
      "name": "TokenIsNotAContract",
      "type": "error"
    },
    {
      "inputs": [],
      "name": "UnsupportedAction",
      "type": "error"
    },
    {
      "inputs": [
        {
          "components": [
            {
              "internalType": "enum SiloRouter.ActionType",
              "name": "actionType",
              "type": "uint8"
            },
            {
              "internalType": "contract ISilo",
              "name": "silo",
              "type": "address"
            },
            {
              "internalType": "contract IERC20",
              "name": "asset",
              "type": "address"
            },
            {
              "internalType": "uint256",
              "name": "amount",
              "type": "uint256"
            },
            {
              "internalType": "bool",
              "name": "collateralOnly",
              "type": "bool"
            }
          ],
          "internalType": "struct SiloRouter.Action[]",
          "name": "_actions",
          "type": "tuple[]"
        }
      ],
      "name": "execute",
      "outputs": [],
      "stateMutability": "payable",
      "type": "function"
    },
    {
      "inputs": [],
      "name": "siloRepository",
      "outputs": [
        {
          "internalType": "contract ISiloRepository",
          "name": "",
          "type": "address"
        }
      ],
      "stateMutability": "view",
      "type": "function"
    },
    {
      "inputs": [],
      "name": "siloRouterPing",
      "outputs": [
        {
          "internalType": "bytes4",
          "name": "",
          "type": "bytes4"
        }
      ],
      "stateMutability": "pure",
      "type": "function"
    },
    {
      "inputs": [],
      "name": "wrappedNativeToken",
      "outputs": [
        {
          "internalType": "contract IWrappedNativeToken",
          "name": "",
          "type": "address"
        }
      ],
      "stateMutability": "view",
      "type": "function"
    },
    {
      "stateMutability": "payable",
      "type": "receive"
    }
  ],
  "transactionHash": "0xf6645a45807cec52f73e5cf8beb53c2ccbab3e110d80102663da06afba76e976",
  "args": [
    "0xC02aaA39b223FE8D0A0e5C4F27eAD9083C756Cc2",
    "0xd998C35B7900b344bbBe6555cc11576942Cf309d"
  ],
  "numDeployments": 1,
  "solcInputHash": "0c7f4a371f5bf54a4ce669d89d2219f9",
  "bytecode": "0x60c06040523480156200001157600080fd5b5060405162001a2c38038062001a2c83398101604081905262000034916200029f565b600160008190555062000060816001600160a01b031663e99ed41d620000ac60201b6200031f1760201c565b6200007d576040516295241d60e21b815260040160405180910390fd5b62000093826200013660201b620003a51760201c565b506001600160a01b039182166080521660a05262000366565b60006001600160a01b038316158015906200012f575082826040518163ffffffff1660e01b8152600401602060405180830381865afa158015620000f4573d6000803e3d6000fd5b505050506040513d601f19601f820116820180604052508101906200011a9190620002d7565b60e083901b6001600160e01b03199081169116145b9392505050565b6040805160048152602481019091526020810180516001600160e01b0390811663313ce56760e01b17909152600091829182916200017891869190620001ad16565b91509150816200018c575060009392505050565b80806020019051810190620001a2919062000303565b60ff16949350505050565b60006060620001c7846200027c60201b620004121760201c565b620001e5576040516373d39f9d60e01b815260040160405180910390fd5b600080856001600160a01b03168560405162000202919062000328565b600060405180830381855afa9150503d80600081146200023f576040519150601f19603f3d011682016040523d82523d6000602084013e62000244565b606091505b5091509150816200026d5760006040518060200160405280600081525093509350505062000275565b600193509150505b9250929050565b3b151590565b80516001600160a01b03811681146200029a57600080fd5b919050565b60008060408385031215620002b357600080fd5b620002be8362000282565b9150620002ce6020840162000282565b90509250929050565b600060208284031215620002ea57600080fd5b81516001600160e01b0319811681146200012f57600080fd5b6000602082840312156200031657600080fd5b815160ff811681146200012f57600080fd5b6000825160005b818110156200034b57602081860181015185830152016200032f565b818111156200035b576000828501525b509190910192915050565b60805160a05161167f620003ad6000396000818160e9015261042201526000818160610152818161096a015281816109b701528181610f150152610f50015261167f6000f3fe6080604052600436106100435760003560e01c806317fcb39b1461004f57806325d5bf4e146100a05780634e1028ba146100c2578063bde12718146100d757600080fd5b3661004a57005b600080fd5b34801561005b57600080fd5b506100837f000000000000000000000000000000000000000000000000000000000000000081565b6040516001600160a01b0390911681526020015b60405180910390f35b3480156100ac57600080fd5b506040516312eadfa760e11b8152602001610097565b6100d56100d03660046112b9565b61010b565b005b3480156100e357600080fd5b506100837f000000000000000000000000000000000000000000000000000000000000000081565b6002600054036101625760405162461bcd60e51b815260206004820152601f60248201527f5265656e7472616e637947756172643a207265656e7472616e742063616c6c0060448201526064015b60405180910390fd5b6002600090815581905b818110156101a6576101948484838181106101895761018961132e565b905060a00201610418565b8061019e8161135a565b91505061016c565b5060005b818110156102965760008484838181106101c6576101c661132e565b905060a0020160400160208101906101de9190611388565b6040516370a0823160e01b81523060048201526001600160a01b0391909116906370a0823190602401602060405180830381865afa158015610224573d6000803e3d6000fd5b505050506040513d601f19601f8201168201806040525081019061024891906113a5565b90508015610283576102838585848181106102655761026561132e565b905060a00201604001602081019061027d9190611388565b82610968565b508061028e8161135a565b9150506101aa565b5034158015906102a557504715155b1561031557604051600090339047908381818185875af1925050503d80600081146102ec576040519150601f19603f3d011682016040523d82523d6000602084013e6102f1565b606091505b505090508061031357604051630db2c7f160e31b815260040160405180910390fd5b505b5050600160005550565b60006001600160a01b0383161580159061039e575082826040518163ffffffff1660e01b8152600401602060405180830381865afa158015610365573d6000803e3d6000fd5b505050506040513d601f19601f8201168201806040525081019061038991906113be565b60e083901b6001600160e01b03199081169116145b9392505050565b6040805160048152602481019091526020810180516001600160e01b031663313ce56760e01b179052600090819081906103e0908590610a9c565b91509150816103f3575060009392505050565b8080602001905181019061040791906113e8565b60ff16949350505050565b3b151590565b6001600160a01b037f0000000000000000000000000000000000000000000000000000000000000000166312f0dcd86104576040840160208501611388565b6040516001600160e01b031960e084901b1681526001600160a01b039091166004820152602401602060405180830381865afa15801561049b573d6000803e3d6000fd5b505050506040513d601f19601f820116820180604052508101906104bf9190611419565b6104dc576040516306cc02d160e01b815260040160405180910390fd5b60006104eb602083018361144c565b60038111156104fc576104fc611436565b036106135761051e6105146060830160408401611388565b8260600135610b50565b61054b6105316060830160408401611388565b6105416040840160208501611388565b8360600135610bd1565b61055b6040820160208301611388565b6001600160a01b031663fbf178db6105796060840160408501611388565b33606085013561058f60a087016080880161146d565b6040516001600160e01b031960e087901b1681526001600160a01b0394851660048201529390921660248401526044830152151560648201526084015b60408051808303816000875af11580156105ea573d6000803e3d6000fd5b505050506040513d601f19601f8201168201806040525081019061060e919061148a565b505050565b6001610622602083018361144c565b600381111561063357610633611436565b036106c7576106486040820160208301611388565b6001600160a01b031663f364181c6106666060840160408501611388565b3330606086013561067d60a088016080890161146d565b6040516001600160e01b031960e088901b1681526001600160a01b03958616600482015293851660248501529390911660448301526064820152901515608482015260a4016105cc565b60026106d6602083018361144c565b60038111156106e7576106e7611436565b0361075c576106fc6040820160208301611388565b6001600160a01b031663dbc5b48161071a6060840160408501611388565b6040516001600160e01b031960e084901b1681526001600160a01b039091166004820152336024820152306044820152606084013560648201526084016105cc565b600361076b602083018361144c565b600381111561077c5761077c611436565b0361094c576000600019826060013503610859576107a06040830160208401611388565b6001600160a01b0316639198e5156107be6060850160408601611388565b6040516001600160e01b031960e084901b1681526001600160a01b0390911660048201526024016020604051808303816000875af1158015610804573d6000803e3d6000fd5b505050506040513d601f19601f8201168201806040525081019061082891906113a5565b5061085261083c6040840160208501611388565b61084c6060850160408601611388565b33610d38565b9050610860565b5060608101355b6108796108736060840160408501611388565b82610b50565b6108a261088c6060840160408501611388565b61089c6040850160208601611388565b83610bd1565b6108b26040830160208401611388565b6001600160a01b031663976ce4956108d06060850160408601611388565b6040516001600160e01b031960e084901b1681526001600160a01b0390911660048201523360248201526044810184905260640160408051808303816000875af1158015610922573d6000803e3d6000fd5b505050506040513d601f19601f82011682018060405250810190610946919061148a565b50505050565b6040516325e9714f60e01b815260040160405180910390fd5b50565b7f00000000000000000000000000000000000000000000000000000000000000006001600160a01b0316826001600160a01b031603610a8457604051632e1a7d4d60e01b8152600481018290527f00000000000000000000000000000000000000000000000000000000000000006001600160a01b031690632e1a7d4d90602401600060405180830381600087803b158015610a0357600080fd5b505af1158015610a17573d6000803e3d6000fd5b50506040516000925033915083908381818185875af1925050503d8060008114610a5d576040519150601f19603f3d011682016040523d82523d6000602084013e610a62565b606091505b505090508061060e57604051633c9fd93960e21b815260040160405180910390fd5b610a986001600160a01b0383163383610ea6565b5050565b60006060833b610abf576040516373d39f9d60e01b815260040160405180910390fd5b600080856001600160a01b031685604051610ada91906114da565b600060405180830381855afa9150503d8060008114610b15576040519150601f19603f3d011682016040523d82523d6000602084013e610b1a565b606091505b509150915081610b4157600060405180602001604052806000815250935093505050610b49565b600193509150505b9250929050565b6040516370a0823160e01b81523060048201526000906001600160a01b038416906370a0823190602401602060405180830381865afa158015610b97573d6000803e3d6000fd5b505050506040513d601f19601f82011682018060405250810190610bbb91906113a5565b90508181101561060e5761060e83828403610f09565b604051636eb1769f60e11b81523060048201526001600160a01b03838116602483015282919085169063dd62ed3e90604401602060405180830381865afa158015610c20573d6000803e3d6000fd5b505050506040513d601f19601f82011682018060405250810190610c4491906113a5565b101561060e576040516001600160a01b0383811660248301526000196044830152600091829186169060640160408051601f198184030181529181526020820180516001600160e01b031663095ea7b360e01b17905251610ca591906114da565b6000604051808303816000865af19150503d8060008114610ce2576040519150601f19603f3d011682016040523d82523d6000602084013e610ce7565b606091505b5091509150811580610d13575080511580610d11575080806020019051810190610d119190611419565b155b15610d31576040516340b27c2160e11b815260040160405180910390fd5b5050505050565b60405163bf27304160e01b81526001600160a01b038381166004830152600091829186169063bf2730419060240160c060405180830381865afa158015610d83573d6000803e3d6000fd5b505050506040513d601f19601f82011682018060405250810190610da79190611506565b60408082015190516370a0823160e01b81526001600160a01b038681166004830152929350600092909116906370a0823190602401602060405180830381865afa158015610df9573d6000803e3d6000fd5b505050506040513d601f19601f82011682018060405250810190610e1d91906113a5565b9050600082604001516001600160a01b03166318160ddd6040518163ffffffff1660e01b8152600401602060405180830381865afa158015610e63573d6000803e3d6000fd5b505050506040513d601f19601f82011682018060405250810190610e8791906113a5565b60a0840151909150610e9a838284610fdb565b98975050505050505050565b6040516001600160a01b03831660248201526044810182905261060e90849063a9059cbb60e01b906064015b60408051601f198184030181529190526020810180516001600160e01b03166001600160e01b031990931692909217909152611037565b3415801590610f4957507f00000000000000000000000000000000000000000000000000000000000000006001600160a01b0316826001600160a01b0316145b15610fc6577f00000000000000000000000000000000000000000000000000000000000000006001600160a01b031663d0e30db0826040518263ffffffff1660e01b81526004016000604051808303818588803b158015610fa957600080fd5b505af1158015610fbd573d6000803e3d6000fd5b50505050505050565b610a986001600160a01b038316333084611109565b6000811580610fe8575082155b15610ff55750600061039e565b600061100184866115a1565b9050600061100f84836115d6565b905061101b84836115ea565b1561102e5761102b6001826115fe565b90505b95945050505050565b600061108c826040518060400160405280602081526020017f5361666545524332303a206c6f772d6c6576656c2063616c6c206661696c6564815250856001600160a01b03166111419092919063ffffffff16565b80519091501561060e57808060200190518101906110aa9190611419565b61060e5760405162461bcd60e51b815260206004820152602a60248201527f5361666545524332303a204552433230206f7065726174696f6e20646964206e6044820152691bdd081cdd58d8d9595960b21b6064820152608401610159565b6040516001600160a01b03808516602483015283166044820152606481018290526109469085906323b872dd60e01b90608401610ed2565b60606111508484600085611158565b949350505050565b6060824710156111b95760405162461bcd60e51b815260206004820152602660248201527f416464726573733a20696e73756666696369656e742062616c616e636520666f6044820152651c8818d85b1b60d21b6064820152608401610159565b843b6112075760405162461bcd60e51b815260206004820152601d60248201527f416464726573733a2063616c6c20746f206e6f6e2d636f6e74726163740000006044820152606401610159565b600080866001600160a01b0316858760405161122391906114da565b60006040518083038185875af1925050503d8060008114611260576040519150601f19603f3d011682016040523d82523d6000602084013e611265565b606091505b5091509150611275828286611280565b979650505050505050565b6060831561128f57508161039e565b82511561129f5782518084602001fd5b8160405162461bcd60e51b81526004016101599190611616565b600080602083850312156112cc57600080fd5b823567ffffffffffffffff808211156112e457600080fd5b818501915085601f8301126112f857600080fd5b81358181111561130757600080fd5b86602060a08302850101111561131c57600080fd5b60209290920196919550909350505050565b634e487b7160e01b600052603260045260246000fd5b634e487b7160e01b600052601160045260246000fd5b60006001820161136c5761136c611344565b5060010190565b6001600160a01b038116811461096557600080fd5b60006020828403121561139a57600080fd5b813561039e81611373565b6000602082840312156113b757600080fd5b5051919050565b6000602082840312156113d057600080fd5b81516001600160e01b03198116811461039e57600080fd5b6000602082840312156113fa57600080fd5b815160ff8116811461039e57600080fd5b801515811461096557600080fd5b60006020828403121561142b57600080fd5b815161039e8161140b565b634e487b7160e01b600052602160045260246000fd5b60006020828403121561145e57600080fd5b81356004811061039e57600080fd5b60006020828403121561147f57600080fd5b813561039e8161140b565b6000806040838503121561149d57600080fd5b505080516020909101519092909150565b60005b838110156114c95781810151838201526020016114b1565b838111156109465750506000910152565b600082516114ec8184602087016114ae565b9190910192915050565b805161150181611373565b919050565b600060c0828403121561151857600080fd5b60405160c0810181811067ffffffffffffffff8211171561154957634e487b7160e01b600052604160045260246000fd5b604052611555836114f6565b8152611563602084016114f6565b6020820152611574604084016114f6565b6040820152606083015160608201526080830151608082015260a083015160a08201528091505092915050565b60008160001904831182151516156115bb576115bb611344565b500290565b634e487b7160e01b600052601260045260246000fd5b6000826115e5576115e56115c0565b500490565b6000826115f9576115f96115c0565b500690565b6000821982111561161157611611611344565b500190565b60208152600082518060208401526116358160408501602087016114ae565b601f01601f1916919091016040019291505056fea2646970667358221220b4025c419c626f790ad5f3b2f1205e4f34524cfc23648df1aa468708bd214e6c64736f6c634300080d0033",
  "devdoc": {
    "custom:security-contact": "security@silo.finance",
    "details": "SiloRouter requires only first action asset to be approved",
    "kind": "dev",
    "methods": {
      "execute((uint8,address,address,uint256,bool)[])": {
        "details": "User can bundle any combination and number of actions. It's possible to do multiple deposits, withdraws etc. For that reason router may need to send multiple tokens back to the user. Combining Ether and WETH deposits will make this function revert.",
        "params": {
          "_actions": "array of actions to execute"
        }
      }
    },
    "title": "SiloRouter",
    "version": 1
  },
  "userdoc": {
    "kind": "user",
    "methods": {
      "execute((uint8,address,address,uint256,bool)[])": {
        "notice": "Execute actions"
      }
    },
    "notice": "Silo Router is a utility contract that aims to improve UX. It can batch any number or combination of actions (Deposit, Withdraw, Borrow, Repay) and execute them in a single transaction.",
    "version": 1
  },
  "storageLayout": {
    "storage": [
      {
        "astId": 3292,
        "contract": "contracts/SiloRouter.sol:SiloRouter",
        "label": "_status",
        "offset": 0,
        "slot": "0",
        "type": "t_uint256"
      }
    ],
    "types": {
      "t_uint256": {
        "encoding": "inplace",
        "label": "uint256",
        "numberOfBytes": "32"
      }
    }
  }
}