{
  "address": "0x6d4A256695586F61b77B09bc3D28333A91114d5a",
  "abi": [
    {
      "inputs": [
        {
          "internalType": "address",
          "name": "_repository",
          "type": "address"
        },
        {
          "internalType": "contract ISiloConvexStateChangesHandler",
          "name": "_stateChangesHandler",
          "type": "address"
        }
      ],
      "stateMutability": "nonpayable",
      "type": "constructor"
    },
    {
      "inputs": [],
      "name": "InvalidSiloRepository",
      "type": "error"
    },
    {
      "inputs": [],
      "name": "OnlyRepository",
      "type": "error"
    },
    {
      "anonymous": false,
      "inputs": [],
      "name": "InitSiloRepository",
      "type": "event"
    },
    {
      "anonymous": false,
      "inputs": [
        {
          "indexed": true,
          "internalType": "address",
          "name": "silo",
          "type": "address"
        },
        {
          "indexed": true,
          "internalType": "address",
          "name": "asset",
          "type": "address"
        },
        {
          "indexed": false,
          "internalType": "uint128",
          "name": "version",
          "type": "uint128"
        }
      ],
      "name": "NewSiloCreated",
      "type": "event"
    },
    {
      "inputs": [
        {
          "internalType": "address",
          "name": "_siloAsset",
          "type": "address"
        },
        {
          "internalType": "uint128",
          "name": "_version",
          "type": "uint128"
        },
        {
          "internalType": "bytes",
          "name": "",
          "type": "bytes"
        }
      ],
      "name": "createSilo",
      "outputs": [
        {
          "internalType": "address",
          "name": "silo",
          "type": "address"
        }
      ],
      "stateMutability": "nonpayable",
      "type": "function"
    },
    {
      "inputs": [],
      "name": "siloFactoryPing",
      "outputs": [
        {
          "internalType": "bytes4",
          "name": "",
          "type": "bytes4"
        }
      ],
      "stateMutability": "pure",
      "type": "function"
    },
    {
      "inputs": [],
      "name": "siloRepository",
      "outputs": [
        {
          "internalType": "address",
          "name": "",
          "type": "address"
        }
      ],
      "stateMutability": "view",
      "type": "function"
    }
  ],
  "transactionHash": "0x526b9d888298f5e771e589d9a49346472f88650521a58b61cc3fe56679ea07cd",
  "args": [
    "0xd998C35B7900b344bbBe6555cc11576942Cf309d",
    "0x857c44b994a9BeeDcF5FA4B7E9fAf48556058F59"
  ],
  "numDeployments": 1,
  "solcInputHash": "c9303397e20c2b4613b58e6ec221d180",
  "bytecode": "0x60a060405234801561001057600080fd5b506040516161d13803806161d183398101604081905261002f91610160565b81610051816001600160a01b031663e99ed41d6100c260201b61019c1760201c565b61006d576040516295241d60e21b815260040160405180910390fd5b600080546001600160a01b0319166001600160a01b0383161781556040517f62b7374e631dbf873146b0bd9f3390235a4a47128c3336ec4344c32bc28fe2929190a1506001600160a01b0316608052506101c4565b60006001600160a01b03831615801590610141575082826040518163ffffffff1660e01b8152600401602060405180830381865afa158015610108573d6000803e3d6000fd5b505050506040513d601f19601f8201168201806040525081019061012c919061019a565b60e083901b6001600160e01b03199081169116145b9392505050565b6001600160a01b038116811461015d57600080fd5b50565b6000806040838503121561017357600080fd5b825161017e81610148565b602084015190925061018f81610148565b809150509250929050565b6000602082840312156101ac57600080fd5b81516001600160e01b03198116811461014157600080fd5b608051615ff36101de600039600060cd0152615ff36000f3fe608060405234801561001057600080fd5b50600436106100415760003560e01c8063573bbca5146100465780635a0c4de414610076578063bde127181461008b575b600080fd5b610059610054366004610246565b61009e565b6040516001600160a01b0390911681526020015b60405180910390f35b604051631683137960e21b815260200161006d565b600054610059906001600160a01b031681565b600080546001600160a01b031633146100ca576040516397691a2f60e01b815260040160405180910390fd5b337f000000000000000000000000000000000000000000000000000000000000000085856040516100fa90610222565b6001600160a01b0394851681529284166020840152921660408201526001600160801b039091166060820152608001604051809103906000f080158015610145573d6000803e3d6000fd5b506040516001600160801b03851681529091506001600160a01b0380861691908316907f3d603ed158e689891fb302f8dcdd070ca09f651c8b61183dda2db71384cca1579060200160405180910390a39392505050565b60006001600160a01b0383161580159061021b575082826040518163ffffffff1660e01b8152600401602060405180830381865afa1580156101e2573d6000803e3d6000fd5b505050506040513d601f19601f820116820180604052508101906102069190610334565b60e083901b6001600160e01b03199081169116145b9392505050565b615c5f806200035f83390190565b634e487b7160e01b600052604160045260246000fd5b60008060006060848603121561025b57600080fd5b83356001600160a01b038116811461027257600080fd5b925060208401356001600160801b038116811461028e57600080fd5b9150604084013567ffffffffffffffff808211156102ab57600080fd5b818601915086601f8301126102bf57600080fd5b8135818111156102d1576102d1610230565b604051601f8201601f19908116603f011681019083821181831017156102f9576102f9610230565b8160405282815289602084870101111561031257600080fd5b8260208601602083013760006020848301015280955050505050509250925092565b60006020828403121561034657600080fd5b81516001600160e01b03198116811461021b57600080fdfe6101206040523480156200001257600080fd5b5060405162005c5f38038062005c5f833981016040819052620000359162000396565b8382828282826001600081905550600180819055506200006e836001600160a01b031663e99ed41d620001a560201b620012781760201c565b6200008c57604051639f45596360e01b815260040160405180910390fd5b806001600160801b0316600003620000b757604051634eb171af60e01b815260040160405180910390fd5b6000620000cf836200023160201b620012fe1760201c565b6001600160801b03831660c0526001600160a01b03808616608052841660a0529050620000fe81600a6200051c565b60e052505050506001600160a01b038681166101008190526040516303f9c36b60e01b8152918716600483015293506303f9c36b92506024019050602060405180830381865afa15801562000157573d6000803e3d6000fd5b505050506040513d601f19601f820116820180604052508101906200017d91906200052a565b6200019b57604051631252497b60e11b815260040160405180910390fd5b50505050620005e4565b60006001600160a01b0383161580159062000228575082826040518163ffffffff1660e01b8152600401602060405180830381865afa158015620001ed573d6000803e3d6000fd5b505050506040513d601f19601f8201168201806040525081019062000213919062000555565b60e083901b6001600160e01b03199081169116145b90505b92915050565b6040805160048152602481019091526020810180516001600160e01b0390811663313ce56760e01b17909152600091829182916200027391869190620002a816565b915091508162000287575060009392505050565b808060200190518101906200029d919062000581565b60ff16949350505050565b60006060620002c2846200037760201b6200136b1760201c565b620002e0576040516373d39f9d60e01b815260040160405180910390fd5b600080856001600160a01b031685604051620002fd9190620005a6565b600060405180830381855afa9150503d80600081146200033a576040519150601f19603f3d011682016040523d82523d6000602084013e6200033f565b606091505b509150915081620003685760006040518060200160405280600081525093509350505062000370565b600193509150505b9250929050565b3b151590565b6001600160a01b03811681146200039357600080fd5b50565b60008060008060808587031215620003ad57600080fd5b8451620003ba816200037d565b6020860151909450620003cd816200037d565b6040860151909350620003e0816200037d565b60608601519092506001600160801b0381168114620003fe57600080fd5b939692955090935050565b634e487b7160e01b600052601160045260246000fd5b600181815b808511156200046057816000190482111562000444576200044462000409565b808516156200045257918102915b93841c939080029062000424565b509250929050565b60008262000479575060016200022b565b8162000488575060006200022b565b8160018114620004a15760028114620004ac57620004cc565b60019150506200022b565b60ff841115620004c057620004c062000409565b50506001821b6200022b565b5060208310610133831016604e8410600b8410161715620004f1575081810a6200022b565b620004fd83836200041f565b806000190482111562000514576200051462000409565b029392505050565b600062000228838362000468565b6000602082840312156200053d57600080fd5b815180151581146200054e57600080fd5b9392505050565b6000602082840312156200056857600080fd5b81516001600160e01b0319811681146200054e57600080fd5b6000602082840312156200059457600080fd5b815160ff811681146200054e57600080fd5b6000825160005b81811015620005c95760208186018101518583015201620005ad565b81811115620005d9576000828501525b509190910192915050565b60805160a05160c05160e051610100516155ad620006b2600039600061177a01526000505060006104080152600081816101f901528181610b7301528181611d3701528181612642015281816126800152614160015260008181610304015281816104a2015281816105e401528181610ac101528181610df701528181610f0801528181611acd01528181611ba601528181611e21015281816120bd01528181612241015281816125b8015281816126aa015281816130f5015281816131a501526132a501526155ad6000f3fe608060405234801561001057600080fd5b50600436106101735760003560e01c8063a388991b116100de578063ead5d35911610097578063f87c3aa811610071578063f87c3aa814610392578063fb255703146103d0578063fbf178db146103f0578063ffa1ad741461040357600080fd5b8063ead5d35914610359578063f364181c1461036c578063f3d470c21461037f57600080fd5b8063a388991b146102d1578063a6e08aa1146102d9578063b8c876b1146102ec578063bde12718146102ff578063bf27304114610326578063dbc5b4811461034657600080fd5b806364654cf51161013057806364654cf51461024657806367e4ac2c1461025c5780639198e5151461027157806393a94ca314610292578063976ce495146102b4578063a1dfa423146102c757600080fd5b8063151541f01461017857806322867d781461019657806338b51ce1146101be5780633edd1128146101e15780634521c019146101f45780634b8a352914610233575b600080fd5b61018061044b565b60405161018d91906148e1565b60405180910390f35b6101a96101a436600461490c565b61057e565b6040805192835260208301919091520161018d565b6101d16101cc366004614938565b610599565b604051901515815260200161018d565b6101a96101ef366004614963565b61064c565b61021b7f000000000000000000000000000000000000000000000000000000000000000081565b6040516001600160a01b03909116815260200161018d565b6101a961024136600461490c565b61067e565b61024e6106b4565b60405161018d929190614a25565b610264610834565b60405161018d9190614a86565b61028461027f366004614938565b610896565b60405190815260200161018d565b6102a56102a0366004614a99565b6108a7565b60405161018d93929190614bd6565b6101a96102c2366004614c0f565b610a45565b6102cf610a54565b005b6102cf610a93565b6101d16102e7366004614c50565b610c2b565b6102846102fa366004614938565b610cf6565b61021b7f000000000000000000000000000000000000000000000000000000000000000081565b610339610334366004614938565b610d81565b60405161018d9190614c89565b6101a9610354366004614c97565b610df2565b6101a9610367366004614963565b610ee8565b6101a961037a366004614ce8565b610f03565b6101d161038d366004614c50565b610fde565b6103a56103a0366004614938565b611124565b604080518251815260208084015190820152918101516001600160401b03169082015260600161018d565b6103e36103de366004614938565b6111a4565b60405161018d9190614d66565b6101a96103fe366004614dbf565b611254565b61042a7f000000000000000000000000000000000000000000000000000000000000000081565b6040516fffffffffffffffffffffffffffffffff909116815260200161018d565b60606000610457610834565b905080516001600160401b0381111561047257610472614e12565b60405190808252806020026020018201604052801561049b578160200160208202803683370190505b50915060007f00000000000000000000000000000000000000000000000000000000000000006001600160a01b0316638da5cb5b6040518163ffffffff1660e01b8152600401602060405180830381865afa1580156104fe573d6000803e3d6000fd5b505050506040513d601f19601f820116820180604052508101906105229190614e28565b905060005b82518110156105785761055383828151811061054557610545614e45565b602002602001015183611371565b84828151811061056557610565614e45565b6020908102919091010152600101610527565b50505090565b60008061058d84333386611418565b915091505b9250929050565b60006001600160a01b0382166105c257604051630b328ad960e31b815260040160405180910390fd5b6000806105cd6106b4565b915091506000806106406040518060a001604052807f00000000000000000000000000000000000000000000000000000000000000006001600160a01b03168152602001306001600160a01b03168152602001868152602001858152602001886001600160a01b031681525060016115e4565b10159695505050505050565b60008061065a336000611753565b61066485846117da565b61067185333387876117fb565b915091505b935093915050565b60008061068a84611d35565b156106a85760405163f3b4e6a160e01b815260040160405180910390fd5b61058d84333386611d67565b606080600280548060200260200160405190810160405280929190818152602001828054801561070d57602002820191906000526020600020905b81546001600160a01b031681526001909101906020018083116106ef575b5050505050915081516001600160401b0381111561072d5761072d614e12565b60405190808252806020026020018201604052801561076657816020015b610753614855565b81526020019060019003908161074b5790505b50905060005b825181101561082f576003600084838151811061078b5761078b614e45565b6020908102919091018101516001600160a01b039081168352828201939093526040918201600020825160c0810184528154851681526001820154851692810192909252600281015490931691810191909152600382015460608201526004820154608082015260059091015460a0820152825183908390811061081157610811614e45565b6020026020010181905250808061082790614e71565b91505061076c565b509091565b6060600280548060200260200160405190810160405280929190818152602001828054801561088c57602002820191906000526020600020905b81546001600160a01b0316815260019091019060200180831161086e575b5050505050905090565b60006108a182612095565b92915050565b60608060606108b4610834565b925085806001600160401b038111156108cf576108cf614e12565b60405190808252806020026020018201604052801561090257816020015b60608152602001906001900390816108ed5790505b509250806001600160401b0381111561091d5761091d614e12565b60405190808252806020026020018201604052801561095057816020015b606081526020019060019003908161093b5790505b50915060005b81811015610a395761098f89898381811061097357610973614e45565b90506020020160208101906109889190614938565b6000611753565b6109f7858a8a848181106109a5576109a5614e45565b90506020020160208101906109ba9190614938565b338a8a8080601f01602080910402602001604051908101604052809392919081815260200183838082843760009201919091525061237692505050565b858381518110610a0957610a09614e45565b60200260200101858481518110610a2257610a22614e45565b602090810291909101019190915252600101610956565b50509450945094915050565b60008061067185853386611418565b600260005403610a7f5760405162461bcd60e51b8152600401610a7690614e8a565b60405180910390fd5b6002600055610a8c6125b4565b6001600055565b600260005403610ab55760405162461bcd60e51b8152600401610a7690614e8a565b600260008190555060007f00000000000000000000000000000000000000000000000000000000000000006001600160a01b031663296041ea6040518163ffffffff1660e01b8152600401600060405180830381865afa158015610b1d573d6000803e3d6000fd5b505050506040513d6000823e601f3d908101601f19168201604052610b459190810190614ef1565b905060005b8151811015610c1a576000828281518110610b6757610b67614e45565b602002602001015190507f00000000000000000000000000000000000000000000000000000000000000006001600160a01b0316816001600160a01b031614610c07576001600160a01b0381166000818152600460205260408082206002908101805460ff60401b19166802000000000000000017905590519092917f51efec4e8c6ee88d51e1ec000985e267b4296e493de77b4aa7a38315981390bf91a35b5080610c1281614e71565b915050610b4a565b50610c236125b4565b506001600055565b6001600160a01b038281166000908152600360205260408082206002015490516370a0823160e01b81528484166004820152919216906370a0823190602401602060405180830381865afa158015610c87573d6000803e3d6000fd5b505050506040513d601f19601f82011682018060405250810190610cab9190614f96565b158015610cef575060016001600160a01b0384166000908152600460205260409020600290810154600160401b900460ff1690811115610ced57610ced614d50565b145b9392505050565b6001600160a01b03811660008181526003602052604080822060049081015491516370a0823160e01b81523091810191909152919290916370a0823190602401602060405180830381865afa158015610d53573d6000803e3d6000fd5b505050506040513d601f19601f82011682018060405250810190610d779190614f96565b6108a19190614faf565b610d89614855565b506001600160a01b03908116600090815260036020818152604092839020835160c081018552815486168152600182015486169281019290925260028101549094169281019290925282015460608201526004820154608082015260059091015460a082015290565b6000807f00000000000000000000000000000000000000000000000000000000000000006001600160a01b031663f887ea406040518163ffffffff1660e01b8152600401602060405180830381865afa158015610e53573d6000803e3d6000fd5b505050506040513d601f19601f82011682018060405250810190610e779190614e28565b6001600160a01b0316336001600160a01b031614610ea857604051639e41bdd760e01b815260040160405180910390fd5b610eb186611d35565b15610ecf5760405163f3b4e6a160e01b815260040160405180910390fd5b610edb86868686611d67565b9150915094509492505050565b600080610ef6336000611753565b61067185333387876127fe565b6000807f00000000000000000000000000000000000000000000000000000000000000006001600160a01b031663f887ea406040518163ffffffff1660e01b8152600401602060405180830381865afa158015610f64573d6000803e3d6000fd5b505050506040513d601f19601f82011682018060405250810190610f889190614e28565b6001600160a01b0316336001600160a01b031614610fb957604051639e41bdd760e01b815260040160405180910390fd5b610fc38686611753565b610fd087878787876127fe565b915091509550959350505050565b6001600160a01b03828116600090815260036020526040808220805491516370a0823160e01b81528585166004820152929390929116906370a0823190602401602060405180830381865afa15801561103b573d6000803e3d6000fd5b505050506040513d601f19601f8201168201806040525081019061105f9190614f96565b1580156110d9575060018101546040516370a0823160e01b81526001600160a01b038581166004830152909116906370a0823190602401602060405180830381865afa1580156110b3573d6000803e3d6000fd5b505050506040513d601f19601f820116820180604052508101906110d79190614f96565b155b801561111c575060016001600160a01b0385166000908152600460205260409020600290810154600160401b900460ff169081111561111a5761111a614d50565b145b949350505050565b6111516040518060600160405280600081526020016000815260200160006001600160401b031681525090565b506001600160a01b03166000818152600360208181526040808420815160608101835293810154845260050154838301529383526004905290829020600201546001600160401b03169181019190915290565b6111cc6040805160808101825260008082526020820181905291810182905290606082015290565b6001600160a01b0382166000908152600460209081526040918290208251608081018452815481526001820154928101929092526002808201546001600160401b03811694840194909452919290916060840191600160401b900460ff169081111561123a5761123a614d50565b600281111561124b5761124b614d50565b90525092915050565b6000806112613386611753565b61126b86846117da565b610edb86338787876117fb565b60006001600160a01b03831615801590610cef575082826040518163ffffffff1660e01b8152600401602060405180830381865afa1580156112be573d6000803e3d6000fd5b505050506040513d601f19601f820116820180604052508101906112e29190614fc6565b60e083901b6001600160e01b0319908116911614905092915050565b6040805160048152602481019091526020810180516001600160e01b031663313ce56760e01b1790526000908190819061133990859061295c565b915091508161134c575060009392505050565b808060200190518101906113609190614ff0565b60ff16949350505050565b3b151590565b60006002600054036113955760405162461bcd60e51b8152600401610a7690614e8a565b600260009081556001600160a01b0384168152600460205260409020805460018201546113c29190614faf565b915060006113cf85610cf6565b9050808311156113dd578092505b826000036113f05760009250505061140d565b81548301825561140a6001600160a01b0386168585612a0e565b50505b600160005592915050565b60008085816001600160a01b0382166000908152600460205260409020600290810154600160401b900460ff169081111561145557611455614d50565b03611473576040516367fa94e760e01b815260040160405180910390fd5b6002600054036114955760405162461bcd60e51b8152600401610a7690614e8a565b60026000556114a387612095565b506001600160a01b03871660009081526003602052604090206114c7818887612a71565b909450925060008390036114ee5760405163faf4da9160e01b815260040160405180910390fd5b866001600160a01b0316886001600160a01b03167f05f2eeda0e08e4b437f487c8d7d29b14537d15e3488170dc3de5dbdf8dac46848660405161153391815260200190565b60405180910390a36115506001600160a01b038916873087612bab565b838160050160008282546115649190614faf565b90915550506002810154604051632770a7eb60e21b81526001600160a01b0389811660048301526024820186905290911690639dc29fac90604401600060405180830381600087803b1580156115b957600080fd5b505af11580156115cd573d6000803e3d6000fd5b505050505060016000819055505094509492505050565b60008060006115f285612be9565b90506115fd81612d05565b600003611611576000809250925050610592565b600085600001516001600160a01b0316635ddf2be36040518163ffffffff1660e01b8152600401602060405180830381865afa158015611655573d6000803e3d6000fd5b505050506040513d601f19601f820116820180604052508101906116799190614e28565b9050600061168c82886040015185612d4b565b9050600061169982612d05565b9050806000036116b3576000809550955050505050610592565b60006116bf848a612f66565b905060006116cc82612d05565b9050806000036116ea57600019600097509750505050505050610592565b60006117058b600001518c602001518d604001518d87612f84565b90508161171a670de0b6b3a764000086615013565b6117249190615048565b985081611739670de0b6b3a764000083615013565b6117439190615048565b9750505050505050509250929050565b6040516330bd295b60e01b81526001600160a01b03838116600483015282811660248301527f000000000000000000000000000000000000000000000000000000000000000016906330bd295b90604401600060405180830381600087803b1580156117be57600080fd5b505af11580156117d2573d6000803e3d6000fd5b505050505050565b6117e382611d35565b80156117ed575080155b156117f757600080fd5b5050565b6000806002600054036118205760405162461bcd60e51b8152600401610a7690614e8a565b60026000558661182f81612095565b5061183a8887610c2b565b6118575760405163206e46bd60e21b815260040160405180910390fd5b6001600160a01b03881660009081526003602052604081208694509085611882578160030154611888565b81600401545b9050851561199857611915818360010160009054906101000a90046001600160a01b03166001600160a01b03166318160ddd6040518163ffffffff1660e01b8152600401602060405180830381865afa1580156118e9573d6000803e3d6000fd5b505050506040513d601f19601f8201168201806040525081019061190d9190614f96565b89919061301b565b9350611921878261505c565b60048381019190915560018301546040516340c10f1960e01b81526001600160a01b038b811693820193909352602481018790529116906340c10f1990604401600060405180830381600087803b15801561197b57600080fd5b505af115801561198f573d6000803e3d6000fd5b50505050611a68565b6119f1818360000160009054906101000a90046001600160a01b03166001600160a01b03166318160ddd6040518163ffffffff1660e01b8152600401602060405180830381865afa1580156118e9573d6000803e3d6000fd5b93506119fd878261505c565b600383015581546040516340c10f1960e01b81526001600160a01b038a8116600483015260248201879052909116906340c10f1990604401600060405180830381600087803b158015611a4f57600080fd5b505af1158015611a63573d6000803e3d6000fd5b505050505b611a7d6001600160a01b038b168a308a612bab565b6040805188815287151560208201526001600160a01b03808b1692908d16917fdd160bb401ec5b5e5ca443d41e8e7182f3fe72d70a04b9c0ba844483d212bcb5910160405180910390a3505060007f00000000000000000000000000000000000000000000000000000000000000006001600160a01b0316635ddf2be36040518163ffffffff1660e01b8152600401602060405180830381865afa158015611b29573d6000803e3d6000fd5b505050506040513d601f19601f82011682018060405250810190611b4d9190614e28565b6001600160a01b0383166000908152600360208190526040822060048101549181015493945092611b7e919061505c565b604051630968252160e11b81523060048201526001600160a01b0386811660248301529192507f0000000000000000000000000000000000000000000000000000000000000000909116906312d04a4290604401602060405180830381865afa158015611bef573d6000803e3d6000fd5b505050506040513d601f19601f82011682018060405250810190611c139190614f96565b846001600160a01b031663313ce5676040518163ffffffff1660e01b8152600401602060405180830381865afa158015611c51573d6000803e3d6000fd5b505050506040513d601f19601f82011682018060405250810190611c759190614ff0565b611c8090600a615158565b6040516341976e0960e01b81526001600160a01b0387811660048301528491908716906341976e0990602401602060405180830381865afa158015611cc9573d6000803e3d6000fd5b505050506040513d601f19601f82011682018060405250810190611ced9190614f96565b611cf79190615013565b611d019190615048565b1115611d205760405163221e43cf60e11b815260040160405180910390fd5b50506001600055509197909650945050505050565b7f00000000000000000000000000000000000000000000000000000000000000006001600160a01b0390811691161490565b600080600260005403611d8c5760405162461bcd60e51b8152600401610a7690614e8a565b6002600055611d9a86612095565b50611da58686610fde565b611dc2576040516301c08c7960e11b815260040160405180910390fd5b82611dcc87610cf6565b1015611deb57604051634323a55560e01b815260040160405180910390fd5b600060036000886001600160a01b03166001600160a01b03168152602001908152602001600020905060008160050154905060007f00000000000000000000000000000000000000000000000000000000000000006001600160a01b031663072ea61c6040518163ffffffff1660e01b8152600401602060405180830381865afa158015611e7d573d6000803e3d6000fd5b505050506040513d601f19601f82011682018060405250810190611ea19190614f96565b905060008115611ecd57670de0b6b3a7640000611ebe8389615013565b611ec89190615048565b611ed0565b60005b9050611f60838560020160009054906101000a90046001600160a01b03166001600160a01b03166318160ddd6040518163ffffffff1660e01b8152600401602060405180830381865afa158015611f2b573d6000803e3d6000fd5b505050506040513d601f19601f82011682018060405250810190611f4f9190614f96565b611f59848b61505c565b9190613078565b879650945080611f70878561505c565b611f7a919061505c565b60058501556001600160a01b038a1660009081526004602052604081206001018054839290611faa90849061505c565b909155505060028401546040516340c10f1960e01b81526001600160a01b038b8116600483015260248201889052909116906340c10f1990604401600060405180830381600087803b158015611fff57600080fd5b505af1158015612013573d6000803e3d6000fd5b50505050886001600160a01b03168a6001600160a01b03167f312a5e5e1079f5dda4e95dbbd0b908b291fd5b992ef22073643ab691572c5b528960405161205c91815260200190565b60405180910390a36120786001600160a01b038b168989612a0e565b612081896130d3565b505060016000555091969095509350505050565b6040516344cf3e9360e01b81523060048201526001600160a01b0382811660248301526000917f0000000000000000000000000000000000000000000000000000000000000000909116906344cf3e9390604401602060405180830381865afa158015612106573d6000803e3d6000fd5b505050506040513d601f19601f8201168201806040525081019061212a9190615167565b15612148576040516313d0ff5960e31b815260040160405180910390fd5b6001600160a01b0382166000908152600360209081526040808320600490925282206002810154919290916001600160401b0316908190036121ab5750600201805467ffffffffffffffff1916426001600160401b031617905550600092915050565b4281036121bd57506000949350505050565b60006121c88661317d565b60405162f704bf60e21b81526001600160a01b03888116600483015242602483015291909116906303dc12fc906044016020604051808303816000875af1158015612217573d6000803e3d6000fd5b505050506040513d601f19601f8201168201806040525081019061223b9190614f96565b905060007f00000000000000000000000000000000000000000000000000000000000000006001600160a01b03166325ed3d446040518163ffffffff1660e01b8152600401602060405180830381865afa15801561229d573d6000803e3d6000fd5b505050506040513d601f19601f820116820180604052508101906122c19190614f96565b600586015460018601549192509060008080670de0b6b3a76400006122e68887615013565b6122f09190615048565b9a50670de0b6b3a7640000868c02049150818401925083831015612318576000199250831991505b50808a036123268b8661505c565b60058b015560038a015461233b90829061505c565b60039a909a01999099555060018701555050506002909201805467ffffffffffffffff1916426001600160401b031617905550919392505050565b60608060026001540361239c57604051634fe29f1760e01b815260040160405180910390fd5b60026001556123aa85610599565b1561240057600086516001600160401b038111156123ca576123ca614e12565b6040519080825280602002602001820160405280156123f3578160200160208202803683370190505b5092508291506125a59050565b61240b868686613212565b60405163e7b43da560e01b815291935091506001600160a01b0385169063e7b43da5906124449088908a90879087908a906004016151dc565b600060405180830381600087803b15801561245e57600080fd5b505af1158015612472573d6000803e3d6000fd5b5050505060005b865181101561257e5782818151811061249457612494614e45565b602002602001015160001415806124c557508181815181106124b8576124b8614e45565b6020026020010151600014155b1561256c57856001600160a01b03168782815181106124e6576124e6614e45565b60200260200101516001600160a01b03167ff3fa0eaee8f258c23b013654df25d1527f98a5c7ccd5e951dd77caca400ef97284848151811061252a5761252a614e45565b602002602001015186858151811061254457612544614e45565b6020026020010151604051612563929190918252602082015260400190565b60405180910390a35b8061257681614e71565b915050612479565b5061258885610599565b6125a55760405163e081c8f360e01b815260040160405180910390fd5b60018055909590945092505050565b60007f00000000000000000000000000000000000000000000000000000000000000006001600160a01b031663cc1fdf166040518163ffffffff1660e01b8152600401602060405180830381865afa158015612614573d6000803e3d6000fd5b505050506040513d601f19601f820116820180604052508101906126389190614e28565b6001600160a01b037f00000000000000000000000000000000000000000000000000000000000000008116600090815260036020526040902054919250166126a6576126a6817f0000000000000000000000000000000000000000000000000000000000000000600061346a565b60007f00000000000000000000000000000000000000000000000000000000000000006001600160a01b031663ee306a346040518163ffffffff1660e01b8152600401600060405180830381865afa158015612706573d6000803e3d6000fd5b505050506040513d6000823e601f3d908101601f1916820160405261272e9190810190614ef1565b905060005b81518110156127f957600082828151811061275057612750614e45565b6020908102919091018101516001600160a01b0380821660009081526003909352604090922054909250166127905761278b8482600161346a565b6127e6565b6001600160a01b038116600081815260046020526040808220600201805460ff60401b1916600160401b17905551600192917f51efec4e8c6ee88d51e1ec000985e267b4296e493de77b4aa7a38315981390bf91a35b50806127f181614e71565b915050612733565b505050565b6000806002600054036128235760405162461bcd60e51b8152600401610a7690614e8a565b6002600090815587906001600160a01b0382166000908152600460205260409020600290810154600160401b900460ff169081111561286457612864614d50565b03612882576040516367fa94e760e01b815260040160405180910390fd5b61288b88612095565b5061289b888689898860006136d3565b909350915060008390036128c25760405163faf4da9160e01b815260040160405180910390fd5b6128cb87610599565b6128e85760405163e081c8f360e01b815260040160405180910390fd5b856001600160a01b0316876001600160a01b0316896001600160a01b03167f3b5f15635b488fe265654176726b3222080f3d6500a562f4664233b3ea2f028386886040516129429291909182521515602082015260400190565b60405180910390a450600160005590969095509350505050565b60006060833b61297f576040516373d39f9d60e01b815260040160405180910390fd5b600080856001600160a01b03168560405161299a919061523a565b600060405180830381855afa9150503d80600081146129d5576040519150601f19603f3d011682016040523d82523d6000602084013e6129da565b606091505b509150915081612a0157600060405180602001604052806000815250935093505050610592565b6001969095509350505050565b6040516001600160a01b0383166024820152604481018290526127f990849063a9059cbb60e01b906064015b60408051601f198184030181529190526020810180516001600160e01b03166001600160e01b031990931692909217909152613970565b60028301546040516370a0823160e01b81526001600160a01b03848116600483015260009283928392909116906370a0823190602401602060405180830381865afa158015612ac4573d6000803e3d6000fd5b505050506040513d601f19601f82011682018060405250810190612ae89190614f96565b905060008660020160009054906101000a90046001600160a01b03166001600160a01b03166318160ddd6040518163ffffffff1660e01b8152600401602060405180830381865afa158015612b41573d6000803e3d6000fd5b505050506040513d601f19601f82011682018060405250810190612b659190614f96565b60058801549091506000612b7a848385613a42565b9050808710612b8e57809550839450612b9f565b869550612b9c86838561301b565b94505b50505050935093915050565b6040516001600160a01b0380851660248301528316604482015260648101829052612be39085906323b872dd60e01b90608401612a3a565b50505050565b606081606001515182604001515114612c155760405163dba17af560e01b815260040160405180910390fd5b8160400151516001600160401b03811115612c3257612c32614e12565b604051908082528060200260200182016040528015612c5b578160200160208202803683370190505b50905060005b826040015151811015612cff576000612ca18460200151856000015186604001518581518110612c9357612c93614e45565b602002602001015142613a82565b9050612ccf84606001518381518110612cbc57612cbc614e45565b6020026020010151856080015183613b80565b838381518110612ce157612ce1614e45565b60209081029190910101525080612cf781614e71565b915050612c61565b50919050565b6000805b8251811015612cff57828181518110612d2457612d24614e45565b602002602001015182612d37919061505c565b915080612d4381614e71565b915050612d09565b60608151835114612d6f5760405163dba17af560e01b815260040160405180910390fd5b82516001600160401b03811115612d8857612d88614e12565b604051908082528060200260200182016040528015612db1578160200160208202803683370190505b50905060005b8351811015612f5e57828181518110612dd257612dd2614e45565b602002602001015160000315612f4c576000856001600160a01b03166341976e09868481518110612e0557612e05614e45565b60200260200101516040518263ffffffff1660e01b8152600401612e3891906001600160a01b0391909116815260200190565b602060405180830381865afa158015612e55573d6000803e3d6000fd5b505050506040513d601f19601f82011682018060405250810190612e799190614f96565b90506000858381518110612e8f57612e8f614e45565b60200260200101516001600160a01b031663313ce5676040518163ffffffff1660e01b8152600401602060405180830381865afa158015612ed4573d6000803e3d6000fd5b505050506040513d601f19601f82011682018060405250810190612ef89190614ff0565b9050612f2b828260ff16878681518110612f1457612f14614e45565b6020026020010151613c8c9092919063ffffffff16565b848481518110612f3d57612f3d614e45565b60200260200101818152505050505b80612f5681614e71565b915050612db7565b509392505050565b60606000612f7383613cad565b905061111c84846040015183612d4b565b60008151845114612fa85760405163dba17af560e01b815260040160405180910390fd5b60005b845181101561301157612ff38787878481518110612fcb57612fcb614e45565b602002602001015187878681518110612fe657612fe6614e45565b6020026020010151613eff565b612ffd908361505c565b91508061300981614e71565b915050612fab565b5095945050505050565b6000811580613028575082155b15613034575082610cef565b6000836130418487615013565b61304b9190615048565b90508015801561305a57508415155b1561111c57604051639811e0c760e01b815260040160405180910390fd5b6000811580613085575082155b15613091575082610cef565b600061309d8386615013565b905060006130ab8583615048565b90506130b78583615256565b156130ca576130c760018261505c565b90505b95945050505050565b6000806130de6106b4565b915091506000806131516040518060a001604052807f00000000000000000000000000000000000000000000000000000000000000006001600160a01b03168152602001306001600160a01b03168152602001868152602001858152602001876001600160a01b031681525060006115e4565b915091508082111561317657604051630655b2eb60e31b815260040160405180910390fd5b5050505050565b60405163122cfaaf60e21b81523060048201526001600160a01b0382811660248301526000917f0000000000000000000000000000000000000000000000000000000000000000909116906348b3eabc90604401602060405180830381865afa1580156131ee573d6000803e3d6000fd5b505050506040513d601f19601f820116820180604052508101906108a19190614e28565b82516060908190806001600160401b0381111561323157613231614e12565b60405190808252806020026020018201604052801561325a578160200160208202803683370190505b509250806001600160401b0381111561327557613275614e12565b60405190808252806020026020018201604052801561329e578160200160208202803683370190505b50915060007f00000000000000000000000000000000000000000000000000000000000000006001600160a01b031663eafecffa6040518163ffffffff1660e01b8152600401602060405180830381865afa158015613301573d6000803e3d6000fd5b505050506040513d601f19601f820116820180604052508101906133259190614f96565b905060005b8281101561345f5761335488828151811061334757613347614e45565b6020026020010151612095565b506000600360008a848151811061336d5761336d614e45565b60200260200101516001600160a01b03166001600160a01b0316815260200190815260200160002090506133a48189600019612a71565b508583815181106133b7576133b7614e45565b60200260200101818152505060006133ef8a84815181106133da576133da614e45565b60200260200101516000198b8b6001896136d3565b509050600061341e8b858151811061340957613409614e45565b60200260200101516000198c8c60008a6136d3565b50905061342b818361505c565b88858151811061343d5761343d614e45565b602002602001018181525050505050808061345790614e71565b91505061332a565b505050935093915050565b60006134768383614024565b6001600160a01b03808516600090815260036020908152604091829020845191850151925163f8f38d1b60e01b8152949550939288169263f8f38d1b926134c29291899060040161526a565b6020604051808303816000875af11580156134e1573d6000803e3d6000fd5b505050506040513d601f19601f820116820180604052508101906135059190614e28565b81546001600160a01b0319166001600160a01b039182161782556040838101516060850151915163f8f38d1b60e01b81529288169263f8f38d1b9261354f9291899060040161526a565b6020604051808303816000875af115801561356e573d6000803e3d6000fd5b505050506040513d601f19601f820116820180604052508101906135929190614e28565b6001820180546001600160a01b0319166001600160a01b03928316179055608083015160a0840151604051633b0eb45d60e21b81529288169263ec3ad174926135e1929091899060040161526a565b6020604051808303816000875af1158015613600573d6000803e3d6000fd5b505050506040513d601f19601f820116820180604052508101906136249190614e28565b600282810180546001600160a01b039384166001600160a01b0319918216179091558154600181810184557f405787fa12a823e0f2b7631cc41b3ba8828b3321ca811111fa75cd3aa3bb5ace9091018054948916949092168417909155600083815260046020526040808220909301805460ff60401b1916600160401b17905591519092917f51efec4e8c6ee88d51e1ec000985e267b4296e493de77b4aa7a38315981390bf91a35050505050565b60008060008060006136e58b88614298565b9250925092506000198a036137d5576040516370a0823160e01b81526001600160a01b038a811660048301528316906370a0823190602401602060405180830381865afa15801561373a573d6000803e3d6000fd5b505050506040513d601f19601f8201168201806040525081019061375e9190614f96565b93506137ce83836001600160a01b03166318160ddd6040518163ffffffff1660e01b8152600401602060405180830381865afa1580156137a2573d6000803e3d6000fd5b505050506040513d601f19601f820116820180604052508101906137c69190614f96565b869190614303565b9450613849565b61384383836001600160a01b03166318160ddd6040518163ffffffff1660e01b8152600401602060405180830381865afa158015613817573d6000803e3d6000fd5b505050506040513d601f19601f8201168201806040525081019061383b9190614f96565b8c9190613078565b93508994505b846000036138605760008094509450505050613965565b8483101561388157604051631648a98f60e31b815260040160405180910390fd5b848303925060006138938c8789614361565b9050808210156138b657604051634323a55560e01b815260040160405180910390fd5b6001600160a01b038c16600090815260036020526040902088156138e057600481018590556138e8565b600381018590555b604051632770a7eb60e21b81526001600160a01b038c8116600483015260248201889052851690639dc29fac90604401600060405180830381600087803b15801561393257600080fd5b505af1158015613946573d6000803e3d6000fd5b5061395f925050506001600160a01b038e168b84612a0e565b50505050505b965096945050505050565b60006139c5826040518060400160405280602081526020017f5361666545524332303a206c6f772d6c6576656c2063616c6c206661696c6564815250856001600160a01b03166143c19092919063ffffffff16565b8051909150156127f957808060200190518101906139e39190615167565b6127f95760405162461bcd60e51b815260206004820152602a60248201527f5361666545524332303a204552433230206f7065726174696f6e20646964206e6044820152691bdd081cdd58d8d9595960b21b6064820152608401610a76565b6000811580613a4f575082155b15613a5c57506000610cef565b6000613a688486615013565b90506000613a768483615048565b90506130b78483615256565b60405163122cfaaf60e21b81526001600160a01b038581166004830152838116602483015260009182918616906348b3eabc90604401602060405180830381865afa158015613ad5573d6000803e3d6000fd5b505050506040513d601f19601f82011682018060405250810190613af99190614e28565b60405163b1e0176560e01b81526001600160a01b0388811660048301528681166024830152604482018690529192509082169063b1e0176590606401602060405180830381865afa158015613b52573d6000803e3d6000fd5b505050506040513d601f19601f82011682018060405250810190613b769190614f96565b9695505050505050565b60408084015190516370a0823160e01b81526001600160a01b03848116600483015260009283929116906370a0823190602401602060405180830381865afa158015613bd0573d6000803e3d6000fd5b505050506040513d601f19601f82011682018060405250810190613bf49190614f96565b905080600003613c08576000915050610cef565b6000613c188660a00151856143d0565b9050613b768187604001516001600160a01b03166318160ddd6040518163ffffffff1660e01b8152600401602060405180830381865afa158015613c60573d6000803e3d6000fd5b505050506040513d601f19601f82011682018060405250810190613c849190614f96565b849190613a42565b6000613c9982600a6152a8565b613ca38486615013565b61111c9190615048565b606081606001515182604001515114613cd95760405163dba17af560e01b815260040160405180910390fd5b8160400151516001600160401b03811115613cf657613cf6614e12565b604051908082528060200260200182016040528015613d1f578160200160208202803683370190505b50905060005b826040015151811015612cff57600083606001518281518110613d4a57613d4a614e45565b60209081029190910101515160808501516040516370a0823160e01b81526001600160a01b0391821660048201529116906370a0823190602401602060405180830381865afa158015613da1573d6000803e3d6000fd5b505050506040513d601f19601f82011682018060405250810190613dc59190614f96565b9050600084606001518381518110613ddf57613ddf614e45565b602090810291909101810151015160808601516040516370a0823160e01b81526001600160a01b0391821660048201529116906370a0823190602401602060405180830381865afa158015613e38573d6000803e3d6000fd5b505050506040513d601f19601f82011682018060405250810190613e5c9190614f96565b9050613e68818361505c565b600003613e76575050613eed565b6000613e9b8660200151876000015188604001518781518110612c9357612c93614e45565b9050613ecb86606001518581518110613eb657613eb6614e45565b60200260200101518484848a600001516143f9565b858581518110613edd57613edd614e45565b6020026020010181815250505050505b80613ef781614e71565b915050613d25565b60008080846001811115613f1557613f15614d50565b03613f94576040516330be9d2560e21b81526001600160a01b038781166004830152868116602483015288169063c2fa7494906044015b602060405180830381865afa158015613f69573d6000803e3d6000fd5b505050506040513d601f19601f82011682018060405250810190613f8d9190614f96565b9050613ffc565b6001846001811115613fa857613fa8614d50565b03613fe357604051630ca4db1160e21b81526001600160a01b03878116600483015286811660248301528816906332936c4490604401613f4c565b6040516353c3731560e01b815260040160405180910390fd5b670de0b6b3a764000061400f8285615013565b6140199190615048565b979650505050505050565b61405d6040518060c001604052806060815260200160608152602001606081526020016060815260200160608152602001606081525090565b60006140688461455f565b90506040518060c001604052808260405160200161408691906152b4565b6040516020818303038152906040528152602001826040516020016140ab919061530b565b6040516020818303038152906040528152602001826040516020016140d09190615334565b6040516020818303038152906040528152602001826040516020016140f5919061538b565b60405160208183030381529060405281526020018260405160200161411a91906153b5565b60405160208183030381529060405281526020018260405160200161413f91906153f9565b604051602081830303815290604052815250915082156142915760006141847f000000000000000000000000000000000000000000000000000000000000000061455f565b835160405191925061419a918390602001615415565b60408051601f1981840301815291815290845260208481015191516141c29291849101615466565b60405160208183030381529060405283602001819052508260400151816040516020016141f0929190615415565b604051602081830303815290604052836040018190525082606001518160405160200161421e929190615466565b604051602081830303815290604052836060018190525082608001518160405160200161424c929190615415565b60405160208183030381529060405283608001819052508260a001518160405160200161427a929190615466565b60408051601f1981840301815291905260a0840152505b5092915050565b6001600160a01b03821660009081526003602052604081208190819084156142da57600481015460018201549094506001600160a01b031692508391506142fb565b600381015481549094506001600160a01b031692506142f886610cf6565b91505b509250925092565b6000811580614310575082155b1561431d57506000610cef565b60008261432a8587615013565b6143349190615048565b90508015801561434357508415155b1561111c57604051630cb65c7760e21b815260040160405180910390fd5b600081600003614372575081610cef565b6001600160a01b0384166000908152600460205260408120600101546143999085856145fd565b6001600160a01b03871660009081526004602052604090206001015584039150509392505050565b606061111c848460008561462c565b6000670de0b6b3a76400006143e58385615013565b6143ef9190615048565b610cef908461505c565b60008085156144e8576144e36144758860600151856001600160a01b03166325ed3d446040518163ffffffff1660e01b8152600401602060405180830381865afa15801561444b573d6000803e3d6000fd5b505050506040513d601f19601f8201168201806040525081019061446f9190614f96565b87614749565b88600001516001600160a01b03166318160ddd6040518163ffffffff1660e01b8152600401602060405180830381865afa1580156144b7573d6000803e3d6000fd5b505050506040513d601f19601f820116820180604052508101906144db9190614f96565b889190614303565b6144eb565b60005b9050600085156145445761453f886080015189602001516001600160a01b03166318160ddd6040518163ffffffff1660e01b8152600401602060405180830381865afa1580156144b7573d6000803e3d6000fd5b614547565b60005b9050614553818361505c565b98975050505050505050565b6040805160048152602481019091526020810180516001600160e01b03166395d89b4160e01b179052606090600090819061459b90859061295c565b915091508115806145ab57508051155b156145d05750506040805180820190915260018152603f60f81b602082015292915050565b60208151036145e25761111c8161479d565b8080602001905181019061111c91906154a2565b5050919050565b670de0b6b3a764000081830204600081198511156146215750508219600019610676565b509392840192915050565b60608247101561468d5760405162461bcd60e51b815260206004820152602660248201527f416464726573733a20696e73756666696369656e742062616c616e636520666f6044820152651c8818d85b1b60d21b6064820152608401610a76565b843b6146db5760405162461bcd60e51b815260206004820152601d60248201527f416464726573733a2063616c6c20746f206e6f6e2d636f6e74726163740000006044820152606401610a76565b600080866001600160a01b031685876040516146f7919061523a565b60006040518083038185875af1925050503d8060008114614734576040519150601f19603f3d011682016040523d82523d6000602084013e614739565b606091505b509150915061401982828661481c565b60008061475e84670de0b6b3a7640000614faf565b9050670de0b6b3a764000081816147758689615013565b61477f9190615048565b6147899190615013565b6147939190615048565b6130ca908661505c565b805160609060005b818110156145f6578381815181106147bf576147bf614e45565b01602001516001600160f81b0319161561481457828482815181106147e6576147e6614e45565b602001015160f81c60f81b604051602001614802929190615535565b60405160208183030381529060405292505b6001016147a5565b6060831561482b575081610cef565b82511561483b5782518084602001fd5b8160405162461bcd60e51b8152600401610a769190615564565b6040518060c0016040528060006001600160a01b0316815260200160006001600160a01b0316815260200160006001600160a01b031681526020016000815260200160008152602001600081525090565b600081518084526020808501945080840160005b838110156148d6578151875295820195908201906001016148ba565b509495945050505050565b602081526000610cef60208301846148a6565b6001600160a01b038116811461490957600080fd5b50565b6000806040838503121561491f57600080fd5b823561492a816148f4565b946020939093013593505050565b60006020828403121561494a57600080fd5b8135610cef816148f4565b801515811461490957600080fd5b60008060006060848603121561497857600080fd5b8335614983816148f4565b925060208401359150604084013561499a81614955565b809150509250925092565b600081518084526020808501945080840160005b838110156148d65781516001600160a01b0316875295820195908201906001016149b9565b80516001600160a01b03908116835260208083015182169084015260408083015190911690830152606080820151908301526080808201519083015260a090810151910152565b604081526000614a3860408301856149a5565b82810360208481019190915284518083528582019282019060005b81811015614a7957614a668386516149de565b9383019360c09290920191600101614a53565b5090979650505050505050565b602081526000610cef60208301846149a5565b60008060008060408587031215614aaf57600080fd5b84356001600160401b0380821115614ac657600080fd5b818701915087601f830112614ada57600080fd5b813581811115614ae957600080fd5b8860208260051b8501011115614afe57600080fd5b602092830196509450908601359080821115614b1957600080fd5b818701915087601f830112614b2d57600080fd5b813581811115614b3c57600080fd5b886020828501011115614b4e57600080fd5b95989497505060200194505050565b6000815180845260208085019450848260051b86018286016000805b86811015614bc8578484038a52825180518086529087019087860190845b81811015614bb357835183529289019291890191600101614b97565b50509a87019a94505091850191600101614b79565b509198975050505050505050565b606081526000614be960608301866149a5565b8281036020840152614bfb8186614b5d565b90508281036040840152613b768185614b5d565b600080600060608486031215614c2457600080fd5b8335614c2f816148f4565b92506020840135614c3f816148f4565b929592945050506040919091013590565b60008060408385031215614c6357600080fd5b8235614c6e816148f4565b91506020830135614c7e816148f4565b809150509250929050565b60c081016108a182846149de565b60008060008060808587031215614cad57600080fd5b8435614cb8816148f4565b93506020850135614cc8816148f4565b92506040850135614cd8816148f4565b9396929550929360600135925050565b600080600080600060a08688031215614d0057600080fd5b8535614d0b816148f4565b94506020860135614d1b816148f4565b93506040860135614d2b816148f4565b9250606086013591506080860135614d4281614955565b809150509295509295909350565b634e487b7160e01b600052602160045260246000fd5b600060808201905082518252602083015160208301526001600160401b036040840151166040830152606083015160038110614db257634e487b7160e01b600052602160045260246000fd5b8060608401525092915050565b60008060008060808587031215614dd557600080fd5b8435614de0816148f4565b93506020850135614df0816148f4565b9250604085013591506060850135614e0781614955565b939692955090935050565b634e487b7160e01b600052604160045260246000fd5b600060208284031215614e3a57600080fd5b8151610cef816148f4565b634e487b7160e01b600052603260045260246000fd5b634e487b7160e01b600052601160045260246000fd5b600060018201614e8357614e83614e5b565b5060010190565b6020808252601f908201527f5265656e7472616e637947756172643a207265656e7472616e742063616c6c00604082015260600190565b604051601f8201601f191681016001600160401b0381118282101715614ee957614ee9614e12565b604052919050565b60006020808385031215614f0457600080fd5b82516001600160401b0380821115614f1b57600080fd5b818501915085601f830112614f2f57600080fd5b815181811115614f4157614f41614e12565b8060051b9150614f52848301614ec1565b8181529183018401918481019088841115614f6c57600080fd5b938501935b838510156145535784519250614f86836148f4565b8282529385019390850190614f71565b600060208284031215614fa857600080fd5b5051919050565b600082821015614fc157614fc1614e5b565b500390565b600060208284031215614fd857600080fd5b81516001600160e01b031981168114610cef57600080fd5b60006020828403121561500257600080fd5b815160ff81168114610cef57600080fd5b600081600019048311821515161561502d5761502d614e5b565b500290565b634e487b7160e01b600052601260045260246000fd5b60008261505757615057615032565b500490565b6000821982111561506f5761506f614e5b565b500190565b600181815b808511156150af57816000190482111561509557615095614e5b565b808516156150a257918102915b93841c9390800290615079565b509250929050565b6000826150c6575060016108a1565b816150d3575060006108a1565b81600181146150e957600281146150f35761510f565b60019150506108a1565b60ff84111561510457615104614e5b565b50506001821b6108a1565b5060208310610133831016604e8410600b8410161715615132575081810a6108a1565b61513c8383615074565b806000190482111561515057615150614e5b565b029392505050565b6000610cef60ff8416836150b7565b60006020828403121561517957600080fd5b8151610cef81614955565b60005b8381101561519f578181015183820152602001615187565b83811115612be35750506000910152565b600081518084526151c8816020860160208601615184565b601f01601f19169290920160200192915050565b6001600160a01b038616815260a060208201819052600090615200908301876149a5565b828103604084015261521281876148a6565b9050828103606084015261522681866148a6565b9050828103608084015261455381856151b0565b6000825161524c818460208701615184565b9190910192915050565b60008261526557615265615032565b500690565b60608152600061527d60608301866151b0565b828103602084015261528f81866151b0565b91505060018060a01b0383166040830152949350505050565b6000610cef83836150b7565b7f53696c6f2046696e616e636520426f72726f7761626c652000000000000000008152600082516152ec816018850160208701615184565b670811195c1bdcda5d60c21b6018939091019283015250602001919050565b607360f81b815260008251615327816001850160208701615184565b9190910160010192915050565b7f53696c6f2046696e616e63652050726f7465637465642000000000000000000081526000825161536c816017850160208701615184565b670811195c1bdcda5d60c21b6017939091019283015250601f01919050565b61073760f41b8152600082516153a8816002850160208701615184565b9190910160020192915050565b6c029b4b637902334b730b731b29609d1b8152600082516153dd81600d850160208701615184565b64081119589d60da1b600d939091019283015250601201919050565b601960fa1b815260008251615327816001850160208701615184565b60008351615427818460208801615184565b6301034b7160e51b9083019081528351615448816004840160208801615184565b642053696c6f60d81b60049290910191820152600901949350505050565b60008351615478818460208801615184565b602d60f81b9083019081528351615496816001840160208801615184565b01600101949350505050565b6000602082840312156154b457600080fd5b81516001600160401b03808211156154cb57600080fd5b818401915084601f8301126154df57600080fd5b8151818111156154f1576154f1614e12565b615504601f8201601f1916602001614ec1565b915080825285602082850101111561551b57600080fd5b61552c816020840160208601615184565b50949350505050565b60008351615547818460208801615184565b6001600160f81b0319939093169190920190815260010192915050565b602081526000610cef60208301846151b056fea2646970667358221220d18e16744c3be14b0ddaee210dd92b8a5125ef85955f3b68fbc4df16ba02522664736f6c634300080d0033a2646970667358221220824f7101ff81fb08d1aa649bff86787dd4a495dc3c1cda52c5d218d470c35f7d64736f6c634300080d0033",
  "devdoc": {
    "custom:security-contact": "security@silo.finance",
    "details": "Silo Factory is registered within SiloRepository contract and it's given a version. Each version is different Silo Factory that deploys different Silo implementation. Many Factory contracts can be registered with the Repository contract.",
    "errors": {
      "InvalidSiloRepository()": [
        {
          "details": "Revert on a false sanity check with `Ping` library"
        }
      ],
      "OnlyRepository()": [
        {
          "details": "Revert on a silo creation if a msg.sender is not a silo repository"
        }
      ]
    },
    "kind": "dev",
    "methods": {
      "constructor": {
        "params": {
          "_repository": "A silo repository address"
        }
      },
      "createSilo(address,uint128,bytes)": {
        "params": {
          "_data": "(optional) data that may be needed during silo creation",
          "_siloAsset": "unique asset for which Silo is deployed",
          "_version": "version of silo implementation"
        },
        "returns": {
          "silo": "deployed Silo address"
        }
      },
      "siloFactoryPing()": {
        "details": "just a helper method to see if address is a factory"
      }
    },
    "title": "SiloConvexFactory",
    "version": 1
  },
  "userdoc": {
    "events": {
      "NewSiloCreated(address,address,uint128)": {
        "notice": "Emitted when Silo is deployed"
      }
    },
    "kind": "user",
    "methods": {
      "createSilo(address,uint128,bytes)": {
        "notice": "Deploys Silo"
      }
    },
    "notice": "Silo Factory has one job, deploy Silo implementation",
    "version": 1
  },
  "storageLayout": {
    "storage": [
      {
        "astId": 44851,
        "contract": "contracts/siloFactories/SiloConvexFactory.sol:SiloConvexFactory",
        "label": "siloRepository",
        "offset": 0,
        "slot": "0",
        "type": "t_address"
      }
    ],
    "types": {
      "t_address": {
        "encoding": "inplace",
        "label": "address",
        "numberOfBytes": "20"
      }
    }
  }
}