{
  "address": "0x78622F62b6FbC10aB334B282BB73A0230021b16B",
  "abi": [
    {
      "inputs": [
        {
          "internalType": "address",
          "name": "_factory",
          "type": "address"
        }
      ],
      "stateMutability": "nonpayable",
      "type": "constructor"
    },
    {
      "inputs": [
        {
          "components": [
            {
              "internalType": "address",
              "name": "collateral",
              "type": "address"
            },
            {
              "internalType": "address",
              "name": "borrow",
              "type": "address"
            },
            {
              "internalType": "uint256",
              "name": "depositAmount",
              "type": "uint256"
            },
            {
              "internalType": "uint256",
              "name": "borrowAmount",
              "type": "uint256"
            }
          ],
          "internalType": "struct SiloRouter.Position[]",
          "name": "positions",
          "type": "tuple[]"
        }
      ],
      "name": "borrow",
      "outputs": [],
      "stateMutability": "payable",
      "type": "function"
    },
    {
      "inputs": [],
      "name": "bridgePool",
      "outputs": [
        {
          "internalType": "contract ISiloBridgePool",
          "name": "",
          "type": "address"
        }
      ],
      "stateMutability": "view",
      "type": "function"
    },
    {
      "inputs": [],
      "name": "factory",
      "outputs": [
        {
          "internalType": "contract ISiloFactory",
          "name": "",
          "type": "address"
        }
      ],
      "stateMutability": "view",
      "type": "function"
    },
    {
      "inputs": [],
      "name": "wrappedToken",
      "outputs": [
        {
          "internalType": "contract IWrappedToken",
          "name": "",
          "type": "address"
        }
      ],
      "stateMutability": "view",
      "type": "function"
    },
    {
      "stateMutability": "payable",
      "type": "receive"
    }
  ],
  "transactionHash": "0xd5d310de09d4cec742d9b53379f0c176837c1d7ad5af0c4c3f7690b7bb1e653b",
  "args": [
    "0x012D960E091587A6075C8233FDEba7db87142923"
  ],
  "solcInputHash": "537831d942c1ab4870aa40f6dd7512c8",
  "bytecode": "0x60e060405234801561001057600080fd5b5060405162001222380380620012228339810160408190526100319161014e565b806001600160a01b0316634d8775506040518163ffffffff1660e01b815260040160206040518083038186803b15801561006a57600080fd5b505afa15801561007e573d6000803e3d6000fd5b505050506040513d601f19601f820116820180604052508101906100a2919061014e565b6001600160a01b03166080816001600160a01b031660601b81525050806001600160a01b0316635e46bea56040518163ffffffff1660e01b815260040160206040518083038186803b1580156100f757600080fd5b505afa15801561010b573d6000803e3d6000fd5b505050506040513d601f19601f8201168201806040525081019061012f919061014e565b6001600160601b0319606091821b811660a05291901b1660c05261017e565b60006020828403121561016057600080fd5b81516001600160a01b038116811461017757600080fd5b9392505050565b60805160601c60a05160601c60c05160601c611028620001fa6000396000818160fa015281816102e201526104c1015260008181606101528181610376015281816103cd01526105f801526000818160c60152818161027f015281816106ad015281816107420152818161092a015261097801526110286000f3fe6080604052600436106100435760003560e01c80635e46bea51461004f57806376947ef61461009f578063996c6cc3146100b4578063c45a0155146100e857600080fd5b3661004a57005b600080fd5b34801561005b57600080fd5b506100837f000000000000000000000000000000000000000000000000000000000000000081565b6040516001600160a01b03909116815260200160405180910390f35b6100b26100ad366004610d5f565b61011c565b005b3480156100c057600080fd5b506100837f000000000000000000000000000000000000000000000000000000000000000081565b3480156100f457600080fd5b506100837f000000000000000000000000000000000000000000000000000000000000000081565b6101628160008151811061013257610132610fae565b6020026020010151600001518260008151811061015157610151610fae565b6020026020010151604001516106ab565b805160028111156101cf5760405162461bcd60e51b815260206004820152602c60248201527f53696c6f526f757465723a20737570706f727473206f6e6c79203220706f736960448201526b746f6e73206174206f6e636560a01b60648201526084015b60405180910390fd5b60005b8181101561066b5760008382815181106101ee576101ee610fae565b6020026020010151905080602001516001600160a01b031681600001516001600160a01b0316141561027d5760405162461bcd60e51b815260206004820152603260248201527f53696c6f526f757465723a2063616e6e6f742064657069736974202620626f726044820152711c9bddc81d1a19481cd85b5948185cdcd95d60721b60648201526084016101c6565b7f00000000000000000000000000000000000000000000000000000000000000006001600160a01b031681600001516001600160a01b0316141561049d5760208101516040516337f9a6bd60e01b81526001600160a01b0391821660048201526000917f000000000000000000000000000000000000000000000000000000000000000016906337f9a6bd9060240160206040518083038186803b15801561032457600080fd5b505afa158015610338573d6000803e3d6000fd5b505050506040513d601f19601f8201168201806040525081019061035c9190610d42565b6040830151835191925061039b916001600160a01b0316907f0000000000000000000000000000000000000000000000000000000000000000906107d1565b604082810151905163b3db428b60e01b81526001600160a01b03838116600483015233602483015260448201929092527f00000000000000000000000000000000000000000000000000000000000000009091169063b3db428b90606401600060405180830381600087803b15801561041357600080fd5b505af1158015610427573d6000803e3d6000fd5b505050506060820151604051633088044160e01b815233600482015230602482015260448101919091526001600160a01b03821690633088044190606401600060405180830381600087803b15801561047f57600080fd5b505af1158015610493573d6000803e3d6000fd5b5050505050610658565b80516040516337f9a6bd60e01b81526001600160a01b0391821660048201526000917f000000000000000000000000000000000000000000000000000000000000000016906337f9a6bd9060240160206040518083038186803b15801561050357600080fd5b505afa158015610517573d6000803e3d6000fd5b505050506040513d601f19601f8201168201806040525081019061053b9190610d42565b6040830151835191925061055a916001600160a01b03169083906107d1565b60408281015190516317a790f160e11b815233600482015260248101919091526001600160a01b03821690632f4f21e290604401600060405180830381600087803b1580156105a857600080fd5b505af11580156105bc573d6000803e3d6000fd5b50505050606082015160405163dbc5b48160e01b81526001600160a01b03838116600483015233602483015230604483015260648201929092527f00000000000000000000000000000000000000000000000000000000000000009091169063dbc5b48190608401600060405180830381600087803b15801561063e57600080fd5b505af1158015610652573d6000803e3d6000fd5b50505050505b508061066381610f7d565b9150506101d2565b5060008261067a600184610f3a565b8151811061068a5761068a610fae565b602002602001015190506106a681602001518260600151610928565b505050565b7f00000000000000000000000000000000000000000000000000000000000000006001600160a01b0316826001600160a01b03161480156106ec5750600034115b156107b8578034146107405760405162461bcd60e51b815260206004820152601f60248201527f53696c6f526f757465723a20696e636f7272656374204554482076616c75650060448201526064016101c6565b7f00000000000000000000000000000000000000000000000000000000000000006001600160a01b031663d0e30db0346040518263ffffffff1660e01b81526004016000604051808303818588803b15801561079b57600080fd5b505af11580156107af573d6000803e3d6000fd5b50505050505050565b6107cd6001600160a01b038316333084610a88565b5050565b80158061085a5750604051636eb1769f60e11b81523060048201526001600160a01b03838116602483015284169063dd62ed3e9060440160206040518083038186803b15801561082057600080fd5b505afa158015610834573d6000803e3d6000fd5b505050506040513d601f19601f820116820180604052508101906108589190610e78565b155b6108c55760405162461bcd60e51b815260206004820152603660248201527f5361666545524332303a20617070726f76652066726f6d206e6f6e2d7a65726f60448201527520746f206e6f6e2d7a65726f20616c6c6f77616e636560501b60648201526084016101c6565b6040516001600160a01b0383166024820152604481018290526106a690849063095ea7b360e01b906064015b60408051601f198184030181529190526020810180516001600160e01b03166001600160e01b031990931692909217909152610ac6565b7f00000000000000000000000000000000000000000000000000000000000000006001600160a01b0316826001600160a01b03161415610a7457604051632e1a7d4d60e01b8152600481018290527f00000000000000000000000000000000000000000000000000000000000000006001600160a01b031690632e1a7d4d90602401600060405180830381600087803b1580156109c457600080fd5b505af11580156109d8573d6000803e3d6000fd5b50506040516000925033915083908381818185875af1925050503d8060008114610a1e576040519150601f19603f3d011682016040523d82523d6000602084013e610a23565b606091505b50509050806106a65760405162461bcd60e51b815260206004820181905260248201527f53696c6f526f757465723a20455448205472616e73666572206661696c65642e60448201526064016101c6565b6107cd6001600160a01b0383163383610b98565b6040516001600160a01b0380851660248301528316604482015260648101829052610ac09085906323b872dd60e01b906084016108f1565b50505050565b6000610b1b826040518060400160405280602081526020017f5361666545524332303a206c6f772d6c6576656c2063616c6c206661696c6564815250856001600160a01b0316610bc89092919063ffffffff16565b8051909150156106a65780806020019051810190610b399190610e56565b6106a65760405162461bcd60e51b815260206004820152602a60248201527f5361666545524332303a204552433230206f7065726174696f6e20646964206e6044820152691bdd081cdd58d8d9595960b21b60648201526084016101c6565b6040516001600160a01b0383166024820152604481018290526106a690849063a9059cbb60e01b906064016108f1565b6060610bd78484600085610be1565b90505b9392505050565b606082471015610c425760405162461bcd60e51b815260206004820152602660248201527f416464726573733a20696e73756666696369656e742062616c616e636520666f6044820152651c8818d85b1b60d21b60648201526084016101c6565b843b610c905760405162461bcd60e51b815260206004820152601d60248201527f416464726573733a2063616c6c20746f206e6f6e2d636f6e747261637400000060448201526064016101c6565b600080866001600160a01b03168587604051610cac9190610e91565b60006040518083038185875af1925050503d8060008114610ce9576040519150601f19603f3d011682016040523d82523d6000602084013e610cee565b606091505b5091509150610cfe828286610d09565b979650505050505050565b60608315610d18575081610bda565b825115610d285782518084602001fd5b8160405162461bcd60e51b81526004016101c69190610ead565b600060208284031215610d5457600080fd5b8151610bda81610fda565b60006020808385031215610d7257600080fd5b823567ffffffffffffffff80821115610d8a57600080fd5b818501915085601f830112610d9e57600080fd5b813581811115610db057610db0610fc4565b610dbe848260051b01610f09565b8181528481019250838501600783901b85018601891015610dde57600080fd5b60009450845b83811015610e4857608080838c031215610dfc578687fd5b610e04610ee0565b8335610e0f81610fda565b815283890135610e1e81610fda565b818a0152604084810135908201526060808501359082015286529487019490910190600101610de4565b509098975050505050505050565b600060208284031215610e6857600080fd5b81518015158114610bda57600080fd5b600060208284031215610e8a57600080fd5b5051919050565b60008251610ea3818460208701610f51565b9190910192915050565b6020815260008251806020840152610ecc816040850160208701610f51565b601f01601f19169190910160400192915050565b6040516080810167ffffffffffffffff81118282101715610f0357610f03610fc4565b60405290565b604051601f8201601f1916810167ffffffffffffffff81118282101715610f3257610f32610fc4565b604052919050565b600082821015610f4c57610f4c610f98565b500390565b60005b83811015610f6c578181015183820152602001610f54565b83811115610ac05750506000910152565b6000600019821415610f9157610f91610f98565b5060010190565b634e487b7160e01b600052601160045260246000fd5b634e487b7160e01b600052603260045260246000fd5b634e487b7160e01b600052604160045260246000fd5b6001600160a01b0381168114610fef57600080fd5b5056fea2646970667358221220273ba554950303fd953b6d6e6c38034d8a5425e5b177363fe153d94c67a51cef64736f6c63430008070033",
  "devdoc": {
    "kind": "dev",
    "methods": {},
    "version": 1
  },
  "userdoc": {
    "kind": "user",
    "methods": {},
    "version": 1
  },
  "storageLayout": {
    "storage": [],
    "types": null
  }
}