{
  "address": "0x012D960E091587A6075C8233FDEba7db87142923",
  "abi": [
    {
      "inputs": [
        {
          "internalType": "uint256",
          "name": "_defaultMaxLTV",
          "type": "uint256"
        },
        {
          "internalType": "uint256",
          "name": "_defaultLiquidationThreshold",
          "type": "uint256"
        },
        {
          "internalType": "address",
          "name": "_bridgeAsset",
          "type": "address"
        }
      ],
      "stateMutability": "nonpayable",
      "type": "constructor"
    },
    {
      "anonymous": false,
      "inputs": [
        {
          "indexed": false,
          "internalType": "address",
          "name": "oldPool",
          "type": "address"
        },
        {
          "indexed": false,
          "internalType": "address",
          "name": "newPool",
          "type": "address"
        }
      ],
      "name": "BridgePoolUpdate",
      "type": "event"
    },
    {
      "anonymous": false,
      "inputs": [
        {
          "indexed": false,
          "internalType": "uint256",
          "name": "oldEntryFee",
          "type": "uint256"
        },
        {
          "indexed": false,
          "internalType": "uint256",
          "name": "newEntryFee",
          "type": "uint256"
        },
        {
          "indexed": false,
          "internalType": "uint256",
          "name": "oldProtocolShareFee",
          "type": "uint256"
        },
        {
          "indexed": false,
          "internalType": "uint256",
          "name": "newProtocolShareFee",
          "type": "uint256"
        },
        {
          "indexed": false,
          "internalType": "uint256",
          "name": "oldProtocolLiquidationFee",
          "type": "uint256"
        },
        {
          "indexed": false,
          "internalType": "uint256",
          "name": "newProtocolLiquidationFee",
          "type": "uint256"
        }
      ],
      "name": "FeeUpdate",
      "type": "event"
    },
    {
      "anonymous": false,
      "inputs": [
        {
          "indexed": false,
          "internalType": "bool",
          "name": "newGuardedLaunchState",
          "type": "bool"
        }
      ],
      "name": "GuardedLaunchToggled",
      "type": "event"
    },
    {
      "anonymous": false,
      "inputs": [
        {
          "indexed": false,
          "internalType": "address",
          "name": "oldModel",
          "type": "address"
        },
        {
          "indexed": false,
          "internalType": "address",
          "name": "newModel",
          "type": "address"
        }
      ],
      "name": "InterestRateModel",
      "type": "event"
    },
    {
      "anonymous": false,
      "inputs": [
        {
          "indexed": false,
          "internalType": "bool",
          "name": "newLimitedMaxLiquidityState",
          "type": "bool"
        }
      ],
      "name": "LimitedMaxLiquidityToggled",
      "type": "event"
    },
    {
      "anonymous": false,
      "inputs": [
        {
          "indexed": true,
          "internalType": "address",
          "name": "silo",
          "type": "address"
        },
        {
          "indexed": true,
          "internalType": "address",
          "name": "asset",
          "type": "address"
        },
        {
          "indexed": false,
          "internalType": "string",
          "name": "name",
          "type": "string"
        },
        {
          "indexed": false,
          "internalType": "string",
          "name": "symbol",
          "type": "string"
        }
      ],
      "name": "NewSilo",
      "type": "event"
    },
    {
      "anonymous": false,
      "inputs": [
        {
          "indexed": false,
          "internalType": "address",
          "name": "oldOracle",
          "type": "address"
        },
        {
          "indexed": false,
          "internalType": "address",
          "name": "newOracle",
          "type": "address"
        }
      ],
      "name": "OracleUpdate",
      "type": "event"
    },
    {
      "anonymous": false,
      "inputs": [
        {
          "indexed": true,
          "internalType": "address",
          "name": "previousOwner",
          "type": "address"
        },
        {
          "indexed": true,
          "internalType": "address",
          "name": "newOwner",
          "type": "address"
        }
      ],
      "name": "OwnershipPending",
      "type": "event"
    },
    {
      "anonymous": false,
      "inputs": [
        {
          "indexed": true,
          "internalType": "address",
          "name": "previousOwner",
          "type": "address"
        },
        {
          "indexed": true,
          "internalType": "address",
          "name": "newOwner",
          "type": "address"
        }
      ],
      "name": "OwnershipTransferred",
      "type": "event"
    },
    {
      "anonymous": false,
      "inputs": [
        {
          "indexed": false,
          "internalType": "bool",
          "name": "newPermissionedSiloCreationState",
          "type": "bool"
        }
      ],
      "name": "PermissionedSiloCreationToggled",
      "type": "event"
    },
    {
      "anonymous": false,
      "inputs": [
        {
          "indexed": false,
          "internalType": "address",
          "name": "oldRouter",
          "type": "address"
        },
        {
          "indexed": false,
          "internalType": "address",
          "name": "newRouter",
          "type": "address"
        }
      ],
      "name": "RouterUpdate",
      "type": "event"
    },
    {
      "anonymous": false,
      "inputs": [
        {
          "indexed": true,
          "internalType": "address",
          "name": "silo",
          "type": "address"
        },
        {
          "indexed": false,
          "internalType": "uint256",
          "name": "newMaxDeposits",
          "type": "uint256"
        },
        {
          "indexed": false,
          "internalType": "uint256",
          "name": "newMaxBridgeDeposits",
          "type": "uint256"
        }
      ],
      "name": "SiloLimitConfigUpdate",
      "type": "event"
    },
    {
      "inputs": [],
      "name": "BASIS_POINTS",
      "outputs": [
        {
          "internalType": "uint256",
          "name": "",
          "type": "uint256"
        }
      ],
      "stateMutability": "view",
      "type": "function"
    },
    {
      "inputs": [],
      "name": "INFINITY",
      "outputs": [
        {
          "internalType": "uint256",
          "name": "",
          "type": "uint256"
        }
      ],
      "stateMutability": "view",
      "type": "function"
    },
    {
      "inputs": [],
      "name": "acceptOwnership",
      "outputs": [],
      "stateMutability": "nonpayable",
      "type": "function"
    },
    {
      "inputs": [],
      "name": "bridgeAsset",
      "outputs": [
        {
          "internalType": "address",
          "name": "",
          "type": "address"
        }
      ],
      "stateMutability": "view",
      "type": "function"
    },
    {
      "inputs": [],
      "name": "bridgePool",
      "outputs": [
        {
          "internalType": "address",
          "name": "",
          "type": "address"
        }
      ],
      "stateMutability": "view",
      "type": "function"
    },
    {
      "inputs": [],
      "name": "defaultSiloConfig",
      "outputs": [
        {
          "internalType": "uint256",
          "name": "maxLoanToValue",
          "type": "uint256"
        },
        {
          "internalType": "uint256",
          "name": "liquidationThreshold",
          "type": "uint256"
        },
        {
          "internalType": "address",
          "name": "virtualBalances",
          "type": "address"
        }
      ],
      "stateMutability": "view",
      "type": "function"
    },
    {
      "inputs": [],
      "name": "defaultSiloLimitConfig",
      "outputs": [
        {
          "internalType": "uint256",
          "name": "maxDeposits",
          "type": "uint256"
        },
        {
          "internalType": "uint256",
          "name": "maxBridgeDeposits",
          "type": "uint256"
        }
      ],
      "stateMutability": "view",
      "type": "function"
    },
    {
      "inputs": [],
      "name": "entryFee",
      "outputs": [
        {
          "internalType": "uint256",
          "name": "",
          "type": "uint256"
        }
      ],
      "stateMutability": "view",
      "type": "function"
    },
    {
      "inputs": [
        {
          "internalType": "address",
          "name": "_silo",
          "type": "address"
        }
      ],
      "name": "getLiquidationThreshold",
      "outputs": [
        {
          "internalType": "uint256",
          "name": "",
          "type": "uint256"
        }
      ],
      "stateMutability": "view",
      "type": "function"
    },
    {
      "inputs": [
        {
          "internalType": "address",
          "name": "_silo",
          "type": "address"
        }
      ],
      "name": "getMaxSiloBridgeDeposits",
      "outputs": [
        {
          "internalType": "uint256",
          "name": "",
          "type": "uint256"
        }
      ],
      "stateMutability": "view",
      "type": "function"
    },
    {
      "inputs": [
        {
          "internalType": "address",
          "name": "_silo",
          "type": "address"
        }
      ],
      "name": "getMaxSiloDeposits",
      "outputs": [
        {
          "internalType": "uint256",
          "name": "",
          "type": "uint256"
        }
      ],
      "stateMutability": "view",
      "type": "function"
    },
    {
      "inputs": [
        {
          "internalType": "address",
          "name": "_silo",
          "type": "address"
        }
      ],
      "name": "getMaximumLTV",
      "outputs": [
        {
          "internalType": "uint256",
          "name": "",
          "type": "uint256"
        }
      ],
      "stateMutability": "view",
      "type": "function"
    },
    {
      "inputs": [
        {
          "internalType": "address",
          "name": "_silo",
          "type": "address"
        }
      ],
      "name": "getVirtualBalances",
      "outputs": [
        {
          "internalType": "address",
          "name": "",
          "type": "address"
        }
      ],
      "stateMutability": "view",
      "type": "function"
    },
    {
      "inputs": [],
      "name": "guardedLaunch",
      "outputs": [
        {
          "internalType": "bool",
          "name": "",
          "type": "bool"
        }
      ],
      "stateMutability": "view",
      "type": "function"
    },
    {
      "inputs": [
        {
          "internalType": "address",
          "name": "_silo",
          "type": "address"
        }
      ],
      "name": "isSilo",
      "outputs": [
        {
          "internalType": "bool",
          "name": "",
          "type": "bool"
        }
      ],
      "stateMutability": "view",
      "type": "function"
    },
    {
      "inputs": [],
      "name": "limitedMaxLiquidity",
      "outputs": [
        {
          "internalType": "bool",
          "name": "",
          "type": "bool"
        }
      ],
      "stateMutability": "view",
      "type": "function"
    },
    {
      "inputs": [
        {
          "internalType": "address",
          "name": "_asset",
          "type": "address"
        },
        {
          "internalType": "address",
          "name": "_oracle",
          "type": "address"
        },
        {
          "internalType": "bytes",
          "name": "_oracleData",
          "type": "bytes"
        }
      ],
      "name": "newSilo",
      "outputs": [],
      "stateMutability": "nonpayable",
      "type": "function"
    },
    {
      "inputs": [],
      "name": "oracle",
      "outputs": [
        {
          "internalType": "address",
          "name": "",
          "type": "address"
        }
      ],
      "stateMutability": "view",
      "type": "function"
    },
    {
      "inputs": [],
      "name": "owner",
      "outputs": [
        {
          "internalType": "address",
          "name": "",
          "type": "address"
        }
      ],
      "stateMutability": "view",
      "type": "function"
    },
    {
      "inputs": [],
      "name": "pendingOwner",
      "outputs": [
        {
          "internalType": "address",
          "name": "",
          "type": "address"
        }
      ],
      "stateMutability": "view",
      "type": "function"
    },
    {
      "inputs": [],
      "name": "permissionedSiloCreation",
      "outputs": [
        {
          "internalType": "bool",
          "name": "",
          "type": "bool"
        }
      ],
      "stateMutability": "view",
      "type": "function"
    },
    {
      "inputs": [],
      "name": "protocolLiquidationFee",
      "outputs": [
        {
          "internalType": "uint256",
          "name": "",
          "type": "uint256"
        }
      ],
      "stateMutability": "view",
      "type": "function"
    },
    {
      "inputs": [],
      "name": "protocolShareFee",
      "outputs": [
        {
          "internalType": "uint256",
          "name": "",
          "type": "uint256"
        }
      ],
      "stateMutability": "view",
      "type": "function"
    },
    {
      "inputs": [],
      "name": "renounceOwnership",
      "outputs": [],
      "stateMutability": "nonpayable",
      "type": "function"
    },
    {
      "inputs": [],
      "name": "router",
      "outputs": [
        {
          "internalType": "address",
          "name": "",
          "type": "address"
        }
      ],
      "stateMutability": "view",
      "type": "function"
    },
    {
      "inputs": [
        {
          "internalType": "address",
          "name": "_bridgePool",
          "type": "address"
        }
      ],
      "name": "setBridgePool",
      "outputs": [],
      "stateMutability": "nonpayable",
      "type": "function"
    },
    {
      "inputs": [
        {
          "internalType": "uint256",
          "name": "_defaultLiquidationThreshold",
          "type": "uint256"
        }
      ],
      "name": "setDefaultLiquidationThreshold",
      "outputs": [],
      "stateMutability": "nonpayable",
      "type": "function"
    },
    {
      "inputs": [
        {
          "internalType": "uint256",
          "name": "_defaultMaxLTV",
          "type": "uint256"
        }
      ],
      "name": "setDefaultMaximumLTV",
      "outputs": [],
      "stateMutability": "nonpayable",
      "type": "function"
    },
    {
      "inputs": [
        {
          "internalType": "address",
          "name": "_defaultInterestRateModel",
          "type": "address"
        }
      ],
      "name": "setDefaultVirtualBalances",
      "outputs": [],
      "stateMutability": "nonpayable",
      "type": "function"
    },
    {
      "inputs": [
        {
          "internalType": "uint256",
          "name": "_entryFee",
          "type": "uint256"
        },
        {
          "internalType": "uint256",
          "name": "_protocolShareFee",
          "type": "uint256"
        },
        {
          "internalType": "uint256",
          "name": "_protocolLiquidationFee",
          "type": "uint256"
        }
      ],
      "name": "setFees",
      "outputs": [],
      "stateMutability": "nonpayable",
      "type": "function"
    },
    {
      "inputs": [
        {
          "internalType": "address",
          "name": "_oracle",
          "type": "address"
        }
      ],
      "name": "setOracle",
      "outputs": [],
      "stateMutability": "nonpayable",
      "type": "function"
    },
    {
      "inputs": [
        {
          "internalType": "address",
          "name": "_router",
          "type": "address"
        }
      ],
      "name": "setRouter",
      "outputs": [],
      "stateMutability": "nonpayable",
      "type": "function"
    },
    {
      "inputs": [
        {
          "internalType": "address",
          "name": "_silo",
          "type": "address"
        },
        {
          "internalType": "uint256",
          "name": "_maxLoanToValue",
          "type": "uint256"
        },
        {
          "internalType": "uint256",
          "name": "_liquidationThreshold",
          "type": "uint256"
        },
        {
          "internalType": "address",
          "name": "_interestRateModel",
          "type": "address"
        }
      ],
      "name": "setSiloConfig",
      "outputs": [],
      "stateMutability": "nonpayable",
      "type": "function"
    },
    {
      "inputs": [
        {
          "internalType": "address",
          "name": "_silo",
          "type": "address"
        },
        {
          "internalType": "uint256",
          "name": "_maxDeposits",
          "type": "uint256"
        },
        {
          "internalType": "uint256",
          "name": "_maxBridgeDeposits",
          "type": "uint256"
        }
      ],
      "name": "setSiloLimitConfig",
      "outputs": [],
      "stateMutability": "nonpayable",
      "type": "function"
    },
    {
      "inputs": [
        {
          "internalType": "address",
          "name": "",
          "type": "address"
        }
      ],
      "name": "silo",
      "outputs": [
        {
          "internalType": "address",
          "name": "",
          "type": "address"
        }
      ],
      "stateMutability": "view",
      "type": "function"
    },
    {
      "inputs": [
        {
          "internalType": "address",
          "name": "",
          "type": "address"
        }
      ],
      "name": "siloConfigs",
      "outputs": [
        {
          "internalType": "uint256",
          "name": "maxLoanToValue",
          "type": "uint256"
        },
        {
          "internalType": "uint256",
          "name": "liquidationThreshold",
          "type": "uint256"
        },
        {
          "internalType": "address",
          "name": "virtualBalances",
          "type": "address"
        }
      ],
      "stateMutability": "view",
      "type": "function"
    },
    {
      "inputs": [],
      "name": "siloImplementation",
      "outputs": [
        {
          "internalType": "address",
          "name": "",
          "type": "address"
        }
      ],
      "stateMutability": "view",
      "type": "function"
    },
    {
      "inputs": [
        {
          "internalType": "address",
          "name": "",
          "type": "address"
        }
      ],
      "name": "siloLimitConfigs",
      "outputs": [
        {
          "internalType": "uint256",
          "name": "maxDeposits",
          "type": "uint256"
        },
        {
          "internalType": "uint256",
          "name": "maxBridgeDeposits",
          "type": "uint256"
        }
      ],
      "stateMutability": "view",
      "type": "function"
    },
    {
      "inputs": [
        {
          "internalType": "address",
          "name": "",
          "type": "address"
        }
      ],
      "name": "siloReverse",
      "outputs": [
        {
          "internalType": "address",
          "name": "",
          "type": "address"
        }
      ],
      "stateMutability": "view",
      "type": "function"
    },
    {
      "inputs": [],
      "name": "toggleGuardedLaunch",
      "outputs": [],
      "stateMutability": "nonpayable",
      "type": "function"
    },
    {
      "inputs": [],
      "name": "toggleLimitedMaxLiquidity",
      "outputs": [],
      "stateMutability": "nonpayable",
      "type": "function"
    },
    {
      "inputs": [],
      "name": "togglePermissionedSiloCreation",
      "outputs": [],
      "stateMutability": "nonpayable",
      "type": "function"
    },
    {
      "inputs": [
        {
          "internalType": "address",
          "name": "newOwner",
          "type": "address"
        }
      ],
      "name": "transferOwnership",
      "outputs": [],
      "stateMutability": "nonpayable",
      "type": "function"
    },
    {
      "inputs": [
        {
          "internalType": "address",
          "name": "newPendingOwner",
          "type": "address"
        }
      ],
      "name": "transferPendingOwnership",
      "outputs": [],
      "stateMutability": "nonpayable",
      "type": "function"
    }
  ],
  "transactionHash": "0x9c47e2a644eb3e58c33a034ca125ac85d5c204b9f0615e06387be496a84f67d1",
  "args": [
    "5000",
    "6250",
    "0xC02aaA39b223FE8D0A0e5C4F27eAD9083C756Cc2"
  ],
  "solcInputHash": "537831d942c1ab4870aa40f6dd7512c8",
  "bytecode": "0x60a06040523480156200001157600080fd5b506040516200593f3803806200593f8339810160408190526200003491620003c8565b6034805462ffffff60a01b19166201010160a01b1790556802b5e3af16b18800006035819055603655620000676200016e565b60388390556039829055603b80546001600160a01b0319166001600160a01b0383161790556040516000906200009d90620003ba565b604051809103906000f080158015620000ba573d6000803e3d6000fd5b50604051639065714760e01b81526001600160a01b0384811660048084019190915260606024840152606483018190526353696c6f60e01b608484015260a0604484015260a48301526373696c6f60e01b60c48301529192509082169063906571479060e401600060405180830381600087803b1580156200013b57600080fd5b505af115801562000150573d6000803e3d6000fd5b5050505060601b6001600160601b0319166080525062000410915050565b600054610100900460ff168062000188575060005460ff16155b620001e05760405162461bcd60e51b815260206004820152602e60248201526000805160206200591f83398151915260448201526d191e481a5b9a5d1a585b1a5e995960921b60648201526084015b60405180910390fd5b600054610100900460ff1615801562000203576000805461ffff19166101011790555b6200020d6200022d565b62000217620002d2565b80156200022a576000805461ff00191690555b50565b600054610100900460ff168062000247575060005460ff16155b6200029b5760405162461bcd60e51b815260206004820152602e60248201526000805160206200591f83398151915260448201526d191e481a5b9a5d1a585b1a5e995960921b6064820152608401620001d7565b600054610100900460ff1615801562000217576000805461ffff191661010117905580156200022a576000805461ff001916905550565b600054610100900460ff1680620002ec575060005460ff16155b620003405760405162461bcd60e51b815260206004820152602e60248201526000805160206200591f83398151915260448201526d191e481a5b9a5d1a585b1a5e995960921b6064820152608401620001d7565b600054610100900460ff1615801562000363576000805461ffff19166101011790555b6200021733603380546001600160a01b038381166001600160a01b0319831681179093556040519116919082907f8be0079c531659141344cd1fd0a4f28419497f9722a3daafe3b4186f6b6457e090600090a35050565b6139e98062001f3683390190565b600080600060608486031215620003de57600080fd5b83516020850151604086015191945092506001600160a01b03811681146200040557600080fd5b809150509250925092565b60805160601c611b00620004366000396000818161058b01526109b70152611b006000f3fe608060405234801561001057600080fd5b50600436106102745760003560e01c8063791183d111610151578063b8fb7399116100c3578063e1f1c4a711610087578063e1f1c4a714610603578063e30c39781461060c578063eafecffa1461061d578063f2fde38b14610626578063f887ea4014610639578063fbb8d6021461064c57600080fd5b8063b8fb7399146105ad578063c0d78655146105c1578063c9993b0d146105d4578063cec10c11146105e8578063d6d6e3f8146105fb57600080fd5b806384d247341161011557806384d2473414610521578063857b59131461053c5780638da5cb5b1461054f57806394803a3a14610560578063b67ae54f14610573578063b8b21a9f1461058657600080fd5b8063791183d1146104b757806379ba5097146104e05780637adbf973146104e85780637b86e42c146104fb5780637dc0d1d01461050e57600080fd5b80635c8610b9116101ea5780635f48f44b116101ae5780635f48f44b1461046a5780636465dfa61461047357806364f7a8d3146104865780637128ea2d1461048e578063715018a61461049c578063744d108f146104a457600080fd5b80635c8610b9146103c25780635d320767146103d55780635e46bea5146103e85780635e683bbe146103fb5780635e7149d51461040e57600080fd5b806325ed3d441161023c57806325ed3d441461032c5780632691c69a146103355780633278c6941461034857806337f9a6bd1461035b578063450f8d281461039c5780634d877550146103af57600080fd5b8063072ea61c1461027957806312f0dcd8146102955780631e11d937146102d35780631f781a80146102dd57806325458e0b14610319575b600080fd5b610282603c5481565b6040519081526020015b60405180910390f35b6102c36102a336600461171f565b6001600160a01b0390811660009081526043602052604090205416151590565b604051901515815260200161028c565b6102db610660565b005b6103046102eb36600461171f565b6037602052600090815260409020805460019091015482565b6040805192835260208301919091520161028c565b6102db610327366004611741565b6106f9565b610282603d5481565b6102db610343366004611802565b610b97565b6102db61035636600461171f565b610c1c565b61038461036936600461171f565b6042602052600090815260409020546001600160a01b031681565b6040516001600160a01b03909116815260200161028c565b6102db6103aa36600461171f565b610cb9565b603b54610384906001600160a01b031681565b6102826103d036600461171f565b610db6565b6102db6103e33660046118f5565b610e1b565b603f54610384906001600160a01b031681565b61028261040936600461171f565b610e4a565b61044661041c36600461171f565b6044602052600090815260409020805460018201546002909201549091906001600160a01b031683565b6040805193845260208401929092526001600160a01b03169082015260600161028c565b61028260001981565b6102db6104813660046118f5565b610e79565b6102db610ea8565b603554603654610304919082565b6102db610f2d565b6102db6104b23660046117cf565b610f63565b6103846104c536600461171f565b6043602052600090815260409020546001600160a01b031681565b6102db611003565b6102db6104f636600461171f565b611099565b61028261050936600461171f565b611191565b604054610384906001600160a01b031681565b603854603954603a546104469291906001600160a01b031683565b61028261054a36600461171f565b6111c3565b6033546001600160a01b0316610384565b6102db61056e36600461171f565b61121c565b61038461058136600461171f565b61132b565b6103847f000000000000000000000000000000000000000000000000000000000000000081565b6034546102c390600160a81b900460ff1681565b6102db6105cf36600461171f565b61136a565b6034546102c390600160b01b900460ff1681565b6102db6105f636600461190e565b611463565b6102db6114f8565b61028261271081565b6034546001600160a01b0316610384565b610282603e5481565b6102db61063436600461171f565b61157e565b604154610384906001600160a01b031681565b6034546102c390600160a01b900460ff1681565b6033546001600160a01b031633146106935760405162461bcd60e51b815260040161068a90611a4f565b60405180910390fd5b6034805460ff600160a81b808304821615810260ff60a81b1990931692909217928390556040517f0a5b76e624ee06d344a0b42e72adaefbec1739a56a72313432656fce44671248936106ef9390049091161515815260200190565b60405180910390a1565b6033546001600160a01b03163314806107315750603454600160a01b900460ff16801561072f5750603454600160a81b900460ff165b155b61077d5760405162461bcd60e51b815260206004820152601c60248201527f53696c6f3a206f6e6c79206f776e65722063616e20706572666f726d00000000604482015260640161068a565b603b546001600160a01b03858116911614156107db5760405162461bcd60e51b815260206004820152601960248201527f53696c6f466163746f72793a2062726964676520617373657400000000000000604482015260640161068a565b6001600160a01b0384811660009081526042602052604090205416156108435760405162461bcd60e51b815260206004820152601860248201527f53696c6f466163746f72793a2073696c6f206578697374730000000000000000604482015260640161068a565b600060405180604001604052806005815260200164029b4b637960dd1b815250856001600160a01b03166306fdde036040518163ffffffff1660e01b815260040160006040518083038186803b15801561089c57600080fd5b505afa1580156108b0573d6000803e3d6000fd5b505050506040513d6000823e601f3d908101601f191682016040526108d89190810190611848565b6040516020016108e9929190611966565b604051602081830303815290604052905060006040518060400160405280600481526020016373696c6f60e01b815250866001600160a01b03166395d89b416040518163ffffffff1660e01b815260040160006040518083038186803b15801561095257600080fd5b505afa158015610966573d6000803e3d6000fd5b505050506040513d6000823e601f3d908101601f1916820160405261098e9190810190611848565b60405160200161099f929190611966565b604051602081830303815290604052905060006109db7f0000000000000000000000000000000000000000000000000000000000000000611619565b604051639065714760e01b81529091506001600160a01b03821690639065714790610a0e908a90879087906004016119e1565b600060405180830381600087803b158015610a2857600080fd5b505af1158015610a3c573d6000803e3d6000fd5b5050506001600160a01b03808916600081815260426020908152604080832080549588166001600160a01b0319968716811790915580845260439092529182902080549094168317909355519092507f8d69f1b2a9d562b521219e6bfdfc472a6d567c648f96fa78fd6218ab9c27184c90610aba9087908790611a21565b60405180910390a3603f54604051620ebe3560e41b81526001600160a01b039091169062ebe35090610af4908490879087906004016119e1565b600060405180830381600087803b158015610b0e57600080fd5b505af1158015610b22573d6000803e3d6000fd5b505060408054905163332f3c2160e01b81526001600160a01b03909116925063332f3c219150610b5c908a908a908a908a90600401611995565b600060405180830381600087803b158015610b7657600080fd5b505af1158015610b8a573d6000803e3d6000fd5b5050505050505050505050565b6033546001600160a01b03163314610bc15760405162461bcd60e51b815260040161068a90611a4f565b6040805160608101825293845260208085019384526001600160a01b03928316858301908152958316600090815260449091522092518355905160018301559151600290910180546001600160a01b03191691909216179055565b6033546001600160a01b03163314610c465760405162461bcd60e51b815260040161068a90611a4f565b806001600160a01b0316610c626033546001600160a01b031690565b6001600160a01b03167f3c672e6c16e239c29e969deaf4eae15d7002350bf5490175e7481155af04c83a60405160405180910390a3603480546001600160a01b0319166001600160a01b0392909216919091179055565b6033546001600160a01b03163314610ce35760405162461bcd60e51b815260040161068a90611a4f565b6001600160a01b038116610d4d5760405162461bcd60e51b815260206004820152602b60248201527f53696c6f466163746f72793a206e657720627269646765506f6f6c206973207a60448201526a65726f206164647265737360a81b606482015260840161068a565b603f54604080516001600160a01b03928316815291831660208301527fc8cbf611d53cdc41bcf01185d8634e8176b4d2fd0615f093c1107a888af0eb03910160405180910390a1603f80546001600160a01b0319166001600160a01b0392909216919091179055565b603454600090600160a01b900460ff168015610ddb5750603454600160b01b900460ff165b15610e12576001600160a01b0382166000908152603760205260409020600101548015610e085792915050565b5050603654919050565b50600019919050565b6033546001600160a01b03163314610e455760405162461bcd60e51b815260040161068a90611a4f565b603955565b6001600160a01b0381166000908152604460205260408120548015610e6f5792915050565b5050603854919050565b6033546001600160a01b03163314610ea35760405162461bcd60e51b815260040161068a90611a4f565b603855565b6033546001600160a01b03163314610ed25760405162461bcd60e51b815260040161068a90611a4f565b6034805460ff600160b01b808304821615810260ff60b01b1990931692909217928390556040517eace7bfa8dc4895fea42b63dd0304a5b26ee0982b8d764257b6b106b11a4541936106ef9390049091161515815260200190565b6033546001600160a01b03163314610f575760405162461bcd60e51b815260040161068a90611a4f565b610f6160006116b6565b565b6033546001600160a01b03163314610f8d5760405162461bcd60e51b815260040161068a90611a4f565b60408051808201825283815260208082018481526001600160a01b038716600081815260378452859020935184559051600190930192909255825185815290810184905290917ff8fb0c2b61347050d57930a3aafeafa4d96e5d67679f85f908bd1885fee257d0910160405180910390a2505050565b6034546001600160a01b0316331461106d5760405162461bcd60e51b815260206004820152602760248201527f4f776e61626c653a2063616c6c6572206973206e6f74207468652070656e64696044820152663733a7bbb732b960c91b606482015260840161068a565b6110876110826034546001600160a01b031690565b6116b6565b603480546001600160a01b0319169055565b6033546001600160a01b031633146110c35760405162461bcd60e51b815260040161068a90611a4f565b6001600160a01b0381166111295760405162461bcd60e51b815260206004820152602760248201527f53696c6f466163746f72793a206e6577206f7261636c65206973207a65726f206044820152666164647265737360c81b606482015260840161068a565b6040805481516001600160a01b03918216815290831660208201527f93450534569bdbb3109b44eef77c9b236897f4caa4f201be10252d6462a56937910160405180910390a1604080546001600160a01b0319166001600160a01b0392909216919091179055565b6001600160a01b03811660009081526044602052604081206001015480156111b95792915050565b5050603954919050565b603454600090600160a01b900460ff1680156111e85750603454600160b01b900460ff165b15610e12576001600160a01b03821660009081526037602052604090205480156112125792915050565b5050603554919050565b6033546001600160a01b031633146112465760405162461bcd60e51b815260040161068a90611a4f565b6001600160a01b0381166112c25760405162461bcd60e51b815260206004820152603960248201527f53696c6f466163746f72793a206e65772064656661756c74496e74657265737460448201527f526174654d6f64656c206973207a65726f206164647265737300000000000000606482015260840161068a565b603a54604080516001600160a01b03928316815291831660208301527f1248f8750c9f60e1f800102d9248fa767877fba538403657d414e2d25b6025ce910160405180910390a1603a80546001600160a01b0319166001600160a01b0392909216919091179055565b6001600160a01b0380821660009081526044602052604081206002015490911680156113575792915050565b5050603a546001600160a01b0316919050565b6033546001600160a01b031633146113945760405162461bcd60e51b815260040161068a90611a4f565b6001600160a01b0381166113fa5760405162461bcd60e51b815260206004820152602760248201527f53696c6f466163746f72793a206e657720726f75746572206973207a65726f206044820152666164647265737360c81b606482015260840161068a565b604154604080516001600160a01b03928316815291831660208301527f363beda10ebf02584eda9ab4ca38e353bc57591b50714ba84692ed584280672d910160405180910390a1604180546001600160a01b0319166001600160a01b0392909216919091179055565b6033546001600160a01b0316331461148d5760405162461bcd60e51b815260040161068a90611a4f565b603c54603d54603e54604080519384526020840187905283019190915260608201849052608082015260a081018290527fa3f1bea221509c108990ce42d4e5863cfc867e2278ddb0866dec442c2082fdcf9060c00160405180910390a1603c92909255603d55603e55565b6033546001600160a01b031633146115225760405162461bcd60e51b815260040161068a90611a4f565b6034805460ff600160a01b808304821615810260ff60a01b1990931692909217928390556040517fe7d69a5901cea312ff408411a66d0131bbad02de0314b7c56d140d58d11b029f936106ef9390049091161515815260200190565b6033546001600160a01b031633146115a85760405162461bcd60e51b815260040161068a90611a4f565b6001600160a01b03811661160d5760405162461bcd60e51b815260206004820152602660248201527f4f776e61626c653a206e6577206f776e657220697320746865207a65726f206160448201526564647265737360d01b606482015260840161068a565b611616816116b6565b50565b6000604051733d602d80600a3d3981f3363d3d373d3d3d363d7360601b81528260601b60148201526e5af43d82803e903d91602b57fd5bf360881b60288201526037816000f09150506001600160a01b0381166116b15760405162461bcd60e51b8152602060048201526016602482015275115490cc4c4d8dce8818dc99585d194819985a5b195960521b604482015260640161068a565b919050565b603380546001600160a01b038381166001600160a01b0319831681179093556040519116919082907f8be0079c531659141344cd1fd0a4f28419497f9722a3daafe3b4186f6b6457e090600090a35050565b80356001600160a01b03811681146116b157600080fd5b60006020828403121561173157600080fd5b61173a82611708565b9392505050565b6000806000806060858703121561175757600080fd5b61176085611708565b935061176e60208601611708565b9250604085013567ffffffffffffffff8082111561178b57600080fd5b818701915087601f83011261179f57600080fd5b8135818111156117ae57600080fd5b8860208285010111156117c057600080fd5b95989497505060200194505050565b6000806000606084860312156117e457600080fd5b6117ed84611708565b95602085013595506040909401359392505050565b6000806000806080858703121561181857600080fd5b61182185611708565b9350602085013592506040850135915061183d60608601611708565b905092959194509250565b60006020828403121561185a57600080fd5b815167ffffffffffffffff8082111561187257600080fd5b818401915084601f83011261188657600080fd5b81518181111561189857611898611ab4565b604051601f8201601f19908116603f011681019083821181831017156118c0576118c0611ab4565b816040528281528760208487010111156118d957600080fd5b6118ea836020830160208801611a84565b979650505050505050565b60006020828403121561190757600080fd5b5035919050565b60008060006060848603121561192357600080fd5b505081359360208301359350604090920135919050565b60008151808452611952816020860160208601611a84565b601f01601f19169290920160200192915050565b60008351611978818460208801611a84565b83519083019061198c818360208801611a84565b01949350505050565b6001600160a01b0385811682528416602082015260606040820181905281018290526000828460808401376000608084840101526080601f19601f850116830101905095945050505050565b6001600160a01b0384168152606060208201819052600090611a059083018561193a565b8281036040840152611a17818561193a565b9695505050505050565b604081526000611a34604083018561193a565b8281036020840152611a46818561193a565b95945050505050565b6020808252818101527f4f776e61626c653a2063616c6c6572206973206e6f7420746865206f776e6572604082015260600190565b60005b83811015611a9f578181015183820152602001611a87565b83811115611aae576000848401525b50505050565b634e487b7160e01b600052604160045260246000fdfea26469706673582212202b70388c507862f801e3e655e5b4d75097df35ce3d0e6c29b63184494ee11b2b64736f6c63430008070033608060405234801561001057600080fd5b506139c9806100206000396000f3fe608060405234801561001057600080fd5b506004361061027f5760003560e01c80634d5663f11161015c578063a79660f2116100ce578063c5ebeaec11610087578063c5ebeaec1461054d578063ce47696f14610560578063d2ecda0e14610569578063db518db214610591578063dd62ed3e146105a4578063e1f1c4a7146105dd57600080fd5b8063a79660f2146104d8578063a9059cbb146104e1578063a985994b146104f4578063aca25f9a14610514578063b6b55f2514610527578063c45a01551461053a57600080fd5b80637d882097116101205780637d88209714610486578063906571471461048f57806395d89b41146104a257806397904e42146104aa578063a457c2d7146104bd578063a6afed95146104d057600080fd5b80634d5663f1146104305780635f48f44b1461043857806370a082311461044157806375dc7d8c1461046a5780637c3a00fd1461047d57600080fd5b80632f4f21e2116101f557806338d52e0f116101b957806338d52e0f146103ba57806339509351146103e55780633af9e669146103f8578063423f48361461040b5780634274f39c1461041e5780634550079d1461042757600080fd5b80632f4f21e21461035f5780633088044114610372578063313ce56714610385578063371fd8e61461039457806338b51ce1146103a757600080fd5b80631c4125e9116102475780631c4125e9146102e85780631d5f143e146102f157806323a276221461030457806323b872dd146103195780632c9cbca21461032c5780632e1a7d4d1461034c57600080fd5b806306fdde0314610284578063095ea7b3146102a257806318160ddd146102c55780631a686502146102d75780631ad8b03b146102df575b600080fd5b61028c6105e6565b60405161029991906135b7565b60405180910390f35b6102b56102b036600461333f565b610678565b6040519015158152602001610299565b6035545b604051908152602001610299565b6102c961068f565b6102c9609e5481565b6102c960a05481565b6102c96102ff36600461324f565b610710565b61031761031236600461333f565b610828565b005b6102b5610327366004613288565b610912565b6102c961033a366004613215565b60a16020526000908152604090205481565b61031761035a3660046134d6565b6109be565b61031761036d36600461333f565b6109cb565b610317610380366004613288565b610a90565b60405160128152602001610299565b6103176103a23660046134d6565b610c25565b6102b56103b5366004613215565b610c61565b6099546103cd906001600160a01b031681565b6040516001600160a01b039091168152602001610299565b6102b56103f336600461333f565b610d4a565b6102c9610406366004613215565b610d86565b6102c9610419366004613215565b610db2565b6102c9609f5481565b6102c9609c5481565b6102c9610f21565b6102c960001981565b6102c961044f366004613215565b6001600160a01b031660009081526033602052604090205490565b6102c96104783660046134d6565b610f41565b6102c9609d5481565b6102c9609a5481565b61031761049d3660046132c9565b610ff1565b61028c61111e565b6102c96104b8366004613215565b61112d565b6102b56104cb36600461333f565b61128e565b610317611327565b6102c9609b5481565b6102b56104ef36600461333f565b611545565b61050761050236600461336b565b611552565b6040516102999190613573565b6102c9610522366004613215565b611638565b6103176105353660046134d6565b611776565b6098546103cd906001600160a01b031681565b61031761055b3660046134d6565b611781565b6102c960975481565b61057c610577366004613508565b61185a565b60408051928352602083019190915201610299565b61031761059f36600461333f565b61192e565b6102c96105b236600461324f565b6001600160a01b03918216600090815260346020908152604080832093909416825291909152205490565b6102c961271081565b6060603680546105f5906138e6565b80601f0160208091040260200160405190810160405280929190818152602001828054610621906138e6565b801561066e5780601f106106435761010080835404028352916020019161066e565b820191906000526020600020905b81548152906001019060200180831161065157829003601f168201915b5050505050905090565b60006106853384846119ee565b5060015b92915050565b6099546040516370a0823160e01b81523060048201526000916001600160a01b0316906370a082319060240160206040518083038186803b1580156106d357600080fd5b505afa1580156106e7573d6000803e3d6000fd5b505050506040513d601f19601f8201168201806040525081019061070b91906134ef565b905090565b60985460408051635e46bea560e01b815290516000926001600160a01b031691635e46bea5916004808301926020929190829003018186803b15801561075557600080fd5b505afa158015610769573d6000803e3d6000fd5b505050506040513d601f19601f8201168201806040525081019061078d9190613232565b6001600160a01b0316336001600160a01b0316146107e55760405162461bcd60e51b815260206004820152601060248201526f53696c6f3a206f6e6c7942726964676560801b60448201526064015b60405180910390fd5b6001600160a01b038316600090815260336020526040902054610809848483611b12565b610820609a5461081860355490565b839190611c41565b949350505050565b6002606554141561084b5760405162461bcd60e51b81526004016107dc906136a6565b6002606555609854604080516303e21fa960e61b815290516001600160a01b039092169163f887ea4091600480820192602092909190829003018186803b15801561089557600080fd5b505afa1580156108a9573d6000803e3d6000fd5b505050506040513d601f19601f820116820180604052508101906108cd9190613232565b6001600160a01b0316336001600160a01b0316146108fd5760405162461bcd60e51b81526004016107dc9061367c565b610908823383611c70565b5050600160655550565b600061091f848484611b12565b6001600160a01b0384166000908152603460209081526040808320338452909152902054828110156109a45760405162461bcd60e51b815260206004820152602860248201527f45524332303a207472616e7366657220616d6f756e74206578636565647320616044820152676c6c6f77616e636560c01b60648201526084016107dc565b6109b185338584036119ee565b60019150505b9392505050565b6109c83382611d8a565b50565b609860009054906101000a90046001600160a01b03166001600160a01b031663f887ea406040518163ffffffff1660e01b815260040160206040518083038186803b158015610a1957600080fd5b505afa158015610a2d573d6000803e3d6000fd5b505050506040513d601f19601f82011682018060405250810190610a519190613232565b6001600160a01b0316336001600160a01b031614610a815760405162461bcd60e51b81526004016107dc9061367c565b610a8c823383611fb6565b5050565b609860009054906101000a90046001600160a01b03166001600160a01b031663f887ea406040518163ffffffff1660e01b815260040160206040518083038186803b158015610ade57600080fd5b505afa158015610af2573d6000803e3d6000fd5b505050506040513d601f19601f82011682018060405250810190610b169190613232565b6001600160a01b0316336001600160a01b031614610b465760405162461bcd60e51b81526004016107dc9061367c565b82610b4f611327565b610b5a848484612318565b609854604051632f341ddf60e11b81523060048201526001600160a01b0390911690635e683bbe9060240160206040518083038186803b158015610b9d57600080fd5b505afa158015610bb1573d6000803e3d6000fd5b505050506040513d601f19601f82011682018060405250810190610bd591906134ef565b610bde82611638565b1115610c1f5760405162461bcd60e51b815260206004820152601060248201526f29b4b6379d1036b0bc34b6bab6a62a2b60811b60448201526064016107dc565b50505050565b60026065541415610c485760405162461bcd60e51b81526004016107dc906136a6565b6002606555610c58338083611c70565b50506001606555565b60006001600160a01b038216610cb95760405162461bcd60e51b815260206004820152601860248201527f53696c6f3a207573657220213d2061646472657373283029000000000000000060448201526064016107dc565b609854604051631ee1b90b60e21b81523060048201526000916001600160a01b031690637b86e42c9060240160206040518083038186803b158015610cfd57600080fd5b505afa158015610d11573d6000803e3d6000fd5b505050506040513d601f19601f82011682018060405250810190610d3591906134ef565b905080610d4184611638565b11159392505050565b3360008181526034602090815260408083206001600160a01b03871684529091528120549091610685918590610d8190869061375c565b6119ee565b6001600160a01b0381166000908152603360205260408120546109b7610daa610f21565b603554610818565b600080609860009054906101000a90046001600160a01b03166001600160a01b0316637dc0d1d06040518163ffffffff1660e01b815260040160206040518083038186803b158015610e0357600080fd5b505afa158015610e17573d6000803e3d6000fd5b505050506040513d601f19601f82011682018060405250810190610e3b9190613232565b90506000610e4761251c565b602080820151609b546001600160a01b038816600090815260a190935260408320549394509192610e7a92909190611c41565b6099546040516341976e0960e01b81526001600160a01b039182166004820152919250600091908516906341976e099060240160206040518083038186803b158015610ec557600080fd5b505afa158015610ed9573d6000803e3d6000fd5b505050506040513d601f19601f82011682018060405250810190610efd91906134ef565b609754909150610f0d8284613884565b610f179190613774565b9695505050505050565b600080610f2c61251c565b90506109b7609e54609a548360a0015161185a565b600080609860009054906101000a90046001600160a01b03166001600160a01b031663072ea61c6040518163ffffffff1660e01b815260040160206040518083038186803b158015610f9257600080fd5b505afa158015610fa6573d6000803e3d6000fd5b505050506040513d601f19601f82011682018060405250810190610fca91906134ef565b905080610fda5750600092915050565b612710610fe78285613884565b6109b79190613774565b600054610100900460ff168061100a575060005460ff16155b6110265760405162461bcd60e51b81526004016107dc906135ea565b600054610100900460ff16158015611048576000805461ffff19166101011790555b611050612732565b61105861279d565b611062838361280d565b609880546001600160a01b03199081163317909155609980546001600160a01b0387169216821790556040805163313ce56760e01b8152905163313ce56791600480820192602092909190829003018186803b1580156110c157600080fd5b505afa1580156110d5573d6000803e3d6000fd5b505050506040513d601f19601f820116820180604052508101906110f99190613534565b61110490600a6137d9565b6097558015610c1f576000805461ff001916905550505050565b6060603780546105f5906138e6565b600080609860009054906101000a90046001600160a01b03166001600160a01b0316637dc0d1d06040518163ffffffff1660e01b815260040160206040518083038186803b15801561117e57600080fd5b505afa158015611192573d6000803e3d6000fd5b505050506040513d601f19601f820116820180604052508101906111b69190613232565b6099546040516341976e0960e01b81526001600160a01b039182166004820152919250600091908316906341976e099060240160206040518083038186803b15801561120157600080fd5b505afa158015611215573d6000803e3d6000fd5b505050506040513d601f19601f8201168201806040525081019061123991906134ef565b9050600061126b611248610f21565b6035546001600160a01b0388166000908152603360205260409020549190611c41565b60975490915061127b8383613884565b6112859190613774565b95945050505050565b3360009081526034602090815260408083206001600160a01b0386168452909152812054828110156113105760405162461bcd60e51b815260206004820152602560248201527f45524332303a2064656372656173656420616c6c6f77616e63652062656c6f77604482015264207a65726f60d81b60648201526084016107dc565b61131d33858584036119ee565b5060019392505050565b609f54609a54428083141561133b57505050565b60985460405163b67ae54f60e01b81523060048201526000916001600160a01b03169063b67ae54f9060240160206040518083038186803b15801561137f57600080fd5b505afa158015611393573d6000803e3d6000fd5b505050506040513d601f19601f820116820180604052508101906113b79190613232565b90506000816001600160a01b031663c894a0716040518060e00160405280868152602001609860009054906101000a90046001600160a01b03166001600160a01b03166325ed3d446040518163ffffffff1660e01b815260040160206040518083038186803b15801561142957600080fd5b505afa15801561143d573d6000803e3d6000fd5b505050506040513d601f19601f8201168201806040525081019061146191906134ef565b61146d906127106138a3565b8152602001878152602001609c548152602001888152602001609d54815260200160a0548152506040518263ffffffff1660e01b81526004016114b091906136dd565b6101006040518083038186803b1580156114c957600080fd5b505afa1580156114dd573d6000803e3d6000fd5b505050506040513d601f19601f820116820180604052508101906115019190613446565b6020810151609c556040810151609f556060810151609d55608081015160a0908155609e549082015191925061153891869061185a565b609a55609e555050505050565b6000610685338484611b12565b6060600260655414156115775760405162461bcd60e51b81526004016107dc906136a6565b6002606555611584611327565b6000825167ffffffffffffffff8111156115a0576115a0613968565b6040519080825280602002602001820160405280156115c9578160200160208202803683370190505b50835190915060005b8181101561162b576115fc8582815181106115ef576115ef613952565b60200260200101516128a3565b83828151811061160e5761160e613952565b60209081029190910101528061162381613921565b9150506115d2565b5050600160655592915050565b60008061164483610db2565b9050806116545750600092915050565b60985460408051635e46bea560e01b815290516000926001600160a01b031691635e46bea5916004808301926020929190829003018186803b15801561169957600080fd5b505afa1580156116ad573d6000803e3d6000fd5b505050506040513d601f19601f820116820180604052508101906116d19190613232565b604051631eee3aa360e01b81523060048201526001600160a01b038681166024830152919250600091831690631eee3aa39060440160206040518083038186803b15801561171e57600080fd5b505afa158015611732573d6000803e3d6000fd5b505050506040513d601f19601f8201168201806040525081019061175691906134ef565b9050806117695750600019949350505050565b8061127b61271085613884565b6109c8333383611fb6565b3361178a611327565b611795333384612318565b609854604051632f341ddf60e11b81523060048201526001600160a01b0390911690635e683bbe9060240160206040518083038186803b1580156117d857600080fd5b505afa1580156117ec573d6000803e3d6000fd5b505050506040513d601f19601f8201168201806040525081019061181091906134ef565b61181982611638565b1115610a8c5760405162461bcd60e51b815260206004820152601060248201526f29b4b6379d1036b0bc34b6bab6a62a2b60811b60448201526064016107dc565b6000806000612710609860009054906101000a90046001600160a01b03166001600160a01b03166325ed3d446040518163ffffffff1660e01b815260040160206040518083038186803b1580156118b057600080fd5b505afa1580156118c4573d6000803e3d6000fd5b505050506040513d601f19601f820116820180604052508101906118e891906134ef565b6118f29086613884565b6118fc9190613774565b9050600061190a82866138a3565b9050611916828861375c565b9350611922818761375c565b92505050935093915050565b609860009054906101000a90046001600160a01b03166001600160a01b031663f887ea406040518163ffffffff1660e01b815260040160206040518083038186803b15801561197c57600080fd5b505afa158015611990573d6000803e3d6000fd5b505050506040513d601f19601f820116820180604052508101906119b49190613232565b6001600160a01b0316336001600160a01b0316146119e45760405162461bcd60e51b81526004016107dc9061367c565b610a8c8282611d8a565b6001600160a01b038316611a505760405162461bcd60e51b8152602060048201526024808201527f45524332303a20617070726f76652066726f6d20746865207a65726f206164646044820152637265737360e01b60648201526084016107dc565b6001600160a01b038216611ab15760405162461bcd60e51b815260206004820152602260248201527f45524332303a20617070726f766520746f20746865207a65726f206164647265604482015261737360f01b60648201526084016107dc565b6001600160a01b0383811660008181526034602090815260408083209487168084529482529182902085905590518481527f8c5be1e5ebec7d5bd14f71427d1e84f3dd0314c0f7b2291e5b200ac8c7c3b925910160405180910390a3505050565b82611b1e848484612a75565b60985460408051635e46bea560e01b815290516000926001600160a01b031691635e46bea5916004808301926020929190829003018186803b158015611b6357600080fd5b505afa158015611b77573d6000803e3d6000fd5b505050506040513d601f19601f82011682018060405250810190611b9b9190613232565b604051630590630f60e41b81523060048201526001600160a01b0384811660248301529192509082169063590630f09060440160206040518083038186803b158015611be657600080fd5b505afa158015611bfa573d6000803e3d6000fd5b505050506040513d601f19601f82011682018060405250810190611c1e9190613424565b611c3a5760405162461bcd60e51b81526004016107dc90613638565b5050505050565b6000811580611c4e575082155b15611c5b575060006109b7565b81611c668486613884565b6108209190613774565b6000611c7a611327565b6000600019831415611cb857506001600160a01b038416600090815260a16020526040902054609c54609b54611cb1918391611c41565b9250611ccc565b609c54609b54611cc9918591612c43565b90505b6001600160a01b038516600090815260a1602052604081208054839290611cf49084906138a3565b9250508190555080609b6000828254611d0d91906138a3565b9250508190555082609c6000828254611d2691906138a3565b90915550506040518381526001600160a01b038616907f5c16de4f8b59bd9caf0f49a545f25819a895ed223294290b408242e72a5942319060200160405180910390a2609954611d81906001600160a01b0316853086612c67565b50909392505050565b60026065541415611dad5760405162461bcd60e51b81526004016107dc906136a6565b600260655581611dbb611327565b6000600019831415611df8576001600160a01b0384166000908152603360205260409020549050611df1609a5461081860355490565b9250611e12565b611e0f609a54611e0760355490565b859190612c43565b90505b82609a6000828254611e2491906138a3565b90915550611e3490508482612cd2565b836001600160a01b03167f884edad9ce6fa2440d8a54cc123490eb96d2768479d49ff9c7366125a942436484604051611e6f91815260200190565b60405180910390a2609954611e8e906001600160a01b03168585612e20565b5060985460408051635e46bea560e01b815290516000926001600160a01b031691635e46bea5916004808301926020929190829003018186803b158015611ed457600080fd5b505afa158015611ee8573d6000803e3d6000fd5b505050506040513d601f19601f82011682018060405250810190611f0c9190613232565b604051630590630f60e41b81523060048201526001600160a01b0384811660248301529192509082169063590630f09060440160206040518083038186803b158015611f5757600080fd5b505afa158015611f6b573d6000803e3d6000fd5b505050506040513d601f19601f82011682018060405250810190611f8f9190613424565b611fab5760405162461bcd60e51b81526004016107dc90613638565b505060016065555050565b60026065541415611fd95760405162461bcd60e51b81526004016107dc906136a6565b6002606555611fe6611327565b6001600160a01b038316600090815260a16020526040902054156120615760405162461bcd60e51b815260206004820152602c60248201527f53696c6f3a2063616e6e6f74206465706f736974202620626f72726f7720746860448201526b19481cd85b5948185cdcd95d60a21b60648201526084016107dc565b600061206b61068f565b609954909150612086906001600160a01b0316843085612c67565b600061209061068f565b905061209c82826138a3565b925060006120b7609a546120af60355490565b869190612c43565b905083609a60008282546120cb919061375c565b90915550506040518481526001600160a01b038716907fe1fffcc4923d04b559f4d29a8bfc6cda04eb5b0d3c460751c2402c5c5cc9109c9060200160405180910390a26121188682612e50565b5050506000609860009054906101000a90046001600160a01b03166001600160a01b0316637dc0d1d06040518163ffffffff1660e01b815260040160206040518083038186803b15801561216b57600080fd5b505afa15801561217f573d6000803e3d6000fd5b505050506040513d601f19601f820116820180604052508101906121a39190613232565b60985460405163857b591360e01b81523060048201529192506001600160a01b03169063857b59139060240160206040518083038186803b1580156121e757600080fd5b505afa1580156121fb573d6000803e3d6000fd5b505050506040513d601f19601f8201168201806040525081019061221f91906134ef565b609754609a546099546040516341976e0960e01b81526001600160a01b039182166004820152908516906341976e099060240160206040518083038186803b15801561226a57600080fd5b505afa15801561227e573d6000803e3d6000fd5b505050506040513d601f19601f820116820180604052508101906122a291906134ef565b6122ac9190613884565b6122b69190613774565b1115611fab5760405162461bcd60e51b815260206004820152602b60248201527f53696c6f3a20746f74616c206465706f7369747320657863656564206c69717560448201526a1a591a5d1e481b1a5b5a5d60aa1b60648201526084016107dc565b6002606554141561233b5760405162461bcd60e51b81526004016107dc906136a6565b60026065556001600160a01b038316600090815260336020526040902054156123bb5760405162461bcd60e51b815260206004820152602c60248201527f53696c6f3a2063616e6e6f7420626f72726f772026206465706f73697420746860448201526b19481cd85b5948185cdcd95d60a21b60648201526084016107dc565b806123c461068f565b101561240b5760405162461bcd60e51b815260206004820152601660248201527553696c6f3a206465706f7369742073686f727461676560501b60448201526064016107dc565b600061241682610f41565b90506000612436609c54609b54848661242f919061375c565b9190612c43565b6001600160a01b038616600090815260a1602052604081208054929350839290919061246390849061375c565b9250508190555080609b600082825461247c919061375c565b9091555061248c9050828461375c565b609c600082825461249d919061375c565b9250508190555081609e60008282546124b6919061375c565b90915550506040518381526001600160a01b038616907fcbc04eca7e9da35cb1393a6135a199ca52e450d5e9251cbd99f7847d33a367509060200160405180910390a2609954612510906001600160a01b03168585612e20565b50506001606555505050565b61256460405180610100016040528060008152602001600081526020016000815260200160008152602001600081526020016000815260200160008152602001600081525090565b60985460405163b67ae54f60e01b81523060048201526000916001600160a01b03169063b67ae54f9060240160206040518083038186803b1580156125a857600080fd5b505afa1580156125bc573d6000803e3d6000fd5b505050506040513d601f19601f820116820180604052508101906125e09190613232565b9050806001600160a01b031663c894a0716040518060e00160405280428152602001609860009054906101000a90046001600160a01b03166001600160a01b03166325ed3d446040518163ffffffff1660e01b815260040160206040518083038186803b15801561265057600080fd5b505afa158015612664573d6000803e3d6000fd5b505050506040513d601f19601f8201168201806040525081019061268891906134ef565b612694906127106138a3565b8152602001609a548152602001609c548152602001609f548152602001609d54815260200160a0548152506040518263ffffffff1660e01b81526004016126db91906136dd565b6101006040518083038186803b1580156126f457600080fd5b505afa158015612708573d6000803e3d6000fd5b505050506040513d601f19601f8201168201806040525081019061272c9190613446565b91505090565b600054610100900460ff168061274b575060005460ff16155b6127675760405162461bcd60e51b81526004016107dc906135ea565b600054610100900460ff16158015612789576000805461ffff19166101011790555b80156109c8576000805461ff001916905550565b600054610100900460ff16806127b6575060005460ff16155b6127d25760405162461bcd60e51b81526004016107dc906135ea565b600054610100900460ff161580156127f4576000805461ffff19166101011790555b600160655580156109c8576000805461ff001916905550565b600054610100900460ff1680612826575060005460ff16155b6128425760405162461bcd60e51b81526004016107dc906135ea565b600054610100900460ff16158015612864576000805461ffff19166101011790555b825161287790603690602086019061310c565b50815161288b90603790602085019061310c565b50801561289e576000805461ff00191690555b505050565b60006128ae82610c61565b156128bb57506000919050565b60006128ca8333600019611c70565b90506000609860009054906101000a90046001600160a01b03166001600160a01b0316635e46bea56040518163ffffffff1660e01b815260040160206040518083038186803b15801561291c57600080fd5b505afa158015612930573d6000803e3d6000fd5b505050506040513d601f19601f820116820180604052508101906129549190613232565b604051630eaf8a1f60e11b81526001600160a01b03868116600483015233602483015291925090821690631d5f143e90604401602060405180830381600087803b1580156129a157600080fd5b505af11580156129b5573d6000803e3d6000fd5b505050506040513d601f19601f820116820180604052508101906129d991906134ef565b60408051848152602081018390529194506001600160a01b038616917f3c4b1d42b9c7fa283f6fe657533f6a5a8a7ad1d36f9ef1d9d89ad04485e10d2c910160405180910390a2612a2984610c61565b612a6e5760405162461bcd60e51b815260206004820152601660248201527514da5b1bce881d5cd95c881b9bdd081cdbdb1d995b9d60521b60448201526064016107dc565b5050919050565b6001600160a01b038316612ad95760405162461bcd60e51b815260206004820152602560248201527f45524332303a207472616e736665722066726f6d20746865207a65726f206164604482015264647265737360d81b60648201526084016107dc565b6001600160a01b038216612b3b5760405162461bcd60e51b815260206004820152602360248201527f45524332303a207472616e7366657220746f20746865207a65726f206164647260448201526265737360e81b60648201526084016107dc565b6001600160a01b03831660009081526033602052604090205481811015612bb35760405162461bcd60e51b815260206004820152602660248201527f45524332303a207472616e7366657220616d6f756e7420657863656564732062604482015265616c616e636560d01b60648201526084016107dc565b6001600160a01b03808516600090815260336020526040808220858503905591851681529081208054849290612bea90849061375c565b92505081905550826001600160a01b0316846001600160a01b03167fddf252ad1be2c89b69c2b068fc378daa952ba7f163c4a11628f55a4df523b3ef84604051612c3691815260200190565b60405180910390a3610c1f565b6000811580612c50575082155b15612c5c5750826109b7565b82611c668386613884565b6040516001600160a01b0380851660248301528316604482015260648101829052610c1f9085906323b872dd60e01b906084015b60408051601f198184030181529190526020810180516001600160e01b03166001600160e01b031990931692909217909152612f2f565b6001600160a01b038216612d325760405162461bcd60e51b815260206004820152602160248201527f45524332303a206275726e2066726f6d20746865207a65726f206164647265736044820152607360f81b60648201526084016107dc565b6001600160a01b03821660009081526033602052604090205481811015612da65760405162461bcd60e51b815260206004820152602260248201527f45524332303a206275726e20616d6f756e7420657863656564732062616c616e604482015261636560f01b60648201526084016107dc565b6001600160a01b0383166000908152603360205260408120838303905560358054849290612dd59084906138a3565b90915550506040518281526000906001600160a01b038516907fddf252ad1be2c89b69c2b068fc378daa952ba7f163c4a11628f55a4df523b3ef9060200160405180910390a3505050565b6040516001600160a01b03831660248201526044810182905261289e90849063a9059cbb60e01b90606401612c9b565b6001600160a01b038216612ea65760405162461bcd60e51b815260206004820152601f60248201527f45524332303a206d696e7420746f20746865207a65726f20616464726573730060448201526064016107dc565b8060356000828254612eb8919061375c565b90915550506001600160a01b03821660009081526033602052604081208054839290612ee590849061375c565b90915550506040518181526001600160a01b038316906000907fddf252ad1be2c89b69c2b068fc378daa952ba7f163c4a11628f55a4df523b3ef9060200160405180910390a35050565b6000612f84826040518060400160405280602081526020017f5361666545524332303a206c6f772d6c6576656c2063616c6c206661696c6564815250856001600160a01b03166130019092919063ffffffff16565b80519091501561289e5780806020019051810190612fa29190613424565b61289e5760405162461bcd60e51b815260206004820152602a60248201527f5361666545524332303a204552433230206f7065726174696f6e20646964206e6044820152691bdd081cdd58d8d9595960b21b60648201526084016107dc565b6060610820848460008585843b61305a5760405162461bcd60e51b815260206004820152601d60248201527f416464726573733a2063616c6c20746f206e6f6e2d636f6e747261637400000060448201526064016107dc565b600080866001600160a01b031685876040516130769190613557565b60006040518083038185875af1925050503d80600081146130b3576040519150601f19603f3d011682016040523d82523d6000602084013e6130b8565b606091505b50915091506130c88282866130d3565b979650505050505050565b606083156130e25750816109b7565b8251156130f25782518084602001fd5b8160405162461bcd60e51b81526004016107dc91906135b7565b828054613118906138e6565b90600052602060002090601f01602090048101928261313a5760008555613180565b82601f1061315357805160ff1916838001178555613180565b82800160010185558215613180579182015b82811115613180578251825591602001919060010190613165565b5061318c929150613190565b5090565b5b8082111561318c5760008155600101613191565b600082601f8301126131b657600080fd5b813567ffffffffffffffff8111156131d0576131d0613968565b6131e3601f8201601f191660200161372b565b8181528460208386010111156131f857600080fd5b816020850160208301376000918101602001919091529392505050565b60006020828403121561322757600080fd5b81356109b78161397e565b60006020828403121561324457600080fd5b81516109b78161397e565b6000806040838503121561326257600080fd5b823561326d8161397e565b9150602083013561327d8161397e565b809150509250929050565b60008060006060848603121561329d57600080fd5b83356132a88161397e565b925060208401356132b88161397e565b929592945050506040919091013590565b6000806000606084860312156132de57600080fd5b83356132e98161397e565b9250602084013567ffffffffffffffff8082111561330657600080fd5b613312878388016131a5565b9350604086013591508082111561332857600080fd5b50613335868287016131a5565b9150509250925092565b6000806040838503121561335257600080fd5b823561335d8161397e565b946020939093013593505050565b6000602080838503121561337e57600080fd5b823567ffffffffffffffff8082111561339657600080fd5b818501915085601f8301126133aa57600080fd5b8135818111156133bc576133bc613968565b8060051b91506133cd84830161372b565b8181528481019084860184860187018a10156133e857600080fd5b600095505b8386101561341757803594506134028561397e565b848352600195909501949186019186016133ed565b5098975050505050505050565b60006020828403121561343657600080fd5b815180151581146109b757600080fd5b600061010080838503121561345a57600080fd5b6040519081019067ffffffffffffffff8211818310171561347d5761347d613968565b81604052835181526020840151602082015260408401516040820152606084015160608201526080840151608082015260a084015160a082015260c084015160c082015260e084015160e0820152809250505092915050565b6000602082840312156134e857600080fd5b5035919050565b60006020828403121561350157600080fd5b5051919050565b60008060006060848603121561351d57600080fd5b505081359360208301359350604090920135919050565b60006020828403121561354657600080fd5b815160ff811681146109b757600080fd5b600082516135698184602087016138ba565b9190910192915050565b6020808252825182820181905260009190848201906040850190845b818110156135ab5783518352928401929184019160010161358f565b50909695505050505050565b60208152600082518060208401526135d68160408501602087016138ba565b601f01601f19169190910160400192915050565b6020808252602e908201527f496e697469616c697a61626c653a20636f6e747261637420697320616c72656160408201526d191e481a5b9a5d1a585b1a5e995960921b606082015260800190565b60208082526024908201527f53696c6f3a206e6f7420736f6c76656e7420696e2062726964676520706f73696040820152633a34b7b760e11b606082015260800190565b60208082526010908201526f29b4b6379d1037b7363ca937baba32b960811b604082015260600190565b6020808252601f908201527f5265656e7472616e637947756172643a207265656e7472616e742063616c6c00604082015260600190565b600060e082019050825182526020830151602083015260408301516040830152606083015160608301526080830151608083015260a083015160a083015260c083015160c083015292915050565b604051601f8201601f1916810167ffffffffffffffff8111828210171561375457613754613968565b604052919050565b6000821982111561376f5761376f61393c565b500190565b60008261379157634e487b7160e01b600052601260045260246000fd5b500490565b600181815b808511156137d15781600019048211156137b7576137b761393c565b808516156137c457918102915b93841c939080029061379b565b509250929050565b60006109b760ff8416836000826137f257506001610689565b816137ff57506000610689565b8160018114613815576002811461381f5761383b565b6001915050610689565b60ff8411156138305761383061393c565b50506001821b610689565b5060208310610133831016604e8410600b841016171561385e575081810a610689565b6138688383613796565b806000190482111561387c5761387c61393c565b029392505050565b600081600019048311821515161561389e5761389e61393c565b500290565b6000828210156138b5576138b561393c565b500390565b60005b838110156138d55781810151838201526020016138bd565b83811115610c1f5750506000910152565b600181811c908216806138fa57607f821691505b6020821081141561391b57634e487b7160e01b600052602260045260246000fd5b50919050565b60006000198214156139355761393561393c565b5060010190565b634e487b7160e01b600052601160045260246000fd5b634e487b7160e01b600052603260045260246000fd5b634e487b7160e01b600052604160045260246000fd5b6001600160a01b03811681146109c857600080fdfea26469706673582212205c723ac8657edc7407c4bcd19f4d2be65e58b1559c04ec54855a182cf66a501964736f6c63430008070033496e697469616c697a61626c653a20636f6e747261637420697320616c726561",
  "devdoc": {
    "kind": "dev",
    "methods": {
      "acceptOwnership()": {
        "details": "Transfers ownership of the contract to a pending owner Can only be called by the pending owner."
      },
      "newSilo(address,address,bytes)": {
        "params": {
          "_asset": "silo asset",
          "_oracle": "(optional) if provided, asset will be initialised on that oracle        it does not mean, this oracle will be chosen for asset, it only means, after valid initialization,        it could be chosen, if is is the best one",
          "_oracleData": "custom data for oracle initialization"
        }
      },
      "owner()": {
        "details": "Returns the address of the current owner."
      },
      "pendingOwner()": {
        "details": "Returns the address of the pending owner."
      },
      "renounceOwnership()": {
        "details": "Leaves the contract without owner. It will not be possible to call `onlyOwner` functions anymore. Can only be called by the current owner. NOTE: Renouncing ownership will leave the contract without an owner, thereby removing any functionality that is only available to the owner."
      },
      "transferOwnership(address)": {
        "details": "Transfers ownership of the contract to a new account (`newOwner`). Can only be called by the current owner."
      },
      "transferPendingOwnership(address)": {
        "details": "Transfers pending ownership of the contract to a new account (`newPendingOwner`). Can only be called by the current owner."
      }
    },
    "stateVariables": {
      "defaultSiloConfig": {
        "details": "Default values for SiloConfig. Used if values are not configured manually."
      },
      "entryFee": {
        "details": "one time protocol fee for opening a borrow position in basis points"
      },
      "protocolLiquidationFee": {
        "details": "protocol share in liquidation profit"
      },
      "protocolShareFee": {
        "details": "protocol revenue share in interest paid"
      },
      "silo": {
        "details": "maps token address to silo address, token => silo"
      },
      "siloConfigs": {
        "details": "maps silo address to its config"
      },
      "siloReverse": {
        "details": "maps token address to silo address, silo => token"
      }
    },
    "version": 1
  },
  "userdoc": {
    "kind": "user",
    "methods": {},
    "version": 1
  },
  "storageLayout": {
    "storage": [
      {
        "astId": 5,
        "contract": "contracts/SiloFactory.sol:SiloFactory",
        "label": "_initialized",
        "offset": 0,
        "slot": "0",
        "type": "t_bool"
      },
      {
        "astId": 8,
        "contract": "contracts/SiloFactory.sol:SiloFactory",
        "label": "_initializing",
        "offset": 1,
        "slot": "0",
        "type": "t_bool"
      },
      {
        "astId": 822,
        "contract": "contracts/SiloFactory.sol:SiloFactory",
        "label": "__gap",
        "offset": 0,
        "slot": "1",
        "type": "t_array(t_uint256)50_storage"
      },
      {
        "astId": 10714,
        "contract": "contracts/SiloFactory.sol:SiloFactory",
        "label": "_owner",
        "offset": 0,
        "slot": "51",
        "type": "t_address"
      },
      {
        "astId": 10716,
        "contract": "contracts/SiloFactory.sol:SiloFactory",
        "label": "_pendingOwner",
        "offset": 0,
        "slot": "52",
        "type": "t_address"
      },
      {
        "astId": 10487,
        "contract": "contracts/SiloFactory.sol:SiloFactory",
        "label": "guardedLaunch",
        "offset": 20,
        "slot": "52",
        "type": "t_bool"
      },
      {
        "astId": 10489,
        "contract": "contracts/SiloFactory.sol:SiloFactory",
        "label": "permissionedSiloCreation",
        "offset": 21,
        "slot": "52",
        "type": "t_bool"
      },
      {
        "astId": 10491,
        "contract": "contracts/SiloFactory.sol:SiloFactory",
        "label": "limitedMaxLiquidity",
        "offset": 22,
        "slot": "52",
        "type": "t_bool"
      },
      {
        "astId": 10494,
        "contract": "contracts/SiloFactory.sol:SiloFactory",
        "label": "defaultSiloLimitConfig",
        "offset": 0,
        "slot": "53",
        "type": "t_struct(SiloLimitConfig)10478_storage"
      },
      {
        "astId": 10499,
        "contract": "contracts/SiloFactory.sol:SiloFactory",
        "label": "siloLimitConfigs",
        "offset": 0,
        "slot": "55",
        "type": "t_mapping(t_address,t_struct(SiloLimitConfig)10478_storage)"
      },
      {
        "astId": 7799,
        "contract": "contracts/SiloFactory.sol:SiloFactory",
        "label": "defaultSiloConfig",
        "offset": 0,
        "slot": "56",
        "type": "t_struct(SiloConfig)7790_storage"
      },
      {
        "astId": 7802,
        "contract": "contracts/SiloFactory.sol:SiloFactory",
        "label": "bridgeAsset",
        "offset": 0,
        "slot": "59",
        "type": "t_address"
      },
      {
        "astId": 7806,
        "contract": "contracts/SiloFactory.sol:SiloFactory",
        "label": "entryFee",
        "offset": 0,
        "slot": "60",
        "type": "t_uint256"
      },
      {
        "astId": 7810,
        "contract": "contracts/SiloFactory.sol:SiloFactory",
        "label": "protocolShareFee",
        "offset": 0,
        "slot": "61",
        "type": "t_uint256"
      },
      {
        "astId": 7813,
        "contract": "contracts/SiloFactory.sol:SiloFactory",
        "label": "protocolLiquidationFee",
        "offset": 0,
        "slot": "62",
        "type": "t_uint256"
      },
      {
        "astId": 7816,
        "contract": "contracts/SiloFactory.sol:SiloFactory",
        "label": "bridgePool",
        "offset": 0,
        "slot": "63",
        "type": "t_address"
      },
      {
        "astId": 7819,
        "contract": "contracts/SiloFactory.sol:SiloFactory",
        "label": "oracle",
        "offset": 0,
        "slot": "64",
        "type": "t_address"
      },
      {
        "astId": 7822,
        "contract": "contracts/SiloFactory.sol:SiloFactory",
        "label": "router",
        "offset": 0,
        "slot": "65",
        "type": "t_address"
      },
      {
        "astId": 7828,
        "contract": "contracts/SiloFactory.sol:SiloFactory",
        "label": "silo",
        "offset": 0,
        "slot": "66",
        "type": "t_mapping(t_address,t_address)"
      },
      {
        "astId": 7833,
        "contract": "contracts/SiloFactory.sol:SiloFactory",
        "label": "siloReverse",
        "offset": 0,
        "slot": "67",
        "type": "t_mapping(t_address,t_address)"
      },
      {
        "astId": 7839,
        "contract": "contracts/SiloFactory.sol:SiloFactory",
        "label": "siloConfigs",
        "offset": 0,
        "slot": "68",
        "type": "t_mapping(t_address,t_struct(SiloConfig)7790_storage)"
      }
    ],
    "types": {
      "t_address": {
        "encoding": "inplace",
        "label": "address",
        "numberOfBytes": "20"
      },
      "t_array(t_uint256)50_storage": {
        "base": "t_uint256",
        "encoding": "inplace",
        "label": "uint256[50]",
        "numberOfBytes": "1600"
      },
      "t_bool": {
        "encoding": "inplace",
        "label": "bool",
        "numberOfBytes": "1"
      },
      "t_mapping(t_address,t_address)": {
        "encoding": "mapping",
        "key": "t_address",
        "label": "mapping(address => address)",
        "numberOfBytes": "32",
        "value": "t_address"
      },
      "t_mapping(t_address,t_struct(SiloConfig)7790_storage)": {
        "encoding": "mapping",
        "key": "t_address",
        "label": "mapping(address => struct SiloFactory.SiloConfig)",
        "numberOfBytes": "32",
        "value": "t_struct(SiloConfig)7790_storage"
      },
      "t_mapping(t_address,t_struct(SiloLimitConfig)10478_storage)": {
        "encoding": "mapping",
        "key": "t_address",
        "label": "mapping(address => struct GuardedLaunch.SiloLimitConfig)",
        "numberOfBytes": "32",
        "value": "t_struct(SiloLimitConfig)10478_storage"
      },
      "t_struct(SiloConfig)7790_storage": {
        "encoding": "inplace",
        "label": "struct SiloFactory.SiloConfig",
        "members": [
          {
            "astId": 7784,
            "contract": "contracts/SiloFactory.sol:SiloFactory",
            "label": "maxLoanToValue",
            "offset": 0,
            "slot": "0",
            "type": "t_uint256"
          },
          {
            "astId": 7787,
            "contract": "contracts/SiloFactory.sol:SiloFactory",
            "label": "liquidationThreshold",
            "offset": 0,
            "slot": "1",
            "type": "t_uint256"
          },
          {
            "astId": 7789,
            "contract": "contracts/SiloFactory.sol:SiloFactory",
            "label": "virtualBalances",
            "offset": 0,
            "slot": "2",
            "type": "t_address"
          }
        ],
        "numberOfBytes": "96"
      },
      "t_struct(SiloLimitConfig)10478_storage": {
        "encoding": "inplace",
        "label": "struct GuardedLaunch.SiloLimitConfig",
        "members": [
          {
            "astId": 10475,
            "contract": "contracts/SiloFactory.sol:SiloFactory",
            "label": "maxDeposits",
            "offset": 0,
            "slot": "0",
            "type": "t_uint256"
          },
          {
            "astId": 10477,
            "contract": "contracts/SiloFactory.sol:SiloFactory",
            "label": "maxBridgeDeposits",
            "offset": 0,
            "slot": "1",
            "type": "t_uint256"
          }
        ],
        "numberOfBytes": "64"
      },
      "t_uint256": {
        "encoding": "inplace",
        "label": "uint256",
        "numberOfBytes": "32"
      }
    }
  }
}