{
  "address": "0x8e3953Ac829441a1c8752ec7534a5E85cB84E495",
  "abi": [
    {
      "inputs": [],
      "name": "OnlyRepository",
      "type": "error"
    },
    {
      "inputs": [],
      "name": "RepositoryAlreadySet",
      "type": "error"
    },
    {
      "anonymous": false,
      "inputs": [],
      "name": "InitSiloRepository",
      "type": "event"
    },
    {
      "anonymous": false,
      "inputs": [
        {
          "indexed": true,
          "internalType": "address",
          "name": "silo",
          "type": "address"
        },
        {
          "indexed": true,
          "internalType": "address",
          "name": "asset",
          "type": "address"
        },
        {
          "indexed": false,
          "internalType": "uint128",
          "name": "version",
          "type": "uint128"
        }
      ],
      "name": "NewSiloCreated",
      "type": "event"
    },
    {
      "inputs": [
        {
          "internalType": "address",
          "name": "_siloAsset",
          "type": "address"
        },
        {
          "internalType": "uint128",
          "name": "_version",
          "type": "uint128"
        },
        {
          "internalType": "bytes",
          "name": "",
          "type": "bytes"
        }
      ],
      "name": "createSilo",
      "outputs": [
        {
          "internalType": "address",
          "name": "silo",
          "type": "address"
        }
      ],
      "stateMutability": "nonpayable",
      "type": "function"
    },
    {
      "inputs": [
        {
          "internalType": "address",
          "name": "_repository",
          "type": "address"
        }
      ],
      "name": "initRepository",
      "outputs": [],
      "stateMutability": "nonpayable",
      "type": "function"
    },
    {
      "inputs": [],
      "name": "siloFactoryPing",
      "outputs": [
        {
          "internalType": "bytes4",
          "name": "",
          "type": "bytes4"
        }
      ],
      "stateMutability": "pure",
      "type": "function"
    },
    {
      "inputs": [],
      "name": "siloRepository",
      "outputs": [
        {
          "internalType": "address",
          "name": "",
          "type": "address"
        }
      ],
      "stateMutability": "view",
      "type": "function"
    }
  ],
  "transactionHash": "0x88f50524a8cd258ac3adb791ba6d7c36b28f7d7dc88fb8a6472b242bb12cbe44",
  "args": [],
  "numDeployments": 2,
  "solcInputHash": "8e9a0ef8ce926c9d3d3d0a119bbb7645",
  "bytecode": "0x608060405234801561001057600080fd5b50615d27806100206000396000f3fe608060405234801561001057600080fd5b506004361061004c5760003560e01c806304b3bbe814610051578063573bbca5146100665780635a0c4de414610096578063bde12718146100ab575b600080fd5b61006461005f36600461022b565b6100be565b005b610079610074366004610263565b61012c565b6040516001600160a01b0390911681526020015b60405180910390f35b604051631683137960e21b815260200161008d565b600054610079906001600160a01b031681565b6000546001600160a01b0316156100e75760405162884f4360e41b815260040160405180910390fd5b600080546001600160a01b0319166001600160a01b0383161781556040517f62b7374e631dbf873146b0bd9f3390235a4a47128c3336ec4344c32bc28fe2929190a150565b600080546001600160a01b03163314610158576040516397691a2f60e01b815260040160405180910390fd5b33848460405161016790610201565b6001600160a01b0393841681529290911660208301526001600160801b03166040820152606001604051809103906000f0801580156101aa573d6000803e3d6000fd5b506040516001600160801b03851681529091506001600160a01b0380861691908316907f3d603ed158e689891fb302f8dcdd070ca09f651c8b61183dda2db71384cca1579060200160405180910390a39392505050565b6159ae806200034483390190565b80356001600160a01b038116811461022657600080fd5b919050565b60006020828403121561023d57600080fd5b6102468261020f565b9392505050565b634e487b7160e01b600052604160045260246000fd5b60008060006060848603121561027857600080fd5b6102818461020f565b925060208401356001600160801b038116811461029d57600080fd5b9150604084013567ffffffffffffffff808211156102ba57600080fd5b818601915086601f8301126102ce57600080fd5b8135818111156102e0576102e061024d565b604051601f8201601f19908116603f011681019083821181831017156103085761030861024d565b8160405282815289602084870101111561032157600080fd5b826020860160208301376000602084830101528095505050505050925092509256fe6101006040523480156200001257600080fd5b50604051620059ae380380620059ae8339810160408190526200003591620002fd565b8282826001600081905550600180819055506200006b836001600160a01b031663e99ed41d6200010c60201b6200111e1760201c565b6200008957604051639f45596360e01b815260040160405180910390fd5b806001600160801b0316600003620000b457604051634eb171af60e01b815260040160405180910390fd5b6000620000cc836200019860201b620011a41760201c565b6001600160801b03831660c0526001600160a01b03808616608052841660a0529050620000fb81600a6200046f565b60e052506200051395505050505050565b60006001600160a01b038316158015906200018f575082826040518163ffffffff1660e01b8152600401602060405180830381865afa15801562000154573d6000803e3d6000fd5b505050506040513d601f19601f820116820180604052508101906200017a91906200047d565b60e083901b6001600160e01b03199081169116145b90505b92915050565b6040805160048152602481019091526020810180516001600160e01b0390811663313ce56760e01b1790915260009182918291620001da918691906200020f16565b9150915081620001ee575060009392505050565b80806020019051810190620002049190620004b0565b60ff16949350505050565b600060606200022984620002de60201b620012111760201c565b62000247576040516373d39f9d60e01b815260040160405180910390fd5b600080856001600160a01b031685604051620002649190620004d5565b600060405180830381855afa9150503d8060008114620002a1576040519150601f19603f3d011682016040523d82523d6000602084013e620002a6565b606091505b509150915081620002cf57600060405180602001604052806000815250935093505050620002d7565b600193509150505b9250929050565b3b151590565b6001600160a01b0381168114620002fa57600080fd5b50565b6000806000606084860312156200031357600080fd5b83516200032081620002e4565b60208501519093506200033381620002e4565b60408501519092506001600160801b03811681146200035157600080fd5b809150509250925092565b634e487b7160e01b600052601160045260246000fd5b600181815b80851115620003b35781600019048211156200039757620003976200035c565b80851615620003a557918102915b93841c939080029062000377565b509250929050565b600082620003cc5750600162000192565b81620003db5750600062000192565b8160018114620003f45760028114620003ff576200041f565b600191505062000192565b60ff8411156200041357620004136200035c565b50506001821b62000192565b5060208310610133831016604e8410600b841016171562000444575081810a62000192565b62000450838362000372565b80600019048211156200046757620004676200035c565b029392505050565b60006200018f8383620003bb565b6000602082840312156200049057600080fd5b81516001600160e01b031981168114620004a957600080fd5b9392505050565b600060208284031215620004c357600080fd5b815160ff81168114620004a957600080fd5b6000825160005b81811015620004f85760208186018101518583015201620004dc565b8181111562000508576000828501525b509190910192915050565b60805160a05160c05160e0516153df620005cf6000396000505060006104080152600081816101f901528181610a6e01528181612417015281816124550152613f35015260008181610304015281816104a2015281816105e4015281816109bc01528181610ced01528181610dcc015281816118d4015281816119ad01528181611bf601528181611e92015281816120160152818161238d0152818161247f01528181612eca01528181612f7a015261307a01526153df6000f3fe608060405234801561001057600080fd5b50600436106101735760003560e01c8063a388991b116100de578063ead5d35911610097578063f87c3aa811610071578063f87c3aa814610392578063fb255703146103d0578063fbf178db146103f0578063ffa1ad741461040357600080fd5b8063ead5d35914610359578063f364181c1461036c578063f3d470c21461037f57600080fd5b8063a388991b146102d1578063a6e08aa1146102d9578063b8c876b1146102ec578063bde12718146102ff578063bf27304114610326578063dbc5b4811461034657600080fd5b806364654cf51161013057806364654cf51461024657806367e4ac2c1461025c5780639198e5151461027157806393a94ca314610292578063976ce495146102b4578063a1dfa423146102c757600080fd5b8063151541f01461017857806322867d781461019657806338b51ce1146101be5780633edd1128146101e15780634521c019146101f45780634b8a352914610233575b600080fd5b61018061044b565b60405161018d91906146b3565b60405180910390f35b6101a96101a43660046146db565b61057e565b6040805192835260208301919091520161018d565b6101d16101cc366004614707565b610599565b604051901515815260200161018d565b6101a96101ef366004614732565b61064c565b61021b7f000000000000000000000000000000000000000000000000000000000000000081565b6040516001600160a01b03909116815260200161018d565b6101a96102413660046146db565b610669565b61024e610678565b60405161018d9291906147f4565b6102646107f8565b60405161018d9190614855565b61028461027f366004614707565b61085a565b60405190815260200161018d565b6102a56102a036600461494e565b61086b565b60405161018d93929190614a8b565b6101a96102c2366004614ac4565b61099f565b6102cf6109ae565b005b6102cf6109b8565b6101d16102e7366004614b05565b610b21565b6102846102fa366004614707565b610bec565b61021b7f000000000000000000000000000000000000000000000000000000000000000081565b610339610334366004614707565b610c77565b60405161018d9190614b3e565b6101a9610354366004614b4c565b610ce8565b6101a9610367366004614732565b610db7565b6101a961037a366004614b9d565b610dc7565b6101d161038d366004614b05565b610e98565b6103a56103a0366004614707565b610fde565b604080518251815260208084015190820152918101516001600160401b03169082015260600161018d565b6103e36103de366004614707565b61105e565b60405161018d9190614c1b565b6101a96103fe366004614c74565b61110e565b61042a7f000000000000000000000000000000000000000000000000000000000000000081565b6040516fffffffffffffffffffffffffffffffff909116815260200161018d565b606060006104576107f8565b905080516001600160401b0381111561047257610472614868565b60405190808252806020026020018201604052801561049b578160200160208202803683370190505b50915060007f00000000000000000000000000000000000000000000000000000000000000006001600160a01b0316638da5cb5b6040518163ffffffff1660e01b8152600401602060405180830381865afa1580156104fe573d6000803e3d6000fd5b505050506040513d601f19601f820116820180604052508101906105229190614cc7565b905060005b82518110156105785761055383828151811061054557610545614ce4565b602002602001015183611217565b84828151811061056557610565614ce4565b6020908102919091010152600101610527565b50505090565b60008061058d843333866112c7565b915091505b9250929050565b60006001600160a01b0382166105c257604051630b328ad960e31b815260040160405180910390fd5b6000806105cd610678565b915091506000806106406040518060a001604052807f00000000000000000000000000000000000000000000000000000000000000006001600160a01b03168152602001306001600160a01b03168152602001868152602001858152602001886001600160a01b03168152506001611493565b10159695505050505050565b60008061065c8533338787611602565b915091505b935093915050565b60008061058d84333386611b3c565b60608060028054806020026020016040519081016040528092919081815260200182805480156106d157602002820191906000526020600020905b81546001600160a01b031681526001909101906020018083116106b3575b5050505050915081516001600160401b038111156106f1576106f1614868565b60405190808252806020026020018201604052801561072a57816020015b610717614627565b81526020019060019003908161070f5790505b50905060005b82518110156107f3576003600084838151811061074f5761074f614ce4565b6020908102919091018101516001600160a01b039081168352828201939093526040918201600020825160c0810184528154851681526001820154851692810192909252600281015490931691810191909152600382015460608201526004820154608082015260059091015460a082015282518390839081106107d5576107d5614ce4565b602002602001018190525080806107eb90614d10565b915050610730565b509091565b6060600280548060200260200160405190810160405280929190818152602001828054801561085057602002820191906000526020600020905b81546001600160a01b03168152600190910190602001808311610832575b5050505050905090565b600061086582611e6a565b92915050565b60608060606108786107f8565b8551909350806001600160401b0381111561089557610895614868565b6040519080825280602002602001820160405280156108c857816020015b60608152602001906001900390816108b35790505b509250806001600160401b038111156108e3576108e3614868565b60405190808252806020026020018201604052801561091657816020015b60608152602001906001900390816109015790505b50915060005b81811015610996576109498588838151811061093a5761093a614ce4565b6020026020010151338961214b565b85838151811061095b5761095b614ce4565b6020026020010185848151811061097457610974614ce4565b602002602001018290528290525050808061098e90614d10565b91505061091c565b50509250925092565b60008061065c858533866112c7565b6109b6612389565b565b60007f00000000000000000000000000000000000000000000000000000000000000006001600160a01b031663296041ea6040518163ffffffff1660e01b8152600401600060405180830381865afa158015610a18573d6000803e3d6000fd5b505050506040513d6000823e601f3d908101601f19168201604052610a409190810190614d29565b905060005b8151811015610b15576000828281518110610a6257610a62614ce4565b602002602001015190507f00000000000000000000000000000000000000000000000000000000000000006001600160a01b0316816001600160a01b031614610b02576001600160a01b0381166000818152600460205260408082206002908101805460ff60401b19166802000000000000000017905590519092917f51efec4e8c6ee88d51e1ec000985e267b4296e493de77b4aa7a38315981390bf91a35b5080610b0d81614d10565b915050610a45565b50610b1e612389565b50565b6001600160a01b038281166000908152600360205260408082206002015490516370a0823160e01b81528484166004820152919216906370a0823190602401602060405180830381865afa158015610b7d573d6000803e3d6000fd5b505050506040513d601f19601f82011682018060405250810190610ba19190614db7565b158015610be5575060016001600160a01b0384166000908152600460205260409020600290810154600160401b900460ff1690811115610be357610be3614c05565b145b9392505050565b6001600160a01b03811660008181526003602052604080822060049081015491516370a0823160e01b81523091810191909152919290916370a0823190602401602060405180830381865afa158015610c49573d6000803e3d6000fd5b505050506040513d601f19601f82011682018060405250810190610c6d9190614db7565b6108659190614dd0565b610c7f614627565b506001600160a01b03908116600090815260036020818152604092839020835160c081018552815486168152600182015486169281019290925260028101549094169281019290925282015460608201526004820154608082015260059091015460a082015290565b6000807f00000000000000000000000000000000000000000000000000000000000000006001600160a01b031663f887ea406040518163ffffffff1660e01b8152600401602060405180830381865afa158015610d49573d6000803e3d6000fd5b505050506040513d601f19601f82011682018060405250810190610d6d9190614cc7565b6001600160a01b0316336001600160a01b031614610d9e57604051639e41bdd760e01b815260040160405180910390fd5b610daa86868686611b3c565b9150915094509492505050565b60008061065c85333387876125d3565b6000807f00000000000000000000000000000000000000000000000000000000000000006001600160a01b031663f887ea406040518163ffffffff1660e01b8152600401602060405180830381865afa158015610e28573d6000803e3d6000fd5b505050506040513d601f19601f82011682018060405250810190610e4c9190614cc7565b6001600160a01b0316336001600160a01b031614610e7d57604051639e41bdd760e01b815260040160405180910390fd5b610e8a87878787876125d3565b915091509550959350505050565b6001600160a01b03828116600090815260036020526040808220805491516370a0823160e01b81528585166004820152929390929116906370a0823190602401602060405180830381865afa158015610ef5573d6000803e3d6000fd5b505050506040513d601f19601f82011682018060405250810190610f199190614db7565b158015610f93575060018101546040516370a0823160e01b81526001600160a01b038581166004830152909116906370a0823190602401602060405180830381865afa158015610f6d573d6000803e3d6000fd5b505050506040513d601f19601f82011682018060405250810190610f919190614db7565b155b8015610fd6575060016001600160a01b0385166000908152600460205260409020600290810154600160401b900460ff1690811115610fd457610fd4614c05565b145b949350505050565b61100b6040518060600160405280600081526020016000815260200160006001600160401b031681525090565b506001600160a01b03166000818152600360208181526040808420815160608101835293810154845260050154838301529383526004905290829020600201546001600160401b03169181019190915290565b6110866040805160808101825260008082526020820181905291810182905290606082015290565b6001600160a01b0382166000908152600460209081526040918290208251608081018452815481526001820154928101929092526002808201546001600160401b03811694840194909452919290916060840191600160401b900460ff16908111156110f4576110f4614c05565b600281111561110557611105614c05565b90525092915050565b600080610daa8633878787611602565b60006001600160a01b03831615801590610be5575082826040518163ffffffff1660e01b8152600401602060405180830381865afa158015611164573d6000803e3d6000fd5b505050506040513d601f19601f820116820180604052508101906111889190614de7565b60e083901b6001600160e01b0319908116911614905092915050565b6040805160048152602481019091526020810180516001600160e01b031663313ce56760e01b179052600090819081906111df908590612731565b91509150816111f2575060009392505050565b808060200190518101906112069190614e11565b60ff16949350505050565b3b151590565b60006002600054036112445760405162461bcd60e51b815260040161123b90614e34565b60405180910390fd5b600260009081556001600160a01b0384168152600460205260409020805460018201546112719190614dd0565b9150600061127e85610bec565b90508083111561128c578092505b8260000361129f576000925050506112bc565b8154830182556112b96001600160a01b03861685856127e3565b50505b600160005592915050565b60008085816001600160a01b0382166000908152600460205260409020600290810154600160401b900460ff169081111561130457611304614c05565b03611322576040516367fa94e760e01b815260040160405180910390fd5b6002600054036113445760405162461bcd60e51b815260040161123b90614e34565b600260005561135287611e6a565b506001600160a01b0387166000908152600360205260409020611376818887612846565b9094509250600083900361139d5760405163faf4da9160e01b815260040160405180910390fd5b866001600160a01b0316886001600160a01b03167f05f2eeda0e08e4b437f487c8d7d29b14537d15e3488170dc3de5dbdf8dac4684866040516113e291815260200190565b60405180910390a36113ff6001600160a01b038916873087612980565b838160050160008282546114139190614dd0565b90915550506002810154604051632770a7eb60e21b81526001600160a01b0389811660048301526024820186905290911690639dc29fac90604401600060405180830381600087803b15801561146857600080fd5b505af115801561147c573d6000803e3d6000fd5b505050505060016000819055505094509492505050565b60008060006114a1856129be565b90506114ac81612ada565b6000036114c0576000809250925050610592565b600085600001516001600160a01b0316635ddf2be36040518163ffffffff1660e01b8152600401602060405180830381865afa158015611504573d6000803e3d6000fd5b505050506040513d601f19601f820116820180604052508101906115289190614cc7565b9050600061153b82886040015185612b20565b9050600061154882612ada565b905080600003611562576000809550955050505050610592565b600061156e848a612d3b565b9050600061157b82612ada565b90508060000361159957600019600097509750505050505050610592565b60006115b48b600001518c602001518d604001518d87612d59565b9050816115c9670de0b6b3a764000086614e6b565b6115d39190614ea0565b9850816115e8670de0b6b3a764000083614e6b565b6115f29190614ea0565b9750505050505050509250929050565b6000806002600054036116275760405162461bcd60e51b815260040161123b90614e34565b60026000558661163681611e6a565b506116418887610b21565b61165e5760405163206e46bd60e21b815260040160405180910390fd5b6001600160a01b0388166000908152600360205260408120869450908561168957816003015461168f565b81600401545b9050851561179f5761171c818360010160009054906101000a90046001600160a01b03166001600160a01b03166318160ddd6040518163ffffffff1660e01b8152600401602060405180830381865afa1580156116f0573d6000803e3d6000fd5b505050506040513d601f19601f820116820180604052508101906117149190614db7565b899190612df0565b93506117288782614eb4565b60048381019190915560018301546040516340c10f1960e01b81526001600160a01b038b811693820193909352602481018790529116906340c10f1990604401600060405180830381600087803b15801561178257600080fd5b505af1158015611796573d6000803e3d6000fd5b5050505061186f565b6117f8818360000160009054906101000a90046001600160a01b03166001600160a01b03166318160ddd6040518163ffffffff1660e01b8152600401602060405180830381865afa1580156116f0573d6000803e3d6000fd5b93506118048782614eb4565b600383015581546040516340c10f1960e01b81526001600160a01b038a8116600483015260248201879052909116906340c10f1990604401600060405180830381600087803b15801561185657600080fd5b505af115801561186a573d6000803e3d6000fd5b505050505b6118846001600160a01b038b168a308a612980565b6040805188815287151560208201526001600160a01b03808b1692908d16917fdd160bb401ec5b5e5ca443d41e8e7182f3fe72d70a04b9c0ba844483d212bcb5910160405180910390a3505060007f00000000000000000000000000000000000000000000000000000000000000006001600160a01b0316635ddf2be36040518163ffffffff1660e01b8152600401602060405180830381865afa158015611930573d6000803e3d6000fd5b505050506040513d601f19601f820116820180604052508101906119549190614cc7565b6001600160a01b03831660009081526003602081905260408220600481015491810154939450926119859190614eb4565b604051630968252160e11b81523060048201526001600160a01b0386811660248301529192507f0000000000000000000000000000000000000000000000000000000000000000909116906312d04a4290604401602060405180830381865afa1580156119f6573d6000803e3d6000fd5b505050506040513d601f19601f82011682018060405250810190611a1a9190614db7565b846001600160a01b031663313ce5676040518163ffffffff1660e01b8152600401602060405180830381865afa158015611a58573d6000803e3d6000fd5b505050506040513d601f19601f82011682018060405250810190611a7c9190614e11565b611a8790600a614fb0565b6040516341976e0960e01b81526001600160a01b0387811660048301528491908716906341976e0990602401602060405180830381865afa158015611ad0573d6000803e3d6000fd5b505050506040513d601f19601f82011682018060405250810190611af49190614db7565b611afe9190614e6b565b611b089190614ea0565b1115611b275760405163221e43cf60e11b815260040160405180910390fd5b50506001600055509197909650945050505050565b600080600260005403611b615760405162461bcd60e51b815260040161123b90614e34565b6002600055611b6f86611e6a565b50611b7a8686610e98565b611b97576040516301c08c7960e11b815260040160405180910390fd5b82611ba187610bec565b1015611bc057604051634323a55560e01b815260040160405180910390fd5b600060036000886001600160a01b03166001600160a01b03168152602001908152602001600020905060008160050154905060007f00000000000000000000000000000000000000000000000000000000000000006001600160a01b031663072ea61c6040518163ffffffff1660e01b8152600401602060405180830381865afa158015611c52573d6000803e3d6000fd5b505050506040513d601f19601f82011682018060405250810190611c769190614db7565b905060008115611ca257670de0b6b3a7640000611c938389614e6b565b611c9d9190614ea0565b611ca5565b60005b9050611d35838560020160009054906101000a90046001600160a01b03166001600160a01b03166318160ddd6040518163ffffffff1660e01b8152600401602060405180830381865afa158015611d00573d6000803e3d6000fd5b505050506040513d601f19601f82011682018060405250810190611d249190614db7565b611d2e848b614eb4565b9190612e4d565b879650945080611d458785614eb4565b611d4f9190614eb4565b60058501556001600160a01b038a1660009081526004602052604081206001018054839290611d7f908490614eb4565b909155505060028401546040516340c10f1960e01b81526001600160a01b038b8116600483015260248201889052909116906340c10f1990604401600060405180830381600087803b158015611dd457600080fd5b505af1158015611de8573d6000803e3d6000fd5b50505050886001600160a01b03168a6001600160a01b03167f312a5e5e1079f5dda4e95dbbd0b908b291fd5b992ef22073643ab691572c5b5289604051611e3191815260200190565b60405180910390a3611e4d6001600160a01b038b1689896127e3565b611e5689612ea8565b505060016000555091969095509350505050565b6040516344cf3e9360e01b81523060048201526001600160a01b0382811660248301526000917f0000000000000000000000000000000000000000000000000000000000000000909116906344cf3e9390604401602060405180830381865afa158015611edb573d6000803e3d6000fd5b505050506040513d601f19601f82011682018060405250810190611eff9190614fbf565b15611f1d576040516313d0ff5960e31b815260040160405180910390fd5b6001600160a01b0382166000908152600360209081526040808320600490925282206002810154919290916001600160401b031690819003611f805750600201805467ffffffffffffffff1916426001600160401b031617905550600092915050565b428103611f9257506000949350505050565b6000611f9d86612f52565b60405162f704bf60e21b81526001600160a01b03888116600483015242602483015291909116906303dc12fc906044016020604051808303816000875af1158015611fec573d6000803e3d6000fd5b505050506040513d601f19601f820116820180604052508101906120109190614db7565b905060007f00000000000000000000000000000000000000000000000000000000000000006001600160a01b03166325ed3d446040518163ffffffff1660e01b8152600401602060405180830381865afa158015612072573d6000803e3d6000fd5b505050506040513d601f19601f820116820180604052508101906120969190614db7565b600586015460018601549192509060008080670de0b6b3a76400006120bb8887614e6b565b6120c59190614ea0565b9a50670de0b6b3a7640000868c020491508184019250838310156120ed576000199250831991505b50808a036120fb8b86614eb4565b60058b015560038a0154612110908290614eb4565b60039a909a01999099555060018701555050506002909201805467ffffffffffffffff1916426001600160401b031617905550919392505050565b60608060026001540361217157604051634fe29f1760e01b815260040160405180910390fd5b600260015561217f85610599565b156121d557600086516001600160401b0381111561219f5761219f614868565b6040519080825280602002602001820160405280156121c8578160200160208202803683370190505b50925082915061237a9050565b6121e0868686612fe7565b60405163e7b43da560e01b815291935091506001600160a01b0385169063e7b43da5906122199088908a90879087908a90600401615034565b600060405180830381600087803b15801561223357600080fd5b505af1158015612247573d6000803e3d6000fd5b5050505060005b86518110156123535782818151811061226957612269614ce4565b6020026020010151600014158061229a575081818151811061228d5761228d614ce4565b6020026020010151600014155b1561234157856001600160a01b03168782815181106122bb576122bb614ce4565b60200260200101516001600160a01b03167ff3fa0eaee8f258c23b013654df25d1527f98a5c7ccd5e951dd77caca400ef9728484815181106122ff576122ff614ce4565b602002602001015186858151811061231957612319614ce4565b6020026020010151604051612338929190918252602082015260400190565b60405180910390a35b8061234b81614d10565b91505061224e565b5061235d85610599565b61237a5760405163e081c8f360e01b815260040160405180910390fd5b60018055909590945092505050565b60007f00000000000000000000000000000000000000000000000000000000000000006001600160a01b031663cc1fdf166040518163ffffffff1660e01b8152600401602060405180830381865afa1580156123e9573d6000803e3d6000fd5b505050506040513d601f19601f8201168201806040525081019061240d9190614cc7565b6001600160a01b037f000000000000000000000000000000000000000000000000000000000000000081166000908152600360205260409020549192501661247b5761247b817f0000000000000000000000000000000000000000000000000000000000000000600061323f565b60007f00000000000000000000000000000000000000000000000000000000000000006001600160a01b031663ee306a346040518163ffffffff1660e01b8152600401600060405180830381865afa1580156124db573d6000803e3d6000fd5b505050506040513d6000823e601f3d908101601f191682016040526125039190810190614d29565b905060005b81518110156125ce57600082828151811061252557612525614ce4565b6020908102919091018101516001600160a01b038082166000908152600390935260409092205490925016612565576125608482600161323f565b6125bb565b6001600160a01b038116600081815260046020526040808220600201805460ff60401b1916600160401b17905551600192917f51efec4e8c6ee88d51e1ec000985e267b4296e493de77b4aa7a38315981390bf91a35b50806125c681614d10565b915050612508565b505050565b6000806002600054036125f85760405162461bcd60e51b815260040161123b90614e34565b6002600090815587906001600160a01b0382166000908152600460205260409020600290810154600160401b900460ff169081111561263957612639614c05565b03612657576040516367fa94e760e01b815260040160405180910390fd5b61266088611e6a565b50612670888689898860006134a8565b909350915060008390036126975760405163faf4da9160e01b815260040160405180910390fd5b6126a087610599565b6126bd5760405163e081c8f360e01b815260040160405180910390fd5b856001600160a01b0316876001600160a01b0316896001600160a01b03167f3b5f15635b488fe265654176726b3222080f3d6500a562f4664233b3ea2f028386886040516127179291909182521515602082015260400190565b60405180910390a450600160005590969095509350505050565b60006060833b612754576040516373d39f9d60e01b815260040160405180910390fd5b600080856001600160a01b03168560405161276f9190615092565b600060405180830381855afa9150503d80600081146127aa576040519150601f19603f3d011682016040523d82523d6000602084013e6127af565b606091505b5091509150816127d657600060405180602001604052806000815250935093505050610592565b6001969095509350505050565b6040516001600160a01b0383166024820152604481018290526125ce90849063a9059cbb60e01b906064015b60408051601f198184030181529190526020810180516001600160e01b03166001600160e01b031990931692909217909152613745565b60028301546040516370a0823160e01b81526001600160a01b03848116600483015260009283928392909116906370a0823190602401602060405180830381865afa158015612899573d6000803e3d6000fd5b505050506040513d601f19601f820116820180604052508101906128bd9190614db7565b905060008660020160009054906101000a90046001600160a01b03166001600160a01b03166318160ddd6040518163ffffffff1660e01b8152600401602060405180830381865afa158015612916573d6000803e3d6000fd5b505050506040513d601f19601f8201168201806040525081019061293a9190614db7565b6005880154909150600061294f848385613817565b905080871061296357809550839450612974565b869550612971868385612df0565b94505b50505050935093915050565b6040516001600160a01b03808516602483015283166044820152606481018290526129b89085906323b872dd60e01b9060840161280f565b50505050565b6060816060015151826040015151146129ea5760405163dba17af560e01b815260040160405180910390fd5b8160400151516001600160401b03811115612a0757612a07614868565b604051908082528060200260200182016040528015612a30578160200160208202803683370190505b50905060005b826040015151811015612ad4576000612a768460200151856000015186604001518581518110612a6857612a68614ce4565b602002602001015142613857565b9050612aa484606001518381518110612a9157612a91614ce4565b6020026020010151856080015183613955565b838381518110612ab657612ab6614ce4565b60209081029190910101525080612acc81614d10565b915050612a36565b50919050565b6000805b8251811015612ad457828181518110612af957612af9614ce4565b602002602001015182612b0c9190614eb4565b915080612b1881614d10565b915050612ade565b60608151835114612b445760405163dba17af560e01b815260040160405180910390fd5b82516001600160401b03811115612b5d57612b5d614868565b604051908082528060200260200182016040528015612b86578160200160208202803683370190505b50905060005b8351811015612d3357828181518110612ba757612ba7614ce4565b602002602001015160000315612d21576000856001600160a01b03166341976e09868481518110612bda57612bda614ce4565b60200260200101516040518263ffffffff1660e01b8152600401612c0d91906001600160a01b0391909116815260200190565b602060405180830381865afa158015612c2a573d6000803e3d6000fd5b505050506040513d601f19601f82011682018060405250810190612c4e9190614db7565b90506000858381518110612c6457612c64614ce4565b60200260200101516001600160a01b031663313ce5676040518163ffffffff1660e01b8152600401602060405180830381865afa158015612ca9573d6000803e3d6000fd5b505050506040513d601f19601f82011682018060405250810190612ccd9190614e11565b9050612d00828260ff16878681518110612ce957612ce9614ce4565b6020026020010151613a619092919063ffffffff16565b848481518110612d1257612d12614ce4565b60200260200101818152505050505b80612d2b81614d10565b915050612b8c565b509392505050565b60606000612d4883613a82565b9050610fd684846040015183612b20565b60008151845114612d7d5760405163dba17af560e01b815260040160405180910390fd5b60005b8451811015612de657612dc88787878481518110612da057612da0614ce4565b602002602001015187878681518110612dbb57612dbb614ce4565b6020026020010151613cd4565b612dd29083614eb4565b915080612dde81614d10565b915050612d80565b5095945050505050565b6000811580612dfd575082155b15612e09575082610be5565b600083612e168487614e6b565b612e209190614ea0565b905080158015612e2f57508415155b15610fd657604051639811e0c760e01b815260040160405180910390fd5b6000811580612e5a575082155b15612e66575082610be5565b6000612e728386614e6b565b90506000612e808583614ea0565b9050612e8c85836150ae565b15612e9f57612e9c600182614eb4565b90505b95945050505050565b600080612eb3610678565b91509150600080612f266040518060a001604052807f00000000000000000000000000000000000000000000000000000000000000006001600160a01b03168152602001306001600160a01b03168152602001868152602001858152602001876001600160a01b03168152506000611493565b9150915080821115612f4b57604051630655b2eb60e31b815260040160405180910390fd5b5050505050565b60405163122cfaaf60e21b81523060048201526001600160a01b0382811660248301526000917f0000000000000000000000000000000000000000000000000000000000000000909116906348b3eabc90604401602060405180830381865afa158015612fc3573d6000803e3d6000fd5b505050506040513d601f19601f820116820180604052508101906108659190614cc7565b82516060908190806001600160401b0381111561300657613006614868565b60405190808252806020026020018201604052801561302f578160200160208202803683370190505b509250806001600160401b0381111561304a5761304a614868565b604051908082528060200260200182016040528015613073578160200160208202803683370190505b50915060007f00000000000000000000000000000000000000000000000000000000000000006001600160a01b031663eafecffa6040518163ffffffff1660e01b8152600401602060405180830381865afa1580156130d6573d6000803e3d6000fd5b505050506040513d601f19601f820116820180604052508101906130fa9190614db7565b905060005b828110156132345761312988828151811061311c5761311c614ce4565b6020026020010151611e6a565b506000600360008a848151811061314257613142614ce4565b60200260200101516001600160a01b03166001600160a01b0316815260200190815260200160002090506131798189600019612846565b5085838151811061318c5761318c614ce4565b60200260200101818152505060006131c48a84815181106131af576131af614ce4565b60200260200101516000198b8b6001896134a8565b50905060006131f38b85815181106131de576131de614ce4565b60200260200101516000198c8c60008a6134a8565b5090506132008183614eb4565b88858151811061321257613212614ce4565b602002602001018181525050505050808061322c90614d10565b9150506130ff565b505050935093915050565b600061324b8383613df9565b6001600160a01b03808516600090815260036020908152604091829020845191850151925163f8f38d1b60e01b8152949550939288169263f8f38d1b92613297929189906004016150c2565b6020604051808303816000875af11580156132b6573d6000803e3d6000fd5b505050506040513d601f19601f820116820180604052508101906132da9190614cc7565b81546001600160a01b0319166001600160a01b039182161782556040838101516060850151915163f8f38d1b60e01b81529288169263f8f38d1b92613324929189906004016150c2565b6020604051808303816000875af1158015613343573d6000803e3d6000fd5b505050506040513d601f19601f820116820180604052508101906133679190614cc7565b6001820180546001600160a01b0319166001600160a01b03928316179055608083015160a0840151604051633b0eb45d60e21b81529288169263ec3ad174926133b692909189906004016150c2565b6020604051808303816000875af11580156133d5573d6000803e3d6000fd5b505050506040513d601f19601f820116820180604052508101906133f99190614cc7565b600282810180546001600160a01b039384166001600160a01b0319918216179091558154600181810184557f405787fa12a823e0f2b7631cc41b3ba8828b3321ca811111fa75cd3aa3bb5ace9091018054948916949092168417909155600083815260046020526040808220909301805460ff60401b1916600160401b17905591519092917f51efec4e8c6ee88d51e1ec000985e267b4296e493de77b4aa7a38315981390bf91a35050505050565b60008060008060006134ba8b8861406d565b9250925092506000198a036135aa576040516370a0823160e01b81526001600160a01b038a811660048301528316906370a0823190602401602060405180830381865afa15801561350f573d6000803e3d6000fd5b505050506040513d601f19601f820116820180604052508101906135339190614db7565b93506135a383836001600160a01b03166318160ddd6040518163ffffffff1660e01b8152600401602060405180830381865afa158015613577573d6000803e3d6000fd5b505050506040513d601f19601f8201168201806040525081019061359b9190614db7565b8691906140d8565b945061361e565b61361883836001600160a01b03166318160ddd6040518163ffffffff1660e01b8152600401602060405180830381865afa1580156135ec573d6000803e3d6000fd5b505050506040513d601f19601f820116820180604052508101906136109190614db7565b8c9190612e4d565b93508994505b84600003613635576000809450945050505061373a565b8483101561365657604051631648a98f60e31b815260040160405180910390fd5b848303925060006136688c8789614136565b90508082101561368b57604051634323a55560e01b815260040160405180910390fd5b6001600160a01b038c16600090815260036020526040902088156136b557600481018590556136bd565b600381018590555b604051632770a7eb60e21b81526001600160a01b038c8116600483015260248201889052851690639dc29fac90604401600060405180830381600087803b15801561370757600080fd5b505af115801561371b573d6000803e3d6000fd5b50613734925050506001600160a01b038e168b846127e3565b50505050505b965096945050505050565b600061379a826040518060400160405280602081526020017f5361666545524332303a206c6f772d6c6576656c2063616c6c206661696c6564815250856001600160a01b03166141969092919063ffffffff16565b8051909150156125ce57808060200190518101906137b89190614fbf565b6125ce5760405162461bcd60e51b815260206004820152602a60248201527f5361666545524332303a204552433230206f7065726174696f6e20646964206e6044820152691bdd081cdd58d8d9595960b21b606482015260840161123b565b6000811580613824575082155b1561383157506000610be5565b600061383d8486614e6b565b9050600061384b8483614ea0565b9050612e8c84836150ae565b60405163122cfaaf60e21b81526001600160a01b038581166004830152838116602483015260009182918616906348b3eabc90604401602060405180830381865afa1580156138aa573d6000803e3d6000fd5b505050506040513d601f19601f820116820180604052508101906138ce9190614cc7565b60405163b1e0176560e01b81526001600160a01b0388811660048301528681166024830152604482018690529192509082169063b1e0176590606401602060405180830381865afa158015613927573d6000803e3d6000fd5b505050506040513d601f19601f8201168201806040525081019061394b9190614db7565b9695505050505050565b60408084015190516370a0823160e01b81526001600160a01b03848116600483015260009283929116906370a0823190602401602060405180830381865afa1580156139a5573d6000803e3d6000fd5b505050506040513d601f19601f820116820180604052508101906139c99190614db7565b9050806000036139dd576000915050610be5565b60006139ed8660a00151856141a5565b905061394b8187604001516001600160a01b03166318160ddd6040518163ffffffff1660e01b8152600401602060405180830381865afa158015613a35573d6000803e3d6000fd5b505050506040513d601f19601f82011682018060405250810190613a599190614db7565b849190613817565b6000613a6e82600a615100565b613a788486614e6b565b610fd69190614ea0565b606081606001515182604001515114613aae5760405163dba17af560e01b815260040160405180910390fd5b8160400151516001600160401b03811115613acb57613acb614868565b604051908082528060200260200182016040528015613af4578160200160208202803683370190505b50905060005b826040015151811015612ad457600083606001518281518110613b1f57613b1f614ce4565b60209081029190910101515160808501516040516370a0823160e01b81526001600160a01b0391821660048201529116906370a0823190602401602060405180830381865afa158015613b76573d6000803e3d6000fd5b505050506040513d601f19601f82011682018060405250810190613b9a9190614db7565b9050600084606001518381518110613bb457613bb4614ce4565b602090810291909101810151015160808601516040516370a0823160e01b81526001600160a01b0391821660048201529116906370a0823190602401602060405180830381865afa158015613c0d573d6000803e3d6000fd5b505050506040513d601f19601f82011682018060405250810190613c319190614db7565b9050613c3d8183614eb4565b600003613c4b575050613cc2565b6000613c708660200151876000015188604001518781518110612a6857612a68614ce4565b9050613ca086606001518581518110613c8b57613c8b614ce4565b60200260200101518484848a600001516141ce565b858581518110613cb257613cb2614ce4565b6020026020010181815250505050505b80613ccc81614d10565b915050613afa565b60008080846001811115613cea57613cea614c05565b03613d69576040516330be9d2560e21b81526001600160a01b038781166004830152868116602483015288169063c2fa7494906044015b602060405180830381865afa158015613d3e573d6000803e3d6000fd5b505050506040513d601f19601f82011682018060405250810190613d629190614db7565b9050613dd1565b6001846001811115613d7d57613d7d614c05565b03613db857604051630ca4db1160e21b81526001600160a01b03878116600483015286811660248301528816906332936c4490604401613d21565b6040516353c3731560e01b815260040160405180910390fd5b670de0b6b3a7640000613de48285614e6b565b613dee9190614ea0565b979650505050505050565b613e326040518060c001604052806060815260200160608152602001606081526020016060815260200160608152602001606081525090565b6000613e3d84614334565b90506040518060c0016040528082604051602001613e5b919061510c565b604051602081830303815290604052815260200182604051602001613e809190615163565b604051602081830303815290604052815260200182604051602001613ea5919061518c565b604051602081830303815290604052815260200182604051602001613eca91906151e3565b604051602081830303815290604052815260200182604051602001613eef919061520d565b604051602081830303815290604052815260200182604051602001613f149190615251565b60405160208183030381529060405281525091508215614066576000613f597f0000000000000000000000000000000000000000000000000000000000000000614334565b8351604051919250613f6f91839060200161526d565b60408051601f198184030181529181529084526020848101519151613f9792918491016152be565b6040516020818303038152906040528360200181905250826040015181604051602001613fc592919061526d565b6040516020818303038152906040528360400181905250826060015181604051602001613ff39291906152be565b604051602081830303815290604052836060018190525082608001518160405160200161402192919061526d565b60405160208183030381529060405283608001819052508260a001518160405160200161404f9291906152be565b60408051601f1981840301815291905260a0840152505b5092915050565b6001600160a01b03821660009081526003602052604081208190819084156140af57600481015460018201549094506001600160a01b031692508391506140d0565b600381015481549094506001600160a01b031692506140cd86610bec565b91505b509250925092565b60008115806140e5575082155b156140f257506000610be5565b6000826140ff8587614e6b565b6141099190614ea0565b90508015801561411857508415155b15610fd657604051630cb65c7760e21b815260040160405180910390fd5b600081600003614147575081610be5565b6001600160a01b03841660009081526004602052604081206001015461416e9085856143d2565b6001600160a01b03871660009081526004602052604090206001015584039150509392505050565b6060610fd684846000856143fe565b6000670de0b6b3a76400006141ba8385614e6b565b6141c49190614ea0565b610be59084614eb4565b60008085156142bd576142b861424a8860600151856001600160a01b03166325ed3d446040518163ffffffff1660e01b8152600401602060405180830381865afa158015614220573d6000803e3d6000fd5b505050506040513d601f19601f820116820180604052508101906142449190614db7565b8761451b565b88600001516001600160a01b03166318160ddd6040518163ffffffff1660e01b8152600401602060405180830381865afa15801561428c573d6000803e3d6000fd5b505050506040513d601f19601f820116820180604052508101906142b09190614db7565b8891906140d8565b6142c0565b60005b90506000851561431957614314886080015189602001516001600160a01b03166318160ddd6040518163ffffffff1660e01b8152600401602060405180830381865afa15801561428c573d6000803e3d6000fd5b61431c565b60005b90506143288183614eb4565b98975050505050505050565b6040805160048152602481019091526020810180516001600160e01b03166395d89b4160e01b1790526060906000908190614370908590612731565b9150915081158061438057508051155b156143a55750506040805180820190915260018152603f60f81b602082015292915050565b60208151036143b757610fd68161456f565b80806020019051810190610fd691906152fa565b5050919050565b670de0b6b3a764000081830204600081198511156143f35750600019610661565b509392840192915050565b60608247101561445f5760405162461bcd60e51b815260206004820152602660248201527f416464726573733a20696e73756666696369656e742062616c616e636520666f6044820152651c8818d85b1b60d21b606482015260840161123b565b843b6144ad5760405162461bcd60e51b815260206004820152601d60248201527f416464726573733a2063616c6c20746f206e6f6e2d636f6e7472616374000000604482015260640161123b565b600080866001600160a01b031685876040516144c99190615092565b60006040518083038185875af1925050503d8060008114614506576040519150601f19603f3d011682016040523d82523d6000602084013e61450b565b606091505b5091509150613dee8282866145ee565b60008061453084670de0b6b3a7640000614dd0565b9050670de0b6b3a764000081816145478689614e6b565b6145519190614ea0565b61455b9190614e6b565b6145659190614ea0565b612e9f9086614eb4565b805160609060005b818110156143cb5783818151811061459157614591614ce4565b01602001516001600160f81b031916156145e657828482815181106145b8576145b8614ce4565b602001015160f81c60f81b6040516020016145d4929190615367565b60405160208183030381529060405292505b600101614577565b606083156145fd575081610be5565b82511561460d5782518084602001fd5b8160405162461bcd60e51b815260040161123b9190615396565b6040518060c0016040528060006001600160a01b0316815260200160006001600160a01b0316815260200160006001600160a01b031681526020016000815260200160008152602001600081525090565b600081518084526020808501945080840160005b838110156146a85781518752958201959082019060010161468c565b509495945050505050565b602081526000610be56020830184614678565b6001600160a01b0381168114610b1e57600080fd5b600080604083850312156146ee57600080fd5b82356146f9816146c6565b946020939093013593505050565b60006020828403121561471957600080fd5b8135610be5816146c6565b8015158114610b1e57600080fd5b60008060006060848603121561474757600080fd5b8335614752816146c6565b925060208401359150604084013561476981614724565b809150509250925092565b600081518084526020808501945080840160005b838110156146a85781516001600160a01b031687529582019590820190600101614788565b80516001600160a01b03908116835260208083015182169084015260408083015190911690830152606080820151908301526080808201519083015260a090810151910152565b6040815260006148076040830185614774565b82810360208481019190915284518083528582019282019060005b81811015614848576148358386516147ad565b9383019360c09290920191600101614822565b5090979650505050505050565b602081526000610be56020830184614774565b634e487b7160e01b600052604160045260246000fd5b604051601f8201601f191681016001600160401b03811182821017156148a6576148a6614868565b604052919050565b60006001600160401b038211156148c7576148c7614868565b5060051b60200190565b60006001600160401b038211156148ea576148ea614868565b50601f01601f191660200190565b600082601f83011261490957600080fd5b813561491c614917826148d1565b61487e565b81815284602083860101111561493157600080fd5b816020850160208301376000918101602001919091529392505050565b6000806040838503121561496157600080fd5b82356001600160401b038082111561497857600080fd5b818501915085601f83011261498c57600080fd5b8135602061499c614917836148ae565b82815260059290921b840181019181810190898411156149bb57600080fd5b948201945b838610156149e25785356149d3816146c6565b825294820194908201906149c0565b965050860135925050808211156149f857600080fd5b50614a05858286016148f8565b9150509250929050565b600081518084526020808501808196508360051b810191508286016000805b86811015614a7d578385038a52825180518087529087019087870190845b81811015614a6857835183529289019291890191600101614a4c565b50509a87019a95505091850191600101614a2e565b509298975050505050505050565b606081526000614a9e6060830186614774565b8281036020840152614ab08186614a0f565b9050828103604084015261394b8185614a0f565b600080600060608486031215614ad957600080fd5b8335614ae4816146c6565b92506020840135614af4816146c6565b929592945050506040919091013590565b60008060408385031215614b1857600080fd5b8235614b23816146c6565b91506020830135614b33816146c6565b809150509250929050565b60c0810161086582846147ad565b60008060008060808587031215614b6257600080fd5b8435614b6d816146c6565b93506020850135614b7d816146c6565b92506040850135614b8d816146c6565b9396929550929360600135925050565b600080600080600060a08688031215614bb557600080fd5b8535614bc0816146c6565b94506020860135614bd0816146c6565b93506040860135614be0816146c6565b9250606086013591506080860135614bf781614724565b809150509295509295909350565b634e487b7160e01b600052602160045260246000fd5b600060808201905082518252602083015160208301526001600160401b036040840151166040830152606083015160038110614c6757634e487b7160e01b600052602160045260246000fd5b8060608401525092915050565b60008060008060808587031215614c8a57600080fd5b8435614c95816146c6565b93506020850135614ca5816146c6565b9250604085013591506060850135614cbc81614724565b939692955090935050565b600060208284031215614cd957600080fd5b8151610be5816146c6565b634e487b7160e01b600052603260045260246000fd5b634e487b7160e01b600052601160045260246000fd5b600060018201614d2257614d22614cfa565b5060010190565b60006020808385031215614d3c57600080fd5b82516001600160401b03811115614d5257600080fd5b8301601f81018513614d6357600080fd5b8051614d71614917826148ae565b81815260059190911b82018301908381019087831115614d9057600080fd5b928401925b82841015613dee578351614da8816146c6565b82529284019290840190614d95565b600060208284031215614dc957600080fd5b5051919050565b600082821015614de257614de2614cfa565b500390565b600060208284031215614df957600080fd5b81516001600160e01b031981168114610be557600080fd5b600060208284031215614e2357600080fd5b815160ff81168114610be557600080fd5b6020808252601f908201527f5265656e7472616e637947756172643a207265656e7472616e742063616c6c00604082015260600190565b6000816000190483118215151615614e8557614e85614cfa565b500290565b634e487b7160e01b600052601260045260246000fd5b600082614eaf57614eaf614e8a565b500490565b60008219821115614ec757614ec7614cfa565b500190565b600181815b80851115614f07578160001904821115614eed57614eed614cfa565b80851615614efa57918102915b93841c9390800290614ed1565b509250929050565b600082614f1e57506001610865565b81614f2b57506000610865565b8160018114614f415760028114614f4b57614f67565b6001915050610865565b60ff841115614f5c57614f5c614cfa565b50506001821b610865565b5060208310610133831016604e8410600b8410161715614f8a575081810a610865565b614f948383614ecc565b8060001904821115614fa857614fa8614cfa565b029392505050565b6000610be560ff841683614f0f565b600060208284031215614fd157600080fd5b8151610be581614724565b60005b83811015614ff7578181015183820152602001614fdf565b838111156129b85750506000910152565b60008151808452615020816020860160208601614fdc565b601f01601f19169290920160200192915050565b6001600160a01b038616815260a06020820181905260009061505890830187614774565b828103604084015261506a8187614678565b9050828103606084015261507e8186614678565b905082810360808401526143288185615008565b600082516150a4818460208701614fdc565b9190910192915050565b6000826150bd576150bd614e8a565b500690565b6060815260006150d56060830186615008565b82810360208401526150e78186615008565b91505060018060a01b0383166040830152949350505050565b6000610be58383614f0f565b7f53696c6f2046696e616e636520426f72726f7761626c65200000000000000000815260008251615144816018850160208701614fdc565b670811195c1bdcda5d60c21b6018939091019283015250602001919050565b607360f81b81526000825161517f816001850160208701614fdc565b9190910160010192915050565b7f53696c6f2046696e616e63652050726f746563746564200000000000000000008152600082516151c4816017850160208701614fdc565b670811195c1bdcda5d60c21b6017939091019283015250601f01919050565b61073760f41b815260008251615200816002850160208701614fdc565b9190910160020192915050565b6c029b4b637902334b730b731b29609d1b81526000825161523581600d850160208701614fdc565b64081119589d60da1b600d939091019283015250601201919050565b601960fa1b81526000825161517f816001850160208701614fdc565b6000835161527f818460208801614fdc565b6301034b7160e51b90830190815283516152a0816004840160208801614fdc565b642053696c6f60d81b60049290910191820152600901949350505050565b600083516152d0818460208801614fdc565b602d60f81b90830190815283516152ee816001840160208801614fdc565b01600101949350505050565b60006020828403121561530c57600080fd5b81516001600160401b0381111561532257600080fd5b8201601f8101841361533357600080fd5b8051615341614917826148d1565b81815285602083850101111561535657600080fd5b612e9f826020830160208601614fdc565b60008351615379818460208801614fdc565b6001600160f81b0319939093169190920190815260010192915050565b602081526000610be5602083018461500856fea2646970667358221220ff997d88fcdd4395a3c3ad5cff35a21ef8236fd96ecbb9fb8e0e6fe6b1a7806164736f6c634300080d0033a2646970667358221220f2b518ff4b3a1d219ce50b0abd2d415bee9a70061f3f413cba5fb529ec08138264736f6c634300080d0033",
  "devdoc": {
    "custom:security-contact": "security@silo.finance",
    "details": "Silo Factory is registered within SiloRepository contract and it's given a version. Each version is different Silo Factory that deploys different Silo implementation. Many Factory contracts can be registered with the Repository contract.",
    "kind": "dev",
    "methods": {
      "createSilo(address,uint128,bytes)": {
        "params": {
          "_data": "(optional) data that may be needed during silo creation",
          "_siloAsset": "unique asset for which Silo is deployed",
          "_version": "version of silo implementation"
        },
        "returns": {
          "silo": "deployed Silo address"
        }
      },
      "initRepository(address)": {
        "params": {
          "_siloRepository": "the SiloRepository to set"
        }
      },
      "siloFactoryPing()": {
        "details": "just a helper method to see if address is a factory"
      }
    },
    "title": "SiloFactory",
    "version": 1
  },
  "userdoc": {
    "events": {
      "NewSiloCreated(address,address,uint128)": {
        "notice": "Emitted when Silo is deployed"
      }
    },
    "kind": "user",
    "methods": {
      "createSilo(address,uint128,bytes)": {
        "notice": "Deploys Silo"
      },
      "initRepository(address)": {
        "notice": "Must be called by repository on constructor"
      }
    },
    "notice": "Silo Factory has one job, deploy Silo implementation",
    "version": 1
  },
  "storageLayout": {
    "storage": [
      {
        "astId": 12740,
        "contract": "contracts/SiloFactory.sol:SiloFactory",
        "label": "siloRepository",
        "offset": 0,
        "slot": "0",
        "type": "t_address"
      }
    ],
    "types": {
      "t_address": {
        "encoding": "inplace",
        "label": "address",
        "numberOfBytes": "20"
      }
    }
  }
}