{
  "address": "0x240A30427E765464A5428eF6A2028e17B079d319",
  "abi": [
    {
      "inputs": [
        {
          "internalType": "address",
          "name": "_factory",
          "type": "address"
        }
      ],
      "stateMutability": "nonpayable",
      "type": "constructor"
    },
    {
      "anonymous": false,
      "inputs": [
        {
          "indexed": true,
          "internalType": "address",
          "name": "silo",
          "type": "address"
        },
        {
          "indexed": true,
          "internalType": "address",
          "name": "user",
          "type": "address"
        },
        {
          "indexed": false,
          "internalType": "uint256",
          "name": "amount",
          "type": "uint256"
        }
      ],
      "name": "Borrow",
      "type": "event"
    },
    {
      "anonymous": false,
      "inputs": [
        {
          "indexed": true,
          "internalType": "address",
          "name": "silo",
          "type": "address"
        },
        {
          "indexed": true,
          "internalType": "address",
          "name": "user",
          "type": "address"
        },
        {
          "indexed": false,
          "internalType": "uint256",
          "name": "amount",
          "type": "uint256"
        }
      ],
      "name": "Deposit",
      "type": "event"
    },
    {
      "anonymous": false,
      "inputs": [
        {
          "indexed": true,
          "internalType": "address",
          "name": "silo",
          "type": "address"
        },
        {
          "indexed": true,
          "internalType": "address",
          "name": "_user",
          "type": "address"
        },
        {
          "indexed": false,
          "internalType": "uint256",
          "name": "amountRepaid",
          "type": "uint256"
        },
        {
          "indexed": false,
          "internalType": "uint256",
          "name": "seizedCollateral",
          "type": "uint256"
        }
      ],
      "name": "Liquidate",
      "type": "event"
    },
    {
      "anonymous": false,
      "inputs": [
        {
          "indexed": true,
          "internalType": "address",
          "name": "silo",
          "type": "address"
        },
        {
          "indexed": true,
          "internalType": "address",
          "name": "user",
          "type": "address"
        },
        {
          "indexed": false,
          "internalType": "uint256",
          "name": "amount",
          "type": "uint256"
        }
      ],
      "name": "Repay",
      "type": "event"
    },
    {
      "anonymous": false,
      "inputs": [
        {
          "indexed": true,
          "internalType": "address",
          "name": "silo",
          "type": "address"
        },
        {
          "indexed": true,
          "internalType": "address",
          "name": "user",
          "type": "address"
        },
        {
          "indexed": false,
          "internalType": "uint256",
          "name": "amount",
          "type": "uint256"
        }
      ],
      "name": "Withdraw",
      "type": "event"
    },
    {
      "inputs": [],
      "name": "BASIS_POINTS",
      "outputs": [
        {
          "internalType": "uint256",
          "name": "",
          "type": "uint256"
        }
      ],
      "stateMutability": "view",
      "type": "function"
    },
    {
      "inputs": [],
      "name": "DECIMAL_POINTS",
      "outputs": [
        {
          "internalType": "uint256",
          "name": "",
          "type": "uint256"
        }
      ],
      "stateMutability": "view",
      "type": "function"
    },
    {
      "inputs": [],
      "name": "INFINITY",
      "outputs": [
        {
          "internalType": "uint256",
          "name": "",
          "type": "uint256"
        }
      ],
      "stateMutability": "view",
      "type": "function"
    },
    {
      "inputs": [
        {
          "internalType": "address",
          "name": "_silo",
          "type": "address"
        }
      ],
      "name": "accrueInterest",
      "outputs": [],
      "stateMutability": "nonpayable",
      "type": "function"
    },
    {
      "inputs": [
        {
          "internalType": "address",
          "name": "_silo",
          "type": "address"
        },
        {
          "internalType": "string",
          "name": "_name",
          "type": "string"
        },
        {
          "internalType": "string",
          "name": "_symbol",
          "type": "string"
        }
      ],
      "name": "addSilo",
      "outputs": [],
      "stateMutability": "nonpayable",
      "type": "function"
    },
    {
      "inputs": [],
      "name": "asset",
      "outputs": [
        {
          "internalType": "address",
          "name": "",
          "type": "address"
        }
      ],
      "stateMutability": "view",
      "type": "function"
    },
    {
      "inputs": [
        {
          "internalType": "address",
          "name": "_silo",
          "type": "address"
        },
        {
          "internalType": "address",
          "name": "_user",
          "type": "address"
        }
      ],
      "name": "balanceOfUnderlying",
      "outputs": [
        {
          "internalType": "uint256",
          "name": "",
          "type": "uint256"
        }
      ],
      "stateMutability": "view",
      "type": "function"
    },
    {
      "inputs": [
        {
          "internalType": "address",
          "name": "_silo",
          "type": "address"
        },
        {
          "internalType": "uint256",
          "name": "_amount",
          "type": "uint256"
        }
      ],
      "name": "borrow",
      "outputs": [],
      "stateMutability": "nonpayable",
      "type": "function"
    },
    {
      "inputs": [
        {
          "internalType": "address",
          "name": "_silo",
          "type": "address"
        },
        {
          "internalType": "address",
          "name": "_user",
          "type": "address"
        },
        {
          "internalType": "address",
          "name": "_to",
          "type": "address"
        },
        {
          "internalType": "uint256",
          "name": "_amount",
          "type": "uint256"
        }
      ],
      "name": "borrowFor",
      "outputs": [],
      "stateMutability": "nonpayable",
      "type": "function"
    },
    {
      "inputs": [],
      "name": "bridgeERC20Implementation",
      "outputs": [
        {
          "internalType": "address",
          "name": "",
          "type": "address"
        }
      ],
      "stateMutability": "view",
      "type": "function"
    },
    {
      "inputs": [
        {
          "internalType": "uint256",
          "name": "_amount",
          "type": "uint256"
        }
      ],
      "name": "calcFee",
      "outputs": [
        {
          "internalType": "uint256",
          "name": "",
          "type": "uint256"
        }
      ],
      "stateMutability": "view",
      "type": "function"
    },
    {
      "inputs": [
        {
          "internalType": "uint256",
          "name": "_protocolFees",
          "type": "uint256"
        },
        {
          "internalType": "uint256",
          "name": "_totalDeposits",
          "type": "uint256"
        },
        {
          "internalType": "uint256",
          "name": "_totalInterestsForDeltaTime",
          "type": "uint256"
        }
      ],
      "name": "calculateInterestShares",
      "outputs": [
        {
          "internalType": "uint256",
          "name": "newProtocolFees",
          "type": "uint256"
        },
        {
          "internalType": "uint256",
          "name": "newTotalDeposits",
          "type": "uint256"
        }
      ],
      "stateMutability": "view",
      "type": "function"
    },
    {
      "inputs": [
        {
          "internalType": "address",
          "name": "_silo",
          "type": "address"
        },
        {
          "internalType": "uint256",
          "name": "_amount",
          "type": "uint256"
        }
      ],
      "name": "deposit",
      "outputs": [],
      "stateMutability": "nonpayable",
      "type": "function"
    },
    {
      "inputs": [
        {
          "internalType": "address",
          "name": "_silo",
          "type": "address"
        },
        {
          "internalType": "address",
          "name": "_user",
          "type": "address"
        },
        {
          "internalType": "uint256",
          "name": "_amount",
          "type": "uint256"
        }
      ],
      "name": "depositFor",
      "outputs": [],
      "stateMutability": "nonpayable",
      "type": "function"
    },
    {
      "inputs": [],
      "name": "factory",
      "outputs": [
        {
          "internalType": "contract ISiloFactory",
          "name": "",
          "type": "address"
        }
      ],
      "stateMutability": "view",
      "type": "function"
    },
    {
      "inputs": [
        {
          "internalType": "address",
          "name": "_silo",
          "type": "address"
        },
        {
          "internalType": "address",
          "name": "_user",
          "type": "address"
        }
      ],
      "name": "getBorrowAmountValue",
      "outputs": [
        {
          "internalType": "uint256",
          "name": "",
          "type": "uint256"
        }
      ],
      "stateMutability": "view",
      "type": "function"
    },
    {
      "inputs": [
        {
          "internalType": "address",
          "name": "_silo",
          "type": "address"
        },
        {
          "internalType": "address",
          "name": "_user",
          "type": "address"
        }
      ],
      "name": "getBorrowShare",
      "outputs": [
        {
          "internalType": "uint256",
          "name": "",
          "type": "uint256"
        }
      ],
      "stateMutability": "view",
      "type": "function"
    },
    {
      "inputs": [
        {
          "internalType": "address",
          "name": "_silo",
          "type": "address"
        },
        {
          "internalType": "address",
          "name": "_user",
          "type": "address"
        }
      ],
      "name": "getCollateralValue",
      "outputs": [
        {
          "internalType": "uint256",
          "name": "",
          "type": "uint256"
        }
      ],
      "stateMutability": "view",
      "type": "function"
    },
    {
      "inputs": [
        {
          "internalType": "address",
          "name": "_silo",
          "type": "address"
        },
        {
          "internalType": "address",
          "name": "_user",
          "type": "address"
        }
      ],
      "name": "getLTV",
      "outputs": [
        {
          "internalType": "uint256",
          "name": "",
          "type": "uint256"
        }
      ],
      "stateMutability": "view",
      "type": "function"
    },
    {
      "inputs": [
        {
          "internalType": "address",
          "name": "_silo",
          "type": "address"
        }
      ],
      "name": "getTotalDepositsUpdated",
      "outputs": [
        {
          "internalType": "uint256",
          "name": "_totalDeposits",
          "type": "uint256"
        }
      ],
      "stateMutability": "view",
      "type": "function"
    },
    {
      "inputs": [
        {
          "internalType": "address",
          "name": "_silo",
          "type": "address"
        },
        {
          "internalType": "address",
          "name": "_user",
          "type": "address"
        }
      ],
      "name": "isSolvent",
      "outputs": [
        {
          "internalType": "bool",
          "name": "",
          "type": "bool"
        }
      ],
      "stateMutability": "view",
      "type": "function"
    },
    {
      "inputs": [
        {
          "internalType": "address",
          "name": "_silo",
          "type": "address"
        },
        {
          "internalType": "address[]",
          "name": "_users",
          "type": "address[]"
        }
      ],
      "name": "liquidate",
      "outputs": [
        {
          "internalType": "uint256[]",
          "name": "",
          "type": "uint256[]"
        }
      ],
      "stateMutability": "nonpayable",
      "type": "function"
    },
    {
      "inputs": [],
      "name": "liquidity",
      "outputs": [
        {
          "internalType": "uint256",
          "name": "",
          "type": "uint256"
        }
      ],
      "stateMutability": "view",
      "type": "function"
    },
    {
      "inputs": [
        {
          "internalType": "address",
          "name": "_silo",
          "type": "address"
        },
        {
          "internalType": "uint256",
          "name": "_amount",
          "type": "uint256"
        }
      ],
      "name": "repay",
      "outputs": [],
      "stateMutability": "nonpayable",
      "type": "function"
    },
    {
      "inputs": [
        {
          "internalType": "address",
          "name": "_silo",
          "type": "address"
        },
        {
          "internalType": "address",
          "name": "_user",
          "type": "address"
        },
        {
          "internalType": "uint256",
          "name": "_amount",
          "type": "uint256"
        }
      ],
      "name": "repayFor",
      "outputs": [],
      "stateMutability": "nonpayable",
      "type": "function"
    },
    {
      "inputs": [
        {
          "internalType": "address",
          "name": "_user",
          "type": "address"
        },
        {
          "internalType": "address",
          "name": "_liquidator",
          "type": "address"
        }
      ],
      "name": "seizeCollateral",
      "outputs": [
        {
          "internalType": "uint256",
          "name": "",
          "type": "uint256"
        }
      ],
      "stateMutability": "nonpayable",
      "type": "function"
    },
    {
      "inputs": [
        {
          "internalType": "address",
          "name": "",
          "type": "address"
        }
      ],
      "name": "state",
      "outputs": [
        {
          "internalType": "contract BridgeERC20Upgradeable",
          "name": "token",
          "type": "address"
        },
        {
          "internalType": "uint256",
          "name": "totalDeposits",
          "type": "uint256"
        },
        {
          "internalType": "uint256",
          "name": "totalBorrowAmount",
          "type": "uint256"
        },
        {
          "internalType": "uint256",
          "name": "borrowAmountLastUpdateTimestamp",
          "type": "uint256"
        },
        {
          "internalType": "uint256",
          "name": "totalBorrowShare",
          "type": "uint256"
        },
        {
          "internalType": "uint256",
          "name": "interestRate",
          "type": "uint256"
        },
        {
          "internalType": "uint256",
          "name": "interestRateLastUpdateTimestamp",
          "type": "uint256"
        },
        {
          "internalType": "uint256",
          "name": "protocolFees",
          "type": "uint256"
        },
        {
          "internalType": "uint256",
          "name": "deposit",
          "type": "uint256"
        }
      ],
      "stateMutability": "view",
      "type": "function"
    },
    {
      "inputs": [
        {
          "internalType": "address",
          "name": "_silo",
          "type": "address"
        },
        {
          "internalType": "uint256",
          "name": "_amount",
          "type": "uint256"
        }
      ],
      "name": "withdraw",
      "outputs": [],
      "stateMutability": "nonpayable",
      "type": "function"
    },
    {
      "inputs": [
        {
          "internalType": "address",
          "name": "_silo",
          "type": "address"
        },
        {
          "internalType": "address",
          "name": "_user",
          "type": "address"
        },
        {
          "internalType": "uint256",
          "name": "_amount",
          "type": "uint256"
        }
      ],
      "name": "withdrawFor",
      "outputs": [],
      "stateMutability": "nonpayable",
      "type": "function"
    }
  ],
  "transactionHash": "0x030a5c1826a953f9d81ef09c7e8e0d76b35cc40dd03ae4ec8d6a3c5c372a9528",
  "args": [
    "0x012D960E091587A6075C8233FDEba7db87142923"
  ],
  "solcInputHash": "537831d942c1ab4870aa40f6dd7512c8",
  "bytecode": "0x60e06040523480156200001157600080fd5b5060405162004fa438038062004fa4833981016040819052620000349162000259565b60016000556001600160601b0319606082901b1660c052604080516304d8775560e41b815290516001600160a01b03831691634d877550916004808301926020929190829003018186803b1580156200008c57600080fd5b505afa158015620000a1573d6000803e3d6000fd5b505050506040513d601f19601f82011682018060405250810190620000c7919062000259565b600180546001600160a01b0319166001600160a01b039290921691821790556040805163313ce56760e01b8152905163313ce56791600480820192602092909190829003018186803b1580156200011d57600080fd5b505afa15801562000132573d6000803e3d6000fd5b505050506040513d601f19601f820116820180604052508101906200015891906200028b565b6200016590600a620002f9565b60a05260405160009062000179906200024b565b604051809103906000f08015801562000196573d6000803e3d6000fd5b506001546040516303bf912560e11b8152606060048201526006606482018190526542726964676560d01b608483015260a0602483015260a48201526562726964676560d01b60c48201526001600160a01b03918216604482015291925082169063077f224a9060e401600060405180830381600087803b1580156200021b57600080fd5b505af115801562000230573d6000803e3d6000fd5b5050505060601b6001600160601b03191660805250620003d0565b6115298062003a7b83390190565b6000602082840312156200026c57600080fd5b81516001600160a01b03811681146200028457600080fd5b9392505050565b6000602082840312156200029e57600080fd5b815160ff811681146200028457600080fd5b600181815b80851115620002f1578160001904821115620002d557620002d5620003ba565b80851615620002e357918102915b93841c9390800290620002b5565b509250929050565b60006200028460ff8416836000826200031557506001620003b4565b816200032457506000620003b4565b81600181146200033d5760028114620003485762000368565b6001915050620003b4565b60ff8411156200035c576200035c620003ba565b50506001821b620003b4565b5060208310610133831016604e8410600b84101617156200038d575081810a620003b4565b620003998383620002b0565b8060001904821115620003b057620003b0620003ba565b0290505b92915050565b634e487b7160e01b600052601160045260246000fd5b60805160601c60a05160c05160601c6135d4620004a76000396000818161047701528181610549015281816108d701528181610b3d01528181610e3301528181610f8e015281816110f1015281816111d2015281816112cb01528181611466015281816115f1015281816116c60152818161179d0152818161188a01528181611c4a01528181611cf001528181612035015281816120e6015281816124a8015261255001526000818161049e01528181610d6201528181611425015261219b0152600081816104ed015261065f01526135d46000f3fe608060405234801561001057600080fd5b50600436106101ce5760003560e01c806375dc7d8c11610104578063b3db428b116100a2578063d5a9b34811610071578063d5a9b348146104e8578063dbc5b4811461050f578063e1f1c4a714610522578063f3fef3a31461052b57600080fd5b8063b3db428b1461045f578063c45a015514610472578063ce47696f14610499578063d2ecda0e146104c057600080fd5b8063980f9689116100de578063980f9689146103dc5780639f1d9267146103ef578063a00a103414610402578063b02b54091461043f57600080fd5b806375dc7d8c146103a35780639198e515146103b6578063976ce495146103c957600080fd5b806338d52e0f116101715780634b8a35291161014b5780634b8a352914610351578063590630f0146103645780635f48f44b14610387578063680f43b11461039057600080fd5b806338d52e0f146103005780633d6d44511461032b57806347e7ef241461033e57600080fd5b80631d5f143e116101ad5780631d5f143e146102165780631eee3aa31461022957806322867d781461023c57806331e658a51461024f57600080fd5b8062ebe350146101d35780631a686502146101e85780631be655e814610203575b600080fd5b6101e66101e13660046130e2565b61053e565b005b6101f061070e565b6040519081526020015b60405180910390f35b6101f0610211366004612f49565b61078f565b6101f0610224366004612f49565b6108bf565b6101f0610237366004612f49565b610b0f565b6101e661024a366004613158565b610da0565b6102b261025d366004612f0f565b60026020819052600091825260409091208054600182015492820154600383015460048401546005850154600686015460078701546008909701546001600160a01b0390961697969495939492939192909189565b604080516001600160a01b03909a168a5260208a0198909852968801959095526060870193909352608086019190915260a085015260c084015260e0830152610100820152610120016101fa565b600154610313906001600160a01b031681565b6040516001600160a01b0390911681526020016101fa565b6101f0610339366004612f0f565b610db1565b6101e661034c366004613158565b610df5565b6101e661035f366004613158565b610e05565b610377610372366004612f49565b610f13565b60405190151581526020016101fa565b6101f060001981565b6101f061039e366004612f49565b611027565b6101f06103b1366004613236565b6110ec565b6101e66103c4366004612f0f565b6111ae565b6101e66103d7366004612fd3565b6111d0565b6101f06103ea366004612f49565b61129d565b6101e66103fd366004612fd3565b611464565b6101f0610410366004612f49565b6001600160a01b0391821660009081526002602090815260408083209390941682526009909201909152205490565b61045261044d366004613014565b611530565b6040516101fa919061330b565b6101e661046d366004612fd3565b6115ef565b6103137f000000000000000000000000000000000000000000000000000000000000000081565b6101f07f000000000000000000000000000000000000000000000000000000000000000081565b6104d36104ce366004613268565b6116bc565b604080519283526020830191909152016101fa565b6103137f000000000000000000000000000000000000000000000000000000000000000081565b6101e661051d366004612f82565b61179b565b6101f061271081565b6101e6610539366004613158565b61196c565b336001600160a01b037f000000000000000000000000000000000000000000000000000000000000000016146105bb5760405162461bcd60e51b815260206004820152601b60248201527f53696c6f427269646765506f6f6c3a206f6e6c79466163746f7279000000000060448201526064015b60405180910390fd5b6001600160a01b03831660009081526002602090815260408083208151808301835260078152660213934b233b2960cd1b81850152915190939261060292918791016132dc565b60405160208183030381529060405290506000604051806040016040528060078152602001666272696467652d60c81b815250846040516020016106479291906132dc565b604051602081830303815290604052905060006106837f0000000000000000000000000000000000000000000000000000000000000000611977565b6040516303bf912560e11b81529091506001600160a01b0382169063077f224a906106b690869086908c90600401613362565b600060405180830381600087803b1580156106d057600080fd5b505af11580156106e4573d6000803e3d6000fd5b505085546001600160a01b0319166001600160a01b03939093169290921790945550505050505050565b6001546040516370a0823160e01b81523060048201526000916001600160a01b0316906370a082319060240160206040518083038186803b15801561075257600080fd5b505afa158015610766573d6000803e3d6000fd5b505050506040513d601f19601f8201168201806040525081019061078a919061324f565b905090565b6001600160a01b03828116600090815260026020526040808220805491516370a0823160e01b81528585166004820152929390928492909116906370a082319060240160206040518083038186803b1580156107ea57600080fd5b505afa1580156107fe573d6000803e3d6000fd5b505050506040513d601f19601f82011682018060405250810190610822919061324f565b90506108b461083086610db1565b8354604080516318160ddd60e01b815290516001600160a01b03909216916318160ddd91600480820192602092909190829003018186803b15801561087457600080fd5b505afa158015610888573d6000803e3d6000fd5b505050506040513d601f19601f820116820180604052508101906108ac919061324f565b839190611a14565b925050505b92915050565b60405163025e1b9b60e31b81523360048201526000907f00000000000000000000000000000000000000000000000000000000000000006001600160a01b0316906312f0dcd89060240160206040518083038186803b15801561092157600080fd5b505afa158015610935573d6000803e3d6000fd5b505050506040513d601f19601f820116820180604052508101906109599190613184565b6109a55760405162461bcd60e51b815260206004820152601860248201527f53696c6f427269646765506f6f6c3a206f6e6c7953696c6f000000000000000060448201526064016105b2565b33600090815260026020526040808220805491516370a0823160e01b81526001600160a01b03878116600483015291939291909116906370a082319060240160206040518083038186803b1580156109fc57600080fd5b505afa158015610a10573d6000803e3d6000fd5b505050506040513d601f19601f82011682018060405250810190610a34919061324f565b82546040516333bebb7760e01b81526001600160a01b0388811660048301528781166024830152604482018490529293509116906333bebb7790606401602060405180830381600087803b158015610a8b57600080fd5b505af1158015610a9f573d6000803e3d6000fd5b505050506040513d601f19601f82011682018060405250810190610ac39190613184565b5060018201548254604080516318160ddd60e01b815290516108b493926001600160a01b0316916318160ddd916004808301926020929190829003018186803b15801561087457600080fd5b60008060026000856001600160a01b03166001600160a01b03168152602001908152602001600020905060007f00000000000000000000000000000000000000000000000000000000000000006001600160a01b0316637dc0d1d06040518163ffffffff1660e01b815260040160206040518083038186803b158015610b9457600080fd5b505afa158015610ba8573d6000803e3d6000fd5b505050506040513d601f19601f82011682018060405250810190610bcc9190612f2c565b6001546040516341976e0960e01b81526001600160a01b039182166004820152919250600091908316906341976e099060240160206040518083038186803b158015610c1757600080fd5b505afa158015610c2b573d6000803e3d6000fd5b505050506040513d601f19601f82011682018060405250810190610c4f919061324f565b90506000610d5e610c5f88610db1565b8554604080516318160ddd60e01b815290516001600160a01b03909216916318160ddd91600480820192602092909190829003018186803b158015610ca357600080fd5b505afa158015610cb7573d6000803e3d6000fd5b505050506040513d601f19601f82011682018060405250810190610cdb919061324f565b86546040516370a0823160e01b81526001600160a01b038b81166004830152909116906370a082319060240160206040518083038186803b158015610d1f57600080fd5b505afa158015610d33573d6000803e3d6000fd5b505050506040513d601f19601f82011682018060405250810190610d57919061324f565b9190611a14565b90507f0000000000000000000000000000000000000000000000000000000000000000610d8b83836134c7565b610d9591906134a5565b979650505050505050565b610dac82333384611a4b565b505050565b6001600160a01b038116600090815260026020526040812081610dd382611bea565b9050610dec826007015483600101548360a001516116bc565b95945050505050565b610e0182333384611e2d565b5050565b813383610e11816111ae565b610e1d853333876122a8565b50604051632f341ddf60e11b81523060048201527f00000000000000000000000000000000000000000000000000000000000000006001600160a01b031690635e683bbe9060240160206040518083038186803b158015610e7d57600080fd5b505afa158015610e91573d6000803e3d6000fd5b505050506040513d601f19601f82011682018060405250810190610eb5919061324f565b610ebf8383611027565b1115610f0d5760405162461bcd60e51b815260206004820152601a60248201527f53696c6f427269646765506f6f6c3a206d6178696d756d4c545600000000000060448201526064016105b2565b50505050565b60006001600160a01b038216610f765760405162461bcd60e51b815260206004820152602260248201527f53696c6f427269646765506f6f6c3a207573657220213d206164647265737328604482015261302960f01b60648201526084016105b2565b604051631ee1b90b60e21b81523060048201526000907f00000000000000000000000000000000000000000000000000000000000000006001600160a01b031690637b86e42c9060240160206040518083038186803b158015610fd857600080fd5b505afa158015610fec573d6000803e3d6000fd5b505050506040513d601f19601f82011682018060405250810190611010919061324f565b90508061101d8585611027565b1115949350505050565b600080611034848461129d565b9050806110455760009150506108b9565b604051634bc8272160e11b81526001600160a01b038481166004830152600091908616906397904e429060240160206040518083038186803b15801561108a57600080fd5b505afa15801561109e573d6000803e3d6000fd5b505050506040513d601f19601f820116820180604052508101906110c2919061324f565b9050806110d557600019925050506108b9565b806110e2612710846134c7565b6108b491906134a5565b6000807f00000000000000000000000000000000000000000000000000000000000000006001600160a01b031663072ea61c6040518163ffffffff1660e01b815260040160206040518083038186803b15801561114857600080fd5b505afa15801561115c573d6000803e3d6000fd5b505050506040513d601f19601f82011682018060405250810190611180919061324f565b9050806111905750600092915050565b61271061119d82856134c7565b6111a791906134a5565b9392505050565b6001600160a01b0381166000908152600260205260409020610e018142612479565b7f00000000000000000000000000000000000000000000000000000000000000006001600160a01b031663f887ea406040518163ffffffff1660e01b815260040160206040518083038186803b15801561122957600080fd5b505afa15801561123d573d6000803e3d6000fd5b505050506040513d601f19601f820116820180604052508101906112619190612f2c565b6001600160a01b0316336001600160a01b0316146112915760405162461bcd60e51b81526004016105b2906133a0565b610f0d83833384611a4b565b60008060026000856001600160a01b03166001600160a01b03168152602001908152602001600020905060007f00000000000000000000000000000000000000000000000000000000000000006001600160a01b0316637dc0d1d06040518163ffffffff1660e01b815260040160206040518083038186803b15801561132257600080fd5b505afa158015611336573d6000803e3d6000fd5b505050506040513d601f19601f8201168201806040525081019061135a9190612f2c565b9050600061136783611bea565b60208082015160048601546001600160a01b0389166000908152600988019093526040832054939450919261139e92909190611a14565b6001546040516341976e0960e01b81526001600160a01b039182166004820152919250600091908516906341976e099060240160206040518083038186803b1580156113e957600080fd5b505afa1580156113fd573d6000803e3d6000fd5b505050506040513d601f19601f82011682018060405250810190611421919061324f565b90507f000000000000000000000000000000000000000000000000000000000000000061144e82846134c7565b61145891906134a5565b98975050505050505050565b7f00000000000000000000000000000000000000000000000000000000000000006001600160a01b031663f887ea406040518163ffffffff1660e01b815260040160206040518083038186803b1580156114bd57600080fd5b505afa1580156114d1573d6000803e3d6000fd5b505050506040513d601f19601f820116820180604052508101906114f59190612f2c565b6001600160a01b0316336001600160a01b0316146115255760405162461bcd60e51b81526004016105b2906133a0565b610dac8383836126da565b60608261153c816111ae565b6000835167ffffffffffffffff81111561155857611558613570565b604051908082528060200260200182016040528015611581578160200160208202803683370190505b50845190915060005b818110156115e4576115b5878783815181106115a8576115a861355a565b6020026020010151612a82565b8382815181106115c7576115c761355a565b6020908102919091010152806115dc81613529565b91505061158a565b509095945050505050565b7f00000000000000000000000000000000000000000000000000000000000000006001600160a01b031663f887ea406040518163ffffffff1660e01b815260040160206040518083038186803b15801561164857600080fd5b505afa15801561165c573d6000803e3d6000fd5b505050506040513d601f19601f820116820180604052508101906116809190612f2c565b6001600160a01b0316336001600160a01b0316146116b05760405162461bcd60e51b81526004016105b2906133a0565b610dac83833384611e2d565b60008060006127107f00000000000000000000000000000000000000000000000000000000000000006001600160a01b03166325ed3d446040518163ffffffff1660e01b815260040160206040518083038186803b15801561171d57600080fd5b505afa158015611731573d6000803e3d6000fd5b505050506040513d601f19601f82011682018060405250810190611755919061324f565b61175f90866134c7565b61176991906134a5565b9050600061177782866134e6565b9050611783828861348d565b935061178f818761348d565b92505050935093915050565b7f00000000000000000000000000000000000000000000000000000000000000006001600160a01b031663f887ea406040518163ffffffff1660e01b815260040160206040518083038186803b1580156117f457600080fd5b505afa158015611808573d6000803e3d6000fd5b505050506040513d601f19601f8201168201806040525081019061182c9190612f2c565b6001600160a01b0316336001600160a01b03161461185c5760405162461bcd60e51b81526004016105b2906133a0565b838385611868816111ae565b611874878787876122a8565b50604051632f341ddf60e11b81523060048201527f00000000000000000000000000000000000000000000000000000000000000006001600160a01b031690635e683bbe9060240160206040518083038186803b1580156118d457600080fd5b505afa1580156118e8573d6000803e3d6000fd5b505050506040513d601f19601f8201168201806040525081019061190c919061324f565b6119168383611027565b11156119645760405162461bcd60e51b815260206004820152601a60248201527f53696c6f427269646765506f6f6c3a206d6178696d756d4c545600000000000060448201526064016105b2565b505050505050565b610e018233836126da565b6000604051733d602d80600a3d3981f3363d3d373d3d3d363d7360601b81528260601b60148201526e5af43d82803e903d91602b57fd5bf360881b60288201526037816000f09150506001600160a01b038116611a0f5760405162461bcd60e51b8152602060048201526016602482015275115490cc4c4d8dce8818dc99585d194819985a5b195960521b60448201526064016105b2565b919050565b6000811580611a21575082155b15611a2e575060006111a7565b81611a3984866134c7565b611a4391906134a5565b949350505050565b600060026000541415611a705760405162461bcd60e51b81526004016105b2906133d7565b600260005584611a7f816111ae565b6001600160a01b038616600090815260026020526040812090600019851415611ada57506001600160a01b038616600090815260098201602052604090205460028201546004830154611ad3918391611a14565b9450611af2565b60028201546004830154611aef918791612c13565b90505b6001600160a01b038716600090815260098301602052604081208054839290611b1c9084906134e6565b9250508190555080826004016000828254611b3791906134e6565b9250508190555084826002016000828254611b5291906134e6565b9250508190555084826008016000828254611b6d919061348d565b92505081905550866001600160a01b0316886001600160a01b03167f05f2eeda0e08e4b437f487c8d7d29b14537d15e3488170dc3de5dbdf8dac468487604051611bb991815260200190565b60405180910390a3600154611bd9906001600160a01b0316873088612c37565b505060016000555090949350505050565b611c3260405180610100016040528060008152602001600081526020016000815260200160008152602001600081526020016000815260200160008152602001600081525090565b60405163b67ae54f60e01b81523060048201526000907f00000000000000000000000000000000000000000000000000000000000000006001600160a01b03169063b67ae54f9060240160206040518083038186803b158015611c9457600080fd5b505afa158015611ca8573d6000803e3d6000fd5b505050506040513d601f19601f82011682018060405250810190611ccc9190612f2c565b9050806001600160a01b031663c894a0716040518060e001604052804281526020017f00000000000000000000000000000000000000000000000000000000000000006001600160a01b03166325ed3d446040518163ffffffff1660e01b815260040160206040518083038186803b158015611d4757600080fd5b505afa158015611d5b573d6000803e3d6000fd5b505050506040513d601f19601f82011682018060405250810190611d7f919061324f565b611d8b906127106134e6565b81526020018660010154815260200186600201548152602001866003015481526020018660050154815260200186600601548152506040518263ffffffff1660e01b8152600401611ddc919061340e565b6101006040518083038186803b158015611df557600080fd5b505afa158015611e09573d6000803e3d6000fd5b505050506040513d601f19601f820116820180604052508101906111a791906131a6565b60026000541415611e505760405162461bcd60e51b81526004016105b2906133d7565b600260005583611e5f816111ae565b846000611e6a61070e565b600154909150611e85906001600160a01b0316863087612c37565b6000611e8f61070e565b6001600160a01b0389166000908152600260205260409020909150611eb483836134e6565b60018201548254604080516318160ddd60e01b81529051939950600093611f4593926001600160a01b0316916318160ddd916004808301926020929190829003018186803b158015611f0557600080fd5b505afa158015611f19573d6000803e3d6000fd5b505050506040513d601f19601f82011682018060405250810190611f3d919061324f565b899190612c13565b905086826001016000828254611f5b919061348d565b9250508190555086826008016000828254611f76919061348d565b909155505081546040516340c10f1960e01b81526001600160a01b038b8116600483015260248201849052909116906340c10f1990604401600060405180830381600087803b158015611fc857600080fd5b505af1158015611fdc573d6000803e3d6000fd5b50505050886001600160a01b03168a6001600160a01b03167f5548c837ab068cf56a2c2479df0882a4922fd203edb7517321831d95078c5f628960405161202591815260200190565b60405180910390a35050505060007f00000000000000000000000000000000000000000000000000000000000000006001600160a01b0316637dc0d1d06040518163ffffffff1660e01b815260040160206040518083038186803b15801561208c57600080fd5b505afa1580156120a0573d6000803e3d6000fd5b505050506040513d601f19601f820116820180604052508101906120c49190612f2c565b604051635c8610b960e01b81526001600160a01b0384811660048301529192507f000000000000000000000000000000000000000000000000000000000000000090911690635c8610b99060240160206040518083038186803b15801561212a57600080fd5b505afa15801561213e573d6000803e3d6000fd5b505050506040513d601f19601f82011682018060405250810190612162919061324f565b6001600160a01b0383811660009081526002602052604090819020600190810154905491516341976e0960e01b815291831660048301527f0000000000000000000000000000000000000000000000000000000000000000929091908516906341976e099060240160206040518083038186803b1580156121e257600080fd5b505afa1580156121f6573d6000803e3d6000fd5b505050506040513d601f19601f8201168201806040525081019061221a919061324f565b61222491906134c7565b61222e91906134a5565b111561229a5760405162461bcd60e51b815260206004820152603560248201527f53696c6f427269646765506f6f6c3a20746f74616c206465706f7369747320656044820152741e18d95959081b1a5c5d5a591a5d1e481b1a5b5a5d605a1b60648201526084016105b2565b505060016000555050505050565b600260005414156122cb5760405162461bcd60e51b81526004016105b2906133d7565b600260008181556001600160a01b038616815260209190915260409020600881015482111561233c5760405162461bcd60e51b815260206004820152601c60248201527f53696c6f4272696467653a206465706f7369742073686f72746167650000000060448201526064016105b2565b6000612347836110ec565b9050600061236b836002015484600401548487612364919061348d565b9190612c13565b6001600160a01b038716600090815260098501602052604081208054929350839290919061239a90849061348d565b92505081905550808360040160008282546123b5919061348d565b909155506123c59050828561348d565b8360020160008282546123d8919061348d565b92505081905550818360070160008282546123f3919061348d565b925050819055508383600801600082825461240e91906134e6565b92505081905550856001600160a01b0316876001600160a01b03167f312a5e5e1079f5dda4e95dbbd0b908b291fd5b992ef22073643ab691572c5b528660405161245a91815260200190565b60405180910390a360015461229a906001600160a01b03168686612ca2565b60038201548181141561248b57505050565b600183015460405163b67ae54f60e01b81523060048201526000907f00000000000000000000000000000000000000000000000000000000000000006001600160a01b03169063b67ae54f9060240160206040518083038186803b1580156124f257600080fd5b505afa158015612506573d6000803e3d6000fd5b505050506040513d601f19601f8201168201806040525081019061252a9190612f2c565b90506000816001600160a01b031663c894a0716040518060e001604052808881526020017f00000000000000000000000000000000000000000000000000000000000000006001600160a01b03166325ed3d446040518163ffffffff1660e01b815260040160206040518083038186803b1580156125a757600080fd5b505afa1580156125bb573d6000803e3d6000fd5b505050506040513d601f19601f820116820180604052508101906125df919061324f565b6125eb906127106134e6565b8152602001868152602001896002015481526020018781526020018960050154815260200189600601548152506040518263ffffffff1660e01b8152600401612634919061340e565b6101006040518083038186803b15801561264d57600080fd5b505afa158015612661573d6000803e3d6000fd5b505050506040513d601f19601f8201168201806040525081019061268591906131a6565b60208101516002880155604081015160038801556060810151600588015560808101516006880155600787015460a08201519192506126c59185906116bc565b60018801556007909601959095555050505050565b600260005414156126fd5760405162461bcd60e51b81526004016105b2906133d7565b600260005582828161270e816111ae565b6001600160a01b03861660009081526002602052604081209060001986141561280e5781546040516370a0823160e01b81526001600160a01b038981166004830152909116906370a082319060240160206040518083038186803b15801561277557600080fd5b505afa158015612789573d6000803e3d6000fd5b505050506040513d601f19601f820116820180604052508101906127ad919061324f565b905061280782600101548360000160009054906101000a90046001600160a01b03166001600160a01b03166318160ddd6040518163ffffffff1660e01b815260040160206040518083038186803b15801561087457600080fd5b955061289c565b60018201548254604080516318160ddd60e01b8152905161289993926001600160a01b0316916318160ddd916004808301926020929190829003018186803b15801561285957600080fd5b505afa15801561286d573d6000803e3d6000fd5b505050506040513d601f19601f82011682018060405250810190612891919061324f565b889190612c13565b90505b858260010160008282546128b091906134e6565b92505081905550858260080160008282546128cb91906134e6565b90915550508154604051632770a7eb60e21b81526001600160a01b0389811660048301526024820184905290911690639dc29fac90604401600060405180830381600087803b15801561291d57600080fd5b505af1158015612931573d6000803e3d6000fd5b50505050866001600160a01b0316886001600160a01b03167f9b1bfa7fa9ee420a16e124f794c35ac9f90472acc99140eb2f6447c714cad8eb8860405161297a91815260200190565b60405180910390a3600154612999906001600160a01b03168888612ca2565b50506040516338b51ce160e01b81526001600160a01b038381166004830152841691506338b51ce19060240160206040518083038186803b1580156129dd57600080fd5b505afa1580156129f1573d6000803e3d6000fd5b505050506040513d601f19601f82011682018060405250810190612a159190613184565b612a765760405162461bcd60e51b815260206004820152602c60248201527f53696c6f427269646765506f6f6c3a206e6f7420736f6c76656e7420696e207360448201526b34b637903837b9b4ba34b7b760a11b60648201526084016105b2565b50506001600055505050565b600060026000541415612aa75760405162461bcd60e51b81526004016105b2906133d7565b6002600055612ab68383610f13565b15612ac357506000612c08565b6000612ad3848433600019611a4b565b604051630eaf8a1f60e11b81526001600160a01b03858116600483015233602483015291925090851690631d5f143e90604401602060405180830381600087803b158015612b2057600080fd5b505af1158015612b34573d6000803e3d6000fd5b505050506040513d601f19601f82011682018060405250810190612b58919061324f565b9150826001600160a01b0316846001600160a01b03167ff3fa0eaee8f258c23b013654df25d1527f98a5c7ccd5e951dd77caca400ef9728385604051612ba8929190918252602082015260400190565b60405180910390a3612bba8484610f13565b612c065760405162461bcd60e51b815260206004820181905260248201527f53696c6f427269646765506f6f6c3a2075736572206e6f7420736f6c76656e7460448201526064016105b2565b505b600160005592915050565b6000811580612c20575082155b15612c2c5750826111a7565b82611a3983866134c7565b6040516001600160a01b0380851660248301528316604482015260648101829052610f0d9085906323b872dd60e01b906084015b60408051601f198184030181529190526020810180516001600160e01b03166001600160e01b031990931692909217909152612cd2565b6040516001600160a01b038316602482015260448101829052610dac90849063a9059cbb60e01b90606401612c6b565b6000612d27826040518060400160405280602081526020017f5361666545524332303a206c6f772d6c6576656c2063616c6c206661696c6564815250856001600160a01b0316612da49092919063ffffffff16565b805190915015610dac5780806020019051810190612d459190613184565b610dac5760405162461bcd60e51b815260206004820152602a60248201527f5361666545524332303a204552433230206f7065726174696f6e20646964206e6044820152691bdd081cdd58d8d9595960b21b60648201526084016105b2565b6060611a43848460008585843b612dfd5760405162461bcd60e51b815260206004820152601d60248201527f416464726573733a2063616c6c20746f206e6f6e2d636f6e747261637400000060448201526064016105b2565b600080866001600160a01b03168587604051612e1991906132c0565b60006040518083038185875af1925050503d8060008114612e56576040519150601f19603f3d011682016040523d82523d6000602084013e612e5b565b606091505b5091509150610d9582828660608315612e755750816111a7565b825115612e855782518084602001fd5b8160405162461bcd60e51b81526004016105b2919061334f565b600082601f830112612eb057600080fd5b813567ffffffffffffffff811115612eca57612eca613570565b612edd601f8201601f191660200161345c565b818152846020838601011115612ef257600080fd5b816020850160208301376000918101602001919091529392505050565b600060208284031215612f2157600080fd5b81356111a781613586565b600060208284031215612f3e57600080fd5b81516111a781613586565b60008060408385031215612f5c57600080fd5b8235612f6781613586565b91506020830135612f7781613586565b809150509250929050565b60008060008060808587031215612f9857600080fd5b8435612fa381613586565b93506020850135612fb381613586565b92506040850135612fc381613586565b9396929550929360600135925050565b600080600060608486031215612fe857600080fd5b8335612ff381613586565b9250602084013561300381613586565b929592945050506040919091013590565b6000806040838503121561302757600080fd5b823561303281613586565b915060208381013567ffffffffffffffff8082111561305057600080fd5b818601915086601f83011261306457600080fd5b81358181111561307657613076613570565b8060051b915061308784830161345c565b8181528481019084860184860187018b10156130a257600080fd5b600095505b838610156130d157803594506130bc85613586565b848352600195909501949186019186016130a7565b508096505050505050509250929050565b6000806000606084860312156130f757600080fd5b833561310281613586565b9250602084013567ffffffffffffffff8082111561311f57600080fd5b61312b87838801612e9f565b9350604086013591508082111561314157600080fd5b5061314e86828701612e9f565b9150509250925092565b6000806040838503121561316b57600080fd5b823561317681613586565b946020939093013593505050565b60006020828403121561319657600080fd5b815180151581146111a757600080fd5b60006101008083850312156131ba57600080fd5b6040519081019067ffffffffffffffff821181831017156131dd576131dd613570565b81604052835181526020840151602082015260408401516040820152606084015160608201526080840151608082015260a084015160a082015260c084015160c082015260e084015160e0820152809250505092915050565b60006020828403121561324857600080fd5b5035919050565b60006020828403121561326157600080fd5b5051919050565b60008060006060848603121561327d57600080fd5b505081359360208301359350604090920135919050565b600081518084526132ac8160208601602086016134fd565b601f01601f19169290920160200192915050565b600082516132d28184602087016134fd565b9190910192915050565b600083516132ee8184602088016134fd565b8351908301906133028183602088016134fd565b01949350505050565b6020808252825182820181905260009190848201906040850190845b8181101561334357835183529284019291840191600101613327565b50909695505050505050565b6020815260006111a76020830184613294565b6060815260006133756060830186613294565b82810360208401526133878186613294565b91505060018060a01b0383166040830152949350505050565b6020808252601a908201527f53696c6f427269646765506f6f6c3a206f6e6c79526f75746572000000000000604082015260600190565b6020808252601f908201527f5265656e7472616e637947756172643a207265656e7472616e742063616c6c00604082015260600190565b600060e082019050825182526020830151602083015260408301516040830152606083015160608301526080830151608083015260a083015160a083015260c083015160c083015292915050565b604051601f8201601f1916810167ffffffffffffffff8111828210171561348557613485613570565b604052919050565b600082198211156134a0576134a0613544565b500190565b6000826134c257634e487b7160e01b600052601260045260246000fd5b500490565b60008160001904831182151516156134e1576134e1613544565b500290565b6000828210156134f8576134f8613544565b500390565b60005b83811015613518578181015183820152602001613500565b83811115610f0d5750506000910152565b600060001982141561353d5761353d613544565b5060010190565b634e487b7160e01b600052601160045260246000fd5b634e487b7160e01b600052603260045260246000fd5b634e487b7160e01b600052604160045260246000fd5b6001600160a01b038116811461359b57600080fd5b5056fea2646970667358221220345673eb0c2abd4f970f75652230114eebcee1451c305c7d74e741d732cc580a64736f6c63430008070033608060405234801561001057600080fd5b50611509806100206000396000f3fe608060405234801561001057600080fd5b50600436106101425760003560e01c8063715018a6116100b8578063a457c2d71161007c578063a457c2d714610296578063a9059cbb146102a9578063dd62ed3e146102bc578063e30c3978146102f5578063eb3beb2914610306578063f2fde38b1461031957600080fd5b8063715018a61461024657806379ba50971461024e5780638da5cb5b1461025657806395d89b411461027b5780639dc29fac1461028357600080fd5b8063313ce5671161010a578063313ce567146101c25780633278c694146101d157806333bebb77146101e457806339509351146101f757806340c10f191461020a57806370a082311461021d57600080fd5b806306fdde0314610147578063077f224a14610165578063095ea7b31461017a57806318160ddd1461019d57806323b872dd146101af575b600080fd5b61014f61032c565b60405161015c9190611365565b60405180910390f35b6101786101733660046112f1565b6103be565b005b61018d6101883660046112a5565b6104c1565b604051901515815260200161015c565b6035545b60405190815260200161015c565b61018d6101bd366004611269565b6104d7565b6040516012815260200161015c565b6101786101df366004611214565b610581565b61018d6101f2366004611269565b61061e565b61018d6102053660046112a5565b610660565b6101786102183660046112a5565b61069c565b6101a161022b366004611214565b6001600160a01b031660009081526033602052604090205490565b6101786106d4565b61017861070a565b6065546001600160a01b03165b6040516001600160a01b03909116815260200161015c565b61014f6107a0565b6101786102913660046112a5565b6107af565b61018d6102a43660046112a5565b6107e3565b61018d6102b73660046112a5565b610872565b6101a16102ca366004611236565b6001600160a01b03918216600090815260346020908152604080832093909416825291909152205490565b6066546001600160a01b0316610263565b606754610263906001600160a01b031681565b610178610327366004611214565b61087f565b60606036805461033b9061146c565b80601f01602080910402602001604051908101604052809291908181526020018280546103679061146c565b80156103b45780601f10610389576101008083540402835291602001916103b4565b820191906000526020600020905b81548152906001019060200180831161039757829003601f168201915b5050505050905090565b600054610100900460ff16806103d7575060005460ff16155b6103fc5760405162461bcd60e51b81526004016103f3906113ba565b60405180910390fd5b600054610100900460ff1615801561041e576000805461ffff19166101011790555b6001600160a01b0382166104745760405162461bcd60e51b815260206004820181905260248201527f42726964676545524332303a205f73696c6f20213d206164647265737328302960448201526064016103f3565b61047c61091a565b610484610985565b61048e84846109e5565b606780546001600160a01b0319166001600160a01b03841617905580156104bb576000805461ff00191690555b50505050565b60006104ce338484610a7b565b50600192915050565b60006104e4848484610b9f565b6001600160a01b0384166000908152603460209081526040808320338452909152902054828110156105695760405162461bcd60e51b815260206004820152602860248201527f45524332303a207472616e7366657220616d6f756e74206578636565647320616044820152676c6c6f77616e636560c01b60648201526084016103f3565b6105768533858403610a7b565b506001949350505050565b6065546001600160a01b031633146105ab5760405162461bcd60e51b81526004016103f390611408565b806001600160a01b03166105c76065546001600160a01b031690565b6001600160a01b03167f3c672e6c16e239c29e969deaf4eae15d7002350bf5490175e7481155af04c83a60405160405180910390a3606680546001600160a01b0319166001600160a01b0392909216919091179055565b6065546000906001600160a01b0316331461064b5760405162461bcd60e51b81526004016103f390611408565b610656848484610b9f565b5060019392505050565b3360008181526034602090815260408083206001600160a01b038716845290915281205490916104ce91859061069790869061143d565b610a7b565b6065546001600160a01b031633146106c65760405162461bcd60e51b81526004016103f390611408565b6106d08282610c85565b5050565b6065546001600160a01b031633146106fe5760405162461bcd60e51b81526004016103f390611408565b6107086000610d64565b565b6066546001600160a01b031633146107745760405162461bcd60e51b815260206004820152602760248201527f4f776e61626c653a2063616c6c6572206973206e6f74207468652070656e64696044820152663733a7bbb732b960c91b60648201526084016103f3565b61078e6107896066546001600160a01b031690565b610d64565b606680546001600160a01b0319169055565b60606037805461033b9061146c565b6065546001600160a01b031633146107d95760405162461bcd60e51b81526004016103f390611408565b6106d08282610db6565b3360009081526034602090815260408083206001600160a01b0386168452909152812054828110156108655760405162461bcd60e51b815260206004820152602560248201527f45524332303a2064656372656173656420616c6c6f77616e63652062656c6f77604482015264207a65726f60d81b60648201526084016103f3565b6106563385858403610a7b565b60006104ce338484610b9f565b6065546001600160a01b031633146108a95760405162461bcd60e51b81526004016103f390611408565b6001600160a01b03811661090e5760405162461bcd60e51b815260206004820152602660248201527f4f776e61626c653a206e6577206f776e657220697320746865207a65726f206160448201526564647265737360d01b60648201526084016103f3565b61091781610d64565b50565b600054610100900460ff1680610933575060005460ff16155b61094f5760405162461bcd60e51b81526004016103f3906113ba565b600054610100900460ff16158015610971576000805461ffff19166101011790555b8015610917576000805461ff001916905550565b600054610100900460ff168061099e575060005460ff16155b6109ba5760405162461bcd60e51b81526004016103f3906113ba565b600054610100900460ff161580156109dc576000805461ffff19166101011790555b61097133610d64565b600054610100900460ff16806109fe575060005460ff16155b610a1a5760405162461bcd60e51b81526004016103f3906113ba565b600054610100900460ff16158015610a3c576000805461ffff19166101011790555b8251610a4f9060369060208601906110d2565b508151610a639060379060208501906110d2565b508015610a76576000805461ff00191690555b505050565b6001600160a01b038316610add5760405162461bcd60e51b8152602060048201526024808201527f45524332303a20617070726f76652066726f6d20746865207a65726f206164646044820152637265737360e01b60648201526084016103f3565b6001600160a01b038216610b3e5760405162461bcd60e51b815260206004820152602260248201527f45524332303a20617070726f766520746f20746865207a65726f206164647265604482015261737360f01b60648201526084016103f3565b6001600160a01b0383811660008181526034602090815260408083209487168084529482529182902085905590518481527f8c5be1e5ebec7d5bd14f71427d1e84f3dd0314c0f7b2291e5b200ac8c7c3b925910160405180910390a3505050565b610baa838383610f04565b6067546040516338b51ce160e01b81526001600160a01b038581166004830152909116906338b51ce19060240160206040518083038186803b158015610bef57600080fd5b505afa158015610c03573d6000803e3d6000fd5b505050506040513d601f19601f82011682018060405250810190610c2791906112cf565b610a765760405162461bcd60e51b815260206004820152602960248201527f42726964676545524332303a206e6f7420736f6c76656e7420696e2073696c6f604482015268103837b9b4ba34b7b760b91b60648201526084016103f3565b6001600160a01b038216610cdb5760405162461bcd60e51b815260206004820152601f60248201527f45524332303a206d696e7420746f20746865207a65726f20616464726573730060448201526064016103f3565b8060356000828254610ced919061143d565b90915550506001600160a01b03821660009081526033602052604081208054839290610d1a90849061143d565b90915550506040518181526001600160a01b038316906000907fddf252ad1be2c89b69c2b068fc378daa952ba7f163c4a11628f55a4df523b3ef9060200160405180910390a35050565b606580546001600160a01b038381166001600160a01b0319831681179093556040519116919082907f8be0079c531659141344cd1fd0a4f28419497f9722a3daafe3b4186f6b6457e090600090a35050565b6001600160a01b038216610e165760405162461bcd60e51b815260206004820152602160248201527f45524332303a206275726e2066726f6d20746865207a65726f206164647265736044820152607360f81b60648201526084016103f3565b6001600160a01b03821660009081526033602052604090205481811015610e8a5760405162461bcd60e51b815260206004820152602260248201527f45524332303a206275726e20616d6f756e7420657863656564732062616c616e604482015261636560f01b60648201526084016103f3565b6001600160a01b0383166000908152603360205260408120838303905560358054849290610eb9908490611455565b90915550506040518281526000906001600160a01b038516907fddf252ad1be2c89b69c2b068fc378daa952ba7f163c4a11628f55a4df523b3ef9060200160405180910390a3505050565b6001600160a01b038316610f685760405162461bcd60e51b815260206004820152602560248201527f45524332303a207472616e736665722066726f6d20746865207a65726f206164604482015264647265737360d81b60648201526084016103f3565b6001600160a01b038216610fca5760405162461bcd60e51b815260206004820152602360248201527f45524332303a207472616e7366657220746f20746865207a65726f206164647260448201526265737360e81b60648201526084016103f3565b6001600160a01b038316600090815260336020526040902054818110156110425760405162461bcd60e51b815260206004820152602660248201527f45524332303a207472616e7366657220616d6f756e7420657863656564732062604482015265616c616e636560d01b60648201526084016103f3565b6001600160a01b0380851660009081526033602052604080822085850390559185168152908120805484929061107990849061143d565b92505081905550826001600160a01b0316846001600160a01b03167fddf252ad1be2c89b69c2b068fc378daa952ba7f163c4a11628f55a4df523b3ef846040516110c591815260200190565b60405180910390a36104bb565b8280546110de9061146c565b90600052602060002090601f0160209004810192826111005760008555611146565b82601f1061111957805160ff1916838001178555611146565b82800160010185558215611146579182015b8281111561114657825182559160200191906001019061112b565b50611152929150611156565b5090565b5b808211156111525760008155600101611157565b80356001600160a01b038116811461118257600080fd5b919050565b600082601f83011261119857600080fd5b813567ffffffffffffffff808211156111b3576111b36114bd565b604051601f8301601f19908116603f011681019082821181831017156111db576111db6114bd565b816040528381528660208588010111156111f457600080fd5b836020870160208301376000602085830101528094505050505092915050565b60006020828403121561122657600080fd5b61122f8261116b565b9392505050565b6000806040838503121561124957600080fd5b6112528361116b565b91506112606020840161116b565b90509250929050565b60008060006060848603121561127e57600080fd5b6112878461116b565b92506112956020850161116b565b9150604084013590509250925092565b600080604083850312156112b857600080fd5b6112c18361116b565b946020939093013593505050565b6000602082840312156112e157600080fd5b8151801515811461122f57600080fd5b60008060006060848603121561130657600080fd5b833567ffffffffffffffff8082111561131e57600080fd5b61132a87838801611187565b9450602086013591508082111561134057600080fd5b5061134d86828701611187565b92505061135c6040850161116b565b90509250925092565b600060208083528351808285015260005b8181101561139257858101830151858201604001528201611376565b818111156113a4576000604083870101525b50601f01601f1916929092016040019392505050565b6020808252602e908201527f496e697469616c697a61626c653a20636f6e747261637420697320616c72656160408201526d191e481a5b9a5d1a585b1a5e995960921b606082015260800190565b6020808252818101527f4f776e61626c653a2063616c6c6572206973206e6f7420746865206f776e6572604082015260600190565b60008219821115611450576114506114a7565b500190565b600082821015611467576114676114a7565b500390565b600181811c9082168061148057607f821691505b602082108114156114a157634e487b7160e01b600052602260045260246000fd5b50919050565b634e487b7160e01b600052601160045260246000fd5b634e487b7160e01b600052604160045260246000fdfea2646970667358221220a80505143bb00ff620be1e71a3d6bafd06b49644532e82ebcd7ac205405bb8a164736f6c63430008070033",
  "devdoc": {
    "kind": "dev",
    "methods": {
      "getBorrowAmountValue(address,address)": {
        "details": "value of asset borrowed by user"
      },
      "getCollateralValue(address,address)": {
        "details": "value of collateral (asset) provided by user"
      }
    },
    "version": 1
  },
  "userdoc": {
    "kind": "user",
    "methods": {},
    "version": 1
  },
  "storageLayout": {
    "storage": [
      {
        "astId": 1590,
        "contract": "contracts/SiloBridgePool.sol:SiloBridgePool",
        "label": "_status",
        "offset": 0,
        "slot": "0",
        "type": "t_uint256"
      },
      {
        "astId": 6172,
        "contract": "contracts/SiloBridgePool.sol:SiloBridgePool",
        "label": "asset",
        "offset": 0,
        "slot": "1",
        "type": "t_address"
      },
      {
        "astId": 6177,
        "contract": "contracts/SiloBridgePool.sol:SiloBridgePool",
        "label": "state",
        "offset": 0,
        "slot": "2",
        "type": "t_mapping(t_address,t_struct(BridgeSiloStorage)6152_storage)"
      }
    ],
    "types": {
      "t_address": {
        "encoding": "inplace",
        "label": "address",
        "numberOfBytes": "20"
      },
      "t_contract(BridgeERC20Upgradeable)10465": {
        "encoding": "inplace",
        "label": "contract BridgeERC20Upgradeable",
        "numberOfBytes": "20"
      },
      "t_mapping(t_address,t_struct(BridgeSiloStorage)6152_storage)": {
        "encoding": "mapping",
        "key": "t_address",
        "label": "mapping(address => struct SiloBridgePool.BridgeSiloStorage)",
        "numberOfBytes": "32",
        "value": "t_struct(BridgeSiloStorage)6152_storage"
      },
      "t_mapping(t_address,t_uint256)": {
        "encoding": "mapping",
        "key": "t_address",
        "label": "mapping(address => uint256)",
        "numberOfBytes": "32",
        "value": "t_uint256"
      },
      "t_struct(BridgeSiloStorage)6152_storage": {
        "encoding": "inplace",
        "label": "struct SiloBridgePool.BridgeSiloStorage",
        "members": [
          {
            "astId": 6131,
            "contract": "contracts/SiloBridgePool.sol:SiloBridgePool",
            "label": "token",
            "offset": 0,
            "slot": "0",
            "type": "t_contract(BridgeERC20Upgradeable)10465"
          },
          {
            "astId": 6133,
            "contract": "contracts/SiloBridgePool.sol:SiloBridgePool",
            "label": "totalDeposits",
            "offset": 0,
            "slot": "1",
            "type": "t_uint256"
          },
          {
            "astId": 6135,
            "contract": "contracts/SiloBridgePool.sol:SiloBridgePool",
            "label": "totalBorrowAmount",
            "offset": 0,
            "slot": "2",
            "type": "t_uint256"
          },
          {
            "astId": 6137,
            "contract": "contracts/SiloBridgePool.sol:SiloBridgePool",
            "label": "borrowAmountLastUpdateTimestamp",
            "offset": 0,
            "slot": "3",
            "type": "t_uint256"
          },
          {
            "astId": 6139,
            "contract": "contracts/SiloBridgePool.sol:SiloBridgePool",
            "label": "totalBorrowShare",
            "offset": 0,
            "slot": "4",
            "type": "t_uint256"
          },
          {
            "astId": 6141,
            "contract": "contracts/SiloBridgePool.sol:SiloBridgePool",
            "label": "interestRate",
            "offset": 0,
            "slot": "5",
            "type": "t_uint256"
          },
          {
            "astId": 6143,
            "contract": "contracts/SiloBridgePool.sol:SiloBridgePool",
            "label": "interestRateLastUpdateTimestamp",
            "offset": 0,
            "slot": "6",
            "type": "t_uint256"
          },
          {
            "astId": 6145,
            "contract": "contracts/SiloBridgePool.sol:SiloBridgePool",
            "label": "protocolFees",
            "offset": 0,
            "slot": "7",
            "type": "t_uint256"
          },
          {
            "astId": 6147,
            "contract": "contracts/SiloBridgePool.sol:SiloBridgePool",
            "label": "deposit",
            "offset": 0,
            "slot": "8",
            "type": "t_uint256"
          },
          {
            "astId": 6151,
            "contract": "contracts/SiloBridgePool.sol:SiloBridgePool",
            "label": "borrowShare",
            "offset": 0,
            "slot": "9",
            "type": "t_mapping(t_address,t_uint256)"
          }
        ],
        "numberOfBytes": "320"
      },
      "t_uint256": {
        "encoding": "inplace",
        "label": "uint256",
        "numberOfBytes": "32"
      }
    }
  }
}