{
  "address": "0x2E2E7cD591e48A09EDCC2bAF69c7E17F8987946a",
  "abi": [
    {
      "inputs": [],
      "name": "OnlyRepository",
      "type": "error"
    },
    {
      "inputs": [],
      "name": "RepositoryAlreadySet",
      "type": "error"
    },
    {
      "anonymous": false,
      "inputs": [],
      "name": "InitSiloRepository",
      "type": "event"
    },
    {
      "anonymous": false,
      "inputs": [
        {
          "indexed": true,
          "internalType": "address",
          "name": "silo",
          "type": "address"
        },
        {
          "indexed": true,
          "internalType": "address",
          "name": "asset",
          "type": "address"
        },
        {
          "indexed": false,
          "internalType": "uint128",
          "name": "version",
          "type": "uint128"
        }
      ],
      "name": "NewSiloCreated",
      "type": "event"
    },
    {
      "inputs": [
        {
          "internalType": "address",
          "name": "_siloAsset",
          "type": "address"
        },
        {
          "internalType": "uint128",
          "name": "_version",
          "type": "uint128"
        },
        {
          "internalType": "bytes",
          "name": "",
          "type": "bytes"
        }
      ],
      "name": "createSilo",
      "outputs": [
        {
          "internalType": "address",
          "name": "silo",
          "type": "address"
        }
      ],
      "stateMutability": "nonpayable",
      "type": "function"
    },
    {
      "inputs": [
        {
          "internalType": "address",
          "name": "_repository",
          "type": "address"
        }
      ],
      "name": "initRepository",
      "outputs": [],
      "stateMutability": "nonpayable",
      "type": "function"
    },
    {
      "inputs": [],
      "name": "siloFactoryPing",
      "outputs": [
        {
          "internalType": "bytes4",
          "name": "",
          "type": "bytes4"
        }
      ],
      "stateMutability": "pure",
      "type": "function"
    },
    {
      "inputs": [],
      "name": "siloRepository",
      "outputs": [
        {
          "internalType": "address",
          "name": "",
          "type": "address"
        }
      ],
      "stateMutability": "view",
      "type": "function"
    }
  ],
  "transactionHash": "0xfdb30d2bd9c286a64cad02544e8dd0a79fd84cf0252387995765769ae9ca509f",
  "args": [],
  "numDeployments": 1,
  "solcInputHash": "e7f011ba740bdebb662c0a0e3193075d",
  "bytecode": "0x608060405234801561001057600080fd5b50615d88806100206000396000f3fe608060405234801561001057600080fd5b506004361061004c5760003560e01c806304b3bbe814610051578063573bbca5146100665780635a0c4de414610096578063bde12718146100ab575b600080fd5b61006461005f36600461022b565b6100be565b005b610079610074366004610263565b61012c565b6040516001600160a01b0390911681526020015b60405180910390f35b604051631683137960e21b815260200161008d565b600054610079906001600160a01b031681565b6000546001600160a01b0316156100e75760405162884f4360e41b815260040160405180910390fd5b600080546001600160a01b0319166001600160a01b0383161781556040517f62b7374e631dbf873146b0bd9f3390235a4a47128c3336ec4344c32bc28fe2929190a150565b600080546001600160a01b03163314610158576040516397691a2f60e01b815260040160405180910390fd5b33848460405161016790610201565b6001600160a01b0393841681529290911660208301526001600160801b03166040820152606001604051809103906000f0801580156101aa573d6000803e3d6000fd5b506040516001600160801b03851681529091506001600160a01b0380861691908316907f3d603ed158e689891fb302f8dcdd070ca09f651c8b61183dda2db71384cca1579060200160405180910390a39392505050565b615a0f806200034483390190565b80356001600160a01b038116811461022657600080fd5b919050565b60006020828403121561023d57600080fd5b6102468261020f565b9392505050565b634e487b7160e01b600052604160045260246000fd5b60008060006060848603121561027857600080fd5b6102818461020f565b925060208401356001600160801b038116811461029d57600080fd5b9150604084013567ffffffffffffffff808211156102ba57600080fd5b818601915086601f8301126102ce57600080fd5b8135818111156102e0576102e061024d565b604051601f8201601f19908116603f011681019083821181831017156103085761030861024d565b8160405282815289602084870101111561032157600080fd5b826020860160208301376000602084830101528095505050505050925092509256fe6101006040523480156200001257600080fd5b5060405162005a0f38038062005a0f8339810160408190526200003591620002fd565b8282826001600081905550600180819055506200006b836001600160a01b031663e99ed41d6200010c60201b620011821760201c565b6200008957604051639f45596360e01b815260040160405180910390fd5b806001600160801b0316600003620000b457604051634eb171af60e01b815260040160405180910390fd5b6000620000cc836200019860201b620012081760201c565b6001600160801b03831660c0526001600160a01b03808616608052841660a0529050620000fb81600a6200046f565b60e052506200051395505050505050565b60006001600160a01b038316158015906200018f575082826040518163ffffffff1660e01b8152600401602060405180830381865afa15801562000154573d6000803e3d6000fd5b505050506040513d601f19601f820116820180604052508101906200017a91906200047d565b60e083901b6001600160e01b03199081169116145b90505b92915050565b6040805160048152602481019091526020810180516001600160e01b0390811663313ce56760e01b1790915260009182918291620001da918691906200020f16565b9150915081620001ee575060009392505050565b80806020019051810190620002049190620004b0565b60ff16949350505050565b600060606200022984620002de60201b620012751760201c565b62000247576040516373d39f9d60e01b815260040160405180910390fd5b600080856001600160a01b031685604051620002649190620004d5565b600060405180830381855afa9150503d8060008114620002a1576040519150601f19603f3d011682016040523d82523d6000602084013e620002a6565b606091505b509150915081620002cf57600060405180602001604052806000815250935093505050620002d7565b600193509150505b9250929050565b3b151590565b6001600160a01b0381168114620002fa57600080fd5b50565b6000806000606084860312156200031357600080fd5b83516200032081620002e4565b60208501519093506200033381620002e4565b60408501519092506001600160801b03811681146200035157600080fd5b809150509250925092565b634e487b7160e01b600052601160045260246000fd5b600181815b80851115620003b35781600019048211156200039757620003976200035c565b80851615620003a557918102915b93841c939080029062000377565b509250929050565b600082620003cc5750600162000192565b81620003db5750600062000192565b8160018114620003f45760028114620003ff576200041f565b600191505062000192565b60ff8411156200041357620004136200035c565b50506001821b62000192565b5060208310610133831016604e8410600b841016171562000444575081810a62000192565b62000450838362000372565b80600019048211156200046757620004676200035c565b029392505050565b60006200018f8383620003bb565b6000602082840312156200049057600080fd5b81516001600160e01b031981168114620004a957600080fd5b9392505050565b600060208284031215620004c357600080fd5b815160ff81168114620004a957600080fd5b6000825160005b81811015620004f85760208186018101518583015201620004dc565b8181111562000508576000828501525b509190910192915050565b60805160a05160c05160e051615440620005cf6000396000505060006104080152600081816101f901528181610acd01528181612472015281816124b00152613f90015260008181610304015281816104a2015281816105e401528181610a1b01528181610d5101528181610e300152818161192f01528181611a0801528181611c5101528181611eed01528181612071015281816123e8015281816124da01528181612f2501528181612fd501526130d501526154406000f3fe608060405234801561001057600080fd5b50600436106101735760003560e01c8063a388991b116100de578063ead5d35911610097578063f87c3aa811610071578063f87c3aa814610392578063fb255703146103d0578063fbf178db146103f0578063ffa1ad741461040357600080fd5b8063ead5d35914610359578063f364181c1461036c578063f3d470c21461037f57600080fd5b8063a388991b146102d1578063a6e08aa1146102d9578063b8c876b1146102ec578063bde12718146102ff578063bf27304114610326578063dbc5b4811461034657600080fd5b806364654cf51161013057806364654cf51461024657806367e4ac2c1461025c5780639198e5151461027157806393a94ca314610292578063976ce495146102b4578063a1dfa423146102c757600080fd5b8063151541f01461017857806322867d781461019657806338b51ce1146101be5780633edd1128146101e15780634521c019146101f45780634b8a352914610233575b600080fd5b61018061044b565b60405161018d9190614711565b60405180910390f35b6101a96101a436600461473c565b61057e565b6040805192835260208301919091520161018d565b6101d16101cc366004614768565b610599565b604051901515815260200161018d565b6101a96101ef366004614793565b61064c565b61021b7f000000000000000000000000000000000000000000000000000000000000000081565b6040516001600160a01b03909116815260200161018d565b6101a961024136600461473c565b610669565b61024e610678565b60405161018d929190614855565b6102646107f8565b60405161018d91906148b6565b61028461027f366004614768565b61085a565b60405190815260200161018d565b6102a56102a03660046149af565b61086b565b60405161018d93929190614aec565b6101a96102c2366004614b25565b61099f565b6102cf6109ae565b005b6102cf6109ed565b6101d16102e7366004614b66565b610b85565b6102846102fa366004614768565b610c50565b61021b7f000000000000000000000000000000000000000000000000000000000000000081565b610339610334366004614768565b610cdb565b60405161018d9190614b9f565b6101a9610354366004614bad565b610d4c565b6101a9610367366004614793565b610e1b565b6101a961037a366004614bfe565b610e2b565b6101d161038d366004614b66565b610efc565b6103a56103a0366004614768565b611042565b604080518251815260208084015190820152918101516001600160401b03169082015260600161018d565b6103e36103de366004614768565b6110c2565b60405161018d9190614c7c565b6101a96103fe366004614cd5565b611172565b61042a7f000000000000000000000000000000000000000000000000000000000000000081565b6040516fffffffffffffffffffffffffffffffff909116815260200161018d565b606060006104576107f8565b905080516001600160401b03811115610472576104726148c9565b60405190808252806020026020018201604052801561049b578160200160208202803683370190505b50915060007f00000000000000000000000000000000000000000000000000000000000000006001600160a01b0316638da5cb5b6040518163ffffffff1660e01b8152600401602060405180830381865afa1580156104fe573d6000803e3d6000fd5b505050506040513d601f19601f820116820180604052508101906105229190614d28565b905060005b82518110156105785761055383828151811061054557610545614d45565b60200260200101518361127b565b84828151811061056557610565614d45565b6020908102919091010152600101610527565b50505090565b60008061058d84333386611322565b915091505b9250929050565b60006001600160a01b0382166105c257604051630b328ad960e31b815260040160405180910390fd5b6000806105cd610678565b915091506000806106406040518060a001604052807f00000000000000000000000000000000000000000000000000000000000000006001600160a01b03168152602001306001600160a01b03168152602001868152602001858152602001886001600160a01b031681525060016114ee565b10159695505050505050565b60008061065c853333878761165d565b915091505b935093915050565b60008061058d84333386611b97565b60608060028054806020026020016040519081016040528092919081815260200182805480156106d157602002820191906000526020600020905b81546001600160a01b031681526001909101906020018083116106b3575b5050505050915081516001600160401b038111156106f1576106f16148c9565b60405190808252806020026020018201604052801561072a57816020015b610717614685565b81526020019060019003908161070f5790505b50905060005b82518110156107f3576003600084838151811061074f5761074f614d45565b6020908102919091018101516001600160a01b039081168352828201939093526040918201600020825160c0810184528154851681526001820154851692810192909252600281015490931691810191909152600382015460608201526004820154608082015260059091015460a082015282518390839081106107d5576107d5614d45565b602002602001018190525080806107eb90614d71565b915050610730565b509091565b6060600280548060200260200160405190810160405280929190818152602001828054801561085057602002820191906000526020600020905b81546001600160a01b03168152600190910190602001808311610832575b5050505050905090565b600061086582611ec5565b92915050565b60608060606108786107f8565b8551909350806001600160401b03811115610895576108956148c9565b6040519080825280602002602001820160405280156108c857816020015b60608152602001906001900390816108b35790505b509250806001600160401b038111156108e3576108e36148c9565b60405190808252806020026020018201604052801561091657816020015b60608152602001906001900390816109015790505b50915060005b81811015610996576109498588838151811061093a5761093a614d45565b602002602001015133896121a6565b85838151811061095b5761095b614d45565b6020026020010185848151811061097457610974614d45565b602002602001018290528290525050808061098e90614d71565b91505061091c565b50509250925092565b60008061065c85853386611322565b6002600054036109d95760405162461bcd60e51b81526004016109d090614d8a565b60405180910390fd5b60026000556109e66123e4565b6001600055565b600260005403610a0f5760405162461bcd60e51b81526004016109d090614d8a565b600260008190555060007f00000000000000000000000000000000000000000000000000000000000000006001600160a01b031663296041ea6040518163ffffffff1660e01b8152600401600060405180830381865afa158015610a77573d6000803e3d6000fd5b505050506040513d6000823e601f3d908101601f19168201604052610a9f9190810190614dc1565b905060005b8151811015610b74576000828281518110610ac157610ac1614d45565b602002602001015190507f00000000000000000000000000000000000000000000000000000000000000006001600160a01b0316816001600160a01b031614610b61576001600160a01b0381166000818152600460205260408082206002908101805460ff60401b19166802000000000000000017905590519092917f51efec4e8c6ee88d51e1ec000985e267b4296e493de77b4aa7a38315981390bf91a35b5080610b6c81614d71565b915050610aa4565b50610b7d6123e4565b506001600055565b6001600160a01b038281166000908152600360205260408082206002015490516370a0823160e01b81528484166004820152919216906370a0823190602401602060405180830381865afa158015610be1573d6000803e3d6000fd5b505050506040513d601f19601f82011682018060405250810190610c059190614e4f565b158015610c49575060016001600160a01b0384166000908152600460205260409020600290810154600160401b900460ff1690811115610c4757610c47614c66565b145b9392505050565b6001600160a01b03811660008181526003602052604080822060049081015491516370a0823160e01b81523091810191909152919290916370a0823190602401602060405180830381865afa158015610cad573d6000803e3d6000fd5b505050506040513d601f19601f82011682018060405250810190610cd19190614e4f565b6108659190614e68565b610ce3614685565b506001600160a01b03908116600090815260036020818152604092839020835160c081018552815486168152600182015486169281019290925260028101549094169281019290925282015460608201526004820154608082015260059091015460a082015290565b6000807f00000000000000000000000000000000000000000000000000000000000000006001600160a01b031663f887ea406040518163ffffffff1660e01b8152600401602060405180830381865afa158015610dad573d6000803e3d6000fd5b505050506040513d601f19601f82011682018060405250810190610dd19190614d28565b6001600160a01b0316336001600160a01b031614610e0257604051639e41bdd760e01b815260040160405180910390fd5b610e0e86868686611b97565b9150915094509492505050565b60008061065c853333878761262e565b6000807f00000000000000000000000000000000000000000000000000000000000000006001600160a01b031663f887ea406040518163ffffffff1660e01b8152600401602060405180830381865afa158015610e8c573d6000803e3d6000fd5b505050506040513d601f19601f82011682018060405250810190610eb09190614d28565b6001600160a01b0316336001600160a01b031614610ee157604051639e41bdd760e01b815260040160405180910390fd5b610eee878787878761262e565b915091509550959350505050565b6001600160a01b03828116600090815260036020526040808220805491516370a0823160e01b81528585166004820152929390929116906370a0823190602401602060405180830381865afa158015610f59573d6000803e3d6000fd5b505050506040513d601f19601f82011682018060405250810190610f7d9190614e4f565b158015610ff7575060018101546040516370a0823160e01b81526001600160a01b038581166004830152909116906370a0823190602401602060405180830381865afa158015610fd1573d6000803e3d6000fd5b505050506040513d601f19601f82011682018060405250810190610ff59190614e4f565b155b801561103a575060016001600160a01b0385166000908152600460205260409020600290810154600160401b900460ff169081111561103857611038614c66565b145b949350505050565b61106f6040518060600160405280600081526020016000815260200160006001600160401b031681525090565b506001600160a01b03166000818152600360208181526040808420815160608101835293810154845260050154838301529383526004905290829020600201546001600160401b03169181019190915290565b6110ea6040805160808101825260008082526020820181905291810182905290606082015290565b6001600160a01b0382166000908152600460209081526040918290208251608081018452815481526001820154928101929092526002808201546001600160401b03811694840194909452919290916060840191600160401b900460ff169081111561115857611158614c66565b600281111561116957611169614c66565b90525092915050565b600080610e0e863387878761165d565b60006001600160a01b03831615801590610c49575082826040518163ffffffff1660e01b8152600401602060405180830381865afa1580156111c8573d6000803e3d6000fd5b505050506040513d601f19601f820116820180604052508101906111ec9190614e7f565b60e083901b6001600160e01b0319908116911614905092915050565b6040805160048152602481019091526020810180516001600160e01b031663313ce56760e01b1790526000908190819061124390859061278c565b9150915081611256575060009392505050565b8080602001905181019061126a9190614ea9565b60ff16949350505050565b3b151590565b600060026000540361129f5760405162461bcd60e51b81526004016109d090614d8a565b600260009081556001600160a01b0384168152600460205260409020805460018201546112cc9190614e68565b915060006112d985610c50565b9050808311156112e7578092505b826000036112fa57600092505050611317565b8154830182556113146001600160a01b038616858561283e565b50505b600160005592915050565b60008085816001600160a01b0382166000908152600460205260409020600290810154600160401b900460ff169081111561135f5761135f614c66565b0361137d576040516367fa94e760e01b815260040160405180910390fd5b60026000540361139f5760405162461bcd60e51b81526004016109d090614d8a565b60026000556113ad87611ec5565b506001600160a01b03871660009081526003602052604090206113d18188876128a1565b909450925060008390036113f85760405163faf4da9160e01b815260040160405180910390fd5b866001600160a01b0316886001600160a01b03167f05f2eeda0e08e4b437f487c8d7d29b14537d15e3488170dc3de5dbdf8dac46848660405161143d91815260200190565b60405180910390a361145a6001600160a01b0389168730876129db565b8381600501600082825461146e9190614e68565b90915550506002810154604051632770a7eb60e21b81526001600160a01b0389811660048301526024820186905290911690639dc29fac90604401600060405180830381600087803b1580156114c357600080fd5b505af11580156114d7573d6000803e3d6000fd5b505050505060016000819055505094509492505050565b60008060006114fc85612a19565b905061150781612b35565b60000361151b576000809250925050610592565b600085600001516001600160a01b0316635ddf2be36040518163ffffffff1660e01b8152600401602060405180830381865afa15801561155f573d6000803e3d6000fd5b505050506040513d601f19601f820116820180604052508101906115839190614d28565b9050600061159682886040015185612b7b565b905060006115a382612b35565b9050806000036115bd576000809550955050505050610592565b60006115c9848a612d96565b905060006115d682612b35565b9050806000036115f457600019600097509750505050505050610592565b600061160f8b600001518c602001518d604001518d87612db4565b905081611624670de0b6b3a764000086614ecc565b61162e9190614f01565b985081611643670de0b6b3a764000083614ecc565b61164d9190614f01565b9750505050505050509250929050565b6000806002600054036116825760405162461bcd60e51b81526004016109d090614d8a565b60026000558661169181611ec5565b5061169c8887610b85565b6116b95760405163206e46bd60e21b815260040160405180910390fd5b6001600160a01b038816600090815260036020526040812086945090856116e45781600301546116ea565b81600401545b905085156117fa57611777818360010160009054906101000a90046001600160a01b03166001600160a01b03166318160ddd6040518163ffffffff1660e01b8152600401602060405180830381865afa15801561174b573d6000803e3d6000fd5b505050506040513d601f19601f8201168201806040525081019061176f9190614e4f565b899190612e4b565b93506117838782614f15565b60048381019190915560018301546040516340c10f1960e01b81526001600160a01b038b811693820193909352602481018790529116906340c10f1990604401600060405180830381600087803b1580156117dd57600080fd5b505af11580156117f1573d6000803e3d6000fd5b505050506118ca565b611853818360000160009054906101000a90046001600160a01b03166001600160a01b03166318160ddd6040518163ffffffff1660e01b8152600401602060405180830381865afa15801561174b573d6000803e3d6000fd5b935061185f8782614f15565b600383015581546040516340c10f1960e01b81526001600160a01b038a8116600483015260248201879052909116906340c10f1990604401600060405180830381600087803b1580156118b157600080fd5b505af11580156118c5573d6000803e3d6000fd5b505050505b6118df6001600160a01b038b168a308a6129db565b6040805188815287151560208201526001600160a01b03808b1692908d16917fdd160bb401ec5b5e5ca443d41e8e7182f3fe72d70a04b9c0ba844483d212bcb5910160405180910390a3505060007f00000000000000000000000000000000000000000000000000000000000000006001600160a01b0316635ddf2be36040518163ffffffff1660e01b8152600401602060405180830381865afa15801561198b573d6000803e3d6000fd5b505050506040513d601f19601f820116820180604052508101906119af9190614d28565b6001600160a01b03831660009081526003602081905260408220600481015491810154939450926119e09190614f15565b604051630968252160e11b81523060048201526001600160a01b0386811660248301529192507f0000000000000000000000000000000000000000000000000000000000000000909116906312d04a4290604401602060405180830381865afa158015611a51573d6000803e3d6000fd5b505050506040513d601f19601f82011682018060405250810190611a759190614e4f565b846001600160a01b031663313ce5676040518163ffffffff1660e01b8152600401602060405180830381865afa158015611ab3573d6000803e3d6000fd5b505050506040513d601f19601f82011682018060405250810190611ad79190614ea9565b611ae290600a615011565b6040516341976e0960e01b81526001600160a01b0387811660048301528491908716906341976e0990602401602060405180830381865afa158015611b2b573d6000803e3d6000fd5b505050506040513d601f19601f82011682018060405250810190611b4f9190614e4f565b611b599190614ecc565b611b639190614f01565b1115611b825760405163221e43cf60e11b815260040160405180910390fd5b50506001600055509197909650945050505050565b600080600260005403611bbc5760405162461bcd60e51b81526004016109d090614d8a565b6002600055611bca86611ec5565b50611bd58686610efc565b611bf2576040516301c08c7960e11b815260040160405180910390fd5b82611bfc87610c50565b1015611c1b57604051634323a55560e01b815260040160405180910390fd5b600060036000886001600160a01b03166001600160a01b03168152602001908152602001600020905060008160050154905060007f00000000000000000000000000000000000000000000000000000000000000006001600160a01b031663072ea61c6040518163ffffffff1660e01b8152600401602060405180830381865afa158015611cad573d6000803e3d6000fd5b505050506040513d601f19601f82011682018060405250810190611cd19190614e4f565b905060008115611cfd57670de0b6b3a7640000611cee8389614ecc565b611cf89190614f01565b611d00565b60005b9050611d90838560020160009054906101000a90046001600160a01b03166001600160a01b03166318160ddd6040518163ffffffff1660e01b8152600401602060405180830381865afa158015611d5b573d6000803e3d6000fd5b505050506040513d601f19601f82011682018060405250810190611d7f9190614e4f565b611d89848b614f15565b9190612ea8565b879650945080611da08785614f15565b611daa9190614f15565b60058501556001600160a01b038a1660009081526004602052604081206001018054839290611dda908490614f15565b909155505060028401546040516340c10f1960e01b81526001600160a01b038b8116600483015260248201889052909116906340c10f1990604401600060405180830381600087803b158015611e2f57600080fd5b505af1158015611e43573d6000803e3d6000fd5b50505050886001600160a01b03168a6001600160a01b03167f312a5e5e1079f5dda4e95dbbd0b908b291fd5b992ef22073643ab691572c5b5289604051611e8c91815260200190565b60405180910390a3611ea86001600160a01b038b16898961283e565b611eb189612f03565b505060016000555091969095509350505050565b6040516344cf3e9360e01b81523060048201526001600160a01b0382811660248301526000917f0000000000000000000000000000000000000000000000000000000000000000909116906344cf3e9390604401602060405180830381865afa158015611f36573d6000803e3d6000fd5b505050506040513d601f19601f82011682018060405250810190611f5a9190615020565b15611f78576040516313d0ff5960e31b815260040160405180910390fd5b6001600160a01b0382166000908152600360209081526040808320600490925282206002810154919290916001600160401b031690819003611fdb5750600201805467ffffffffffffffff1916426001600160401b031617905550600092915050565b428103611fed57506000949350505050565b6000611ff886612fad565b60405162f704bf60e21b81526001600160a01b03888116600483015242602483015291909116906303dc12fc906044016020604051808303816000875af1158015612047573d6000803e3d6000fd5b505050506040513d601f19601f8201168201806040525081019061206b9190614e4f565b905060007f00000000000000000000000000000000000000000000000000000000000000006001600160a01b03166325ed3d446040518163ffffffff1660e01b8152600401602060405180830381865afa1580156120cd573d6000803e3d6000fd5b505050506040513d601f19601f820116820180604052508101906120f19190614e4f565b600586015460018601549192509060008080670de0b6b3a76400006121168887614ecc565b6121209190614f01565b9a50670de0b6b3a7640000868c02049150818401925083831015612148576000199250831991505b50808a036121568b86614f15565b60058b015560038a015461216b908290614f15565b60039a909a01999099555060018701555050506002909201805467ffffffffffffffff1916426001600160401b031617905550919392505050565b6060806002600154036121cc57604051634fe29f1760e01b815260040160405180910390fd5b60026001556121da85610599565b1561223057600086516001600160401b038111156121fa576121fa6148c9565b604051908082528060200260200182016040528015612223578160200160208202803683370190505b5092508291506123d59050565b61223b868686613042565b60405163e7b43da560e01b815291935091506001600160a01b0385169063e7b43da5906122749088908a90879087908a90600401615095565b600060405180830381600087803b15801561228e57600080fd5b505af11580156122a2573d6000803e3d6000fd5b5050505060005b86518110156123ae578281815181106122c4576122c4614d45565b602002602001015160001415806122f557508181815181106122e8576122e8614d45565b6020026020010151600014155b1561239c57856001600160a01b031687828151811061231657612316614d45565b60200260200101516001600160a01b03167ff3fa0eaee8f258c23b013654df25d1527f98a5c7ccd5e951dd77caca400ef97284848151811061235a5761235a614d45565b602002602001015186858151811061237457612374614d45565b6020026020010151604051612393929190918252602082015260400190565b60405180910390a35b806123a681614d71565b9150506122a9565b506123b885610599565b6123d55760405163e081c8f360e01b815260040160405180910390fd5b60018055909590945092505050565b60007f00000000000000000000000000000000000000000000000000000000000000006001600160a01b031663cc1fdf166040518163ffffffff1660e01b8152600401602060405180830381865afa158015612444573d6000803e3d6000fd5b505050506040513d601f19601f820116820180604052508101906124689190614d28565b6001600160a01b037f00000000000000000000000000000000000000000000000000000000000000008116600090815260036020526040902054919250166124d6576124d6817f0000000000000000000000000000000000000000000000000000000000000000600061329a565b60007f00000000000000000000000000000000000000000000000000000000000000006001600160a01b031663ee306a346040518163ffffffff1660e01b8152600401600060405180830381865afa158015612536573d6000803e3d6000fd5b505050506040513d6000823e601f3d908101601f1916820160405261255e9190810190614dc1565b905060005b815181101561262957600082828151811061258057612580614d45565b6020908102919091018101516001600160a01b0380821660009081526003909352604090922054909250166125c0576125bb8482600161329a565b612616565b6001600160a01b038116600081815260046020526040808220600201805460ff60401b1916600160401b17905551600192917f51efec4e8c6ee88d51e1ec000985e267b4296e493de77b4aa7a38315981390bf91a35b508061262181614d71565b915050612563565b505050565b6000806002600054036126535760405162461bcd60e51b81526004016109d090614d8a565b6002600090815587906001600160a01b0382166000908152600460205260409020600290810154600160401b900460ff169081111561269457612694614c66565b036126b2576040516367fa94e760e01b815260040160405180910390fd5b6126bb88611ec5565b506126cb88868989886000613503565b909350915060008390036126f25760405163faf4da9160e01b815260040160405180910390fd5b6126fb87610599565b6127185760405163e081c8f360e01b815260040160405180910390fd5b856001600160a01b0316876001600160a01b0316896001600160a01b03167f3b5f15635b488fe265654176726b3222080f3d6500a562f4664233b3ea2f028386886040516127729291909182521515602082015260400190565b60405180910390a450600160005590969095509350505050565b60006060833b6127af576040516373d39f9d60e01b815260040160405180910390fd5b600080856001600160a01b0316856040516127ca91906150f3565b600060405180830381855afa9150503d8060008114612805576040519150601f19603f3d011682016040523d82523d6000602084013e61280a565b606091505b50915091508161283157600060405180602001604052806000815250935093505050610592565b6001969095509350505050565b6040516001600160a01b03831660248201526044810182905261262990849063a9059cbb60e01b906064015b60408051601f198184030181529190526020810180516001600160e01b03166001600160e01b0319909316929092179091526137a0565b60028301546040516370a0823160e01b81526001600160a01b03848116600483015260009283928392909116906370a0823190602401602060405180830381865afa1580156128f4573d6000803e3d6000fd5b505050506040513d601f19601f820116820180604052508101906129189190614e4f565b905060008660020160009054906101000a90046001600160a01b03166001600160a01b03166318160ddd6040518163ffffffff1660e01b8152600401602060405180830381865afa158015612971573d6000803e3d6000fd5b505050506040513d601f19601f820116820180604052508101906129959190614e4f565b600588015490915060006129aa848385613872565b90508087106129be578095508394506129cf565b8695506129cc868385612e4b565b94505b50505050935093915050565b6040516001600160a01b0380851660248301528316604482015260648101829052612a139085906323b872dd60e01b9060840161286a565b50505050565b606081606001515182604001515114612a455760405163dba17af560e01b815260040160405180910390fd5b8160400151516001600160401b03811115612a6257612a626148c9565b604051908082528060200260200182016040528015612a8b578160200160208202803683370190505b50905060005b826040015151811015612b2f576000612ad18460200151856000015186604001518581518110612ac357612ac3614d45565b6020026020010151426138b2565b9050612aff84606001518381518110612aec57612aec614d45565b60200260200101518560800151836139b0565b838381518110612b1157612b11614d45565b60209081029190910101525080612b2781614d71565b915050612a91565b50919050565b6000805b8251811015612b2f57828181518110612b5457612b54614d45565b602002602001015182612b679190614f15565b915080612b7381614d71565b915050612b39565b60608151835114612b9f5760405163dba17af560e01b815260040160405180910390fd5b82516001600160401b03811115612bb857612bb86148c9565b604051908082528060200260200182016040528015612be1578160200160208202803683370190505b50905060005b8351811015612d8e57828181518110612c0257612c02614d45565b602002602001015160000315612d7c576000856001600160a01b03166341976e09868481518110612c3557612c35614d45565b60200260200101516040518263ffffffff1660e01b8152600401612c6891906001600160a01b0391909116815260200190565b602060405180830381865afa158015612c85573d6000803e3d6000fd5b505050506040513d601f19601f82011682018060405250810190612ca99190614e4f565b90506000858381518110612cbf57612cbf614d45565b60200260200101516001600160a01b031663313ce5676040518163ffffffff1660e01b8152600401602060405180830381865afa158015612d04573d6000803e3d6000fd5b505050506040513d601f19601f82011682018060405250810190612d289190614ea9565b9050612d5b828260ff16878681518110612d4457612d44614d45565b6020026020010151613abc9092919063ffffffff16565b848481518110612d6d57612d6d614d45565b60200260200101818152505050505b80612d8681614d71565b915050612be7565b509392505050565b60606000612da383613add565b905061103a84846040015183612b7b565b60008151845114612dd85760405163dba17af560e01b815260040160405180910390fd5b60005b8451811015612e4157612e238787878481518110612dfb57612dfb614d45565b602002602001015187878681518110612e1657612e16614d45565b6020026020010151613d2f565b612e2d9083614f15565b915080612e3981614d71565b915050612ddb565b5095945050505050565b6000811580612e58575082155b15612e64575082610c49565b600083612e718487614ecc565b612e7b9190614f01565b905080158015612e8a57508415155b1561103a57604051639811e0c760e01b815260040160405180910390fd5b6000811580612eb5575082155b15612ec1575082610c49565b6000612ecd8386614ecc565b90506000612edb8583614f01565b9050612ee7858361510f565b15612efa57612ef7600182614f15565b90505b95945050505050565b600080612f0e610678565b91509150600080612f816040518060a001604052807f00000000000000000000000000000000000000000000000000000000000000006001600160a01b03168152602001306001600160a01b03168152602001868152602001858152602001876001600160a01b031681525060006114ee565b9150915080821115612fa657604051630655b2eb60e31b815260040160405180910390fd5b5050505050565b60405163122cfaaf60e21b81523060048201526001600160a01b0382811660248301526000917f0000000000000000000000000000000000000000000000000000000000000000909116906348b3eabc90604401602060405180830381865afa15801561301e573d6000803e3d6000fd5b505050506040513d601f19601f820116820180604052508101906108659190614d28565b82516060908190806001600160401b03811115613061576130616148c9565b60405190808252806020026020018201604052801561308a578160200160208202803683370190505b509250806001600160401b038111156130a5576130a56148c9565b6040519080825280602002602001820160405280156130ce578160200160208202803683370190505b50915060007f00000000000000000000000000000000000000000000000000000000000000006001600160a01b031663eafecffa6040518163ffffffff1660e01b8152600401602060405180830381865afa158015613131573d6000803e3d6000fd5b505050506040513d601f19601f820116820180604052508101906131559190614e4f565b905060005b8281101561328f5761318488828151811061317757613177614d45565b6020026020010151611ec5565b506000600360008a848151811061319d5761319d614d45565b60200260200101516001600160a01b03166001600160a01b0316815260200190815260200160002090506131d481896000196128a1565b508583815181106131e7576131e7614d45565b602002602001018181525050600061321f8a848151811061320a5761320a614d45565b60200260200101516000198b8b600189613503565b509050600061324e8b858151811061323957613239614d45565b60200260200101516000198c8c60008a613503565b50905061325b8183614f15565b88858151811061326d5761326d614d45565b602002602001018181525050505050808061328790614d71565b91505061315a565b505050935093915050565b60006132a68383613e54565b6001600160a01b03808516600090815260036020908152604091829020845191850151925163f8f38d1b60e01b8152949550939288169263f8f38d1b926132f292918990600401615123565b6020604051808303816000875af1158015613311573d6000803e3d6000fd5b505050506040513d601f19601f820116820180604052508101906133359190614d28565b81546001600160a01b0319166001600160a01b039182161782556040838101516060850151915163f8f38d1b60e01b81529288169263f8f38d1b9261337f92918990600401615123565b6020604051808303816000875af115801561339e573d6000803e3d6000fd5b505050506040513d601f19601f820116820180604052508101906133c29190614d28565b6001820180546001600160a01b0319166001600160a01b03928316179055608083015160a0840151604051633b0eb45d60e21b81529288169263ec3ad174926134119290918990600401615123565b6020604051808303816000875af1158015613430573d6000803e3d6000fd5b505050506040513d601f19601f820116820180604052508101906134549190614d28565b600282810180546001600160a01b039384166001600160a01b0319918216179091558154600181810184557f405787fa12a823e0f2b7631cc41b3ba8828b3321ca811111fa75cd3aa3bb5ace9091018054948916949092168417909155600083815260046020526040808220909301805460ff60401b1916600160401b17905591519092917f51efec4e8c6ee88d51e1ec000985e267b4296e493de77b4aa7a38315981390bf91a35050505050565b60008060008060006135158b886140c8565b9250925092506000198a03613605576040516370a0823160e01b81526001600160a01b038a811660048301528316906370a0823190602401602060405180830381865afa15801561356a573d6000803e3d6000fd5b505050506040513d601f19601f8201168201806040525081019061358e9190614e4f565b93506135fe83836001600160a01b03166318160ddd6040518163ffffffff1660e01b8152600401602060405180830381865afa1580156135d2573d6000803e3d6000fd5b505050506040513d601f19601f820116820180604052508101906135f69190614e4f565b869190614133565b9450613679565b61367383836001600160a01b03166318160ddd6040518163ffffffff1660e01b8152600401602060405180830381865afa158015613647573d6000803e3d6000fd5b505050506040513d601f19601f8201168201806040525081019061366b9190614e4f565b8c9190612ea8565b93508994505b846000036136905760008094509450505050613795565b848310156136b157604051631648a98f60e31b815260040160405180910390fd5b848303925060006136c38c8789614191565b9050808210156136e657604051634323a55560e01b815260040160405180910390fd5b6001600160a01b038c16600090815260036020526040902088156137105760048101859055613718565b600381018590555b604051632770a7eb60e21b81526001600160a01b038c8116600483015260248201889052851690639dc29fac90604401600060405180830381600087803b15801561376257600080fd5b505af1158015613776573d6000803e3d6000fd5b5061378f925050506001600160a01b038e168b8461283e565b50505050505b965096945050505050565b60006137f5826040518060400160405280602081526020017f5361666545524332303a206c6f772d6c6576656c2063616c6c206661696c6564815250856001600160a01b03166141f19092919063ffffffff16565b80519091501561262957808060200190518101906138139190615020565b6126295760405162461bcd60e51b815260206004820152602a60248201527f5361666545524332303a204552433230206f7065726174696f6e20646964206e6044820152691bdd081cdd58d8d9595960b21b60648201526084016109d0565b600081158061387f575082155b1561388c57506000610c49565b60006138988486614ecc565b905060006138a68483614f01565b9050612ee7848361510f565b60405163122cfaaf60e21b81526001600160a01b038581166004830152838116602483015260009182918616906348b3eabc90604401602060405180830381865afa158015613905573d6000803e3d6000fd5b505050506040513d601f19601f820116820180604052508101906139299190614d28565b60405163b1e0176560e01b81526001600160a01b0388811660048301528681166024830152604482018690529192509082169063b1e0176590606401602060405180830381865afa158015613982573d6000803e3d6000fd5b505050506040513d601f19601f820116820180604052508101906139a69190614e4f565b9695505050505050565b60408084015190516370a0823160e01b81526001600160a01b03848116600483015260009283929116906370a0823190602401602060405180830381865afa158015613a00573d6000803e3d6000fd5b505050506040513d601f19601f82011682018060405250810190613a249190614e4f565b905080600003613a38576000915050610c49565b6000613a488660a0015185614200565b90506139a68187604001516001600160a01b03166318160ddd6040518163ffffffff1660e01b8152600401602060405180830381865afa158015613a90573d6000803e3d6000fd5b505050506040513d601f19601f82011682018060405250810190613ab49190614e4f565b849190613872565b6000613ac982600a615161565b613ad38486614ecc565b61103a9190614f01565b606081606001515182604001515114613b095760405163dba17af560e01b815260040160405180910390fd5b8160400151516001600160401b03811115613b2657613b266148c9565b604051908082528060200260200182016040528015613b4f578160200160208202803683370190505b50905060005b826040015151811015612b2f57600083606001518281518110613b7a57613b7a614d45565b60209081029190910101515160808501516040516370a0823160e01b81526001600160a01b0391821660048201529116906370a0823190602401602060405180830381865afa158015613bd1573d6000803e3d6000fd5b505050506040513d601f19601f82011682018060405250810190613bf59190614e4f565b9050600084606001518381518110613c0f57613c0f614d45565b602090810291909101810151015160808601516040516370a0823160e01b81526001600160a01b0391821660048201529116906370a0823190602401602060405180830381865afa158015613c68573d6000803e3d6000fd5b505050506040513d601f19601f82011682018060405250810190613c8c9190614e4f565b9050613c988183614f15565b600003613ca6575050613d1d565b6000613ccb8660200151876000015188604001518781518110612ac357612ac3614d45565b9050613cfb86606001518581518110613ce657613ce6614d45565b60200260200101518484848a60000151614229565b858581518110613d0d57613d0d614d45565b6020026020010181815250505050505b80613d2781614d71565b915050613b55565b60008080846001811115613d4557613d45614c66565b03613dc4576040516330be9d2560e21b81526001600160a01b038781166004830152868116602483015288169063c2fa7494906044015b602060405180830381865afa158015613d99573d6000803e3d6000fd5b505050506040513d601f19601f82011682018060405250810190613dbd9190614e4f565b9050613e2c565b6001846001811115613dd857613dd8614c66565b03613e1357604051630ca4db1160e21b81526001600160a01b03878116600483015286811660248301528816906332936c4490604401613d7c565b6040516353c3731560e01b815260040160405180910390fd5b670de0b6b3a7640000613e3f8285614ecc565b613e499190614f01565b979650505050505050565b613e8d6040518060c001604052806060815260200160608152602001606081526020016060815260200160608152602001606081525090565b6000613e988461438f565b90506040518060c0016040528082604051602001613eb6919061516d565b604051602081830303815290604052815260200182604051602001613edb91906151c4565b604051602081830303815290604052815260200182604051602001613f0091906151ed565b604051602081830303815290604052815260200182604051602001613f259190615244565b604051602081830303815290604052815260200182604051602001613f4a919061526e565b604051602081830303815290604052815260200182604051602001613f6f91906152b2565b604051602081830303815290604052815250915082156140c1576000613fb47f000000000000000000000000000000000000000000000000000000000000000061438f565b8351604051919250613fca9183906020016152ce565b60408051601f198184030181529181529084526020848101519151613ff2929184910161531f565b60405160208183030381529060405283602001819052508260400151816040516020016140209291906152ce565b604051602081830303815290604052836040018190525082606001518160405160200161404e92919061531f565b604051602081830303815290604052836060018190525082608001518160405160200161407c9291906152ce565b60405160208183030381529060405283608001819052508260a00151816040516020016140aa92919061531f565b60408051601f1981840301815291905260a0840152505b5092915050565b6001600160a01b038216600090815260036020526040812081908190841561410a57600481015460018201549094506001600160a01b0316925083915061412b565b600381015481549094506001600160a01b0316925061412886610c50565b91505b509250925092565b6000811580614140575082155b1561414d57506000610c49565b60008261415a8587614ecc565b6141649190614f01565b90508015801561417357508415155b1561103a57604051630cb65c7760e21b815260040160405180910390fd5b6000816000036141a2575081610c49565b6001600160a01b0384166000908152600460205260408120600101546141c990858561442d565b6001600160a01b03871660009081526004602052604090206001015584039150509392505050565b606061103a848460008561445c565b6000670de0b6b3a76400006142158385614ecc565b61421f9190614f01565b610c499084614f15565b6000808515614318576143136142a58860600151856001600160a01b03166325ed3d446040518163ffffffff1660e01b8152600401602060405180830381865afa15801561427b573d6000803e3d6000fd5b505050506040513d601f19601f8201168201806040525081019061429f9190614e4f565b87614579565b88600001516001600160a01b03166318160ddd6040518163ffffffff1660e01b8152600401602060405180830381865afa1580156142e7573d6000803e3d6000fd5b505050506040513d601f19601f8201168201806040525081019061430b9190614e4f565b889190614133565b61431b565b60005b9050600085156143745761436f886080015189602001516001600160a01b03166318160ddd6040518163ffffffff1660e01b8152600401602060405180830381865afa1580156142e7573d6000803e3d6000fd5b614377565b60005b90506143838183614f15565b98975050505050505050565b6040805160048152602481019091526020810180516001600160e01b03166395d89b4160e01b17905260609060009081906143cb90859061278c565b915091508115806143db57508051155b156144005750506040805180820190915260018152603f60f81b602082015292915050565b60208151036144125761103a816145cd565b8080602001905181019061103a919061535b565b5050919050565b670de0b6b3a764000081830204600081198511156144515750508219600019610661565b509392840192915050565b6060824710156144bd5760405162461bcd60e51b815260206004820152602660248201527f416464726573733a20696e73756666696369656e742062616c616e636520666f6044820152651c8818d85b1b60d21b60648201526084016109d0565b843b61450b5760405162461bcd60e51b815260206004820152601d60248201527f416464726573733a2063616c6c20746f206e6f6e2d636f6e747261637400000060448201526064016109d0565b600080866001600160a01b0316858760405161452791906150f3565b60006040518083038185875af1925050503d8060008114614564576040519150601f19603f3d011682016040523d82523d6000602084013e614569565b606091505b5091509150613e4982828661464c565b60008061458e84670de0b6b3a7640000614e68565b9050670de0b6b3a764000081816145a58689614ecc565b6145af9190614f01565b6145b99190614ecc565b6145c39190614f01565b612efa9086614f15565b805160609060005b81811015614426578381815181106145ef576145ef614d45565b01602001516001600160f81b03191615614644578284828151811061461657614616614d45565b602001015160f81c60f81b6040516020016146329291906153c8565b60405160208183030381529060405292505b6001016145d5565b6060831561465b575081610c49565b82511561466b5782518084602001fd5b8160405162461bcd60e51b81526004016109d091906153f7565b6040518060c0016040528060006001600160a01b0316815260200160006001600160a01b0316815260200160006001600160a01b031681526020016000815260200160008152602001600081525090565b600081518084526020808501945080840160005b83811015614706578151875295820195908201906001016146ea565b509495945050505050565b602081526000610c4960208301846146d6565b6001600160a01b038116811461473957600080fd5b50565b6000806040838503121561474f57600080fd5b823561475a81614724565b946020939093013593505050565b60006020828403121561477a57600080fd5b8135610c4981614724565b801515811461473957600080fd5b6000806000606084860312156147a857600080fd5b83356147b381614724565b92506020840135915060408401356147ca81614785565b809150509250925092565b600081518084526020808501945080840160005b838110156147065781516001600160a01b0316875295820195908201906001016147e9565b80516001600160a01b03908116835260208083015182169084015260408083015190911690830152606080820151908301526080808201519083015260a090810151910152565b60408152600061486860408301856147d5565b82810360208481019190915284518083528582019282019060005b818110156148a95761489683865161480e565b9383019360c09290920191600101614883565b5090979650505050505050565b602081526000610c4960208301846147d5565b634e487b7160e01b600052604160045260246000fd5b604051601f8201601f191681016001600160401b0381118282101715614907576149076148c9565b604052919050565b60006001600160401b03821115614928576149286148c9565b5060051b60200190565b60006001600160401b0382111561494b5761494b6148c9565b50601f01601f191660200190565b600082601f83011261496a57600080fd5b813561497d61497882614932565b6148df565b81815284602083860101111561499257600080fd5b816020850160208301376000918101602001919091529392505050565b600080604083850312156149c257600080fd5b82356001600160401b03808211156149d957600080fd5b818501915085601f8301126149ed57600080fd5b813560206149fd6149788361490f565b82815260059290921b84018101918181019089841115614a1c57600080fd5b948201945b83861015614a43578535614a3481614724565b82529482019490820190614a21565b96505086013592505080821115614a5957600080fd5b50614a6685828601614959565b9150509250929050565b600081518084526020808501808196508360051b810191508286016000805b86811015614ade578385038a52825180518087529087019087870190845b81811015614ac957835183529289019291890191600101614aad565b50509a87019a95505091850191600101614a8f565b509298975050505050505050565b606081526000614aff60608301866147d5565b8281036020840152614b118186614a70565b905082810360408401526139a68185614a70565b600080600060608486031215614b3a57600080fd5b8335614b4581614724565b92506020840135614b5581614724565b929592945050506040919091013590565b60008060408385031215614b7957600080fd5b8235614b8481614724565b91506020830135614b9481614724565b809150509250929050565b60c08101610865828461480e565b60008060008060808587031215614bc357600080fd5b8435614bce81614724565b93506020850135614bde81614724565b92506040850135614bee81614724565b9396929550929360600135925050565b600080600080600060a08688031215614c1657600080fd5b8535614c2181614724565b94506020860135614c3181614724565b93506040860135614c4181614724565b9250606086013591506080860135614c5881614785565b809150509295509295909350565b634e487b7160e01b600052602160045260246000fd5b600060808201905082518252602083015160208301526001600160401b036040840151166040830152606083015160038110614cc857634e487b7160e01b600052602160045260246000fd5b8060608401525092915050565b60008060008060808587031215614ceb57600080fd5b8435614cf681614724565b93506020850135614d0681614724565b9250604085013591506060850135614d1d81614785565b939692955090935050565b600060208284031215614d3a57600080fd5b8151610c4981614724565b634e487b7160e01b600052603260045260246000fd5b634e487b7160e01b600052601160045260246000fd5b600060018201614d8357614d83614d5b565b5060010190565b6020808252601f908201527f5265656e7472616e637947756172643a207265656e7472616e742063616c6c00604082015260600190565b60006020808385031215614dd457600080fd5b82516001600160401b03811115614dea57600080fd5b8301601f81018513614dfb57600080fd5b8051614e096149788261490f565b81815260059190911b82018301908381019087831115614e2857600080fd5b928401925b82841015613e49578351614e4081614724565b82529284019290840190614e2d565b600060208284031215614e6157600080fd5b5051919050565b600082821015614e7a57614e7a614d5b565b500390565b600060208284031215614e9157600080fd5b81516001600160e01b031981168114610c4957600080fd5b600060208284031215614ebb57600080fd5b815160ff81168114610c4957600080fd5b6000816000190483118215151615614ee657614ee6614d5b565b500290565b634e487b7160e01b600052601260045260246000fd5b600082614f1057614f10614eeb565b500490565b60008219821115614f2857614f28614d5b565b500190565b600181815b80851115614f68578160001904821115614f4e57614f4e614d5b565b80851615614f5b57918102915b93841c9390800290614f32565b509250929050565b600082614f7f57506001610865565b81614f8c57506000610865565b8160018114614fa25760028114614fac57614fc8565b6001915050610865565b60ff841115614fbd57614fbd614d5b565b50506001821b610865565b5060208310610133831016604e8410600b8410161715614feb575081810a610865565b614ff58383614f2d565b806000190482111561500957615009614d5b565b029392505050565b6000610c4960ff841683614f70565b60006020828403121561503257600080fd5b8151610c4981614785565b60005b83811015615058578181015183820152602001615040565b83811115612a135750506000910152565b6000815180845261508181602086016020860161503d565b601f01601f19169290920160200192915050565b6001600160a01b038616815260a0602082018190526000906150b9908301876147d5565b82810360408401526150cb81876146d6565b905082810360608401526150df81866146d6565b905082810360808401526143838185615069565b6000825161510581846020870161503d565b9190910192915050565b60008261511e5761511e614eeb565b500690565b6060815260006151366060830186615069565b82810360208401526151488186615069565b91505060018060a01b0383166040830152949350505050565b6000610c498383614f70565b7f53696c6f2046696e616e636520426f72726f7761626c652000000000000000008152600082516151a581601885016020870161503d565b670811195c1bdcda5d60c21b6018939091019283015250602001919050565b607360f81b8152600082516151e081600185016020870161503d565b9190910160010192915050565b7f53696c6f2046696e616e63652050726f7465637465642000000000000000000081526000825161522581601785016020870161503d565b670811195c1bdcda5d60c21b6017939091019283015250601f01919050565b61073760f41b81526000825161526181600285016020870161503d565b9190910160020192915050565b6c029b4b637902334b730b731b29609d1b81526000825161529681600d85016020870161503d565b64081119589d60da1b600d939091019283015250601201919050565b601960fa1b8152600082516151e081600185016020870161503d565b600083516152e081846020880161503d565b6301034b7160e51b908301908152835161530181600484016020880161503d565b642053696c6f60d81b60049290910191820152600901949350505050565b6000835161533181846020880161503d565b602d60f81b908301908152835161534f81600184016020880161503d565b01600101949350505050565b60006020828403121561536d57600080fd5b81516001600160401b0381111561538357600080fd5b8201601f8101841361539457600080fd5b80516153a261497882614932565b8181528560208385010111156153b757600080fd5b612efa82602083016020860161503d565b600083516153da81846020880161503d565b6001600160f81b0319939093169190920190815260010192915050565b602081526000610c49602083018461506956fea2646970667358221220d2089458bb096efdecee5285b6ea30b6e1214ed027412bc9f6ce1b356212cc5c64736f6c634300080d0033a26469706673582212202bc88c6dd993ec6e684f9ced5912130a9a1074cc7e33418c9a7d42da89a7018564736f6c634300080d0033",
  "devdoc": {
    "custom:security-contact": "security@silo.finance",
    "details": "Silo Factory is registered within SiloRepository contract and it's given a version. Each version is different Silo Factory that deploys different Silo implementation. Many Factory contracts can be registered with the Repository contract.",
    "kind": "dev",
    "methods": {
      "createSilo(address,uint128,bytes)": {
        "params": {
          "_data": "(optional) data that may be needed during silo creation",
          "_siloAsset": "unique asset for which Silo is deployed",
          "_version": "version of silo implementation"
        },
        "returns": {
          "silo": "deployed Silo address"
        }
      },
      "initRepository(address)": {
        "params": {
          "_siloRepository": "the SiloRepository to set"
        }
      },
      "siloFactoryPing()": {
        "details": "just a helper method to see if address is a factory"
      }
    },
    "title": "SiloFactory",
    "version": 1
  },
  "userdoc": {
    "events": {
      "NewSiloCreated(address,address,uint128)": {
        "notice": "Emitted when Silo is deployed"
      }
    },
    "kind": "user",
    "methods": {
      "createSilo(address,uint128,bytes)": {
        "notice": "Deploys Silo"
      },
      "initRepository(address)": {
        "notice": "Must be called by repository on constructor"
      }
    },
    "notice": "Silo Factory has one job, deploy Silo implementation",
    "version": 1
  },
  "storageLayout": {
    "storage": [
      {
        "astId": 12744,
        "contract": "contracts/SiloFactory.sol:SiloFactory",
        "label": "siloRepository",
        "offset": 0,
        "slot": "0",
        "type": "t_address"
      }
    ],
    "types": {
      "t_address": {
        "encoding": "inplace",
        "label": "address",
        "numberOfBytes": "20"
      }
    }
  }
}