{
  "address": "0x0f11c559A73079020Fb710b9aF16618D0b2cb341",
  "abi": [
    {
      "inputs": [],
      "name": "OnlySilo",
      "type": "error"
    },
    {
      "inputs": [],
      "name": "SiloRepositoryAlreadySet",
      "type": "error"
    },
    {
      "anonymous": false,
      "inputs": [],
      "name": "InitSiloRepository",
      "type": "event"
    },
    {
      "anonymous": false,
      "inputs": [
        {
          "indexed": true,
          "internalType": "address",
          "name": "token",
          "type": "address"
        }
      ],
      "name": "NewShareCollateralTokenCreated",
      "type": "event"
    },
    {
      "anonymous": false,
      "inputs": [
        {
          "indexed": true,
          "internalType": "address",
          "name": "token",
          "type": "address"
        }
      ],
      "name": "NewShareDebtTokenCreated",
      "type": "event"
    },
    {
      "inputs": [
        {
          "internalType": "string",
          "name": "_name",
          "type": "string"
        },
        {
          "internalType": "string",
          "name": "_symbol",
          "type": "string"
        },
        {
          "internalType": "address",
          "name": "_asset",
          "type": "address"
        }
      ],
      "name": "createShareCollateralToken",
      "outputs": [
        {
          "internalType": "contract IShareToken",
          "name": "token",
          "type": "address"
        }
      ],
      "stateMutability": "nonpayable",
      "type": "function"
    },
    {
      "inputs": [
        {
          "internalType": "string",
          "name": "_name",
          "type": "string"
        },
        {
          "internalType": "string",
          "name": "_symbol",
          "type": "string"
        },
        {
          "internalType": "address",
          "name": "_asset",
          "type": "address"
        }
      ],
      "name": "createShareDebtToken",
      "outputs": [
        {
          "internalType": "contract IShareToken",
          "name": "token",
          "type": "address"
        }
      ],
      "stateMutability": "nonpayable",
      "type": "function"
    },
    {
      "inputs": [
        {
          "internalType": "address",
          "name": "_repository",
          "type": "address"
        }
      ],
      "name": "initRepository",
      "outputs": [],
      "stateMutability": "nonpayable",
      "type": "function"
    },
    {
      "inputs": [],
      "name": "siloRepository",
      "outputs": [
        {
          "internalType": "contract ISiloRepository",
          "name": "",
          "type": "address"
        }
      ],
      "stateMutability": "view",
      "type": "function"
    },
    {
      "inputs": [],
      "name": "tokensFactoryPing",
      "outputs": [
        {
          "internalType": "bytes4",
          "name": "",
          "type": "bytes4"
        }
      ],
      "stateMutability": "pure",
      "type": "function"
    }
  ],
  "transactionHash": "0x84ba5e9b9725e62eba5112c10017b742dbb3c5688819fe8b990f0d923b2850f6",
  "args": [],
  "numDeployments": 1,
  "solcInputHash": "e7f011ba740bdebb662c0a0e3193075d",
  "bytecode": "0x608060405234801561001057600080fd5b5061330d806100206000396000f3fe608060405234801561001057600080fd5b50600436106100575760003560e01c806304b3bbe81461005c5780636849100f14610071578063bde127181461008b578063ec3ad174146100b6578063f8f38d1b146100c9575b600080fd5b61006f61006a366004610387565b6100dc565b005b604051636849100f60e01b81526020015b60405180910390f35b60005461009e906001600160a01b031681565b6040516001600160a01b039091168152602001610082565b61009e6100c436600461044c565b61014b565b61009e6100d736600461044c565b61024d565b6000546001600160a01b031615610106576040516334a515b760e11b815260040160405180910390fd5b600080546001600160a01b0319166001600160a01b0383161781556040517f62b7374e631dbf873146b0bd9f3390235a4a47128c3336ec4344c32bc28fe2929190a150565b6000805460405163025e1b9b60e31b81523360048201526001600160a01b03909116906312f0dcd890602401602060405180830381865afa158015610194573d6000803e3d6000fd5b505050506040513d601f19601f820116820180604052508101906101b891906104c0565b6101d5576040516310528c6d60e11b815260040160405180910390fd5b838333846040516101e59061034f565b6101f2949392919061052f565b604051809103906000f08015801561020e573d6000803e3d6000fd5b506040519091506001600160a01b038216907f94f128ebf0749edb8bb9d165d016ce008a16bc82cbd40cc81ded2be79140d02090600090a29392505050565b6000805460405163025e1b9b60e31b81523360048201526001600160a01b03909116906312f0dcd890602401602060405180830381865afa158015610296573d6000803e3d6000fd5b505050506040513d601f19601f820116820180604052508101906102ba91906104c0565b6102d7576040516310528c6d60e11b815260040160405180910390fd5b838333846040516102e79061035d565b6102f4949392919061052f565b604051809103906000f080158015610310573d6000803e3d6000fd5b506040519091506001600160a01b038216907fd97e9f840332422474cda9bb0976c87735b44cda62a3fe2a4e13e2e86267181290600090a29392505050565b6117ba806200057a83390190565b6115a48062001d3483390190565b80356001600160a01b038116811461038257600080fd5b919050565b60006020828403121561039957600080fd5b6103a28261036b565b9392505050565b634e487b7160e01b600052604160045260246000fd5b600082601f8301126103d057600080fd5b813567ffffffffffffffff808211156103eb576103eb6103a9565b604051601f8301601f19908116603f01168101908282118183101715610413576104136103a9565b8160405283815286602085880101111561042c57600080fd5b836020870160208301376000602085830101528094505050505092915050565b60008060006060848603121561046157600080fd5b833567ffffffffffffffff8082111561047957600080fd5b610485878388016103bf565b9450602086013591508082111561049b57600080fd5b506104a8868287016103bf565b9250506104b76040850161036b565b90509250925092565b6000602082840312156104d257600080fd5b815180151581146103a257600080fd5b6000815180845260005b81811015610508576020818501810151868301820152016104ec565b8181111561051a576000602083870101525b50601f01601f19169290920160200192915050565b60808152600061054260808301876104e2565b828103602084015261055481876104e2565b6001600160a01b0395861660408501529390941660609092019190915250939250505056fe60e06040523480156200001157600080fd5b50604051620017ba380380620017ba833981016040819052620000349162000283565b81818585816003908051906020019062000050929190620000f3565b50805162000066906004906020840190620000f3565b5050506001600160a01b03808316608052811660a08190526040805163313ce56760e01b8152905163313ce567916004808201926020929091908290030181865afa158015620000ba573d6000803e3d6000fd5b505050506040513d601f19601f82011682018060405250810190620000e0919062000312565b60ff1660c052506200037a945050505050565b82805462000101906200033e565b90600052602060002090601f01602090048101928262000125576000855562000170565b82601f106200014057805160ff191683800117855562000170565b8280016001018555821562000170579182015b828111156200017057825182559160200191906001019062000153565b506200017e92915062000182565b5090565b5b808211156200017e576000815560010162000183565b634e487b7160e01b600052604160045260246000fd5b600082601f830112620001c157600080fd5b81516001600160401b0380821115620001de57620001de62000199565b604051601f8301601f19908116603f0116810190828211818310171562000209576200020962000199565b816040528381526020925086838588010111156200022657600080fd5b600091505b838210156200024a57858201830151818301840152908201906200022b565b838211156200025c5760008385830101525b9695505050505050565b80516001600160a01b03811681146200027e57600080fd5b919050565b600080600080608085870312156200029a57600080fd5b84516001600160401b0380821115620002b257600080fd5b620002c088838901620001af565b95506020870151915080821115620002d757600080fd5b50620002e687828801620001af565b935050620002f76040860162000266565b9150620003076060860162000266565b905092959194509250565b6000602082840312156200032557600080fd5b815160ff811681146200033757600080fd5b9392505050565b600181811c908216806200035357607f821691505b6020821081036200037457634e487b7160e01b600052602260045260246000fd5b50919050565b60805160a05160c0516113df620003db600039600061019e0152600081816101e20152610d2601526000818161035301528181610522015281816105fa01528181610d5601528181610e6d01528181610f80015261101701526113df6000f3fe608060405234801561001057600080fd5b506004361061012c5760003560e01c806362221ca1116100ad5780639dc29fac116100715780639dc29fac146102dc578063a457c2d7146102ef578063a9059cbb14610302578063dd62ed3e14610315578063eb3beb291461034e57600080fd5b806362221ca11461024c57806370a082311461028557806375d68016146102ae57806380d4336e146102c157806395d89b41146102d457600080fd5b806334deadf2116100f457806334deadf2146101c857806338d52e0f146101dd578063395093511461021c5780633ca4aed01461022f57806340c10f191461023957600080fd5b806306fdde0314610131578063095ea7b31461014f57806318160ddd1461017257806323b872dd14610184578063313ce56714610197575b600080fd5b610139610375565b60405161014691906111c1565b60405180910390f35b61016261015d36600461120c565b610407565b6040519015158152602001610146565b6002545b604051908152602001610146565b610162610192366004611238565b61041d565b60405160ff7f0000000000000000000000000000000000000000000000000000000000000000168152602001610146565b6101db6101d636600461120c565b6104cc565b005b6102047f000000000000000000000000000000000000000000000000000000000000000081565b6040516001600160a01b039091168152602001610146565b61016261022a36600461120c565b6104db565b610176620186a081565b6101db61024736600461120c565b610517565b61017661025a366004611279565b6001600160a01b03918216600090815260056020908152604080832093909416825291909152205490565b6101766102933660046112b2565b6001600160a01b031660009081526020819052604090205490565b6101db6102bc36600461120c565b61056a565b6101db6102cf36600461120c565b6105aa565b6101396105e0565b6101db6102ea36600461120c565b6105ef565b6101626102fd36600461120c565b610642565b61016261031036600461120c565b6106db565b610176610323366004611279565b6001600160a01b03918216600090815260016020908152604080832093909416825291909152205490565b6102047f000000000000000000000000000000000000000000000000000000000000000081565b606060038054610384906112cf565b80601f01602080910402602001604051908101604052809291908181526020018280546103b0906112cf565b80156103fd5780601f106103d2576101008083540402835291602001916103fd565b820191906000526020600020905b8154815290600101906020018083116103e057829003601f168201915b5050505050905090565b60006104143384846106e8565b50600192915050565b600061042a84848461080d565b6001600160a01b0384166000908152600160209081526040808320338452909152902054828110156104b45760405162461bcd60e51b815260206004820152602860248201527f45524332303a207472616e7366657220616d6f756e74206578636565647320616044820152676c6c6f77616e636560c01b60648201526084015b60405180910390fd5b6104c185338584036106e8565b506001949350505050565b6104d78233836109f2565b5050565b3360008181526001602090815260408083206001600160a01b0387168452909152812054909161041491859061051290869061131f565b6106e8565b336001600160a01b037f00000000000000000000000000000000000000000000000000000000000000001614610560576040516310528c6d60e11b815260040160405180910390fd5b6104d78282610a99565b6001600160a01b038216600090815260056020908152604080832033808552925290912054906105a59084906105a0858561131f565b6109f2565b505050565b6001600160a01b038216600090815260056020908152604080832033808552925290912054906105a59084906105a08585611337565b60606105ea610b8c565b905090565b336001600160a01b037f00000000000000000000000000000000000000000000000000000000000000001614610638576040516310528c6d60e11b815260040160405180910390fd5b6104d78282610b9b565b3360009081526001602090815260408083206001600160a01b0386168452909152812054828110156106c45760405162461bcd60e51b815260206004820152602560248201527f45524332303a2064656372656173656420616c6c6f77616e63652062656c6f77604482015264207a65726f60d81b60648201526084016104ab565b6106d133858584036106e8565b5060019392505050565b600061041433848461080d565b6001600160a01b03831661074a5760405162461bcd60e51b8152602060048201526024808201527f45524332303a20617070726f76652066726f6d20746865207a65726f206164646044820152637265737360e01b60648201526084016104ab565b6001600160a01b0382166107ab5760405162461bcd60e51b815260206004820152602260248201527f45524332303a20617070726f766520746f20746865207a65726f206164647265604482015261737360f01b60648201526084016104ab565b6001600160a01b0383811660008181526001602090815260408083209487168084529482529182902085905590518481527f8c5be1e5ebec7d5bd14f71427d1e84f3dd0314c0f7b2291e5b200ac8c7c3b92591015b60405180910390a3505050565b6001600160a01b0383166108715760405162461bcd60e51b815260206004820152602560248201527f45524332303a207472616e736665722066726f6d20746865207a65726f206164604482015264647265737360d81b60648201526084016104ab565b6001600160a01b0382166108d35760405162461bcd60e51b815260206004820152602360248201527f45524332303a207472616e7366657220746f20746865207a65726f206164647260448201526265737360e81b60648201526084016104ab565b6108de838383610cfc565b6001600160a01b038316600090815260208190526040902054818110156109565760405162461bcd60e51b815260206004820152602660248201527f45524332303a207472616e7366657220616d6f756e7420657863656564732062604482015265616c616e636560d01b60648201526084016104ab565b6001600160a01b0380851660009081526020819052604080822085850390559185168152908120805484929061098d90849061131f565b92505081905550826001600160a01b0316846001600160a01b03167fddf252ad1be2c89b69c2b068fc378daa952ba7f163c4a11628f55a4df523b3ef846040516109d991815260200190565b60405180910390a36109ec848484610e32565b50505050565b6001600160a01b038316610a1957604051634269a05960e01b815260040160405180910390fd5b6001600160a01b038216610a405760405163b05313bb60e01b815260040160405180910390fd5b6001600160a01b0383811660008181526005602090815260408083209487168084529482529182902085905590518481527fa80d0efa8328d29034668db835056d5d5e5876f77ffc7bc09f1e06b2ba18b1219101610800565b6001600160a01b038216610aef5760405162461bcd60e51b815260206004820152601f60248201527f45524332303a206d696e7420746f20746865207a65726f20616464726573730060448201526064016104ab565b610afb60008383610cfc565b8060026000828254610b0d919061131f565b90915550506001600160a01b03821660009081526020819052604081208054839290610b3a90849061131f565b90915550506040518181526001600160a01b038316906000907fddf252ad1be2c89b69c2b068fc378daa952ba7f163c4a11628f55a4df523b3ef9060200160405180910390a36104d760008383610e32565b606060048054610384906112cf565b6001600160a01b038216610bfb5760405162461bcd60e51b815260206004820152602160248201527f45524332303a206275726e2066726f6d20746865207a65726f206164647265736044820152607360f81b60648201526084016104ab565b610c0782600083610cfc565b6001600160a01b03821660009081526020819052604090205481811015610c7b5760405162461bcd60e51b815260206004820152602260248201527f45524332303a206275726e20616d6f756e7420657863656564732062616c616e604482015261636560f01b60648201526084016104ab565b6001600160a01b0383166000908152602081905260408120838303905560028054849290610caa908490611337565b90915550506040518281526000906001600160a01b038516907fddf252ad1be2c89b69c2b068fc378daa952ba7f163c4a11628f55a4df523b3ef9060200160405180910390a36105a583600084610e32565b610d068383610f03565b610d0f57505050565b6040516379ea386160e11b81526001600160a01b037f00000000000000000000000000000000000000000000000000000000000000008116600483015283811660248301527f0000000000000000000000000000000000000000000000000000000000000000169063f3d470c290604401602060405180830381865afa158015610d9d573d6000803e3d6000fd5b505050506040513d601f19601f82011682018060405250810190610dc1919061134e565b610dde576040516349bb6ced60e11b815260040160405180910390fd5b6001600160a01b0383811660009081526005602090815260408083209386168352929052205481811015610e25576040516303814af160e61b815260040160405180910390fd5b6109ec84848484036109f2565b610e3d838383610f2c565b610e478383610f03565b8015610eda57506040516338b51ce160e01b81526001600160a01b0383811660048301527f000000000000000000000000000000000000000000000000000000000000000016906338b51ce190602401602060405180830381865afa158015610eb4573d6000803e3d6000fd5b505050506040513d601f19601f82011682018060405250810190610ed8919061134e565b155b15610ef8576040516377b1921f60e11b815260040160405180910390fd5b6105a5838383610f7c565b60006001600160a01b03831615801590610f2557506001600160a01b03821615155b9392505050565b610f368383610f03565b15610f4057505050565b6000610f4b60025490565b90508015801590610f5e5750620186a081105b156109ec57604051637e442c1360e01b815260040160405180910390fd5b60007f00000000000000000000000000000000000000000000000000000000000000006001600160a01b031663bde127186040518163ffffffff1660e01b8152600401602060405180830381865afa158015610fdc573d6000803e3d6000fd5b505050506040513d601f19601f820116820180604052508101906110009190611370565b604051631a16b46360e11b81526001600160a01b037f000000000000000000000000000000000000000000000000000000000000000081166004830152919091169063342d68c690602401602060405180830381865afa158015611068573d6000803e3d6000fd5b505050506040513d601f19601f8201168201806040525081019061108c9190611370565b90506001600160a01b038116156109ec57604080513060248201526001600160a01b038681166044830152858116606483015260848083018690528351808403909101815260a490920183526020820180516001600160e01b0316630f1bf70d60e01b17905291516000928416916111039161138d565b6000604051808303816000865af19150503d8060008114611140576040519150601f19603f3d011682016040523d82523d6000602084013e611145565b606091505b50509050816001600160a01b03167fe367d7de03229ee9a5f0a76a230fa0c93a7f8605b676469f7df108d5e813c07682604051611186911515815260200190565b60405180910390a25050505050565b60005b838110156111b0578181015183820152602001611198565b838111156109ec5750506000910152565b60208152600082518060208401526111e0816040850160208701611195565b601f01601f19169190910160400192915050565b6001600160a01b038116811461120957600080fd5b50565b6000806040838503121561121f57600080fd5b823561122a816111f4565b946020939093013593505050565b60008060006060848603121561124d57600080fd5b8335611258816111f4565b92506020840135611268816111f4565b929592945050506040919091013590565b6000806040838503121561128c57600080fd5b8235611297816111f4565b915060208301356112a7816111f4565b809150509250929050565b6000602082840312156112c457600080fd5b8135610f25816111f4565b600181811c908216806112e357607f821691505b60208210810361130357634e487b7160e01b600052602260045260246000fd5b50919050565b634e487b7160e01b600052601160045260246000fd5b6000821982111561133257611332611309565b500190565b60008282101561134957611349611309565b500390565b60006020828403121561136057600080fd5b81518015158114610f2557600080fd5b60006020828403121561138257600080fd5b8151610f25816111f4565b6000825161139f818460208701611195565b919091019291505056fea26469706673582212201abc7b122d2902d65705b165421e008b5d2070cf49dbafbef171e994c87949d964736f6c634300080d003360e06040523480156200001157600080fd5b50604051620015a4380380620015a4833981016040819052620000349162000283565b81818585816003908051906020019062000050929190620000f3565b50805162000066906004906020840190620000f3565b5050506001600160a01b03808316608052811660a08190526040805163313ce56760e01b8152905163313ce567916004808201926020929091908290030181865afa158015620000ba573d6000803e3d6000fd5b505050506040513d601f19601f82011682018060405250810190620000e0919062000312565b60ff1660c052506200037a945050505050565b82805462000101906200033e565b90600052602060002090601f01602090048101928262000125576000855562000170565b82601f106200014057805160ff191683800117855562000170565b8280016001018555821562000170579182015b828111156200017057825182559160200191906001019062000153565b506200017e92915062000182565b5090565b5b808211156200017e576000815560010162000183565b634e487b7160e01b600052604160045260246000fd5b600082601f830112620001c157600080fd5b81516001600160401b0380821115620001de57620001de62000199565b604051601f8301601f19908116603f0116810190828211818310171562000209576200020962000199565b816040528381526020925086838588010111156200022657600080fd5b600091505b838210156200024a57858201830151818301840152908201906200022b565b838211156200025c5760008385830101525b9695505050505050565b80516001600160a01b03811681146200027e57600080fd5b919050565b600080600080608085870312156200029a57600080fd5b84516001600160401b0380821115620002b257600080fd5b620002c088838901620001af565b95506020870151915080821115620002d757600080fd5b50620002e687828801620001af565b935050620002f76040860162000266565b9150620003076060860162000266565b905092959194509250565b6000602082840312156200032557600080fd5b815160ff811681146200033757600080fd5b9392505050565b600181811c908216806200035357607f821691505b6020821081036200037457634e487b7160e01b600052602260045260246000fd5b50919050565b60805160a05160c0516111c9620003db60003960006101720152600081816101a10152610b640152600081816102b501528181610475015281816104db01528181610b9401528181610c5701528181610d6a0152610e0101526111c96000f3fe608060405234801561001057600080fd5b50600436106101005760003560e01c806340c10f1911610097578063a457c2d711610066578063a457c2d714610251578063a9059cbb14610264578063dd62ed3e14610277578063eb3beb29146102b057600080fd5b806340c10f19146101f857806370a082311461020d57806395d89b41146102365780639dc29fac1461023e57600080fd5b8063313ce567116100d3578063313ce5671461016b57806338d52e0f1461019c57806339509351146101db5780633ca4aed0146101ee57600080fd5b806306fdde0314610105578063095ea7b31461012357806318160ddd1461014657806323b872dd14610158575b600080fd5b61010d6102d7565b60405161011a9190610fab565b60405180910390f35b610136610131366004610ff6565b610369565b604051901515815260200161011a565b6002545b60405190815260200161011a565b610136610166366004611022565b61037f565b60405160ff7f000000000000000000000000000000000000000000000000000000000000000016815260200161011a565b6101c37f000000000000000000000000000000000000000000000000000000000000000081565b6040516001600160a01b03909116815260200161011a565b6101366101e9366004610ff6565b61042e565b61014a620186a081565b61020b610206366004610ff6565b61046a565b005b61014a61021b366004611063565b6001600160a01b031660009081526020819052604090205490565b61010d6104c1565b61020b61024c366004610ff6565b6104d0565b61013661025f366004610ff6565b610523565b610136610272366004610ff6565b6105bc565b61014a610285366004611080565b6001600160a01b03918216600090815260016020908152604080832093909416825291909152205490565b6101c37f000000000000000000000000000000000000000000000000000000000000000081565b6060600380546102e6906110b9565b80601f0160208091040260200160405190810160405280929190818152602001828054610312906110b9565b801561035f5780601f106103345761010080835404028352916020019161035f565b820191906000526020600020905b81548152906001019060200180831161034257829003601f168201915b5050505050905090565b60006103763384846105c9565b50600192915050565b600061038c8484846106ed565b6001600160a01b0384166000908152600160209081526040808320338452909152902054828110156104165760405162461bcd60e51b815260206004820152602860248201527f45524332303a207472616e7366657220616d6f756e74206578636565647320616044820152676c6c6f77616e636560c01b60648201526084015b60405180910390fd5b61042385338584036105c9565b506001949350505050565b3360008181526001602090815260408083206001600160a01b03871684529091528120549091610376918590610465908690611109565b6105c9565b336001600160a01b037f000000000000000000000000000000000000000000000000000000000000000016146104b3576040516310528c6d60e11b815260040160405180910390fd5b6104bd82826108d2565b5050565b60606104cb6109c5565b905090565b336001600160a01b037f00000000000000000000000000000000000000000000000000000000000000001614610519576040516310528c6d60e11b815260040160405180910390fd5b6104bd82826109d4565b3360009081526001602090815260408083206001600160a01b0386168452909152812054828110156105a55760405162461bcd60e51b815260206004820152602560248201527f45524332303a2064656372656173656420616c6c6f77616e63652062656c6f77604482015264207a65726f60d81b606482015260840161040d565b6105b233858584036105c9565b5060019392505050565b60006103763384846106ed565b6001600160a01b03831661062b5760405162461bcd60e51b8152602060048201526024808201527f45524332303a20617070726f76652066726f6d20746865207a65726f206164646044820152637265737360e01b606482015260840161040d565b6001600160a01b03821661068c5760405162461bcd60e51b815260206004820152602260248201527f45524332303a20617070726f766520746f20746865207a65726f206164647265604482015261737360f01b606482015260840161040d565b6001600160a01b0383811660008181526001602090815260408083209487168084529482529182902085905590518481527f8c5be1e5ebec7d5bd14f71427d1e84f3dd0314c0f7b2291e5b200ac8c7c3b925910160405180910390a3505050565b6001600160a01b0383166107515760405162461bcd60e51b815260206004820152602560248201527f45524332303a207472616e736665722066726f6d20746865207a65726f206164604482015264647265737360d81b606482015260840161040d565b6001600160a01b0382166107b35760405162461bcd60e51b815260206004820152602360248201527f45524332303a207472616e7366657220746f20746865207a65726f206164647260448201526265737360e81b606482015260840161040d565b6107be838383610b3a565b6001600160a01b038316600090815260208190526040902054818110156108365760405162461bcd60e51b815260206004820152602660248201527f45524332303a207472616e7366657220616d6f756e7420657863656564732062604482015265616c616e636560d01b606482015260840161040d565b6001600160a01b0380851660009081526020819052604080822085850390559185168152908120805484929061086d908490611109565b92505081905550826001600160a01b0316846001600160a01b03167fddf252ad1be2c89b69c2b068fc378daa952ba7f163c4a11628f55a4df523b3ef846040516108b991815260200190565b60405180910390a36108cc848484610c1c565b50505050565b6001600160a01b0382166109285760405162461bcd60e51b815260206004820152601f60248201527f45524332303a206d696e7420746f20746865207a65726f206164647265737300604482015260640161040d565b61093460008383610b3a565b80600260008282546109469190611109565b90915550506001600160a01b03821660009081526020819052604081208054839290610973908490611109565b90915550506040518181526001600160a01b038316906000907fddf252ad1be2c89b69c2b068fc378daa952ba7f163c4a11628f55a4df523b3ef9060200160405180910390a36104bd60008383610c1c565b6060600480546102e6906110b9565b6001600160a01b038216610a345760405162461bcd60e51b815260206004820152602160248201527f45524332303a206275726e2066726f6d20746865207a65726f206164647265736044820152607360f81b606482015260840161040d565b610a4082600083610b3a565b6001600160a01b03821660009081526020819052604090205481811015610ab45760405162461bcd60e51b815260206004820152602260248201527f45524332303a206275726e20616d6f756e7420657863656564732062616c616e604482015261636560f01b606482015260840161040d565b6001600160a01b0383166000908152602081905260408120838303905560028054849290610ae3908490611121565b90915550506040518281526000906001600160a01b038516907fddf252ad1be2c89b69c2b068fc378daa952ba7f163c4a11628f55a4df523b3ef9060200160405180910390a3610b3583600084610c1c565b505050565b610b448383610ced565b610b4d57505050565b60405163a6e08aa160e01b81526001600160a01b037f00000000000000000000000000000000000000000000000000000000000000008116600483015283811660248301527f0000000000000000000000000000000000000000000000000000000000000000169063a6e08aa190604401602060405180830381865afa158015610bdb573d6000803e3d6000fd5b505050506040513d601f19601f82011682018060405250810190610bff9190611138565b610b35576040516349bb6ced60e11b815260040160405180910390fd5b610c27838383610d16565b610c318383610ced565b8015610cc457506040516338b51ce160e01b81526001600160a01b0384811660048301527f000000000000000000000000000000000000000000000000000000000000000016906338b51ce190602401602060405180830381865afa158015610c9e573d6000803e3d6000fd5b505050506040513d601f19601f82011682018060405250810190610cc29190611138565b155b15610ce257604051633c3b8e1b60e21b815260040160405180910390fd5b610b35838383610d66565b60006001600160a01b03831615801590610d0f57506001600160a01b03821615155b9392505050565b610d208383610ced565b15610d2a57505050565b6000610d3560025490565b90508015801590610d485750620186a081105b156108cc57604051637e442c1360e01b815260040160405180910390fd5b60007f00000000000000000000000000000000000000000000000000000000000000006001600160a01b031663bde127186040518163ffffffff1660e01b8152600401602060405180830381865afa158015610dc6573d6000803e3d6000fd5b505050506040513d601f19601f82011682018060405250810190610dea919061115a565b604051631a16b46360e11b81526001600160a01b037f000000000000000000000000000000000000000000000000000000000000000081166004830152919091169063342d68c690602401602060405180830381865afa158015610e52573d6000803e3d6000fd5b505050506040513d601f19601f82011682018060405250810190610e76919061115a565b90506001600160a01b038116156108cc57604080513060248201526001600160a01b038681166044830152858116606483015260848083018690528351808403909101815260a490920183526020820180516001600160e01b0316630f1bf70d60e01b1790529151600092841691610eed91611177565b6000604051808303816000865af19150503d8060008114610f2a576040519150601f19603f3d011682016040523d82523d6000602084013e610f2f565b606091505b50509050816001600160a01b03167fe367d7de03229ee9a5f0a76a230fa0c93a7f8605b676469f7df108d5e813c07682604051610f70911515815260200190565b60405180910390a25050505050565b60005b83811015610f9a578181015183820152602001610f82565b838111156108cc5750506000910152565b6020815260008251806020840152610fca816040850160208701610f7f565b601f01601f19169190910160400192915050565b6001600160a01b0381168114610ff357600080fd5b50565b6000806040838503121561100957600080fd5b823561101481610fde565b946020939093013593505050565b60008060006060848603121561103757600080fd5b833561104281610fde565b9250602084013561105281610fde565b929592945050506040919091013590565b60006020828403121561107557600080fd5b8135610d0f81610fde565b6000806040838503121561109357600080fd5b823561109e81610fde565b915060208301356110ae81610fde565b809150509250929050565b600181811c908216806110cd57607f821691505b6020821081036110ed57634e487b7160e01b600052602260045260246000fd5b50919050565b634e487b7160e01b600052601160045260246000fd5b6000821982111561111c5761111c6110f3565b500190565b600082821015611133576111336110f3565b500390565b60006020828403121561114a57600080fd5b81518015158114610d0f57600080fd5b60006020828403121561116c57600080fd5b8151610d0f81610fde565b60008251611189818460208701610f7f565b919091019291505056fea2646970667358221220d3e5979e7e3baaaf4906613da77a206584fcdf5401d535ab2cfd540964940ee664736f6c634300080d0033a2646970667358221220608125b6ed3addaff8627c506ef9581d0d94f3fe5d1b1d1013e9a22191e7235664736f6c634300080d0033",
  "devdoc": {
    "custom:security-contact": "security@silo.finance",
    "kind": "dev",
    "methods": {
      "createShareCollateralToken(string,string,address)": {
        "params": {
          "_asset": "underlying asset for which token is deployed",
          "_name": "name of the token",
          "_symbol": "symbol of the token"
        },
        "returns": {
          "token": "address of deployed collateral share token"
        }
      },
      "createShareDebtToken(string,string,address)": {
        "params": {
          "_asset": "underlying asset for which token is deployed",
          "_name": "name of the token",
          "_symbol": "symbol of the token"
        },
        "returns": {
          "token": "address of deployed debt share token"
        }
      },
      "initRepository(address)": {
        "params": {
          "_siloRepository": "the SiloRepository to set"
        }
      },
      "tokensFactoryPing()": {
        "details": "just a helper method to see if address is a factory",
        "returns": {
          "_0": "always true"
        }
      }
    },
    "title": "TokensFactory",
    "version": 1
  },
  "userdoc": {
    "events": {
      "NewShareCollateralTokenCreated(address)": {
        "notice": "Emitted when collateral token is deployed"
      },
      "NewShareDebtTokenCreated(address)": {
        "notice": "Emitted when collateral token is deployed"
      }
    },
    "kind": "user",
    "methods": {
      "createShareCollateralToken(string,string,address)": {
        "notice": "Deploys collateral token"
      },
      "createShareDebtToken(string,string,address)": {
        "notice": "Deploys debt token"
      },
      "initRepository(address)": {
        "notice": "Must be called by repository on constructor"
      }
    },
    "notice": "Deploys debt and collateral tokens for each Silo",
    "version": 1
  },
  "storageLayout": {
    "storage": [
      {
        "astId": 16141,
        "contract": "contracts/TokensFactory.sol:TokensFactory",
        "label": "siloRepository",
        "offset": 0,
        "slot": "0",
        "type": "t_contract(ISiloRepository)18487"
      }
    ],
    "types": {
      "t_contract(ISiloRepository)18487": {
        "encoding": "inplace",
        "label": "contract ISiloRepository",
        "numberOfBytes": "20"
      }
    }
  }
}