{
  "address": "0x9546d86C4DFdBcb53a3CeB18b19c397c873C9065",
  "abi": [
    {
      "inputs": [
        {
          "internalType": "contract IPriceProvidersRepository",
          "name": "_priceProvidersRepository",
          "type": "address"
        },
        {
          "internalType": "contract IUniswapV3Factory",
          "name": "_factory",
          "type": "address"
        },
        {
          "components": [
            {
              "internalType": "uint32",
              "name": "periodForAvgPrice",
              "type": "uint32"
            },
            {
              "internalType": "uint8",
              "name": "blockTime",
              "type": "uint8"
            }
          ],
          "internalType": "struct UniswapV3PriceProvider.PriceCalculationData",
          "name": "_priceCalculationData",
          "type": "tuple"
        }
      ],
      "stateMutability": "nonpayable",
      "type": "constructor"
    },
    {
      "anonymous": false,
      "inputs": [
        {
          "indexed": false,
          "internalType": "uint8",
          "name": "blockTime",
          "type": "uint8"
        }
      ],
      "name": "NewBlockTime",
      "type": "event"
    },
    {
      "anonymous": false,
      "inputs": [
        {
          "indexed": false,
          "internalType": "uint32",
          "name": "period",
          "type": "uint32"
        }
      ],
      "name": "NewPeriod",
      "type": "event"
    },
    {
      "anonymous": false,
      "inputs": [
        {
          "indexed": true,
          "internalType": "address",
          "name": "newPendingOwner",
          "type": "address"
        }
      ],
      "name": "OwnershipPending",
      "type": "event"
    },
    {
      "anonymous": false,
      "inputs": [
        {
          "indexed": true,
          "internalType": "address",
          "name": "newOwner",
          "type": "address"
        }
      ],
      "name": "OwnershipTransferred",
      "type": "event"
    },
    {
      "anonymous": false,
      "inputs": [
        {
          "indexed": true,
          "internalType": "address",
          "name": "asset",
          "type": "address"
        },
        {
          "indexed": true,
          "internalType": "contract IUniswapV3Pool",
          "name": "pool",
          "type": "address"
        }
      ],
      "name": "PoolForAsset",
      "type": "event"
    },
    {
      "inputs": [],
      "name": "acceptOwnership",
      "outputs": [],
      "stateMutability": "nonpayable",
      "type": "function"
    },
    {
      "inputs": [
        {
          "internalType": "contract IUniswapV3Pool",
          "name": "_pool",
          "type": "address"
        }
      ],
      "name": "adjustOracleCardinality",
      "outputs": [],
      "stateMutability": "nonpayable",
      "type": "function"
    },
    {
      "inputs": [
        {
          "internalType": "address",
          "name": "_asset",
          "type": "address"
        }
      ],
      "name": "assetSupported",
      "outputs": [
        {
          "internalType": "bool",
          "name": "",
          "type": "bool"
        }
      ],
      "stateMutability": "view",
      "type": "function"
    },
    {
      "inputs": [
        {
          "internalType": "uint8",
          "name": "_blockTime",
          "type": "uint8"
        }
      ],
      "name": "changeBlockTime",
      "outputs": [],
      "stateMutability": "nonpayable",
      "type": "function"
    },
    {
      "inputs": [
        {
          "internalType": "uint32",
          "name": "_period",
          "type": "uint32"
        }
      ],
      "name": "changePeriodForAvgPrice",
      "outputs": [],
      "stateMutability": "nonpayable",
      "type": "function"
    },
    {
      "inputs": [
        {
          "internalType": "address",
          "name": "_asset",
          "type": "address"
        }
      ],
      "name": "getPrice",
      "outputs": [
        {
          "internalType": "uint256",
          "name": "price",
          "type": "uint256"
        }
      ],
      "stateMutability": "view",
      "type": "function"
    },
    {
      "inputs": [
        {
          "internalType": "address",
          "name": "_pool",
          "type": "address"
        }
      ],
      "name": "hasEnoughObservations",
      "outputs": [
        {
          "internalType": "bool",
          "name": "",
          "type": "bool"
        },
        {
          "internalType": "uint32",
          "name": "oldestObservationTimestamp",
          "type": "uint32"
        }
      ],
      "stateMutability": "view",
      "type": "function"
    },
    {
      "inputs": [],
      "name": "owner",
      "outputs": [
        {
          "internalType": "address",
          "name": "",
          "type": "address"
        }
      ],
      "stateMutability": "view",
      "type": "function"
    },
    {
      "inputs": [],
      "name": "pendingOwner",
      "outputs": [
        {
          "internalType": "address",
          "name": "",
          "type": "address"
        }
      ],
      "stateMutability": "view",
      "type": "function"
    },
    {
      "inputs": [
        {
          "internalType": "address",
          "name": "",
          "type": "address"
        }
      ],
      "name": "pools",
      "outputs": [
        {
          "internalType": "contract IUniswapV3Pool",
          "name": "",
          "type": "address"
        }
      ],
      "stateMutability": "view",
      "type": "function"
    },
    {
      "inputs": [],
      "name": "priceCalculationData",
      "outputs": [
        {
          "internalType": "uint32",
          "name": "periodForAvgPrice",
          "type": "uint32"
        },
        {
          "internalType": "uint8",
          "name": "blockTime",
          "type": "uint8"
        }
      ],
      "stateMutability": "view",
      "type": "function"
    },
    {
      "inputs": [],
      "name": "priceProviderPing",
      "outputs": [
        {
          "internalType": "bytes4",
          "name": "",
          "type": "bytes4"
        }
      ],
      "stateMutability": "pure",
      "type": "function"
    },
    {
      "inputs": [],
      "name": "priceProvidersRepository",
      "outputs": [
        {
          "internalType": "contract IPriceProvidersRepository",
          "name": "",
          "type": "address"
        }
      ],
      "stateMutability": "view",
      "type": "function"
    },
    {
      "inputs": [
        {
          "internalType": "contract IUniswapV3Pool",
          "name": "_pool",
          "type": "address"
        }
      ],
      "name": "quotePrice",
      "outputs": [
        {
          "internalType": "uint256",
          "name": "price",
          "type": "uint256"
        }
      ],
      "stateMutability": "view",
      "type": "function"
    },
    {
      "inputs": [],
      "name": "quoteToken",
      "outputs": [
        {
          "internalType": "address",
          "name": "",
          "type": "address"
        }
      ],
      "stateMutability": "view",
      "type": "function"
    },
    {
      "inputs": [],
      "name": "removePendingOwnership",
      "outputs": [],
      "stateMutability": "nonpayable",
      "type": "function"
    },
    {
      "inputs": [],
      "name": "renounceOwnership",
      "outputs": [],
      "stateMutability": "nonpayable",
      "type": "function"
    },
    {
      "inputs": [
        {
          "internalType": "address",
          "name": "_asset",
          "type": "address"
        },
        {
          "internalType": "contract IUniswapV3Pool",
          "name": "_pool",
          "type": "address"
        }
      ],
      "name": "setupAsset",
      "outputs": [],
      "stateMutability": "nonpayable",
      "type": "function"
    },
    {
      "inputs": [
        {
          "internalType": "address",
          "name": "newOwner",
          "type": "address"
        }
      ],
      "name": "transferOwnership",
      "outputs": [],
      "stateMutability": "nonpayable",
      "type": "function"
    },
    {
      "inputs": [
        {
          "internalType": "address",
          "name": "newPendingOwner",
          "type": "address"
        }
      ],
      "name": "transferPendingOwnership",
      "outputs": [],
      "stateMutability": "nonpayable",
      "type": "function"
    },
    {
      "inputs": [],
      "name": "uniswapV3Factory",
      "outputs": [
        {
          "internalType": "contract IUniswapV3Factory",
          "name": "",
          "type": "address"
        }
      ],
      "stateMutability": "view",
      "type": "function"
    },
    {
      "inputs": [
        {
          "internalType": "address",
          "name": "_asset",
          "type": "address"
        },
        {
          "internalType": "contract IUniswapV3Pool",
          "name": "_pool",
          "type": "address"
        }
      ],
      "name": "verifyPool",
      "outputs": [
        {
          "internalType": "bool",
          "name": "",
          "type": "bool"
        }
      ],
      "stateMutability": "view",
      "type": "function"
    }
  ],
  "transactionHash": "0xb69633e884db9a4d04467169baf95e6dde2820bfddb578eb35e183db86e4cf99",
  "args": [
    "0xeD065d2feFF654C0924586438925c434c8B8377A",
    "0x1F98431c8aD98523631AE4a59f267346ea31F984",
    {
      "periodForAvgPrice": 1800,
      "blockTime": 10
    }
  ],
  "numDeployments": 1,
  "solcInputHash": "821855959dee09165daa476d9e752242",
  "bytecode": "0x6101006040523480156200001257600080fd5b5060405162002a9038038062002a90833981016040819052620000359162000635565b826200005a816001600160a01b031663eec3e6a7620003bc60201b620011cd1760201c565b620000ac576040805162461bcd60e51b815260206004820152601e60248201527f496e76616c6964507269636550726f76696465725265706f7369746f72790000604482015290519081900360640190fd5b806001600160a01b03166080816001600160a01b031660601b81525050806001600160a01b031663217a4b706040518163ffffffff1660e01b815260040160206040518083038186803b1580156200010357600080fd5b505afa15801562000118573d6000803e3d6000fd5b505050506040513d60208110156200012f57600080fd5b505160601b6001600160601b03191660a052506200014d3362000449565b6040516322afcccb60e01b81526101f4906001600160a01b038416906322afcccb906200017f908490600401620007d7565b60206040518083038186803b1580156200019857600080fd5b505afa158015620001ad573d6000803e3d6000fd5b505050506040513d601f19601f82011682018060405250810190620001d39190620006d7565b60020b620001fe5760405162461bcd60e51b8152600401620001f590620007af565b60405180910390fd5b815163ffffffff16620002255760405162461bcd60e51b8152600401620001f59062000778565b602082015160ff161580620002425750603c826020015160ff1610155b15620002625760405162461bcd60e51b8152600401620001f5906200074e565b8151602083015162000275919062000507565b6001600160601b0319606084901b1660e05281516002805460208086015160ff166401000000000260ff60201b1963ffffffff90951663ffffffff19909316929092179390931617905560408051630217a4b760e41b815290516001600160a01b0387169263217a4b709260048181019391829003018186803b158015620002fc57600080fd5b505afa15801562000311573d6000803e3d6000fd5b505050506040513d601f19601f8201168201806040525081019062000337919062000616565b6001600160a01b031663313ce5676040518163ffffffff1660e01b815260040160206040518083038186803b1580156200037057600080fd5b505afa15801562000385573d6000803e3d6000fd5b505050506040513d601f19601f82011682018060405250810190620003ab9190620006fa565b60ff1660c05250620007fd92505050565b60006001600160a01b0383161580159062000442575082826040518163ffffffff1660e01b815260040160206040518083038186803b158015620003ff57600080fd5b505afa15801562000414573d6000803e3d6000fd5b505050506040513d60208110156200042b57600080fd5b505160e083901b6001600160e01b03199081169116145b9392505050565b6000546001600160a01b0382811691161415620004a1576040805162461bcd60e51b81526020600482015260116024820152704f776e65724469644e6f744368616e676560781b604482015290519081900360640190fd5b600080546001600160a01b0319166001600160a01b038316908117825560405190917f04dba622d284ed0014ee4b9a6a68386be1a4c08a4913ae272de89199cc68616391a26001546001600160a01b031615620005045762000504600062000551565b50565b60008160ff168363ffffffff16816200051c57fe5b0463ffffffff16905061ffff80168111156200054c5760405162461bcd60e51b8152600401620001f59062000717565b505050565b6001546001600160a01b0382811691161415620005b5576040805162461bcd60e51b815260206004820152601860248201527f50656e64696e674f776e65724469644e6f744368616e67650000000000000000604482015290519081900360640190fd5b600180546001600160a01b0319166001600160a01b0383169081179091556040517fd6aad444c90d39fb0eee1c6e357a7fad83d63f719ac5f880445a2beb0ff3ab5890600090a250565b805160ff811681146200061157600080fd5b919050565b60006020828403121562000628578081fd5b81516200044281620007e7565b600080600083850360808112156200064b578283fd5b84516200065881620007e7565b60208601519094506200066b81620007e7565b92506040603f19820112156200067f578182fd5b50604080519081016001600160401b03811182821017156200069d57fe5b604090815285015163ffffffff81168114620006b7578283fd5b8152620006c760608601620005ff565b6020820152809150509250925092565b600060208284031215620006e9578081fd5b81518060020b811462000442578182fd5b6000602082840312156200070c578081fd5b6200044282620005ff565b6020808252601a908201527f496e76616c6964526571756972656443617264696e616c697479000000000000604082015260600190565b60208082526010908201526f496e76616c6964426c6f636b54696d6560801b604082015260600190565b60208082526018908201527f496e76616c6964506572696f64466f7241766750726963650000000000000000604082015260600190565b6020808252600e908201526d496e76616c6964466163746f727960901b604082015260600190565b62ffffff91909116815260200190565b6001600160a01b03811681146200050457600080fd5b60805160601c60a05160601c60c05160e05160601c61222762000869600039806103d3528061096d5250806107d45280610d5a525080610331528061071b528061079d5280610c2a5280610f865250806109915280610a225280610dd55280610ff352506122276000f3fe608060405234801561001057600080fd5b50600436106101425760003560e01c8063765752e3116100b8578063adab82271161007c578063adab82271461026c578063b31fb2561461027f578063e30c397814610292578063e870ef301461029a578063f0cf207f146102b0578063f2fde38b146102c357610142565b8063765752e31461022357806379ba50971461023657806385e6420a1461023e5780638da5cb5b14610251578063a4063dbc1461025957610142565b806344552b5d1161010a57806344552b5d146101db57806357e0c50f146101e35780635b549182146101f85780635ddf2be31461020057806366b3d98b14610208578063715018a61461021b57610142565b806302aa78b0146101475780630b0950d314610170578063217a4b70146101915780633278c694146101a657806341976e09146101bb575b600080fd5b61015a610155366004611d5c565b6102d6565b6040516101679190611f52565b60405180910390f35b61018361017e366004611d24565b610541565b604051610167929190611f5d565b610199610719565b6040516101679190611f16565b6101b96101b4366004611d24565b61073d565b005b6101ce6101c9366004611d24565b610799565b6040516101679190611f88565b6101b9610904565b6101eb610960565b6040516101679190611f73565b61019961096b565b61019961098f565b6101b9610216366004611d24565b6109b3565b6101b96109bc565b6101b9610231366004611ede565b610a16565b6101b9610bb5565b6101ce61024c366004611d24565b610c25565b610199610d9f565b610199610267366004611d24565b610dae565b6101b961027a366004611e61565b610dc9565b61015a61028d366004611d24565b610f5f565b610199610fc0565b6102a2610fcf565b604051610167929190612194565b6101b96102be366004611d5c565b610fe7565b6101b96102d1366004611d24565b61112b565b60006001600160a01b0383166103075760405162461bcd60e51b81526004016102fe90612014565b60405180910390fd5b6001600160a01b03821661032d5760405162461bcd60e51b81526004016102fe9061212d565b60007f000000000000000000000000000000000000000000000000000000000000000090506000836001600160a01b031663ddca3f436040518163ffffffff1660e01b815260040160206040518083038186803b15801561038d57600080fd5b505afa1580156103a1573d6000803e3d6000fd5b505050506040513d601f19601f820116820180604052508101906103c59190611e26565b9050836001600160a01b03167f00000000000000000000000000000000000000000000000000000000000000006001600160a01b0316631698ee828785856040518463ffffffff1660e01b815260040161042193929190611f2a565b60206040518083038186803b15801561043957600080fd5b505afa15801561044d573d6000803e3d6000fd5b505050506040513d601f19601f820116820180604052508101906104719190611d40565b6001600160a01b0316146104975760405162461bcd60e51b81526004016102fe906120d1565b6040516370a0823160e01b81526000906001600160a01b038416906370a08231906104c6908890600401611f16565b60206040518083038186803b1580156104de57600080fd5b505afa1580156104f2573d6000803e3d6000fd5b505050506040513d601f19601f820116820180604052508101906105169190611e49565b9050806105355760405162461bcd60e51b81526004016102fe90612151565b50600195945050505050565b600080600080846001600160a01b0316633850c7bd6040518163ffffffff1660e01b815260040160e06040518083038186803b15801561058057600080fd5b505afa158015610594573d6000803e3d6000fd5b505050506040513d601f19601f820116820180604052508101906105b89190611d94565b5050509350935050506000856001600160a01b031663252c09d78361ffff168560010161ffff16816105e657fe5b066040518263ffffffff1660e01b81526004016106039190612174565b60806040518083038186803b15801561061b57600080fd5b505afa15801561062f573d6000803e3d6000fd5b505050506040513d601f19601f820116820180604052508101906106539190611e7d565b9296509192508291506106e690505760405163252c09d760e01b81526001600160a01b0387169063252c09d79061068f90600090600401611f88565b60806040518083038186803b1580156106a757600080fd5b505afa1580156106bb573d6000803e3d6000fd5b505050506040513d601f19601f820116820180604052508101906106df9190611e7d565b5091955050505b63ffffffff84166106fd5760009450505050610714565b505060025463ffffffff8084169116420310159250505b915091565b7f000000000000000000000000000000000000000000000000000000000000000081565b33610746610d9f565b6001600160a01b03161461078d576040805162461bcd60e51b815260206004820152600960248201526827b7363ca7bbb732b960b91b604482015290519081900360640190fd5b61079681611256565b50565b60007f00000000000000000000000000000000000000000000000000000000000000006001600160a01b0383811690821614156107fb5750507f0000000000000000000000000000000000000000000000000000000000000000600a0a6108ff565b6000836001600160a01b031663313ce5676040518163ffffffff1660e01b815260040160206040518083038186803b15801561083657600080fd5b505afa15801561084a573d6000803e3d6000fd5b505050506040513d601f19601f8201168201806040525081019061086e9190611efa565b60ff16905060268111156108945760405162461bcd60e51b81526004016102fe90611fb5565b6001600160a01b03808516600090815260036020526040902054600a83900a9116806108d25760405162461bcd60e51b81526004016102fe90611f91565b6002546000906108e990839063ffffffff16611303565b90506108f7818489886115ff565b955050505050505b919050565b3361090d610d9f565b6001600160a01b031614610954576040805162461bcd60e51b815260206004820152600960248201526827b7363ca7bbb732b960b91b604482015290519081900360640190fd5b61095e6000611256565b565b6357e0c50f60e01b90565b7f000000000000000000000000000000000000000000000000000000000000000081565b7f000000000000000000000000000000000000000000000000000000000000000081565b610796816116f6565b336109c5610d9f565b6001600160a01b031614610a0c576040805162461bcd60e51b815260206004820152600960248201526827b7363ca7bbb732b960b91b604482015290519081900360640190fd5b61095e600061182a565b336001600160a01b03167f00000000000000000000000000000000000000000000000000000000000000006001600160a01b031663481c6a756040518163ffffffff1660e01b815260040160206040518083038186803b158015610a7957600080fd5b505afa158015610a8d573d6000803e3d6000fd5b505050506040513d6020811015610aa357600080fd5b50516001600160a01b031614610aee576040805162461bcd60e51b815260206004820152600b60248201526a27b7363ca6b0b730b3b2b960a91b604482015290519081900360640190fd5b60ff81161580610b025750603c8160ff1610155b15610b1f5760405162461bcd60e51b81526004016102fe90612039565b60025460ff828116600160201b909204161415610b4e5760405162461bcd60e51b81526004016102fe906120fe565b600254610b619063ffffffff16826118e1565b6002805464ff000000001916600160201b60ff8416021790556040517fd383f780fb0ff66fbcab5bcdf08ea552407c8be6e443f7ca827288a943fc7e1690610baa9083906121ad565b60405180910390a150565b610bbd610fc0565b6001600160a01b0316336001600160a01b031614610c15576040805162461bcd60e51b815260206004820152601060248201526f27b7363ca832b73234b733a7bbb732b960811b604482015290519081900360640190fd5b61095e610c20610fc0565b61182a565b6000807f000000000000000000000000000000000000000000000000000000000000000090506000836001600160a01b0316630dfe16816040518163ffffffff1660e01b815260040160206040518083038186803b158015610c8657600080fd5b505afa158015610c9a573d6000803e3d6000fd5b505050506040513d601f19601f82011682018060405250810190610cbe9190611d40565b90506000816001600160a01b0316836001600160a01b031614610ce15781610d52565b846001600160a01b031663d21220a76040518163ffffffff1660e01b815260040160206040518083038186803b158015610d1a57600080fd5b505afa158015610d2e573d6000803e3d6000fd5b505050506040513d601f19601f82011682018060405250810190610d529190611d40565b6002549091507f0000000000000000000000000000000000000000000000000000000000000000600a0a90600090610d9190889063ffffffff16611303565b90506108f7818387866115ff565b6000546001600160a01b031690565b6003602052600090815260409020546001600160a01b031681565b336001600160a01b03167f00000000000000000000000000000000000000000000000000000000000000006001600160a01b031663481c6a756040518163ffffffff1660e01b815260040160206040518083038186803b158015610e2c57600080fd5b505afa158015610e40573d6000803e3d6000fd5b505050506040513d6020811015610e5657600080fd5b50516001600160a01b031614610ea1576040805162461bcd60e51b815260206004820152600b60248201526a27b7363ca6b0b730b3b2b960a91b604482015290519081900360640190fd5b63ffffffff81161580610eba5750428163ffffffff1610155b15610ed75760405162461bcd60e51b81526004016102fe90612063565b60025463ffffffff82811691161415610f025760405162461bcd60e51b81526004016102fe9061209a565b600254610f1a908290600160201b900460ff166118e1565b6002805463ffffffff191663ffffffff83161790556040517fce30c17ef7079f94ccbbb8cf64e23bec4be67cbda9a416307e164682096ca3c690610baa908390612183565b6001600160a01b03818116600090815260036020526040812054909116151580610fba57507f00000000000000000000000000000000000000000000000000000000000000006001600160a01b0316826001600160a01b0316145b92915050565b6001546001600160a01b031690565b60025463ffffffff811690600160201b900460ff1682565b336001600160a01b03167f00000000000000000000000000000000000000000000000000000000000000006001600160a01b031663481c6a756040518163ffffffff1660e01b815260040160206040518083038186803b15801561104a57600080fd5b505afa15801561105e573d6000803e3d6000fd5b505050506040513d602081101561107457600080fd5b50516001600160a01b0316146110bf576040805162461bcd60e51b815260206004820152600b60248201526a27b7363ca6b0b730b3b2b960a91b604482015290519081900360640190fd5b6110c982826102d6565b506001600160a01b0382811660008181526003602052604080822080546001600160a01b0319169486169485179055517f761c2ce93e9d3081439501e05d176398eac03e7dfddfa89e1e2bcaa09a80d0bc9190a361112682610799565b505050565b33611134610d9f565b6001600160a01b03161461117b576040805162461bcd60e51b815260206004820152600960248201526827b7363ca7bbb732b960b91b604482015290519081900360640190fd5b6001600160a01b0381166111c4576040805162461bcd60e51b815260206004820152600b60248201526a4f776e657249735a65726f60a81b604482015290519081900360640190fd5b6107968161182a565b60006001600160a01b0383161580159061124f575082826040518163ffffffff1660e01b815260040160206040518083038186803b15801561120e57600080fd5b505afa158015611222573d6000803e3d6000fd5b505050506040513d602081101561123857600080fd5b505160e083901b6001600160e01b03199081169116145b9392505050565b6001546001600160a01b03828116911614156112b9576040805162461bcd60e51b815260206004820152601860248201527f50656e64696e674f776e65724469644e6f744368616e67650000000000000000604482015290519081900360640190fd5b600180546001600160a01b0319166001600160a01b0383169081179091556040517fd6aad444c90d39fb0eee1c6e357a7fad83d63f719ac5f880445a2beb0ff3ab5890600090a250565b600063ffffffff8216611342576040805162461bcd60e51b8152602060048201526002602482015261042560f41b604482015290519081900360640190fd5b604080516002808252606082018352600092602083019080368337019050509050828160008151811061137157fe5b602002602001019063ffffffff16908163ffffffff168152505060008160018151811061139a57fe5b63ffffffff90921660209283029190910182015260405163883bdbfd60e01b8152600481018281528351602483015283516000936001600160a01b0389169363883bdbfd938793909283926044019185820191028083838b5b8381101561140b5781810151838201526020016113f3565b505050509050019250505060006040518083038186803b15801561142e57600080fd5b505afa158015611442573d6000803e3d6000fd5b505050506040513d6000823e601f3d908101601f19168201604090815281101561146b57600080fd5b8101908080516040519392919084600160201b82111561148a57600080fd5b90830190602082018581111561149f57600080fd5b82518660208202830111600160201b821117156114bb57600080fd5b82525081516020918201928201910280838360005b838110156114e85781810151838201526020016114d0565b5050505090500160405260200180516040519392919084600160201b82111561151057600080fd5b90830190602082018581111561152557600080fd5b82518660208202830111600160201b8211171561154157600080fd5b82525081516020918201928201910280838360005b8381101561156e578181015183820152602001611556565b5050505090500160405250505050905060008160008151811061158d57fe5b6020026020010151826001815181106115a257fe5b60200260200101510390508463ffffffff168160060b816115bf57fe5b05935060008160060b1280156115e957508463ffffffff168160060b816115e257fe5b0760060b15155b156115f657600019909301925b50505092915050565b60008061160b86611922565b90506001600160801b036001600160a01b0382161161167a576001600160a01b038082168002908481169086161061165a57611655600160c01b876001600160801b031683611c53565b611672565b61167281876001600160801b0316600160c01b611c53565b9250506116ed565b60006116996001600160a01b0383168068010000000000000000611c53565b9050836001600160a01b0316856001600160a01b0316106116d1576116cc600160801b876001600160801b031683611c53565b6116e9565b6116e981876001600160801b0316600160801b611c53565b9250505b50949350505050565b6000816001600160a01b0316633850c7bd6040518163ffffffff1660e01b815260040160e06040518083038186803b15801561173157600080fd5b505afa158015611745573d6000803e3d6000fd5b505050506040513d601f19601f820116820180604052508101906117699190611d94565b50506040805180820190915260025463ffffffff8116808352600160201b90910460ff1660208301819052929750909550600094509092509050816117aa57fe5b0463ffffffff169050808361ffff16106117c657505050610796565b6040516332148f6760e01b81526001600160a01b038516906332148f67906117f2908490600401612174565b600060405180830381600087803b15801561180c57600080fd5b505af1158015611820573d6000803e3d6000fd5b5050505050505050565b6000546001600160a01b0382811691161415611881576040805162461bcd60e51b81526020600482015260116024820152704f776e65724469644e6f744368616e676560781b604482015290519081900360640190fd5b600080546001600160a01b0319166001600160a01b038316908117825560405190917f04dba622d284ed0014ee4b9a6a68386be1a4c08a4913ae272de89199cc68616391a26001546001600160a01b031615610796576107966000611256565b60008160ff168363ffffffff16816118f557fe5b0463ffffffff16905061ffff80168111156111265760405162461bcd60e51b81526004016102fe90611fdd565b60008060008360020b12611939578260020b611941565b8260020b6000035b9050620d89e881111561197f576040805162461bcd60e51b81526020600482015260016024820152601560fa1b604482015290519081900360640190fd5b60006001821661199357600160801b6119a5565b6ffffcb933bd6fad37aa2d162d1a5940015b70ffffffffffffffffffffffffffffffffff16905060028216156119d9576ffff97272373d413259a46990580e213a0260801c5b60048216156119f8576ffff2e50f5f656932ef12357cf3c7fdcc0260801c5b6008821615611a17576fffe5caca7e10e4e61c3624eaa0941cd00260801c5b6010821615611a36576fffcb9843d60f6159c9db58835c9266440260801c5b6020821615611a55576fff973b41fa98c081472e6896dfb254c00260801c5b6040821615611a74576fff2ea16466c96a3843ec78b326b528610260801c5b6080821615611a93576ffe5dee046a99a2a811c461f1969c30530260801c5b610100821615611ab3576ffcbe86c7900a88aedcffc83b479aa3a40260801c5b610200821615611ad3576ff987a7253ac413176f2b074cf7815e540260801c5b610400821615611af3576ff3392b0822b70005940c7a398e4b70f30260801c5b610800821615611b13576fe7159475a2c29b7443b29c7fa6e889d90260801c5b611000821615611b33576fd097f3bdfd2022b8845ad8f792aa58250260801c5b612000821615611b53576fa9f746462d870fdf8a65dc1f90e061e50260801c5b614000821615611b73576f70d869a156d2a1b890bb3df62baf32f70260801c5b618000821615611b93576f31be135f97d08fd981231505542fcfa60260801c5b62010000821615611bb4576f09aa508b5b7a84e1c677de54f3e99bc90260801c5b62020000821615611bd4576e5d6af8dedb81196699c329225ee6040260801c5b62040000821615611bf3576d2216e584f5fa1ea926041bedfe980260801c5b62080000821615611c10576b048a170391f7dc42444e8fa20260801c5b60008460020b1315611c2b578060001981611c2757fe5b0490505b600160201b810615611c3e576001611c41565b60005b60ff16602082901c0192505050919050565b6000808060001985870986860292508281109083900303905080611c895760008411611c7e57600080fd5b50829004905061124f565b808411611c9557600080fd5b6000848688096000868103871696879004966002600389028118808a02820302808a02820302808a02820302808a02820302808a02820302808a02909103029181900381900460010186841190950394909402919094039290920491909117919091029150509392505050565b805180151581146108ff57600080fd5b805161ffff811681146108ff57600080fd5b600060208284031215611d35578081fd5b813561124f816121bb565b600060208284031215611d51578081fd5b815161124f816121bb565b60008060408385031215611d6e578081fd5b8235611d79816121bb565b91506020830135611d89816121bb565b809150509250929050565b600080600080600080600060e0888a031215611dae578283fd5b8751611db9816121bb565b8097505060208801518060020b8114611dd0578384fd5b9550611dde60408901611d12565b9450611dec60608901611d12565b9350611dfa60808901611d12565b925060a0880151611e0a816121e2565b9150611e1860c08901611d02565b905092959891949750929550565b600060208284031215611e37578081fd5b815162ffffff8116811461124f578182fd5b600060208284031215611e5a578081fd5b5051919050565b600060208284031215611e72578081fd5b813561124f816121d0565b60008060008060808587031215611e92578384fd5b8451611e9d816121d0565b8094505060208501518060060b8114611eb4578384fd5b6040860151909350611ec5816121bb565b9150611ed360608601611d02565b905092959194509250565b600060208284031215611eef578081fd5b813561124f816121e2565b600060208284031215611f0b578081fd5b815161124f816121e2565b6001600160a01b0391909116815260200190565b6001600160a01b03938416815291909216602082015262ffffff909116604082015260600190565b901515815260200190565b911515825263ffffffff16602082015260400190565b6001600160e01b031991909116815260200190565b90815260200190565b6020808252600a9082015269141bdbdb139bdd14d95d60b21b604082015260600190565b6020808252600e908201526d706f776572206f766572666c6f7760901b604082015260600190565b6020808252601a908201527f496e76616c6964526571756972656443617264696e616c697479000000000000604082015260600190565b6020808252600b908201526a417373657449735a65726f60a81b604082015260600190565b60208082526010908201526f496e76616c6964426c6f636b54696d6560801b604082015260600190565b60208082526018908201527f496e76616c6964506572696f64466f7241766750726963650000000000000000604082015260600190565b6020808252601d908201527f506572696f64466f7241766750726963654469644e6f744368616e6765000000604082015260600190565b602080825260139082015272125b9d985b1a59141bdbdb119bdc905cdcd95d606a1b604082015260600190565b602080825260159082015274426c6f636b54696d654469644e6f744368616e676560581b604082015260600190565b6020808252600a9082015269506f6f6c49735a65726f60b01b604082015260600190565b602080825260099082015268115b5c1d1e541bdbdb60ba1b604082015260600190565b61ffff91909116815260200190565b63ffffffff91909116815260200190565b63ffffffff92909216825260ff16602082015260400190565b60ff91909116815260200190565b6001600160a01b038116811461079657600080fd5b63ffffffff8116811461079657600080fd5b60ff8116811461079657600080fdfea2646970667358221220623f97ae18d29682338aa05684ffcde2fa6542deeb4c5b561a82a2c4d6efbf8964736f6c63430007060033",
  "devdoc": {
    "events": {
      "NewBlockTime(uint8)": {
        "params": {
          "blockTime": "block time in seconds"
        }
      },
      "NewPeriod(uint32)": {
        "params": {
          "period": "new period in seconds, ie. 1800 means 30 min"
        }
      },
      "PoolForAsset(address,address)": {
        "params": {
          "asset": "asset address",
          "pool": "UniV3 pool address"
        }
      }
    },
    "kind": "dev",
    "methods": {
      "acceptOwnership()": {
        "details": "Transfers ownership of the contract to a pending owner Can only be called by the pending owner."
      },
      "adjustOracleCardinality(address)": {
        "details": "This can be used to prepare pool for setup for price provider. In order to run `setupAsset` for asset, pool must have buffer to provide TWAP price. By calling this adjustment (and waiting necessary amount of time) pool will be ready for setup. It will collect valid number of observations, so the pool can be used once price data is ready.",
        "params": {
          "_pool": "UniV3 pool address"
        }
      },
      "assetSupported(address)": {
        "details": "Informs if PriceProvider is setup for asset. It does not means PriceProvider can provide price right away. Some providers implementations need time to \"build\" buffor for TWAP price, so price may not be available yet but this method will return true.",
        "params": {
          "_asset": "asset in question"
        },
        "returns": {
          "_0": "TRUE if asset has been setup, otherwise false"
        }
      },
      "changeBlockTime(uint8)": {
        "params": {
          "_blockTime": "it is better to set it bit lower than higher that avg block time eg. if ETH block time is 13~13.5s, you can set it to 11-12s based on `priceCalculationData.periodForAvgPrice` and `priceCalculationData.blockTime` price provider calculates number of blocks for (cardinality) requires for TWAP price. Unfortunately block time can change and this can lead to issues with getting price. Edge case will be when we set `_blockTime` to 1, then we have 100% guarantee, that no matter how real block time changes, we always can get price. Downside will be cost of initialization. That's why it is better to set a bit lower and adjust (decrease) in case of issues."
        }
      },
      "changePeriodForAvgPrice(uint32)": {
        "details": "WARNING: There is a possibility that when we change this period, UniV3 pool that is already initialized and set as oracle for asset, can throw. This can happen when it will not be able calculate TWAP for new period and it can potentially lock the Silo until we have necessary observations. If UniV3 is NOT only available oracle for asset, we can change the oracle and Silo will be unlocked.",
        "params": {
          "_period": "new period in seconds, ie. 1800 means 30 min"
        }
      },
      "constructor": {
        "params": {
          "_factory": "UniswapV3 factory contract",
          "_priceCalculationData": ": - _periodForAvgPrice period in seconds for TWAP price, ie. 1800 means 30 min - _blockTime estimated block time, it is better to set it bit lower than higher that avg block time   eg. if ETH block time is 13~13.5s, you can set it to 12s",
          "_priceProvidersRepository": "address of PriceProvidersRepository"
        }
      },
      "getPrice(address)": {
        "details": "UniV3 saves price only on: mint, burn and swap. Mint and burn will write observation only when \"current tick is inside the passed range\" of ticks. I think that means, that if we minting/burning outside ticks range  (so outside current price) it will not modify observation. So we left with swap. Swap will write observation under this condition:     // update tick and write an oracle entry if the tick change     if (state.tick != slot0Start.tick) { that means, it is possible that price will be up to date (in a range of same tick) but observation timestamp will be old. Every pool by default comes with just one slot for observation (cardinality == 1). We can increase number of slots so TWAP price will be \"better\". When we increase, we have to wait until new tx will write new observation. Based on all above, we can tell how old is observation, but this does not mean the price is wrong. UniV3 recommends to use `observe` and `OracleLibrary.consult` uses it. `observe` reverts if `secondsAgo` > oldest observation, means, if there is any price observation in selected time frame, it will revert. Otherwise it will return either exact TWAP price or by interpolation. Conclusion: we can choose how many observation pool will be storing, but we need to remember, not all of them might be used to provide our price. Final question is: how many observations we need? How UniV3 calculates TWAP we ask for TWAP on time range ago:now using `OracleLibrary.consult`, it is all about find the right tick - we call `IUniswapV3Pool(pool).observe(secondAgo)` that returns two accumulator values (for ago and now) - each observation is resolved by `observeSingle`   - for _now_ we just using latest observation, and if it does not match timestamp, we interpolate (!)     and this is how we got the _tickCumulative_, so in extreme situation, if last observation was made day ago,     UniV3 will interpolate to reflect _tickCumulative_ at current time   - for _ago_ we search for observation using `getSurroundingObservations` that give us     before and after observation, base on which we calculate \"avg\" and we have target _tickCumulative_     - getSurroundingObservations: it's job is to find 2 observations based on which we calculate tickCumulative       here is where all calculations can revert, if ago < oldest observation, otherwise it will be calculated       either by interpolation or we will have exact match - now with both _tickCumulative_s we calculating TWAP recommended observations are = 30 min / blockTime",
        "params": {
          "_asset": "address of an asset for which to read price"
        },
        "returns": {
          "price": "of asses with 18 decimals, throws when pool is not ready yet to provide price"
        }
      },
      "hasEnoughObservations(address)": {
        "params": {
          "_pool": "UniV3 pool address"
        },
        "returns": {
          "_0": "TRUE if has enough observations",
          "oldestObservationTimestamp": "timestamp of the oldest observation"
        }
      },
      "owner()": {
        "details": "Returns the address of the current owner."
      },
      "pendingOwner()": {
        "details": "Returns the address of the pending owner."
      },
      "priceProviderPing()": {
        "details": "this can save us from simple human errors, in case we use invalid address but this should NOT be treated as security check",
        "returns": {
          "_0": "always true"
        }
      },
      "quotePrice(address)": {
        "params": {
          "_pool": "UniswapV3Pool address that can provide TWAP price and one of the tokens is native (quote) token"
        }
      },
      "removePendingOwnership()": {
        "details": "Clears the pending ownership. Can only be called by the current owner."
      },
      "renounceOwnership()": {
        "details": "Leaves the contract without owner. It will not be possible to call `onlyOwner` functions anymore. Can only be called by the current owner. NOTE: Renouncing ownership will leave the contract without an owner, thereby removing any functionality that is only available to the owner."
      },
      "setupAsset(address,address)": {
        "params": {
          "_asset": "asset address",
          "_pool": "UniV3 pool address"
        }
      },
      "transferOwnership(address)": {
        "details": "Transfers ownership of the contract to a new account (`newOwner`). Can only be called by the current owner."
      },
      "transferPendingOwnership(address)": {
        "details": "Transfers pending ownership of the contract to a new account (`newPendingOwner`) and clears any existing pending ownership. Can only be called by the current owner."
      },
      "verifyPool(address,address)": {
        "details": "It verifies, if provider pool for asset (and quote token) is valid. Throws when there is no pool or pool is empty (zero liquidity).",
        "params": {
          "_asset": "asset for which prices are going to be calculated",
          "_pool": "UniV3 pool address"
        },
        "returns": {
          "_0": "true if verification successful, otherwise throws"
        }
      }
    },
    "stateVariables": {
      "_MAX_ACCEPTED_BLOCK_TIME": {
        "details": "block time is used to estimate the average number of blocks minted in `periodForAvgPrice` block time tends to go down (not up), temporary deviations are not important Ethereum's block time is almost never higher than ~15 sec, so in practice we shouldn't need to set it above that 60 was chosen as an arbitrary maximum just to prevent human errors"
      },
      "_QUOTE_TOKEN_DECIMALS": {
        "details": "this is basically `PriceProvider.quoteToken.decimals()`"
      },
      "priceCalculationData": {
        "details": "priceCalculationData: - periodForAvgPrice: Number of seconds for which time-weighted average should be calculated, ie. 1800 is 30 min - blockTime: Estimated blockchain block time"
      },
      "uniswapV3Factory": {
        "details": "UniswapV3 factory contract"
      }
    },
    "title": "UniswapV3PriceProvider",
    "version": 1
  },
  "userdoc": {
    "events": {
      "NewBlockTime(uint8)": {
        "notice": "Emitted when blockTime changes"
      },
      "NewPeriod(uint32)": {
        "notice": "Emitted when TWAP period changes"
      },
      "OwnershipPending(address)": {
        "notice": "Emitted when ownership transfer is proposed, aka pending owner is set"
      },
      "OwnershipTransferred(address)": {
        "notice": "Emitted when ownership is transferred on `transferOwnership` and `acceptOwnership`"
      },
      "PoolForAsset(address,address)": {
        "notice": "Emitted when UniV3 pool is set for asset"
      }
    },
    "kind": "user",
    "methods": {
      "adjustOracleCardinality(address)": {
        "notice": "Adjust UniV3 pool cardinality to Silo's requirements. Call `hasEnoughObservations` to see if you have to execute this method."
      },
      "changeBlockTime(uint8)": {
        "notice": "Change block time which is used to adjust oracle cardinality fot providing TWAP prices"
      },
      "changePeriodForAvgPrice(uint32)": {
        "notice": "Change period for which to calculated TWAP prices"
      },
      "getPrice(address)": {
        "notice": "Returns \"Time-Weighted Average Price\" for an asset. Calculates TWAP price for quote/asset. It unifies all tokens decimal to 18, examples: - if asses == quote it returns 1e18 - if asset is USDC and quote is ETH and ETH costs ~$3300 then it returns ~0.0003e18 WETH per 1 USDC"
      },
      "hasEnoughObservations(address)": {
        "notice": "Check if UniV3 pool has enough cardinality to meet Silo's requirements If it does not have, please execute `adjustOracleCardinality`."
      },
      "pools(address)": {
        "notice": "Maps asset address to UniV3 pool"
      },
      "priceProviderPing()": {
        "notice": "Helper method that allows easily detects, if contract is PriceProvider"
      },
      "priceProvidersRepository()": {
        "notice": "PriceProvidersRepository address"
      },
      "quotePrice(address)": {
        "notice": "This method can provide TWAP quote token price denominated in any other token it does NOT validate input pool, so you must be sure you providing correct one otherwise result will be wrong or function will throw. If pool is correct and it still throwing, please check `hasEnoughObservations(_pool)`."
      },
      "quoteToken()": {
        "notice": "Token address which prices are quoted in. Must be the same as PriceProvidersRepository.quoteToken"
      },
      "setupAsset(address,address)": {
        "notice": "Setup pool for asset. Use it also for update, when you want to change pool for asset. Notice: pool must be ready for providing price. See `adjustOracleCardinality`."
      }
    },
    "notice": "Price provider contract that reads prices from UniswapV3",
    "version": 1
  },
  "storageLayout": {
    "storage": [
      {
        "astId": 6034,
        "contract": "contracts/priceProviders/uniswapV3/UniswapV3PriceProvider.sol:UniswapV3PriceProvider",
        "label": "_owner",
        "offset": 0,
        "slot": "0",
        "type": "t_address"
      },
      {
        "astId": 6037,
        "contract": "contracts/priceProviders/uniswapV3/UniswapV3PriceProvider.sol:UniswapV3PriceProvider",
        "label": "_pendingOwner",
        "offset": 0,
        "slot": "1",
        "type": "t_address"
      },
      {
        "astId": 5394,
        "contract": "contracts/priceProviders/uniswapV3/UniswapV3PriceProvider.sol:UniswapV3PriceProvider",
        "label": "priceCalculationData",
        "offset": 0,
        "slot": "2",
        "type": "t_struct(PriceCalculationData)5381_storage"
      },
      {
        "astId": 5399,
        "contract": "contracts/priceProviders/uniswapV3/UniswapV3PriceProvider.sol:UniswapV3PriceProvider",
        "label": "pools",
        "offset": 0,
        "slot": "3",
        "type": "t_mapping(t_address,t_contract(IUniswapV3Pool)2469)"
      }
    ],
    "types": {
      "t_address": {
        "encoding": "inplace",
        "label": "address",
        "numberOfBytes": "20"
      },
      "t_contract(IUniswapV3Pool)2469": {
        "encoding": "inplace",
        "label": "contract IUniswapV3Pool",
        "numberOfBytes": "20"
      },
      "t_mapping(t_address,t_contract(IUniswapV3Pool)2469)": {
        "encoding": "mapping",
        "key": "t_address",
        "label": "mapping(address => contract IUniswapV3Pool)",
        "numberOfBytes": "32",
        "value": "t_contract(IUniswapV3Pool)2469"
      },
      "t_struct(PriceCalculationData)5381_storage": {
        "encoding": "inplace",
        "label": "struct UniswapV3PriceProvider.PriceCalculationData",
        "members": [
          {
            "astId": 5378,
            "contract": "contracts/priceProviders/uniswapV3/UniswapV3PriceProvider.sol:UniswapV3PriceProvider",
            "label": "periodForAvgPrice",
            "offset": 0,
            "slot": "0",
            "type": "t_uint32"
          },
          {
            "astId": 5380,
            "contract": "contracts/priceProviders/uniswapV3/UniswapV3PriceProvider.sol:UniswapV3PriceProvider",
            "label": "blockTime",
            "offset": 4,
            "slot": "0",
            "type": "t_uint8"
          }
        ],
        "numberOfBytes": "32"
      },
      "t_uint32": {
        "encoding": "inplace",
        "label": "uint32",
        "numberOfBytes": "4"
      },
      "t_uint8": {
        "encoding": "inplace",
        "label": "uint8",
        "numberOfBytes": "1"
      }
    }
  }
}