{
  "address": "0xA40f6C5cF84647823303b95961440398af113857",
  "abi": [
    {
      "inputs": [
        {
          "internalType": "address",
          "name": "_quoteToken",
          "type": "address"
        },
        {
          "internalType": "contract IUniswapV3Factory",
          "name": "_factory",
          "type": "address"
        },
        {
          "internalType": "uint32",
          "name": "_periodForAvgPrice",
          "type": "uint32"
        },
        {
          "internalType": "uint24[]",
          "name": "_fees",
          "type": "uint24[]"
        }
      ],
      "stateMutability": "nonpayable",
      "type": "constructor"
    },
    {
      "anonymous": false,
      "inputs": [
        {
          "indexed": false,
          "internalType": "address",
          "name": "asset",
          "type": "address"
        }
      ],
      "name": "AssetOperation",
      "type": "event"
    },
    {
      "anonymous": false,
      "inputs": [
        {
          "indexed": false,
          "internalType": "address",
          "name": "base",
          "type": "address"
        },
        {
          "indexed": false,
          "internalType": "uint24",
          "name": "fee",
          "type": "uint24"
        }
      ],
      "name": "FeeForAsset",
      "type": "event"
    },
    {
      "anonymous": false,
      "inputs": [
        {
          "indexed": false,
          "internalType": "uint24",
          "name": "fee",
          "type": "uint24"
        }
      ],
      "name": "NewFee",
      "type": "event"
    },
    {
      "anonymous": false,
      "inputs": [
        {
          "indexed": false,
          "internalType": "uint32",
          "name": "period",
          "type": "uint32"
        }
      ],
      "name": "NewPeriod",
      "type": "event"
    },
    {
      "anonymous": false,
      "inputs": [
        {
          "indexed": true,
          "internalType": "address",
          "name": "previousOwner",
          "type": "address"
        },
        {
          "indexed": true,
          "internalType": "address",
          "name": "newOwner",
          "type": "address"
        }
      ],
      "name": "OwnershipPending",
      "type": "event"
    },
    {
      "anonymous": false,
      "inputs": [
        {
          "indexed": true,
          "internalType": "address",
          "name": "previousOwner",
          "type": "address"
        },
        {
          "indexed": true,
          "internalType": "address",
          "name": "newOwner",
          "type": "address"
        }
      ],
      "name": "OwnershipTransferred",
      "type": "event"
    },
    {
      "inputs": [],
      "name": "acceptOwnership",
      "outputs": [],
      "stateMutability": "nonpayable",
      "type": "function"
    },
    {
      "inputs": [
        {
          "internalType": "address",
          "name": "_asset",
          "type": "address"
        }
      ],
      "name": "assetSupported",
      "outputs": [
        {
          "internalType": "bool",
          "name": "supported",
          "type": "bool"
        }
      ],
      "stateMutability": "view",
      "type": "function"
    },
    {
      "inputs": [
        {
          "internalType": "address",
          "name": "",
          "type": "address"
        }
      ],
      "name": "assetsFees",
      "outputs": [
        {
          "internalType": "uint24",
          "name": "",
          "type": "uint24"
        }
      ],
      "stateMutability": "view",
      "type": "function"
    },
    {
      "inputs": [
        {
          "internalType": "uint32",
          "name": "_period",
          "type": "uint32"
        }
      ],
      "name": "changePeriodForAvgPrice",
      "outputs": [],
      "stateMutability": "nonpayable",
      "type": "function"
    },
    {
      "inputs": [
        {
          "internalType": "uint256",
          "name": "",
          "type": "uint256"
        }
      ],
      "name": "fees",
      "outputs": [
        {
          "internalType": "uint24",
          "name": "",
          "type": "uint24"
        }
      ],
      "stateMutability": "view",
      "type": "function"
    },
    {
      "inputs": [
        {
          "internalType": "address",
          "name": "_asset",
          "type": "address"
        }
      ],
      "name": "findFeeForAsset",
      "outputs": [
        {
          "internalType": "uint24",
          "name": "fee",
          "type": "uint24"
        },
        {
          "internalType": "bool",
          "name": "success",
          "type": "bool"
        }
      ],
      "stateMutability": "view",
      "type": "function"
    },
    {
      "inputs": [
        {
          "internalType": "address",
          "name": "_asset",
          "type": "address"
        }
      ],
      "name": "getPrice",
      "outputs": [
        {
          "internalType": "uint256",
          "name": "price",
          "type": "uint256"
        }
      ],
      "stateMutability": "view",
      "type": "function"
    },
    {
      "inputs": [
        {
          "internalType": "address",
          "name": "_asset",
          "type": "address"
        }
      ],
      "name": "getQuoteLiquidity",
      "outputs": [
        {
          "internalType": "uint256",
          "name": "quoteLiquidity",
          "type": "uint256"
        }
      ],
      "stateMutability": "view",
      "type": "function"
    },
    {
      "inputs": [
        {
          "internalType": "address",
          "name": "_asset",
          "type": "address"
        },
        {
          "internalType": "bytes",
          "name": "_data",
          "type": "bytes"
        }
      ],
      "name": "initAsset",
      "outputs": [],
      "stateMutability": "nonpayable",
      "type": "function"
    },
    {
      "inputs": [],
      "name": "isSiloOracle",
      "outputs": [
        {
          "internalType": "bool",
          "name": "",
          "type": "bool"
        }
      ],
      "stateMutability": "pure",
      "type": "function"
    },
    {
      "inputs": [
        {
          "internalType": "uint24",
          "name": "",
          "type": "uint24"
        }
      ],
      "name": "knownFees",
      "outputs": [
        {
          "internalType": "bool",
          "name": "",
          "type": "bool"
        }
      ],
      "stateMutability": "view",
      "type": "function"
    },
    {
      "inputs": [
        {
          "internalType": "address",
          "name": "_asset",
          "type": "address"
        }
      ],
      "name": "notifyAboutChoice",
      "outputs": [],
      "stateMutability": "nonpayable",
      "type": "function"
    },
    {
      "inputs": [
        {
          "internalType": "uint24",
          "name": "_fee",
          "type": "uint24"
        }
      ],
      "name": "notifyAboutNewFee",
      "outputs": [],
      "stateMutability": "nonpayable",
      "type": "function"
    },
    {
      "inputs": [
        {
          "internalType": "uint24[]",
          "name": "_fees",
          "type": "uint24[]"
        }
      ],
      "name": "notifyAboutNewFees",
      "outputs": [],
      "stateMutability": "nonpayable",
      "type": "function"
    },
    {
      "inputs": [],
      "name": "owner",
      "outputs": [
        {
          "internalType": "address",
          "name": "",
          "type": "address"
        }
      ],
      "stateMutability": "view",
      "type": "function"
    },
    {
      "inputs": [],
      "name": "pendingOwner",
      "outputs": [
        {
          "internalType": "address",
          "name": "",
          "type": "address"
        }
      ],
      "stateMutability": "view",
      "type": "function"
    },
    {
      "inputs": [],
      "name": "periodForAvgPrice",
      "outputs": [
        {
          "internalType": "uint32",
          "name": "",
          "type": "uint32"
        }
      ],
      "stateMutability": "view",
      "type": "function"
    },
    {
      "inputs": [],
      "name": "quoteToken",
      "outputs": [
        {
          "internalType": "address",
          "name": "",
          "type": "address"
        }
      ],
      "stateMutability": "view",
      "type": "function"
    },
    {
      "inputs": [],
      "name": "renounceOwnership",
      "outputs": [],
      "stateMutability": "nonpayable",
      "type": "function"
    },
    {
      "inputs": [
        {
          "internalType": "address",
          "name": "newOwner",
          "type": "address"
        }
      ],
      "name": "transferOwnership",
      "outputs": [],
      "stateMutability": "nonpayable",
      "type": "function"
    },
    {
      "inputs": [
        {
          "internalType": "address",
          "name": "newPendingOwner",
          "type": "address"
        }
      ],
      "name": "transferPendingOwnership",
      "outputs": [],
      "stateMutability": "nonpayable",
      "type": "function"
    },
    {
      "inputs": [],
      "name": "uniswapV3Factory",
      "outputs": [
        {
          "internalType": "contract IUniswapV3Factory",
          "name": "",
          "type": "address"
        }
      ],
      "stateMutability": "view",
      "type": "function"
    }
  ],
  "transactionHash": "0xebcf89dcdcfd059ae35d972ee83a2812322c63541e416e2b271aec5839ab08dd",
  "args": [
    "0xC02aaA39b223FE8D0A0e5C4F27eAD9083C756Cc2",
    "0x1F98431c8aD98523631AE4a59f267346ea31F984",
    1800,
    [
      500,
      3000,
      10000
    ]
  ],
  "solcInputHash": "9c0190b43849f4470e4ce47b09399736",
  "bytecode": "0x60c06040523480156200001157600080fd5b506040516200207838038062002078833981810160405260808110156200003757600080fd5b8151602083015160408085015160608601805192519496939591949391820192846401000000008211156200006b57600080fd5b9083019060208201858111156200008157600080fd5b82518660208202830111640100000000821117156200009f57600080fd5b82525081516020918201928201910280838360005b83811015620000ce578181015183820152602001620000b4565b505050509050016040525050508360006001600160a01b0316816001600160a01b0316141562000145576040805162461bcd60e51b815260206004820152601860248201527f4f7261636c653a20656d7074792071756f7465546f6b656e0000000000000000604482015290519081900360640190fd5b60601b6001600160601b031916608052620001696200016362000326565b6200032a565b6000836001600160a01b03166322afcccb6101f46040518263ffffffff1660e01b81526004018082815260200191505060206040518083038186803b158015620001b257600080fd5b505afa158015620001c7573d6000803e3d6000fd5b505050506040513d6020811015620001de57600080fd5b505160020b121562000237576040805162461bcd60e51b815260206004820181905260248201527f556e697377617056334f7261636c653a20696e76616c696420666163746f7279604482015290519081900360640190fd5b60008263ffffffff16116200027e5760405162461bcd60e51b815260040180806020018281038252602a8152602001806200204e602a913960400191505060405180910390fd5b606083901b6001600160601b03191660a0526001805463ffffffff60a01b1916600160a01b63ffffffff8516021790558051620002c39060029060208401906200037a565b5060005b81518110156200031b57600160036000848481518110620002e457fe5b60209081029190910181015162ffffff168252810191909152604001600020805460ff1916911515919091179055600101620002c7565b505050505062000444565b3390565b600080546001600160a01b038381166001600160a01b0319831681178455604051919092169283917f8be0079c531659141344cd1fd0a4f28419497f9722a3daafe3b4186f6b6457e09190a35050565b82805482825590600052602060002090600901600a900481019282156200041b5791602002820160005b83821115620003e857835183826101000a81548162ffffff021916908362ffffff1602179055509260200192600301602081600201049283019260010302620003a4565b8015620004195782816101000a81549062ffffff0219169055600301602081600201049283019260010302620003e8565b505b50620004299291506200042d565b5090565b5b808211156200042957600081556001016200042e565b60805160601c60a05160601c611bbd6200049160003980610714528061083d5280610a185280610a8c5280610e7052508061050c528061061d5280610a3e5280610e3f5250611bbd6000f3fe608060405234801561001057600080fd5b50600436106101425760003560e01c80635e3263fb116100b8578063b31fb2561161007c578063b31fb256146103e4578063d4c3fab61461041e578063e30c397814610463578063ecdcb0ff1461046b578063f2fde38b14610473578063f6bdd7291461049957610142565b80635e3263fb1461032b578063715018a6146103a957806379ba5097146103b15780638da5cb5b146103b9578063adab8227146103c157610142565b806333fbeb1f1161010a57806333fbeb1f1461026557806341976e09146102865780634acc79ed146102be5780634b7056a0146102db5780635b549182146102fd5780635c55f8e81461030557610142565b80630939aa4d1461014757806310f2a509146101b7578063217a4b70146101f557806326b9797f146102195780633278c6941461023f575b600080fd5b6101b56004803603602081101561015d57600080fd5b810190602081018135600160201b81111561017757600080fd5b82018360208201111561018957600080fd5b803590602001918460208302840111600160201b831117156101aa57600080fd5b5090925090506104bb565b005b6101dd600480360360208110156101cd57600080fd5b50356001600160a01b03166104f3565b6040805162ffffff9092168252519081900360200190f35b6101fd61050a565b604080516001600160a01b039092168252519081900360200190f35b6101b56004803603602081101561022f57600080fd5b50356001600160a01b031661052e565b6101b56004803603602081101561025557600080fd5b50356001600160a01b031661053a565b61026d610605565b6040805163ffffffff9092168252519081900360200190f35b6102ac6004803603602081101561029c57600080fd5b50356001600160a01b0316610618565b60408051918252519081900360200190f35b6101dd600480360360208110156102d457600080fd5b5035610800565b6101b5600480360360208110156102f157600080fd5b503562ffffff16610839565b6101fd610a16565b6102ac6004803603602081101561031b57600080fd5b50356001600160a01b0316610a3a565b6101b56004803603604081101561034157600080fd5b6001600160a01b038235169190810190604081016020820135600160201b81111561036b57600080fd5b82018360208201111561037d57600080fd5b803590602001918460018302840111600160201b8311171561039e57600080fd5b509092509050610c23565b6101b5610c6f565b6101b5610cdd565b6101fd610d5d565b6101b5600480360360208110156103d757600080fd5b503563ffffffff16610d6c565b61040a600480360360208110156103fa57600080fd5b50356001600160a01b0316610e28565b604080519115158252519081900360200190f35b6104446004803603602081101561043457600080fd5b50356001600160a01b0316610e3a565b6040805162ffffff909316835290151560208301528051918290030190f35b6101fd611053565b61040a611062565b6101b56004803603602081101561048957600080fd5b50356001600160a01b0316611067565b61040a600480360360208110156104af57600080fd5b503562ffffff16611117565b60005b818110156104ee576104e68383838181106104d557fe5b9050602002013562ffffff16610839565b6001016104be565b505050565b60046020526000908152604090205462ffffff1681565b7f000000000000000000000000000000000000000000000000000000000000000081565b6105378161112c565b50565b61054261121e565b6001600160a01b0316610553610d5d565b6001600160a01b03161461059c576040805162461bcd60e51b81526020600482018190526024820152600080516020611b08833981519152604482015290519081900360640190fd5b806001600160a01b03166105ae610d5d565b6001600160a01b03167f3c672e6c16e239c29e969deaf4eae15d7002350bf5490175e7481155af04c83a60405160405180910390a3600180546001600160a01b0319166001600160a01b0392909216919091179055565b600154600160a01b900463ffffffff1681565b6000807f000000000000000000000000000000000000000000000000000000000000000090506000836001600160a01b031663313ce5676040518163ffffffff1660e01b815260040160206040518083038186803b15801561067957600080fd5b505afa15801561068d573d6000803e3d6000fd5b505050506040513d60208110156106a357600080fd5b505160ff16600a0a90506001600160a01b0384811690831614156106ca5791506107fb9050565b6001600160a01b038481166000818152600460208181526040808420548151630b4c774160e11b815293840195909552878616602484015262ffffff9094166044830152925191937f00000000000000000000000000000000000000000000000000000000000000001692631698ee8292606480840193829003018186803b15801561075557600080fd5b505afa158015610769573d6000803e3d6000fd5b505050506040513d602081101561077f57600080fd5b505190506001600160a01b0381166107c85760405162461bcd60e51b8152600401808060200182810382526028815260200180611a466028913960400191505060405180910390fd5b60006107e682600160149054906101000a900463ffffffff16611222565b90506107f48184888761151e565b9450505050505b919050565b6002818154811061081057600080fd5b90600052602060002090600a9182820401919006600302915054906101000a900462ffffff1681565b60007f00000000000000000000000000000000000000000000000000000000000000006001600160a01b03166322afcccb836040518263ffffffff1660e01b8152600401808262ffffff16815260200191505060206040518083038186803b1580156108a457600080fd5b505afa1580156108b8573d6000803e3d6000fd5b505050506040513d60208110156108ce57600080fd5b505162ffffff831660009081526003602052604090205490915060ff16156109275760405162461bcd60e51b8152600401808060200182810382526039815260200180611b286039913960400191505060405180910390fd5b8060020b6000141561096a5760405162461bcd60e51b8152600401808060200182810382526034815260200180611a6e6034913960400191505060405180910390fd5b6040805162ffffff8416815290517fd29b3fc652bc04adeddcb10b9336ba242ad21be284cf9353dd778a83ed9c2eac9181900360200190a150600280546001818101909255600a8082047f405787fa12a823e0f2b7631cc41b3ba8828b3321ca811111fa75cd3aa3bb5ace01805462ffffff95861660039390940683026101000a848102960219169490941790935560009081526020929092526040909120805460ff19169091179055565b7f000000000000000000000000000000000000000000000000000000000000000081565b60007f00000000000000000000000000000000000000000000000000000000000000006001600160a01b038381169082161415610a7b5760009150506107fb565b60005b600254811015610c1c5760007f00000000000000000000000000000000000000000000000000000000000000006001600160a01b0316631698ee82868560028681548110610ac857fe5b90600052602060002090600a91828204019190066003029054906101000a900462ffffff166040518463ffffffff1660e01b815260040180846001600160a01b03168152602001836001600160a01b031681526020018262ffffff168152602001935050505060206040518083038186803b158015610b4657600080fd5b505afa158015610b5a573d6000803e3d6000fd5b505050506040513d6020811015610b7057600080fd5b505190506001600160a01b038116610b885750610c14565b6000836001600160a01b03166370a08231836040518263ffffffff1660e01b815260040180826001600160a01b0316815260200191505060206040518083038186803b158015610bd757600080fd5b505afa158015610beb573d6000803e3d6000fd5b505050506040513d6020811015610c0157600080fd5b5051905084811115610c11578094505b50505b600101610a7e565b5050919050565b8015610c6657600082826020811015610c3b57600080fd5b503562ffffff1660008181526003602052604090205490915060ff16610c6457610c6481610839565b505b6104ee8361112c565b610c7761121e565b6001600160a01b0316610c88610d5d565b6001600160a01b031614610cd1576040805162461bcd60e51b81526020600482018190526024820152600080516020611b08833981519152604482015290519081900360640190fd5b610cdb6000611615565b565b610ce5611053565b6001600160a01b0316610cf661121e565b6001600160a01b031614610d3b5760405162461bcd60e51b8152600401808060200182810382526027815260200180611b616027913960400191505060405180910390fd5b610d4b610d46611053565b611615565b600180546001600160a01b0319169055565b6000546001600160a01b031690565b610d7461121e565b6001600160a01b0316610d85610d5d565b6001600160a01b031614610dce576040805162461bcd60e51b81526020600482018190526024820152600080516020611b08833981519152604482015290519081900360640190fd5b6001805463ffffffff8316600160a01b810263ffffffff60a01b199092169190911790915560408051918252517fce30c17ef7079f94ccbbb8cf64e23bec4be67cbda9a416307e164682096ca3c69181900360200190a150565b6000610e3382610e3a565b9392505050565b6000807f00000000000000000000000000000000000000000000000000000000000000008180805b6002548110156110035760007f00000000000000000000000000000000000000000000000000000000000000006001600160a01b0316631698ee82898760028681548110610eac57fe5b90600052602060002090600a91828204019190066003029054906101000a900462ffffff166040518463ffffffff1660e01b815260040180846001600160a01b03168152602001836001600160a01b031681526020018262ffffff168152602001935050505060206040518083038186803b158015610f2a57600080fd5b505afa158015610f3e573d6000803e3d6000fd5b505050506040513d6020811015610f5457600080fd5b505190506001600160a01b038116610f6c5750610ffb565b6000856001600160a01b03166370a08231836040518263ffffffff1660e01b815260040180826001600160a01b0316815260200191505060206040518083038186803b158015610fbb57600080fd5b505afa158015610fcf573d6000803e3d6000fd5b505050506040513d6020811015610fe557600080fd5b5051905083811115610ff8578093508294505b50505b600101610e62565b50801561104a576002828154811061101757fe5b90600052602060002090600a91828204019190066003029054906101000a900462ffffff1660019450945050505061104e565b5050505b915091565b6001546001600160a01b031690565b600190565b61106f61121e565b6001600160a01b0316611080610d5d565b6001600160a01b0316146110c9576040805162461bcd60e51b81526020600482018190526024820152600080516020611b08833981519152604482015290519081900360640190fd5b6001600160a01b03811661110e5760405162461bcd60e51b8152600401808060200182810382526026815260200180611aa26026913960400191505060405180910390fd5b61053781611615565b60036020526000908152604090205460ff1681565b60008061113883610e3a565b91509150806111785760405162461bcd60e51b8152600401808060200182810382526040815260200180611ac86040913960400191505060405180910390fd5b6001600160a01b038316600081815260046020908152604091829020805462ffffff191662ffffff871690811790915582519384529083015280517fb6a8ee5e451f8c3795f196232870f0ee780bb0a5a6973b179a1fba0021d03e0a9281900390910190a1604080516001600160a01b038516815290517f0833f01115a3c620419d5aaba2f74923a90c8ec2e0de555641415edeb8d6ad539181900360200190a1505050565b3390565b600063ffffffff8216611261576040805162461bcd60e51b8152602060048201526002602482015261042560f41b604482015290519081900360640190fd5b604080516002808252606082018352600092602083019080368337019050509050828160008151811061129057fe5b602002602001019063ffffffff16908163ffffffff16815250506000816001815181106112b957fe5b63ffffffff90921660209283029190910182015260405163883bdbfd60e01b8152600481018281528351602483015283516000936001600160a01b0389169363883bdbfd938793909283926044019185820191028083838b5b8381101561132a578181015183820152602001611312565b505050509050019250505060006040518083038186803b15801561134d57600080fd5b505afa158015611361573d6000803e3d6000fd5b505050506040513d6000823e601f3d908101601f19168201604090815281101561138a57600080fd5b8101908080516040519392919084600160201b8211156113a957600080fd5b9083019060208201858111156113be57600080fd5b82518660208202830111600160201b821117156113da57600080fd5b82525081516020918201928201910280838360005b838110156114075781810151838201526020016113ef565b5050505090500160405260200180516040519392919084600160201b82111561142f57600080fd5b90830190602082018581111561144457600080fd5b82518660208202830111600160201b8211171561146057600080fd5b82525081516020918201928201910280838360005b8381101561148d578181015183820152602001611475565b505050509050016040525050505090506000816000815181106114ac57fe5b6020026020010151826001815181106114c157fe5b60200260200101510390508463ffffffff168160060b816114de57fe5b05935060008160060b12801561150857508463ffffffff168160060b8161150157fe5b0760060b15155b1561151557600019909301925b50505092915050565b60008061152a86611665565b90506001600160801b036001600160a01b03821611611599576001600160a01b038082168002908481169086161061157957611574600160c01b876001600160801b031683611996565b611591565b61159181876001600160801b0316600160c01b611996565b92505061160c565b60006115b86001600160a01b0383168068010000000000000000611996565b9050836001600160a01b0316856001600160a01b0316106115f0576115eb600160801b876001600160801b031683611996565b611608565b61160881876001600160801b0316600160801b611996565b9250505b50949350505050565b600080546001600160a01b038381166001600160a01b0319831681178455604051919092169283917f8be0079c531659141344cd1fd0a4f28419497f9722a3daafe3b4186f6b6457e09190a35050565b60008060008360020b1261167c578260020b611684565b8260020b6000035b9050620d89e88111156116c2576040805162461bcd60e51b81526020600482015260016024820152601560fa1b604482015290519081900360640190fd5b6000600182166116d657600160801b6116e8565b6ffffcb933bd6fad37aa2d162d1a5940015b70ffffffffffffffffffffffffffffffffff169050600282161561171c576ffff97272373d413259a46990580e213a0260801c5b600482161561173b576ffff2e50f5f656932ef12357cf3c7fdcc0260801c5b600882161561175a576fffe5caca7e10e4e61c3624eaa0941cd00260801c5b6010821615611779576fffcb9843d60f6159c9db58835c9266440260801c5b6020821615611798576fff973b41fa98c081472e6896dfb254c00260801c5b60408216156117b7576fff2ea16466c96a3843ec78b326b528610260801c5b60808216156117d6576ffe5dee046a99a2a811c461f1969c30530260801c5b6101008216156117f6576ffcbe86c7900a88aedcffc83b479aa3a40260801c5b610200821615611816576ff987a7253ac413176f2b074cf7815e540260801c5b610400821615611836576ff3392b0822b70005940c7a398e4b70f30260801c5b610800821615611856576fe7159475a2c29b7443b29c7fa6e889d90260801c5b611000821615611876576fd097f3bdfd2022b8845ad8f792aa58250260801c5b612000821615611896576fa9f746462d870fdf8a65dc1f90e061e50260801c5b6140008216156118b6576f70d869a156d2a1b890bb3df62baf32f70260801c5b6180008216156118d6576f31be135f97d08fd981231505542fcfa60260801c5b620100008216156118f7576f09aa508b5b7a84e1c677de54f3e99bc90260801c5b62020000821615611917576e5d6af8dedb81196699c329225ee6040260801c5b62040000821615611936576d2216e584f5fa1ea926041bedfe980260801c5b62080000821615611953576b048a170391f7dc42444e8fa20260801c5b60008460020b131561196e57806000198161196a57fe5b0490505b600160201b810615611981576001611984565b60005b60ff16602082901c0192505050919050565b60008080600019858709868602925082811090839003039050806119cc57600084116119c157600080fd5b508290049050610e33565b8084116119d857600080fd5b6000848688096000868103871696879004966002600389028118808a02820302808a02820302808a02820302808a02820302808a02820302808a0290910302918190038190046001018684119095039490940291909403929092049190911791909102915050939250505056fe556e697377617056334f7261636c652e67657450726963653a20706f6f6c206e6f7420666f756e64556e697377617056334f7261636c652e6e6f74696679416275744e65774665653a2066656520646f6573206e6f742065786973744f776e61626c653a206e6577206f776e657220697320746865207a65726f2061646472657373556e697377617056334f7261636c652e5f63686f6f736542657374466565466f7241737365743a2063616e27742066696e642066656520666f722061737365744f776e61626c653a2063616c6c6572206973206e6f7420746865206f776e6572556e697377617056334f7261636c652e6e6f74696679416275744e65774665653a20746861742066656520616c7265616479206578697374734f776e61626c653a2063616c6c6572206973206e6f74207468652070656e64696e674f776e6572a2646970667358221220a362c3c0db31900a4fd436460358657c3aee939cb3c78ac168209a3ec382ca1364736f6c63430007060033556e697377617056334f7261636c653a20696e76616c696420706572696f64466f724176675072696365",
  "devdoc": {
    "kind": "dev",
    "methods": {
      "acceptOwnership()": {
        "details": "Transfers ownership of the contract to a pending owner Can only be called by the pending owner."
      },
      "assetSupported(address)": {
        "details": "It is not always a case, that asset must be initialized before it can be use by oracle.      Some oracles implementations can work out of the box for any assets.      If asset is not supported, it does not mean it can not be used,      it might need initialization to become supported.",
        "params": {
          "_asset": "token address"
        },
        "returns": {
          "supported": "true is oracle is able to provide price for asset"
        }
      },
      "findFeeForAsset(address)": {
        "returns": {
          "fee": "for asset and information if search was successful eg:         - if successful is false, means we were not able to find a fee for asses, fee value will be always 0         - if successful is true, we were bale to find a fee for asses, fee value will be >=0"
        }
      },
      "getPrice(address)": {
        "returns": {
          "price": "of asses with 18 decimals"
        }
      },
      "getQuoteLiquidity(address)": {
        "details": "For some oracles, asset must be initialized in order to be able to run this method      or there might be some additional (dedicated to oracle) settings, that must be set up in order search works      Implementation of this method must be dome in a way, that when asset is initialized and we have      any additional required settings in place, it will highest existing liquidity pool for asset.      It is possible, that it will throw on invalid data or uninitialized asset.",
        "returns": {
          "quoteLiquidity": "of quote token for specified asset"
        }
      },
      "initAsset(address,bytes)": {
        "details": "Should be used for initialisation of asset for oracle (if initialisation is needed).      It sets all necessary data that are require to call `getPrice` for the asset.      Throws if initialisation fail.      When called multiple times it does not override better settings and it might throws.      e.g.: if with current settings we getting higher liquidity pool, initialisation should have no effect",
        "params": {
          "_data": "(optional) encoded fee, if provided we will save that fee"
        }
      },
      "isSiloOracle()": {
        "details": "this can save us from simple human errors, in case we use invalid address      but this should NOT be treated as security check",
        "returns": {
          "_0": "always true"
        }
      },
      "notifyAboutChoice(address)": {
        "details": "It is used when we discover, that this oracle is better for asset.      If we need to setup anything in additional, in order to use this oracle for asset, it should be done      inside this method. At this point asset should be initialised (so we have all necessary data for it).      Throws if this oracle can not be use for provided asset.",
        "params": {
          "_asset": "token address (base token) for which this oracle will be used from now on."
        }
      },
      "owner()": {
        "details": "Returns the address of the current owner."
      },
      "pendingOwner()": {
        "details": "Returns the address of the pending owner."
      },
      "renounceOwnership()": {
        "details": "Leaves the contract without owner. It will not be possible to call `onlyOwner` functions anymore. Can only be called by the current owner. NOTE: Renouncing ownership will leave the contract without an owner, thereby removing any functionality that is only available to the owner."
      },
      "transferOwnership(address)": {
        "details": "Transfers ownership of the contract to a new account (`newOwner`). Can only be called by the current owner."
      },
      "transferPendingOwnership(address)": {
        "details": "Transfers pending ownership of the contract to a new account (`newPendingOwner`). Can only be called by the current owner."
      }
    },
    "version": 1
  },
  "userdoc": {
    "events": {
      "AssetOperation(address)": {
        "notice": "Common event for any asses modifications (initialization, save)"
      }
    },
    "kind": "user",
    "methods": {
      "assetSupported(address)": {
        "notice": "Informs if oracle has all required settings for asset and can provide data for it"
      },
      "findFeeForAsset(address)": {
        "notice": "Base on known fees"
      },
      "getPrice(address)": {
        "notice": "calculates price for asset/quote         It unifies all tokens decimal to 18, examples:         - if asses == quote it returns 1e18         - if asset is USDC and quote is ETH and ETH costs ~$3300 then it returns ~0.0003e18"
      },
      "getQuoteLiquidity(address)": {
        "notice": "Search for highest possible liquidity for quote token.         This method is used to establish, if pool is better (not less liquidity) or worse (less liquidity)"
      },
      "initAsset(address,bytes)": {
        "notice": "initAsset can be used to do custom setup for new asset"
      },
      "isSiloOracle()": {
        "notice": "Helper method that allows easily detects, if contract is SiloOracle"
      },
      "notifyAboutChoice(address)": {
        "notice": "when changing oracle, notify that we start using it for asset."
      },
      "quoteToken()": {
        "notice": "It must be a copy of SiloBridgePool.asset"
      }
    },
    "version": 1
  },
  "storageLayout": {
    "storage": [
      {
        "astId": 4932,
        "contract": "contracts/oracles/uniswapV3/UniswapV3Oracle.sol:UniswapV3Oracle",
        "label": "_owner",
        "offset": 0,
        "slot": "0",
        "type": "t_address"
      },
      {
        "astId": 4934,
        "contract": "contracts/oracles/uniswapV3/UniswapV3Oracle.sol:UniswapV3Oracle",
        "label": "_pendingOwner",
        "offset": 0,
        "slot": "1",
        "type": "t_address"
      },
      {
        "astId": 5117,
        "contract": "contracts/oracles/uniswapV3/UniswapV3Oracle.sol:UniswapV3Oracle",
        "label": "periodForAvgPrice",
        "offset": 20,
        "slot": "1",
        "type": "t_uint32"
      },
      {
        "astId": 5120,
        "contract": "contracts/oracles/uniswapV3/UniswapV3Oracle.sol:UniswapV3Oracle",
        "label": "fees",
        "offset": 0,
        "slot": "2",
        "type": "t_array(t_uint24)dyn_storage"
      },
      {
        "astId": 5124,
        "contract": "contracts/oracles/uniswapV3/UniswapV3Oracle.sol:UniswapV3Oracle",
        "label": "knownFees",
        "offset": 0,
        "slot": "3",
        "type": "t_mapping(t_uint24,t_bool)"
      },
      {
        "astId": 5128,
        "contract": "contracts/oracles/uniswapV3/UniswapV3Oracle.sol:UniswapV3Oracle",
        "label": "assetsFees",
        "offset": 0,
        "slot": "4",
        "type": "t_mapping(t_address,t_uint24)"
      }
    ],
    "types": {
      "t_address": {
        "encoding": "inplace",
        "label": "address",
        "numberOfBytes": "20"
      },
      "t_array(t_uint24)dyn_storage": {
        "base": "t_uint24",
        "encoding": "dynamic_array",
        "label": "uint24[]",
        "numberOfBytes": "32"
      },
      "t_bool": {
        "encoding": "inplace",
        "label": "bool",
        "numberOfBytes": "1"
      },
      "t_mapping(t_address,t_uint24)": {
        "encoding": "mapping",
        "key": "t_address",
        "label": "mapping(address => uint24)",
        "numberOfBytes": "32",
        "value": "t_uint24"
      },
      "t_mapping(t_uint24,t_bool)": {
        "encoding": "mapping",
        "key": "t_uint24",
        "label": "mapping(uint24 => bool)",
        "numberOfBytes": "32",
        "value": "t_bool"
      },
      "t_uint24": {
        "encoding": "inplace",
        "label": "uint24",
        "numberOfBytes": "3"
      },
      "t_uint32": {
        "encoding": "inplace",
        "label": "uint32",
        "numberOfBytes": "4"
      }
    }
  }
}