{
  "address": "0xa0F0e6B722Fb14565BDF0Cb0B03fD58603BCEC58",
  "abi": [
    {
      "inputs": [
        {
          "internalType": "uint64",
          "name": "_pidUtilizationOptimal",
          "type": "uint64"
        },
        {
          "internalType": "uint64",
          "name": "_pidKp",
          "type": "uint64"
        },
        {
          "internalType": "uint64",
          "name": "_interestsRateInterval",
          "type": "uint64"
        },
        {
          "internalType": "uint64",
          "name": "_iterationsBeforeFlatRate",
          "type": "uint64"
        }
      ],
      "stateMutability": "nonpayable",
      "type": "constructor"
    },
    {
      "inputs": [],
      "name": "ACCEPTED_RANGE",
      "outputs": [
        {
          "internalType": "uint256",
          "name": "",
          "type": "uint256"
        }
      ],
      "stateMutability": "view",
      "type": "function"
    },
    {
      "inputs": [],
      "name": "BASIS_POINTS",
      "outputs": [
        {
          "internalType": "uint256",
          "name": "",
          "type": "uint256"
        }
      ],
      "stateMutability": "view",
      "type": "function"
    },
    {
      "inputs": [],
      "name": "DECIMAL_POINTS",
      "outputs": [
        {
          "internalType": "int256",
          "name": "",
          "type": "int256"
        }
      ],
      "stateMutability": "view",
      "type": "function"
    },
    {
      "inputs": [],
      "name": "SECONDS_PER_YEAR",
      "outputs": [
        {
          "internalType": "uint256",
          "name": "",
          "type": "uint256"
        }
      ],
      "stateMutability": "view",
      "type": "function"
    },
    {
      "inputs": [
        {
          "components": [
            {
              "internalType": "uint256",
              "name": "currentTimestamp",
              "type": "uint256"
            },
            {
              "internalType": "uint256",
              "name": "siloShareFee",
              "type": "uint256"
            },
            {
              "internalType": "uint256",
              "name": "deposit",
              "type": "uint256"
            },
            {
              "internalType": "uint256",
              "name": "borrowAmount",
              "type": "uint256"
            },
            {
              "internalType": "uint256",
              "name": "borrowAmountLastUpdateTimestamp",
              "type": "uint256"
            },
            {
              "internalType": "uint256",
              "name": "interestRate",
              "type": "uint256"
            },
            {
              "internalType": "uint256",
              "name": "interestRateLastUpdateTimestamp",
              "type": "uint256"
            }
          ],
          "internalType": "struct IVirtualBalances.VirtualBalancesInputData",
          "name": "_input",
          "type": "tuple"
        }
      ],
      "name": "calcGasForInterestData",
      "outputs": [],
      "stateMutability": "nonpayable",
      "type": "function"
    },
    {
      "inputs": [
        {
          "internalType": "uint256",
          "name": "_borrowAmount",
          "type": "uint256"
        },
        {
          "internalType": "uint256",
          "name": "_interestRate",
          "type": "uint256"
        },
        {
          "internalType": "uint256",
          "name": "_siloShareFee",
          "type": "uint256"
        },
        {
          "internalType": "uint256",
          "name": "_deltaTime",
          "type": "uint256"
        }
      ],
      "name": "calculateInterests",
      "outputs": [
        {
          "internalType": "uint256",
          "name": "interests",
          "type": "uint256"
        },
        {
          "internalType": "uint256",
          "name": "siloInterestShare",
          "type": "uint256"
        }
      ],
      "stateMutability": "pure",
      "type": "function"
    },
    {
      "inputs": [
        {
          "internalType": "uint256",
          "name": "_borrowAmountWithInterests",
          "type": "uint256"
        },
        {
          "internalType": "uint256",
          "name": "_interestRate",
          "type": "uint256"
        },
        {
          "internalType": "uint256",
          "name": "_deltaTime",
          "type": "uint256"
        }
      ],
      "name": "calculatePastInterests",
      "outputs": [
        {
          "internalType": "uint256",
          "name": "pastInterests",
          "type": "uint256"
        }
      ],
      "stateMutability": "pure",
      "type": "function"
    },
    {
      "inputs": [
        {
          "components": [
            {
              "internalType": "uint256",
              "name": "currentTimestamp",
              "type": "uint256"
            },
            {
              "internalType": "uint256",
              "name": "siloShareFee",
              "type": "uint256"
            },
            {
              "internalType": "uint256",
              "name": "deposit",
              "type": "uint256"
            },
            {
              "internalType": "uint256",
              "name": "borrowAmount",
              "type": "uint256"
            },
            {
              "internalType": "uint256",
              "name": "borrowAmountLastUpdateTimestamp",
              "type": "uint256"
            },
            {
              "internalType": "uint256",
              "name": "interestRate",
              "type": "uint256"
            },
            {
              "internalType": "uint256",
              "name": "interestRateLastUpdateTimestamp",
              "type": "uint256"
            }
          ],
          "internalType": "struct IVirtualBalances.VirtualBalancesInputData",
          "name": "_input",
          "type": "tuple"
        }
      ],
      "name": "getInterestData",
      "outputs": [
        {
          "components": [
            {
              "internalType": "uint256",
              "name": "newDeposit",
              "type": "uint256"
            },
            {
              "internalType": "uint256",
              "name": "newBorrowAmount",
              "type": "uint256"
            },
            {
              "internalType": "uint256",
              "name": "newBorrowAmountUpdateTimestamp",
              "type": "uint256"
            },
            {
              "internalType": "uint256",
              "name": "newInterestRate",
              "type": "uint256"
            },
            {
              "internalType": "uint256",
              "name": "newInterestRateTimestamp",
              "type": "uint256"
            },
            {
              "internalType": "uint256",
              "name": "totalInterests",
              "type": "uint256"
            },
            {
              "internalType": "uint256",
              "name": "protocolInterestShare",
              "type": "uint256"
            },
            {
              "internalType": "uint256",
              "name": "siloInterestShare",
              "type": "uint256"
            }
          ],
          "internalType": "struct IVirtualBalances.VirtualBalancesOutput",
          "name": "output",
          "type": "tuple"
        }
      ],
      "stateMutability": "view",
      "type": "function"
    },
    {
      "inputs": [
        {
          "internalType": "uint256",
          "name": "_deposit",
          "type": "uint256"
        },
        {
          "internalType": "uint256",
          "name": "_borrowAmount",
          "type": "uint256"
        },
        {
          "internalType": "uint256",
          "name": "_interestRate",
          "type": "uint256"
        }
      ],
      "name": "interestRateForInterval",
      "outputs": [
        {
          "internalType": "uint256",
          "name": "newInterestRate",
          "type": "uint256"
        }
      ],
      "stateMutability": "view",
      "type": "function"
    },
    {
      "inputs": [],
      "name": "interestsRateInterval",
      "outputs": [
        {
          "internalType": "uint256",
          "name": "",
          "type": "uint256"
        }
      ],
      "stateMutability": "view",
      "type": "function"
    },
    {
      "inputs": [],
      "name": "iterationsBeforeFlatRate",
      "outputs": [
        {
          "internalType": "uint256",
          "name": "",
          "type": "uint256"
        }
      ],
      "stateMutability": "view",
      "type": "function"
    },
    {
      "inputs": [],
      "name": "pidKp",
      "outputs": [
        {
          "internalType": "int256",
          "name": "",
          "type": "int256"
        }
      ],
      "stateMutability": "view",
      "type": "function"
    },
    {
      "inputs": [],
      "name": "pidUtilizationOptimal",
      "outputs": [
        {
          "internalType": "int256",
          "name": "",
          "type": "int256"
        }
      ],
      "stateMutability": "view",
      "type": "function"
    },
    {
      "inputs": [
        {
          "components": [
            {
              "internalType": "uint256",
              "name": "currentTimestamp",
              "type": "uint256"
            },
            {
              "internalType": "uint256",
              "name": "siloShareFee",
              "type": "uint256"
            },
            {
              "internalType": "uint256",
              "name": "deposit",
              "type": "uint256"
            },
            {
              "internalType": "uint256",
              "name": "borrowAmount",
              "type": "uint256"
            },
            {
              "internalType": "uint256",
              "name": "borrowAmountLastUpdateTimestamp",
              "type": "uint256"
            },
            {
              "internalType": "uint256",
              "name": "interestRate",
              "type": "uint256"
            },
            {
              "internalType": "uint256",
              "name": "interestRateLastUpdateTimestamp",
              "type": "uint256"
            }
          ],
          "internalType": "struct IVirtualBalances.VirtualBalancesInputData",
          "name": "_input",
          "type": "tuple"
        }
      ],
      "name": "preIterationCalculations",
      "outputs": [
        {
          "internalType": "uint256",
          "name": "newDeposit",
          "type": "uint256"
        },
        {
          "internalType": "uint256",
          "name": "newBorrowAmount",
          "type": "uint256"
        },
        {
          "internalType": "uint256",
          "name": "interestRateTimestampAfterIterations",
          "type": "uint256"
        },
        {
          "internalType": "uint256",
          "name": "maxIterations",
          "type": "uint256"
        }
      ],
      "stateMutability": "view",
      "type": "function"
    }
  ],
  "transactionHash": "0x5d6713edefb6860242a6293824c0e656d8e157fb2422dec1a46d59c3b8f8e174",
  "args": [
    "500000000000000000",
    "1388888880000000",
    "1200",
    2160
  ],
  "solcInputHash": "537831d942c1ab4870aa40f6dd7512c8",
  "bytecode": "0x61010060405234801561001157600080fd5b50604051610d0f380380610d0f8339810160408190526100309161022c565b8383836001600160401b0383166100a55760405162461bcd60e51b815260206004820152602e60248201527f496e746572657374526174654d6f64656c3a20696e76616c6964205f7574696c60448201526d1a5e985d1a5bdb93dc1d1a5b585b60921b60648201526084015b60405180910390fd5b6001600160401b0382166101055760405162461bcd60e51b815260206004820152602160248201527f496e746572657374526174654d6f64656c3a20696e76616c6964205f7069644b6044820152600760fc1b606482015260840161009c565b6001600160401b03811661016e5760405162461bcd60e51b815260206004820152602a60248201527f496e746572657374526174654d6f64656c3a20696e76616c6964205f757064616044820152691d19525b9d195c9d985b60b21b606482015260840161009c565b6001600160401b0392831660805290821660a052811660c05281166101fb5760405162461bcd60e51b815260206004820152603760248201527f5669727475616c42616c616e6365733a20696e76616c6964205f696e7465727660448201527f616c497465726174696f6e73466f72466c617452617465000000000000000000606482015260840161009c565b6001600160401b031660e05250610280915050565b80516001600160401b038116811461022757600080fd5b919050565b6000806000806080858703121561024257600080fd5b61024b85610210565b935061025960208601610210565b925061026760408601610210565b915061027560608601610210565b905092959194509250565b60805160a05160c05160e051610a106102ff6000396000818161013d0152818161052b01526105530152600081816101b30152818161041b015281816104f901528181610580015281816105da0152818161075f01526107f501526000818161017901526103ca0152600081816102ac01526103840152610a106000f3fe608060405234801561001057600080fd5b50600436106100ea5760003560e01c8063b161a9bd1161008c578063ce47696f11610066578063ce47696f1461028f578063e1f1c4a71461029e578063e2fe6e47146102a7578063e6a69ab8146102ce57600080fd5b8063b161a9bd146101d5578063bb08ba68146101e8578063c894a0711461021b57600080fd5b80638d453ccc116100c85780638d453ccc1461015f5780639fc2ab89146101745780639fef78211461019b578063aaacb49c146101ae57600080fd5b8063597548c6146100ef5780636a70a4e0146101105780636dc7f85d14610138575b600080fd5b6100fd66b1a2bc2ec5000081565b6040519081526020015b60405180910390f35b61012361011e3660046108bb565b6102d9565b60408051928352602083019190915201610107565b6100fd7f000000000000000000000000000000000000000000000000000000000000000081565b61017261016d366004610877565b61030f565b005b6100fd7f000000000000000000000000000000000000000000000000000000000000000081565b6100fd6101a936600461088f565b61031c565b6100fd7f000000000000000000000000000000000000000000000000000000000000000081565b6100fd6101e336600461088f565b610363565b6101fb6101f6366004610877565b610413565b604080519485526020850193909352918301526060820152608001610107565b61022e610229366004610877565b6105ab565b6040516101079190600061010082019050825182526020830151602083015260408301516040830152606083015160608301526080830151608083015260a083015160a083015260c083015160c083015260e083015160e083015292915050565b6100fd670de0b6b3a764000081565b6100fd61271081565b6100fd7f000000000000000000000000000000000000000000000000000000000000000081565b6100fd6301e1338081565b60008080836102e88789610947565b6102f29190610947565b6301e1338061271091829004049895890204965093945050505050565b610318816105c7565b5050565b6000806103298385610947565b90508061033c6301e13380612710610947565b61034691906108ed565b6103508287610947565b61035a9190610933565b95945050505050565b60008084670de0b6b3a764000085028161037f5761037f6109c4565b0590507f0000000000000000000000000000000000000000000000000000000000000000810366b1a2bc2ec500006103b6826106f6565b116103bf575060005b670de0b6b3a76400007f000000000000000000000000000000000000000000000000000000000000000082020560006103f782610715565b860190506000811215610408575060005b979650505050505050565b6000806000807f00000000000000000000000000000000000000000000000000000000000000008560c00135866080013503106104ad5760405162461bcd60e51b815260206004820152602d60248201527f5f63616c63756c61746544656274416e64496e7465726573743a20696e76616c60448201526c69642074696d657374616d707360981b60648201526084015b60405180910390fd5b60c085013560808601350360006104cd606088013560a08901358461031c565b6127106020890135820204604089013581900397506060890135829003965090915060c08801358835037f00000000000000000000000000000000000000000000000000000000000000008181610526576105266109c4565b0494507f0000000000000000000000000000000000000000000000000000000000000000851115610575577f000000000000000000000000000000000000000000000000000000000000000094505b5050505060c08501357f000000000000000000000000000000000000000000000000000000000000000082020191509193509193565b6105b3610832565b6105bc826105c7565b913560408301525090565b6105cf610832565b606082013561061c577f0000000000000000000000000000000000000000000000000000000000000000823581610608576106086109c4565b068235036080820152604090910135815290565b604082013561064757606080830135602083015260a08301359082015260c090910135608082015290565b61065082610727565b6080850152606080850191909152602084018290529183529083013511156106e05760405162461bcd60e51b815260206004820152603760248201527f5669727475616c42616c616e6365732e5f676574496e7465726573745261746560448201527f3a20626f72726f77416d6f756e74206f766572666c6f7700000000000000000060648201526084016104a4565b602081015160609092013590910360a082015290565b600080821315610706578161070f565b61070f82610991565b92915050565b600061070f655af3107a400083610905565b60008060a083013581808061073b87610413565b929850909650925090505b80156107a85760001901600080610783878760208c01357f00000000000000000000000000000000000000000000000000000000000000006102d9565b9889019897810197909250905061079f60408a01358888610363565b95505050610746565b60006107b5838935610966565b905080156107f0576000806107d088888c60200135866102d9565b90925090506107df82896108ed565b97506107eb818a6108ed565b985050505b61081b7f0000000000000000000000000000000000000000000000000000000000000000893561097d565b610826908935610966565b93505050509193509193565b60405180610100016040528060008152602001600081526020016000815260200160008152602001600081526020016000815260200160008152602001600081525090565b600060e0828403121561088957600080fd5b50919050565b6000806000606084860312156108a457600080fd5b505081359360208301359350604090920135919050565b600080600080608085870312156108d157600080fd5b5050823594602084013594506040840135936060013592509050565b60008219821115610900576109006109ae565b500190565b600082610914576109146109c4565b600160ff1b82146000198414161561092e5761092e6109ae565b500590565b600082610942576109426109c4565b500490565b6000816000190483118215151615610961576109616109ae565b500290565b600082821015610978576109786109ae565b500390565b60008261098c5761098c6109c4565b500690565b6000600160ff1b8214156109a7576109a76109ae565b5060000390565b634e487b7160e01b600052601160045260246000fd5b634e487b7160e01b600052601260045260246000fdfea264697066735822122083c4a78a6b277862746172e50cbe7be0d2ca8fbe45a7c2f814b4af1202dc8c1b64736f6c63430008070033",
  "devdoc": {
    "kind": "dev",
    "methods": {
      "calcGasForInterestData((uint256,uint256,uint256,uint256,uint256,uint256,uint256))": {
        "details": "this is helper for gas calculations"
      },
      "getInterestData((uint256,uint256,uint256,uint256,uint256,uint256,uint256))": {
        "params": {
          "_params": "see VirtualBalancesInputData"
        },
        "returns": {
          "output": "see InterestDataOuptut"
        }
      },
      "interestRateForInterval(uint256,uint256,uint256)": {
        "params": {
          "_borrowAmount": "total borrow amount",
          "_deposit": "total deposit of the asset",
          "_interestRate": "interest rate at `_interestRateUpdateTimestamp`"
        },
        "returns": {
          "newInterestRate": "new current interest rate, it will be changed ONLY if `_deltaTime` >= `_interval`"
        }
      }
    },
    "stateVariables": {
      "iterationsBeforeFlatRate": {
        "details": "max iterations for calculating virtual interests rates, see `getInterestRate()`         interests rates can be different for each interval, they are calculated in a loop         in order to not run out of gas and do not lock silo, we need to stop iterating and apply flat rate"
      }
    },
    "version": 1
  },
  "userdoc": {
    "kind": "user",
    "methods": {
      "getInterestData((uint256,uint256,uint256,uint256,uint256,uint256,uint256))": {
        "notice": "calculates total interests since `_lastUpdateTimestamp`"
      },
      "interestRateForInterval(uint256,uint256,uint256)": {
        "notice": "calculates new interest rate"
      }
    },
    "version": 1
  },
  "storageLayout": {
    "storage": [],
    "types": null
  }
}