{
  "address": "0x8458396264bAaAfC9F6E6437a264636ce7c07c43",
  "abi": [
    {
      "inputs": [],
      "name": "InvalidAsset",
      "type": "error"
    },
    {
      "inputs": [],
      "name": "BASE_AMOUNT",
      "outputs": [
        {
          "internalType": "uint256",
          "name": "",
          "type": "uint256"
        }
      ],
      "stateMutability": "view",
      "type": "function"
    },
    {
      "inputs": [],
      "name": "CRV3_POOL",
      "outputs": [
        {
          "internalType": "contract ICurvePoolLike128",
          "name": "",
          "type": "address"
        }
      ],
      "stateMutability": "view",
      "type": "function"
    },
    {
      "inputs": [],
      "name": "ONE_USDC",
      "outputs": [
        {
          "internalType": "uint256",
          "name": "",
          "type": "uint256"
        }
      ],
      "stateMutability": "view",
      "type": "function"
    },
    {
      "inputs": [],
      "name": "ONE_USDT",
      "outputs": [
        {
          "internalType": "uint256",
          "name": "",
          "type": "uint256"
        }
      ],
      "stateMutability": "view",
      "type": "function"
    },
    {
      "inputs": [],
      "name": "ONE_WETH",
      "outputs": [
        {
          "internalType": "uint256",
          "name": "",
          "type": "uint256"
        }
      ],
      "stateMutability": "view",
      "type": "function"
    },
    {
      "inputs": [],
      "name": "SCALE_FACTOR",
      "outputs": [
        {
          "internalType": "uint256",
          "name": "",
          "type": "uint256"
        }
      ],
      "stateMutability": "view",
      "type": "function"
    },
    {
      "inputs": [],
      "name": "TRICRYPTO2_POOL",
      "outputs": [
        {
          "internalType": "contract ICurvePoolLike256",
          "name": "",
          "type": "address"
        }
      ],
      "stateMutability": "view",
      "type": "function"
    },
    {
      "inputs": [],
      "name": "UNKNOWN_MIN_DY",
      "outputs": [
        {
          "internalType": "uint256",
          "name": "",
          "type": "uint256"
        }
      ],
      "stateMutability": "view",
      "type": "function"
    },
    {
      "inputs": [],
      "name": "USDC",
      "outputs": [
        {
          "internalType": "contract IERC20",
          "name": "",
          "type": "address"
        }
      ],
      "stateMutability": "view",
      "type": "function"
    },
    {
      "inputs": [],
      "name": "USDC_DECIMALS",
      "outputs": [
        {
          "internalType": "uint256",
          "name": "",
          "type": "uint256"
        }
      ],
      "stateMutability": "view",
      "type": "function"
    },
    {
      "inputs": [],
      "name": "USDC_INDEX_3CRV",
      "outputs": [
        {
          "internalType": "int128",
          "name": "",
          "type": "int128"
        }
      ],
      "stateMutability": "view",
      "type": "function"
    },
    {
      "inputs": [],
      "name": "USDC_INDEX_XAIPOOL",
      "outputs": [
        {
          "internalType": "int128",
          "name": "",
          "type": "int128"
        }
      ],
      "stateMutability": "view",
      "type": "function"
    },
    {
      "inputs": [],
      "name": "USDT",
      "outputs": [
        {
          "internalType": "contract IERC20",
          "name": "",
          "type": "address"
        }
      ],
      "stateMutability": "view",
      "type": "function"
    },
    {
      "inputs": [],
      "name": "USDT_DECIMALS",
      "outputs": [
        {
          "internalType": "uint256",
          "name": "",
          "type": "uint256"
        }
      ],
      "stateMutability": "view",
      "type": "function"
    },
    {
      "inputs": [],
      "name": "USDT_INDEX_3CRV",
      "outputs": [
        {
          "internalType": "int128",
          "name": "",
          "type": "int128"
        }
      ],
      "stateMutability": "view",
      "type": "function"
    },
    {
      "inputs": [],
      "name": "USDT_INDEX_TRICRYPTO",
      "outputs": [
        {
          "internalType": "uint256",
          "name": "",
          "type": "uint256"
        }
      ],
      "stateMutability": "view",
      "type": "function"
    },
    {
      "inputs": [],
      "name": "WETH",
      "outputs": [
        {
          "internalType": "contract IERC20",
          "name": "",
          "type": "address"
        }
      ],
      "stateMutability": "view",
      "type": "function"
    },
    {
      "inputs": [],
      "name": "WETH_DECIMALS",
      "outputs": [
        {
          "internalType": "uint256",
          "name": "",
          "type": "uint256"
        }
      ],
      "stateMutability": "view",
      "type": "function"
    },
    {
      "inputs": [],
      "name": "WETH_INDEX_TRICRYPTO",
      "outputs": [
        {
          "internalType": "uint256",
          "name": "",
          "type": "uint256"
        }
      ],
      "stateMutability": "view",
      "type": "function"
    },
    {
      "inputs": [],
      "name": "XAI",
      "outputs": [
        {
          "internalType": "contract IERC20",
          "name": "",
          "type": "address"
        }
      ],
      "stateMutability": "view",
      "type": "function"
    },
    {
      "inputs": [],
      "name": "XAI_DECIMALS",
      "outputs": [
        {
          "internalType": "uint256",
          "name": "",
          "type": "uint256"
        }
      ],
      "stateMutability": "view",
      "type": "function"
    },
    {
      "inputs": [],
      "name": "XAI_FRAXBP_POOL",
      "outputs": [
        {
          "internalType": "contract ICurveMetaPoolLike",
          "name": "",
          "type": "address"
        }
      ],
      "stateMutability": "view",
      "type": "function"
    },
    {
      "inputs": [],
      "name": "XAI_INDEX_XAIPOOL",
      "outputs": [
        {
          "internalType": "int128",
          "name": "",
          "type": "int128"
        }
      ],
      "stateMutability": "view",
      "type": "function"
    },
    {
      "inputs": [
        {
          "internalType": "address",
          "name": "_asset",
          "type": "address"
        },
        {
          "internalType": "uint256",
          "name": "_amount",
          "type": "uint256"
        }
      ],
      "name": "towardsAsset",
      "outputs": [
        {
          "internalType": "address",
          "name": "tokenOut",
          "type": "address"
        },
        {
          "internalType": "uint256",
          "name": "amountOut",
          "type": "uint256"
        }
      ],
      "stateMutability": "nonpayable",
      "type": "function"
    },
    {
      "inputs": [
        {
          "internalType": "address",
          "name": "_asset",
          "type": "address"
        },
        {
          "internalType": "uint256",
          "name": "_amount",
          "type": "uint256"
        }
      ],
      "name": "towardsNative",
      "outputs": [
        {
          "internalType": "address",
          "name": "tokenOut",
          "type": "address"
        },
        {
          "internalType": "uint256",
          "name": "amountOut",
          "type": "uint256"
        }
      ],
      "stateMutability": "nonpayable",
      "type": "function"
    }
  ],
  "transactionHash": "0x150765bbc051b64ef863c84e67e81f3bf65567578d1bad9172011e7caa218b62",
  "args": [],
  "numDeployments": 2,
  "solcInputHash": "72e0a2ca32b3c6c7898413a1dbc02335",
  "bytecode": "0x608060405234801561001057600080fd5b50611764806100206000396000f3fe608060405234801561001057600080fd5b50600436106101735760003560e01c8063ad5c4648116100de578063d08aef7c11610097578063ef2cfd1a11610071578063ef2cfd1a146102b9578063f1392c26146102fb578063f878c8da14610316578063fa5b731b1461023f57600080fd5b8063d08aef7c146102f3578063dceec5f4146102f3578063dea2e085146102dc57600080fd5b8063ad5c464814610283578063bfefe2351461029e578063c1419def146102b9578063c54e44eb146102c1578063ca02e4e0146102dc578063ce4b5bbe146102e457600080fd5b80636ea477da116101305780636ea477da1461022c578063803039d91461023f57806388de35cc1461024957806388f903dc1461025157806389a3027114610260578063a60bbd581461027b57600080fd5b8063017e81781461017857806321ebbf011461019357806325de1092146101c557806348eafdf0146101d65780634fc49833146101f157806356001ebd146101f9575b600080fd5b610180600181565b6040519081526020015b60405180910390f35b6101a66101a13660046115e3565b610331565b604080516001600160a01b03909316835260208301919091520161018a565b61018069043c33c193756480000081565b6101de600181565b604051600f9190910b815260200161018a565b610180600281565b61021473d7c9f0e536dc865ae858b0c0453fe76d13c3beac81565b6040516001600160a01b03909116815260200161018a565b6101a661023a3660046115e3565b610855565b610180620f424081565b610180600081565b610180670de0b6b3a764000081565b61021473a0b86991c6218b36c1d19d4a2e9eb0ce3606eb4881565b6101de600081565b61021473c02aaa39b223fe8d0a0e5c4f27ead9083c756cc281565b61021473d51a44d3fae010294c616388b506acda1bfaae4681565b610180600681565b61021473dac17f958d2ee523a2206206994597c13d831ec781565b6101de600281565b6101806706f05b59d3b2000081565b610180601281565b61021473326290a1b0004eee78fa6ed4f1d8f4b2523ab66981565b61021473bebc44782c7db0a1a60cb6fe97d0b483032ff1c781565b6000806001600160a01b03841673d7c9f0e536dc865ae858b0c0453fe76d13c3beac1461037157604051636448d6e960e11b815260040160405180910390fd5b60405163095ea7b360e01b815273326290a1b0004eee78fa6ed4f1d8f4b2523ab66960048201526024810184905273d7c9f0e536dc865ae858b0c0453fe76d13c3beac9063095ea7b3906044016020604051808303816000875af11580156103dd573d6000803e3d6000fd5b505050506040513d601f19601f82011682018060405250810190610401919061161b565b50604051635320bf6b60e11b81526000600482018190526002602483015260448201859052600160648301529073326290a1b0004eee78fa6ed4f1d8f4b2523ab6699063a6417ed6906084016020604051808303816000875af115801561046c573d6000803e3d6000fd5b505050506040513d601f19601f82011682018060405250810190610490919061163d565b60405163095ea7b360e01b815273bebc44782c7db0a1a60cb6fe97d0b483032ff1c760048201526024810182905290915073a0b86991c6218b36c1d19d4a2e9eb0ce3606eb489063095ea7b3906044016020604051808303816000875af11580156104ff573d6000803e3d6000fd5b505050506040513d601f19601f82011682018060405250810190610523919061161b565b506040516370a0823160e01b815230600482015260009073dac17f958d2ee523a2206206994597c13d831ec7906370a0823190602401602060405180830381865afa158015610576573d6000803e3d6000fd5b505050506040513d601f19601f8201168201806040525081019061059a919061163d565b604051630f7c084960e21b81526001600482018190526002602483015260448201859052606482015290915073bebc44782c7db0a1a60cb6fe97d0b483032ff1c790633df0212490608401600060405180830381600087803b1580156105ff57600080fd5b505af1158015610613573d6000803e3d6000fd5b50506040516370a0823160e01b81523060048201526000925073dac17f958d2ee523a2206206994597c13d831ec791506370a0823190602401602060405180830381865afa158015610669573d6000803e3d6000fd5b505050506040513d601f19601f8201168201806040525081019061068d919061163d565b90508181036106c573dac17f958d2ee523a2206206994597c13d831ec773d51a44d3fae010294c616388b506acda1bfaae4683610956565b6040516370a0823160e01b815230600482015260009073c02aaa39b223fe8d0a0e5c4f27ead9083c756cc2906370a0823190602401602060405180830381865afa158015610717573d6000803e3d6000fd5b505050506040513d601f19601f8201168201806040525081019061073b919061163d565b604051630b68372160e31b81526000600482015260026024820152604481018490526001606482015290915073d51a44d3fae010294c616388b506acda1bfaae4690635b41b90890608401600060405180830381600087803b1580156107a057600080fd5b505af11580156107b4573d6000803e3d6000fd5b50506040516370a0823160e01b81523060048201526000925073c02aaa39b223fe8d0a0e5c4f27ead9083c756cc291506370a0823190602401602060405180830381865afa15801561080a573d6000803e3d6000fd5b505050506040513d601f19601f8201168201806040525081019061082e919061163d565b73c02aaa39b223fe8d0a0e5c4f27ead9083c756cc29b929003995090975050505050505050565b6000806001600160a01b03841673d7c9f0e536dc865ae858b0c0453fe76d13c3beac1461089557604051636448d6e960e11b815260040160405180910390fd5b60008069043c33c193756480000085116108b7576706f05b59d3b200006108cf565b69043c33c19375648000006706f05b59d3b200008602045b8501915060009050806108e183610a97565b91509150858110156108f5576108f561166c565b60008061090184610c35565b9150915060008061091184610d9f565b9150915061091f8282610f4c565b61092883611064565b6109318a611166565b5073d7c9f0e536dc865ae858b0c0453fe76d13c3beac9a909950975050505050505050565b8015806109d05750604051636eb1769f60e11b81523060048201526001600160a01b03838116602483015284169063dd62ed3e90604401602060405180830381865afa1580156109aa573d6000803e3d6000fd5b505050506040513d601f19601f820116820180604052508101906109ce919061163d565b155b610a405760405162461bcd60e51b815260206004820152603660248201527f5361666545524332303a20617070726f76652066726f6d206e6f6e2d7a65726f60448201527520746f206e6f6e2d7a65726f20616c6c6f77616e636560501b60648201526084015b60405180910390fd5b604080516001600160a01b038416602482015260448082018490528251808303909101815260649091019091526020810180516001600160e01b031663095ea7b360e01b179052610a929084906112fb565b505050565b6040516307211ef760e01b815260026004820152600060248201819052620f42406044830152908190819073326290a1b0004eee78fa6ed4f1d8f4b2523ab669906307211ef790606401602060405180830381865afa158015610afe573d6000803e3d6000fd5b505050506040513d601f19601f82011682018060405250810190610b22919061163d565b90506000610b3382600660126113cd565b9050610b4285600660126113cd565b94506000610b5386620f4240611682565b905081811015610b6557610b6561166c565b818181610b7457610b74611656565b0494505b6040516307211ef760e01b815260026004820152600060248201526044810186905273326290a1b0004eee78fa6ed4f1d8f4b2523ab669906307211ef790606401602060405180830381865afa158015610bd6573d6000803e3d6000fd5b505050506040513d601f19601f82011682018060405250810190610bfa919061163d565b93506000610c0b85600660126113cd565b9050868110610c1d5750505050915091565b610c2d86620f4240858a8561142e565b955050610b78565b604051635e0d443f60e01b81526002600482015260016024820152620f424060448201526000908190819073bebc44782c7db0a1a60cb6fe97d0b483032ff1c790635e0d443f90606401602060405180830381865afa158015610c9c573d6000803e3d6000fd5b505050506040513d601f19601f82011682018060405250810190610cc0919061163d565b90506000610cd185620f4240611682565b905081811015610ce357610ce361166c565b818181610cf257610cf2611656565b0493505b604051635e0d443f60e01b815260026004820152600160248201526044810185905273bebc44782c7db0a1a60cb6fe97d0b483032ff1c790635e0d443f90606401602060405180830381865afa158015610d54573d6000803e3d6000fd5b505050506040513d601f19601f82011682018060405250810190610d78919061163d565b9250848310610d88575050915091565b610d9884620f424084888761142e565b9350610cf6565b60405163556d6e9f60e01b815260026004820152600060248201819052670de0b6b3a76400006044830152908190819073d51a44d3fae010294c616388b506acda1bfaae469063556d6e9f90606401602060405180830381865afa158015610e0b573d6000803e3d6000fd5b505050506040513d601f19601f82011682018060405250810190610e2f919061163d565b90506000610e4082601260066113cd565b9050610e4f85601260066113cd565b94506000610e6586670de0b6b3a7640000611682565b905081811015610e7757610e7761166c565b818181610e8657610e86611656565b0494505b60405163556d6e9f60e01b815260026004820152600060248201526044810186905273d51a44d3fae010294c616388b506acda1bfaae469063556d6e9f90606401602060405180830381865afa158015610ee8573d6000803e3d6000fd5b505050506040513d601f19601f82011682018060405250810190610f0c919061163d565b93506000610f1d85601260066113cd565b9050868110610f2f5750505050915091565b610f4486670de0b6b3a7640000858a8561142e565b955050610e8a565b60405163095ea7b360e01b815273d51a44d3fae010294c616388b506acda1bfaae466004820152602481018390526064820482039073c02aaa39b223fe8d0a0e5c4f27ead9083c756cc29063095ea7b3906044016020604051808303816000875af1158015610fbf573d6000803e3d6000fd5b505050506040513d601f19601f82011682018060405250810190610fe3919061161b565b50604051630b68372160e31b81526002600482015260006024820152604481018490526064810182905273d51a44d3fae010294c616388b506acda1bfaae4690635b41b908906084015b600060405180830381600087803b15801561104757600080fd5b505af115801561105b573d6000803e3d6000fd5b50505050505050565b6040516370a0823160e01b8152306004820152600090819073dac17f958d2ee523a2206206994597c13d831ec7906370a0823190602401602060405180830381865afa1580156110b8573d6000803e3d6000fd5b505050506040513d601f19601f820116820180604052508101906110dc919061163d565b9050606483048303915061111973dac17f958d2ee523a2206206994597c13d831ec773bebc44782c7db0a1a60cb6fe97d0b483032ff1c783610956565b604051630f7c084960e21b81526002600482015260016024820152604481018290526064810183905273bebc44782c7db0a1a60cb6fe97d0b483032ff1c790633df021249060840161102d565b6040516370a0823160e01b815230600482015260009073a0b86991c6218b36c1d19d4a2e9eb0ce3606eb48906370a0823190602401602060405180830381865afa1580156111b8573d6000803e3d6000fd5b505050506040513d601f19601f820116820180604052508101906111dc919061163d565b60405163095ea7b360e01b815273326290a1b0004eee78fa6ed4f1d8f4b2523ab66960048201526024810182905290915073a0b86991c6218b36c1d19d4a2e9eb0ce3606eb489063095ea7b3906044016020604051808303816000875af115801561124b573d6000803e3d6000fd5b505050506040513d601f19601f8201168201806040525081019061126f919061161b565b50604051635320bf6b60e11b81526002600482015260006024820152604481018290526064810183905273326290a1b0004eee78fa6ed4f1d8f4b2523ab6699063a6417ed6906084016020604051808303816000875af11580156112d7573d6000803e3d6000fd5b505050506040513d601f19601f82011682018060405250810190610a92919061163d565b6000611350826040518060400160405280602081526020017f5361666545524332303a206c6f772d6c6576656c2063616c6c206661696c6564815250856001600160a01b031661146b9092919063ffffffff16565b805190915015610a92578080602001905181019061136e919061161b565b610a925760405162461bcd60e51b815260206004820152602a60248201527f5361666545524332303a204552433230206f7065726174696f6e20646964206e6044820152691bdd081cdd58d8d9595960b21b6064820152608401610a37565b60008183036113dd575082611427565b8183101561141357828203600a0a808510156113fb576113fb61166c565b80858161140a5761140a611656565b04915050611427565b818303600a0a6114238186611682565b9150505b9392505050565b60008183036103e8811015611449576103e887019650611460565b848187028161145a5761145a611656565b04870196505b509495945050505050565b606061147a8484600085611482565b949350505050565b6060824710156114e35760405162461bcd60e51b815260206004820152602660248201527f416464726573733a20696e73756666696369656e742062616c616e636520666f6044820152651c8818d85b1b60d21b6064820152608401610a37565b843b6115315760405162461bcd60e51b815260206004820152601d60248201527f416464726573733a2063616c6c20746f206e6f6e2d636f6e74726163740000006044820152606401610a37565b600080866001600160a01b0316858760405161154d91906116df565b60006040518083038185875af1925050503d806000811461158a576040519150601f19603f3d011682016040523d82523d6000602084013e61158f565b606091505b509150915061159f8282866115aa565b979650505050505050565b606083156115b9575081611427565b8251156115c95782518084602001fd5b8160405162461bcd60e51b8152600401610a3791906116fb565b600080604083850312156115f657600080fd5b82356001600160a01b038116811461160d57600080fd5b946020939093013593505050565b60006020828403121561162d57600080fd5b8151801515811461142757600080fd5b60006020828403121561164f57600080fd5b5051919050565b634e487b7160e01b600052601260045260246000fd5b634e487b7160e01b600052600160045260246000fd5b60008160001904831182151516156116aa57634e487b7160e01b600052601160045260246000fd5b500290565b60005b838110156116ca5781810151838201526020016116b2565b838111156116d9576000848401525b50505050565b600082516116f18184602087016116af565b9190910192915050565b602081526000825180602084015261171a8160408501602087016116af565b601f01601f1916919091016040019291505056fea26469706673582212205ed455e6859e9eb7cbb526d925b57a5c7091e5041df785f47c455f30b4ff335264736f6c634300080d0033",
  "devdoc": {
    "details": "Magician to support liquidations through Curve-XAI pool IT IS NOT PART OF THE PROTOCOL. SILO CREATED THIS TOOL, MOSTLY AS AN EXAMPLE.",
    "errors": {
      "InvalidAsset()": [
        {
          "details": "Revert if `towardsNative` or `towardsAsset` will be executed for the asset other than XAI"
        }
      ]
    },
    "kind": "dev",
    "methods": {
      "towardsAsset(address,uint256)": {
        "params": {
          "_amount": "Amount of the `_asset`",
          "_asset": "Asset to be wrapped"
        },
        "returns": {
          "amountOut": "Amount of the quote token that we spent to get `_amoun` of the `_asset`",
          "tokenOut": "A token that the `_asset` has been converted to"
        }
      },
      "towardsNative(address,uint256)": {
        "params": {
          "_amount": "Amount of the `_asset`",
          "_asset": "Asset to be unwrapped"
        },
        "returns": {
          "amountOut": "Amount of the `tokenOut` that we received",
          "tokenOut": "A token that the `_asset` has been converted to"
        }
      }
    },
    "stateVariables": {
      "USDC_INDEX_3CRV": {
        "details": "Index value for the coin (curve DAI/USDC/USDT pool)"
      },
      "USDC_INDEX_XAIPOOL": {
        "details": "Index value for the underlying coin (curve XAI/FRAXBP pool)"
      },
      "USDT_INDEX_3CRV": {
        "details": "Index value for the coin (curve DAI/USDC/USDT pool)"
      },
      "USDT_INDEX_TRICRYPTO": {
        "details": "Index value for the coin (curve USDT/WETH/WBTC pool)"
      },
      "WETH_INDEX_TRICRYPTO": {
        "details": "Index value for the coin (curve USDT/WETH/WBTC pool)"
      },
      "XAI_INDEX_XAIPOOL": {
        "details": "Index value for the coin (curve XAI/FRAXBP pool)"
      }
    },
    "version": 1
  },
  "userdoc": {
    "kind": "user",
    "methods": {
      "towardsAsset(address,uint256)": {
        "notice": "Performs operation opposit to `towardsNative`"
      },
      "towardsNative(address,uint256)": {
        "notice": "Operates to unwrap an `_asset`"
      }
    },
    "version": 1
  },
  "storageLayout": {
    "storage": [],
    "types": null
  }
}