{
  "address": "0x8B8acE2E911A270eA7D911bF5009220f59d358E6",
  "abi": [
    {
      "inputs": [],
      "stateMutability": "nonpayable",
      "type": "constructor"
    },
    {
      "inputs": [],
      "name": "InvalidAsset",
      "type": "error"
    },
    {
      "inputs": [],
      "name": "Unsupported",
      "type": "error"
    },
    {
      "inputs": [],
      "name": "PENDLE_MARKET",
      "outputs": [
        {
          "internalType": "address",
          "name": "",
          "type": "address"
        }
      ],
      "stateMutability": "view",
      "type": "function"
    },
    {
      "inputs": [],
      "name": "PENDLE_TOKEN",
      "outputs": [
        {
          "internalType": "address",
          "name": "",
          "type": "address"
        }
      ],
      "stateMutability": "view",
      "type": "function"
    },
    {
      "inputs": [],
      "name": "ROUTER",
      "outputs": [
        {
          "internalType": "contract ICamelotSwapRouterLike",
          "name": "",
          "type": "address"
        }
      ],
      "stateMutability": "view",
      "type": "function"
    },
    {
      "inputs": [],
      "name": "UNDERLYING",
      "outputs": [
        {
          "internalType": "address",
          "name": "",
          "type": "address"
        }
      ],
      "stateMutability": "view",
      "type": "function"
    },
    {
      "inputs": [],
      "name": "WETH",
      "outputs": [
        {
          "internalType": "address",
          "name": "",
          "type": "address"
        }
      ],
      "stateMutability": "view",
      "type": "function"
    },
    {
      "inputs": [
        {
          "internalType": "address",
          "name": "",
          "type": "address"
        },
        {
          "internalType": "uint256",
          "name": "",
          "type": "uint256"
        }
      ],
      "name": "towardsAsset",
      "outputs": [
        {
          "internalType": "address",
          "name": "",
          "type": "address"
        },
        {
          "internalType": "uint256",
          "name": "",
          "type": "uint256"
        }
      ],
      "stateMutability": "pure",
      "type": "function"
    },
    {
      "inputs": [
        {
          "internalType": "address",
          "name": "_asset",
          "type": "address"
        },
        {
          "internalType": "uint256",
          "name": "_amount",
          "type": "uint256"
        }
      ],
      "name": "towardsNative",
      "outputs": [
        {
          "internalType": "address",
          "name": "asset",
          "type": "address"
        },
        {
          "internalType": "uint256",
          "name": "amount",
          "type": "uint256"
        }
      ],
      "stateMutability": "nonpayable",
      "type": "function"
    }
  ],
  "transactionHash": "0x7dd62677029a808561eef49c51be9a20600c886960f00367b164e851e4ccffa4",
  "args": [],
  "numDeployments": 1,
  "solcInputHash": "98d380f0c935184709bc50f2f0efae0e",
  "bytecode": "0x60e060405234801561001057600080fd5b507330c98c0139b62290e26ac2a2158ac341dcaf133360805273ed99fc8bdb8e9e7b8240f62f69609a125a0fbf1460a052734186bfc76e2e237523cbc30fd220fe055156b41f60c05260805160a05160c05161093c6100b76000396000818161016d015281816101ec015281816102430152610696015260008181608701528181610307015281816104e2015261057001526000818160fd0152610194015261093c6000f3fe608060405234801561001057600080fd5b506004361061007d5760003560e01c806332fe7b261161005b57806332fe7b261461011f5780636ea477da1461013a578063ad5c46481461014d578063c5d664c61461016857600080fd5b80630f61ac821461008257806321ebbf01146100c6578063277efdce146100f8575b600080fd5b6100a97f000000000000000000000000000000000000000000000000000000000000000081565b6040516001600160a01b0390911681526020015b60405180910390f35b6100d96100d43660046107c2565b61018f565b604080516001600160a01b0390931683526020830191909152016100bd565b6100a97f000000000000000000000000000000000000000000000000000000000000000081565b6100a9731f721e2e82f6676fce4ea07a5958cf098d339e1881565b6100d96101483660046107c2565b6102e3565b6100a97382af49447d8a07e3bd95bd0d56f35241523fbab181565b6100a97f000000000000000000000000000000000000000000000000000000000000000081565b6000807f00000000000000000000000000000000000000000000000000000000000000006001600160a01b0316846001600160a01b0316146101e457604051636448d6e960e11b815260040160405180910390fd5b6000610210847f00000000000000000000000000000000000000000000000000000000000000006102ff565b60405163095ea7b360e01b8152731f721e2e82f6676fce4ea07a5958cf098d339e186004820152602481018290529091507f00000000000000000000000000000000000000000000000000000000000000006001600160a01b03169063095ea7b3906044016020604051808303816000875af1158015610294573d6000803e3d6000fd5b505050506040513d601f19601f820116820180604052508101906102b891906107ee565b507382af49447d8a07e3bd95bd0d56f35241523fbab192506102d981610682565b9150509250929050565b600080604051634851657960e11b815260040160405180910390fd5b6000806000807f00000000000000000000000000000000000000000000000000000000000000006001600160a01b0316632c8ce6bc6040518163ffffffff1660e01b8152600401606060405180830381865afa158015610363573d6000803e3d6000fd5b505050506040513d601f19601f820116820180604052508101906103879190610810565b9250925092506000826001600160a01b0316632f13b60c6040518163ffffffff1660e01b8152600401602060405180830381865afa1580156103cd573d6000803e3d6000fd5b505050506040513d601f19601f820116820180604052508101906103f191906107ee565b156104cb5760405163a9059cbb60e01b81526001600160a01b0383811660048301526024820189905284169063a9059cbb90604401600060405180830381600087803b15801561044057600080fd5b505af1158015610454573d6000803e3d6000fd5b505060405163bcb7ea5d60e01b81526001600160a01b0387811660048301528516925063bcb7ea5d91506024016020604051808303816000875af11580156104a0573d6000803e3d6000fd5b505050506040513d601f19601f820116820180604052508101906104c4919061085d565b90506105f0565b60405163a9059cbb60e01b81526001600160a01b037f0000000000000000000000000000000000000000000000000000000000000000811660048301526024820189905284169063a9059cbb90604401600060405180830381600087803b15801561053557600080fd5b505af1158015610549573d6000803e3d6000fd5b5050604080516000815260208101918290526329910b1160e01b9091526001600160a01b037f00000000000000000000000000000000000000000000000000000000000000001692506329910b1191506105aa9087908b9060248101610876565b60408051808303816000875af11580156105c8573d6000803e3d6000fd5b505050506040513d601f19601f820116820180604052508101906105ec91906108e2565b5090505b60405163769f8e5d60e01b8152306004820152602481018290526001600160a01b038781166044830152600060648301526001608483015285169063769f8e5d9060a4016020604051808303816000875af1158015610653573d6000803e3d6000fd5b505050506040513d601f19601f82011682018060405250810190610677919061085d565b979650505050505050565b6040805160e0810182526001600160a01b037f0000000000000000000000000000000000000000000000000000000000000000811682527382af49447d8a07e3bd95bd0d56f35241523fbab16020830190815230838501908152426060850190815260808501878152600160a08701908152600060c08801818152985163178ca23160e31b8152885188166004820152955187166024870152935186166044860152915160648501525160848401525160a4830152935190911660c4820152731f721e2e82f6676fce4ea07a5958cf098d339e189063bc6511889060e4016020604051808303816000875af115801561077f573d6000803e3d6000fd5b505050506040513d601f19601f820116820180604052508101906107a3919061085d565b9392505050565b6001600160a01b03811681146107bf57600080fd5b50565b600080604083850312156107d557600080fd5b82356107e0816107aa565b946020939093013593505050565b60006020828403121561080057600080fd5b815180151581146107a357600080fd5b60008060006060848603121561082557600080fd5b8351610830816107aa565b6020850151909350610841816107aa565b6040850151909250610852816107aa565b809150509250925092565b60006020828403121561086f57600080fd5b5051919050565b60018060a01b038416815260006020848184015260606040840152835180606085015260005b818110156108b85785810183015185820160800152820161089c565b818111156108ca576000608083870101525b50601f01601f19169290920160800195945050505050565b600080604083850312156108f557600080fd5b50508051602090910151909290915056fea2646970667358221220b2e235f90727d8c5536edcf1d7a729e6112b59a6d7c2702621369ca2fb17eafa64736f6c634300080d0033",
  "devdoc": {
    "kind": "dev",
    "methods": {
      "towardsAsset(address,uint256)": {
        "params": {
          "_amount": "Amount of the `_asset`",
          "_asset": "Asset to be wrapped"
        },
        "returns": {
          "_0": "A token that the `_asset` has been converted to",
          "_1": "Amount of the quote token that we spent to get `_amoun` of the `_asset`"
        }
      },
      "towardsNative(address,uint256)": {
        "params": {
          "_amount": "Amount of the `_asset`",
          "_asset": "Asset to be unwrapped"
        },
        "returns": {
          "amount": "Amount of the `tokenOut` that we received",
          "asset": "A token that the `_asset` has been converted to"
        }
      }
    },
    "version": 1
  },
  "userdoc": {
    "kind": "user",
    "methods": {
      "towardsAsset(address,uint256)": {
        "notice": "Performs operation opposit to `towardsNative`"
      },
      "towardsNative(address,uint256)": {
        "notice": "Operates to unwrap an `_asset`"
      }
    },
    "version": 1
  },
  "storageLayout": {
    "storage": [],
    "types": null
  }
}