{
  "address": "0x7dD2D97DCb783b2F5422d6767327411Ce9e9b0eB",
  "abi": [
    {
      "inputs": [],
      "stateMutability": "nonpayable",
      "type": "constructor"
    },
    {
      "inputs": [],
      "name": "InvalidAsset",
      "type": "error"
    },
    {
      "inputs": [],
      "name": "Unsupported",
      "type": "error"
    },
    {
      "inputs": [],
      "name": "CAMELOT_ROUTER",
      "outputs": [
        {
          "internalType": "contract ICamelotSwapRouterLike",
          "name": "",
          "type": "address"
        }
      ],
      "stateMutability": "view",
      "type": "function"
    },
    {
      "inputs": [],
      "name": "PENDLE_MARKET",
      "outputs": [
        {
          "internalType": "address",
          "name": "",
          "type": "address"
        }
      ],
      "stateMutability": "view",
      "type": "function"
    },
    {
      "inputs": [],
      "name": "PENDLE_TOKEN",
      "outputs": [
        {
          "internalType": "address",
          "name": "",
          "type": "address"
        }
      ],
      "stateMutability": "view",
      "type": "function"
    },
    {
      "inputs": [],
      "name": "UNDERLYING",
      "outputs": [
        {
          "internalType": "address",
          "name": "",
          "type": "address"
        }
      ],
      "stateMutability": "view",
      "type": "function"
    },
    {
      "inputs": [],
      "name": "UNISWAP_POOL_FEE",
      "outputs": [
        {
          "internalType": "uint24",
          "name": "",
          "type": "uint24"
        }
      ],
      "stateMutability": "view",
      "type": "function"
    },
    {
      "inputs": [],
      "name": "UNISWAP_ROUTER",
      "outputs": [
        {
          "internalType": "contract ISwapRouter",
          "name": "",
          "type": "address"
        }
      ],
      "stateMutability": "view",
      "type": "function"
    },
    {
      "inputs": [],
      "name": "USDC",
      "outputs": [
        {
          "internalType": "address",
          "name": "",
          "type": "address"
        }
      ],
      "stateMutability": "view",
      "type": "function"
    },
    {
      "inputs": [],
      "name": "WETH",
      "outputs": [
        {
          "internalType": "address",
          "name": "",
          "type": "address"
        }
      ],
      "stateMutability": "view",
      "type": "function"
    },
    {
      "inputs": [
        {
          "internalType": "address",
          "name": "",
          "type": "address"
        },
        {
          "internalType": "uint256",
          "name": "",
          "type": "uint256"
        }
      ],
      "name": "towardsAsset",
      "outputs": [
        {
          "internalType": "address",
          "name": "",
          "type": "address"
        },
        {
          "internalType": "uint256",
          "name": "",
          "type": "uint256"
        }
      ],
      "stateMutability": "pure",
      "type": "function"
    },
    {
      "inputs": [
        {
          "internalType": "address",
          "name": "_asset",
          "type": "address"
        },
        {
          "internalType": "uint256",
          "name": "_amount",
          "type": "uint256"
        }
      ],
      "name": "towardsNative",
      "outputs": [
        {
          "internalType": "address",
          "name": "asset",
          "type": "address"
        },
        {
          "internalType": "uint256",
          "name": "amount",
          "type": "uint256"
        }
      ],
      "stateMutability": "nonpayable",
      "type": "function"
    }
  ],
  "transactionHash": "0xf1927c22d2b01fc26afb2d1705c8c765c3817619379089e2f2125cdad10129e3",
  "args": [],
  "numDeployments": 1,
  "solcInputHash": "0b966abc37112107e230dfff1dccd8e4",
  "bytecode": "0x60e060405273e592427a0aece92de3edee1f18e0157c0586156460c05234801561002857600080fd5b5073ad853eb4fb3fe4a66cdfcd7b75922a0494955292608052732dfaf9a5e4f293bceede49f2dba29aacdd88e0c460a05260805160a05160c051610b766100b1600039600081816101e101528181610806015261096401526000818160a8015281816102c8015281816104a3015261053101526000818161011e01526102080152610b766000f3fe608060405234801561001057600080fd5b506004361061009e5760003560e01c806389a302711161006657806389a302711461016e578063ad5c464814610189578063b05a4428146101a4578063c5d664c6146101c1578063d8264920146101dc57600080fd5b80630f61ac82146100a357806321ebbf01146100e7578063277efdce146101195780633b58e038146101405780636ea477da1461015b575b600080fd5b6100ca7f000000000000000000000000000000000000000000000000000000000000000081565b6040516001600160a01b0390911681526020015b60405180910390f35b6100fa6100f53660046109f5565b610203565b604080516001600160a01b0390931683526020830191909152016100de565b6100ca7f000000000000000000000000000000000000000000000000000000000000000081565b6100ca731f721e2e82f6676fce4ea07a5958cf098d339e1881565b6100fa6101693660046109f5565b6102a4565b6100ca73af88d065e77c8cc2239327c5edb3a432268e583181565b6100ca7382af49447d8a07e3bd95bd0d56f35241523fbab181565b6101ad6101f481565b60405162ffffff90911681526020016100de565b6100ca735d3a1ff2b6bab83b63cd9ad0787074081a52ef3481565b6100ca7f000000000000000000000000000000000000000000000000000000000000000081565b6000807f00000000000000000000000000000000000000000000000000000000000000006001600160a01b0316846001600160a01b03161461025857604051636448d6e960e11b815260040160405180910390fd5b600061027884735d3a1ff2b6bab83b63cd9ad0787074081a52ef346102c0565b90507382af49447d8a07e3bd95bd0d56f35241523fbab1925061029a81610643565b9150509250929050565b600080604051634851657960e11b815260040160405180910390fd5b6000806000807f00000000000000000000000000000000000000000000000000000000000000006001600160a01b0316632c8ce6bc6040518163ffffffff1660e01b8152600401606060405180830381865afa158015610324573d6000803e3d6000fd5b505050506040513d601f19601f820116820180604052508101906103489190610a21565b9250925092506000826001600160a01b0316632f13b60c6040518163ffffffff1660e01b8152600401602060405180830381865afa15801561038e573d6000803e3d6000fd5b505050506040513d601f19601f820116820180604052508101906103b29190610a6e565b1561048c5760405163a9059cbb60e01b81526001600160a01b0383811660048301526024820189905284169063a9059cbb90604401600060405180830381600087803b15801561040157600080fd5b505af1158015610415573d6000803e3d6000fd5b505060405163bcb7ea5d60e01b81526001600160a01b0387811660048301528516925063bcb7ea5d91506024016020604051808303816000875af1158015610461573d6000803e3d6000fd5b505050506040513d601f19601f820116820180604052508101906104859190610a97565b90506105b1565b60405163a9059cbb60e01b81526001600160a01b037f0000000000000000000000000000000000000000000000000000000000000000811660048301526024820189905284169063a9059cbb90604401600060405180830381600087803b1580156104f657600080fd5b505af115801561050a573d6000803e3d6000fd5b5050604080516000815260208101918290526329910b1160e01b9091526001600160a01b037f00000000000000000000000000000000000000000000000000000000000000001692506329910b11915061056b9087908b9060248101610ab0565b60408051808303816000875af1158015610589573d6000803e3d6000fd5b505050506040513d601f19601f820116820180604052508101906105ad9190610b1c565b5090505b60405163769f8e5d60e01b8152306004820152602481018290526001600160a01b038781166044830152600060648301526001608483015285169063769f8e5d9060a4016020604051808303816000875af1158015610614573d6000803e3d6000fd5b505050506040513d601f19601f820116820180604052508101906106389190610a97565b979650505050505050565b60405163095ea7b360e01b8152731f721e2e82f6676fce4ea07a5958cf098d339e18600482015260248101829052600090735d3a1ff2b6bab83b63cd9ad0787074081a52ef349063095ea7b3906044016020604051808303816000875af11580156106b2573d6000803e3d6000fd5b505050506040513d601f19601f820116820180604052508101906106d69190610a6e565b506040805160e081018252735d3a1ff2b6bab83b63cd9ad0787074081a52ef34815273af88d065e77c8cc2239327c5edb3a432268e58316020820190815230828401908152426060840190815260808401878152600160a08601908152600060c08701818152975163178ca23160e31b815287516001600160a01b03908116600483015296518716602482015294518616604486015292516064850152905160848401525160a4830152935190911660c4820152909190731f721e2e82f6676fce4ea07a5958cf098d339e189063bc6511889060e4016020604051808303816000875af11580156107cb573d6000803e3d6000fd5b505050506040513d601f19601f820116820180604052508101906107ef9190610a97565b60405163095ea7b360e01b81526001600160a01b037f00000000000000000000000000000000000000000000000000000000000000001660048201526024810182905290915073af88d065e77c8cc2239327c5edb3a432268e58319063095ea7b3906044016020604051808303816000875af1158015610873573d6000803e3d6000fd5b505050506040513d601f19601f820116820180604052508101906108979190610a6e565b50604080516101008101825273af88d065e77c8cc2239327c5edb3a432268e583181527382af49447d8a07e3bd95bd0d56f35241523fbab1602082019081526101f48284019081523060608401908152426080850190815260a08501878152600160c08701908152600060e08801908152975163414bf38960e01b815287516001600160a01b039081166004830152965187166024820152945162ffffff166044860152925185166064850152905160848401525160a48301525160c48201529251811660e484015290917f00000000000000000000000000000000000000000000000000000000000000009091169063414bf38990610104016020604051808303816000875af11580156109b0573d6000803e3d6000fd5b505050506040513d601f19601f820116820180604052508101906109d49190610a97565b95945050505050565b6001600160a01b03811681146109f257600080fd5b50565b60008060408385031215610a0857600080fd5b8235610a13816109dd565b946020939093013593505050565b600080600060608486031215610a3657600080fd5b8351610a41816109dd565b6020850151909350610a52816109dd565b6040850151909250610a63816109dd565b809150509250925092565b600060208284031215610a8057600080fd5b81518015158114610a9057600080fd5b9392505050565b600060208284031215610aa957600080fd5b5051919050565b60018060a01b038416815260006020848184015260606040840152835180606085015260005b81811015610af257858101830151858201608001528201610ad6565b81811115610b04576000608083870101525b50601f01601f19169290920160800195945050505050565b60008060408385031215610b2f57600080fd5b50508051602090910151909290915056fea26469706673582212203817cb8d8174e7638c8d28454d9d08ff9ce30ee7fed2c450a6efed0d1effe1f264736f6c634300080d0033",
  "devdoc": {
    "kind": "dev",
    "methods": {
      "towardsAsset(address,uint256)": {
        "params": {
          "_amount": "Amount of the `_asset`",
          "_asset": "Asset to be wrapped"
        },
        "returns": {
          "_0": "A token that the `_asset` has been converted to",
          "_1": "Amount of the quote token that we spent to get `_amoun` of the `_asset`"
        }
      },
      "towardsNative(address,uint256)": {
        "params": {
          "_amount": "Amount of the `_asset`",
          "_asset": "Asset to be unwrapped"
        },
        "returns": {
          "amount": "Amount of the `tokenOut` that we received",
          "asset": "A token that the `_asset` has been converted to"
        }
      }
    },
    "version": 1
  },
  "userdoc": {
    "kind": "user",
    "methods": {
      "towardsAsset(address,uint256)": {
        "notice": "Performs operation opposit to `towardsNative`"
      },
      "towardsNative(address,uint256)": {
        "notice": "Operates to unwrap an `_asset`"
      }
    },
    "version": 1
  },
  "storageLayout": {
    "storage": [],
    "types": null
  }
}