{
  "address": "0xA0380d22A4Ee658e9706b390ddf9646f184dd521",
  "abi": [
    {
      "inputs": [],
      "stateMutability": "nonpayable",
      "type": "constructor"
    },
    {
      "inputs": [],
      "name": "InvalidAsset",
      "type": "error"
    },
    {
      "inputs": [],
      "name": "Unsupported",
      "type": "error"
    },
    {
      "inputs": [],
      "name": "PENDLE_MARKET",
      "outputs": [
        {
          "internalType": "address",
          "name": "",
          "type": "address"
        }
      ],
      "stateMutability": "view",
      "type": "function"
    },
    {
      "inputs": [],
      "name": "PENDLE_TOKEN",
      "outputs": [
        {
          "internalType": "address",
          "name": "",
          "type": "address"
        }
      ],
      "stateMutability": "view",
      "type": "function"
    },
    {
      "inputs": [],
      "name": "POOL",
      "outputs": [
        {
          "internalType": "address",
          "name": "",
          "type": "address"
        }
      ],
      "stateMutability": "view",
      "type": "function"
    },
    {
      "inputs": [],
      "name": "ROUTER",
      "outputs": [
        {
          "internalType": "contract ICamelotSwapRouterLike",
          "name": "",
          "type": "address"
        }
      ],
      "stateMutability": "view",
      "type": "function"
    },
    {
      "inputs": [],
      "name": "RSETH",
      "outputs": [
        {
          "internalType": "address",
          "name": "",
          "type": "address"
        }
      ],
      "stateMutability": "view",
      "type": "function"
    },
    {
      "inputs": [],
      "name": "WETH",
      "outputs": [
        {
          "internalType": "address",
          "name": "",
          "type": "address"
        }
      ],
      "stateMutability": "view",
      "type": "function"
    },
    {
      "inputs": [
        {
          "internalType": "address",
          "name": "",
          "type": "address"
        },
        {
          "internalType": "uint256",
          "name": "",
          "type": "uint256"
        }
      ],
      "name": "towardsAsset",
      "outputs": [
        {
          "internalType": "address",
          "name": "",
          "type": "address"
        },
        {
          "internalType": "uint256",
          "name": "",
          "type": "uint256"
        }
      ],
      "stateMutability": "pure",
      "type": "function"
    },
    {
      "inputs": [
        {
          "internalType": "address",
          "name": "_asset",
          "type": "address"
        },
        {
          "internalType": "uint256",
          "name": "_amount",
          "type": "uint256"
        }
      ],
      "name": "towardsNative",
      "outputs": [
        {
          "internalType": "address",
          "name": "asset",
          "type": "address"
        },
        {
          "internalType": "uint256",
          "name": "amount",
          "type": "uint256"
        }
      ],
      "stateMutability": "nonpayable",
      "type": "function"
    }
  ],
  "transactionHash": "0xad5c0b60528808ec770b7c29bf159987fcfd39219759c47938420c8739cfdbde",
  "args": [],
  "numDeployments": 1,
  "solcInputHash": "54041da9ed805e113fe3afeea2a3ef66",
  "bytecode": "0x61014060405234801561001157600080fd5b5073afd22f824d51fb7eed4778d303d4388ac644b026608052736ae79089b2cf4be441480801bb741a531d94312b60a0527382af49447d8a07e3bd95bd0d56f35241523fbab160e052734186bfc76e2e237523cbc30fd220fe055156b41f60c05273b355cce5cbaf411bd56e3b092f5aa10a894083ae61010052731f721e2e82f6676fce4ea07a5958cf098d339e186101205260805160a05160c05160e05161010051610120516109be61013f6000396000818161012f0152818161027101526107b6015260006101900152600081816101b701528181610315015261072101526000818161015601528181610236015281816102a301526106fc01526000818160920152818161036d0152818161054801526105d601526000818161010801526101de01526109be6000f3fe608060405234801561001057600080fd5b50600436106100885760003560e01c806355d17ee01161005b57806355d17ee0146101515780636ea477da146101785780637535d2461461018b578063ad5c4648146101b257600080fd5b80630f61ac821461008d57806321ebbf01146100d1578063277efdce1461010357806332fe7b261461012a575b600080fd5b6100b47f000000000000000000000000000000000000000000000000000000000000000081565b6040516001600160a01b0390911681526020015b60405180910390f35b6100e46100df366004610844565b6101d9565b604080516001600160a01b0390931683526020830191909152016100c8565b6100b47f000000000000000000000000000000000000000000000000000000000000000081565b6100b47f000000000000000000000000000000000000000000000000000000000000000081565b6100b47f000000000000000000000000000000000000000000000000000000000000000081565b6100e4610186366004610844565b610349565b6100b47f000000000000000000000000000000000000000000000000000000000000000081565b6100b47f000000000000000000000000000000000000000000000000000000000000000081565b6000807f00000000000000000000000000000000000000000000000000000000000000006001600160a01b0316846001600160a01b03161461022e57604051636448d6e960e11b815260040160405180910390fd5b600061025a847f0000000000000000000000000000000000000000000000000000000000000000610365565b60405163095ea7b360e01b81526001600160a01b037f000000000000000000000000000000000000000000000000000000000000000081166004830152602482018390529192507f00000000000000000000000000000000000000000000000000000000000000009091169063095ea7b3906044016020604051808303816000875af11580156102ee573d6000803e3d6000fd5b505050506040513d601f19601f820116820180604052508101906103129190610870565b507f0000000000000000000000000000000000000000000000000000000000000000925061033f816106e8565b9150509250929050565b600080604051634851657960e11b815260040160405180910390fd5b6000806000807f00000000000000000000000000000000000000000000000000000000000000006001600160a01b0316632c8ce6bc6040518163ffffffff1660e01b8152600401606060405180830381865afa1580156103c9573d6000803e3d6000fd5b505050506040513d601f19601f820116820180604052508101906103ed9190610892565b9250925092506000826001600160a01b0316632f13b60c6040518163ffffffff1660e01b8152600401602060405180830381865afa158015610433573d6000803e3d6000fd5b505050506040513d601f19601f820116820180604052508101906104579190610870565b156105315760405163a9059cbb60e01b81526001600160a01b0383811660048301526024820189905284169063a9059cbb90604401600060405180830381600087803b1580156104a657600080fd5b505af11580156104ba573d6000803e3d6000fd5b505060405163bcb7ea5d60e01b81526001600160a01b0387811660048301528516925063bcb7ea5d91506024016020604051808303816000875af1158015610506573d6000803e3d6000fd5b505050506040513d601f19601f8201168201806040525081019061052a91906108df565b9050610656565b60405163a9059cbb60e01b81526001600160a01b037f0000000000000000000000000000000000000000000000000000000000000000811660048301526024820189905284169063a9059cbb90604401600060405180830381600087803b15801561059b57600080fd5b505af11580156105af573d6000803e3d6000fd5b5050604080516000815260208101918290526329910b1160e01b9091526001600160a01b037f00000000000000000000000000000000000000000000000000000000000000001692506329910b1191506106109087908b90602481016108f8565b60408051808303816000875af115801561062e573d6000803e3d6000fd5b505050506040513d601f19601f820116820180604052508101906106529190610964565b5090505b60405163769f8e5d60e01b8152306004820152602481018290526001600160a01b038781166044830152600060648301526001608483015285169063769f8e5d9060a4016020604051808303816000875af11580156106b9573d6000803e3d6000fd5b505050506040513d601f19601f820116820180604052508101906106dd91906108df565b979650505050505050565b6040805160e0810182526001600160a01b037f0000000000000000000000000000000000000000000000000000000000000000811682527f000000000000000000000000000000000000000000000000000000000000000081166020830190815230838501908152426060850190815260808501878152600160a08701908152600060c08801818152985163178ca23160e31b8152885188166004820152955187166024870152935186166044860152915160648501525160848401525160a48301529351821660c48201527f00000000000000000000000000000000000000000000000000000000000000009091169063bc6511889060e4016020604051808303816000875af1158015610801573d6000803e3d6000fd5b505050506040513d601f19601f8201168201806040525081019061082591906108df565b9392505050565b6001600160a01b038116811461084157600080fd5b50565b6000806040838503121561085757600080fd5b82356108628161082c565b946020939093013593505050565b60006020828403121561088257600080fd5b8151801515811461082557600080fd5b6000806000606084860312156108a757600080fd5b83516108b28161082c565b60208501519093506108c38161082c565b60408501519092506108d48161082c565b809150509250925092565b6000602082840312156108f157600080fd5b5051919050565b60018060a01b038416815260006020848184015260606040840152835180606085015260005b8181101561093a5785810183015185820160800152820161091e565b8181111561094c576000608083870101525b50601f01601f19169290920160800195945050505050565b6000806040838503121561097757600080fd5b50508051602090910151909290915056fea2646970667358221220553e9364ff8244675b23c198a94fc58212ae4033e9c30c8c0762553f416298e764736f6c634300080d0033",
  "devdoc": {
    "kind": "dev",
    "methods": {
      "towardsAsset(address,uint256)": {
        "params": {
          "_amount": "Amount of the `_asset`",
          "_asset": "Asset to be wrapped"
        },
        "returns": {
          "_0": "A token that the `_asset` has been converted to",
          "_1": "Amount of the quote token that we spent to get `_amoun` of the `_asset`"
        }
      },
      "towardsNative(address,uint256)": {
        "params": {
          "_amount": "Amount of the `_asset`",
          "_asset": "Asset to be unwrapped"
        },
        "returns": {
          "amount": "Amount of the `tokenOut` that we received",
          "asset": "A token that the `_asset` has been converted to"
        }
      }
    },
    "version": 1
  },
  "userdoc": {
    "kind": "user",
    "methods": {
      "towardsAsset(address,uint256)": {
        "notice": "Performs operation opposit to `towardsNative`"
      },
      "towardsNative(address,uint256)": {
        "notice": "Operates to unwrap an `_asset`"
      }
    },
    "version": 1
  },
  "storageLayout": {
    "storage": [],
    "types": null
  }
}