{
  "address": "0xCfBEbcf6Bc36F631cBb1011633fFC014dB3dB22d",
  "abi": [
    {
      "inputs": [],
      "stateMutability": "nonpayable",
      "type": "constructor"
    },
    {
      "inputs": [],
      "name": "InvalidAsset",
      "type": "error"
    },
    {
      "inputs": [],
      "name": "Unsupported",
      "type": "error"
    },
    {
      "inputs": [],
      "name": "FEE",
      "outputs": [
        {
          "internalType": "uint24",
          "name": "",
          "type": "uint24"
        }
      ],
      "stateMutability": "view",
      "type": "function"
    },
    {
      "inputs": [],
      "name": "PENDLE_MARKET",
      "outputs": [
        {
          "internalType": "address",
          "name": "",
          "type": "address"
        }
      ],
      "stateMutability": "view",
      "type": "function"
    },
    {
      "inputs": [],
      "name": "PENDLE_TOKEN",
      "outputs": [
        {
          "internalType": "address",
          "name": "",
          "type": "address"
        }
      ],
      "stateMutability": "view",
      "type": "function"
    },
    {
      "inputs": [],
      "name": "UNISWAP_ROUTER",
      "outputs": [
        {
          "internalType": "contract ISwapRouter",
          "name": "",
          "type": "address"
        }
      ],
      "stateMutability": "view",
      "type": "function"
    },
    {
      "inputs": [],
      "name": "WEETH",
      "outputs": [
        {
          "internalType": "address",
          "name": "",
          "type": "address"
        }
      ],
      "stateMutability": "view",
      "type": "function"
    },
    {
      "inputs": [],
      "name": "WETH",
      "outputs": [
        {
          "internalType": "address",
          "name": "",
          "type": "address"
        }
      ],
      "stateMutability": "view",
      "type": "function"
    },
    {
      "inputs": [
        {
          "internalType": "address",
          "name": "",
          "type": "address"
        },
        {
          "internalType": "uint256",
          "name": "",
          "type": "uint256"
        }
      ],
      "name": "towardsAsset",
      "outputs": [
        {
          "internalType": "address",
          "name": "",
          "type": "address"
        },
        {
          "internalType": "uint256",
          "name": "",
          "type": "uint256"
        }
      ],
      "stateMutability": "pure",
      "type": "function"
    },
    {
      "inputs": [
        {
          "internalType": "address",
          "name": "_asset",
          "type": "address"
        },
        {
          "internalType": "uint256",
          "name": "_amount",
          "type": "uint256"
        }
      ],
      "name": "towardsNative",
      "outputs": [
        {
          "internalType": "address",
          "name": "asset",
          "type": "address"
        },
        {
          "internalType": "uint256",
          "name": "amount",
          "type": "uint256"
        }
      ],
      "stateMutability": "nonpayable",
      "type": "function"
    }
  ],
  "transactionHash": "0x1c6ad5b074aaca5c6c27f3439dec834161b33e60ff1caabd831337d62a22fe2e",
  "args": [],
  "numDeployments": 1,
  "solcInputHash": "d8dcac8f11cd8963fe8783c251179f42",
  "bytecode": "0x61010060405234801561001157600080fd5b50731c27ad8a19ba026adabd615f6bc77158130cfbe460805273952083cde7aaa11ab8449057f7de23a970aa847260a05273e592427a0aece92de3edee1f18e0157c0586156460c052610bb860e05260805160a05160c05160e051610a046100c960003960008181610178015261071d0152600081816101b30152818161028f015261077a01526000818160ca015281816103450152818161052001526105ae01526000818161012301526101da0152610a046000f3fe608060405234801561001057600080fd5b50600436106100885760003560e01c80636ea477da1161005b5780636ea477da14610145578063ad5c464814610158578063c57981b514610173578063d8264920146101ae57600080fd5b806305e2d5411461008d5780630f61ac82146100c557806321ebbf01146100ec578063277efdce1461011e575b600080fd5b6100a87335751007a407ca6feffe80b3cb397736d2cf4dbe81565b6040516001600160a01b0390911681526020015b60405180910390f35b6100a87f000000000000000000000000000000000000000000000000000000000000000081565b6100ff6100fa36600461088a565b6101d5565b604080516001600160a01b0390931683526020830191909152016100bc565b6100a87f000000000000000000000000000000000000000000000000000000000000000081565b6100ff61015336600461088a565b610321565b6100a87382af49447d8a07e3bd95bd0d56f35241523fbab181565b61019a7f000000000000000000000000000000000000000000000000000000000000000081565b60405162ffffff90911681526020016100bc565b6100a87f000000000000000000000000000000000000000000000000000000000000000081565b6000807f00000000000000000000000000000000000000000000000000000000000000006001600160a01b0316846001600160a01b03161461022a57604051636448d6e960e11b815260040160405180910390fd5b7382af49447d8a07e3bd95bd0d56f35241523fbab191506000610261847335751007a407ca6feffe80b3cb397736d2cf4dbe61033d565b90507335751007a407ca6feffe80b3cb397736d2cf4dbe60405163095ea7b360e01b81526001600160a01b037f00000000000000000000000000000000000000000000000000000000000000008116600483015260248201849052919091169063095ea7b3906044016020604051808303816000875af11580156102e9573d6000803e3d6000fd5b505050506040513d601f19601f8201168201806040525081019061030d91906108b6565b50610317816106c0565b9150509250929050565b600080604051634851657960e11b815260040160405180910390fd5b6000806000807f00000000000000000000000000000000000000000000000000000000000000006001600160a01b0316632c8ce6bc6040518163ffffffff1660e01b8152600401606060405180830381865afa1580156103a1573d6000803e3d6000fd5b505050506040513d601f19601f820116820180604052508101906103c591906108d8565b9250925092506000826001600160a01b0316632f13b60c6040518163ffffffff1660e01b8152600401602060405180830381865afa15801561040b573d6000803e3d6000fd5b505050506040513d601f19601f8201168201806040525081019061042f91906108b6565b156105095760405163a9059cbb60e01b81526001600160a01b0383811660048301526024820189905284169063a9059cbb90604401600060405180830381600087803b15801561047e57600080fd5b505af1158015610492573d6000803e3d6000fd5b505060405163bcb7ea5d60e01b81526001600160a01b0387811660048301528516925063bcb7ea5d91506024016020604051808303816000875af11580156104de573d6000803e3d6000fd5b505050506040513d601f19601f820116820180604052508101906105029190610925565b905061062e565b60405163a9059cbb60e01b81526001600160a01b037f0000000000000000000000000000000000000000000000000000000000000000811660048301526024820189905284169063a9059cbb90604401600060405180830381600087803b15801561057357600080fd5b505af1158015610587573d6000803e3d6000fd5b5050604080516000815260208101918290526329910b1160e01b9091526001600160a01b037f00000000000000000000000000000000000000000000000000000000000000001692506329910b1191506105e89087908b906024810161093e565b60408051808303816000875af1158015610606573d6000803e3d6000fd5b505050506040513d601f19601f8201168201806040525081019061062a91906109aa565b5090505b60405163769f8e5d60e01b8152306004820152602481018290526001600160a01b038781166044830152600060648301526001608483015285169063769f8e5d9060a4016020604051808303816000875af1158015610691573d6000803e3d6000fd5b505050506040513d601f19601f820116820180604052508101906106b59190610925565b979650505050505050565b6000806040518061010001604052806106ea7335751007a407ca6feffe80b3cb397736d2cf4dbe90565b6001600160a01b031681526020017382af49447d8a07e3bd95bd0d56f35241523fbab16001600160a01b031681526020017f000000000000000000000000000000000000000000000000000000000000000062ffffff168152602001306001600160a01b031681526020014281526020018481526020016001815260200160006001600160a01b031681525090507f00000000000000000000000000000000000000000000000000000000000000006001600160a01b031663414bf389826040518263ffffffff1660e01b8152600401610828919081516001600160a01b03908116825260208084015182169083015260408084015162ffffff16908301526060808401518216908301526080808401519083015260a0838101519083015260c0808401519083015260e09283015116918101919091526101000190565b6020604051808303816000875af1158015610847573d6000803e3d6000fd5b505050506040513d601f19601f8201168201806040525081019061086b9190610925565b9392505050565b6001600160a01b038116811461088757600080fd5b50565b6000806040838503121561089d57600080fd5b82356108a881610872565b946020939093013593505050565b6000602082840312156108c857600080fd5b8151801515811461086b57600080fd5b6000806000606084860312156108ed57600080fd5b83516108f881610872565b602085015190935061090981610872565b604085015190925061091a81610872565b809150509250925092565b60006020828403121561093757600080fd5b5051919050565b60018060a01b038416815260006020848184015260606040840152835180606085015260005b8181101561098057858101830151858201608001528201610964565b81811115610992576000608083870101525b50601f01601f19169290920160800195945050505050565b600080604083850312156109bd57600080fd5b50508051602090910151909290915056fea26469706673582212200cc7888abdfe1b6fca0bde29570b64ffb3592e5c2b1953ae86d6b3285500cdc564736f6c634300080d0033",
  "devdoc": {
    "kind": "dev",
    "methods": {
      "towardsAsset(address,uint256)": {
        "params": {
          "_amount": "Amount of the `_asset`",
          "_asset": "Asset to be wrapped"
        },
        "returns": {
          "_0": "A token that the `_asset` has been converted to",
          "_1": "Amount of the quote token that we spent to get `_amoun` of the `_asset`"
        }
      },
      "towardsNative(address,uint256)": {
        "params": {
          "_amount": "Amount of the `_asset`",
          "_asset": "Asset to be unwrapped"
        },
        "returns": {
          "amount": "Amount of the `tokenOut` that we received",
          "asset": "A token that the `_asset` has been converted to"
        }
      }
    },
    "version": 1
  },
  "userdoc": {
    "kind": "user",
    "methods": {
      "towardsAsset(address,uint256)": {
        "notice": "Performs operation opposit to `towardsNative`"
      },
      "towardsNative(address,uint256)": {
        "notice": "Operates to unwrap an `_asset`"
      }
    },
    "version": 1
  },
  "storageLayout": {
    "storage": [],
    "types": null
  }
}