{
  "address": "0x6cA841F23e270D5f2e71F818b5385E05c4A18462",
  "abi": [
    {
      "inputs": [
        {
          "internalType": "address",
          "name": "_asset",
          "type": "address"
        },
        {
          "internalType": "address",
          "name": "_market",
          "type": "address"
        },
        {
          "internalType": "address",
          "name": "_weth",
          "type": "address"
        },
        {
          "internalType": "address",
          "name": "_weeth",
          "type": "address"
        },
        {
          "internalType": "address",
          "name": "_uniswapPool",
          "type": "address"
        },
        {
          "internalType": "address",
          "name": "_router",
          "type": "address"
        }
      ],
      "stateMutability": "nonpayable",
      "type": "constructor"
    },
    {
      "inputs": [],
      "name": "InvalidAsset",
      "type": "error"
    },
    {
      "inputs": [],
      "name": "Unsupported",
      "type": "error"
    },
    {
      "inputs": [],
      "name": "FEE",
      "outputs": [
        {
          "internalType": "uint24",
          "name": "",
          "type": "uint24"
        }
      ],
      "stateMutability": "view",
      "type": "function"
    },
    {
      "inputs": [],
      "name": "PENDLE_MARKET",
      "outputs": [
        {
          "internalType": "address",
          "name": "",
          "type": "address"
        }
      ],
      "stateMutability": "view",
      "type": "function"
    },
    {
      "inputs": [],
      "name": "PENDLE_TOKEN",
      "outputs": [
        {
          "internalType": "address",
          "name": "",
          "type": "address"
        }
      ],
      "stateMutability": "view",
      "type": "function"
    },
    {
      "inputs": [],
      "name": "WEETH",
      "outputs": [
        {
          "internalType": "address",
          "name": "",
          "type": "address"
        }
      ],
      "stateMutability": "view",
      "type": "function"
    },
    {
      "inputs": [],
      "name": "WETH",
      "outputs": [
        {
          "internalType": "address",
          "name": "",
          "type": "address"
        }
      ],
      "stateMutability": "view",
      "type": "function"
    },
    {
      "inputs": [
        {
          "internalType": "address",
          "name": "",
          "type": "address"
        },
        {
          "internalType": "uint256",
          "name": "",
          "type": "uint256"
        }
      ],
      "name": "towardsAsset",
      "outputs": [
        {
          "internalType": "address",
          "name": "",
          "type": "address"
        },
        {
          "internalType": "uint256",
          "name": "",
          "type": "uint256"
        }
      ],
      "stateMutability": "pure",
      "type": "function"
    },
    {
      "inputs": [
        {
          "internalType": "address",
          "name": "_asset",
          "type": "address"
        },
        {
          "internalType": "uint256",
          "name": "_amount",
          "type": "uint256"
        }
      ],
      "name": "towardsNative",
      "outputs": [
        {
          "internalType": "address",
          "name": "asset",
          "type": "address"
        },
        {
          "internalType": "uint256",
          "name": "amount",
          "type": "uint256"
        }
      ],
      "stateMutability": "nonpayable",
      "type": "function"
    },
    {
      "inputs": [],
      "name": "uniswapRouter",
      "outputs": [
        {
          "internalType": "contract ISwapRouter",
          "name": "",
          "type": "address"
        }
      ],
      "stateMutability": "view",
      "type": "function"
    }
  ],
  "transactionHash": "0x8e7a63c2bccda0ebe1b9bcbb87f4d56740d9d1dcb650ddf6561b6af48f8c2848",
  "args": [
    "0x9bEcd6b4Fb076348A455518aea23d3799361FE95",
    "0xE11f9786B06438456b044B3E21712228ADcAA0D1",
    "0x82aF49447D8a07e3bd95BD0d56f35241523fBab1",
    "0x35751007a407ca6FEFfE80b3cB397736D2cf4dbe",
    "0xA169d1aB5c948555954D38700a6cDAA7A4E0c3A0",
    "0xE592427A0AEce92De3Edee1F18E0157C05861564"
  ],
  "numDeployments": 2,
  "solcInputHash": "4910ad1d5346b99b57a969c0eb1d2779",
  "bytecode": "0x61014060405234801561001157600080fd5b50604051610c37380380610c37833981016040819052610030916100ec565b6001600160a01b0380871660a05285811660c0528481166101005283811660e0528181166080526040805163ddca3f4360e01b81529051849283169163ddca3f439160048083019260209291908290030181865afa158015610096573d6000803e3d6000fd5b505050506040513d601f19601f820116820180604052508101906100ba9190610160565b62ffffff16610120525061018c95505050505050565b80516001600160a01b03811681146100e757600080fd5b919050565b60008060008060008060c0878903121561010557600080fd5b61010e876100d0565b955061011c602088016100d0565b945061012a604088016100d0565b9350610138606088016100d0565b9250610146608088016100d0565b915061015460a088016100d0565b90509295509295509295565b60006020828403121561017257600080fd5b815162ffffff8116811461018557600080fd5b9392505050565b60805160a05160c05160e0516101005161012051610a0a61022d600039600081816101b701526107620152600081816101900152818161024401526107340152600081816092015281816102b90152818161066d015261070f01526000818160d6015281816103600152818161053b01526105c901526000818161012f01526101f20152600081816101690152818161028701526108010152610a0a6000f3fe608060405234801561001057600080fd5b50600436106100885760003560e01c80636ea477da1161005b5780636ea477da14610151578063735de9f714610164578063ad5c46481461018b578063c57981b5146101b257600080fd5b806305e2d5411461008d5780630f61ac82146100d157806321ebbf01146100f8578063277efdce1461012a575b600080fd5b6100b47f000000000000000000000000000000000000000000000000000000000000000081565b6040516001600160a01b0390911681526020015b60405180910390f35b6100b47f000000000000000000000000000000000000000000000000000000000000000081565b61010b610106366004610890565b6101ed565b604080516001600160a01b0390931683526020830191909152016100c8565b6100b47f000000000000000000000000000000000000000000000000000000000000000081565b61010b61015f366004610890565b61033c565b6100b47f000000000000000000000000000000000000000000000000000000000000000081565b6100b47f000000000000000000000000000000000000000000000000000000000000000081565b6101d97f000000000000000000000000000000000000000000000000000000000000000081565b60405162ffffff90911681526020016100c8565b6000807f00000000000000000000000000000000000000000000000000000000000000006001600160a01b0316846001600160a01b03161461024257604051636448d6e960e11b815260040160405180910390fd5b7f00000000000000000000000000000000000000000000000000000000000000009150600061027084610358565b60405163095ea7b360e01b81526001600160a01b037f000000000000000000000000000000000000000000000000000000000000000081166004830152602482018390529192507f00000000000000000000000000000000000000000000000000000000000000009091169063095ea7b3906044016020604051808303816000875af1158015610304573d6000803e3d6000fd5b505050506040513d601f19601f8201168201806040525081019061032891906108bc565b50610332816106fa565b9150509250929050565b600080604051634851657960e11b815260040160405180910390fd5b6000806000807f00000000000000000000000000000000000000000000000000000000000000006001600160a01b0316632c8ce6bc6040518163ffffffff1660e01b8152600401606060405180830381865afa1580156103bc573d6000803e3d6000fd5b505050506040513d601f19601f820116820180604052508101906103e091906108de565b9250925092506000826001600160a01b0316632f13b60c6040518163ffffffff1660e01b8152600401602060405180830381865afa158015610426573d6000803e3d6000fd5b505050506040513d601f19601f8201168201806040525081019061044a91906108bc565b156105245760405163a9059cbb60e01b81526001600160a01b0383811660048301526024820188905284169063a9059cbb90604401600060405180830381600087803b15801561049957600080fd5b505af11580156104ad573d6000803e3d6000fd5b505060405163bcb7ea5d60e01b81526001600160a01b0387811660048301528516925063bcb7ea5d91506024016020604051808303816000875af11580156104f9573d6000803e3d6000fd5b505050506040513d601f19601f8201168201806040525081019061051d919061092b565b9050610649565b60405163a9059cbb60e01b81526001600160a01b037f0000000000000000000000000000000000000000000000000000000000000000811660048301526024820188905284169063a9059cbb90604401600060405180830381600087803b15801561058e57600080fd5b505af11580156105a2573d6000803e3d6000fd5b5050604080516000815260208101918290526329910b1160e01b9091526001600160a01b037f00000000000000000000000000000000000000000000000000000000000000001692506329910b1191506106039087908a9060248101610944565b60408051808303816000875af1158015610621573d6000803e3d6000fd5b505050506040513d601f19601f8201168201806040525081019061064591906109b0565b5090505b60405163769f8e5d60e01b8152306004820152602481018290526001600160a01b037f000000000000000000000000000000000000000000000000000000000000000081166044830152600060648301526001608483015285169063769f8e5d9060a4016020604051808303816000875af11580156106cc573d6000803e3d6000fd5b505050506040513d601f19601f820116820180604052508101906106f0919061092b565b9695505050505050565b60408051610100810182526001600160a01b037f0000000000000000000000000000000000000000000000000000000000000000811682527f000000000000000000000000000000000000000000000000000000000000000081166020830190815262ffffff7f000000000000000000000000000000000000000000000000000000000000000081168486019081523060608601908152426080870190815260a08701898152600160c08901908152600060e08a018181529a5163414bf38960e01b81528a518a166004820152975189166024890152945190951660448701529151861660648601525160848501525160a4840152905160c48301529351821660e48201527f00000000000000000000000000000000000000000000000000000000000000009091169063414bf38990610104016020604051808303816000875af115801561084d573d6000803e3d6000fd5b505050506040513d601f19601f82011682018060405250810190610871919061092b565b9392505050565b6001600160a01b038116811461088d57600080fd5b50565b600080604083850312156108a357600080fd5b82356108ae81610878565b946020939093013593505050565b6000602082840312156108ce57600080fd5b8151801515811461087157600080fd5b6000806000606084860312156108f357600080fd5b83516108fe81610878565b602085015190935061090f81610878565b604085015190925061092081610878565b809150509250925092565b60006020828403121561093d57600080fd5b5051919050565b60018060a01b038416815260006020848184015260606040840152835180606085015260005b818110156109865785810183015185820160800152820161096a565b81811115610998576000608083870101525b50601f01601f19169290920160800195945050505050565b600080604083850312156109c357600080fd5b50508051602090910151909290915056fea2646970667358221220a4358e474cc6241114aa59175bfac3049820ead4fd6c85c15f834672514be9d664736f6c634300080d0033",
  "devdoc": {
    "kind": "dev",
    "methods": {
      "towardsAsset(address,uint256)": {
        "params": {
          "_amount": "Amount of the `_asset`",
          "_asset": "Asset to be wrapped"
        },
        "returns": {
          "_0": "A token that the `_asset` has been converted to",
          "_1": "Amount of the quote token that we spent to get `_amoun` of the `_asset`"
        }
      },
      "towardsNative(address,uint256)": {
        "params": {
          "_amount": "Amount of the `_asset`",
          "_asset": "Asset to be unwrapped"
        },
        "returns": {
          "amount": "Amount of the `tokenOut` that we received",
          "asset": "A token that the `_asset` has been converted to"
        }
      }
    },
    "version": 1
  },
  "userdoc": {
    "kind": "user",
    "methods": {
      "towardsAsset(address,uint256)": {
        "notice": "Performs operation opposit to `towardsNative`"
      },
      "towardsNative(address,uint256)": {
        "notice": "Operates to unwrap an `_asset`"
      }
    },
    "version": 1
  },
  "storageLayout": {
    "storage": [],
    "types": null
  }
}