{
  "address": "0xf8B378Af33Ba4265e878Ca93fC3F123b27DB4e6d",
  "abi": [
    {
      "inputs": [
        {
          "internalType": "contract ISiloRepository",
          "name": "_siloRepo",
          "type": "address"
        }
      ],
      "stateMutability": "nonpayable",
      "type": "constructor"
    },
    {
      "inputs": [],
      "name": "InvalidSiloRepository",
      "type": "error"
    },
    {
      "inputs": [],
      "name": "ZeroAssets",
      "type": "error"
    },
    {
      "inputs": [
        {
          "internalType": "contract ISilo",
          "name": "_silo",
          "type": "address"
        },
        {
          "internalType": "address[]",
          "name": "_users",
          "type": "address[]"
        },
        {
          "internalType": "uint64",
          "name": "_timestampOffset",
          "type": "uint64"
        }
      ],
      "name": "flashLiquidateView",
      "outputs": [
        {
          "internalType": "address[]",
          "name": "assets",
          "type": "address[]"
        },
        {
          "internalType": "uint256[][]",
          "name": "receivedCollaterals",
          "type": "uint256[][]"
        },
        {
          "internalType": "uint256[][]",
          "name": "shareAmountsToRepay",
          "type": "uint256[][]"
        }
      ],
      "stateMutability": "view",
      "type": "function"
    },
    {
      "inputs": [
        {
          "internalType": "contract ISilo",
          "name": "_silo",
          "type": "address"
        },
        {
          "internalType": "address[]",
          "name": "_users",
          "type": "address[]"
        }
      ],
      "name": "flashLiquidateView",
      "outputs": [
        {
          "internalType": "address[]",
          "name": "assets",
          "type": "address[]"
        },
        {
          "internalType": "uint256[][]",
          "name": "receivedCollaterals",
          "type": "uint256[][]"
        },
        {
          "internalType": "uint256[][]",
          "name": "shareAmountsToRepay",
          "type": "uint256[][]"
        }
      ],
      "stateMutability": "view",
      "type": "function"
    },
    {
      "inputs": [
        {
          "internalType": "contract ISilo",
          "name": "_silo",
          "type": "address"
        },
        {
          "internalType": "address",
          "name": "_asset",
          "type": "address"
        }
      ],
      "name": "getModel",
      "outputs": [
        {
          "internalType": "contract IInterestRateModel",
          "name": "",
          "type": "address"
        }
      ],
      "stateMutability": "view",
      "type": "function"
    },
    {
      "inputs": [],
      "name": "siloRepository",
      "outputs": [
        {
          "internalType": "contract ISiloRepository",
          "name": "",
          "type": "address"
        }
      ],
      "stateMutability": "view",
      "type": "function"
    }
  ],
  "transactionHash": "0xb05a150da9eb8fdb51a55fe89b2f7009dd72df15ccec4a36c3aa45191c5eaca3",
  "args": [
    "0x8658047e48CC09161f4152c79155Dac1d710Ff0a"
  ],
  "numDeployments": 3,
  "solcInputHash": "0de0daea93e66b040735fa28717139e9",
  "bytecode": "0x60a06040523480156200001157600080fd5b50604051620014b5380380620014b5833981016040819052620000349162000111565b62000058816001600160a01b031663e99ed41d6200008760201b620003311760201c565b62000075576040516295241d60e21b815260040160405180910390fd5b6001600160a01b031660805262000168565b60006001600160a01b038316158015906200010a575082826040518163ffffffff1660e01b8152600401602060405180830381865afa158015620000cf573d6000803e3d6000fd5b505050506040513d601f19601f82011682018060405250810190620000f591906200013c565b60e083901b6001600160e01b03199081169116145b9392505050565b6000602082840312156200012457600080fd5b81516001600160a01b03811681146200010a57600080fd5b6000602082840312156200014f57600080fd5b81516001600160e01b0319811681146200010a57600080fd5b60805161131d620001986000396000818160ac0152818161029f0152818161052a01526108a3015261131d6000f3fe608060405234801561001057600080fd5b506004361061004c5760003560e01c80631da624e0146100515780638feddfec1461007c578063bde12718146100a7578063f5f5df26146100ce575b600080fd5b61006461005f366004610df5565b6100e1565b60405161007393929190610ed4565b60405180910390f35b61008f61008a366004610f3f565b610275565b6040516001600160a01b039091168152602001610073565b61008f7f000000000000000000000000000000000000000000000000000000000000000081565b6100646100dc366004610f78565b610313565b6060806060856001600160a01b03166367e4ac2c6040518163ffffffff1660e01b8152600401600060405180830381865afa158015610124573d6000803e3d6000fd5b505050506040513d6000823e601f3d908101601f1916820160405261014c9190810190610fc7565b8551909350806001600160401b0381111561016957610169610d03565b60405190808252806020026020018201604052801561019c57816020015b60608152602001906001900390816101875790505b509250806001600160401b038111156101b7576101b7610d03565b6040519080825280602002602001820160405280156101ea57816020015b60608152602001906001900390816101d55790505b50915060005b8181101561026a5761021d888689848151811061020f5761020f611060565b6020026020010151896103b7565b85838151811061022f5761022f611060565b6020026020010185848151811061024857610248611060565b60200260200101829052829052505080806102629061108c565b9150506101f0565b505093509350939050565b60405163122cfaaf60e21b81526001600160a01b03838116600483015282811660248301526000917f0000000000000000000000000000000000000000000000000000000000000000909116906348b3eabc90604401602060405180830381865afa1580156102e8573d6000803e3d6000fd5b505050506040513d601f19601f8201168201806040525081019061030c91906110a5565b9392505050565b6060806060610324858560006100e1565b9250925092509250925092565b60006001600160a01b0383161580159061030c575082826040518163ffffffff1660e01b8152600401602060405180830381865afa158015610377573d6000803e3d6000fd5b505050506040513d601f19601f8201168201806040525081019061039b91906110c2565b60e083901b6001600160e01b0319908116911614905092915050565b6040516338b51ce160e01b81526001600160a01b03838116600483015260609182918716906338b51ce190602401602060405180830381865afa158015610402573d6000803e3d6000fd5b505050506040513d601f19601f8201168201806040525081019061042691906110ec565b1561047c57600085516001600160401b0381111561044657610446610d03565b60405190808252806020026020018201604052801561046f578160200160208202803683370190505b50925082915061048e9050565b61048886868686610497565b90925090505b94509492505050565b82516060908190806001600160401b038111156104b6576104b6610d03565b6040519080825280602002602001820160405280156104df578160200160208202803683370190505b509250806001600160401b038111156104fa576104fa610d03565b604051908082528060200260200182016040528015610523578160200160208202803683370190505b50915060007f00000000000000000000000000000000000000000000000000000000000000006001600160a01b031663eafecffa6040518163ffffffff1660e01b8152600401602060405180830381865afa158015610586573d6000803e3d6000fd5b505050506040513d601f19601f820116820180604052508101906105aa919061110e565b905060006105b88642611127565b905060005b838110156107bf5760008a6001600160a01b031663bf2730418b84815181106105e8576105e8611060565b60200260200101516040518263ffffffff1660e01b815260040161061b91906001600160a01b0391909116815260200190565b60c060405180830381865afa158015610638573d6000803e3d6000fd5b505050506040513d601f19601f8201168201806040525081019061065c919061114f565b905060008b6001600160a01b031663fb2557038c858151811061068157610681611060565b60200260200101516040518263ffffffff1660e01b81526004016106b491906001600160a01b0391909116815260200190565b608060405180830381865afa1580156106d1573d6000803e3d6000fd5b505050506040513d601f19601f820116820180604052508101906106f591906111e3565b905061071d8c83838e878151811061070f5761070f611060565b6020026020010151886107cc565b610727828b6109d2565b5087848151811061073a5761073a611060565b6020026020010181815250506000610761836080015184602001518d898660200151610ace565b9050600061077e846060015185600001518e8a8760200151610ace565b905061078a818361125b565b8a868151811061079c5761079c611060565b6020026020010181815250505050505080806107b79061108c565b9150506105bd565b5050505094509492505050565b60408301516001600160401b031660008190036107f857506001600160401b03811660408401526109cb565b816001600160401b0316810361080e57506109cb565b600061081a8785610275565b60405163b1e0176560e01b81526001600160a01b03898116600483015286811660248301526001600160401b0386166044830152919091169063b1e0176590606401602060405180830381865afa158015610879573d6000803e3d6000fd5b505050506040513d601f19601f8201168201806040525081019061089d919061110e565b905060007f00000000000000000000000000000000000000000000000000000000000000006001600160a01b03166325ed3d446040518163ffffffff1660e01b8152600401602060405180830381865afa1580156108ff573d6000803e3d6000fd5b505050506040513d601f19601f82011682018060405250810190610923919061110e565b60a08801519091506000670de0b6b3a76400006109408584611273565b61094a91906112a8565b90506000670de0b6b3a76400006109618584611273565b61096b91906112a8565b9050600061097982846112bc565b9050610985838561125b565b60a08c015260608b015161099a90829061125b565b60608c015260208a01516109af90839061125b565b60208b01525050506001600160401b0385166040880152505050505b5050505050565b60408083015190516370a0823160e01b81526001600160a01b03838116600483015260009283929116906370a0823190602401602060405180830381865afa158015610a22573d6000803e3d6000fd5b505050506040513d601f19601f82011682018060405250810190610a46919061110e565b9050600084604001516001600160a01b03166318160ddd6040518163ffffffff1660e01b8152600401602060405180830381865afa158015610a8c573d6000803e3d6000fd5b505050506040513d601f19601f82011682018060405250810190610ab0919061110e565b60a0860151909150610ac3838284610be0565b935050509250929050565b6040516370a0823160e01b81526001600160a01b03848116600483015260009182918716906370a0823190602401602060405180830381865afa158015610b19573d6000803e3d6000fd5b505050506040513d601f19601f82011682018060405250810190610b3d919061110e565b9050610bad87876001600160a01b03166318160ddd6040518163ffffffff1660e01b8152600401602060405180830381865afa158015610b81573d6000803e3d6000fd5b505050506040513d601f19601f82011682018060405250810190610ba5919061110e565b839190610c3a565b915081600003610bc1576000915050610bd7565b8315610bd557610bd2828585610ca0565b91505b505b95945050505050565b6000811580610bed575082155b15610bfa5750600061030c565b6000610c068486611273565b90506000610c1484836112a8565b9050610c2084836112d3565b15610bd757610c3060018261125b565b9695505050505050565b6000811580610c47575082155b15610c545750600061030c565b600082610c618587611273565b610c6b91906112a8565b905080158015610c7a57508415155b15610c9857604051630cb65c7760e21b815260040160405180910390fd5b949350505050565b600080610cae838686610cba565b50909403949350505050565b670de0b6b3a76400008183020460008119851115610cde5750508219600019610ce3565b508381015b935093915050565b6001600160a01b0381168114610d0057600080fd5b50565b634e487b7160e01b600052604160045260246000fd5b604051601f8201601f191681016001600160401b0381118282101715610d4157610d41610d03565b604052919050565b60006001600160401b03821115610d6257610d62610d03565b5060051b60200190565b600082601f830112610d7d57600080fd5b81356020610d92610d8d83610d49565b610d19565b82815260059290921b84018101918181019086841115610db157600080fd5b8286015b84811015610dd5578035610dc881610ceb565b8352918301918301610db5565b509695505050505050565b6001600160401b0381168114610d0057600080fd5b600080600060608486031215610e0a57600080fd5b8335610e1581610ceb565b925060208401356001600160401b03811115610e3057600080fd5b610e3c86828701610d6c565b9250506040840135610e4d81610de0565b809150509250925092565b600081518084526020808501808196508360051b810191508286016000805b86811015610ec6578385038a52825180518087529087019087870190845b81811015610eb157835183529289019291890191600101610e95565b50509a87019a95505091850191600101610e77565b509298975050505050505050565b606080825284519082018190526000906020906080840190828801845b82811015610f165781516001600160a01b031684529284019290840190600101610ef1565b50505083810382850152610f2a8187610e58565b9150508281036040840152610c308185610e58565b60008060408385031215610f5257600080fd5b8235610f5d81610ceb565b91506020830135610f6d81610ceb565b809150509250929050565b60008060408385031215610f8b57600080fd5b8235610f9681610ceb565b915060208301356001600160401b03811115610fb157600080fd5b610fbd85828601610d6c565b9150509250929050565b60006020808385031215610fda57600080fd5b82516001600160401b03811115610ff057600080fd5b8301601f8101851361100157600080fd5b805161100f610d8d82610d49565b81815260059190911b8201830190838101908783111561102e57600080fd5b928401925b8284101561105557835161104681610ceb565b82529284019290840190611033565b979650505050505050565b634e487b7160e01b600052603260045260246000fd5b634e487b7160e01b600052601160045260246000fd5b60006001820161109e5761109e611076565b5060010190565b6000602082840312156110b757600080fd5b815161030c81610ceb565b6000602082840312156110d457600080fd5b81516001600160e01b03198116811461030c57600080fd5b6000602082840312156110fe57600080fd5b8151801515811461030c57600080fd5b60006020828403121561112057600080fd5b5051919050565b60006001600160401b038381169083168181101561114757611147611076565b039392505050565b600060c0828403121561116157600080fd5b60405160c081018181106001600160401b038211171561118357611183610d03565b604052825161119181610ceb565b815260208301516111a181610ceb565b602082015260408301516111b481610ceb565b80604083015250606083015160608201526080830151608082015260a083015160a08201528091505092915050565b6000608082840312156111f557600080fd5b604051608081018181106001600160401b038211171561121757611217610d03565b80604052508251815260208301516020820152604083015161123881610de0565b604082015260608301516003811061124f57600080fd5b60608201529392505050565b6000821982111561126e5761126e611076565b500190565b600081600019048311821515161561128d5761128d611076565b500290565b634e487b7160e01b600052601260045260246000fd5b6000826112b7576112b7611292565b500490565b6000828210156112ce576112ce611076565b500390565b6000826112e2576112e2611292565b50069056fea264697066735822122029b1096d35eb69ce83905b6c0779e75c41411b66f591cbe31d2eb6bc2dfe723e64736f6c634300080d0033",
  "devdoc": {
    "custom:security-contact": "security@silo.finance",
    "kind": "dev",
    "methods": {
      "flashLiquidateView(address,address[])": {
        "details": "view method of ISilo.flashLiquidate",
        "params": {
          "_silo": "Silo address from which to read data",
          "_users": "array of users for witch we want to get liquidation data"
        },
        "returns": {
          "assets": "array of all processed assets (collateral + debt, including removed)",
          "receivedCollaterals": "receivedCollaterals[userId][assetId] => amount amounts of collaterals send to `_flashReceiver`",
          "shareAmountsToRepay": "shareAmountsToRepaid[userId][assetId] => amount required amounts of debt to be repaid"
        }
      },
      "flashLiquidateView(address,address[],uint64)": {
        "details": "view method of ISilo.flashLiquidate",
        "params": {
          "_silo": "Silo address from which to read data",
          "_timestampOffset": "offset to reduce current timestamp while doing calculation for interest",
          "_users": "array of users for witch we want to get liquidation data"
        },
        "returns": {
          "assets": "array of all processed assets (collateral + debt, including removed)",
          "receivedCollaterals": "receivedCollaterals[userId][assetId] => amount amounts of collaterals send to `_flashReceiver`",
          "shareAmountsToRepay": "shareAmountsToRepaid[userId][assetId] => amount required amounts of debt to be repaid"
        }
      },
      "getModel(address,address)": {
        "details": "gets interest rates model object",
        "params": {
          "_asset": "asset for which to calculate interest rate",
          "_silo": "Silo address from which to read data"
        },
        "returns": {
          "_0": "IInterestRateModel interest rates model object"
        }
      }
    },
    "title": "SiloLiquidationLens",
    "version": 1
  },
  "userdoc": {
    "kind": "user",
    "methods": {},
    "version": 1
  },
  "storageLayout": {
    "storage": [],
    "types": null
  }
}