{
  "address": "0x8658047e48CC09161f4152c79155Dac1d710Ff0a",
  "abi": [
    {
      "inputs": [
        {
          "internalType": "address",
          "name": "_siloFactory",
          "type": "address"
        },
        {
          "internalType": "address",
          "name": "_tokensFactory",
          "type": "address"
        },
        {
          "internalType": "uint64",
          "name": "_defaultMaxLTV",
          "type": "uint64"
        },
        {
          "internalType": "uint64",
          "name": "_defaultLiquidationThreshold",
          "type": "uint64"
        },
        {
          "internalType": "address[]",
          "name": "_initialBridgeAssets",
          "type": "address[]"
        }
      ],
      "stateMutability": "nonpayable",
      "type": "constructor"
    },
    {
      "inputs": [],
      "name": "AssetAlreadyAdded",
      "type": "error"
    },
    {
      "inputs": [],
      "name": "AssetIsNotABridge",
      "type": "error"
    },
    {
      "inputs": [],
      "name": "AssetIsZero",
      "type": "error"
    },
    {
      "inputs": [],
      "name": "BridgeAssetIsZero",
      "type": "error"
    },
    {
      "inputs": [],
      "name": "ConfigDidNotChange",
      "type": "error"
    },
    {
      "inputs": [],
      "name": "EmptyBridgeAssets",
      "type": "error"
    },
    {
      "inputs": [],
      "name": "FeesDidNotChange",
      "type": "error"
    },
    {
      "inputs": [],
      "name": "GlobalLimitDidNotChange",
      "type": "error"
    },
    {
      "inputs": [],
      "name": "GlobalPauseDidNotChange",
      "type": "error"
    },
    {
      "inputs": [],
      "name": "InterestRateModelDidNotChange",
      "type": "error"
    },
    {
      "inputs": [],
      "name": "InvalidEntryFee",
      "type": "error"
    },
    {
      "inputs": [],
      "name": "InvalidInterestRateModel",
      "type": "error"
    },
    {
      "inputs": [],
      "name": "InvalidLTV",
      "type": "error"
    },
    {
      "inputs": [],
      "name": "InvalidLiquidationThreshold",
      "type": "error"
    },
    {
      "inputs": [],
      "name": "InvalidNotificationReceiver",
      "type": "error"
    },
    {
      "inputs": [],
      "name": "InvalidPriceProvidersRepository",
      "type": "error"
    },
    {
      "inputs": [],
      "name": "InvalidProtocolLiquidationFee",
      "type": "error"
    },
    {
      "inputs": [],
      "name": "InvalidProtocolShareFee",
      "type": "error"
    },
    {
      "inputs": [],
      "name": "InvalidSiloFactory",
      "type": "error"
    },
    {
      "inputs": [],
      "name": "InvalidSiloRouter",
      "type": "error"
    },
    {
      "inputs": [],
      "name": "InvalidSiloVersion",
      "type": "error"
    },
    {
      "inputs": [],
      "name": "InvalidTokensFactory",
      "type": "error"
    },
    {
      "inputs": [],
      "name": "LastBridgeAsset",
      "type": "error"
    },
    {
      "inputs": [],
      "name": "LiquidationThresholdDidNotChange",
      "type": "error"
    },
    {
      "inputs": [],
      "name": "ManagerDidNotChange",
      "type": "error"
    },
    {
      "inputs": [],
      "name": "ManagerIsZero",
      "type": "error"
    },
    {
      "inputs": [],
      "name": "MaxLiquidityDidNotChange",
      "type": "error"
    },
    {
      "inputs": [],
      "name": "MaximumLTVDidNotChange",
      "type": "error"
    },
    {
      "inputs": [],
      "name": "NoPriceProviderForAsset",
      "type": "error"
    },
    {
      "inputs": [],
      "name": "NotificationReceiverDidNotChange",
      "type": "error"
    },
    {
      "inputs": [],
      "name": "OnlyManager",
      "type": "error"
    },
    {
      "inputs": [],
      "name": "OnlyOwnerOrManager",
      "type": "error"
    },
    {
      "inputs": [],
      "name": "PriceProviderRepositoryDidNotChange",
      "type": "error"
    },
    {
      "inputs": [],
      "name": "RouterDidNotChange",
      "type": "error"
    },
    {
      "inputs": [],
      "name": "SiloAlreadyExistsForAsset",
      "type": "error"
    },
    {
      "inputs": [],
      "name": "SiloAlreadyExistsForBridgeAssets",
      "type": "error"
    },
    {
      "inputs": [],
      "name": "SiloDoesNotExist",
      "type": "error"
    },
    {
      "inputs": [],
      "name": "SiloIsZero",
      "type": "error"
    },
    {
      "inputs": [],
      "name": "SiloMaxLiquidityDidNotChange",
      "type": "error"
    },
    {
      "inputs": [],
      "name": "SiloNotAllowedForBridgeAsset",
      "type": "error"
    },
    {
      "inputs": [],
      "name": "SiloPauseDidNotChange",
      "type": "error"
    },
    {
      "inputs": [],
      "name": "SiloVersionDoesNotExist",
      "type": "error"
    },
    {
      "inputs": [],
      "name": "TokenIsNotAContract",
      "type": "error"
    },
    {
      "inputs": [],
      "name": "VersionForAssetDidNotChange",
      "type": "error"
    },
    {
      "anonymous": false,
      "inputs": [
        {
          "indexed": true,
          "internalType": "address",
          "name": "silo",
          "type": "address"
        },
        {
          "indexed": true,
          "internalType": "address",
          "name": "asset",
          "type": "address"
        },
        {
          "components": [
            {
              "internalType": "uint64",
              "name": "maxLoanToValue",
              "type": "uint64"
            },
            {
              "internalType": "uint64",
              "name": "liquidationThreshold",
              "type": "uint64"
            },
            {
              "internalType": "contract IInterestRateModel",
              "name": "interestRateModel",
              "type": "address"
            }
          ],
          "indexed": false,
          "internalType": "struct ISiloRepository.AssetConfig",
          "name": "assetConfig",
          "type": "tuple"
        }
      ],
      "name": "AssetConfigUpdate",
      "type": "event"
    },
    {
      "anonymous": false,
      "inputs": [
        {
          "indexed": true,
          "internalType": "address",
          "name": "newBridgeAsset",
          "type": "address"
        }
      ],
      "name": "BridgeAssetAdded",
      "type": "event"
    },
    {
      "anonymous": false,
      "inputs": [
        {
          "indexed": true,
          "internalType": "address",
          "name": "bridgeAssetRemoved",
          "type": "address"
        }
      ],
      "name": "BridgeAssetRemoved",
      "type": "event"
    },
    {
      "anonymous": false,
      "inputs": [
        {
          "indexed": true,
          "internalType": "address",
          "name": "pool",
          "type": "address"
        }
      ],
      "name": "BridgePool",
      "type": "event"
    },
    {
      "anonymous": false,
      "inputs": [
        {
          "indexed": false,
          "internalType": "uint256",
          "name": "newMaxDeposits",
          "type": "uint256"
        }
      ],
      "name": "DefaultSiloMaxDepositsLimitUpdate",
      "type": "event"
    },
    {
      "anonymous": false,
      "inputs": [
        {
          "indexed": false,
          "internalType": "uint64",
          "name": "newEntryFee",
          "type": "uint64"
        },
        {
          "indexed": false,
          "internalType": "uint64",
          "name": "newProtocolShareFee",
          "type": "uint64"
        },
        {
          "indexed": false,
          "internalType": "uint64",
          "name": "newProtocolLiquidationFee",
          "type": "uint64"
        }
      ],
      "name": "FeeUpdate",
      "type": "event"
    },
    {
      "anonymous": false,
      "inputs": [
        {
          "indexed": false,
          "internalType": "bool",
          "name": "globalPause",
          "type": "bool"
        }
      ],
      "name": "GlobalPause",
      "type": "event"
    },
    {
      "anonymous": false,
      "inputs": [
        {
          "indexed": true,
          "internalType": "contract IInterestRateModel",
          "name": "newModel",
          "type": "address"
        }
      ],
      "name": "InterestRateModel",
      "type": "event"
    },
    {
      "anonymous": false,
      "inputs": [
        {
          "indexed": false,
          "internalType": "bool",
          "name": "newLimitedMaxLiquidityState",
          "type": "bool"
        }
      ],
      "name": "LimitedMaxLiquidityToggled",
      "type": "event"
    },
    {
      "anonymous": false,
      "inputs": [
        {
          "indexed": false,
          "internalType": "address",
          "name": "manager",
          "type": "address"
        }
      ],
      "name": "ManagerChanged",
      "type": "event"
    },
    {
      "anonymous": false,
      "inputs": [
        {
          "indexed": false,
          "internalType": "uint64",
          "name": "defaultLiquidationThreshold",
          "type": "uint64"
        }
      ],
      "name": "NewDefaultLiquidationThreshold",
      "type": "event"
    },
    {
      "anonymous": false,
      "inputs": [
        {
          "indexed": false,
          "internalType": "uint64",
          "name": "defaultMaximumLTV",
          "type": "uint64"
        }
      ],
      "name": "NewDefaultMaximumLTV",
      "type": "event"
    },
    {
      "anonymous": false,
      "inputs": [
        {
          "indexed": true,
          "internalType": "address",
          "name": "silo",
          "type": "address"
        },
        {
          "indexed": true,
          "internalType": "address",
          "name": "asset",
          "type": "address"
        },
        {
          "indexed": false,
          "internalType": "uint128",
          "name": "siloVersion",
          "type": "uint128"
        }
      ],
      "name": "NewSilo",
      "type": "event"
    },
    {
      "anonymous": false,
      "inputs": [
        {
          "indexed": true,
          "internalType": "contract INotificationReceiver",
          "name": "newIncentiveContract",
          "type": "address"
        }
      ],
      "name": "NotificationReceiverUpdate",
      "type": "event"
    },
    {
      "anonymous": false,
      "inputs": [
        {
          "indexed": true,
          "internalType": "address",
          "name": "newPendingOwner",
          "type": "address"
        }
      ],
      "name": "OwnershipPending",
      "type": "event"
    },
    {
      "anonymous": false,
      "inputs": [
        {
          "indexed": true,
          "internalType": "address",
          "name": "newOwner",
          "type": "address"
        }
      ],
      "name": "OwnershipTransferred",
      "type": "event"
    },
    {
      "anonymous": false,
      "inputs": [
        {
          "indexed": true,
          "internalType": "contract IPriceProvidersRepository",
          "name": "newProvider",
          "type": "address"
        }
      ],
      "name": "PriceProvidersRepositoryUpdate",
      "type": "event"
    },
    {
      "anonymous": false,
      "inputs": [
        {
          "indexed": true,
          "internalType": "address",
          "name": "factory",
          "type": "address"
        },
        {
          "indexed": false,
          "internalType": "uint128",
          "name": "siloLatestVersion",
          "type": "uint128"
        },
        {
          "indexed": false,
          "internalType": "uint128",
          "name": "siloDefaultVersion",
          "type": "uint128"
        }
      ],
      "name": "RegisterSiloVersion",
      "type": "event"
    },
    {
      "anonymous": false,
      "inputs": [
        {
          "indexed": true,
          "internalType": "address",
          "name": "newRouter",
          "type": "address"
        }
      ],
      "name": "RouterUpdate",
      "type": "event"
    },
    {
      "anonymous": false,
      "inputs": [
        {
          "indexed": false,
          "internalType": "uint128",
          "name": "newDefaultVersion",
          "type": "uint128"
        }
      ],
      "name": "SiloDefaultVersion",
      "type": "event"
    },
    {
      "anonymous": false,
      "inputs": [
        {
          "indexed": true,
          "internalType": "address",
          "name": "silo",
          "type": "address"
        },
        {
          "indexed": true,
          "internalType": "address",
          "name": "asset",
          "type": "address"
        },
        {
          "indexed": false,
          "internalType": "uint256",
          "name": "newMaxDeposits",
          "type": "uint256"
        }
      ],
      "name": "SiloMaxDepositsLimitsUpdate",
      "type": "event"
    },
    {
      "anonymous": false,
      "inputs": [
        {
          "indexed": false,
          "internalType": "address",
          "name": "silo",
          "type": "address"
        },
        {
          "indexed": false,
          "internalType": "address",
          "name": "asset",
          "type": "address"
        },
        {
          "indexed": false,
          "internalType": "bool",
          "name": "pauseValue",
          "type": "bool"
        }
      ],
      "name": "SiloPause",
      "type": "event"
    },
    {
      "anonymous": false,
      "inputs": [
        {
          "indexed": true,
          "internalType": "address",
          "name": "newTokensFactory",
          "type": "address"
        }
      ],
      "name": "TokensFactoryUpdate",
      "type": "event"
    },
    {
      "anonymous": false,
      "inputs": [
        {
          "indexed": true,
          "internalType": "address",
          "name": "factory",
          "type": "address"
        },
        {
          "indexed": false,
          "internalType": "uint128",
          "name": "siloVersion",
          "type": "uint128"
        }
      ],
      "name": "UnregisterSiloVersion",
      "type": "event"
    },
    {
      "anonymous": false,
      "inputs": [
        {
          "indexed": true,
          "internalType": "address",
          "name": "asset",
          "type": "address"
        },
        {
          "indexed": false,
          "internalType": "uint128",
          "name": "version",
          "type": "uint128"
        }
      ],
      "name": "VersionForAsset",
      "type": "event"
    },
    {
      "inputs": [],
      "name": "acceptOwnership",
      "outputs": [],
      "stateMutability": "nonpayable",
      "type": "function"
    },
    {
      "inputs": [
        {
          "internalType": "address",
          "name": "_newBridgeAsset",
          "type": "address"
        }
      ],
      "name": "addBridgeAsset",
      "outputs": [],
      "stateMutability": "nonpayable",
      "type": "function"
    },
    {
      "inputs": [
        {
          "internalType": "address",
          "name": "",
          "type": "address"
        },
        {
          "internalType": "address",
          "name": "",
          "type": "address"
        }
      ],
      "name": "assetConfigs",
      "outputs": [
        {
          "internalType": "uint64",
          "name": "maxLoanToValue",
          "type": "uint64"
        },
        {
          "internalType": "uint64",
          "name": "liquidationThreshold",
          "type": "uint64"
        },
        {
          "internalType": "contract IInterestRateModel",
          "name": "interestRateModel",
          "type": "address"
        }
      ],
      "stateMutability": "view",
      "type": "function"
    },
    {
      "inputs": [],
      "name": "bridgePool",
      "outputs": [
        {
          "internalType": "address",
          "name": "",
          "type": "address"
        }
      ],
      "stateMutability": "view",
      "type": "function"
    },
    {
      "inputs": [
        {
          "internalType": "address",
          "name": "_manager",
          "type": "address"
        }
      ],
      "name": "changeManager",
      "outputs": [],
      "stateMutability": "nonpayable",
      "type": "function"
    },
    {
      "inputs": [],
      "name": "defaultAssetConfig",
      "outputs": [
        {
          "internalType": "uint64",
          "name": "maxLoanToValue",
          "type": "uint64"
        },
        {
          "internalType": "uint64",
          "name": "liquidationThreshold",
          "type": "uint64"
        },
        {
          "internalType": "contract IInterestRateModel",
          "name": "interestRateModel",
          "type": "address"
        }
      ],
      "stateMutability": "view",
      "type": "function"
    },
    {
      "inputs": [
        {
          "internalType": "address",
          "name": "_asset",
          "type": "address"
        },
        {
          "internalType": "bool",
          "name": "_assetIsABridge",
          "type": "bool"
        }
      ],
      "name": "ensureCanCreateSiloFor",
      "outputs": [],
      "stateMutability": "view",
      "type": "function"
    },
    {
      "inputs": [],
      "name": "entryFee",
      "outputs": [
        {
          "internalType": "uint256",
          "name": "",
          "type": "uint256"
        }
      ],
      "stateMutability": "view",
      "type": "function"
    },
    {
      "inputs": [],
      "name": "fees",
      "outputs": [
        {
          "internalType": "uint64",
          "name": "entryFee",
          "type": "uint64"
        },
        {
          "internalType": "uint64",
          "name": "protocolShareFee",
          "type": "uint64"
        },
        {
          "internalType": "uint64",
          "name": "protocolLiquidationFee",
          "type": "uint64"
        }
      ],
      "stateMutability": "view",
      "type": "function"
    },
    {
      "inputs": [],
      "name": "getBridgeAssets",
      "outputs": [
        {
          "internalType": "address[]",
          "name": "",
          "type": "address[]"
        }
      ],
      "stateMutability": "view",
      "type": "function"
    },
    {
      "inputs": [
        {
          "internalType": "address",
          "name": "_silo",
          "type": "address"
        },
        {
          "internalType": "address",
          "name": "_asset",
          "type": "address"
        }
      ],
      "name": "getInterestRateModel",
      "outputs": [
        {
          "internalType": "contract IInterestRateModel",
          "name": "model",
          "type": "address"
        }
      ],
      "stateMutability": "view",
      "type": "function"
    },
    {
      "inputs": [
        {
          "internalType": "address",
          "name": "_silo",
          "type": "address"
        },
        {
          "internalType": "address",
          "name": "_asset",
          "type": "address"
        }
      ],
      "name": "getLiquidationThreshold",
      "outputs": [
        {
          "internalType": "uint256",
          "name": "",
          "type": "uint256"
        }
      ],
      "stateMutability": "view",
      "type": "function"
    },
    {
      "inputs": [
        {
          "internalType": "address",
          "name": "_silo",
          "type": "address"
        },
        {
          "internalType": "address",
          "name": "_asset",
          "type": "address"
        }
      ],
      "name": "getMaxSiloDepositsValue",
      "outputs": [
        {
          "internalType": "uint256",
          "name": "",
          "type": "uint256"
        }
      ],
      "stateMutability": "view",
      "type": "function"
    },
    {
      "inputs": [
        {
          "internalType": "address",
          "name": "_silo",
          "type": "address"
        },
        {
          "internalType": "address",
          "name": "_asset",
          "type": "address"
        }
      ],
      "name": "getMaximumLTV",
      "outputs": [
        {
          "internalType": "uint256",
          "name": "",
          "type": "uint256"
        }
      ],
      "stateMutability": "view",
      "type": "function"
    },
    {
      "inputs": [
        {
          "internalType": "address",
          "name": "",
          "type": "address"
        }
      ],
      "name": "getNotificationReceiver",
      "outputs": [
        {
          "internalType": "contract INotificationReceiver",
          "name": "",
          "type": "address"
        }
      ],
      "stateMutability": "view",
      "type": "function"
    },
    {
      "inputs": [],
      "name": "getRemovedBridgeAssets",
      "outputs": [
        {
          "internalType": "address[]",
          "name": "",
          "type": "address[]"
        }
      ],
      "stateMutability": "view",
      "type": "function"
    },
    {
      "inputs": [
        {
          "internalType": "address",
          "name": "",
          "type": "address"
        }
      ],
      "name": "getSilo",
      "outputs": [
        {
          "internalType": "address",
          "name": "",
          "type": "address"
        }
      ],
      "stateMutability": "view",
      "type": "function"
    },
    {
      "inputs": [
        {
          "internalType": "address",
          "name": "",
          "type": "address"
        }
      ],
      "name": "getVersionForAsset",
      "outputs": [
        {
          "internalType": "uint128",
          "name": "",
          "type": "uint128"
        }
      ],
      "stateMutability": "view",
      "type": "function"
    },
    {
      "inputs": [],
      "name": "isPaused",
      "outputs": [
        {
          "internalType": "bool",
          "name": "globalPause",
          "type": "bool"
        }
      ],
      "stateMutability": "view",
      "type": "function"
    },
    {
      "inputs": [
        {
          "internalType": "address",
          "name": "_silo",
          "type": "address"
        }
      ],
      "name": "isSilo",
      "outputs": [
        {
          "internalType": "bool",
          "name": "",
          "type": "bool"
        }
      ],
      "stateMutability": "view",
      "type": "function"
    },
    {
      "inputs": [
        {
          "internalType": "address",
          "name": "_silo",
          "type": "address"
        },
        {
          "internalType": "address",
          "name": "_asset",
          "type": "address"
        }
      ],
      "name": "isSiloPaused",
      "outputs": [
        {
          "internalType": "bool",
          "name": "",
          "type": "bool"
        }
      ],
      "stateMutability": "view",
      "type": "function"
    },
    {
      "inputs": [],
      "name": "manager",
      "outputs": [
        {
          "internalType": "address",
          "name": "",
          "type": "address"
        }
      ],
      "stateMutability": "view",
      "type": "function"
    },
    {
      "inputs": [],
      "name": "maxLiquidity",
      "outputs": [
        {
          "internalType": "bool",
          "name": "globalLimit",
          "type": "bool"
        },
        {
          "internalType": "uint256",
          "name": "defaultMaxLiquidity",
          "type": "uint256"
        }
      ],
      "stateMutability": "view",
      "type": "function"
    },
    {
      "inputs": [
        {
          "internalType": "address",
          "name": "_siloAsset",
          "type": "address"
        },
        {
          "internalType": "bytes",
          "name": "_siloData",
          "type": "bytes"
        }
      ],
      "name": "newSilo",
      "outputs": [
        {
          "internalType": "address",
          "name": "",
          "type": "address"
        }
      ],
      "stateMutability": "nonpayable",
      "type": "function"
    },
    {
      "inputs": [],
      "name": "owner",
      "outputs": [
        {
          "internalType": "address",
          "name": "",
          "type": "address"
        }
      ],
      "stateMutability": "view",
      "type": "function"
    },
    {
      "inputs": [],
      "name": "pendingOwner",
      "outputs": [
        {
          "internalType": "address",
          "name": "",
          "type": "address"
        }
      ],
      "stateMutability": "view",
      "type": "function"
    },
    {
      "inputs": [],
      "name": "priceProvidersRepository",
      "outputs": [
        {
          "internalType": "contract IPriceProvidersRepository",
          "name": "",
          "type": "address"
        }
      ],
      "stateMutability": "view",
      "type": "function"
    },
    {
      "inputs": [],
      "name": "protocolLiquidationFee",
      "outputs": [
        {
          "internalType": "uint256",
          "name": "",
          "type": "uint256"
        }
      ],
      "stateMutability": "view",
      "type": "function"
    },
    {
      "inputs": [],
      "name": "protocolShareFee",
      "outputs": [
        {
          "internalType": "uint256",
          "name": "",
          "type": "uint256"
        }
      ],
      "stateMutability": "view",
      "type": "function"
    },
    {
      "inputs": [
        {
          "internalType": "contract ISiloFactory",
          "name": "_factory",
          "type": "address"
        },
        {
          "internalType": "bool",
          "name": "_isDefault",
          "type": "bool"
        }
      ],
      "name": "registerSiloVersion",
      "outputs": [],
      "stateMutability": "nonpayable",
      "type": "function"
    },
    {
      "inputs": [
        {
          "internalType": "address",
          "name": "_bridgeAssetToRemove",
          "type": "address"
        }
      ],
      "name": "removeBridgeAsset",
      "outputs": [],
      "stateMutability": "nonpayable",
      "type": "function"
    },
    {
      "inputs": [],
      "name": "removePendingOwnership",
      "outputs": [],
      "stateMutability": "nonpayable",
      "type": "function"
    },
    {
      "inputs": [],
      "name": "renounceOwnership",
      "outputs": [],
      "stateMutability": "nonpayable",
      "type": "function"
    },
    {
      "inputs": [
        {
          "internalType": "address",
          "name": "_siloAsset",
          "type": "address"
        },
        {
          "internalType": "uint128",
          "name": "_siloVersion",
          "type": "uint128"
        },
        {
          "internalType": "bytes",
          "name": "_siloData",
          "type": "bytes"
        }
      ],
      "name": "replaceSilo",
      "outputs": [
        {
          "internalType": "address",
          "name": "",
          "type": "address"
        }
      ],
      "stateMutability": "nonpayable",
      "type": "function"
    },
    {
      "inputs": [],
      "name": "router",
      "outputs": [
        {
          "internalType": "address",
          "name": "",
          "type": "address"
        }
      ],
      "stateMutability": "view",
      "type": "function"
    },
    {
      "inputs": [
        {
          "internalType": "address",
          "name": "_silo",
          "type": "address"
        },
        {
          "internalType": "address",
          "name": "_asset",
          "type": "address"
        },
        {
          "components": [
            {
              "internalType": "uint64",
              "name": "maxLoanToValue",
              "type": "uint64"
            },
            {
              "internalType": "uint64",
              "name": "liquidationThreshold",
              "type": "uint64"
            },
            {
              "internalType": "contract IInterestRateModel",
              "name": "interestRateModel",
              "type": "address"
            }
          ],
          "internalType": "struct ISiloRepository.AssetConfig",
          "name": "_assetConfig",
          "type": "tuple"
        }
      ],
      "name": "setAssetConfig",
      "outputs": [],
      "stateMutability": "nonpayable",
      "type": "function"
    },
    {
      "inputs": [
        {
          "internalType": "contract IInterestRateModel",
          "name": "_defaultInterestRateModel",
          "type": "address"
        }
      ],
      "name": "setDefaultInterestRateModel",
      "outputs": [],
      "stateMutability": "nonpayable",
      "type": "function"
    },
    {
      "inputs": [
        {
          "internalType": "uint64",
          "name": "_defaultLiquidationThreshold",
          "type": "uint64"
        }
      ],
      "name": "setDefaultLiquidationThreshold",
      "outputs": [],
      "stateMutability": "nonpayable",
      "type": "function"
    },
    {
      "inputs": [
        {
          "internalType": "uint64",
          "name": "_defaultMaxLTV",
          "type": "uint64"
        }
      ],
      "name": "setDefaultMaximumLTV",
      "outputs": [],
      "stateMutability": "nonpayable",
      "type": "function"
    },
    {
      "inputs": [
        {
          "internalType": "uint256",
          "name": "_maxDeposits",
          "type": "uint256"
        }
      ],
      "name": "setDefaultSiloMaxDepositsLimit",
      "outputs": [],
      "stateMutability": "nonpayable",
      "type": "function"
    },
    {
      "inputs": [
        {
          "internalType": "uint128",
          "name": "_defaultVersion",
          "type": "uint128"
        }
      ],
      "name": "setDefaultSiloVersion",
      "outputs": [],
      "stateMutability": "nonpayable",
      "type": "function"
    },
    {
      "inputs": [
        {
          "components": [
            {
              "internalType": "uint64",
              "name": "entryFee",
              "type": "uint64"
            },
            {
              "internalType": "uint64",
              "name": "protocolShareFee",
              "type": "uint64"
            },
            {
              "internalType": "uint64",
              "name": "protocolLiquidationFee",
              "type": "uint64"
            }
          ],
          "internalType": "struct ISiloRepository.Fees",
          "name": "_fees",
          "type": "tuple"
        }
      ],
      "name": "setFees",
      "outputs": [],
      "stateMutability": "nonpayable",
      "type": "function"
    },
    {
      "inputs": [
        {
          "internalType": "bool",
          "name": "_globalPause",
          "type": "bool"
        }
      ],
      "name": "setGlobalPause",
      "outputs": [],
      "stateMutability": "nonpayable",
      "type": "function"
    },
    {
      "inputs": [
        {
          "internalType": "bool",
          "name": "_globalLimit",
          "type": "bool"
        }
      ],
      "name": "setLimitedMaxLiquidity",
      "outputs": [],
      "stateMutability": "nonpayable",
      "type": "function"
    },
    {
      "inputs": [
        {
          "internalType": "address",
          "name": "_silo",
          "type": "address"
        },
        {
          "internalType": "contract INotificationReceiver",
          "name": "_newNotificationReceiver",
          "type": "address"
        }
      ],
      "name": "setNotificationReceiver",
      "outputs": [],
      "stateMutability": "nonpayable",
      "type": "function"
    },
    {
      "inputs": [
        {
          "internalType": "contract IPriceProvidersRepository",
          "name": "_repository",
          "type": "address"
        }
      ],
      "name": "setPriceProvidersRepository",
      "outputs": [],
      "stateMutability": "nonpayable",
      "type": "function"
    },
    {
      "inputs": [
        {
          "internalType": "address",
          "name": "_router",
          "type": "address"
        }
      ],
      "name": "setRouter",
      "outputs": [],
      "stateMutability": "nonpayable",
      "type": "function"
    },
    {
      "inputs": [
        {
          "internalType": "address",
          "name": "_silo",
          "type": "address"
        },
        {
          "internalType": "address",
          "name": "_asset",
          "type": "address"
        },
        {
          "internalType": "uint256",
          "name": "_maxDeposits",
          "type": "uint256"
        }
      ],
      "name": "setSiloMaxDepositsLimit",
      "outputs": [],
      "stateMutability": "nonpayable",
      "type": "function"
    },
    {
      "inputs": [
        {
          "internalType": "address",
          "name": "_silo",
          "type": "address"
        },
        {
          "internalType": "address",
          "name": "_asset",
          "type": "address"
        },
        {
          "internalType": "bool",
          "name": "_pauseValue",
          "type": "bool"
        }
      ],
      "name": "setSiloPause",
      "outputs": [],
      "stateMutability": "nonpayable",
      "type": "function"
    },
    {
      "inputs": [
        {
          "internalType": "address",
          "name": "_tokensFactory",
          "type": "address"
        }
      ],
      "name": "setTokensFactory",
      "outputs": [],
      "stateMutability": "nonpayable",
      "type": "function"
    },
    {
      "inputs": [
        {
          "internalType": "address",
          "name": "_siloAsset",
          "type": "address"
        },
        {
          "internalType": "uint128",
          "name": "_version",
          "type": "uint128"
        }
      ],
      "name": "setVersionForAsset",
      "outputs": [],
      "stateMutability": "nonpayable",
      "type": "function"
    },
    {
      "inputs": [
        {
          "internalType": "uint256",
          "name": "",
          "type": "uint256"
        }
      ],
      "name": "siloFactory",
      "outputs": [
        {
          "internalType": "contract ISiloFactory",
          "name": "",
          "type": "address"
        }
      ],
      "stateMutability": "view",
      "type": "function"
    },
    {
      "inputs": [],
      "name": "siloRepositoryPing",
      "outputs": [
        {
          "internalType": "bytes4",
          "name": "",
          "type": "bytes4"
        }
      ],
      "stateMutability": "pure",
      "type": "function"
    },
    {
      "inputs": [
        {
          "internalType": "address",
          "name": "",
          "type": "address"
        }
      ],
      "name": "siloReverse",
      "outputs": [
        {
          "internalType": "address",
          "name": "",
          "type": "address"
        }
      ],
      "stateMutability": "view",
      "type": "function"
    },
    {
      "inputs": [],
      "name": "siloVersion",
      "outputs": [
        {
          "internalType": "uint128",
          "name": "byDefault",
          "type": "uint128"
        },
        {
          "internalType": "uint128",
          "name": "latest",
          "type": "uint128"
        }
      ],
      "stateMutability": "view",
      "type": "function"
    },
    {
      "inputs": [],
      "name": "tokensFactory",
      "outputs": [
        {
          "internalType": "contract ITokensFactory",
          "name": "",
          "type": "address"
        }
      ],
      "stateMutability": "view",
      "type": "function"
    },
    {
      "inputs": [
        {
          "internalType": "address",
          "name": "newOwner",
          "type": "address"
        }
      ],
      "name": "transferOwnership",
      "outputs": [],
      "stateMutability": "nonpayable",
      "type": "function"
    },
    {
      "inputs": [
        {
          "internalType": "address",
          "name": "newPendingOwner",
          "type": "address"
        }
      ],
      "name": "transferPendingOwnership",
      "outputs": [],
      "stateMutability": "nonpayable",
      "type": "function"
    },
    {
      "inputs": [
        {
          "internalType": "uint128",
          "name": "_siloVersion",
          "type": "uint128"
        }
      ],
      "name": "unregisterSiloVersion",
      "outputs": [],
      "stateMutability": "nonpayable",
      "type": "function"
    }
  ],
  "transactionHash": "0xbfe36ddc1b21d3e5c7ca4b541a8e76ab9f6937361cd09b3cf3a8c940172c8bd7",
  "args": [
    "0x4166487056A922D784b073d4d928a516B074b719",
    "0xE067b967A36A136084Eb9DF0149Dde64F01ea7d1",
    "500000000000000000",
    "600000000000000000",
    [
      "0x82aF49447D8a07e3bd95BD0d56f35241523fBab1",
      "0xFF970A61A04b1cA14834A43f5dE4533eBDDB5CC8"
    ]
  ],
  "numDeployments": 1,
  "solcInputHash": "7d6be109365bbf8239d045b1436b7bc6",
  "bytecode": "0x60806040523480156200001157600080fd5b50604051620041f8380380620041f8833981016040819052620000349162000887565b33620000408162000495565b6001600160a01b0381166200006857604051639c774ebf60e01b815260040160405180910390fd5b600280546001600160a01b0319166001600160a01b03929092169190911790556003805460ff19166001179055680d8d726b7177a800006004556001600160401b03838116908316670de0b6b3a76400008110620000d85760405162f9474b60e61b815260040160405180910390fd5b811580620000e65750808210155b156200010557604051632f2a24a960e11b815260040160405180910390fd5b62000129876001600160a01b0316635a0c4de46200055260201b620028af1760201c565b6200014757604051637b64d2bb60e11b815260040160405180910390fd5b6200016b866001600160a01b0316636849100f6200055260201b620028af1760201c565b6200018957604051630307663d60e61b815260040160405180910390fd5b8251600003620001ac57604051631398613b60e31b815260040160405180910390fd5b6040516296777d60e31b81523060048201526001600160a01b038816906304b3bbe890602401600060405180830381600087803b158015620001ed57600080fd5b505af115801562000202573d6000803e3d6000fd5b50506040516296777d60e31b81523060048201526001600160a01b03891692506304b3bbe89150602401600060405180830381600087803b1580156200024757600080fd5b505af11580156200025c573d6000803e3d6000fd5b5050505060005b83518110156200033f576200029f848281518110620002865762000286620009a7565b6020026020010151620005de60201b620029351760201c565b50620002d7848281518110620002b957620002b9620009a7565b602002602001015160166200065560201b620029a21790919060201c565b50838181518110620002ed57620002ed620009a7565b60200260200101516001600160a01b03167fda0511750b81a254e0b084c2c863785e3d1c5b2b989afd8ac0e884f8ee2e033c60405160405180910390a2806200033681620009bd565b91505062000263565b50700100000000000000000000000000000001600f5560016000819052601260209081527f71a67924699a20698523213e55fe499d539379d7769cd5567e2c45d583f815a380546001600160a01b0319166001600160a01b038b169081179091556040805184815292830193909352917f3878761190f637385b15245770921955dbd3f3652f86d6bdfcb0a6afe81db04f910160405180910390a2604051600181527f723c9edacabd261ad9586f194e9d5409ac4b22c939d90a8db99556690018bfe09060200160405180910390a1600b80546001600160a01b0319166001600160a01b0388169081179091556040517f2cf3169753956d21755ee0c43a6802b18cb71131bae8405d5a0b97e919e4ad2990600090a25050600880546001600160401b0393841668010000000000000000026001600160801b031990911693909416929092179290921790555062000a7b915050565b6000546001600160a01b03808316911603620004ec5760405162461bcd60e51b81526020600482015260116024820152704f776e65724469644e6f744368616e676560781b60448201526064015b60405180910390fd5b600080546001600160a01b0319166001600160a01b038316908117825560405190917f04dba622d284ed0014ee4b9a6a68386be1a4c08a4913ae272de89199cc68616391a26001546001600160a01b0316156200054f576200054f60006200066c565b50565b60006001600160a01b03831615801590620005d5575082826040518163ffffffff1660e01b8152600401602060405180830381865afa1580156200059a573d6000803e3d6000fd5b505050506040513d601f19601f82011682018060405250810190620005c09190620009e5565b60e083901b6001600160e01b03199081169116145b90505b92915050565b6040805160048152602481019091526020810180516001600160e01b0390811663313ce56760e01b179091526000918291829162000620918691906200071516565b915091508162000634575060009392505050565b808060200190518101906200064a919062000a18565b60ff16949350505050565b6000620005d5836001600160a01b038416620007e4565b6001546001600160a01b03808316911603620006cb5760405162461bcd60e51b815260206004820152601860248201527f50656e64696e674f776e65724469644e6f744368616e676500000000000000006044820152606401620004e3565b600180546001600160a01b0319166001600160a01b0383169081179091556040517fd6aad444c90d39fb0eee1c6e357a7fad83d63f719ac5f880445a2beb0ff3ab5890600090a250565b600060606200072f846200083660201b620029b71760201c565b6200074d576040516373d39f9d60e01b815260040160405180910390fd5b600080856001600160a01b0316856040516200076a919062000a3d565b600060405180830381855afa9150503d8060008114620007a7576040519150601f19603f3d011682016040523d82523d6000602084013e620007ac565b606091505b509150915081620007d557600060405180602001604052806000815250935093505050620007dd565b600193509150505b9250929050565b60008181526001830160205260408120546200082d57508154600181810184556000848152602080822090930184905584548482528286019093526040902091909155620005d8565b506000620005d8565b3b151590565b80516001600160a01b03811681146200085457600080fd5b919050565b80516001600160401b03811681146200085457600080fd5b634e487b7160e01b600052604160045260246000fd5b600080600080600060a08688031215620008a057600080fd5b620008ab866200083c565b94506020620008bc8188016200083c565b9450620008cc6040880162000859565b9350620008dc6060880162000859565b60808801519093506001600160401b0380821115620008fa57600080fd5b818901915089601f8301126200090f57600080fd5b81518181111562000924576200092462000871565b8060051b604051601f19603f830116810181811085821117156200094c576200094c62000871565b60405291825284820192508381018501918c8311156200096b57600080fd5b938501935b82851015620009945762000984856200083c565b8452938501939285019262000970565b8096505050505050509295509295909350565b634e487b7160e01b600052603260045260246000fd5b600060018201620009de57634e487b7160e01b600052601160045260246000fd5b5060010190565b600060208284031215620009f857600080fd5b81516001600160e01b03198116811462000a1157600080fd5b9392505050565b60006020828403121562000a2b57600080fd5b815160ff8116811462000a1157600080fd5b6000825160005b8181101562000a60576020818601810151858301520162000a44565b8181111562000a70576000828501525b509190910192915050565b61376d8062000a8b6000396000f3fe608060405234801561001057600080fd5b50600436106103995760003560e01c80636645fd67116101e9578063c2fa74941161010f578063ed4c8bb3116100ad578063f2fde38b1161007c578063f2fde38b14610966578063f45f268214610979578063f887ea401461098c578063fa2a06391461099f57600080fd5b8063ed4c8bb3146108fa578063ed9407401461090d578063ee306a3414610920578063f297692a1461092857600080fd5b8063cc1fdf16116100e9578063cc1fdf16146108a9578063e30c3978146108bc578063e99ed41d146108cd578063eafecffa146108e257600080fd5b8063c2fa749414610870578063c552b7e014610883578063c96fad281461089657600080fd5b806379ba509711610187578063b187bd2611610156578063b187bd261461082a578063b310db2214610837578063ba0d69d31461084a578063c0d786551461085d57600080fd5b806379ba5097146107ab5780638da5cb5b146107b35780639af1d35a146107c4578063a3fbbaae1461081757600080fd5b80636a082764116101c35780636a0827641461073f57806370c0345c14610752578063715018a61461077a578063791183d11461078257600080fd5b80636645fd6714610706578063685f628a1461071957806369a6b3db1461072c57600080fd5b8063296041ea116102ce578063481c6a751161026c57806356fecf1a1161023b57806356fecf1a146106ba5780635ddf2be3146106cd5780635e46bea5146106e05780635f37af9e146106f357600080fd5b8063481c6a751461067057806348b3eabc146106815780634fbc58951461069457806355a2cc71146106a757600080fd5b806332936c44116102a857806332936c4414610619578063342d68c61461062c57806344552b5d1461065557806344cf3e931461065d57600080fd5b8063296041ea146105de5780632cd5f317146105f35780633278c6941461060657600080fd5b806315c3c2d11161033b57806319afb8981161031557806319afb8981461055f5780631b3665331461057257806325ed3d441461058557806327d434161461059d57600080fd5b806315c3c2d1146105105780631893ea141461052357806318b461721461053657600080fd5b806307e930331161037757806307e93033146104525780630b9290581461049357806312d04a42146104bf57806312f0dcd8146104d257600080fd5b806301d6b8131461039e57806304ab688414610422578063072ea61c14610437575b600080fd5b6103ee6103ac366004612fd8565b6015602090815260009283526040808420909152908252902080546001909101546001600160401b0380831692600160401b900416906001600160a01b031683565b604080516001600160401b0394851681529390921660208401526001600160a01b0316908201526060015b60405180910390f35b610435610430366004613026565b6109b2565b005b600a546001600160401b03165b604051908152602001610419565b61047b610460366004613043565b6012602052600090815260409020546001600160a01b031681565b6040516001600160a01b039091168152602001610419565b6008546009546103ee916001600160401b0380821692600160401b90920416906001600160a01b031683565b6104446104cd366004612fd8565b610ae3565b6105006104e036600461305c565b6001600160a01b0390811660009081526014602052604090205416151590565b6040519015158152602001610419565b61043561051e36600461305c565b610b39565b610435610531366004612fd8565b610c2a565b61047b61054436600461305c565b6013602052600090815260409020546001600160a01b031681565b61043561056d36600461305c565b610d36565b610435610580366004613087565b610f47565b600a54600160401b90046001600160401b0316610444565b6105c66105ab36600461305c565b6010602052600090815260409020546001600160801b031681565b6040516001600160801b039091168152602001610419565b6105e6611034565b60405161041991906130d2565b61043561060136600461305c565b611045565b61043561061436600461305c565b611261565b610444610627366004612fd8565b6112a3565b61047b61063a36600461305c565b6011602052600090815260409020546001600160a01b031681565b610435611303565b61050061066b366004612fd8565b611348565b6002546001600160a01b031661047b565b61047b61068f366004612fd8565b6113b6565b6104356106a236600461311f565b6113f8565b6104356106b536600461314d565b61158e565b6104356106c8366004613043565b611631565b600c5461047b906001600160a01b031681565b600e5461047b906001600160a01b031681565b61047b610701366004613228565b6116b4565b61043561071436600461311f565b611747565b61043561072736600461305c565b6117de565b61043561073a36600461314d565b6118cf565b61043561074d366004613287565b611966565b6003546004546107639160ff169082565b604080519215158352602083019190915201610419565b610435611a3c565b61047b61079036600461305c565b6014602052600090815260409020546001600160a01b031681565b610435611a7f565b6000546001600160a01b031661047b565b600a546107ed906001600160401b0380821691600160401b8104821691600160801b9091041683565b604080516001600160401b0394851681529284166020840152921691810191909152606001610419565b61043561082536600461305c565b611ae6565b6006546105009060ff1681565b6104356108453660046132a2565b611bce565b6104356108583660046132ef565b611d20565b61043561086b36600461305c565b612069565b61044461087e366004612fd8565b61215a565b610435610891366004613337565b6121ac565b6104356108a4366004613287565b612409565b600b5461047b906001600160a01b031681565b6001546001600160a01b031661047b565b60405163e99ed41d60e01b8152602001610419565b600a54600160801b90046001600160401b0316610444565b61043561090836600461305c565b61250b565b61043561091b366004613026565b6125ce565b6105e66126fa565b600f54610946906001600160801b0380821691600160801b90041682565b604080516001600160801b03938416815292909116602083015201610419565b61043561097436600461305c565b612706565b61047b610987366004613353565b61278c565b600d5461047b906001600160a01b031681565b6104356109ad3660046133a2565b6127dd565b6008546001600160401b0380831691600160401b900416670de0b6b3a764000081106109f05760405162f9474b60e61b815260040160405180910390fd5b8115806109fd5750808210155b15610a1b57604051632f2a24a960e11b815260040160405180910390fd5b33610a2e6000546001600160a01b031690565b6001600160a01b031614610a5d5760405162461bcd60e51b8152600401610a54906133e3565b60405180910390fd5b6008546001600160401b03808516911603610a8b57604051634b8bb4c160e01b815260040160405180910390fd5b6008805467ffffffffffffffff19166001600160401b0385169081179091556040519081527ff24256d9766456ecc09aacd623be7d6c4aea837de6d33aa190f39b6dfc9f58ce906020015b60405180910390a1505050565b60035460009060ff1615610b2e576001600160a01b038084166000908152600560209081526040808320938616835292905220548015610b24579050610b33565b5050600454610b33565b506000195b92915050565b33610b4c6000546001600160a01b031690565b6001600160a01b031614610b725760405162461bcd60e51b8152600401610a54906133e3565b610b89816001600160a01b031663eec3e6a76128af565b610ba65760405163057faf4d60e31b815260040160405180910390fd5b600c546001600160a01b03808316911603610bd457604051633ef9374960e01b815260040160405180910390fd5b6040516001600160a01b038216907f62277ad8137ec819c909a28dd0b1fe8f7facf9fe4f4596f71c35fb1179de751c90600090a2600c80546001600160a01b0319166001600160a01b0392909216919091179055565b33610c3d6000546001600160a01b031690565b6001600160a01b031614610c635760405162461bcd60e51b8152600401610a54906133e3565b610c7a816001600160a01b03166311279b4a6128af565b610c975760405163ee60b28160e01b815260040160405180910390fd5b6001600160a01b03828116600090815260116020526040902054818316911603610cd457604051635099b97f60e01b815260040160405180910390fd5b6040516001600160a01b038216907f8ac70028cbcdf11017e87b22003359f7577da04d0880c74ae3289a9029bef6a990600090a26001600160a01b03918216600090815260116020526040902080546001600160a01b03191691909216179055565b33610d496000546001600160a01b031690565b6001600160a01b031614610d6f5760405162461bcd60e51b8152600401610a54906133e3565b6001600160a01b038116610d9657604051631e84cbc160e31b815260040160405180910390fd5b610da060166129bd565b600103610dc05760405163437f484960e01b815260040160405180910390fd5b610dcb6016826129c7565b610de8576040516343e7dd2f60e01b815260040160405180910390fd5b610df36018826129a2565b506040516001600160a01b038216907f780c06b06ab07a0d47596bc3082bbd3f7ecc1907ff035c3ea0e2a1602876a52b90600090a26001600160a01b03808216600090815260136020526040902054168015610edb57806001600160a01b031663a388991b6040518163ffffffff1660e01b8152600401600060405180830381600087803b158015610e8457600080fd5b505af1158015610e98573d6000803e3d6000fd5b5050600e80546001600160a01b031916905550506040516000907f41df3a85176fe451d19027e7b43ecc444bc299ef0d82c2b3874fbc7441d62884908290a25050565b600e546001600160a01b03168015610f4157806001600160a01b031663a388991b6040518163ffffffff1660e01b8152600401600060405180830381600087803b158015610f2857600080fd5b505af1158015610f3c573d6000803e3d6000fd5b505050505b50505b50565b6002546001600160a01b03163314610f725760405163605919ad60e11b815260040160405180910390fd5b6001600160a01b0380841660009081526007602090815260408083209386168352929052205481151560ff909116151503610fc05760405163715c41ad60e01b815260040160405180910390fd5b6001600160a01b03838116600081815260076020908152604080832094871680845294825291829020805460ff19168615159081179091558251938452908301939093528101919091527f25679bcc320e874c367bc177e782eec47457781ade29259bcea7c3f1fd5c3ef590606001610ad6565b606061104060186129dc565b905090565b336110586000546001600160a01b031690565b6001600160a01b03161461107e5760405162461bcd60e51b8152600401610a54906133e3565b600c546040516350ebbcc160e01b81526001600160a01b038381166004830152909116906350ebbcc190602401602060405180830381865afa1580156110c8573d6000803e3d6000fd5b505050506040513d601f19601f820116820180604052508101906110ec9190613406565b61110957604051630241d97f60e11b815260040160405180910390fd5b61111281612935565b5061111e6016826129a2565b61113b57604051635ed2680160e01b815260040160405180910390fd5b6111466018826129c7565b506040516001600160a01b038216907fda0511750b81a254e0b084c2c863785e3d1c5b2b989afd8ac0e884f8ee2e033c90600090a26001600160a01b03808216600090815260136020526040902054600e5490821691168115611217576001600160a01b038116156111cb57604051631e0b881960e31b815260040160405180910390fd5b50600e80546001600160a01b0319166001600160a01b0383169081179091556040518291907f41df3a85176fe451d19027e7b43ecc444bc299ef0d82c2b3874fbc7441d6288490600090a25b6001600160a01b03811615610f4157806001600160a01b031663a388991b6040518163ffffffff1660e01b8152600401600060405180830381600087803b158015610f2857600080fd5b336112746000546001600160a01b031690565b6001600160a01b03161461129a5760405162461bcd60e51b8152600401610a54906133e3565b610f44816129e9565b6001600160a01b038281166000908152601560209081526040808320938516835292905290812054600160401b90046001600160401b031680156112e8579050610b33565b5050600854600160401b90046001600160401b031692915050565b336113166000546001600160a01b031690565b6001600160a01b03161461133c5760405162461bcd60e51b8152600401610a54906133e3565b61134660006129e9565b565b60065460009060ff168061137f57506001600160a01b038316600090815260076020908152604080832083805290915290205460ff165b806113af57506001600160a01b0380841660009081526007602090815260408083209386168352929052205460ff165b9392505050565b6001600160a01b03808316600090815260156020908152604080832085851684529091529020600101541680610b3357506009546001600160a01b0316610b33565b3361140b6000546001600160a01b031690565b6001600160a01b0316146114315760405162461bcd60e51b8152600401610a54906133e3565b611448826001600160a01b0316635a0c4de46128af565b61146557604051637b64d2bb60e11b815260040160405180910390fd5b60408051808201909152600f546001600160801b038082168352600160801b909104166020820181815260019161149d908390613439565b6001600160801b0390811690915260208381018051831660009081526012835260409081902080546001600160a01b0319166001600160a01b038a1690811790915591518651825191861682529094169284019290925292507f3878761190f637385b15245770921955dbd3f3652f86d6bdfcb0a6afe81db04f910160405180910390a2811561156b576020818101516001600160801b03168083526040519081527f723c9edacabd261ad9586f194e9d5409ac4b22c939d90a8db99556690018bfe0910160405180910390a15b80516020909101516001600160801b03908116600160801b02911617600f555050565b6002546001600160a01b031633146115b95760405163605919ad60e11b815260040160405180910390fd5b60035481151560ff9091161515036115e45760405163c65b3d2960e01b815260040160405180910390fd5b6003805460ff191682151590811790915560405160ff909116151581527eace7bfa8dc4895fea42b63dd0304a5b26ee0982b8d764257b6b106b11a4541906020015b60405180910390a150565b6002546001600160a01b0316331461165c5760405163605919ad60e11b815260040160405180910390fd5b60045481900361167f57604051633225cebb60e01b815260040160405180910390fd5b60048190556040518181527f5b71e2324e73b2492a36b7c5f86de1bd745d891c29c3fa39e1ed97960a259eb390602001611626565b6000336116c96000546001600160a01b031690565b6001600160a01b0316146116ef5760405162461bcd60e51b8152600401610a54906133e3565b6001600160a01b0380851660009081526013602052604090205416806117285760405163ccacf28760e01b815260040160405180910390fd5b61173e8585611738601683612a90565b86612ab2565b95945050505050565b6001600160a01b03828116600090815260136020526040902054161561178057604051630907ddeb60e41b815260040160405180910390fd5b80156117da57600e546001600160a01b0316156117b057604051631e0b881960e31b815260040160405180910390fd5b6117ba60166129bd565b6001036117da57604051635dc8364160e11b815260040160405180910390fd5b5050565b336117f16000546001600160a01b031690565b6001600160a01b0316146118175760405162461bcd60e51b8152600401610a54906133e3565b61182e816001600160a01b031663c42401f16128af565b61184b5760405163ee39b72560e01b815260040160405180910390fd5b6009546001600160a01b0380831691160361187957604051630465d63560e01b815260040160405180910390fd5b6040516001600160a01b038216907fd196f9719fb4ff43e12fe6d14f3ab40fa45e350b24e2626b9504d055600f0c0790600090a2600980546001600160a01b0319166001600160a01b0392909216919091179055565b6002546001600160a01b031633146118fa5760405163605919ad60e11b815260040160405180910390fd5b60065481151560ff90911615150361192557604051634ad6576f60e01b815260040160405180910390fd5b6006805460ff19168215159081179091556040519081527fa5fea31b6dbd7aec6098ca4653b1d51af1ef786fcb19031c4c4e55b675535f1e90602001611626565b336119796000546001600160a01b031690565b6001600160a01b03161461199f5760405162461bcd60e51b8152600401610a54906133e3565b6001600160801b0381166000908152601260205260409020546001600160a01b03166119de57604051630d15fae960e01b815260040160405180910390fd5b6040516001600160801b03821681527f723c9edacabd261ad9586f194e9d5409ac4b22c939d90a8db99556690018bfe09060200160405180910390a1600f80546001600160801b0319166001600160801b0392909216919091179055565b33611a4f6000546001600160a01b031690565b6001600160a01b031614611a755760405162461bcd60e51b8152600401610a54906133e3565b6113466000612cc0565b6001546001600160a01b03163314611acc5760405162461bcd60e51b815260206004820152601060248201526f27b7363ca832b73234b733a7bbb732b960811b6044820152606401610a54565b611346611ae16001546001600160a01b031690565b612cc0565b6000546001600160a01b03163314801590611b0c57506002546001600160a01b03163314155b15611b2a5760405163b647320d60e01b815260040160405180910390fd5b6001600160a01b038116611b5157604051639c774ebf60e01b815260040160405180910390fd5b6002546001600160a01b0390811690821603611b8057604051632ebe652b60e21b815260040160405180910390fd5b600280546001600160a01b0319166001600160a01b0383169081179091556040519081527f198db6e425fb8aafd1823c6ca50be2d51e5764571a5ae0f0f21c6812e45def0b90602001611626565b33611be16000546001600160a01b031690565b6001600160a01b031614611c075760405162461bcd60e51b8152600401610a54906133e3565b6001600160a01b0382166000908152601060205260409020546001600160801b03808316911603611c4b5760405163f55015b160e01b815260040160405180910390fd5b6001600160801b03811615801590611c8257506001600160801b0381166000908152601260205260409020546001600160a01b0316155b15611ca057604051634eb171af60e01b815260040160405180910390fd5b6040516001600160801b03821681526001600160a01b038316907fb958cbba2ceb00710b20b9f7b874ecdef41b643e87f3ad9affe0d7739d6c919a9060200160405180910390a26001600160a01b0391909116600090815260106020526040902080546001600160801b0319166001600160801b03909216919091179055565b611d2d6020820182613026565b6001600160401b0316611d466040830160208401613026565b6001600160401b0316670de0b6b3a76400008110611d765760405162f9474b60e61b815260040160405180910390fd5b811580611d835750808210155b15611da157604051632f2a24a960e11b815260040160405180910390fd5b33611db46000546001600160a01b031690565b6001600160a01b031614611dda5760405162461bcd60e51b8152600401610a54906133e3565b6001600160a01b038516611e015760405163dfb94ea560e01b815260040160405180910390fd5b6001600160a01b038416611e285760405163281a22f360e11b815260040160405180910390fd5b611e4e611e3b606085016040860161305c565b6001600160a01b031663c42401f16128af565b1580611ec85750611e65606084016040850161305c565b6001600160a01b0316636bcc82166040518163ffffffff1660e01b8152600401602060405180830381865afa158015611ea2573d6000803e3d6000fd5b505050506040513d601f19601f82011682018060405250810190611ec69190613464565b155b15611ee65760405163ee39b72560e01b815260040160405180910390fd5b6001600160a01b0380861660009081526015602090815260408083208885168452825291829020825160608101845281546001600160401b038082168352600160401b909104168184015260019091015490931691830191909152611f4d90850185613026565b6001600160401b031681600001516001600160401b0316148015611f955750611f7c6040850160208601613026565b6001600160401b031681602001516001600160401b0316145b8015611fc55750611fac606085016040860161305c565b6001600160a01b031681604001516001600160a01b0316145b15611fe35760405163f485675760e01b815260040160405180910390fd5b846001600160a01b0316866001600160a01b03167fa7e777b5635c66f73eb783f9073900f9ca2dd898e30bc77f81644f1c78aa0dd386604051612026919061347d565b60405180910390a36001600160a01b038087166000908152601560209081526040808320938916835292905220849061205f82826134d4565b5050505050505050565b3361207c6000546001600160a01b031690565b6001600160a01b0316146120a25760405162461bcd60e51b8152600401610a54906133e3565b6120b9816001600160a01b03166325d5bf4e6128af565b6120d657604051632425ecd160e21b815260040160405180910390fd5b600d546001600160a01b0380831691160361210457604051630cdb36f960e41b815260040160405180910390fd5b6040516001600160a01b038216907f66ce7706404042811db82deac21b76e6488aa6e912fd7d57b4cfa3c5a75587ab90600090a2600d80546001600160a01b0319166001600160a01b0392909216919091179055565b6001600160a01b0380831660009081526015602090815260408083209385168352929052908120546001600160401b03168015612198579050610b33565b50506008546001600160401b031692915050565b336121bf6000546001600160a01b031690565b6001600160a01b0316146121e55760405162461bcd60e51b8152600401610a54906133e3565b670de0b6b3a76400006121fb6020830183613026565b6001600160401b03161061222257604051636fe6a4c960e01b815260040160405180910390fd5b670de0b6b3a764000061223b6040830160208401613026565b6001600160401b031610612262576040516361902cb560e01b815260040160405180910390fd5b670de0b6b3a764000061227b6060830160408401613026565b6001600160401b0316106122a2576040516379e1ef2960e01b815260040160405180910390fd5b60408051606081018252600a546001600160401b03808216808452600160401b83048216602080860191909152600160801b909304909116938301939093529091906122f090840184613026565b6001600160401b031614801561232d575080602001516001600160401b03168260200160208101906123229190613026565b6001600160401b0316145b8015612360575080604001516001600160401b03168260400160208101906123559190613026565b6001600160401b0316145b1561237e576040516353c81ab960e11b815260040160405180910390fd5b7f0bb1069a7e7f20128a7b5ab748a6b3da407eacd702a47c82dad3d75c31ac1c496123ac6020840184613026565b6123bc6040850160208601613026565b6123cc6060860160408701613026565b604080516001600160401b039485168152928416602084015292168183015290519081900360600190a181600a612403828261355f565b50505050565b3361241c6000546001600160a01b031690565b6001600160a01b0316146124425760405162461bcd60e51b8152600401610a54906133e3565b6001600160801b0381166000908152601260205260409020546001600160a01b031680158061247e5750600f546001600160801b038381169116145b1561249c57604051634eb171af60e01b815260040160405180910390fd5b6040516001600160801b03831681526001600160a01b038216907f8bc0514e0cb2bd11d5786d5c8f856fb52056d319fc42c4a895807965a4f7791c9060200160405180910390a2506001600160801b0316600090815260126020526040902080546001600160a01b0319169055565b3361251e6000546001600160a01b031690565b6001600160a01b0316146125445760405162461bcd60e51b8152600401610a54906133e3565b61255b816001600160a01b0316636849100f6128af565b61257857604051630307663d60e61b815260040160405180910390fd5b6040516001600160a01b038216907f2cf3169753956d21755ee0c43a6802b18cb71131bae8405d5a0b97e919e4ad2990600090a2600b80546001600160a01b0319166001600160a01b0392909216919091179055565b6008546001600160401b03908116908216670de0b6b3a764000081106126065760405162f9474b60e61b815260040160405180910390fd5b8115806126135750808210155b1561263157604051632f2a24a960e11b815260040160405180910390fd5b336126446000546001600160a01b031690565b6001600160a01b03161461266a5760405162461bcd60e51b8152600401610a54906133e3565b6008546001600160401b03808516600160401b909204160361269f5760405163d5e8e5fb60e01b815260040160405180910390fd5b6008805467ffffffffffffffff60401b1916600160401b6001600160401b038616908102919091179091556040519081527f421dd56981f3a94f01459e7d9bc4cd85e070e7258f83a9622e5b09e40c4d20ee90602001610ad6565b606061104060166129dc565b336127196000546001600160a01b031690565b6001600160a01b03161461273f5760405162461bcd60e51b8152600401610a54906133e3565b6001600160a01b0381166127835760405162461bcd60e51b815260206004820152600b60248201526a4f776e657249735a65726f60a81b6044820152606401610a54565b610f4481612cc0565b60008061279a601685612a90565b90506127a68482611747565b6001600160a01b0384166000908152601060205260409020546127d59085906001600160801b03168386612ab2565b949350505050565b6002546001600160a01b031633146128085760405163605919ad60e11b815260040160405180910390fd5b6001600160a01b0380841660009081526005602090815260408083209386168352929052205481900361284e5760405163ce9e721f60e01b815260040160405180910390fd5b6001600160a01b0383811660008181526005602090815260408083209487168084529482529182902085905590518481527f25c16b7d0bcf048ed0d91eb5e50591eb538c034fd4ebee6cac8b7c9cf77c770b910160405180910390a3505050565b60006001600160a01b038316158015906113af575082826040518163ffffffff1660e01b8152600401602060405180830381865afa1580156128f5573d6000803e3d6000fd5b505050506040513d601f19601f8201168201806040525081019061291991906135f0565b60e083901b6001600160e01b0319908116911614905092915050565b6040805160048152602481019091526020810180516001600160e01b031663313ce56760e01b17905260009081908190612970908590612d71565b9150915081612983575060009392505050565b80806020019051810190612997919061361a565b60ff16949350505050565b60006113af836001600160a01b038416612e25565b3b151590565b6000610b33825490565b60006113af836001600160a01b038416612e74565b606060006113af83612f67565b6001546001600160a01b03808316911603612a465760405162461bcd60e51b815260206004820152601860248201527f50656e64696e674f776e65724469644e6f744368616e676500000000000000006044820152606401610a54565b600180546001600160a01b0319166001600160a01b0383169081179091556040517fd6aad444c90d39fb0eee1c6e357a7fad83d63f719ac5f880445a2beb0ff3ab5890600090a250565b6001600160a01b038116600090815260018301602052604081205415156113af565b6000836001600160801b0316600003612ad457600f546001600160801b031693505b6001600160801b0384166000908152601260205260409020546001600160a01b031680612b1457604051634eb171af60e01b815260040160405180910390fd5b60405163573bbca560e01b81526001600160a01b0382169063573bbca590612b4490899089908890600401613669565b6020604051808303816000875af1158015612b63573d6000803e3d6000fd5b505050506040513d601f19601f82011682018060405250810190612b8791906136bb565b6001600160a01b03808816600081815260136020908152604080832080549587166001600160a01b0319968716811790915580845260149092528083208054909516909317909355815163a388991b60e01b81529151939550919263a388991b9260048084019391929182900301818387803b158015612c0657600080fd5b505af1158015612c1a573d6000803e3d6000fd5b50506040516001600160801b03881681526001600160a01b03808a169350851691507fd67d472c55ce8b249ca39858e9032ae0237147a9b81f4d1253c246c75876dd699060200160405180910390a38315612cb757600e80546001600160a01b0319166001600160a01b0384169081179091556040517f41df3a85176fe451d19027e7b43ecc444bc299ef0d82c2b3874fbc7441d6288490600090a25b50949350505050565b6000546001600160a01b03808316911603612d115760405162461bcd60e51b81526020600482015260116024820152704f776e65724469644e6f744368616e676560781b6044820152606401610a54565b600080546001600160a01b0319166001600160a01b038316908117825560405190917f04dba622d284ed0014ee4b9a6a68386be1a4c08a4913ae272de89199cc68616391a26001546001600160a01b031615610f4457610f4460006129e9565b60006060833b612d94576040516373d39f9d60e01b815260040160405180910390fd5b600080856001600160a01b031685604051612daf91906136d8565b600060405180830381855afa9150503d8060008114612dea576040519150601f19603f3d011682016040523d82523d6000602084013e612def565b606091505b509150915081612e1657600060405180602001604052806000815250935093505050612e1e565b600193509150505b9250929050565b6000818152600183016020526040812054612e6c57508154600181810184556000848152602080822090930184905584548482528286019093526040902091909155610b33565b506000610b33565b60008181526001830160205260408120548015612f5d576000612e986001836136f4565b8554909150600090612eac906001906136f4565b9050818114612f11576000866000018281548110612ecc57612ecc61370b565b9060005260206000200154905080876000018481548110612eef57612eef61370b565b6000918252602080832090910192909255918252600188019052604090208390555b8554869080612f2257612f22613721565b600190038181906000526020600020016000905590558560010160008681526020019081526020016000206000905560019350505050610b33565b6000915050610b33565b606081600001805480602002602001604051908101604052809291908181526020018280548015612fb757602002820191906000526020600020905b815481526020019060010190808311612fa3575b50505050509050919050565b6001600160a01b0381168114610f4457600080fd5b60008060408385031215612feb57600080fd5b8235612ff681612fc3565b9150602083013561300681612fc3565b809150509250929050565b6001600160401b0381168114610f4457600080fd5b60006020828403121561303857600080fd5b81356113af81613011565b60006020828403121561305557600080fd5b5035919050565b60006020828403121561306e57600080fd5b81356113af81612fc3565b8015158114610f4457600080fd5b60008060006060848603121561309c57600080fd5b83356130a781612fc3565b925060208401356130b781612fc3565b915060408401356130c781613079565b809150509250925092565b6020808252825182820181905260009190848201906040850190845b818110156131135783516001600160a01b0316835292840192918401916001016130ee565b50909695505050505050565b6000806040838503121561313257600080fd5b823561313d81612fc3565b9150602083013561300681613079565b60006020828403121561315f57600080fd5b81356113af81613079565b80356001600160801b038116811461318157600080fd5b919050565b634e487b7160e01b600052604160045260246000fd5b600082601f8301126131ad57600080fd5b81356001600160401b03808211156131c7576131c7613186565b604051601f8301601f19908116603f011681019082821181831017156131ef576131ef613186565b8160405283815286602085880101111561320857600080fd5b836020870160208301376000602085830101528094505050505092915050565b60008060006060848603121561323d57600080fd5b833561324881612fc3565b92506132566020850161316a565b915060408401356001600160401b0381111561327157600080fd5b61327d8682870161319c565b9150509250925092565b60006020828403121561329957600080fd5b6113af8261316a565b600080604083850312156132b557600080fd5b82356132c081612fc3565b91506132ce6020840161316a565b90509250929050565b6000606082840312156132e957600080fd5b50919050565b600080600060a0848603121561330457600080fd5b833561330f81612fc3565b9250602084013561331f81612fc3565b915061332e85604086016132d7565b90509250925092565b60006060828403121561334957600080fd5b6113af83836132d7565b6000806040838503121561336657600080fd5b823561337181612fc3565b915060208301356001600160401b0381111561338c57600080fd5b6133988582860161319c565b9150509250929050565b6000806000606084860312156133b757600080fd5b83356133c281612fc3565b925060208401356133d281612fc3565b929592945050506040919091013590565b60208082526009908201526827b7363ca7bbb732b960b91b604082015260600190565b60006020828403121561341857600080fd5b81516113af81613079565b634e487b7160e01b600052601160045260246000fd5b60006001600160801b0380831681851680830382111561345b5761345b613423565b01949350505050565b60006020828403121561347657600080fd5b5051919050565b60608101823561348c81613011565b6001600160401b0390811683526020840135906134a882613011565b16602083015260408301356134bc81612fc3565b6001600160a01b031660409290920191909152919050565b81356134df81613011565b815467ffffffffffffffff19166001600160401b03821617825550602082013561350881613011565b815467ffffffffffffffff60401b1916604082901b67ffffffffffffffff60401b161782555060018101604083013561354081612fc3565b81546001600160a01b0319166001600160a01b03919091161790555050565b813561356a81613011565b815467ffffffffffffffff19166001600160401b03821617825550602082013561359381613011565b815467ffffffffffffffff60401b1916604082901b67ffffffffffffffff60401b161782555060408201356135c781613011565b815467ffffffffffffffff60801b191660809190911b67ffffffffffffffff60801b1617905550565b60006020828403121561360257600080fd5b81516001600160e01b0319811681146113af57600080fd5b60006020828403121561362c57600080fd5b815160ff811681146113af57600080fd5b60005b83811015613658578181015183820152602001613640565b838111156124035750506000910152565b60018060a01b03841681526001600160801b038316602082015260606040820152600082518060608401526136a581608085016020870161363d565b601f01601f191691909101608001949350505050565b6000602082840312156136cd57600080fd5b81516113af81612fc3565b600082516136ea81846020870161363d565b9190910192915050565b60008282101561370657613706613423565b500390565b634e487b7160e01b600052603260045260246000fd5b634e487b7160e01b600052603160045260246000fdfea2646970667358221220c87df71128452e0b33444e65e09d6200f248f1b9e8fb7261e32ea74bb0eaf78664736f6c634300080d0033",
  "devdoc": {
    "custom:security-contact": "security@silo.finance",
    "details": "Stores configuration for each asset in each silo. Each asset in each Silo starts with a default config that later on can be changed by the contract owner. Stores registry of Factory contracts that deploy different versions of Silos It is possible to have multiple versions/implementations of Silo and use different versions for different tokens. For example, one version can be used for UNI (ERC20) and the other can be used for UniV3LP tokens (ERC721). Manages bridge assets. Each Silo can have 1 or more bridge assets. New Silos are created with all currently active bridge assets. Silos that are already developed must synchronize bridge assets. Sync can be done by anyone, function has public access. Is a single source of truth for other contract addresses.",
    "kind": "dev",
    "methods": {
      "acceptOwnership()": {
        "details": "Transfers ownership of the contract to a pending owner Can only be called by the pending owner."
      },
      "addBridgeAsset(address)": {
        "details": "New bridge asset must be unique. Duplicates in bridge assets are not allowed. It's possible to add bridge asset that has been removed in the past. Note that all Silos must be synced manually. Callable only by owner.",
        "params": {
          "_newBridgeAsset": "bridge asset address"
        }
      },
      "changeManager(address)": {
        "details": "Callable by manager or external owner role",
        "params": {
          "_manager": "new manager address"
        }
      },
      "constructor": {
        "params": {
          "_defaultLiquidationThreshold": "liquidation threshold for default configuration",
          "_defaultMaxLTV": "maximum Loan-to-Value for default configuration",
          "_initialBridgeAssets": "bridge assets to start with",
          "_siloFactory": "address of SiloFactory contract that deploys Silos",
          "_tokensFactory": "address of TokensFactory contract that deploys debt and collateral tokens for each Silo asset"
        }
      },
      "ensureCanCreateSiloFor(address,bool)": {
        "details": "Checks all conditions for new silo creation and throws when not possible to create",
        "params": {
          "_asset": "address of asset for which you want to create silo",
          "_assetIsABridge": "bool TRUE when `_asset` is bridge asset, FALSE when it is not"
        }
      },
      "entryFee()": {
        "details": "Get protocol fee for opening a borrow position",
        "returns": {
          "_0": "fee in precision points (Solvency._PRECISION_DECIMALS == 100%)"
        }
      },
      "getBridgeAssets()": {
        "details": "Keep in mind that not all Silos may be synced with current bridge assets so it's possible that some assets in that list are not part of given Silo.",
        "returns": {
          "_0": "address array of bridge assets"
        }
      },
      "getInterestRateModel(address,address)": {
        "details": "If dedicated config is not set, method returns default config",
        "params": {
          "_asset": "address of an asset",
          "_silo": "address of Silo"
        },
        "returns": {
          "model": "address of interest rate model"
        }
      },
      "getLiquidationThreshold(address,address)": {
        "details": "If dedicated config is not set, method returns default config",
        "params": {
          "_asset": "address of an asset",
          "_silo": "address of Silo"
        },
        "returns": {
          "_0": "liquidation threshold in precision points (Solvency._PRECISION_DECIMALS)"
        }
      },
      "getMaxSiloDepositsValue(address,address)": {
        "params": {
          "_asset": "Silo asset for which to set limit",
          "_silo": "Silo address for which to set limit"
        },
        "returns": {
          "_0": "deposit limit for Silo"
        }
      },
      "getMaximumLTV(address,address)": {
        "details": "If dedicated config is not set, method returns default config",
        "params": {
          "_asset": "address of an asset",
          "_silo": "address of Silo"
        },
        "returns": {
          "_0": "maximum LTV in precision points (Solvency._PRECISION_DECIMALS)"
        }
      },
      "getRemovedBridgeAssets()": {
        "details": "Keep in mind that not all Silos may be synced with bridge assets so it's possible that some assets in that list are still part of given Silo.",
        "returns": {
          "_0": "address array of bridge assets"
        }
      },
      "isSilo(address)": {
        "params": {
          "_silo": "address of expected Silo"
        },
        "returns": {
          "_0": "true if address is Silo deployment, otherwise false"
        }
      },
      "isSiloPaused(address,address)": {
        "params": {
          "_asset": "address of an asset",
          "_silo": "address of Silo"
        },
        "returns": {
          "_0": "true if given asset in a Silo is paused, otherwise false"
        }
      },
      "newSilo(address,bytes)": {
        "details": "Silo does NOT support rebase and deflationary tokens",
        "params": {
          "_siloAsset": "silo asset",
          "_siloData": "(optional) data that may be needed during silo creation"
        },
        "returns": {
          "_0": "address of created silo"
        }
      },
      "owner()": {
        "returns": {
          "_0": "owner role address"
        }
      },
      "pendingOwner()": {
        "details": "Returns the address of the pending owner."
      },
      "protocolLiquidationFee()": {
        "details": "Get protocol liquidation fee",
        "returns": {
          "_0": "protocol liquidation fee in precision points (Solvency._PRECISION_DECIMALS == 100%)"
        }
      },
      "protocolShareFee()": {
        "details": "Get protocol share fee",
        "returns": {
          "_0": "protocol share fee in precision points (Solvency._PRECISION_DECIMALS == 100%)"
        }
      },
      "registerSiloVersion(address,bool)": {
        "details": "User can choose which Silo version he wants to deploy. It's possible to have multiple versions of Silo. Callable only by owner.",
        "params": {
          "_factory": "factory contract that deploys new version of Silo",
          "_isDefault": "true if this version should be used as default"
        }
      },
      "removeBridgeAsset(address)": {
        "details": "Note that all Silos must be synced manually. Callable only by owner.",
        "params": {
          "_bridgeAssetToRemove": "bridge asset address to be removed"
        }
      },
      "removePendingOwnership()": {
        "details": "Clears the pending ownership. Can only be called by the current owner."
      },
      "renounceOwnership()": {
        "details": "Leaves the contract without owner. It will not be possible to call `onlyOwner` functions anymore. Can only be called by the current owner. NOTE: Renouncing ownership will leave the contract without an owner, thereby removing any functionality that is only available to the owner."
      },
      "replaceSilo(address,uint128,bytes)": {
        "details": "Silo does NOT support rebase and deflationary tokens",
        "params": {
          "_siloAsset": "silo asset",
          "_siloData": "(optional) data that may be needed during silo creation",
          "_siloVersion": "version of silo implementation. Use 0 for default version which is fine for 99% of cases."
        },
        "returns": {
          "_0": "address of created silo"
        }
      },
      "setAssetConfig(address,address,(uint64,uint64,address))": {
        "details": "Callable only by owner",
        "params": {
          "_asset": "asset address for which config applies",
          "_assetConfig": ":    - _maxLoanToValue maximum Loan-to-Value, for details see `Repository.AssetConfig.maxLoanToValue`    - _liquidationThreshold liquidation threshold, for details see `Repository.AssetConfig.maxLoanToValue`    - _interestRateModel interest rate model address, for details see `Repository.AssetConfig.interestRateModel`",
          "_silo": "Silo address for which config applies"
        }
      },
      "setDefaultInterestRateModel(address)": {
        "details": "Callable only by owner",
        "params": {
          "_defaultInterestRateModel": "default interest rate model"
        }
      },
      "setDefaultLiquidationThreshold(uint64)": {
        "details": "Callable only by owner",
        "params": {
          "_defaultLiquidationThreshold": "default liquidation threshold in precision points (Solvency._PRECISION_DECIMALS)"
        }
      },
      "setDefaultMaximumLTV(uint64)": {
        "details": "Callable only by owner",
        "params": {
          "_defaultMaxLTV": "default maximum LTV in precision points (Solvency._PRECISION_DECIMALS)"
        }
      },
      "setDefaultSiloMaxDepositsLimit(uint256)": {
        "params": {
          "_maxDeposits": "deposit limit amount in quote token"
        }
      },
      "setDefaultSiloVersion(uint128)": {
        "details": "Callable only by owner.",
        "params": {
          "_defaultVersion": "Silo version to be set as default"
        }
      },
      "setFees((uint64,uint64,uint64))": {
        "details": "Callable only by owner",
        "params": {
          "_fees": ": - _entryFee one time protocol fee for opening a borrow position in precision points (Solvency._PRECISION_DECIMALS) - _protocolShareFee protocol revenue share in interest paid in precision points (Solvency._PRECISION_DECIMALS) - _protocolLiquidationFee protocol share in liquidation profit in precision points (Solvency._PRECISION_DECIMALS). It's calculated from total collateral amount to be transferred to liquidator."
        }
      },
      "setGlobalPause(bool)": {
        "details": "Callable only by owner.",
        "params": {
          "_globalPause": "true to pause all Silos, otherwise false"
        }
      },
      "setNotificationReceiver(address,address)": {
        "details": "Callable only by owner",
        "params": {
          "_notificationReceiver": "NotificationReceiver address",
          "_silo": "silo address for which to set `_notificationReceiver`"
        }
      },
      "setPriceProvidersRepository(address)": {
        "details": "Callable only by owner",
        "params": {
          "_repository": "price provider repository address"
        }
      },
      "setRouter(address)": {
        "details": "Callable only by owner",
        "params": {
          "_router": "router address"
        }
      },
      "setSiloMaxDepositsLimit(address,address,uint256)": {
        "params": {
          "_asset": "Silo asset for which to set limit",
          "_maxDeposits": "deposit limit amount in quote token",
          "_silo": "Silo address for which to set limit"
        }
      },
      "setSiloPause(address,address,bool)": {
        "details": "Callable only by owner.",
        "params": {
          "_asset": "address of an asset that is being paused",
          "_pauseValue": "true to pause, false to unpause",
          "_silo": "address of Silo in which `_asset` is being paused"
        }
      },
      "setTokensFactory(address)": {
        "details": "Callable only by owner",
        "params": {
          "_tokensFactory": "address of TokensFactory contract that deploys debt and collateral tokens"
        }
      },
      "setVersionForAsset(address,uint128)": {
        "params": {
          "_siloAsset": "silo asset",
          "_version": "version of Silo that will be assigned for `_siloAsset`, zero (default) is acceptable"
        }
      },
      "transferOwnership(address)": {
        "details": "Transfers ownership of the contract to a new account (`newOwner`). Can only be called by the current owner."
      },
      "transferPendingOwnership(address)": {
        "details": "Transfers pending ownership of the contract to a new account (`newPendingOwner`) and clears any existing pending ownership. Can only be called by the current owner."
      },
      "unregisterSiloVersion(uint128)": {
        "details": "Callable only by owner.",
        "params": {
          "_siloVersion": "Silo version to be unregistered"
        }
      }
    },
    "stateVariables": {
      "_INITIAL_SILO_VERSION": {
        "details": "Value used to initialize the Silo's version data"
      },
      "_ONE_HUNDRED_PERCENT": {
        "details": "representation of 100%"
      },
      "_bridgeAssets": {
        "details": "List of bridge assets supported by the protocol"
      },
      "_removedBridgeAssets": {
        "details": "List of bridge assets removed by the protocol"
      },
      "assetConfigs": {
        "details": "maps silo => asset => config"
      },
      "bridgePool": {
        "details": "Silo for bridge asset. We can have only one bridge pool"
      },
      "defaultAssetConfig": {
        "details": "Default values for AssetConfig. Used if values are not configured manually."
      },
      "fees": {
        "details": "Protocol fee configuration"
      },
      "getNotificationReceiver": {
        "details": "Maps Silo address to incentive contract that will distribute rewards for that Silo"
      },
      "getSilo": {
        "details": "maps token address to silo address, asset => silo"
      },
      "getVersionForAsset": {
        "details": "Maps asset => silo version"
      },
      "priceProvidersRepository": {
        "details": "PriceProvidersRepository contract that manages PriceProviders implementations and is an entry point for reading prices for Silos."
      },
      "router": {
        "details": "SiloRouter utility contract that combines number of actions (Deposit, Withdraw, Borrow, Repay) for batch execution in single transaction."
      },
      "siloFactory": {
        "details": "Maps version => ISiloFactory. Versions start at 1 and are incremented by 1."
      },
      "siloReverse": {
        "details": "maps silo address to token address, silo => asset"
      },
      "siloVersion": {
        "details": "Silo version data"
      },
      "tokensFactory": {
        "details": "Factory contracts that deploys debt and collateral tokens for each asset in Silo"
      }
    },
    "title": "SiloRepository",
    "version": 1
  },
  "userdoc": {
    "events": {
      "AssetConfigUpdate(address,address,(uint64,uint64,address))": {
        "notice": "Emitted when asset config is updated for a silo"
      },
      "BridgeAssetAdded(address)": {
        "notice": "Emitted on new bridge asset"
      },
      "BridgeAssetRemoved(address)": {
        "notice": "Emitted on removed bridge asset"
      },
      "BridgePool(address)": {
        "notice": "Emitted when new Silo (or existing one) becomes a bridge pool (pool with only bridge tokens)."
      },
      "DefaultSiloMaxDepositsLimitUpdate(uint256)": {
        "notice": "Emitted when default max liquidity limit is changed"
      },
      "FeeUpdate(uint64,uint64,uint64)": {
        "notice": "Emitted when default fee is updated"
      },
      "GlobalPause(bool)": {
        "notice": "Emitted when all Silos are paused or unpaused"
      },
      "InterestRateModel(address)": {
        "notice": "Emitted when default interest rate model is changed"
      },
      "LimitedMaxLiquidityToggled(bool)": {
        "notice": "Emitted when max liquidity toggle is switched"
      },
      "ManagerChanged(address)": {
        "notice": "Emitted when manager is changed"
      },
      "NewSilo(address,address,uint128)": {
        "notice": "Emitted on new Silo creation"
      },
      "NotificationReceiverUpdate(address)": {
        "notice": "Emitted on INotificationReceiver address update"
      },
      "OwnershipPending(address)": {
        "notice": "Emitted when ownership transfer is proposed, aka pending owner is set"
      },
      "OwnershipTransferred(address)": {
        "notice": "Emitted when ownership is transferred on `transferOwnership` and `acceptOwnership`"
      },
      "PriceProvidersRepositoryUpdate(address)": {
        "notice": "Emitted on price provider repository address update"
      },
      "RegisterSiloVersion(address,uint128,uint128)": {
        "notice": "Emitted when new Silo version is registered"
      },
      "RouterUpdate(address)": {
        "notice": "Emitted on router address update"
      },
      "SiloDefaultVersion(uint128)": {
        "notice": "Emitted when default Silo version is updated"
      },
      "SiloMaxDepositsLimitsUpdate(address,address,uint256)": {
        "notice": "Emitted when deposit liquidity limit is changed for Silo and asset"
      },
      "SiloPause(address,address,bool)": {
        "notice": "Emitted when a single Silo or single asset in a Silo is paused or unpaused"
      },
      "TokensFactoryUpdate(address)": {
        "notice": "Emitted on token factory address update"
      },
      "UnregisterSiloVersion(address,uint128)": {
        "notice": "Emitted when Silo version is unregistered"
      },
      "VersionForAsset(address,uint128)": {
        "notice": "Emitted when silo (silo factory) version is set for asset"
      }
    },
    "kind": "user",
    "methods": {
      "addBridgeAsset(address)": {
        "notice": "Adds new bridge asset"
      },
      "changeManager(address)": {
        "notice": "Change manager address"
      },
      "getBridgeAssets()": {
        "notice": "Get current bridge assets"
      },
      "getInterestRateModel(address,address)": {
        "notice": "Get Interest Rate Model address for asset in given Silo"
      },
      "getLiquidationThreshold(address,address)": {
        "notice": "Get liquidation threshold for asset in given Silo"
      },
      "getMaxSiloDepositsValue(address,address)": {
        "notice": "Gets deposit limit for Silo"
      },
      "getMaximumLTV(address,address)": {
        "notice": "Get maximum LTV for asset in given Silo"
      },
      "getRemovedBridgeAssets()": {
        "notice": "Get removed bridge assets"
      },
      "isSilo(address)": {
        "notice": "Check if contract address is a Silo deployment"
      },
      "isSiloPaused(address,address)": {
        "notice": "Check given asset in a Silo is paused"
      },
      "newSilo(address,bytes)": {
        "notice": "use this method only when off-chain verification is OFF"
      },
      "owner()": {
        "notice": "Get owner role address of Repository"
      },
      "registerSiloVersion(address,bool)": {
        "notice": "Registers new Silo version"
      },
      "removeBridgeAsset(address)": {
        "notice": "Removes bridge asset"
      },
      "replaceSilo(address,uint128,bytes)": {
        "notice": "use this method to deploy new version of Silo for an asset that already has Silo deployed. Only owner (DAO) can replace."
      },
      "setAssetConfig(address,address,(uint64,uint64,address))": {
        "notice": "Set configuration for given asset in given Silo"
      },
      "setDefaultInterestRateModel(address)": {
        "notice": "Set default interest rate model"
      },
      "setDefaultLiquidationThreshold(uint64)": {
        "notice": "Set default liquidation threshold"
      },
      "setDefaultMaximumLTV(uint64)": {
        "notice": "Set default maximum LTV"
      },
      "setDefaultSiloMaxDepositsLimit(uint256)": {
        "notice": "Sets default deposit limit for all Silos"
      },
      "setDefaultSiloVersion(uint128)": {
        "notice": "Sets default Silo version"
      },
      "setFees((uint64,uint64,uint64))": {
        "notice": "Set default fees"
      },
      "setGlobalPause(bool)": {
        "notice": "Pause all Silos"
      },
      "setLimitedMaxLiquidity(bool)": {
        "notice": "Sets limited liquidity to provided value"
      },
      "setNotificationReceiver(address,address)": {
        "notice": "Set NotificationReceiver contract"
      },
      "setPriceProvidersRepository(address)": {
        "notice": "Set price provider repository"
      },
      "setRouter(address)": {
        "notice": "Set router contract"
      },
      "setSiloMaxDepositsLimit(address,address,uint256)": {
        "notice": "Sets deposit limit for Silo"
      },
      "setSiloPause(address,address,bool)": {
        "notice": "Pause single asset in a single Silo"
      },
      "setTokensFactory(address)": {
        "notice": "Set factory contract for debt and collateral tokens for each Silo asset"
      },
      "setVersionForAsset(address,uint128)": {
        "notice": "setter for `getVersionForAsset` mapping"
      },
      "unregisterSiloVersion(uint128)": {
        "notice": "Unregisters Silo version"
      }
    },
    "notice": "SiloRepository handles the creation and configuration of Silos.",
    "version": 1
  },
  "storageLayout": {
    "storage": [
      {
        "astId": 32990,
        "contract": "contracts/SiloRepository.sol:SiloRepository",
        "label": "_owner",
        "offset": 0,
        "slot": "0",
        "type": "t_address"
      },
      {
        "astId": 32993,
        "contract": "contracts/SiloRepository.sol:SiloRepository",
        "label": "_pendingOwner",
        "offset": 0,
        "slot": "1",
        "type": "t_address"
      },
      {
        "astId": 32025,
        "contract": "contracts/SiloRepository.sol:SiloRepository",
        "label": "_managerRole",
        "offset": 0,
        "slot": "2",
        "type": "t_address"
      },
      {
        "astId": 31380,
        "contract": "contracts/SiloRepository.sol:SiloRepository",
        "label": "maxLiquidity",
        "offset": 0,
        "slot": "3",
        "type": "t_struct(MaxLiquidityLimit)19202_storage"
      },
      {
        "astId": 31384,
        "contract": "contracts/SiloRepository.sol:SiloRepository",
        "label": "isPaused",
        "offset": 0,
        "slot": "6",
        "type": "t_struct(Paused)19212_storage"
      },
      {
        "astId": 15594,
        "contract": "contracts/SiloRepository.sol:SiloRepository",
        "label": "defaultAssetConfig",
        "offset": 0,
        "slot": "8",
        "type": "t_struct(AssetConfig)19894_storage"
      },
      {
        "astId": 15598,
        "contract": "contracts/SiloRepository.sol:SiloRepository",
        "label": "fees",
        "offset": 0,
        "slot": "10",
        "type": "t_struct(Fees)19876_storage"
      },
      {
        "astId": 15603,
        "contract": "contracts/SiloRepository.sol:SiloRepository",
        "label": "tokensFactory",
        "offset": 0,
        "slot": "11",
        "type": "t_contract(ITokensFactory)20367"
      },
      {
        "astId": 15608,
        "contract": "contracts/SiloRepository.sol:SiloRepository",
        "label": "priceProvidersRepository",
        "offset": 0,
        "slot": "12",
        "type": "t_contract(IPriceProvidersRepository)19635"
      },
      {
        "astId": 15612,
        "contract": "contracts/SiloRepository.sol:SiloRepository",
        "label": "router",
        "offset": 0,
        "slot": "13",
        "type": "t_address"
      },
      {
        "astId": 15615,
        "contract": "contracts/SiloRepository.sol:SiloRepository",
        "label": "bridgePool",
        "offset": 0,
        "slot": "14",
        "type": "t_address"
      },
      {
        "astId": 15619,
        "contract": "contracts/SiloRepository.sol:SiloRepository",
        "label": "siloVersion",
        "offset": 0,
        "slot": "15",
        "type": "t_struct(SiloVersion)19883_storage"
      },
      {
        "astId": 15625,
        "contract": "contracts/SiloRepository.sol:SiloRepository",
        "label": "getVersionForAsset",
        "offset": 0,
        "slot": "16",
        "type": "t_mapping(t_address,t_uint128)"
      },
      {
        "astId": 15632,
        "contract": "contracts/SiloRepository.sol:SiloRepository",
        "label": "getNotificationReceiver",
        "offset": 0,
        "slot": "17",
        "type": "t_mapping(t_address,t_contract(INotificationReceiver)19491)"
      },
      {
        "astId": 15639,
        "contract": "contracts/SiloRepository.sol:SiloRepository",
        "label": "siloFactory",
        "offset": 0,
        "slot": "18",
        "type": "t_mapping(t_uint256,t_contract(ISiloFactory)19859)"
      },
      {
        "astId": 15645,
        "contract": "contracts/SiloRepository.sol:SiloRepository",
        "label": "getSilo",
        "offset": 0,
        "slot": "19",
        "type": "t_mapping(t_address,t_address)"
      },
      {
        "astId": 15650,
        "contract": "contracts/SiloRepository.sol:SiloRepository",
        "label": "siloReverse",
        "offset": 0,
        "slot": "20",
        "type": "t_mapping(t_address,t_address)"
      },
      {
        "astId": 15658,
        "contract": "contracts/SiloRepository.sol:SiloRepository",
        "label": "assetConfigs",
        "offset": 0,
        "slot": "21",
        "type": "t_mapping(t_address,t_mapping(t_address,t_struct(AssetConfig)19894_storage))"
      },
      {
        "astId": 15670,
        "contract": "contracts/SiloRepository.sol:SiloRepository",
        "label": "_bridgeAssets",
        "offset": 0,
        "slot": "22",
        "type": "t_struct(AddressSet)7648_storage"
      },
      {
        "astId": 15674,
        "contract": "contracts/SiloRepository.sol:SiloRepository",
        "label": "_removedBridgeAssets",
        "offset": 0,
        "slot": "24",
        "type": "t_struct(AddressSet)7648_storage"
      }
    ],
    "types": {
      "t_address": {
        "encoding": "inplace",
        "label": "address",
        "numberOfBytes": "20"
      },
      "t_array(t_bytes32)dyn_storage": {
        "base": "t_bytes32",
        "encoding": "dynamic_array",
        "label": "bytes32[]",
        "numberOfBytes": "32"
      },
      "t_bool": {
        "encoding": "inplace",
        "label": "bool",
        "numberOfBytes": "1"
      },
      "t_bytes32": {
        "encoding": "inplace",
        "label": "bytes32",
        "numberOfBytes": "32"
      },
      "t_contract(IInterestRateModel)19469": {
        "encoding": "inplace",
        "label": "contract IInterestRateModel",
        "numberOfBytes": "20"
      },
      "t_contract(INotificationReceiver)19491": {
        "encoding": "inplace",
        "label": "contract INotificationReceiver",
        "numberOfBytes": "20"
      },
      "t_contract(IPriceProvidersRepository)19635": {
        "encoding": "inplace",
        "label": "contract IPriceProvidersRepository",
        "numberOfBytes": "20"
      },
      "t_contract(ISiloFactory)19859": {
        "encoding": "inplace",
        "label": "contract ISiloFactory",
        "numberOfBytes": "20"
      },
      "t_contract(ITokensFactory)20367": {
        "encoding": "inplace",
        "label": "contract ITokensFactory",
        "numberOfBytes": "20"
      },
      "t_mapping(t_address,t_address)": {
        "encoding": "mapping",
        "key": "t_address",
        "label": "mapping(address => address)",
        "numberOfBytes": "32",
        "value": "t_address"
      },
      "t_mapping(t_address,t_bool)": {
        "encoding": "mapping",
        "key": "t_address",
        "label": "mapping(address => bool)",
        "numberOfBytes": "32",
        "value": "t_bool"
      },
      "t_mapping(t_address,t_contract(INotificationReceiver)19491)": {
        "encoding": "mapping",
        "key": "t_address",
        "label": "mapping(address => contract INotificationReceiver)",
        "numberOfBytes": "32",
        "value": "t_contract(INotificationReceiver)19491"
      },
      "t_mapping(t_address,t_mapping(t_address,t_bool))": {
        "encoding": "mapping",
        "key": "t_address",
        "label": "mapping(address => mapping(address => bool))",
        "numberOfBytes": "32",
        "value": "t_mapping(t_address,t_bool)"
      },
      "t_mapping(t_address,t_mapping(t_address,t_struct(AssetConfig)19894_storage))": {
        "encoding": "mapping",
        "key": "t_address",
        "label": "mapping(address => mapping(address => struct ISiloRepository.AssetConfig))",
        "numberOfBytes": "32",
        "value": "t_mapping(t_address,t_struct(AssetConfig)19894_storage)"
      },
      "t_mapping(t_address,t_mapping(t_address,t_uint256))": {
        "encoding": "mapping",
        "key": "t_address",
        "label": "mapping(address => mapping(address => uint256))",
        "numberOfBytes": "32",
        "value": "t_mapping(t_address,t_uint256)"
      },
      "t_mapping(t_address,t_struct(AssetConfig)19894_storage)": {
        "encoding": "mapping",
        "key": "t_address",
        "label": "mapping(address => struct ISiloRepository.AssetConfig)",
        "numberOfBytes": "32",
        "value": "t_struct(AssetConfig)19894_storage"
      },
      "t_mapping(t_address,t_uint128)": {
        "encoding": "mapping",
        "key": "t_address",
        "label": "mapping(address => uint128)",
        "numberOfBytes": "32",
        "value": "t_uint128"
      },
      "t_mapping(t_address,t_uint256)": {
        "encoding": "mapping",
        "key": "t_address",
        "label": "mapping(address => uint256)",
        "numberOfBytes": "32",
        "value": "t_uint256"
      },
      "t_mapping(t_bytes32,t_uint256)": {
        "encoding": "mapping",
        "key": "t_bytes32",
        "label": "mapping(bytes32 => uint256)",
        "numberOfBytes": "32",
        "value": "t_uint256"
      },
      "t_mapping(t_uint256,t_contract(ISiloFactory)19859)": {
        "encoding": "mapping",
        "key": "t_uint256",
        "label": "mapping(uint256 => contract ISiloFactory)",
        "numberOfBytes": "32",
        "value": "t_contract(ISiloFactory)19859"
      },
      "t_struct(AddressSet)7648_storage": {
        "encoding": "inplace",
        "label": "struct EnumerableSet.AddressSet",
        "members": [
          {
            "astId": 7647,
            "contract": "contracts/SiloRepository.sol:SiloRepository",
            "label": "_inner",
            "offset": 0,
            "slot": "0",
            "type": "t_struct(Set)7347_storage"
          }
        ],
        "numberOfBytes": "64"
      },
      "t_struct(AssetConfig)19894_storage": {
        "encoding": "inplace",
        "label": "struct ISiloRepository.AssetConfig",
        "members": [
          {
            "astId": 19886,
            "contract": "contracts/SiloRepository.sol:SiloRepository",
            "label": "maxLoanToValue",
            "offset": 0,
            "slot": "0",
            "type": "t_uint64"
          },
          {
            "astId": 19889,
            "contract": "contracts/SiloRepository.sol:SiloRepository",
            "label": "liquidationThreshold",
            "offset": 8,
            "slot": "0",
            "type": "t_uint64"
          },
          {
            "astId": 19893,
            "contract": "contracts/SiloRepository.sol:SiloRepository",
            "label": "interestRateModel",
            "offset": 0,
            "slot": "1",
            "type": "t_contract(IInterestRateModel)19469"
          }
        ],
        "numberOfBytes": "64"
      },
      "t_struct(Fees)19876_storage": {
        "encoding": "inplace",
        "label": "struct ISiloRepository.Fees",
        "members": [
          {
            "astId": 19869,
            "contract": "contracts/SiloRepository.sol:SiloRepository",
            "label": "entryFee",
            "offset": 0,
            "slot": "0",
            "type": "t_uint64"
          },
          {
            "astId": 19872,
            "contract": "contracts/SiloRepository.sol:SiloRepository",
            "label": "protocolShareFee",
            "offset": 8,
            "slot": "0",
            "type": "t_uint64"
          },
          {
            "astId": 19875,
            "contract": "contracts/SiloRepository.sol:SiloRepository",
            "label": "protocolLiquidationFee",
            "offset": 16,
            "slot": "0",
            "type": "t_uint64"
          }
        ],
        "numberOfBytes": "32"
      },
      "t_struct(MaxLiquidityLimit)19202_storage": {
        "encoding": "inplace",
        "label": "struct IGuardedLaunch.MaxLiquidityLimit",
        "members": [
          {
            "astId": 19191,
            "contract": "contracts/SiloRepository.sol:SiloRepository",
            "label": "globalLimit",
            "offset": 0,
            "slot": "0",
            "type": "t_bool"
          },
          {
            "astId": 19194,
            "contract": "contracts/SiloRepository.sol:SiloRepository",
            "label": "defaultMaxLiquidity",
            "offset": 0,
            "slot": "1",
            "type": "t_uint256"
          },
          {
            "astId": 19201,
            "contract": "contracts/SiloRepository.sol:SiloRepository",
            "label": "siloMaxLiquidity",
            "offset": 0,
            "slot": "2",
            "type": "t_mapping(t_address,t_mapping(t_address,t_uint256))"
          }
        ],
        "numberOfBytes": "96"
      },
      "t_struct(Paused)19212_storage": {
        "encoding": "inplace",
        "label": "struct IGuardedLaunch.Paused",
        "members": [
          {
            "astId": 19204,
            "contract": "contracts/SiloRepository.sol:SiloRepository",
            "label": "globalPause",
            "offset": 0,
            "slot": "0",
            "type": "t_bool"
          },
          {
            "astId": 19211,
            "contract": "contracts/SiloRepository.sol:SiloRepository",
            "label": "siloPause",
            "offset": 0,
            "slot": "1",
            "type": "t_mapping(t_address,t_mapping(t_address,t_bool))"
          }
        ],
        "numberOfBytes": "64"
      },
      "t_struct(Set)7347_storage": {
        "encoding": "inplace",
        "label": "struct EnumerableSet.Set",
        "members": [
          {
            "astId": 7342,
            "contract": "contracts/SiloRepository.sol:SiloRepository",
            "label": "_values",
            "offset": 0,
            "slot": "0",
            "type": "t_array(t_bytes32)dyn_storage"
          },
          {
            "astId": 7346,
            "contract": "contracts/SiloRepository.sol:SiloRepository",
            "label": "_indexes",
            "offset": 0,
            "slot": "1",
            "type": "t_mapping(t_bytes32,t_uint256)"
          }
        ],
        "numberOfBytes": "64"
      },
      "t_struct(SiloVersion)19883_storage": {
        "encoding": "inplace",
        "label": "struct ISiloRepository.SiloVersion",
        "members": [
          {
            "astId": 19879,
            "contract": "contracts/SiloRepository.sol:SiloRepository",
            "label": "byDefault",
            "offset": 0,
            "slot": "0",
            "type": "t_uint128"
          },
          {
            "astId": 19882,
            "contract": "contracts/SiloRepository.sol:SiloRepository",
            "label": "latest",
            "offset": 16,
            "slot": "0",
            "type": "t_uint128"
          }
        ],
        "numberOfBytes": "32"
      },
      "t_uint128": {
        "encoding": "inplace",
        "label": "uint128",
        "numberOfBytes": "16"
      },
      "t_uint256": {
        "encoding": "inplace",
        "label": "uint256",
        "numberOfBytes": "32"
      },
      "t_uint64": {
        "encoding": "inplace",
        "label": "uint64",
        "numberOfBytes": "8"
      }
    }
  }
}