{
  "address": "0x594e04b87bd0D5b888711dBB3e342a4443D7D4Bd",
  "abi": [
    {
      "inputs": [
        {
          "internalType": "contract ISiloRepository",
          "name": "_siloRepo",
          "type": "address"
        }
      ],
      "stateMutability": "nonpayable",
      "type": "constructor"
    },
    {
      "inputs": [],
      "name": "DifferentArrayLength",
      "type": "error"
    },
    {
      "inputs": [],
      "name": "InvalidRepository",
      "type": "error"
    },
    {
      "inputs": [],
      "name": "UnsupportedLTVType",
      "type": "error"
    },
    {
      "inputs": [],
      "name": "ZeroAssets",
      "type": "error"
    },
    {
      "inputs": [
        {
          "internalType": "uint256",
          "name": "_assetTotalDeposits",
          "type": "uint256"
        },
        {
          "internalType": "contract IShareToken",
          "name": "_shareToken",
          "type": "address"
        },
        {
          "internalType": "address",
          "name": "_user",
          "type": "address"
        }
      ],
      "name": "balanceOfUnderlying",
      "outputs": [
        {
          "internalType": "uint256",
          "name": "",
          "type": "uint256"
        }
      ],
      "stateMutability": "view",
      "type": "function"
    },
    {
      "inputs": [
        {
          "internalType": "contract ISilo",
          "name": "_silo",
          "type": "address"
        },
        {
          "internalType": "address",
          "name": "_asset",
          "type": "address"
        }
      ],
      "name": "borrowAPY",
      "outputs": [
        {
          "internalType": "uint256",
          "name": "",
          "type": "uint256"
        }
      ],
      "stateMutability": "view",
      "type": "function"
    },
    {
      "inputs": [
        {
          "internalType": "contract ISilo",
          "name": "_silo",
          "type": "address"
        },
        {
          "internalType": "address",
          "name": "_asset",
          "type": "address"
        },
        {
          "internalType": "address",
          "name": "_user",
          "type": "address"
        }
      ],
      "name": "borrowShare",
      "outputs": [
        {
          "internalType": "uint256",
          "name": "",
          "type": "uint256"
        }
      ],
      "stateMutability": "view",
      "type": "function"
    },
    {
      "inputs": [
        {
          "internalType": "uint256",
          "name": "_amount",
          "type": "uint256"
        }
      ],
      "name": "calcFee",
      "outputs": [
        {
          "internalType": "uint256",
          "name": "",
          "type": "uint256"
        }
      ],
      "stateMutability": "view",
      "type": "function"
    },
    {
      "inputs": [
        {
          "internalType": "contract ISilo",
          "name": "_silo",
          "type": "address"
        },
        {
          "internalType": "address",
          "name": "_user",
          "type": "address"
        },
        {
          "internalType": "address",
          "name": "_asset",
          "type": "address"
        }
      ],
      "name": "calculateBorrowValue",
      "outputs": [
        {
          "internalType": "uint256",
          "name": "",
          "type": "uint256"
        }
      ],
      "stateMutability": "view",
      "type": "function"
    },
    {
      "inputs": [
        {
          "internalType": "contract ISilo",
          "name": "_silo",
          "type": "address"
        },
        {
          "internalType": "address",
          "name": "_user",
          "type": "address"
        },
        {
          "internalType": "address",
          "name": "_asset",
          "type": "address"
        }
      ],
      "name": "calculateCollateralValue",
      "outputs": [
        {
          "internalType": "uint256",
          "name": "",
          "type": "uint256"
        }
      ],
      "stateMutability": "view",
      "type": "function"
    },
    {
      "inputs": [
        {
          "internalType": "contract ISilo",
          "name": "_silo",
          "type": "address"
        },
        {
          "internalType": "address",
          "name": "_asset",
          "type": "address"
        },
        {
          "internalType": "address",
          "name": "_user",
          "type": "address"
        }
      ],
      "name": "collateralBalanceOfUnderlying",
      "outputs": [
        {
          "internalType": "uint256",
          "name": "",
          "type": "uint256"
        }
      ],
      "stateMutability": "view",
      "type": "function"
    },
    {
      "inputs": [
        {
          "internalType": "contract ISilo",
          "name": "_silo",
          "type": "address"
        },
        {
          "internalType": "address",
          "name": "_asset",
          "type": "address"
        }
      ],
      "name": "collateralOnlyDeposits",
      "outputs": [
        {
          "internalType": "uint256",
          "name": "",
          "type": "uint256"
        }
      ],
      "stateMutability": "view",
      "type": "function"
    },
    {
      "inputs": [
        {
          "internalType": "contract ISilo",
          "name": "_silo",
          "type": "address"
        },
        {
          "internalType": "address",
          "name": "_asset",
          "type": "address"
        },
        {
          "internalType": "address",
          "name": "_user",
          "type": "address"
        }
      ],
      "name": "debtBalanceOfUnderlying",
      "outputs": [
        {
          "internalType": "uint256",
          "name": "",
          "type": "uint256"
        }
      ],
      "stateMutability": "view",
      "type": "function"
    },
    {
      "inputs": [
        {
          "internalType": "contract ISilo",
          "name": "_silo",
          "type": "address"
        },
        {
          "internalType": "address",
          "name": "_asset",
          "type": "address"
        }
      ],
      "name": "depositAPY",
      "outputs": [
        {
          "internalType": "uint256",
          "name": "",
          "type": "uint256"
        }
      ],
      "stateMutability": "view",
      "type": "function"
    },
    {
      "inputs": [
        {
          "internalType": "contract ISilo",
          "name": "_silo",
          "type": "address"
        },
        {
          "internalType": "address",
          "name": "_asset",
          "type": "address"
        },
        {
          "internalType": "address",
          "name": "_user",
          "type": "address"
        },
        {
          "internalType": "uint256",
          "name": "_timestamp",
          "type": "uint256"
        }
      ],
      "name": "getBorrowAmount",
      "outputs": [
        {
          "internalType": "uint256",
          "name": "",
          "type": "uint256"
        }
      ],
      "stateMutability": "view",
      "type": "function"
    },
    {
      "inputs": [
        {
          "internalType": "contract ISilo",
          "name": "_silo",
          "type": "address"
        },
        {
          "internalType": "address",
          "name": "_asset",
          "type": "address"
        }
      ],
      "name": "getModel",
      "outputs": [
        {
          "internalType": "contract IInterestRateModel",
          "name": "",
          "type": "address"
        }
      ],
      "stateMutability": "view",
      "type": "function"
    },
    {
      "inputs": [
        {
          "internalType": "contract ISilo",
          "name": "_silo",
          "type": "address"
        },
        {
          "internalType": "address",
          "name": "_user",
          "type": "address"
        }
      ],
      "name": "getUserLTV",
      "outputs": [
        {
          "internalType": "uint256",
          "name": "userLTV",
          "type": "uint256"
        }
      ],
      "stateMutability": "view",
      "type": "function"
    },
    {
      "inputs": [
        {
          "internalType": "contract ISilo",
          "name": "_silo",
          "type": "address"
        },
        {
          "internalType": "address",
          "name": "_user",
          "type": "address"
        }
      ],
      "name": "getUserLiquidationThreshold",
      "outputs": [
        {
          "internalType": "uint256",
          "name": "liquidationThreshold",
          "type": "uint256"
        }
      ],
      "stateMutability": "view",
      "type": "function"
    },
    {
      "inputs": [
        {
          "internalType": "contract ISilo",
          "name": "_silo",
          "type": "address"
        },
        {
          "internalType": "address",
          "name": "_user",
          "type": "address"
        }
      ],
      "name": "getUserMaximumLTV",
      "outputs": [
        {
          "internalType": "uint256",
          "name": "maximumLTV",
          "type": "uint256"
        }
      ],
      "stateMutability": "view",
      "type": "function"
    },
    {
      "inputs": [
        {
          "internalType": "contract ISilo",
          "name": "_silo",
          "type": "address"
        },
        {
          "internalType": "address",
          "name": "_asset",
          "type": "address"
        }
      ],
      "name": "getUtilization",
      "outputs": [
        {
          "internalType": "uint256",
          "name": "",
          "type": "uint256"
        }
      ],
      "stateMutability": "view",
      "type": "function"
    },
    {
      "inputs": [
        {
          "internalType": "contract ISilo",
          "name": "_silo",
          "type": "address"
        },
        {
          "internalType": "address",
          "name": "_user",
          "type": "address"
        }
      ],
      "name": "hasPosition",
      "outputs": [
        {
          "internalType": "bool",
          "name": "",
          "type": "bool"
        }
      ],
      "stateMutability": "view",
      "type": "function"
    },
    {
      "inputs": [
        {
          "internalType": "contract ISilo",
          "name": "_silo",
          "type": "address"
        },
        {
          "internalType": "address",
          "name": "_user",
          "type": "address"
        }
      ],
      "name": "inDebt",
      "outputs": [
        {
          "internalType": "bool",
          "name": "",
          "type": "bool"
        }
      ],
      "stateMutability": "view",
      "type": "function"
    },
    {
      "inputs": [],
      "name": "lensPing",
      "outputs": [
        {
          "internalType": "bytes4",
          "name": "",
          "type": "bytes4"
        }
      ],
      "stateMutability": "pure",
      "type": "function"
    },
    {
      "inputs": [
        {
          "internalType": "contract ISilo",
          "name": "_silo",
          "type": "address"
        },
        {
          "internalType": "address",
          "name": "_asset",
          "type": "address"
        }
      ],
      "name": "liquidity",
      "outputs": [
        {
          "internalType": "uint256",
          "name": "",
          "type": "uint256"
        }
      ],
      "stateMutability": "view",
      "type": "function"
    },
    {
      "inputs": [
        {
          "internalType": "contract ISilo",
          "name": "_silo",
          "type": "address"
        },
        {
          "internalType": "address",
          "name": "_asset",
          "type": "address"
        }
      ],
      "name": "protocolFees",
      "outputs": [
        {
          "internalType": "uint256",
          "name": "",
          "type": "uint256"
        }
      ],
      "stateMutability": "view",
      "type": "function"
    },
    {
      "inputs": [],
      "name": "siloRepository",
      "outputs": [
        {
          "internalType": "contract ISiloRepository",
          "name": "",
          "type": "address"
        }
      ],
      "stateMutability": "view",
      "type": "function"
    },
    {
      "inputs": [
        {
          "internalType": "contract ISilo",
          "name": "_silo",
          "type": "address"
        },
        {
          "internalType": "address",
          "name": "_asset",
          "type": "address"
        }
      ],
      "name": "totalBorrowAmount",
      "outputs": [
        {
          "internalType": "uint256",
          "name": "",
          "type": "uint256"
        }
      ],
      "stateMutability": "view",
      "type": "function"
    },
    {
      "inputs": [
        {
          "internalType": "contract ISilo",
          "name": "_silo",
          "type": "address"
        },
        {
          "internalType": "address",
          "name": "_asset",
          "type": "address"
        }
      ],
      "name": "totalBorrowAmountWithInterest",
      "outputs": [
        {
          "internalType": "uint256",
          "name": "_totalBorrowAmount",
          "type": "uint256"
        }
      ],
      "stateMutability": "view",
      "type": "function"
    },
    {
      "inputs": [
        {
          "internalType": "contract ISilo",
          "name": "_silo",
          "type": "address"
        },
        {
          "internalType": "address",
          "name": "_asset",
          "type": "address"
        }
      ],
      "name": "totalBorrowShare",
      "outputs": [
        {
          "internalType": "uint256",
          "name": "",
          "type": "uint256"
        }
      ],
      "stateMutability": "view",
      "type": "function"
    },
    {
      "inputs": [
        {
          "internalType": "contract ISilo",
          "name": "_silo",
          "type": "address"
        },
        {
          "internalType": "address",
          "name": "_asset",
          "type": "address"
        }
      ],
      "name": "totalDeposits",
      "outputs": [
        {
          "internalType": "uint256",
          "name": "",
          "type": "uint256"
        }
      ],
      "stateMutability": "view",
      "type": "function"
    },
    {
      "inputs": [
        {
          "internalType": "contract ISilo",
          "name": "_silo",
          "type": "address"
        },
        {
          "internalType": "address",
          "name": "_asset",
          "type": "address"
        }
      ],
      "name": "totalDepositsWithInterest",
      "outputs": [
        {
          "internalType": "uint256",
          "name": "_totalDeposits",
          "type": "uint256"
        }
      ],
      "stateMutability": "view",
      "type": "function"
    }
  ],
  "transactionHash": "0xe6a0397c2496b4f8022d9c9991cf3796e25f0943db4ba99fdc2324145a31ccec",
  "args": [
    "0x4B2f32F5DA9aaA42a111f2ae481f566F97d4b62E"
  ],
  "numDeployments": 11,
  "solcInputHash": "3e41dd26f38edd997c27d880b9402ef9",
  "bytecode": "0x60a06040523480156200001157600080fd5b506040516200353838038062003538833981016040819052620000349162000112565b62000058816001600160a01b031663e99ed41d6200008860201b62001ce31760201c565b6200007657604051639f45596360e01b815260040160405180910390fd5b6001600160a01b031660805262000169565b60006001600160a01b038316158015906200010b575082826040518163ffffffff1660e01b8152600401602060405180830381865afa158015620000d0573d6000803e3d6000fd5b505050506040513d601f19601f82011682018060405250810190620000f691906200013d565b60e083901b6001600160e01b03199081169116145b9392505050565b6000602082840312156200012557600080fd5b81516001600160a01b03811681146200010b57600080fd5b6000602082840312156200015057600080fd5b81516001600160e01b0319811681146200010b57600080fd5b608051613358620001e0600039600081816103b8015281816107dc0152818161093f01528181610a7a01528181610c3d01528181610d6d01528181610e18015281816113180152818161139e0152818161151e01528181611624015281816118e30152818161190b0152611bd801526133586000f3fe608060405234801561001057600080fd5b50600436106101a95760003560e01c806382656b50116100f9578063a43f23a311610097578063b221728111610071578063b2217281146103a0578063bde12718146103b3578063c719a396146103da578063c8de8451146103ed57600080fd5b8063a43f23a314610367578063af82d2bc1461037a578063b003ec141461038d57600080fd5b806388a9af40116100d357806388a9af40146103035780638feddfec14610316578063970d45e514610341578063993dadeb1461035457600080fd5b806382656b50146102ca5780638705c359146102dd57806387f04140146102f057600080fd5b806359e9e79911610166578063738a3a1e11610140578063738a3a1e1461027e57806375dc7d8c1461029157806375f746c9146102a457806379a5e106146102b757600080fd5b806359e9e799146102455780637343901914610258578063737f6e421461026b57600080fd5b806302f417d3146101ae578063035054cd146101d4578063153ef040146101e957806324bc00b0146101fc5780632dc09ae41461021f57806343afdad214610232575b600080fd5b6101c16101bc366004612c34565b610400565b6040519081526020015b60405180910390f35b60405163035054cd60e01b81526020016101cb565b6101c16101f7366004612c76565b6104ea565b61020f61020a366004612c76565b610565565b60405190151581526020016101cb565b6101c161022d366004612caf565b6107d7565b6101c1610240366004612c76565b6109fb565b6101c1610253366004612c76565b610ae0565b6101c1610266366004612cdf565b610bc5565b6101c1610279366004612c76565b610c71565b6101c161028c366004612c76565b610d64565b6101c161029f366004612d30565b610e13565b6101c16102b2366004612c76565b610ebf565b6101c16102c5366004612c76565b610f35565b6101c16102d8366004612caf565b610fae565b61020f6102eb366004612c76565b61108c565b6101c16102fe366004612c76565b611220565b6101c1610311366004612c76565b611299565b610329610324366004612c76565b611374565b6040516001600160a01b0390911681526020016101cb565b6101c161034f366004612c76565b61140b565b6101c1610362366004612c76565b611491565b6101c1610375366004612caf565b61161f565b6101c1610388366004612caf565b61194e565b6101c161039b366004612caf565b6119d2565b6101c16103ae366004612c76565b611a73565b6103297f000000000000000000000000000000000000000000000000000000000000000081565b6101c16103e8366004612c76565b611b59565b6101c16103fb366004612c76565b611c34565b6040516370a0823160e01b81526001600160a01b03828116600483015260009182918516906370a0823190602401602060405180830381865afa15801561044b573d6000803e3d6000fd5b505050506040513d601f19601f8201168201806040525081019061046f9190612d49565b90506104df85856001600160a01b03166318160ddd6040518163ffffffff1660e01b8152600401602060405180830381865afa1580156104b3573d6000803e3d6000fd5b505050506040513d601f19601f820116820180604052508101906104d79190612d49565b839190611d69565b9150505b9392505050565b60405163bf27304160e01b81526001600160a01b0382811660048301526000919084169063bf2730419060240160c060405180830381865afa158015610534573d6000803e3d6000fd5b505050506040513d601f19601f820116820180604052508101906105589190612e40565b6080015190505b92915050565b600080836001600160a01b03166364654cf56040518163ffffffff1660e01b8152600401600060405180830381865afa1580156105a6573d6000803e3d6000fd5b505050506040513d6000823e601f3d908101601f191682016040526105ce9190810190612ef4565b91505060005b81518110156107cc578181815181106105ef576105ef612fb8565b6020026020010151604001516001600160a01b03166370a08231856040518263ffffffff1660e01b815260040161063591906001600160a01b0391909116815260200190565b602060405180830381865afa158015610652573d6000803e3d6000fd5b505050506040513d601f19601f820116820180604052508101906106769190612d49565b156106865760019250505061055f565b81818151811061069857610698612fb8565b6020908102919091010151516040516370a0823160e01b81526001600160a01b038681166004830152909116906370a0823190602401602060405180830381865afa1580156106eb573d6000803e3d6000fd5b505050506040513d601f19601f8201168201806040525081019061070f9190612d49565b1561071f5760019250505061055f565b81818151811061073157610731612fb8565b60209081029190910181015101516040516370a0823160e01b81526001600160a01b038681166004830152909116906370a0823190602401602060405180830381865afa158015610786573d6000803e3d6000fd5b505050506040513d601f19601f820116820180604052508101906107aa9190612d49565b156107ba5760019250505061055f565b806107c481612fe4565b9150506105d4565b506000949350505050565b6000807f00000000000000000000000000000000000000000000000000000000000000006001600160a01b0316635ddf2be36040518163ffffffff1660e01b8152600401602060405180830381865afa158015610838573d6000803e3d6000fd5b505050506040513d601f19601f8201168201806040525081019061085c9190612ffd565b6040516341976e0960e01b81526001600160a01b0385811660048301529192506000918316906341976e0990602401602060405180830381865afa1580156108a8573d6000803e3d6000fd5b505050506040513d601f19601f820116820180604052508101906108cc9190612d49565b90506000846001600160a01b031663313ce5676040518163ffffffff1660e01b8152600401602060405180830381865afa15801561090e573d6000803e3d6000fd5b505050506040513d601f19601f82011682018060405250810190610932919061301a565b60ff1690506000610965887f00000000000000000000000000000000000000000000000000000000000000008842611dc7565b60405163bf27304160e01b81526001600160a01b0388811660048301529192506000916109e191908b169063bf2730419060240160c060405180830381865afa1580156109b6573d6000803e3d6000fd5b505050506040513d601f19601f820116820180604052508101906109da9190612e40565b8984611ebb565b90506109ee818585611fc7565b9998505050505050505050565b6000806000846001600160a01b03166364654cf56040518163ffffffff1660e01b8152600401600060405180830381865afa158015610a3e573d6000803e3d6000fd5b505050506040513d6000823e601f3d908101601f19168201604052610a669190810190612ef4565b91509150610ad66040518060a001604052807f00000000000000000000000000000000000000000000000000000000000000006001600160a01b03168152602001876001600160a01b03168152602001848152602001838152602001866001600160a01b03168152506000611fe8565b5095945050505050565b600080610aed8484611374565b6001600160a01b0316636bcc82166040518163ffffffff1660e01b8152600401602060405180830381865afa158015610b2a573d6000803e3d6000fd5b505050506040513d601f19601f82011682018060405250810190610b4e9190612d49565b90506000610b5c8585611491565b905080600003610b715760009250505061055f565b600082610b7e878761140b565b610b888888610d64565b610b92919061303d565b610b9c9190613072565b905081610bb1670de0b6b3a76400008361303d565b610bbb9190613072565b9695505050505050565b60405163bf27304160e01b81526001600160a01b038481166004830152600091610c689187169063bf2730419060240160c060405180830381865afa158015610c12573d6000803e3d6000fd5b505050506040513d601f19601f82011682018060405250810190610c369190612e40565b84610c63887f00000000000000000000000000000000000000000000000000000000000000008988611dc7565b611ebb565b95945050505050565b604051631f0f875560e31b81526001600160a01b038281166004830152600091829185169063f87c3aa890602401606060405180830381865afa158015610cbc573d6000803e3d6000fd5b505050506040513d601f19601f82011682018060405250810190610ce091906130a3565b9050610d5c610cef8585611374565b6001600160a01b0316636bcc82166040518163ffffffff1660e01b8152600401602060405180830381865afa158015610d2c573d6000803e3d6000fd5b505050506040513d601f19601f82011682018060405250810190610d509190612d49565b82516020840151612158565b949350505050565b600080610d93847f00000000000000000000000000000000000000000000000000000000000000008542611dc7565b604051631f0f875560e31b81526001600160a01b03858116600483015291925060009186169063f87c3aa890602401606060405180830381865afa158015610ddf573d6000803e3d6000fd5b505050506040513d601f19601f82011682018060405250810190610e0391906130a3565b9050610c6881602001518361217d565b6000807f00000000000000000000000000000000000000000000000000000000000000006001600160a01b031663072ea61c6040518163ffffffff1660e01b8152600401602060405180830381865afa158015610e74573d6000803e3d6000fd5b505050506040513d601f19601f82011682018060405250810190610e989190612d49565b905080600003610eab5750600092915050565b670de0b6b3a7640000838202049392505050565b604051631f0f875560e31b81526001600160a01b0382811660048301526000919084169063f87c3aa890602401606060405180830381865afa158015610f09573d6000803e3d6000fd5b505050506040513d601f19601f82011682018060405250810190610f2d91906130a3565b519392505050565b60405163fb25570360e01b81526001600160a01b0382811660048301526000919084169063fb25570390602401608060405180830381865afa158015610f7f573d6000803e3d6000fd5b505050506040513d601f19601f82011682018060405250810190610fa39190613103565b602001519392505050565b60405163bf27304160e01b81526001600160a01b0383811660048301526000919085169063bf2730419060240160c060405180830381865afa158015610ff8573d6000803e3d6000fd5b505050506040513d601f19601f8201168201806040525081019061101c9190612e40565b60409081015190516370a0823160e01b81526001600160a01b038481166004830152909116906370a0823190602401602060405180830381865afa158015611068573d6000803e3d6000fd5b505050506040513d601f19601f82011682018060405250810190610d5c9190612d49565b600080836001600160a01b03166367e4ac2c6040518163ffffffff1660e01b8152600401600060405180830381865afa1580156110cd573d6000803e3d6000fd5b505050506040513d6000823e601f3d908101601f191682016040526110f5919081019061317a565b905060005b81518110156107cc57846001600160a01b031663bf27304183838151811061112457611124612fb8565b60200260200101516040518263ffffffff1660e01b815260040161115791906001600160a01b0391909116815260200190565b60c060405180830381865afa158015611174573d6000803e3d6000fd5b505050506040513d601f19601f820116820180604052508101906111989190612e40565b60409081015190516370a0823160e01b81526001600160a01b038681166004830152909116906370a0823190602401602060405180830381865afa1580156111e4573d6000803e3d6000fd5b505050506040513d601f19601f820116820180604052508101906112089190612d49565b156112185760019250505061055f565b6001016110fa565b60405163bf27304160e01b81526001600160a01b0382811660048301526000919084169063bf2730419060240160c060405180830381865afa15801561126a573d6000803e3d6000fd5b505050506040513d601f19601f8201168201806040525081019061128e9190612e40565b60a001519392505050565b6000806000846001600160a01b03166364654cf56040518163ffffffff1660e01b8152600401600060405180830381865afa1580156112dc573d6000803e3d6000fd5b505050506040513d6000823e601f3d908101601f191682016040526113049190810190612ef4565b91509150610c686040518060a001604052807f00000000000000000000000000000000000000000000000000000000000000006001600160a01b03168152602001876001600160a01b03168152602001848152602001838152602001866001600160a01b031681525060016121a6565b60405163122cfaaf60e21b81526001600160a01b03838116600483015282811660248301526000917f0000000000000000000000000000000000000000000000000000000000000000909116906348b3eabc90604401602060405180830381865afa1580156113e7573d6000803e3d6000fd5b505050506040513d601f19601f820116820180604052508101906104e39190612ffd565b60006114178383611374565b60405163071962ff60e01b81526001600160a01b0385811660048301528481166024830152426044830152919091169063071962ff90606401602060405180830381865afa15801561146d573d6000803e3d6000fd5b505050506040513d601f19601f820116820180604052508101906104e39190612d49565b60008061149e8484611374565b60405163b1e0176560e01b81526001600160a01b0386811660048301528581166024830152426044830152919091169063b1e0176590606401602060405180830381865afa1580156114f4573d6000803e3d6000fd5b505050506040513d601f19601f820116820180604052508101906115189190612d49565b905060007f00000000000000000000000000000000000000000000000000000000000000006001600160a01b03166325ed3d446040518163ffffffff1660e01b8152600401602060405180830381865afa15801561157a573d6000803e3d6000fd5b505050506040513d601f19601f8201168201806040525081019061159e9190612d49565b604051631f0f875560e31b81526001600160a01b03868116600483015291925060009187169063f87c3aa890602401606060405180830381865afa1580156115ea573d6000803e3d6000fd5b505050506040513d601f19601f8201168201806040525081019061160e91906130a3565b9050610bbb81600001518385612285565b6000807f00000000000000000000000000000000000000000000000000000000000000006001600160a01b0316635ddf2be36040518163ffffffff1660e01b8152600401602060405180830381865afa158015611680573d6000803e3d6000fd5b505050506040513d601f19601f820116820180604052508101906116a49190612ffd565b60405163bf27304160e01b81526001600160a01b03858116600483015291925060009187169063bf2730419060240160c060405180830381865afa1580156116f0573d6000803e3d6000fd5b505050506040513d601f19601f820116820180604052508101906117149190612e40565b6040516341976e0960e01b81526001600160a01b0386811660048301529192506000918416906341976e0990602401602060405180830381865afa158015611760573d6000803e3d6000fd5b505050506040513d601f19601f820116820180604052508101906117849190612d49565b90506000856001600160a01b031663313ce5676040518163ffffffff1660e01b8152600401602060405180830381865afa1580156117c6573d6000803e3d6000fd5b505050506040513d601f19601f820116820180604052508101906117ea919061301a565b83516040516370a0823160e01b81526001600160a01b038a81166004830152929350600092909116906370a0823190602401602060405180830381865afa158015611839573d6000803e3d6000fd5b505050506040513d601f19601f8201168201806040525081019061185d9190612d49565b60208501516040516370a0823160e01b81526001600160a01b038b81166004830152929350600092909116906370a0823190602401602060405180830381865afa1580156118af573d6000803e3d6000fd5b505050506040513d601f19601f820116820180604052508101906118d39190612d49565b9050600061192f8684846119098f7f00000000000000000000000000000000000000000000000000000000000000008f42611dc7565b7f00000000000000000000000000000000000000000000000000000000000000006122d9565b905061193f818660ff8716611fc7565b9b9a5050505050505050505050565b60405163bf27304160e01b81526001600160a01b038381166004830152600091829186169063bf2730419060240160c060405180830381865afa158015611999573d6000803e3d6000fd5b505050506040513d601f19601f820116820180604052508101906119bd9190612e40565b90506104df8160a00151826040015185610400565b60405163bf27304160e01b81526001600160a01b038381166004830152600091829186169063bf2730419060240160c060405180830381865afa158015611a1d573d6000803e3d6000fd5b505050506040513d601f19601f82011682018060405250810190611a419190612e40565b9050611a568160800151826020015185610400565b611a698260600151836000015186610400565b0195945050505050565b60405163bf27304160e01b81526001600160a01b0382811660048301526000919084169063bf2730419060240160c060405180830381865afa158015611abd573d6000803e3d6000fd5b505050506040513d601f19601f82011682018060405250810190611ae19190612e40565b608001516040516370a0823160e01b81526001600160a01b0385811660048301528416906370a0823190602401602060405180830381865afa158015611b2b573d6000803e3d6000fd5b505050506040513d601f19601f82011682018060405250810190611b4f9190612d49565b6104e391906131af565b6000806000846001600160a01b03166364654cf56040518163ffffffff1660e01b8152600401600060405180830381865afa158015611b9c573d6000803e3d6000fd5b505050506040513d6000823e601f3d908101601f19168201604052611bc49190810190612ef4565b91509150610c686040518060a001604052807f00000000000000000000000000000000000000000000000000000000000000006001600160a01b03168152602001876001600160a01b03168152602001848152602001838152602001866001600160a01b031681525060006121a6565b60405163bf27304160e01b81526001600160a01b0382811660048301526000919084169063bf2730419060240160c060405180830381865afa158015611c7e573d6000803e3d6000fd5b505050506040513d601f19601f82011682018060405250810190611ca29190612e40565b604001516001600160a01b03166318160ddd6040518163ffffffff1660e01b8152600401602060405180830381865afa15801561146d573d6000803e3d6000fd5b60006001600160a01b038316158015906104e3575082826040518163ffffffff1660e01b8152600401602060405180830381865afa158015611d29573d6000803e3d6000fd5b505050506040513d601f19601f82011682018060405250810190611d4d91906131c6565b60e083901b6001600160e01b0319908116911614905092915050565b6000811580611d76575082155b15611d83575060006104e3565b600082611d90858761303d565b611d9a9190613072565b905080158015611da957508415155b15610d5c57604051630cb65c7760e21b815260040160405180910390fd5b60405163122cfaaf60e21b81526001600160a01b038581166004830152838116602483015260009182918616906348b3eabc90604401602060405180830381865afa158015611e1a573d6000803e3d6000fd5b505050506040513d601f19601f82011682018060405250810190611e3e9190612ffd565b60405163b1e0176560e01b81526001600160a01b0388811660048301528681166024830152604482018690529192509082169063b1e0176590606401602060405180830381865afa158015611e97573d6000803e3d6000fd5b505050506040513d601f19601f82011682018060405250810190610bbb9190612d49565b60408084015190516370a0823160e01b81526001600160a01b03848116600483015260009283929116906370a0823190602401602060405180830381865afa158015611f0b573d6000803e3d6000fd5b505050506040513d601f19601f82011682018060405250810190611f2f9190612d49565b905080600003611f435760009150506104e3565b6000611f538660a001518561217d565b9050610bbb8187604001516001600160a01b03166318160ddd6040518163ffffffff1660e01b8152600401602060405180830381865afa158015611f9b573d6000803e3d6000fd5b505050506040513d601f19601f82011682018060405250810190611fbf9190612d49565b84919061243f565b6000611fd482600a6132d4565b611fde848661303d565b610d5c9190613072565b6000806000611ff68561248f565b9050612001816125ac565b600003612015576000809250925050612151565b600085600001516001600160a01b0316635ddf2be36040518163ffffffff1660e01b8152600401602060405180830381865afa158015612059573d6000803e3d6000fd5b505050506040513d601f19601f8201168201806040525081019061207d9190612ffd565b90506000612090828860400151856125f2565b9050600061209d826125ac565b9050806000036120b7576000809550955050505050612151565b60006120c3848a61280e565b905060006120d0826125ac565b9050806000036120ee57600019600097509750505050505050612151565b60006121098b600001518c602001518d604001518d8761282c565b90508161211e670de0b6b3a76400008661303d565b6121289190613072565b98508161213d670de0b6b3a76400008361303d565b6121479190613072565b9750505050505050505b9250929050565b6000821580612165575081155b15612172575060006104e3565b82611fde858461303d565b6000670de0b6b3a7640000612192838561303d565b61219c9190613072565b6104e390846132e0565b60008083600001516001600160a01b0316635ddf2be36040518163ffffffff1660e01b8152600401602060405180830381865afa1580156121eb573d6000803e3d6000fd5b505050506040513d601f19601f8201168201806040525081019061220f9190612ffd565b9050600061221d828661280e565b9050600061222a826125ac565b905080600003612240576000935050505061055f565b600061225b876000015188602001518960400151898761282c565b905081612270670de0b6b3a76400008361303d565b61227a9190613072565b979650505050505050565b60008061229a84670de0b6b3a76400006131af565b9050670de0b6b3a764000081816122b1868961303d565b6122bb9190613072565b6122c5919061303d565b6122cf9190613072565b6104df90866132e0565b60008085156123c8576123c36123558860600151856001600160a01b03166325ed3d446040518163ffffffff1660e01b8152600401602060405180830381865afa15801561232b573d6000803e3d6000fd5b505050506040513d601f19601f8201168201806040525081019061234f9190612d49565b87612285565b88600001516001600160a01b03166318160ddd6040518163ffffffff1660e01b8152600401602060405180830381865afa158015612397573d6000803e3d6000fd5b505050506040513d601f19601f820116820180604052508101906123bb9190612d49565b889190611d69565b6123cb565b60005b9050600085156124245761241f886080015189602001516001600160a01b03166318160ddd6040518163ffffffff1660e01b8152600401602060405180830381865afa158015612397573d6000803e3d6000fd5b612427565b60005b905061243381836132e0565b98975050505050505050565b600081158061244c575082155b15612459575060006104e3565b6000612465848661303d565b905060006124738483613072565b905061247f84836132f8565b156104df57610bbb6001826132e0565b6060816060015151826040015151146124bb5760405163dba17af560e01b815260040160405180910390fd5b81604001515167ffffffffffffffff8111156124d9576124d9612d62565b604051908082528060200260200182016040528015612502578160200160208202803683370190505b50905060005b8260400151518110156125a6576000612548846020015185600001518660400151858151811061253a5761253a612fb8565b602002602001015142611dc7565b90506125768460600151838151811061256357612563612fb8565b6020026020010151856080015183611ebb565b83838151811061258857612588612fb8565b6020908102919091010152508061259e81612fe4565b915050612508565b50919050565b6000805b82518110156125a6578281815181106125cb576125cb612fb8565b6020026020010151826125de91906132e0565b9150806125ea81612fe4565b9150506125b0565b606081518351146126165760405163dba17af560e01b815260040160405180910390fd5b825167ffffffffffffffff81111561263057612630612d62565b604051908082528060200260200182016040528015612659578160200160208202803683370190505b50905060005b83518110156128065782818151811061267a5761267a612fb8565b6020026020010151600003156127f4576000856001600160a01b03166341976e098684815181106126ad576126ad612fb8565b60200260200101516040518263ffffffff1660e01b81526004016126e091906001600160a01b0391909116815260200190565b602060405180830381865afa1580156126fd573d6000803e3d6000fd5b505050506040513d601f19601f820116820180604052508101906127219190612d49565b9050600085838151811061273757612737612fb8565b60200260200101516001600160a01b031663313ce5676040518163ffffffff1660e01b8152600401602060405180830381865afa15801561277c573d6000803e3d6000fd5b505050506040513d601f19601f820116820180604052508101906127a0919061301a565b90506127d3828260ff168786815181106127bc576127bc612fb8565b6020026020010151611fc79092919063ffffffff16565b8484815181106127e5576127e5612fb8565b60200260200101818152505050505b806127fe81612fe4565b91505061265f565b509392505050565b6060600061281b836128b9565b9050610d5c848460400151836125f2565b600081518451146128505760405163dba17af560e01b815260040160405180910390fd5b60005b8451811015610ad65761289b878787848151811061287357612873612fb8565b60200260200101518787868151811061288e5761288e612fb8565b6020026020010151612b0c565b6128a590836132e0565b9150806128b181612fe4565b915050612853565b6060816060015151826040015151146128e55760405163dba17af560e01b815260040160405180910390fd5b81604001515167ffffffffffffffff81111561290357612903612d62565b60405190808252806020026020018201604052801561292c578160200160208202803683370190505b50905060005b8260400151518110156125a65760008360600151828151811061295757612957612fb8565b60209081029190910101515160808501516040516370a0823160e01b81526001600160a01b0391821660048201529116906370a0823190602401602060405180830381865afa1580156129ae573d6000803e3d6000fd5b505050506040513d601f19601f820116820180604052508101906129d29190612d49565b90506000846060015183815181106129ec576129ec612fb8565b602090810291909101810151015160808601516040516370a0823160e01b81526001600160a01b0391821660048201529116906370a0823190602401602060405180830381865afa158015612a45573d6000803e3d6000fd5b505050506040513d601f19601f82011682018060405250810190612a699190612d49565b9050612a7581836132e0565b600003612a83575050612afa565b6000612aa8866020015187600001518860400151878151811061253a5761253a612fb8565b9050612ad886606001518581518110612ac357612ac3612fb8565b60200260200101518484848a600001516122d9565b858581518110612aea57612aea612fb8565b6020026020010181815250505050505b80612b0481612fe4565b915050612932565b60008080846001811115612b2257612b2261330c565b03612ba1576040516330be9d2560e21b81526001600160a01b038781166004830152868116602483015288169063c2fa7494906044015b602060405180830381865afa158015612b76573d6000803e3d6000fd5b505050506040513d601f19601f82011682018060405250810190612b9a9190612d49565b9050612c09565b6001846001811115612bb557612bb561330c565b03612bf057604051630ca4db1160e21b81526001600160a01b03878116600483015286811660248301528816906332936c4490604401612b59565b6040516353c3731560e01b815260040160405180910390fd5b670de0b6b3a7640000612270828561303d565b6001600160a01b0381168114612c3157600080fd5b50565b600080600060608486031215612c4957600080fd5b833592506020840135612c5b81612c1c565b91506040840135612c6b81612c1c565b809150509250925092565b60008060408385031215612c8957600080fd5b8235612c9481612c1c565b91506020830135612ca481612c1c565b809150509250929050565b600080600060608486031215612cc457600080fd5b8335612ccf81612c1c565b92506020840135612c5b81612c1c565b60008060008060808587031215612cf557600080fd5b8435612d0081612c1c565b93506020850135612d1081612c1c565b92506040850135612d2081612c1c565b9396929550929360600135925050565b600060208284031215612d4257600080fd5b5035919050565b600060208284031215612d5b57600080fd5b5051919050565b634e487b7160e01b600052604160045260246000fd5b604051601f8201601f1916810167ffffffffffffffff81118282101715612da157612da1612d62565b604052919050565b600060c08284031215612dbb57600080fd5b60405160c0810181811067ffffffffffffffff82111715612dde57612dde612d62565b80604052508091508251612df181612c1c565b81526020830151612e0181612c1c565b60208201526040830151612e1481612c1c565b80604083015250606083015160608201526080830151608082015260a083015160a08201525092915050565b600060c08284031215612e5257600080fd5b6104e38383612da9565b600067ffffffffffffffff821115612e7657612e76612d62565b5060051b60200190565b600082601f830112612e9157600080fd5b81516020612ea6612ea183612e5c565b612d78565b82815260059290921b84018101918181019086841115612ec557600080fd5b8286015b84811015612ee9578051612edc81612c1c565b8352918301918301612ec9565b509695505050505050565b60008060408385031215612f0757600080fd5b825167ffffffffffffffff80821115612f1f57600080fd5b612f2b86838701612e80565b9350602091508185015181811115612f4257600080fd5b85019050601f81018613612f5557600080fd5b8051612f63612ea182612e5c565b81815260c09182028301840191848201919089841115612f8257600080fd5b938501935b83851015612fa857612f998a86612da9565b83529384019391850191612f87565b5080955050505050509250929050565b634e487b7160e01b600052603260045260246000fd5b634e487b7160e01b600052601160045260246000fd5b600060018201612ff657612ff6612fce565b5060010190565b60006020828403121561300f57600080fd5b81516104e381612c1c565b60006020828403121561302c57600080fd5b815160ff811681146104e357600080fd5b600081600019048311821515161561305757613057612fce565b500290565b634e487b7160e01b600052601260045260246000fd5b6000826130815761308161305c565b500490565b805167ffffffffffffffff8116811461309e57600080fd5b919050565b6000606082840312156130b557600080fd5b6040516060810181811067ffffffffffffffff821117156130d8576130d8612d62565b806040525082518152602083015160208201526130f760408401613086565b60408201529392505050565b60006080828403121561311557600080fd5b6040516080810181811067ffffffffffffffff8211171561313857613138612d62565b8060405250825181526020830151602082015261315760408401613086565b604082015260608301516003811061316e57600080fd5b60608201529392505050565b60006020828403121561318c57600080fd5b815167ffffffffffffffff8111156131a357600080fd5b610d5c84828501612e80565b6000828210156131c1576131c1612fce565b500390565b6000602082840312156131d857600080fd5b81516001600160e01b0319811681146104e357600080fd5b600181815b8085111561322b57816000190482111561321157613211612fce565b8085161561321e57918102915b93841c93908002906131f5565b509250929050565b6000826132425750600161055f565b8161324f5750600061055f565b8160018114613265576002811461326f5761328b565b600191505061055f565b60ff84111561328057613280612fce565b50506001821b61055f565b5060208310610133831016604e8410600b84101617156132ae575081810a61055f565b6132b883836131f0565b80600019048211156132cc576132cc612fce565b029392505050565b60006104e38383613233565b600082198211156132f3576132f3612fce565b500190565b6000826133075761330761305c565b500690565b634e487b7160e01b600052602160045260246000fdfea26469706673582212201f374d616becd9a2df556025bd67b59647a7747343a3de310c2074f0ffbbbaa464736f6c634300080d0033",
  "devdoc": {
    "custom:security-contact": "security@silo.finance",
    "kind": "dev",
    "methods": {
      "balanceOfUnderlying(uint256,address,address)": {
        "details": "You can think about debt and collateral tokens as cToken in compound. They represent ownership of debt or collateral in given Silo. This method converts that ownership to exact amount of underlying token.",
        "params": {
          "_assetTotalDeposits": "Total amount of assets that has been deposited or borrowed. For collateral token, use `totalDeposits` to get this value. For debt token, use `totalBorrowAmount` to get this value.",
          "_shareToken": "share token address. It's the collateral and debt share token address. You can find these addresses in: - `ISilo.AssetStorage.collateralToken` - `ISilo.AssetStorage.collateralOnlyToken` - `ISilo.AssetStorage.debtToken`",
          "_user": "wallet address for which to read data"
        },
        "returns": {
          "_0": "balance of underlying token deposited or borrowed of given user"
        }
      },
      "borrowAPY(address,address)": {
        "params": {
          "_asset": "asset address",
          "_silo": "Silo address from which to read data"
        },
        "returns": {
          "_0": "APY with 18 decimals"
        }
      },
      "borrowShare(address,address,address)": {
        "details": "Debt token represents a share in total debt of given asset. This method calls balanceOf(_user) on that token.",
        "params": {
          "_asset": "asset address for which to read data",
          "_silo": "Silo address from which to read data",
          "_user": "wallet address for which to read data"
        },
        "returns": {
          "_0": "balance of debt token of given user"
        }
      },
      "calcFee(uint256)": {
        "params": {
          "_amount": "amount for which to calculate fee"
        },
        "returns": {
          "_0": "Amount of token fee to be paid"
        }
      },
      "calculateBorrowValue(address,address,address)": {
        "details": "It dynamically adds interest earned to borrowed amount",
        "params": {
          "_asset": "token address for which calculation are done",
          "_silo": "Silo address from which to read data",
          "_user": "account for which calculation are done"
        },
        "returns": {
          "_0": "value of debt denominated in quote token with 18 decimal"
        }
      },
      "calculateCollateralValue(address,address,address)": {
        "details": "It dynamically adds interest earned. Takes for account collateral only deposits as well.",
        "params": {
          "_asset": "token address for which calculation are done",
          "_silo": "Silo address from which to read data",
          "_user": "account for which calculation are done"
        },
        "returns": {
          "_0": "value of collateral denominated in quote token with 18 decimal"
        }
      },
      "collateralBalanceOfUnderlying(address,address,address)": {
        "details": "It reads directly from storage so interest generated between last update and now is not taken for account",
        "params": {
          "_asset": "asset address for which to read data",
          "_silo": "Silo address from which to read data",
          "_user": "wallet address for which to read data"
        },
        "returns": {
          "_0": "balance of underlying tokens for the given user"
        }
      },
      "collateralOnlyDeposits(address,address)": {
        "details": "It reads directly from storage so interest generated between last update and now is not taken for account",
        "params": {
          "_asset": "asset address for which to read data",
          "_silo": "Silo address from which to read data"
        },
        "returns": {
          "_0": "amount of all \"collateralOnly\" deposits made for given asset"
        }
      },
      "debtBalanceOfUnderlying(address,address,address)": {
        "details": "It reads directly from storage so interest generated between last update and now is not taken for account",
        "params": {
          "_asset": "asset address for which to read data",
          "_silo": "Silo address from which to read data",
          "_user": "wallet address for which to read data"
        },
        "returns": {
          "_0": "balance of underlying token owed"
        }
      },
      "depositAPY(address,address)": {
        "params": {
          "_asset": "asset address",
          "_silo": "Silo address from which to read data"
        },
        "returns": {
          "_0": "APY with 18 decimals"
        }
      },
      "getBorrowAmount(address,address,address,uint256)": {
        "details": "Interest is calculated based on the provided timestamp with is expected to be current time.",
        "params": {
          "_asset": "token address for which calculation are done",
          "_silo": "Silo address from which to read data",
          "_timestamp": "timestamp used for interest calculations",
          "_user": "account for which calculation are done"
        },
        "returns": {
          "_0": "total amount of asset user needs to repay at provided timestamp"
        }
      },
      "getModel(address,address)": {
        "details": "gets interest rates model object",
        "params": {
          "_asset": "asset for which to calculate interest rate",
          "_silo": "Silo address from which to read data"
        },
        "returns": {
          "_0": "IInterestRateModel interest rates model object"
        }
      },
      "getUserLTV(address,address)": {
        "details": "Each Silo has multiple asset markets (bridge assets + unique asset). This function calculates a sum of all deposits and all borrows denominated in quote token. Returns fraction between borrow value and deposit value with 18 decimals.",
        "params": {
          "_silo": "Silo address from which to read data",
          "_user": "wallet address for which LTV is calculated"
        },
        "returns": {
          "userLTV": "user current LTV with 18 decimals"
        }
      },
      "getUserLiquidationThreshold(address,address)": {
        "details": "Methodology for calculating liquidation threshold is as follows. Each Silo is combined form multiple assets (bridge assets + unique asset). Each of these assets may have different liquidation threshold. That means effective liquidation threshold must be calculated per asset based on current deposits and borrows of given account.",
        "params": {
          "_silo": "Silo address from which to read data",
          "_user": "wallet address for which to read data"
        },
        "returns": {
          "liquidationThreshold": "liquidation threshold of given user"
        }
      },
      "getUserMaximumLTV(address,address)": {
        "details": "Methodology for calculating maximum LTV is as follows. Each Silo is combined form multiple assets (bridge assets + unique asset). Each of these assets may have different maximum Loan-To-Value for opening borrow position. That means effective maximum LTV must be calculated per asset based on current deposits and borrows of given account.",
        "params": {
          "_silo": "Silo address from which to read data",
          "_user": "wallet address for which to read data"
        },
        "returns": {
          "maximumLTV": "Maximum Loan-To-Value of given user"
        }
      },
      "getUtilization(address,address)": {
        "details": "Utilization is calculated current values in storage so it does not take for account earned interest and ever-increasing total borrow amount. It assumes `Model.DP()` = 100%.",
        "params": {
          "_asset": "asset address",
          "_silo": "Silo address from which to read data"
        },
        "returns": {
          "_0": "utilization value"
        }
      },
      "hasPosition(address,address)": {
        "params": {
          "_silo": "Silo address from which to read data",
          "_user": "wallet address for which to read data"
        },
        "returns": {
          "_0": "TRUE if user has position (debt or borrow) in any asset"
        }
      },
      "inDebt(address,address)": {
        "params": {
          "_silo": "Silo address from which to read data",
          "_user": "wallet address for which to read data"
        },
        "returns": {
          "_0": "TRUE if user borrowed any amount of any asset, otherwise FALSE"
        }
      },
      "lensPing()": {
        "details": "Method for sanity check",
        "returns": {
          "_0": "always true"
        }
      },
      "liquidity(address,address)": {
        "details": "Amount of token that is available for borrowing.",
        "params": {
          "_asset": "asset address for which to read data",
          "_silo": "Silo address from which to read data"
        },
        "returns": {
          "_0": "Silo liquidity"
        }
      },
      "protocolFees(address,address)": {
        "details": "It reads directly from storage so interest generated between last update and now is not taken for account",
        "params": {
          "_asset": "asset address for which to read data",
          "_silo": "Silo address from which to read data"
        },
        "returns": {
          "_0": "amount of fees earned by protocol to date"
        }
      },
      "totalBorrowAmount(address,address)": {
        "details": "It reads directly from storage so interest generated between last update and now is not taken for account",
        "params": {
          "_asset": "asset address for which to read data",
          "_silo": "Silo address from which to read data"
        },
        "returns": {
          "_0": "amount of asset that has been borrowed"
        }
      },
      "totalBorrowAmountWithInterest(address,address)": {
        "params": {
          "_asset": "asset address"
        },
        "returns": {
          "_totalBorrowAmount": "total deposits amount with interest"
        }
      },
      "totalBorrowShare(address,address)": {
        "details": "Debt token represents a share in total debt of given asset",
        "params": {
          "_asset": "asset address for which to read data",
          "_silo": "Silo address from which to read data"
        },
        "returns": {
          "_0": "totalSupply of debt token"
        }
      },
      "totalDeposits(address,address)": {
        "details": "It reads directly from storage so interest generated between last update and now is not taken for account",
        "params": {
          "_asset": "asset address for which to read data",
          "_silo": "Silo address from which to read data"
        },
        "returns": {
          "_0": "amount of all deposits made for given asset"
        }
      },
      "totalDepositsWithInterest(address,address)": {
        "params": {
          "_asset": "asset address"
        },
        "returns": {
          "_totalDeposits": "total deposits amount with interest"
        }
      }
    },
    "title": "SiloLens",
    "version": 1
  },
  "userdoc": {
    "kind": "user",
    "methods": {
      "balanceOfUnderlying(uint256,address,address)": {
        "notice": "Get underlying balance of collateral or debt token"
      },
      "borrowAPY(address,address)": {
        "notice": "Yearly interest rate for borrowing asset token, dynamically calculated for current block timestamp"
      },
      "borrowShare(address,address,address)": {
        "notice": "Get debt token balance of a user"
      },
      "calcFee(uint256)": {
        "notice": "Calculate amount of entry fee for given amount"
      },
      "calculateBorrowValue(address,address,address)": {
        "notice": "Calculate value of borrowed asset by user"
      },
      "calculateCollateralValue(address,address,address)": {
        "notice": "Calculate value of collateral asset for user"
      },
      "collateralBalanceOfUnderlying(address,address,address)": {
        "notice": "Get underlying balance of all deposits of given token of given user including \"collateralOnly\" deposits"
      },
      "collateralOnlyDeposits(address,address)": {
        "notice": "Get amount of asset token that has been deposited to Silo with option \"collateralOnly\""
      },
      "debtBalanceOfUnderlying(address,address,address)": {
        "notice": "Get amount of debt of underlying token for given user"
      },
      "depositAPY(address,address)": {
        "notice": "Yearly interest rate for depositing asset token, dynamically calculated for current block timestamp"
      },
      "getBorrowAmount(address,address,address,uint256)": {
        "notice": "Calculates current borrow amount for user with interest"
      },
      "getUserLTV(address,address)": {
        "notice": "Returns Loan-To-Value for an account"
      },
      "getUserLiquidationThreshold(address,address)": {
        "notice": "Get combined liquidation threshold for a user"
      },
      "getUserMaximumLTV(address,address)": {
        "notice": "Get combined maximum Loan-To-Value for a user"
      },
      "getUtilization(address,address)": {
        "notice": "Calculates fraction between borrowed amount and the current liquidity of tokens for given asset denominated in percentage"
      },
      "hasPosition(address,address)": {
        "notice": "Check if user has position (debt or borrow) in any asset"
      },
      "inDebt(address,address)": {
        "notice": "Check if user is in debt"
      },
      "protocolFees(address,address)": {
        "notice": "Get amount of fees earned by protocol to date"
      },
      "totalBorrowAmount(address,address)": {
        "notice": "Get amount of asset that has been borrowed"
      },
      "totalBorrowAmountWithInterest(address,address)": {
        "notice": "returns total borrow amount with interest dynamically calculated at current block timestamp"
      },
      "totalBorrowShare(address,address)": {
        "notice": "Get totalSupply of debt token"
      },
      "totalDeposits(address,address)": {
        "notice": "Get amount of asset token that has been deposited to Silo"
      },
      "totalDepositsWithInterest(address,address)": {
        "notice": "returns total deposits with interest dynamically calculated at current block timestamp"
      }
    },
    "notice": "Utility contract that simplifies reading data from Silo protocol contracts",
    "version": 1
  },
  "storageLayout": {
    "storage": [],
    "types": null
  }
}